:100000000C9460010C9488010C9488010C94880174
:100010000C9488010C9488010C9488010C9488013C
:100020000C9488010C9488010C946D130C947A152F
:100030000C9488010C9488010C9488010C9488011C
:100040000C9488010C9488010C9488010C9488010C
:100050000C9488010C9488010C9488010C94C41BA6
:100060000C9488010C9488010C9488010C948801EC
:100070000C9488010C9488010C9488010C948801DC
:100080000C9488010C9488010C9488010C948801CC
:100090000C940E1C0C9488010C9488010C9488011B
:1000A0000C9488010C9488010C948801F621FB21A2
:1000B00000220A2214225E225E225E221E222822B2
:1000C00032223C2249225E225122F91AFC1AEB1AF2
:1000D000EF1AF51A1D1B1D1B1D1B001B041B081B03
:1000E0000E1B121B1D1B181B000000002300260006
:1000F00029002C002F000404040404030405020258
:1001000002020403020202020606060606060404B0
:100110000202020404040802011040804010204042
:1001200080408008020401804020100201108010ED
:10013000204040200000000200090F0000030401DD
:10014000000C0000000000000000000000000000A3
:1001500000000005010906A1018508050719E0292D
:10016000E715002501750195088102190029671519
:100170000025017501956881029501750815002615
:10018000E700190029E78100C0050C0901A10185DC
:10019000051500250109E909EA750195028106099D
:1001A000E29501810609B09501810609B1950181A9
:1001B0000609B79501810609B59501810609B6952D
:1001C00001810609B39501810609B495018106955F
:1001D000068107C0080B00020202010009040000AA
:1001E00001020200000524001001052401010104A0
:1001F00024020605240600010705810310004009BA
:10020000040100020A000000070502024000000786
:100210000583024000000403090441726475696E9D
:100220006F204C4C430041726475696E6F204C65C1
:100230006F6E6172646F00120100020000004041A5
:1002400023368000010102030112010002EF0201C6
:10025000404123368000010102030105010906A186
:1002600001050719E029E7150025017501950881A9
:1002700002050C95017508150026FF00190029FFDD
:1002800081000508190129089508750191020507E3
:1002900095067508150026E700190029E78100C0BA
:1002A00000000000240027002A002D00300000007C
:1002B0000000250028002B002E0031001B1ED32239
:1002C00011241FBECFEFDAE0DEBFCDBF14E0A0E007
:1002D000B1E0E6E8FBE402C005900D92A032B10760
:1002E000D9F727E0A0E2B4E001C01D92A231B20725
:1002F000E1F711E0CFE5D1E004C02197FE010E94B3
:10030000F922CE35D107C9F70E940A1F0C94B625F1
:100310000C9400003F924F925F926F927F928F9267
:100320009F92AF92BF92CF92DF92EF92FF920F9384
:100330001F93CF93DF93CDB7DEB763970FB6F894D3
:10034000DEBF0FBECDBF8C0169E971E00E942412AF
:10035000882321F088EA91E00E94BF1064EB71E0ED
:10036000C8010E942412882321F083EC91E00E94AE
:10037000BF1063ED71E0C8010E942412882321F0B0
:1003800083EC91E00E94BF1065EE71E0C8010E940D
:100390002412882321F086EF91E00E94BF106AE0CA
:1003A00072E0C8010E942412882319F08AE192E0C9
:1003B000B4C16EE172E0CE0101960E941213BE013B
:1003C0006F5F7F4FC8010E940912F82ECE0101967F
:1003D0000E94F312FF2009F4F5C0C8010E940D101D
:1003E000AC014F5F5F4FB801CE0101960E940D0C2A
:1003F000BE016F5F7F4FC8010E944312CE0101967C
:100400000E94F312C8010E940D109C0140E050E0D0
:10041000B801CE0101960E942713CE0101960E94D9
:10042000F710962ECE0101960E94F312C8010E9489
:100430000D10AC014F5F5F4FB801CE0101960E94D5
:100440000D0CBE016F5F7F4FC8010E944312CE01A9
:1004500001960E94F312C8010E940D109C0140E019
:1004600050E0B801CE0101960E942713CE010196FB
:100470000E94F710A62ECE0101960E94F312C80129
:100480000E940D10AC014F5F5F4FB801CE01019685
:100490000E940D0CBE016F5F7F4FC8010E94431286
:1004A000CE0101960E94F312C8010E940D109C011A
:1004B00040E050E0B801CE0101960E942713CE0122
:1004C00001960E94F710B62ECE0101960E94F312FB
:1004D000C8010E940D10AC014F5F5F4FB801CE0103
:1004E00001960E940D0CBE016F5F7F4FC8010E94F4
:1004F0004312CE0101960E94F312C8010E940D1012
:100500009C0140E050E0B801CE0101960E94271303
:10051000CE0101960E94F710C62ECE0101960E94D0
:10052000F312C8010E940D10AC014F5F5F4FB8017C
:10053000CE0101960E940D0CBE016F5F7F4FC80176
:100540000E944312CE0101960E94F312C8010E943C
:10055000F710D62E88E0A89E70011124E90CF11C3A
:1005600088E2B89EE00CF11C1124EE0CFF1C6C2DEF
:10057000C7010E94FD1D6D2DC70101960E94FD1D42
:100580008CE292E00E940B10892D0E94661080E59B
:1005900092E00E940B108A2D0E94661080E592E086
:1005A0000E940B108B2D0E94661080E592E00E9445
:1005B0000B108C2D0E94661080E592E00E940B10BB
:1005C0008D2D6FC065E372E0CE0101960E9412137B
:1005D000BE016F5F7F4FC8010E940912F82ECE0145
:1005E00001960E94F312FF2009F45EC0C8010E9428
:1005F0000D10AC014F5F5F4FB801CE0101960E9414
:100600000D0CBE016F5F7F4FC8010E944312CE01E7
:1006100001960E94F312C8010E940D109C0140E057
:1006200050E0B801CE0101960E942713CE01019639
:100630000E94F7106B017C01CE0101960E94F3121B
:10064000C8010E940D10AC014F5F5F4FB801CE0191
:1006500001960E940D0CBE016F5F7F4FC8010E9482
:100660004312CE0101960E94F312C8010E94F710B6
:10067000B62EC6010E94FD1D86E492E00E940B107A
:10068000B601DD0C880B990B97FF03C00E94801008
:1006900003C04AE00E94251080E592E00E940B1002
:1006A0008B2D0E946D107DC162E572E0CE01019636
:1006B0000E941213BE016F5F7F4FC8010E94091292
:1006C000F82ECE0101960E94F312FF2049F1C801D5
:1006D0000E940D10AC014F5F5F4FB801CE01019633
:1006E0000E940D0CBE016F5F7F4FC8010E94431234
:1006F000CE0101960E94F312C8010E94F710F62E57
:100700008FE08F1540F06F2D8FEF93E00E94FD1D5D
:1007100080E692E0D5C081E792E00E94BF1041C11F
:100720006CE872E0C8010E942412882319F08FEF50
:1007300093E02CC06AE972E0CE0101960E94121388
:10074000BE016F5F7F4FC8010E940912F82ECE01D3
:1007500001960E94F312FF20E1F0C8010E940D10E3
:10076000AC014F5F5F4FB801CE0101960E940D0CA6
:10077000BE016F5F7F4FC8010E944312CE010196F8
:100780000E94F312C8010E94F710CB010E94191EAB
:1007900088CF6BEA72E0CE0101960E941213BE016F
:1007A0006F5F7F4FC8010E940912F82ECE0101969B
:1007B0000E94F312FF2009F487C0C8010E940D10A7
:1007C000AC014F5F5F4FB801CE0101960E940D0C46
:1007D000BE016F5F7F4FC8010E944312CE01019698
:1007E0000E94F312C8010E940D109C0140E050E0ED
:1007F000B801CE0101960E942713CE0101960E94F6
:10080000F710E62ECE0101960E94F312C8010E9455
:100810000D10AC014F5F5F4FB801CE0101960E94F1
:100820000D0CBE016F5F7F4FC8010E944312CE01C5
:1008300001960E94F312C8010E940D109C0140E035
:1008400050E0B801CE0101960E942713CE01019617
:100850000E94F710C62ECE0101960E94F312C80125
:100860000E940D10AC014F5F5F4FB801CE010196A1
:100870000E940D0CBE016F5F7F4FC8010E944312A2
:10088000CE0101960E94F312C8010E94F710A62E15
:10089000B12CD12CF12CA501B601C7010E94FA0B95
:1008A000982EA501B601C7010E94E60BF82E89EB30
:1008B00092E00E940B10892D0E94661080E592E064
:1008C0000E940B108F2DEDCE65EC72E0CE010196EB
:1008D0000E941213BE016F5F7F4FC8010E94091270
:1008E000F82ECE0101960E94F312FF2019F085E048
:1008F00090E015C063ED72E0CE0101960E941213E4
:10090000BE016F5F7F4FC8010E940912F82ECE0111
:1009100001960E94F312FF2029F088E090E00E94E7
:10092000A7103FC061EE72E0CE0101960E94121343
:10093000BE016F5F7F4FC8010E940912F82ECE01E1
:1009400001960E94F312FF2061F1C8010E940D1070
:10095000AC014F5F5F4FB801CE0101960E940D0CB4
:10096000BE016F5F7F4FC8010E944312CE01019606
:100970000E94F312C8010E94F710611103C0109287
:10098000030103C081E08093030182EF92E00E94A3
:100990000B106091030170E080E090E04AE00E945B
:1009A0002510B801CE0107960E94F8126EEF72E092
:1009B000CE0101960E941213BE016F5F7F4FCE01E0
:1009C00007960E940912F82ECE0101960E94F3129A
:1009D000FF2009F440C0CE0107960E940D10AC0123
:1009E0004F5F5F4FBE01695F7F4FCE0101960E944E
:1009F0000D0CBE016F5F7F4FCE0107960E94431220
:100A0000CE0101960E94F312CE0107960E94F710C4
:100A1000F62E82E08F15D0F06F2D8EEF93E00E94BE
:100A2000FD1D8091FD04813019F488E795E002C036
:100A300084E695E00E94220DF092FD040E94E80FEA
:100A40008DE093E00E940B108F2D11C08CE193E09C
:100A50000E94BF100EC067E373E0CE0107960E94AC
:100A60002412882331F08EEF93E00E94191E0E9419
:100A70006D10CE0107960E94F312B801CE010D96BB
:100A80000E94F81266E473E0CE010D960E942412D3
:100A9000882321F085E593E00E940B10BE01635F7F
:100AA0007F4FCE0107960E94F81266E473E0CE01F4
:100AB00001960E941213BE016F5F7F4FCE01079611
:100AC0000E940912182FCE0101960E94F3121123E1
:100AD00029F08FE593E00E940B106BC067E673E08E
:100AE000CE0101960E941213BE016F5F7F4FCE01AF
:100AF00007960E940912182FCE0101960E94F31248
:100B00001123C9F1CE0107960E940D10AC014F5F71
:100B10005F4FBE01695F7F4FCE0101960E940D0CB1
:100B2000BE016F5F7F4FCE0107960E944312CE0138
:100B300001960E94F312CE0107960E940D109C01AF
:100B400040E050E0BE01695F7F4FCE0101960E94F8
:100B50002713CE0101960E94F710CE0101966B8BF0
:100B60000E94F3126B8970E070930201609301019F
:100B70008CE793E016C06DE873E0CE0101960E9409
:100B80001213BE016F5F7F4FCE0107960E940912BC
:100B9000182FCE0101960E94F312112351F082EA20
:100BA00093E00E940B1080910101909102010E943C
:100BB000A710CE0107960E94F312BE01635F7F4F1C
:100BC000CE0107960E94F81266E473E0CE0101960A
:100BD0000E941213BE016F5F7F4FCE0107960E94E5
:100BE0000912182FCE0101960E94F312112321F051
:100BF00083EB93E00E940B10CE0107960E94F31244
:100C0000BE01635F7F4FCE0107960E94F81266E433
:100C100073E0CE0101960E941213BE016F5F7F4FF9
:100C2000CE0107960E940912182FCE0101960E944C
:100C3000F312112321F08CEB93E00E940B10CE01F4
:100C400007960E94F312BE01635F7F4FCE010796A5
:100C50000E94F81266E473E0CE0101960E9412131E
:100C6000BE016F5F7F4FCE0107960E940912182FB9
:100C7000CE0101960E94F312112321F086EC93E03D
:100C80000E940B10CE0107960E94F312BE01635F13
:100C90007F4FCE0107960E94F81266E473E0CE0102
:100CA00001960E941213BE016F5F7F4FCE0107961F
:100CB0000E940912182FCE0101960E94F3121123EF
:100CC00029F086ED93E00E940B1085C16CEC73E077
:100CD000CE0101960E941213BE016F5F7F4FCE01BD
:100CE00007960E940912182FCE0101960E94F31256
:100CF000112309F470C1CE0107960E940D10AC01BA
:100D00004F5F5F4FBE01695F7F4FCE0101960E942A
:100D10000D0CBE016F5F7F4FCE0107960E944312FC
:100D2000CE0101960E94F312CE0107960E940D108B
:100D30009C0140E050E0BE01695F7F4FCE0101960B
:100D40000E942713CE0101960E94F710F62ECE01C5
:100D500001960E94F312CE0107960E940D10AC017D
:100D60004F5F5F4FBE01695F7F4FCE0101960E94CA
:100D70000D0CBE016F5F7F4FCE0107960E9443129C
:100D8000CE0101960E94F312CE0107960E940D102B
:100D90009C0140E050E0BE01695F7F4FCE010196AB
:100DA0000E942713CE0101960E94F710E62ECE0175
:100DB00001960E94F31282E1F89E800111248BE0DB
:100DC0008F1548F088E08E1530F06E2DC801875AD7
:100DD0009D4F0E94FD1D480188EA881A8DEF980AF0
:100DE000580185EAA81A8DEFB80A065A1D4FC12C82
:100DF000D12C412C512C32014394CE0107960E94F4
:100E00000D10AC014F5F5F4FBE01695F7F4FCE0198
:100E100001960E940D0CBE016F5F7F4FCE010796B9
:100E20000E944312CE0101960E94F312CE01079652
:100E30000E940D109C0140E050E0BE01695F7F4FB1
:100E4000CE0101960E942713CE0101960E94F71051
:100E5000CE0101966B8B0E94F3126B898BE08F158C
:100E600018F0C8010E94FD1DCE0107960E940D10CA
:100E7000AC014F5F5F4FBE01695F7F4FCE010196AE
:100E80000E940D0CBE016F5F7F4FCE0107960E943E
:100E90004312CE0101960E94F312CE0107960E94E2
:100EA0000D109C0140E050E0BE01695F7F4FCE0114
:100EB00001960E942713CE0101960E94F710CE01E1
:100EC00001966B8B0E94F3126B898BE08F1518F0E3
:100ED000C5010E94FD1DCE0107960E940D10AC01B8
:100EE0004F5F5F4FBE01695F7F4FCE0101960E9449
:100EF0000D0CBE016F5F7F4FCE0107960E9443121B
:100F0000CE0101960E94F312CE0107960E940D10A9
:100F10009C0140E050E0BE01695F7F4FCE01019629
:100F20000E942713CE0101960E94F710362ECE01A3
:100F300001960E94F3128BE08F15C8F0C4010E9445
:100F4000191E282FD301C2010C2C04C0880F991F31
:100F5000AA1FBB1F0A94D2F7332019F0622F682B07
:100F600003C08095622F6823C4010E94FD1D8FEF8E
:100F7000C81AD80A82E0A80EB11C0E5F1F4F88E085
:100F8000C816D10409F039CFCE0107960E940D1082
:100F9000AC014F5F5F4FBE01695F7F4FCE0101968D
:100FA0000E940D0CBE016F5F7F4FCE0107960E941D
:100FB0004312CE0101960E94F3128CED93E00E9441
:100FC0000B108F2D0E94661080E592E00E940B109E
:100FD0008E2D0E946D10CE0107960E94F312BE0165
:100FE000635F7F4FCE0107960E94F81266E473E0BC
:100FF000CE0101960E941213BE016F5F7F4FCE019A
:1010000007960E940912182FCE0101960E94F31232
:10101000112321F087EE93E00E940B10CE0107967A
:101020000E94F312BE01635F7F4FCE0107960E94BC
:10103000F81266E473E0CE0101960E941213BE011D
:101040006F5F7F4FCE0107960E940912182FCE01C5
:1010500001960E94F312112329F082EF93E00E947F
:101060000B1038C26BEF73E0CE0101960E94121391
:10107000BE016F5F7F4FCE0107960E940912182FA5
:10108000CE0101960E94F312112309F423C2CE016E
:1010900007960E940D10AC014F5F5F4FBE01695F64
:1010A0007F4FCE0101960E940D0CBE016F5F7F4FF6
:1010B000CE0107960E944312CE0101960E94F312C0
:1010C000CE0107960E940D109C0140E050E0BE0149
:1010D000695F7F4FCE0101960E942713CE010196D2
:1010E0000E94F710B62ECE0101960E94F312CE0197
:1010F00007960E940D10AC014F5F5F4FBE01695F04
:101100007F4FCE0101960E940D0CBE016F5F7F4F95
:10111000CE0107960E944312CE0101960E94F3125F
:10112000CE0107960E940D109C0140E050E0BE01E8
:10113000695F7F4FCE0101960E942713CE01019671
:101140000E94F710362ECE0101960E94F312CE01B6
:1011500007960E940D10AC014F5F5F4FBE01695FA3
:101160007F4FCE0101960E940D0CBE016F5F7F4F35
:10117000CE0107960E944312CE0101960E94F312FF
:10118000CE0107960E940D109C0140E050E0BE0188
:10119000695F7F4FCE0101960E942713CE01019611
:1011A0000E94F710462ECE0101960E94F312CE0146
:1011B00007960E940D10AC014F5F5F4FBE01695F43
:1011C0007F4FCE0101960E940D0CBE016F5F7F4FD5
:1011D000CE0107960E944312CE0101960E94F3129F
:1011E000CE0107960E940D109C0140E050E0BE0128
:1011F000695F7F4FCE0101960E942713CE010196B1
:101200000E94F710562ECE0101960E94F312CE01D5
:1012100007960E940D10AC014F5F5F4FBE01695FE2
:101220007F4FCE0101960E940D0CBE016F5F7F4F74
:10123000CE0107960E944312CE0101960E94F3123E
:10124000CE0107960E940D109C0140E050E0BE01C7
:10125000695F7F4FCE0101960E942713CE01019650
:101260000E94F710662ECE0101960E94F312CE0165
:1012700007960E940D10AC014F5F5F4FBE01695F82
:101280007F4FCE0101960E940D0CBE016F5F7F4F14
:10129000CE0107960E944312CE0101960E94F312DE
:1012A000CE0107960E940D109C0140E050E0BE0167
:1012B000695F7F4FCE0101960E942713CE010196F0
:1012C0000E94F710762ECE0101960E94F312CE01F5
:1012D00007960E940D10AC014F5F5F4FBE01695F22
:1012E0007F4FCE0101960E940D0CBE016F5F7F4FB4
:1012F000CE0107960E944312CE0101960E94F3127E
:10130000CE0107960E940D109C0140E050E0BE0106
:10131000695F7F4FCE0101960E942713CE0101968F
:101320000E94F710862ECE0101960E94F312CE0184
:1013300007960E940D10AC014F5F5F4FBE01695FC1
:101340007F4FCE0101960E940D0CBE016F5F7F4F53
:10135000CE0107960E944312CE0101960E94F3121D
:10136000CE0107960E940D109C0140E050E0BE01A6
:10137000695F7F4FCE0101960E942713CE0101962F
:101380000E94F710962ECE0101960E94F312CE0114
:1013900007960E940D10AC014F5F5F4FBE01695F61
:1013A0007F4FCE0101960E940D0CBE016F5F7F4FF3
:1013B000CE0107960E944312CE0101960E94F312BD
:1013C000CE0107960E94F710A62E0B2D10E083E1A8
:1013D0008B1590F1780183E0EE0CFF1C8A95E1F704
:1013E000670186EBC81A8CEFD80AC6010E94191E45
:1013F0008C7F682F630DC6010E94FD1DC6010E94EF
:10140000191E8370942D990F990F682F690FC601CB
:101410000E94FD1D652DC701845B9C4F0E94FD1D30
:10142000672DC701825B9C4F0E94FD1D692DC7017E
:10143000805B9C4F0E94FD1D462D60E0C8010E940C
:10144000BE0B482D61E0C8010E94BE0B4A2D62E030
:10145000C8010E94BE0B8EE094E00E940B108B2D01
:101460000E94661080E592E00E940B10832D0E947E
:10147000661080E592E00E940B10842D0E94661099
:1014800080E592E00E940B10852D0E94661080E599
:1014900092E00E940B10862D0E94661080E592E07B
:1014A0000E940B10872D0E94661080E592E00E943A
:1014B0000B10882D0E94661080E592E00E940B10B0
:1014C000892D0E94661080E592E00E940B108A2D03
:1014D0000E946D10CE0107960E94F31266E473E03D
:1014E000CE010D960E942412882321F08CE194E015
:1014F0000E940B10CE010D960E94F31263960FB658
:10150000F894DEBF0FBECDBFDF91CF911F910F9139
:10151000FF90EF90DF90CF90BF90AF909F908F9013
:101520007F906F905F904F903F9008958C30910521
:101530008CF4683078F442E1489F9001499F300D67
:101540001124C901860F911D860F911D855A9D4F4B
:101550000C94191E80E00895CF93DF932091F90435
:101560003091FA04882319F02F5F3F4F02C02150B9
:1015700031093093FA042093F904C091F904D09111
:10158000FA048FEF93E00E94191E90E0C817D90764
:101590002CF01092FA041092F90407C0D7FF05C08E
:1015A00001979093FA048093F904DF91CF91089505
:1015B0000F931F93CF93DF9381E08093540400E453
:1015C00014E0C0E0D0E0F80180818823F9F0209792
:1015D00011F480EE04C0C130D10521F481EE0E94E7
:1015E000FF0F12C0C230D10511F482EEF8CFC33024
:1015F000D10511F486EEF3CF8091F9049091FA04AD
:101600009093F8048093F704F801108221960F5FFD
:101610001F4FC431D105B9F6DF91CF911F910F91C2
:101620000895CF92DF92FF920F931F93CF93DF9392
:101630001F92CDB7DEB78EE495E00E946818813026
:1016400051F48EE495E00E94681899279093F8046D
:101650008093F7047BC0823089F58EE495E00E9488
:101660006818F82E8EE495E00E9468186C018EE4EC
:1016700095E00E946818082F8EE495E00E94681893
:10168000682F8EE495E069830E946818182FDD2486
:1016900083E0CC0CDD1C8A95E1F7CF0CD11C88E2ED
:1016A000089FC00CD11C1124CC0CDD1C6981C60123
:1016B0000E94FD1D612FC601019627C0833041F4B1
:1016C0008EE495E00E946818682F8FEF93E01DC0AC
:1016D000843029F58EE495E00E946818682F00E0B8
:1016E00010E020915D0430E080915E04281B3109F8
:1016F000121613064CF48EE495E069830E94681874
:10170000080F191F6981EDCFC8010F90DF91CF91AC
:101710001F910F91FF90DF90CF900C94FD1D8530AD
:1017200051F48EE495E00E94681899279093FA048A
:101730008093F9040BC0863049F48EE495E00E9452
:101740006818992790930201809301010F90DF910F
:10175000CF911F910F91FF90DF90CF90089540910E
:1017600000014093210450E061E274E08EE495E0D2
:101770000E94841881E080930001089584319105CE
:1017800084F4633070F423E0880F991F2A95E1F701
:10179000860F911D860F911D642F835B9C4F0C94C7
:1017A000FD1D0895843191057CF4633068F423E0D5
:1017B000880F991F2A95E1F7845B9C4F860F911D36
:1017C000860F911D0C94191E80E0089523E0660F8A
:1017D000771F2A95E1F7860F971F68E2649F9001B3
:1017E000659F300D1124820F931F880F991F01965A
:1017F0000C94191E23E0660F771F2A95E1F7680FF6
:10180000791F28E2249FC001259F900D1124860F87
:10181000971F880F991F0C94191ECF93DF93EC012B
:10182000FB01248135810E942713CE01DF91CF91E6
:1018300008950F931F93CF93DF93EC01E881F98113
:101840000084F185E02D40E009958C01892B39F069
:10185000E881F9810680F781E02DCE010995C80164
:10186000DF91CF911F910F9108950F931F93CF9305
:10187000DF93EC01E881F9810084F185E02D41E0FE
:1018800009958C01892B39F0E881F9810680F7816F
:10189000E02DCE010995C801DF91CF911F910F91E5
:1018A0000895FF920F931F93CF93DF938C01F62E31
:1018B0000E94350CEC01892B21F06F2DC8010E948C
:1018C000190CCE01DF91CF911F910F91FF900895D8
:1018D000CF93DF93D82FC62F80910301882309F47B
:1018E00054C0611104C08D2F0E94FF0F4EC06130A3
:1018F00091F06230C9F48091200481110CC0809174
:10190000FD046CE2813019F488E795E002C084E6BA
:1019100095E00E94510C8091F9049091FA04909303
:10192000F8048093F70431C06B3091F06C3019F4F7
:1019300060E080EE24C06D3001F16E3019F460E09B
:1019400086EE1DC06F3039F460E080EE0E94680CB6
:1019500060E081EE14C0603129F460E080EE0E9406
:10196000680C07C0613119F460E080EE04C0623198
:1019700061F460E081EE0E94680C60E082EE0E94FB
:10198000680C60E08D2F0E94680C809100018F31FF
:10199000A8F4E82FF0E0EF5DFB4FD083E1E0E80F23
:1019A000F0E0EF5DFB4FC083E2E0E80FF0E0EF5DB9
:1019B000FB4F91E090838D5F809300018091030144
:1019C000882391F18CEE8C0F8A3070F5C43119F4B4
:1019D00060E080EE04C0C53129F460E081EE0E9431
:1019E000680C12C0C63119F460E082EEF8CFC7313E
:1019F00019F460E086EEF3CF8091F9049091FA0437
:101A00009093F8048093F7048091200481110CC016
:101A10008091FD046D2F813019F488E795E002C0B4
:101A200084E695E00E94510C80910301882339F0EF
:101A3000C33129F48D2FDF91CF910C94BD1DDF911F
:101A4000CF9108950F931F93CF93DF93EC01E8811B
:101A5000F9810480F581E02D09958C01892B39F0FD
:101A6000E881F9810680F781E02DCE010995C80152
:101A7000DF91CF911F910F9108956F927F928F9276
:101A80009F92AF92BF92CF92DF92EF92FF920F930D
:101A90001F93CF93DF9300D01F92CDB7DEB7082FEF
:101AA000162F81E08093200480910301882309F49C
:101AB00092C0611104C0802F0E94F30F8CC061306E
:101AC00021F0623059F410922004802F002E000C77
:101AD000990B9093F8048093F7047DC06330B9F5B7
:101AE000011102C081E003C0013021F480E00E94B6
:101AF000AC0A71C0E090F904F090FA0481E00E2C79
:101B000001C0880F0A94EAF7282F3AE0C32ED12C9F
:101B1000220F69F08FEFE81AF80A8FEF93E02B831A
:101B20000E94191E90E02B81E816F9061CF021E0B6
:101B3000E12CF12C822F802329F0F092FA04E0921C
:101B4000F90449C091E0C91AD10811F7F6CF653000
:101B500089F42091F7043091F804802F002E000CB6
:101B6000990B2817390709F0B0CF8091F9049091AB
:101B7000FA04AFCF6B3091F06C3019F460E080EE76
:101B800024C06D3001F16E3019F460E086EE1DC0A6
:101B90006F3039F460E080EE0E943D0D60E081EE30
:101BA00014C0603129F460E080EE0E943D0D07C052
:101BB000613119F460E080EE04C0623161F460E0EC
:101BC00081EE0E943D0D60E082EE0E943D0D60E0DE
:101BD000802F0E943D0D80910301882361F1163012
:101BE00051F58091FD04813019F488E795E002C039
:101BF00084E695E00E94220D602F8EEF93E00E9414
:101C0000FD1D8091FD04813019F488E795E002C044
:101C100084E695E00E94220D0093FD040E94E80FE7
:101C20008091FD04813019F488E795E002C084E6D4
:101C300095E00E94220D209103012223C1F11A3068
:101C4000B1F50536B4F48091010190910201800F45
:101C5000911D07FD9A9597FF05C010920201109201
:101C6000010125C08F3F9105F1F0ECF08FEF90E07E
:101C70001AC0053691F3063619F480E290E013C0DD
:101C8000073619F480E490E00EC0083619F480E6B7
:101C900090E009C0093619F480E890E004C00A36E3
:101CA00031F480EA90E090930201809301018091E9
:101CB00000018F31A8F4E82FF0E0EF5DFB4F0083C7
:101CC000E1E0E80FF0E0EF5DFB4F1083E2E0E80FAA
:101CD000F0E0EF5DFB4F95E090838D5F8093000116
:101CE000222329F1143119F460E080EE09C0153186
:101CF00019F460E081EE04C0163139F460E082EE40
:101D00000E943D0D1092200412C0173119F460E0BA
:101D100086EEF6CF88EE810F863048F410922004CC
:101D2000812F90E047979093F8048093F704809177
:101D30000301882359F1143049F5011102C081E0F3
:101D400017C0013011F482E013C0023011F419837E
:101D500010C0033011F488E00BC0043011F480E1AE
:101D600007C0053011F480E403C0063079F480E840
:101D700089831A820E94701D22E030E0AE014F5F1D
:101D80005F4F65E00E943C1D0E94D20F80910301CD
:101D9000882309F45DC0173009F05AC0802E002E48
:101DA000000C99088CE0881691040CF051C092E167
:101DB000090260011124C601875A9D4F0E94191E15
:101DC000560196EAA91A9DEFB90AE12CF12C682E6A
:101DD000712C88EAC81A8DEFD80AE614F7042CF59E
:101DE000C6010E94191E90E00E2C02C095958795A1
:101DF0000A94E2F76E2D80FF8BC0C4010E94960A00
:101E0000682FC5016B830E94191E6B810E94680CAC
:101E100065E070E080E090E00E948A1B9FEFE91A85
:101E2000F90A82E0A80EB11CD8CF8091F9049091F4
:101E3000FA049093F8048093F7048091FD048130B4
:101E400019F488E795E002C084E695E00E94220D2F
:101E500080910301882379F11E3159F5802F002EDE
:101E6000000C990BFC01E05CFB4F308121E0232743
:101E700020832223F1F0011102C080EE03C0013063
:101E800021F481EE0E94F30F11C0023011F482EEB2
:101E9000F9CF033011F486EEF5CF2CEF200F20316F
:101EA00028F403979093F8048093F7041092540455
:101EB00002C00E94D80A809103018823A9F113313E
:101EC00099F5002E000C110BF801ED56FB4F8081A7
:101ED000843050F58F5F8083043111056CF4C801A4
:101EE00023E0880F991F2A95E1F7865B9C4F0E949B
:101EF000191E8695869501C080E0F801E158FB4FD8
:101F0000880F8083F801E559FB4F81E080830CC086
:101F1000C4010E94960A682FC5016B830E94191E96
:101F20006B810E943D0D74CF0F900F900F90DF9149
:101F3000CF911F910F91FF90EF90DF90CF90BF90C6
:101F4000AF909F908F907F906F900895CF93DF9385
:101F5000EC01E881F9810480F581E02D0995E881A3
:101F6000F9810680F781E02DCE01DF91CF910994B0
:101F7000BC01009791F0FC0101900020E9F7319736
:101F8000AF01481B590BE091FE04F091FF04028061
:101F9000F381E02D8EEF94E0099480E090E00895C5
:101FA0000E94F624CF93DF9300D0CDB7DEB719821D
:101FB0001A820E94701D22E030E0AE014F5F5F4F39
:101FC00065E00E943C1D0F900F90DF91CF91089526
:101FD0008091FD04813019F488E795E002C084E621
:101FE00095E00C94A60F682F8091FD04813019F4C0
:101FF00088E795E002C084E695E00C94350C682FE4
:102000008091FD04813019F488E795E002C084E6F0
:1020100095E00C94190C0C94B80FCF93DF93FC014E
:1020200024813581232B61F0C081D18168E270E089
:10203000CE010E940425009719F08C1B9D0B02C055
:102040008FEF9FEFDF91CF9108958F929F92AF9284
:10205000BF920F931F93CF93DF93CDB7DEB7A197B6
:102060000FB6F894DEBF0FBECDBF19A2423008F400
:102070004AE08E010F5D1F4F842E912CA12CB12CB4
:10208000A50194010E94D722E62FB901CA0101508F
:102090001109EA3014F4E05D01C0E95CD801EC9369
:1020A000232B242B252B61F7C8010E94B80FA19682
:1020B0000FB6F894DEBF0FBECDBFDF91CF911F9159
:1020C0000F91BF90AF909F908F900895682F70E010
:1020D00080E090E04AE00C942510CF93DF93682FC6
:1020E00070E080E090E04AE00E942510EC018CE175
:1020F00094E00E94B80F8C0F9D1FDF91CF9108953F
:10210000CF92DF92EF92FF92CF93DF936B017C012E
:10211000E091FE04F091FF040190F081E02D6DE26A
:102120008EEF94E00995EC0166277727CB016C19B7
:102130007D098E099F094AE00E9425108C0F9D1F82
:10214000DF91CF91FF90EF90DF90CF900895CF93E4
:10215000DF93BC01990F880B990B97FF03C00E9476
:10216000801003C04AE00E942510EC018CE194E04D
:102170000E94B80F8C0F9D1FDF91CF910895CF93D0
:10218000DF930E94B80FEC018CE194E00E94B80F3D
:102190008C0F9D1FDF91CF910895FC018091FC046D
:1021A000811103C08FEF9FEF08959FB7F89482E0ED
:1021B0008093E9002091F20030E01216130614F427
:1021C00021E030E02115310559F0289884E680930C
:1021D000FB048091F10080838091F200882319F044
:1021E0009FBFC90108958BE68093E800F9CFFC01F9
:1021F00080819181009711F00C942D2560E070E0B2
:10220000CB0108950895409166065091670620918C
:1022100064063091650642175307B4F49091E800C4
:102220009570E1F39091E80092FD19C08093F10060
:10223000809166069091670601968F739927892B86
:1022400019F48EEF8093E8008091660690916706FE
:102250000196909367068093660681E0089580E07A
:102260000895CF92DF92EF92FF920F931F93CF9337
:10227000DF931F92CDB7DEB7182F062FE42E862FDF
:10228000880F8E5F99830E94031183E00E940311DF
:10229000F12EC12E9981D92E8C2D8F19801798F48B
:1022A000F601E7FE02C0849101C080810E94031103
:1022B000182F80E00E9403118123FFEFCF1ADF0A5D
:1022C0008111EACF01C081E00F90DF91CF911F9182
:1022D0000F91FF90EF90DF90CF900895615030F014
:1022E0002091F100FC0120830196F8CF289884E624
:1022F0008093FB040895CF92DF92EF92FF920F93A9
:102300001F93CF93DF936C017A018B01C0E0D0E083
:10231000CE15DF0589F0D8016D918D01D601ED91C3
:10232000FC910190F081E02DC6010995892B11F4F3
:102330007E0102C02196ECCFC701DF91CF911F91A2
:102340000F91FF90EF90DF90CF900895CF93DF93A0
:102350001F92CDB7DEB76983DC01ED91FC9102805D
:10236000F381E02D41E050E0BE016F5F7F4F0995A2
:102370000F90DF91CF91089583E08093E9008091E1
:10238000F200882319F08AE38093E80008950F9300
:102390001F93CF93DF931F92CDB7DEB78C01FC0163
:1023A0008485958597FF0EC0CE0101960E94CD10C1
:1023B000019719F4298130E002C02FEF3FEFF801B7
:1023C00035872487F801848595850F90DF91CF911B
:1023D0001F910F910895CF93DF931F92CDB7DEB772
:1023E000FC018485958597FD05C02FEF3FEF35876C
:1023F00024870BC0CE0101960E94CD10019719F4DD
:10240000898190E002C08FEF9FEF0F90DF91CF9115
:102410000895FB0144815581FC01248135812417F5
:10242000350778F080819181009759F0FB01608138
:1024300071816115710529F00E941F2521E0892B0A
:1024400009F020E0822F0895FC0124813581232B9F
:1024500031F421E061157105A1F0FB0108C0FC0118
:10246000808191816115710531F421E0FC01808149
:10247000882339F005C00E940F2521E0892B09F03F
:1024800020E0822F08950F931F93CF93DF938C0149
:10249000EB018617970771F1FC018081918100970C
:1024A000B1F0688179816115710579F042815381BC
:1024B0002C813D814217530740F00E9418258C81E2
:1024C0009D81F8019583848313C00E9494238881A1
:1024D0009981F801918380838A819B819383828390
:1024E0008C819D8195838483198218821B821A8234
:1024F0001D821C82C801DF91CF911F910F91089519
:102500000F931F93CF93DF93EC01888199810097FC
:1025100029F02A813B812617370788F48B016F5FEA
:102520007F4F0E942C24009761F0998388831B833E
:102530000A832C813D81232B11F4FC01108281E060
:1025400001C080E0DF91CF911F910F910895EF922C
:10255000FF920F931F93CF93DF93EC017B018A01CE
:10256000BA010E9480122881398181110DC0211584
:10257000310519F0C9010E949423198218821D8225
:102580001C821B821A8206C01D830C83B701C901FD
:102590000E941825CE01DF91CF911F910F91FF90DE
:1025A000EF900895CF93DF93EC016115710559F019
:1025B000FB0101900020E9F73197AF01461B570B53
:1025C0000E94A7120CC088819981009711F00E9487
:1025D0009423198218821D821C821B821A82CE01CA
:1025E000DF91CF910895FC01808191810C94942317
:1025F000FB01DC0111961C921E9213961C921E92F6
:10260000129715961C921E9214978617970749F0F9
:10261000608171816115710521F0448155810C94AF
:10262000A7120895FC011182108213821282158272
:1026300014826115710551F0FB0101900020E9F74A
:102640003197AF01461B570B0C94A7120895BF9208
:10265000CF92DF92EF92FF920F931F93CF93DF936E
:102660007C016B018A01E9012417350720F4812FD1
:102670008901C42FD82F6EE174E0C7010E941213A4
:10268000D60114968D919C91159708171907D0F4CF
:102690008C179D0708F4EC01D601ED91FC91119780
:1026A000EC0FFD1FB08010824D915C91BA01600F5C
:1026B000711FC7010E94D212D601ED91FC91EC0F5F
:1026C000FD1FB082C701DF91CF911F910F91FF9045
:1026D000EF90DF90CF90BF9008951F920F920FB6AA
:1026E0000F9211248F939F938091E1009091E100CC
:1026F000937F9093E10083FF0FC01092E90091E077
:102700009093EB001092EC0092E39093ED00109206
:10271000FC0498E09093F00082FF20C093E0909337
:10272000E9009091F200992319F09AE39093E80060
:1027300090916806992339F0909168069150909392
:102740006806992389F19091FB04992339F09091BF
:10275000FB0491509093FB04992341F184FF10C036
:102760008091E2008E7E81608093E2008091E100A2
:102770008F7E8093E100809156048E7E806111C02F
:1027800080FF16C08091E2008E7E80618093E2001F
:102790008091E1008E7E8093E100809156048E7ED0
:1027A00081608093560404C05D9ACDCF289AD6CF1D
:1027B0009F918F910F900FBE0F901F901895BF9211
:1027C000CF92DF92EF92FF920F931F93CF93DF93FD
:1027D0006C018B01EB019BEFB92E2097C1F07E01BC
:1027E000C134D1051CF080E4E82EF12C8091E80082
:1027F00082FFFCCFC8018C1B9D0B6E2D8C0D9D1D87
:102800000E946E11B092E800CE19DF09E6CFC80130
:10281000DF91CF911F910F91FF90EF90DF90CF90BC
:10282000BF900895DF92EF92FF920F931F93CF9383
:10283000DF93D82E8A017B01E40EF51EEB01CE1545
:10284000DF0571F0D7FE03C0FE01849101C08881CD
:102850000E94031121968111F2CF8FEF9FEF01C0EB
:10286000C801DF91CF911F910F91FF90EF90DF9002
:1028700008958F929F92AF92BF92CF92DF92EF9284
:10288000FF920F931F93CF93DF9300D01F92CDB78A
:10289000DEB7382F8B018091FC04811103C08FEFCC
:1028A0009FEF7DC08091560480FF05C08091E000BD
:1028B00082608093E0004A018AEFF82E832F8770B0
:1028C000E82E9FE3C92E832F8072B82E2AE3D22EE2
:1028D000832F8074A82E8114910409F457C08FB7F8
:1028E000F894E092E9009091E80095FF05C090917E
:1028F000F2002C2D291B01C020E08FBF211110C038
:10290000FA94FF2061F261E070E080E090E03983AA
:102910004A835B830E948A1B39814A815B81DBCFBA
:10292000822F90E0881699060CF4282D6FB7F89442
:10293000E092E9008091E80085FF26C0822F90E0B8
:10294000881A990ABB2029F02150A8F01092F100B2
:10295000FBCFF80137FF07C0215058F074917093F6
:10296000F1003196F9CF215020F071917093F10070
:10297000FACF080F191F8091E80085FF0DC0811460
:10298000910411F4A11008C06FBFA5CF5D9884E633
:1029900080936806CA0103C0D092E800F5CF0F907B
:1029A0000F900F90DF91CF911F910F91FF90EF90BB
:1029B000DF90CF90BF90AF909F908F900895CF936E
:1029C000DF93EC0180911601882331F083E00E94AF
:1029D00039141816190634F081E090E09B838A833D
:1029E00080E090E0DF91CF910895CF93DF93FC01D9
:1029F000DB01C281D381209719F47383628308C0FD
:102A000088859985009711F0EC01FACFB987A887DE
:102A1000808112968C931297818113968C931397D1
:102A2000908115968C911597890F808380E014967C
:102A30009C9114978917A0F49181C92FD0E0AE0121
:102A40004C5F5E4F16962D913C911797280F311DC4
:102A5000E9012881EA0128839F5F91838F5FE7CF97
:102A600081E0DF91CF91089580915B0681110DC0C7
:102A700082E08093570684E08093580610925A06AD
:102A80001092590681E080935B0687E596E00895F1
:102A90000F931F93CF93DF931F92CDB7DEB782E0E2
:102AA000898342E450E064ED71E080E80E941214F2
:102AB0000E943415DC0112960D911C91139701159B
:102AC000110569F0D801ED91FC910280F381E02DB0
:102AD000BE016F5F7F4FC801099597FF07C08981CD
:102AE0000F90DF91CF911F910F910895F80100850C
:102AF0001185E5CF1F920F920FB60F921124CF923E
:102B0000DF92EF92FF920F931F932F933F934F9378
:102B10005F936F937F938F939F93AF93BF93EF9345
:102B2000FF93CF93DF93CDB7DEB76C97DEBFCDBFFA
:102B30001092E9008091E80083FFF4C168E0CE01C3
:102B400045960E946E1182EF8093E8008D8987FF81
:102B500005C09091E80090FFFCCF03C09EEF9093DA
:102B6000E800982F907609F0C6C09E892F89188DAD
:102B700091110CC0803829F4809157048093F100A2
:102B800002C01092F1001092F10041C1422F50E0BA
:102B9000512B913051F481113AC14130510509F066
:102BA00036C1809157048D7F0BC0933061F4811141
:102BB0002EC14130510509F02AC18091570482602D
:102BC0008093570424C1953041F48091E80080FF40
:102BD000FCCF20682093E3001AC1963009F05FC053
:102BE000EB8CFC8C1092E90010926706109266063E
:102BF000123091F510926506109264060E944815F5
:102C000099E0BE016F5F7F4FDB01E92F1D92EA95CE
:102C1000E9F799831A8391E09E8390EA98879AEF67
:102C200099872091660630916706275F3F4F3C8366
:102C30002B838D831092E90010926706109266062E
:102C4000F0926506E092640649E050E080E00E9460
:102C500012140E944815DBC0F0926506E0926406EB
:102C60000E943415DC011296ED90FC901397E1144C
:102C7000F10409F4BAC0D701ED91FC910480F5810B
:102C8000E02DBE016B5E7F4FC7010995009719F0DB
:102C90000CF0BDC0C0C0F701E084F184E8CF9730EC
:102CA00009F4B9C0983021F481E08093F100AFC0FD
:102CB000993009F0ACC0837009F0ADC0E5E0F1E0F7
:102CC00081E021E036E39081992361F08093E9006F
:102CD0002093EB0091919093EC003093ED008F5F87
:102CE000873089F78EE78093EA001092EA008F8997
:102CF0008093FC048CC08B8D9C8D1092E900109207
:102D00006706109266069093650680936406898D27
:102D1000811150C08E899D89913A59F4813209F010
:102D20007AC047E050E06FE071E080E00E9412144A
:102D30006EC0913209F06FC0833289F4888D90E0C3
:102D4000982F88272F89822BA0E0B0E080930B0179
:102D500090930C01A0930D01B0930E0158C08032E6
:102D600039F467E070E08FE091E00E94DF1306C065
:102D7000823209F04CC08F898093160180915504EE
:102D8000882319F0EEEFFAE002C0E0E0F8E080916D
:102D90000F0190911001A0911101B0911201803B9F
:102DA0009440A105B10509F088C08091160180FF0B
:102DB000A0C083C00E943415DC0112960D911C91B5
:102DC00013970115110539F1D801ED91FC9101908E
:102DD000F081E02DBE016B5E7F4FC8010995811126
:102DE00016C0F80100851185ECCF1130C1F0133009
:102DF00091F48F89882309F455C08230E9F440E8C2
:102E000060E186E292E00E943111882321F08EEF8A
:102E10008093E80087C081E28093EB0083C08B8DB4
:102E20009C8D089711F410936306809163068111BD
:102E300036C067E372E038C0813029F440E86BE0C7
:102E40008AE192E0E0CF833031F70E943415DC0153
:102E50001296ED90FC9013978E010F5F1F4F680143
:102E6000E114F10479F0D701ED91FC910680F7812E
:102E7000E02DB801C7010995080F111DF701E08485
:102E8000F184EECFD8011C92F60101900020E9F701
:102E90003197BF016C197D0940E0C601B4CF69E4E8
:102EA00072E002C066E172E06115710509F4B3CF0A
:102EB000FB01449150E080E839CF0FB6F894A89513
:102EC00080916000886180936000109260000FBE66
:102ED000A895EE3F2AE0F20739F08091FE0A909122
:102EE000FF0A9183808393CF1092FF0A1092FE0A0B
:102EF0008ECFEE3F8AE0F80731F080819181909388
:102F0000FF0A8093FE0A87E797E7918380839BE01F
:102F100088E10FB6F894A895809360000FBE909357
:102F2000600075CF6C960FB6F894DEBF0FBECDBFB4
:102F3000DF91CF91FF91EF91BF91AF919F918F91D1
:102F40007F916F915F914F913F912F911F910F91C1
:102F5000FF90EF90DF90CF900F900FBE0F901F90DB
:102F60001895FC018485958597FD0BC09FB7F89453
:102F700082E08093E9008091F2009FBF90E001968B
:102F800008959FB7F89482E08093E9008091F20061
:102F90009FBF90E008953FB7F89480910A07909101
:102FA0000B07A0910C07B0910D0726B5A89B05C093
:102FB0002F3F19F00196A11DB11D3FBFBA2FA92FB8
:102FC000982F8827820F911DA11DB11DBC01CD0135
:102FD00042E0660F771F881F991F4A95D1F7089521
:102FE00085ED8093BC008091BC0084FDFCCF1092E5
:102FF0005A0408954091C206262F30E0240F311D57
:1030000021323105DCF420915A042430C9F4FC014A
:1030100080E090E0861758F43091C2062191DC01DF
:10302000AE55B94FA30FB11D2C930196F3CF8091EC
:10303000C206680F6093C20680E0089581E008959B
:1030400082E00895E0916304F0916404309729F0E0
:1030500010925C0410925B0409940895CF93DF935F
:10306000AC01E0916504F09166043097F1F0909125
:103070005E0480915D049817C0F090E0292F30E045
:103080002617370754F4D901AE57B94FEA01C20FDA
:10309000D31F88818C939F5FF1CF10925E04609361
:1030A0005D04CB01DF91CF910994DF91CF91089519
:1030B0000895E0915E0480915D04E81730F4F0E03B
:1030C000EE57F94F808190E008958FEF9FEF0895BC
:1030D00090915E0480915D04981750F4E92FF0E020
:1030E000EE57F94F208130E09F5F90935E0402C05D
:1030F0002FEF3FEFC901089580915D0490E020918A
:103100005E04821B91090895CF93DF9300D0CDB761
:10311000DEB7CB01642F49835A830E94FA17498195
:10312000842F5A81952F0F900F90DF91CF910895A2
:10313000CF93DF931F92CDB7DEB7698361E0CE01F5
:1031400001960E94FA1781E090E00F90DF91CF91F5
:103150000895FC0134969C01245F3F4F80E090E08D
:103160004081411101961192E217F307C9F70895C2
:10317000FC0120E2260F2830F0F0DC01169620E05A
:1031800030E08D91442349F0861304C0E20FF31F11
:10319000668326C0811107C0F9CF861304C0E20FF1
:1031A000F31F16821DC02F5F3F4F2630310549F7B0
:1031B00080E090E008953481442349F081E090E07C
:1031C00001C0880F2A95EAF7832B848309C041E068
:1031D00050E001C0440F2A95EAF740954323448309
:1031E00081E090E00895FC0134969C012D5E3F4FF4
:1031F00080E090E0608160FD0196462F50E055959B
:103200004795642F452BB9F71192E217F30791F711
:103210000895FC016836B8F4862F877021E030E00D
:1032200001C0220F8A95EAF7669566956695E60FC6
:10323000F11D442319F08581282B03C02095958129
:103240002923258326C050E2560F5830B0F46481FC
:10325000442349F021E030E001C0220F5A95EAF7FB
:10326000262B248316C081E090E001C0880F5A9578
:10327000EAF78095862384830CC08289442331F049
:10328000861711F0811108C0628B03C0861304C039
:10329000128A81E090E0089580E090E00895DC01DA
:1032A000FB0112968C91129790E024813581821750
:1032B0009307D1F491818081813A31F481E091309A
:1032C00091F0933089F411C0813271F49B3021F474
:1032D00082811F968C9305C09A3031F4828150967A
:1032E0008C9381E00895089580E00895DC01FB014E
:1032F00088E4808389E4818384E482831D969C91A1
:103300001D979F709F5B93831D968D919C911E9737
:1033100024E0969587952A95E1F78F708F5B8483DB
:1033200085E00895FC0182818F5BFB01808381E051
:103330000895CF93DF93EC01FB018A8190E0248113
:1033400035818217930709F04AC081819081913AB3
:1033500069F4813009F441C0833011F48F8903C0CE
:103360008230E9F5888D8093F10037C09132B9F54C
:103370008B3019F482818F8B30C08A3019F48281AE
:10338000888F2BC0893059F566817781838183309E
:1033900079F48C8D9D8D6817790709F58A8D9B8D41
:1033A0000E94DF138C8D9D8D90689D8F8C8F15C032
:1033B000823041F46130710591F461E070E0CE013A
:1033C000499609C0813059F46830710541F468E0CC
:1033D00070E0CE010E960E94DF1381E001C080E014
:1033E000DF91CF910895FB0120812138B9F4238129
:1033F0002232A1F4DC0112962C91129730E0448124
:1034000055814217530751F421E057962C9345E418
:1034100050E06BE572E080E80C94121480E090E0DC
:103420000895CF93DF93CDB7DEB769970FB6F894C1
:10343000DEBF0FBECDBFFC01DB019C919F5F9C9363
:10344000BE016F5F7F4F89E1DB011D928A95E9F72D
:1034500029E0298384E08A8391E09D8383E08E8341
:103460009F8398872A8721E22B879C879D879F8748
:1034700022E2288B25E4298B27E02B8B25E02C8B5F
:103480008E8B20E430E0388F2F8B998F82818B8355
:10349000838180688D8B49E150E080E00E941214A6
:1034A00069960FB6F894DEBF0FBECDBFDF91CF9106
:1034B0000895EF92FF920F931F93CF93DF93FB0139
:1034C0002081213851F52381223239F5DC01129611
:1034D0002C9130E04481558142175307F1F4EC01FF
:1034E0000B851C85E12CF12C0115110591F0F801DB
:1034F000448155816281738180E80E9412148F3F5C
:10350000FFEF9F0769F0E80EF91ED8010D911C919D
:10351000EBCF81E08F87C70105C080E090E002C05B
:103520008FEF9FEFDF91CF911F910F91FF90EF9061
:103530000895CF93DF93CDB7DEB769970FB6F894B0
:10354000DEBF0FBECDBFFC01DB018C918F5F8C9382
:10355000BE016F5F7F4F89E1DB011D928A95E9F71C
:1035600029E0298384E08A8391E09D8383E08E8330
:103570002A8721E22B879C879D879F8722E2288BC1
:1035800027E02B8B25E02C8B8E8B20E430E0388FCE
:103590002F8B998F82818B8395858685998B8A8BDA
:1035A000838180688D8B49E150E080E00E94121495
:1035B00069960FB6F894DEBF0FBECDBFDF91CF91F5
:1035C000089590E0FC013197EF30F105B0F5EB592B
:1035D000FF4F0C94F922809180008F7703C0809177
:1035E00080008F7D80938000089580918000877F88
:1035F000F9CF84B58F7702C084B58F7D84BD0895DF
:10360000809190008F7707C0809190008F7D03C0DC
:1036100080919000877F8093900008958091C000F2
:103620008F7703C08091C0008F7D8093C000089584
:103630008091C200877F8093C20008951F93CF932B
:10364000DF93282F30E0F901EC5CFE4F8491F90103
:10365000EB5EFE4FD491F901EA50FF4FC491CC23A9
:10366000C9F0162F81110E94E11AEC2FF0E0EE0F45
:10367000FF1FE255FD4FA591B4918FB7F89411113A
:1036800005C09C91ED2FE095E92302C0EC91ED2B54
:10369000EC938FBFDF91CF911F910895CF93DF936C
:1036A00090E0FC01EB5EFE4F2491FC01EA50FF4FDD
:1036B0008491882361F190E0880F991FFC01E05606
:1036C000FD4FC591D491FC01E255FD4FA591B491F8
:1036D000611109C09FB7F89488812095822388835F
:1036E000EC912E230BC0623061F49FB7F8943881BF
:1036F000822F809583238883EC912E2B2C939FBF60
:1037000006C08FB7F894E8812E2B28838FBFDF91F6
:10371000CF9108958F929F92AF92BF92CF92DF92F6
:10372000EF92FF926B017C010E94CB174B015C0171
:10373000C114D104E104F104F1F00E94CB17DC01C3
:10374000CB0188199909AA09BB09883E9340A105B4
:10375000B10570F321E0C21AD108E108F10888EE42
:10376000880E83E0981EA11CB11CC114D104E10491
:10377000F10419F7DDCFFF90EF90DF90CF90BF906D
:10378000AF909F908F9008951F920F920FB60F9257
:1037900011242F933F938F939F93AF93BF93809167
:1037A000670490916804A0916904B0916A04309113
:1037B000090723E0230F2D3720F40196A11DB11D29
:1037C00005C026E8230F0296A11DB11D209309070D
:1037D0008093670490936804A0936904B0936A048B
:1037E00080910A0790910B07A0910C07B0910D07EB
:1037F0000196A11DB11D80930A0790930B07A0931A
:103800000C07B0930D07BF91AF919F918F913F919E
:103810002F910F900FBE0F901F9018951F920F922F
:103820000FB60F9211242F933F934F935F936F9393
:103830007F938F939F93AF93BF93EF93FF93809169
:10384000B900887F803609F49CC068F5883209F495
:103850005BC090F4803109F454C038F4882309F433
:10386000F6C0883009F44DC0F6C0883109F44CC068
:10387000803209F45DC0EFC0803409F468C048F4B8
:10388000803309F455C0883309F0E5C08093E5061C
:10389000D8C0803509F44FC0883509F45DC088343C
:1038A00009F0D9C0D6C0883909F4C7C0A8F4883750
:1038B00009F467C038F4883609F463C0803709F426
:1038C00060C0C9C0883809F4B8C0803909F45FC045
:1038D000803809F0C0C05BC0803B09F486C038F472
:1038E000803A09F466C0883A09F47FC0B4C0803CCD
:1038F00009F4A7C0883C09F4A4C0883B09F48AC035
:10390000AAC08091080710C0909107078091060710
:10391000981770F5E091070781E08E0F80930707F5
:10392000F0E0EA51F94F80818093BB0085EC86C0BE
:103930008093E5068EC0E091070781E08E0F8093AB
:1039400007078091BB00F0E0EA51F94F8083909126
:103950000707809106076EC0E091070781E08E0F90
:10396000809307078091BB00F0E0EA51F94F808314
:103970008091590481116DC081E08093580484EADC
:1039800061C083E080935A041092E406CFCF809107
:10399000E406803208F051C0E091E40681E08E0F29
:1039A0008093E4068091BB00F0E0EC53F94F8083F4
:1039B000BDCF85EC8093BC0010925A048091E40640
:1039C000803230F4E091E406F0E0EC53F94F1082DD
:1039D0006091E40670E0E0915F04F091600484EC93
:1039E00096E009951092E40636C084E080935A046C
:1039F0001092C3061092C206E0916104F091620435
:103A000009958091C206811105C081E08093C206AC
:103A10001092A206E091C30681E08E0F8093C30648
:103A2000F0E0EE55F94F80818093BB009091C30682
:103A30008091C206981708F479CF85E88093BC007E
:103A40000AC085EC8093BC0010925A0404C0109206
:103A5000E5060E94F017FF91EF91BF91AF919F9102
:103A60008F917F916F915F914F913F912F910F9027
:103A70000FBE0F901F901895AF92BF92CF92DF921A
:103A8000EF92FF920F931F93CF93DF931F92CDB7C7
:103A9000DEB77C0169836A01590141E050E0BE0153
:103AA0006F5F7F4FFC0183810E9439148C0197FD69
:103AB0000BC0F7018381A501B60180640E9439140F
:103AC00097FD02C0800F911F0F90DF91CF911F9142
:103AD0000F91FF90EF90DF90CF90BF90AF9008953F
:103AE00080917A06811137C081E080936D068093C2
:103AF0006E0623E736E03093700620936F0610922F
:103B000072061092710621E931E030936A06209323
:103B1000690610927506109274061092770610923C
:103B20007606809378068093790681EC80937306FD
:103B30000E943415FC01418120916D0630E0240F74
:103B4000311D2830310524F469E676E00E94F51431
:103B500081E080937A0689E696E00895CF93DF931B
:103B6000EC010E94701DAE014C5F5F4F2FE030E012
:103B700068E0DF91CF910C943C1DEF92FF920F9380
:103B80001F93CF93DF93C82F880FDD0BCE018D5687
:103B90009B4F7C01DC011C911150C431D10594F480
:103BA000133080F4CE0123E0880F991F2A95E1F7A6
:103BB000810F911D810F911D835B9C4F0E94191EE7
:103BC000082F01C000E0612FCE010E94D20B602FB0
:103BD0000E94680CFE01E559FB4F8081811105C0F0
:103BE000D7011C92C158DB4F18821082DF91CF9110
:103BF0001F910F91FF90EF9008950F931F93CF9314
:103C0000DF931F92CDB7DEB78C0169830E946925CF
:103C10006981681741F0C8010F90DF91CF911F9122
:103C20000F910C9471250F90DF91CF911F910F91FF
:103C300008950C946925109201051092000588EEF4
:103C400093E0A0E0B0E08093020590930305A09379
:103C50000405B09305052BE331E03093FF04209376
:103C6000FE042FEF3FEF30930B0520930A051092CF
:103C70005105109250058093520590935305A093DF
:103C80005405B09355058BE491E090934F058093D4
:103C90004E0581E080935E0580935F0520E735E067
:103CA00030936105209360051092630510926205C0
:103CB00010926705109266052BE531E030935B05A5
:103CC00020935A0529E631E0309365052093640579
:103CD000809371058093720510927305109275059B
:103CE00010927405109277051092760581EC8093FE
:103CF00070050E943415FC01418120915E0530E081
:103D0000240F311D2830310524F46AE575E00E9446
:103D1000F51410927B0510927A0583E891E0909358
:103D200079058093780580914106811113C0109226
:103D30003C0610923B0683E591E090933E0680930B
:103D40003D0686E390E09093400680933F0681E035
:103D5000809341060E94701DFC01A385B4851097D5
:103D600029F48BE396E0948783870BC08D919C9117
:103D70001197009711F0DC01F9CF8BE396E08D935A
:103D80009C932585368580913F0690914006820F51
:103D9000931F968785876EE174E08BE895E00E941B
:103DA000121380914F06811113C010924A0610928F
:103DB000490689E891E090934C0680934B068BE48A
:103DC00090E090934E0680934D0681E080934F06DD
:103DD0000E94701DFC01A385B485109729F489E425
:103DE00096E0948783870BC08D919C9111970097E3
:103DF00011F0DC01F9CF89E496E08D939C93258541
:103E0000368580914D0690914E06820F931F9687BE
:103E100085870895CF93DF93CDB7DEB729970FB687
:103E2000F894DEBF0FBECDBF789484B5826084BDA8
:103E300084B5816084BD85B5826085BD85B58160AE
:103E400085BD80916E00816080936E00109281002C
:103E500080918100826080938100809181008160E7
:103E600080938100809180008160809380008091A8
:103E70009100826080939100809191008160809395
:103E80009100809190008160809390008091C100AA
:103E900084608093C1008091C10082608093C100E2
:103EA0008091C10081608093C1008091C3008160D6
:103EB0008093C3008091C00082608093C000809195
:103EC000C20081608093C20080917A0084608093F8
:103ED0007A0080917A00826080937A0080917A00E3
:103EE000816080937A0080917A00806880937A0064
:103EF0001092FC0410925704109256048091D7003F
:103F000081608093D70080EA8093D80089B5806172
:103F100089BD89B5826089BD09B400FEFDCF61E02D
:103F200070E080E090E00E948A1B8091D8008F7C36
:103F300080618093D8008091E000807F8093E000D2
:103F40008091E1008E7E8093E1008DE08093E2001D
:103F5000559A209AEEEFFFE7859194918B3F9C4D07
:103F600019F481E0809355040E94E80F8FEF9FEFD2
:103F700090930B0580930A058EEF93E00E94191E23
:103F8000182F8091FD04813019F488E795E002C074
:103F900084E695E00E94220D1093FD040E94E80F34
:103FA00080E18093BA0082E298E19093620480936A
:103FB00061048EE298E19093600480935F04109214
:103FC0005E0410925D0410925C0410925B041092E7
:103FD0005A0481E0809359041092580461E082E011
:103FE0000E941E1B61E083E00E941E1B8091B900AD
:103FF0008E7F8093B9008091B9008D7F8093B90046
:1040000088E48093B80085E48093BC00109203019B
:104010008FEA9BE0909364048093630481E19BE0CA
:1040200090936604809365044BE654E08FE794E038
:10403000E3E9F4E01192DC011D92CD01DA011D9259
:10404000AD01B4E0E73AFB07A9F70DE111E0F80193
:10405000F0800E5F1F4F60E08F2D0E944E1B61E0CD
:104060008F2D0E941E1BF1E007321F0781F707E228
:1040700011E0D801FC900E5F1F4F60E08F2D0E9471
:104080004E1B60E08F2D0E941E1BB1E007331B0703
:1040900081F720E030E080E090E0AC01420F531F58
:1040A000FA01E955FB4F11821082FA01E651FA4FED
:1040B000118210820A968035910579F72E5F3F4F65
:1040C0002A30310541F76CE271E080E090E00E9417
:1040D0008A1B2FB7F8948091670490916804A0918F
:1040E0006904B0916A042FBF809396059093970559
:1040F000A0939805B093990540919205509193052E
:1041000060919405709195058C019D01041B150B20
:10411000260B370B053011052105310560F0809322
:10412000920590939305A0939405B093950581E033
:1041300080933A0602C010923A068EEF94E00E94F5
:10414000B117181619060CF04AC08EEF94E00E94C1
:10415000EB11803219F189831A8200918F05109139
:1041600090050F5F1F4FB8018BE895E00E94801209
:10417000882341F120918B0530918C0580918F052A
:1041800090919005BE016F5F7F4F820F931F0E9439
:1041900018251093900500938F0514C06BE875E007
:1041A000CE0101960E94F812CE0101960E948A016A
:1041B000CE0101960E94F3126EE174E08BE895E067
:1041C0000E94D21280918F059091900585369105BD
:1041D00030F06EE174E08BE895E00E94D21280919D
:1041E0003A06882309F4DEC00091F9041091FA041C
:1041F0008FEF93E00E94191E90E0801791070CF456
:10420000BCC12091F7043091F804821793070CF495
:10421000B4C177EA472E74E0572E8201E7E2EE2E12
:10422000E1E0FE2ED7019C90B2E0EB0EF11C61E0C4
:10423000892D0E944E1B6DE1C62E61E0D62EA12C69
:10424000B12CF601219131916F013327F901EC5C1A
:10425000FE4F8491F901EB5EFE4F8490F901EA5024
:10426000FF4F74907720A1F081110E94E11AE72D91
:10427000F0E0EE0FFF1FE851FF4FA591B491EC91D4
:104280008E2231E020E009F430E0832F922F02C02B
:1042900080E090E0F801EA0DFB1D21E08227918388
:1042A000808332E0A30EB11C8AE0A816B10409F0A5
:1042B000C8CF60E0892D0E944E1B065F1F4F94E01F
:1042C000073F190709F0AECF3AEEA32E35E0B32E23
:1042D0004AE9842E45E0942E00E010E0C12CD12C58
:1042E000E12CF12C95012C0D3D1D38872F831201F7
:1042F0002C0C3D1CD1018D919C91F90120813181C3
:104300002817390771F1F401EC0DFD1D0197B9F47F
:104310006090F7047090F80471826082A301B80184
:10432000C7010E94E60B282FA301B801C701298706
:104330000E94FA0B2985622F0E943D0D12C06080F9
:104340007180A301B801C7010E94E60B282FA301C9
:10435000B801C70129870E94FA0B2985622F0E94A4
:10436000680CD1018D919C91EF81F88591838083B8
:10437000FFEFEF1AFF0A2AE0C20ED11C30E5C31688
:10438000D10409F0AFCF0F5F1F4F82E0480E511CE0
:1043900092E0A90EB11CA2E08A0E911C0530110515
:1043A00009F09CCF009101011091020161E085E0CC
:1043B0000E944E1B0115110511F460E004C00F3F6F
:1043C000110529F461E085E00E941E1B7CC0E9E331
:1043D000F1E0E4918E2F90E0FC013197EF30F10590
:1043E00008F06CC0EA5AFF4F0C94F92284B580683B
:1043F00084BD07BD68C084B5806284BD08BD63C04C
:1044000080918000806880938000109389000093E1
:10441000880059C080918000806280938000109352
:104420008B0000938A004FC0809180008860809349
:10443000800010938D0000938C0045C08091900007
:1044400080688093900010939900009398003BC07F
:104450008091900080628093900010939B00009365
:104460009A0031C0809190008860809390001093F2
:104470009D0000939C0027C08091C00080688093BD
:10448000C0008091C0008F7B8093C0000093CF005C
:104490001AC08091C00080628093C0000093D00059
:1044A00012C08091C20088608093C2008091C200D7
:1044B0008B7F8093C2000093D20005C000381105A5
:1044C0000CF080CF7ACF80913A06811108C080E04D
:1044D00090E0892B09F4FDCD0E940000FACD809177
:1044E00003018823A1F38FE7C82E84E0D82E93E937
:1044F000892E94E0992E2CE4A22E23E0B22EE12CFA
:10450000F12CF40111914F01112349F1D6018C9145
:10451000882319F081508C9322C01150133050F42D
:10452000C501810F911D810F911D01960E94191ED9
:10453000082F01C000E0612FC7010E94D20B602F3D
:104540000E943D0DF701E559FB4F8081811107C0A5
:1045500080910301882319F08E2D0E94BD1DBFEFAD
:10456000EB1AFB0AEFEFCE1ADE0AF8E0AF0EB11C31
:1045700004E1E016F10429F6AACF1092FA04109291
:10458000F9041092F8041092F70443CEBC01625F64
:104590007F4FFC01838148E050E080640C94391423
:1045A0000A970C94C6228BE895E00C94F312A1E2D2
:1045B0001A2EAA1BBB1BFD010DC0AA1FBB1FEE1F9D
:1045C000FF1FA217B307E407F50720F0A21BB30BE8
:1045D000E40BF50B661F771F881F991F1A9469F764
:1045E00060957095809590959B01AC01BD01CF01C0
:1045F0000895EE0FFF1F0590F491E02D0994CF93DD
:10460000DF938230910510F482E090E0E091100792
:10461000F091110720E030E0C0E0D0E0309711F1D8
:104620004081518148175907C0F04817590761F474
:1046300082819381209719F09B838A832BC090936A
:1046400011078093100726C02115310519F0421774
:10465000530718F49A01BE01DF01EF010280F381D4
:10466000E02DDCCF2115310509F1281B390B243051
:10467000310590F412968D919C91139761157105F7
:1046800021F0FB019383828304C0909311078093F0
:104690001007FD01329644C0FD01E20FF31F819324
:1046A0009193225031092D933C933AC020910E07EB
:1046B00030910F07232B41F42091190130911A01F9
:1046C00030930F0720930E072091170130911801A6
:1046D0002115310541F42DB73EB740911B01509192
:1046E0001C01241B350BE0910E07F0910F07E21718
:1046F000F307A0F42E1B3F0B2817390778F0AC0105
:104700004E5F5F4F2417350748F04E0F5F1F5093E1
:104710000F0740930E078193919302C0E0E0F0E011
:10472000CF01DF91CF9108950F931F93CF93DF9324
:10473000009709F48CC0FC01329713821282009119
:104740001007109111070115110581F420813181A5
:10475000820F931F20910E0730910F0728173907FA
:1047600079F5F0930F07E0930E0771C0D80140E090
:1047700050E0AE17BF0750F412962D913C9113975D
:10478000AD012115310509F1D901F3CF9D01DA0100
:104790003383228360817181860F971F821793076D
:1047A00069F4EC0128813981260F371F2E5F3F4FB6
:1047B000318320838A819B8193838283452B29F4D3
:1047C000F0931107E093100742C01396FC93EE9309
:1047D0001297ED01499159919E01240F351FE2175F
:1047E000F30771F480819181840F951F02961196D1
:1047F0009C938E938281938113969C938E931297B0
:10480000E0E0F0E0D80112968D919C91139700970B
:1048100019F0F8018C01F6CF8D919C9198012E5FD3
:104820003F4F820F931F20910E0730910F072817DB
:10483000390769F4309729F4109211071092100784
:1048400002C01382128210930F0700930E07DF91AC
:10485000CF911F910F910895A0E0B0E0E2E3F4E260
:104860000C948325EC01009721F4CB010E94FF22D8
:10487000B8C0FC01E60FF71F9C0122503109E21776
:10488000F30708F4ACC0D9010D911C9111970617DC
:104890001707B0F00530110508F49FC0C801049750
:1048A0008617970708F499C002501109061B170BC9
:1048B000019311936D937C93CF010E9494238DC03B
:1048C0005B01A01AB10A4C01800E911EA091100745
:1048D000B091110740E050E0E12CF12C109709F461
:1048E0004AC0A815B905D1F56D907C901197630168
:1048F00082E0C80ED11CCA14DB0480F1A3014A195E
:104900005B096A0182E0C80ED11C1296BC90129716
:104910001396AC91B5E0CB16D10440F0B282A383DC
:1049200051834083D9016D937C930AC00E5F1F4F62
:10493000C301800F911FF90191838083EB2DFA2F22
:10494000E114F10431F0D7011396FC93EE93129722
:1049500044C0F0931107E09310073FC08D919C91E4
:1049600011974817590708F4AC017D0112960D9074
:10497000BC91A02DB3CF80910E0790910F078815A1
:104980009905E1F446175707C8F4809117019091F3
:104990001801009741F48DB79EB740911B015091CB
:1049A0001C01841B950BE817F907C8F4F0930F0757
:1049B000E0930E07F901718360830FC0CB010E9461
:1049C000FF227C01009759F0A801BE010E94FB2440
:1049D000CE010E949423C70104C0CE0102C080E032
:1049E00090E0CDB7DEB7EEE00C949F2581E090E03B
:1049F000F8940C94B625FB01DC0102C001900D92E5
:104A000041505040D8F70895FC018191861721F05C
:104A10008823D9F7992708953197CF010895FB018D
:104A2000DC018D91019080190110D9F3990B089543
:104A3000FB01DC0101900D920020E1F70895FB01DC
:104A4000DC014150504030F08D910190801919F4F3
:104A50000020B9F7881B990B08951F93FC01992733
:104A60008827BC01E89411911032E9F3193010F055
:104A70001E30C8F31B3251F01D3249F4689406C051
:104A80000E945425610F711D811D911D11911053BC
:104A90001A30B0F33EF490958095709561957F4FF4
:104AA0008F4F9F4F1F910895592F482F372F262F33
:104AB000660F771F881F991F660F771F881F991F22
:104AC000620F731F841F951F660F771F881F991F22
:104AD0000895F999FECF92BD81BDF89A992780B5C6
:104AE0000895262FF999FECF1FBA92BD81BD20BD32
:104AF0000FB6F894FA9AF99A0FBE019608952F927C
:104B00003F924F925F926F927F928F929F92AF925D
:104B1000BF92CF92DF92EF92FF920F931F93CF93AA
:104B2000DF93CDB7DEB7CA1BDB0B0FB6F894DEBF41
:104B30000FBECDBF09942A88398848885F846E8467
:104B40007D848C849B84AA84B984C884DF80EE80B1
:104B5000FD800C811B81AA81B981CE0FD11D0FB6BA
:104B6000F894DEBF0FBECDBFED01089511E0CFE593
:104B7000D1E004C0FE010E94F9222196C036D1077F
:064B8000C9F7F894FFCF15
:104B86000132000100C18081000000FFFFFFFF002D
:104B9600E10000000000000000120780000400068B
:104BA6000007000800090015001400130012000F8A
:104BB600000E0010000A0000000000A611DF14B16C
:104BC60017EB11C711BC1100000000981884187C5F
:104BD60018681859185818000000009919111AF386
:104BE600199219C622F6FF0000510C7B11A918D0A4
:104BF60022B81800000000D00FD00FD00F92190075
:104C0600000000510C7B11F318AE1D0919000000BD
:104C1600004F19991A591A7619756E697175656B6F
:104C2600726571696E666F0044455052454349414D
:104C360054454400756E697175656B7265716E6178
:104C46006D650044697665726765203320536C6133
:104C5600766500756E697175656B726571766172E0
:104C660069616E7400756E697175656B72657164E4
:104C7600726976657200416E696D757320496E6E54
:104C86006F766120322E352E3100756E697175652D
:104C96006B7265716275696C64004F454D00756E87
:104CA600697175656B7365746B65790073657420DE
:104CB6006B65792800756E697175656B73657465CA
:104CC6006570726F6D0073657420454550524F4D87
:104CD6002800756E697175656B7365746C61790012
:104CE600736574206C6179657220636F756E7428C4
:104CF600006572726F723A20696E737566666963D3
:104D060069656E7420454550524F4D00756E697148
:104D160075656B6765746C617900756E697175652B
:104D26006B676574656570726F6D00756E69717518
:104D3600656B6765746B65790072657475726E2054
:104D46006B65792800756E697175656B6765747238
:104D56006F7700756E697175656B676574636F6CE7
:104D660000756E697175656B7365746D61737465D5
:104D76007200736574206D61737465722800756EB8
:104D8600697175656B7365746E6B726F00736574AC
:104D9600204E4B524F206D6F646528006572726F0E
:104DA600723A20696E76616C6964204E4B524F20D0
:104DB6006F7074696F6E00756E697175656B676586
:104DC600746E6B726F00756E697175656B6765746D
:104DD6006D6F647300676574206D6F64732800429D
:104DE6006C656450574D00756E697175656B7365BA
:104DF600746272696768746E657373007365742094
:104E06006272696768746E657373282900756E69C6
:104E16007175656B6765746272696768746E6573D0
:104E26007300676574206272696768746E65737370
:104E3600282900493243536C617665006475616CBC
:104E4600526F6C6573006D6564696100756E69719A
:104E560075656B7365746D6163726F00736574203D
:104E66006D6163726F2800737469636B794B657942
:104E7600730074617044616E636500756E69717567
:104E8600656B73657474617064616E6365007365E8
:104E9600742074617064616E636528000D0A0000F9
:2070000055C000006EC000006CC000006AC0000068C0000066C0000064C0000062C0000043
:2070200060C000005EC00000F2C400005AC0000058C0000056C0000054C0000052C00000EE
:2070400050C0000078C000004CC000004AC0000048C0000046C0000044C0000042C00000BE
:2070600040C000003EC000003CC000003AC0000038C0000036C0000034C0000032C0000048
:2070800030C000002EC000002CC000002AC0000028C0000026C0000024C0000022C00000A8
:2070A00020C000001EC000001CC0000011241FBECFEFDAE0DEBFCDBF11E0A0E0B1E0E2E3BC
:2070C000FFE702C005900D92A83AB107D9F711E0A8EAB1E001C01D92AE3BB107E1F78FD30B
:2070E00026C78ECFF89410926F0010928100109285001092840081E085BF15BE47985D9AEB
:20710000289A0C94000008952091B2013091B3012F5F3F4F3093B3012093B201932F37FFA6
:2071200003C08EEF831B982F990F921710F447980895479A08951F920F920FB60F9211246E
:207140002F938F939F93EF93FF9310928500109284008091A8019091A901009741F00197D3
:207160009093A9018093A801892B09F45D9A8091AA019091AB01009741F001979093AB0126
:207180008093AA01892B09F4289AE0E0F0E0859194918F5F9F4F49F08091AC019091AD0151
:2071A00001969093AD018093AC01FF91EF919F918F912F910F900FBE0F901F90189584E0BC
:2071C0008093E9000DC08091E8008B778093E80003C08EB3882351F08091E80082FFF9CFBE
:2071E0008091E80085FFEFCF8091F1000895982F83E08093E9008091E80085FD0DC0809136
:20720000E8008E778093E80003C08EB3882369F08091E80080FFF9CF9093F1005D9884E6CB
:2072200090E09093A9018093A80108954F925F926F927F928F929F92AF92BF92CF92DF921E
:20724000EF92FF920F931F93CF93DF9384E08093E9008091E80082FF57C2289884E690E067
:207260009093AB018093AA01AADF182F853481F48CE49DE19093AD018093AC0107B600FC4B
:20728000FDCFF999FECF81E180935700E89503C0843519F494DF8DE00DC28C34E1F38035F9
:2072A000D1F3843721F484E4A2DF80E003C2813611F489E5FFC18134B1F481DF182F7FDFE3
:2072C00090E0880F991FAA2797FDA095BA2F312F330F20E0442737FD4095542F822B932B68
:2072E000A42BB52BB8C1803711F483E5E3C1833549F4C0E0D1E089917ADF21E0C730D20714
:20730000D1F7D9C1863521F481E371DF80E3D2C1833731F487E86BDF85E969DF8EE1CAC149
:207320008536B9F4E0E0F0E093E085E090935700E89507B600FCFDCF80935700E89507B65D
:2073400000FCFDCFE058FF4FA0E7E030FA0771F7A2CF823739F4E1E0F0E089E08093570024
:207360008491A8C1863439F4E0E0F0E089E08093570084919FC18E3439F4E3E0F0E089E0E5
:2073800080935700849196C1813539F4E2E0F0E089E08093570084918DC1823631F489E521
:2073A00026DF80E024DF80E885C1823419F0873609F0E5C01092AD011092AC0100DF082FE8
:2073C000FEDEF82EFCDE682E8554823008F071C1902F80E0CF2DD0E0C82BD92B10926F00B3
:2073E000173609F04BC081E180935700E895DD24CC24C3943FC0E090AE01F090AF010091CC
:20740000B0011091B101B6E46B16D9F4ED2DF0E0EE29FF29E4918E2FEADEDD2081F082E08D
:2074200090E0A0E0B0E0E80EF91E0A1F1B1FE092AE01F092AF010093B0011093B101DC2470
:2074400018C0D801C701B695A7959795879559D5CEDE82E090E0A0E0B0E0E80EF91E0A1FF2
:207460001B1FE092AE01F092AF010093B0011093B1012197209709F0BECF7DC08090AE01F5
:207480009090AF01A090B001B090B10196E4691609F05DC083E0F40180935700E89507B63E
:2074A00000FCFDCF54C0F6E46F1661F5772031F1E090AE01F090AF010091B0011091B1019E
:2074C0007EDED82ECC24852D90E08C299D29F7010C0140925700E895112482E090E0A0E08B
:2074E000B0E0E80EF91E0A1F1B1FE092AE01F092AF010093B0011093B10102C060DE582E1A
:20750000742423C0E090AE01F090AF010091B0011091B10116950795F794E79450DE682FFA
:20752000C701F7D48091AE019091AF01A091B001B091B1010296A11DB11D8093AE01909349
:20754000AF01A093B001B093B101219704C05524772444244394209709F0A5CF96E46916B6
:2075600041F485E0F40180935700E89507B600FCFDCF8DE03CDE82E080936F009CC0833492
:2075800071F40091AE011091AF0119DE90E021E0F8010C0120935700E89511247CCE8336C8
:2075A00019F5E090AE01F090AF010091B0011091B10105DEF701E16090E021E00C0120938C
:2075C0005700E895112482E090E0A0E0B0E0E80EF91E0A1F1B1FE092AE01F092AF0100936A
:2075E000B0011093B10157CE8D3661F4E091AE01F091AF0185E080935700E89507B600FCF2
:20760000FDCF49CE823551F4E091AE01F091AF0105911491812FEBDD802F4CC0843421F5FE
:20762000E090AE01F090AF010091B0011091B10116950795F794E794C2DD682FC70169D4DE
:207640008091AE019091AF01A091B001B091B1010296A11DB11D8093AE019093AF01A093D8
:20766000B001B093B10117CE843609F5E090AE01F090AF010091B0011091B101D801C70142
:20768000B695A795979587953CD4B1DD82E090E0A0E0B0E0E80EF91E0A1F1B1FE092AE010A
:2076A000F092AF010093B0011093B10104C08B3111F08FE39CDD83E08093E9009091E8002B
:2076C0008091E8008E778093E80095FF04C010C08EB38823C9F08091E80080FFF9CF809193
:2076E000E8008E778093E80003C08EB3882361F08091E80080FFF9CF84E08093E9008091F1
:20770000E8008B778093E800DF91CF911F910F91FF90EF90DF90CF90BF90AF909F908F90AC
:207720007F906F905F904F9008959091B601892F8F77813249F58091B7018032A1F081328A
:2077400019F5913A09F58091E800877F8093E8008DE091E067E070E00BD28091E8008B770B
:207760008093E8000895913279F48091E800877F8093E8008DE091E067E070E05DD2809192
:20778000E8008E778093E800089582E061EC42E0B5D083E061E842E1B1D084E060E842E1EF
:2077A000ADC084B7877F84BF88E10FB6F89480936000109260000FBE20E880E090E00FB63F
:2077C000F89420936100809361000FBE81E085BF92E095BF3F9A209A559AE1E6F0E02083A1
:2077E000108247985D9A289A109289008AEF8093880090936F0083E080938100F0C0409116
:20780000000850910108109201081092000894B714BE88E10FB6F8948093600010926000D5
:207820000FBE292F30E0F901E270F07091FD18C090FF05C0859194918F5F9F4F81F423FFFF
:207840000FC08091090190910A014817590741F0E0E0F0E0859194918F5F9F4F09F042DC64
:20786000A0DF78941092AD011092AC010CC0DEDC36D38091AC019091AD0181549F4110F00D
:207880001092140141DC80911401882381F78091E00081608093E00025DC80E090E0089598
:2078A000FA01923049F0933061F09130F9F485E191E022E130E01EC087E291E02EE330E04D
:2078C00019C0882329F485E691E024E030E012C0813029F489E691E022E230E00BC0823006
:2078E00029F48DE891E028E130E004C080E090E020E030E091838083C90108958093E9004E
:207900008091EB0081608093EB001092ED006093EC004093ED008091EE00881F8827881F62
:2079200008958091B60188238CF403C08EB38823B1F08091E80082FFF9CF8091E8008B772A
:207940008093E80008958EB3882349F08091E80080FFF9CF8091E8008E778093E800089594
:20796000EF92FF920F931F9345D04CD008ED10E0F80180818F77808380818068808380819B
:207980008F7D808319BC1EBA1092B40180EEE82EF12CF70180818B7F8083F8018081816052
:2079A000808380E060E042E0A9DFE1EEF0E080818E7F8083E2EEF0E0808181608083808144
:2079C00088608083F70180818E7F8083F8018081806180831F910F91FF90EF900895E7ED06
:2079E000F0E08081816080838AE482BF81E08093B501B6CFE8EDF0E080818E7F808310921C
:207A0000E20008951092DA001092E10008951F920F920FB60F9211242F933F934F935F93F6
:207A20006F937F938F939F93AF93BF93EF93FF938091DA0080FF1BC08091D80080FF17C0B2
:207A40008091DA008E7F8093DA008091D90080FF0BC080E189BD82E189BD09B400FEFDCF36
:207A600081E08EBB3BD203C019BC1EBA37D28091E10080FF17C08091E20080FF13C0809138
:207A8000E2008E7F8093E2008091E20080618093E2008091D80080628093D80019BC85E049
:207AA0008EBB1CD28091E10084FF2CC08091E20084FF28C080E189BD82E189BD09B400FEC5
:207AC000FDCF8091D8008F7D8093D8008091E1008F7E8093E1008091E2008F7E8093E20012
:207AE0008091E20081608093E2008091B401882331F48091E30087FD02C081E001C084E067
:207B00008EBBECD18091E10083FF21C08091E20083FF1DC08091E100877F8093E10082E06A
:207B20008EBB1092B4018091E1008E7F8093E1008091E2008E7F8093E2008091E2008061E9
:207B40008093E20080E060E042E0D8DEC7D1FF91EF91BF91AF919F918F917F916F915F9130
:207B60004F913F912F910F900FBE0F901F9018959C014091BC015091BD014617570718F49D
:207B8000F90190E044C06115710511F0AB01F8CF8091E8008E778093E80040E050E0F0CF0F
:207BA0008EB3882309F444C0853009F443C08091E80083FF02C081E008958091E80082FD70
:207BC00031C08091E80080FF22C08091F3009091F200782F60E0292F30E0262B372B07C07A
:207BE00081918093F100415050402F5F3F4F4115510519F02830310598F390E02830310566
:207C000009F491E08091E8008E778093E8004115510531F6992321F605C08EB3882341F075
:207C2000853041F08091E80082FFF7CF80E0089582E0089583E008959C016115710529F47C
:207C40008091E8008B778093E800F90126C08EB3882391F1853091F18091E80083FF02C06C
:207C600081E008958091E80082FFF1CF06C08091F10081936150704059F02091F300809191
:207C8000F200322F20E090E0822B932B892B79F78091E8008B778093E80061157105B9F601
:207CA00005C08EB3882341F0853041F08091E80080FFF7CF80E0089582E0089583E00895C2
:207CC0000F931F93DF93CF9300D0CDB7DEB7E6EBF1E08091F100819381E0EE3BF807C9F792
:207CE00024DD8091E80083FFE4C08091B6019091B701953009F46DC0963040F4913081F1A7
:207D0000913070F0933009F0D4C02AC0983009F4A3C0993009F4B2C0963009F0CAC07CC023
:207D2000803809F4C6C0823809F0C3C08091BA0187708093E9008091EB001092E9002091DB
:207D4000E800277F2093E80090E025E0969587952A95E1F781708093F1001092F10087C0D8
:207D6000882319F0823009F0A4C08F71823009F0A0C08091B801882331F52091BA01277097
:207D800009F497C02093E9008091EB0080FF1BC0933021F48091EB00806213C08091EB0018
:207DA00080618093EB0081E090E002C0880F991F2A95E2F78093EA001092EA008091EB00E5
:207DC00088608093EB001092E9008091E800877F51C0882309F06DC01091B8011F770FB79B
:207DE000F8948091E800877F8093E8009ADD8091E80080FFFCCF8091E3008078812B809398
:207E0000E30080688093E300112311F482E001C083E08EBB0FBF4DC08058823008F049C033
