:100000000C9455010C947D010C947D010C947D01A0
:100010000C947D010C947D010C947D010C947D0168
:100020000C947D010C947D010C94EC110C948713BD
:100030000C947D010C947D010C947D010C947D0148
:100040000C947D010C947D010C947D010C947D0138
:100050000C947D010C947D010C947D010C94F0189E
:100060000C947D010C947D010C947D010C947D0118
:100070000C947D010C947D010C947D010C947D0108
:100080000C947D010C947D010C947D010C947D01F8
:100090000C947D010C947D010C947D010C947D01E8
:1000A0000C947D010C947D010C947D01791D7E1DC5
:1000B000831D8D1D971DE11DE11DE11DA11DAB1DC2
:1000C000B51DBF1DCC1DE11DD41D251828181718FE
:1000D0001B1821184918491849182C1830183418B9
:1000E0003A183E1849184418080B00020202010091
:1000F000090400000102020000052400100105248B
:1001000001010104240206052406000107058103FC
:1001100010004009040100020A0000000705020265
:1001200040000007058302400000040309044172F7
:100130006475696E6F204C4C430041726475696E42
:100140006F204C656F6E6172646F001201000200D7
:10015000000040412336800001010203011201002A
:1001600002EF020140412336800001010203010039
:100170000000002300260029002C002F00040404A6
:10018000040403040502020202040302020202063E
:10019000060606060604040202020404040802011C
:1001A00010408040102040804080080204018040C0
:1001B00020100201108010204040200000000200AA
:1001C000090F0000030401000C0000000000000003
:1001D0000000000000000000000005010902A1016C
:1001E0000901A1008501050919012903150025014F
:1001F000950375018102950175058103050109309B
:10020000093109381581257F750895038106C0C01D
:1002100005010906A1018502050719E029E7150076
:1002200025017501950881029501750881039506E0
:100230007508150025DD0507190029DD8100C005B9
:100240000C0901A10185051500250109E909EA75D7
:10025000019502810609E29501810609B0950181A7
:100260000609B19501810609B79501810609B59581
:1002700001810609B69501810609B3950181060938
:10028000B49501810695068107C000000000240096
:1002900027002A002D003000000000002500280063
:1002A0002B002E0031005B1A5C1E11241FBECFEF05
:1002B000DAE0DEBFCDBF13E0A0E0B1E0E8E9F2E4B0
:1002C00002C005900D92A63DB107D9F725E0A6ED35
:1002D000B3E001C01D92A937B207E1F711E0C4E510
:1002E000D1E004C02197FE010E94821EC335D107D0
:1002F000C9F70E94E01A0C943F210C9400003F9231
:100300004F925F926F927F928F929F92AF92BF9225
:10031000CF92DF92EF92FF920F931F93CF93DF93D1
:10032000CDB7DEB763970FB6F894DEBF0FBECDBF73
:100330008C0165E571E00E94A310882321F084E61A
:1003400091E00E94DE1660E771E0C8010E94A310F0
:10035000882321F08FE791E00E94DE1665E871E0C6
:10036000C8010E94A310882321F087E991E00E9430
:10037000DE1666EA71E0C8010E94A310882321F00E
:1003800087EB91E00E94DE166BEC71E0C8010E94E1
:10039000A310882319F08BED91E0B4C165EE71E0F4
:1003A000CE0101960E949111BE016F5F7F4FC8017F
:1003B0000E948810F82ECE0101960E947211FF2033
:1003C00009F4F5C0C8010E942C16AC014F5F5F4FC5
:1003D000B801CE0101960E944E0FBE016F5F7F4FA4
:1003E000C8010E94C210CE0101960E947211C8017C
:1003F0000E942C169C0140E050E0B801CE0101960D
:100400000E94A611CE0101960E947D10962ECE016B
:1004100001960E947211C8010E942C16AC014F5F18
:100420005F4FB801CE0101960E944E0FBE016F5F73
:100430007F4FC8010E94C210CE0101960E94721126
:10044000C8010E942C169C0140E050E0B801CE018A
:1004500001960E94A611CE0101960E947D10A62E43
:10046000CE0101960E947211C8010E942C16AC01A7
:100470004F5F5F4FB801CE0101960E944E0FBE0143
:100480006F5F7F4FC8010E94C210CE0101960E948B
:100490007211C8010E942C169C0140E050E0B80186
:1004A000CE0101960E94A611CE0101960E947D10F8
:1004B000B62ECE0101960E947211C8010E942C1620
:1004C000AC014F5F5F4FB801CE0101960E944E0F05
:1004D000BE016F5F7F4FC8010E94C210CE0101961E
:1004E0000E947211C8010E942C169C0140E050E04D
:1004F000B801CE0101960E94A611CE0101960E947C
:100500007D10C62ECE0101960E947211C8010E9474
:100510002C16AC014F5F5F4FB801CE0101960E94CF
:100520004E0FBE016F5F7F4FC8010E94C210CE0107
:1005300001960E947211C8010E947D10D62E84E09F
:10054000A89E70011124E90CF11C84E1B89EE00C16
:10055000F11C1124EE0CFF1C6C2DC7010E94FD192B
:100560006D2DC70101960E94FD1983EF91E00E9455
:100570000F16892D0E94851687E192E00E940F16C2
:100580008A2D0E94851687E192E00E940F168B2D1E
:100590000E94851687E192E00E940F168C2D0E9422
:1005A000851687E192E00E940F168D2D6FC06CEFCB
:1005B00071E0CE0101960E949111BE016F5F7F4FE5
:1005C000C8010E948810F82ECE0101960E94721177
:1005D000FF2009F45EC0C8010E942C16AC014F5FD9
:1005E0005F4FB801CE0101960E944E0FBE016F5FB2
:1005F0007F4FC8010E94C210CE0101960E94721165
:10060000C8010E942C169C0140E050E0B801CE01C8
:1006100001960E94A611CE0101960E947D106B01E9
:100620007C01CE0101960E947211C8010E942C1615
:10063000AC014F5F5F4FB801CE0101960E944E0F93
:10064000BE016F5F7F4FC8010E94C210CE010196AC
:100650000E947211C8010E947D10B62EC6010E9430
:10066000FD198DE092E00E940F16B601DD0C880B9B
:10067000990B97FF03C00E949F1603C04AE00E9497
:10068000441687E192E00E940F168B2D0E948C1673
:1006900050C169E172E0CE0101960E949111BE0144
:1006A0006F5F7F4FC8010E948810F82ECE0101961F
:1006B0000E947211FF2049F1C8010E942C16AC0162
:1006C0004F5F5F4FB801CE0101960E944E0FBE01F1
:1006D0006F5F7F4FC8010E94C210CE0101960E9439
:1006E0007211C8010E947D10F62E8EE18F1540F028
:1006F0006F2D8FEF93E00E94FD1987E292E0A8C072
:1007000088E392E00E94DE1614C163E572E0C8013E
:100710000E94A310882329F08FEF93E00E94191AFA
:10072000B5CF61E672E0CE0101960E949111BE0143
:100730006F5F7F4FC8010E948810F82ECE0101968E
:100740000E947211FF2009F487C0C8010E942C1674
:10075000AC014F5F5F4FB801CE0101960E944E0F72
:10076000BE016F5F7F4FC8010E94C210CE0101968B
:100770000E947211C8010E942C169C0140E050E0BA
:10078000B801CE0101960E94A611CE0101960E94E9
:100790007D10E62ECE0101960E947211C8010E94C2
:1007A0002C16AC014F5F5F4FB801CE0101960E943D
:1007B0004E0FBE016F5F7F4FC8010E94C210CE0175
:1007C00001960E947211C8010E942C169C0140E003
:1007D00050E0B801CE0101960E94A611CE0101960B
:1007E0000E947D10C62ECE0101960E947211C80192
:1007F0000E942C16AC014F5F5F4FB801CE010196ED
:100800000E944E0FBE016F5F7F4FC8010E94C21051
:10081000CE0101960E947211C8010E947D10A62E81
:10082000B12CD12CF12CA501B601C7010E94550CA9
:10083000982EA501B601C7010E94420CF82E8FE642
:1008400092E00E940F16892D0E94851687E192E0A2
:100850000E940F168F2D1ACF6BE772E0CE01019622
:100860000E949111BE016F5F7F4FC8010E948810E6
:10087000F82ECE0101960E947211FF2019F085E03A
:1008800090E015C069E872E0CE0101960E949111D6
:10089000BE016F5F7F4FC8010E948810F82ECE0105
:1008A00001960E947211FF2029F084E090E00E94DE
:1008B000C6163FC067E972E0CE0101960E94911111
:1008C000BE016F5F7F4FC8010E948810F82ECE01D5
:1008D00001960E947211FF2061F1C8010E942C163E
:1008E000AC014F5F5F4FB801CE0101960E944E0FE1
:1008F000BE016F5F7F4FC8010E94C210CE010196FA
:100900000E947211C8010E947D10611103C01092F3
:10091000150103C081E08093150188EA92E00E94EE
:100920000F166091150170E080E090E04AE00E94AF
:100930004416B801CE0107960E94771164EB72E06D
:10094000CE0101960E949111BE016F5F7F4FCE01D3
:1009500007960E948810F82ECE0101960E9472110F
:10096000FF2089F1CE0107960E942C16AC014F5F43
:100970005F4FBE01695F7F4FCE0101960E944E0F0F
:10098000BE016F5F7F4FCE0107960E94C210CE015D
:1009900001960E947211CE0107960E947D10F62EDC
:1009A00082E08F1558F06F2D8EEF93E00E94FD19B5
:1009B00083EC92E00E940F168F2D11C082ED92E021
:1009C0000E94DE160EC06DEE72E0CE0107960E9408
:1009D000A310882331F08EEF93E00E94191A0E9431
:1009E0008C16CE0107960E947211B801CE010D96A9
:1009F0000E9477116CEF72E0CE010D960E94A31059
:100A0000882321F08BE093E00E940F16BE01635F04
:100A10007F4FCE0107960E9477116CEF72E0CE01F6
:100A200001960E949111BE016F5F7F4FCE01079624
:100A30000E948810182FCE0101960E947211112376
:100A400021F085E193E00E940F16CE0107960E94E7
:100A50007211BE01635F7F4FCE0107960E9477112E
:100A60006CEF72E0CE0101960E949111BE016F5FA2
:100A70007F4FCE0107960E948810182FCE01019655
:100A80000E947211112329F085E293E00E940F1653
:100A900085C16BE173E0CE0101960E949111BE0108
:100AA0006F5F7F4FCE0107960E948810182FCE01EE
:100AB00001960E947211112309F470C1CE010796AC
:100AC0000E942C16AC014F5F5F4FBE01695F7F4FE4
:100AD000CE0101960E944E0FBE016F5F7F4FCE0187
:100AE00007960E94C210CE0101960E947211CE019B
:100AF00007960E942C169C0140E050E0BE01695F01
:100B00007F4FCE0101960E94A611CE0101960E9450
:100B10007D10F62ECE0101960E947211CE0107962D
:100B20000E942C16AC014F5F5F4FBE01695F7F4F83
:100B3000CE0101960E944E0FBE016F5F7F4FCE0126
:100B400007960E94C210CE0101960E947211CE013A
:100B500007960E942C169C0140E050E0BE01695FA0
:100B60007F4FCE0101960E94A611CE0101960E94F0
:100B70007D10E62ECE0101960E94721182E1F89E50
:100B8000800111248BE08F1548F088E08E1530F03D
:100B90006E2DC801875A9D4F0E94FD19480188EAB1
:100BA000881A8DEF980A580185EAA81A8DEFB80ABD
:100BB000065A1D4FC12CD12C412C512C320143948B
:100BC000CE0107960E942C16AC014F5F5F4FBE010D
:100BD000695F7F4FCE0101960E944E0FBE016F5F8D
:100BE0007F4FCE0107960E94C210CE0101960E944F
:100BF0007211CE0107960E942C169C0140E050E035
:100C0000BE01695F7F4FCE0101960E94A611CE0101
:100C100001960E947D10CE0101966B8B0E9472118D
:100C20006B898BE08F1518F0C8010E94FD19CE0169
:100C300007960E942C16AC014F5F5F4FBE01695FA3
:100C40007F4FCE0101960E944E0FBE016F5F7F4F16
:100C5000CE0107960E94C210CE0101960E94721129
:100C6000CE0107960E942C169C0140E050E0BE0188
:100C7000695F7F4FCE0101960E94A611CE010196B9
:100C80000E947D10CE0101966B8B0E9472116B89C0
:100C90008BE08F1518F0C5010E94FD19CE01079653
:100CA0000E942C16AC014F5F5F4FBE01695F7F4F02
:100CB000CE0101960E944E0FBE016F5F7F4FCE01A5
:100CC00007960E94C210CE0101960E947211CE01B9
:100CD00007960E942C169C0140E050E0BE01695F1F
:100CE0007F4FCE0101960E94A611CE0101960E946F
:100CF0007D10362ECE0101960E9472118BE08F1569
:100D0000C8F0C4010E94191A282FD301C2010C2C6B
:100D100004C0880F991FAA1FBB1F0A94D2F7332063
:100D200019F0622F682B03C08095622F6823C401DD
:100D30000E94FD198FEFC81AD80A82E0A80EB11CD4
:100D40000E5F1F4F88E0C816D10409F039CFCE01DD
:100D500007960E942C16AC014F5F5F4FBE01695F82
:100D60007F4FCE0101960E944E0FBE016F5F7F4FF5
:100D7000CE0107960E94C210CE0101960E94721108
:100D80008BE293E00E940F168F2D0E94851687E15B
:100D900092E00E940F168E2D0E948C16CE010796AF
:100DA0000E947211BE01635F7F4FCE0107960E94C1
:100DB00077116CEF72E0CE0101960E949111BE0195
:100DC0006F5F7F4FCE0107960E948810182FCE01CB
:100DD00001960E947211112321F086E393E00E9494
:100DE0000F16CE0107960E947211BE01635F7F4FFE
:100DF000CE0107960E9477116CEF72E0CE0101964A
:100E00000E949111BE016F5F7F4FCE0107960E9435
:100E10008810182FCE0101960E947211112329F01B
:100E200081E493E00E940F166BC069E473E0CE0189
:100E300001960E949111BE016F5F7F4FCE01079610
:100E40000E948810182FCE0101960E947211112362
:100E5000C9F1CE0107960E942C16AC014F5F5F4F7F
:100E6000BE01695F7F4FCE0101960E944E0FBE0109
:100E70006F5F7F4FCE0107960E94C210CE01019690
:100E80000E947211CE0107960E942C169C0140E030
:100E900050E0BE01695F7F4FCE0101960E94A6110E
:100EA000CE0101960E947D10CE0101966B8B0E94AF
:100EB00072116B8970E070931401609313018EE5D9
:100EC00093E016C06FE673E0CE0101960E94911187
:100ED000BE016F5F7F4FCE0107960E948810182FCA
:100EE000CE0101960E947211112351F084E893E023
:100EF0000E940F1680911301909114010E94C61652
:100F0000CE0107960E947211BE01635F7F4FCE0132
:100F100007960E9477116CEF72E0CE0101960E9455
:100F20009111BE016F5F7F4FCE0107960E9488101E
:100F3000182FCE0101960E947211112321F085E92C
:100F400093E00E940F16CE0107960E947211BE0117
:100F5000635F7F4FCE0107960E9477116CEF72E0BE
:100F6000CE0101960E949111BE016F5F7F4FCE01AD
:100F700007960E948810182FCE0101960E947211C8
:100F8000112329F08FE993E00E940F1638C268EA16
:100F900073E0CE0101960E949111BE016F5F7F4FF9
:100FA000CE0107960E948810182FCE0101960E944C
:100FB0007211112309F423C2CE0107960E942C1648
:100FC000AC014F5F5F4FBE01695F7F4FCE0101965D
:100FD0000E944E0FBE016F5F7F4FCE0107960E94A9
:100FE000C210CE0101960E947211CE0107960E9496
:100FF0002C169C0140E050E0BE01695F7F4FCE019E
:1010000001960E94A611CE0101960E947D10B62E77
:10101000CE0101960E947211CE0107960E942C16F5
:10102000AC014F5F5F4FBE01695F7F4FCE010196FC
:101030000E944E0FBE016F5F7F4FCE0107960E9448
:10104000C210CE0101960E947211CE0107960E9435
:101050002C169C0140E050E0BE01695F7F4FCE013D
:1010600001960E94A611CE0101960E947D10362E97
:10107000CE0101960E947211CE0107960E942C1695
:10108000AC014F5F5F4FBE01695F7F4FCE0101969C
:101090000E944E0FBE016F5F7F4FCE0107960E94E8
:1010A000C210CE0101960E947211CE0107960E94D5
:1010B0002C169C0140E050E0BE01695F7F4FCE01DD
:1010C00001960E94A611CE0101960E947D10462E27
:1010D000CE0101960E947211CE0107960E942C1635
:1010E000AC014F5F5F4FBE01695F7F4FCE0101963C
:1010F0000E944E0FBE016F5F7F4FCE0107960E9488
:10110000C210CE0101960E947211CE0107960E9474
:101110002C169C0140E050E0BE01695F7F4FCE017C
:1011200001960E94A611CE0101960E947D10562EB6
:10113000CE0101960E947211CE0107960E942C16D4
:10114000AC014F5F5F4FBE01695F7F4FCE010196DB
:101150000E944E0FBE016F5F7F4FCE0107960E9427
:10116000C210CE0101960E947211CE0107960E9414
:101170002C169C0140E050E0BE01695F7F4FCE011C
:1011800001960E94A611CE0101960E947D10662E46
:10119000CE0101960E947211CE0107960E942C1674
:1011A000AC014F5F5F4FBE01695F7F4FCE0101967B
:1011B0000E944E0FBE016F5F7F4FCE0107960E94C7
:1011C000C210CE0101960E947211CE0107960E94B4
:1011D0002C169C0140E050E0BE01695F7F4FCE01BC
:1011E00001960E94A611CE0101960E947D10762ED6
:1011F000CE0101960E947211CE0107960E942C1614
:10120000AC014F5F5F4FBE01695F7F4FCE0101961A
:101210000E944E0FBE016F5F7F4FCE0107960E9466
:10122000C210CE0101960E947211CE0107960E9453
:101230002C169C0140E050E0BE01695F7F4FCE015B
:1012400001960E94A611CE0101960E947D10862E65
:10125000CE0101960E947211CE0107960E942C16B3
:10126000AC014F5F5F4FBE01695F7F4FCE010196BA
:101270000E944E0FBE016F5F7F4FCE0107960E9406
:10128000C210CE0101960E947211CE0107960E94F3
:101290002C169C0140E050E0BE01695F7F4FCE01FB
:1012A00001960E94A611CE0101960E947D10962EF5
:1012B000CE0101960E947211CE0107960E942C1653
:1012C000AC014F5F5F4FBE01695F7F4FCE0101965A
:1012D0000E944E0FBE016F5F7F4FCE0107960E94A6
:1012E000C210CE0101960E947211CE0107960E9493
:1012F0007D10A62E0B2D10E083E18B1590F1780167
:1013000083E0EE0CFF1C8A95E1F7670186EBC81AB3
:101310008CEFD80AC6010E94191A8C7F682F630DC2
:10132000C6010E94FD19C6010E94191A8370942DEE
:10133000990F990F682F690FC6010E94FD19652D3D
:10134000C701845B9C4F0E94FD19672DC701825B1A
:101350009C4F0E94FD19692DC701805B9C4F0E9424
:10136000FD19462D60E0C8010E94570B482D61E031
:10137000C8010E94570B4A2D62E0C8010E94570B1A
:101380008BEB93E00E940F168B2D0E94851687E150
:1013900092E00E940F16832D0E94851687E192E04D
:1013A0000E940F16842D0E94851687E192E00E940C
:1013B0000F16852D0E94851687E192E00E940F1678
:1013C000862D0E94851687E192E00E940F16872DD8
:1013D0000E94851687E192E00E940F16882D0E94D8
:1013E000851687E192E00E940F16892D0E948516CE
:1013F00087E192E00E940F168A2D0E948C16CE0182
:1014000007960E947211BE01635F7F4FCE0107965F
:101410000E9477116CEF72E0CE0101960E9491114B
:10142000BE016F5F7F4FCE0107960E948810182F74
:10143000CE0101960E947211112321F089EC93E0F4
:101440000E940F16CE0107960E9472116CEF72E097
:10145000CE010D960E94A310882321F083ED93E026
:101460000E940F16CE010D960E94721163960FB660
:10147000F894DEBF0FBECDBFDF91CF911F910F91CA
:10148000FF90EF90DF90CF90BF90AF909F908F90A4
:101490007F906F905F904F903F9008958C309105B2
:1014A0008CF4683078F442E1489F9001499F300DF8
:1014B0001124C901860F911D860F911D855A9D4FDC
:1014C0000C94191A80E00895CF93DF9320916C0457
:1014D00030916D04882319F02F5F3F4F02C02150D7
:1014E000310930936D0420936C04C0916C04D09149
:1014F0006D048FEF93E00E94191A90E0C817D90786
:101500002CF010926D0410926C0407C0D7FF05C038
:10151000019790936D0480936C04DF91CF910895AF
:10152000CF93DF93EB010E948B1928E030E0AE01EE
:1015300062E0DF91CF910C943A1920E2260F283017
:1015400068F4622F21E030E001C0220F6A95EAF7CB
:101550002095FC0134812323248360E0FC0136962E
:1015600026E0662321F03081361301C0108221501D
:1015700031962111F6CFBC016C5F7F4F0E94900A1B
:1015800081E090E008950F931F93CF93DF9381E064
:101590008093EB0307ED13E0C0E0D0E0F801808119
:1015A000882309F1209711F460EE04C0C130D10501
:1015B00031F461EE87EC94E00E949D0A12C0C230C3
:1015C000D10511F462EEF6CFC330D10511F466EE09
:1015D000F1CF80916C0490916D0490936B04809393
:1015E0006A04F801108221960F5F1F4FC431D105A4
:1015F000A9F6DF91CF911F910F910895FC0180E230
:10160000860F883058F4682F81E090E001C0880F81
:101610006A95EAF79481892B848360E08681861736
:1016200039F18781861721F18085861709F1818537
:101630008617F1F082858617D9F083858617C1F069
:10164000DF01169680E090E02D91211106C0DF01A8
:10165000A80FB91F16966C930BC0019686309105A2
:1016600099F781E090E09383828380E090E0089591
:10167000BF016C5F7F4FCF010E94900A81E090E034
:101680000895EF92FF921F93CF93DF93EC01162FF3
:101690000E94FE0A7C01612FCE010E949D0AC701B3
:1016A0009927DF91CF911F91FF90EF90089584319A
:1016B000910584F4633070F423E0880F991F2A9514
:1016C000E1F7860F911D860F911D642F835B9C4F60
:1016D0000C94FD190895843191057CF4633068F40D
:1016E00023E0880F991F2A95E1F7845B9C4F860FB2
:1016F000911D860F911D0C94191A80E00895CF93C7
:10170000DF93D82FC62F80911501882309F44FC08D
:10171000611106C06D2F87EC94E00E949D0A47C0BE
:10172000613059F0623091F48091D603811105C087
:101730006CE287EC94E00E94410B80916C049091E4
:101740006D0490936B0480936A0431C06B3091F008
:101750006C3019F460E080EE24C06D3001F16E3021
:1017600019F460E086EE1DC06F3039F460E080EE61
:101770000E947F0B60E081EE14C0603129F460E0CC
:1017800080EE0E947F0B07C0613119F460E080EEAB
:1017900004C0623161F460E081EE0E947F0B60E082
:1017A00082EE0E947F0B60E08D2F0E947F0B809164
:1017B0001501882359F18CEE8C0F8A3038F5C4312D
:1017C00019F460E080EE04C0C53129F460E081EED8
:1017D0000E947F0B12C0C63119F460E082EEF8CF90
:1017E000C73119F460E086EEF3CF80916C049091DC
:1017F0006D0490936B0480936A048091D6038111E9
:1018000005C06D2F87EC94E00E94410B809115017B
:10181000882329F0C33119F48D2F0E941B1A80915F
:101820001501882361F1C83139F48091180180587D
:101830008D1B8093180123C0C93139F480911701A1
:1018400080588D1B809317011AC0CA3139F48091DA
:10185000160180588D1B8093160111C0CB3179F48D
:10186000D13011F481E007C0D23011F482E003C01E
:10187000D33029F484E0DF91CF910C941E16DF91D0
:10188000CF910895660F771F660F771F860F971FFA
:1018900064E1649F9001659F300D1124820F931FB6
:1018A000880F991F01960C94191A660F771F660FFF
:1018B000771F680F791F24E1249FC001259F900D99
:1018C0001124860F971F880F991F0C94191A2F92B5
:1018D0003F925F926F927F928F929F92AF92BF9250
:1018E000CF92DF92EF92FF920F931F93CF93DF93EC
:1018F000CDB7DEB764970FB6F894DEBF0FBECDBF8D
:10190000582E062F81E08093D603809115018823FD
:1019100009F492C0611106C0652D87EC94E00E9425
:10192000FE0A8AC0613021F0623059F41092D60369
:10193000852D052C000C990B90936B0480936A0401
:101940007BC06330A9F5511002C081E004C021E0E2
:10195000521204C080E00E94640A6EC0E0906C04E1
:10196000F0906D0411E00E2C01C0110F0A94EAF7FB
:101970005AE0C52ED12C110F59F08FEFE81AF80A52
:101980008FEF93E00E94191A90E0E816F9061CF018
:1019900011E0E12CF12C812F852129F0F0926D04CA
:1019A000E0926C0449C091E0C91AD10821F7F6CF42
:1019B000653089F420916A0430916B04852D052CE3
:1019C000000C990B2817390709F0B2CF80916C04ED
:1019D00090916D04B1CF6B3091F06C3019F460E0F0
:1019E00080EE24C06D3001F16E3019F460E086EEB7
:1019F0001DC06F3039F460E080EE0E94670C60E03B
:101A000081EE14C0603129F460E080EE0E94670C22
:101A100007C0613119F460E080EE04C0623161F406
:101A200060E081EE0E94670C60E082EE0E94670C2D
:101A300060E0852D0E94670C809115018823B1F02C
:101A40000630A1F41092CD041092CE041092CF046F
:101A50001092D0041092D1041092D2041092CB04B0
:101A60006BEC74E087EC94E00E94900A8091150181
:101A7000882389F1043079F5511002C081E01DC03E
:101A8000E1E05E1202C082E018C0F2E05F1202C024
:101A9000098314C023E0521202C088E00EC084E023
:101AA000581202C080E109C095E0591202C080E4DA
:101AB00004C0E6E05E120FC080E889831A820E94AB
:101AC0008B1922E030E0AE014F5F5F4F65E00E946E
:101AD0003A190E94F91580911501882309F4BCC0B8
:101AE000073009F0B9C0A52C052C000CBB08FCE0A0
:101AF000AF16B1040CF0B0C0252D82E128027001B0
:101B00001124C701875A9D4F0E94191A670196EA4E
:101B1000C91A9DEFD90A612C712C882E912CE8EA04
:101B2000EE1AEDEFFE0A681479042CF5C7010E9445
:101B3000191A90E0062C02C0959587950A94E2F751
:101B4000662D80FF43C1C5010E944E0A682FC60161
:101B50006B8B0E94191A6B890E947F0B65E070E005
:101B600080E090E00E94B618FFEF6F1A7F0A22E033
:101B7000C20ED11CD8CF60906C0470906D0470922E
:101B80006B0460926A049E012F5F3F4F82E1F9016E
:101B900011928A95E9F742E4842E44E0942E312C88
:101BA000E12CF12CA12CB12CC12CD12CF401EA0D8B
:101BB000FB1D808191810197B1F4A301B701C6019A
:101BC0002B8B3C8B0E94550C282EA301B701C6011C
:101BD0000E94420C2B893C89811105C0F901E30D5B
:101BE000F11D20823394FFEFCF1ADF0A8AE0A80E9E
:101BF000B11C98E2A916B104C9F6EFEFEE1AFE0A7D
:101C0000F2E08F0E911C85E0E816F10459F610926F
:101C1000CD041092CE041092CF041092D0041092F2
:101C2000D1041092D2041092CB0469017E0193E199
:101C3000E90EF11CF60161916F01662321F087EC3A
:101C400094E00E94FE0ACE14DF04A1F76BEC74E06E
:101C500087EC94E00E94900A809115018823A1F1FD
:101C60000E3181F5852D052C000C990BFC01E952F4
:101C7000FC4F308121E023272083222319F15110CA
:101C800002C060EE04C0F1E05F1206C061EE87ECB6
:101C900094E00E94FE0A13C022E0521202C062EEDB
:101CA000F6CFE3E05E1202C066EEF1CF2CEF250D19
:101CB000203128F4039790936B0480936A04109268
:101CC000EB0302C00E94C30A80911501882309F426
:101CD0004DC00A3009F086C0F4E6F515B4F08091E5
:101CE000130190911401850D911D57FC9A9597FF52
:101CF00005C010921401109213012BC08F3F910563
:101D000021F11CF18FEF90E020C025E6521689F3F7
:101D100086E6581203C080E290E017C097E6591299
:101D200003C080E490E011C0E8E65E1203C080E6E4
:101D300090E00BC0F9E65F1203C080E890E005C0B8
:101D40002AE6521206C080EA90E090931401809334
:101D5000130188EE800F863048F41092D603802F4E
:101D600090E0479790936B0480936A0480911501EB
:101D7000882309F47BC0033109F04DC0052D550CB3
:101D8000110BF801E25DFB4F8081843008F06EC0DA
:101D90008F5F8083043111056CF4C80123E0880F44
:101DA000991F2A95E1F7865B9C4F0E94191A869528
:101DB000869501C080E0F801E65EFB4F880F8083C6
:101DC000F801EA5FFB4F81E0808350C0C5010E94AB
:101DD0004E0A682FC6016B8B0E94191A6B890E94EC
:101DE000670CBCCE043119F460E080EE09C0053107
:101DF00019F460E081EE04C0063139F460E082EE4F
:101E00000E94670C1092D603B1CF073109F0A1CF21
:101E100060E086EEF5CF083139F4809118018058E2
:101E2000580E5092180122C0093139F480911701DF
:101E30008058580E5092170119C00A3139F4809118
:101E400016018058580E5092160110C00B3171F4D3
:101E500081E0581649F092E0591202C082E004C0B5
:101E6000E3E05E1203C084E00E94111664960FB690
:101E7000F894DEBF0FBECDBFDF91CF911F910F91C0
:101E8000FF90EF90DF90CF90BF90AF909F908F909A
:101E90007F906F905F903F902F900895CF93DF9346
:101EA000EC01FB01248135810E94A611CE01DF9156
:101EB000CF91089508954091FB035091FC03209128
:101EC000F9033091FA0342175307B4F49091E800F4
:101ED0009570E1F39091E80092FD19C08093F100B4
:101EE0008091FB039091FC0301968F739927892BB6
:101EF00019F48EEF8093E8008091FB039091FC032E
:101F000001969093FC038093FB0381E0089580E0A9
:101F10000895CF92DF92EF92FF920F931F93CF938A
:101F2000DF931F92CDB7DEB7182F062FE42E862F32
:101F3000880F8E5F99830E945B0F83E00E945B0F86
:101F4000F12EC12E9981D92E8C2D8F19801798F4DE
:101F5000F601E7FE02C0849101C080810E945B0F00
:101F6000182F80E00E945B0F8123FFEFCF1ADF0A5A
:101F70008111EACF01C081E00F90DF91CF911F91D5
:101F80000F91FF90EF90DF90CF900895615030F067
:101F90002091F100FC0120830196F8CF289884E677
:101FA00080936E040895CF92DF92EF92FF920F9389
:101FB0001F93CF93DF936C017A018B01C0E0D0E0D7
:101FC000CE15DF0589F0D8016D918D01D601ED9117
:101FD000FC910190F081E02DC6010995892B11F447
:101FE0007E0102C02196ECCFC701DF91CF911F91F6
:101FF0000F91FF90EF90DF90CF900895CF93DF93F4
:102000001F92CDB7DEB76983DC01ED91FC910280B0
:10201000F381E02D41E050E0BE016F5F7F4F0995F5
:102020000F90DF91CF91089583E08093E900809134
:10203000F200882319F08AE38093E8000895FC01F8
:102040008485958597FD0BC09FB7F89482E08093B7
:10205000E9008091F2009FBF90E0019608959FB73C
:10206000F89482E08093E9008091F2009FBF90E0B5
:1020700008950E947F20CF93DF931F92CDB7DEB7E4
:10208000FC018485958597FD05C02FEF3FEF3587CF
:1020900024870BC0CE0101960E94EC16019719F41B
:1020A000898190E002C08FEF9FEF0F90DF91CF9179
:1020B00008950F931F93CF93DF931F92CDB7DEB791
:1020C0008C01FC018485958597FF0EC0CE01019699
:1020D0000E94EC16019719F4298130E002C02FEF1D
:1020E0003FEFF80135872487F801848595850F90A7
:1020F000DF91CF911F910F910895FC018081918113
:10210000009711F00C94B62060E070E0CB010895C8
:10211000FB0144815581FC01248135812417350759
:1021200078F080819181009759F0FB016081718185
:102130006115710529F00E94A82021E0892B09F082
:1021400020E0822F0895FC0124813581232B31F476
:1021500021E061157105A1F0FB0108C0FC0180813F
:1021600091816115710531F421E0FC0180818823A2
:1021700039F005C00E94982021E0892B09F020E069
:10218000822F08950F931F93CF93DF938C01EB0160
:102190008617970771F1FC01808191810097B1F05A
:1021A000688179816115710579F0428153812C81B3
:1021B0003D814217530740F00E94A1208C819D81F0
:1021C000F8019583848313C00E941D1F8881998123
:1021D000F801918380838A819B81938382838C81A0
:1021E0009D8195838483198218821B821A821D82A5
:1021F0001C82C801DF91CF911F910F9108950F9319
:102200001F93CF93DF93EC0188819981009729F088
:102210002A813B812617370788F48B016F5F7F4F38
:102220000E94B51F009761F0998388831B830A83FE
:102230002C813D81232B11F4FC01108281E001C02F
:1022400080E0DF91CF911F910F910895EF92FF925F
:102250000F931F93CF93DF93EC017B018A01BA01A7
:102260000E94FF102881398181110DC0211531058F
:1022700019F0C9010E941D1F198218821D821C823B
:102280001B821A8206C01D830C83B701C9010E94FC
:10229000A120CE01DF91CF911F910F91FF90EF9080
:1022A0000895CF93DF93EC016115710559F0FB019F
:1022B00001900020E9F73197AF01461B570B0E94B0
:1022C00026110CC088819981009711F00E941D1F72
:1022D000198218821D821C821B821A82CE01DF9114
:1022E000CF910895FC01808191810C941D1FFB0109
:1022F000DC0111961C921E9213961C921E9212974C
:1023000015961C921E9214978617970749F06081C4
:1023100071816115710521F0448155810C9426115C
:102320000895FC0111821082138212821582148298
:102330006115710551F0FB0101900020E9F731971B
:10234000AF01461B570B0C9426110895BF92CF92F4
:10235000DF92EF92FF920F931F93CF93DF937C0155
:102360006B018A01E9012417350720F4812F8901C7
:10237000C42FD82F65ED73E0C7010E949111D601DB
:1023800014968D919C91159708171907D0F48C1706
:102390009D0708F4EC01D601ED91FC911197EC0F2B
:1023A000FD1FB08010824D915C91BA01600F711FCA
:1023B000C7010E945111D601ED91FC91EC0FFD1F58
:1023C000B082C701DF91CF911F910F91FF90EF90E5
:1023D000DF90CF90BF9008951F920F920FB60F928B
:1023E00011248F939F938091E1009091E100937F5E
:1023F0009093E10083FF0FC01092E90091E0909369
:10240000EB001092EC0092E39093ED0010926F04B9
:1024100098E09093F00082FF20C093E09093E90051
:102420009091F200992319F09AE39093E80090912B
:10243000FD03992339F09091FD0391509093FD0392
:10244000992389F190916E04992339F090916E044B
:10245000915090936E04992341F184FF10C08091B4
:10246000E2008E7E81608093E2008091E1008F7EA9
:102470008093E1008091FF038E7E806111C080FF18
:1024800016C08091E2008E7E80618093E200809190
:10249000E1008E7E8093E1008091FF038E7E81605B
:1024A0008093FF0304C05D9ACDCF289AD6CF9F9129
:1024B0008F910F900FBE0F901F901895DF92EF92A3
:1024C000FF920F931F93CF93DF93D82E8A017B0146
:1024D000E40EF51EEB01CE15DF0571F0D7FE03C04B
:1024E000FE01849101C088810E945B0F21968111B9
:1024F000F2CF8FEF9FEF01C0C801DF91CF911F9105
:102500000F91FF90EF90DF9008958F929F92AF927E
:10251000BF92CF92DF92EF92FF920F931F93CF93D0
:10252000DF9300D01F92CDB7DEB7382F8B0180919B
:102530006F04811103C08FEF9FEF7DC08091FF0377
:1025400080FF05C08091E00082608093E0004A0136
:102550008AEFF82E832F8770E82E9FE3C92E832FF2
:102560008072B82E2AE3D22E832F8074A82E811475
:10257000910409F457C08FB7F894E092E900909164
:10258000E80095FF05C09091F2002C2D291B01C099
:1025900020E08FBF211110C0FA94FF2061F261E0AA
:1025A00070E080E090E039834A835B830E94B61834
:1025B00039814A815B81DBCF822F90E088169906B2
:1025C0000CF4282D6FB7F894E092E9008091E800B0
:1025D00085FF26C0822F90E0881A990ABB2029F037
:1025E0002150A8F01092F100FBCFF80137FF07C08F
:1025F000215058F074917093F1003196F9CF215029
:1026000020F071917093F100FACF080F191F80919B
:10261000E80085FF0DC08114910411F4A11008C0D9
:102620006FBFA5CF5D9884E68093FD03CA0103C008
:10263000D092E800F5CF0F900F900F90DF91CF91DF
:102640001F910F91FF90EF90DF90CF90BF90AF90D0
:102650009F908F900895CF93DF93EC0180911201AA
:10266000882331F083E00E9485121816190634F091
:1026700081E090E09B838A8380E090E0DF91CF91BE
:1026800008958091F00381110DC082E08093EC03E6
:1026900084E08093ED031092EF031092EE0381E04B
:1026A0008093F0038CEE93E008950F931F93CF93E4
:1026B000DF931F92CDB7DEB782E0898342E450E01A
:1026C00068EE70E080E80E945E120E944113DC0117
:1026D00012960D911C9113970115110569F0D801FF
:1026E000ED91FC910280F381E02DBE016F5F7F4F81
:1026F000C801099597FF07C089810F90DF91CF919D
:102700001F910F910895F80100851185E5CF1F9263
:102710000F920FB60F921124CF92DF92EF92FF9299
:102720000F931F932F933F934F935F936F937F93D9
:102730008F939F93AF93BF93EF93FF93CF93DF93C9
:10274000CDB7DEB76C97DEBFCDBF1092E9008091A8
:10275000E80083FFFAC168E0CE0145960E94C60FEB
:1027600082EF8093E8008D8987FF05C09091E80093
:1027700090FFFCCF03C09EEF9093E800982F9076D7
:1027800009F0C6C09E892F89188D91110CC0803820
:1027900029F4809100048093F10002C01092F100AE
:1027A0001092F10047C1422F50E0512B913051F46B
:1027B000811140C14130510509F03CC180910004B4
:1027C0008D7F0BC0933061F4811134C141305105CC
:1027D00009F030C1809100048260809300042AC116
:1027E000953041F48091E80080FFFCCF2068209371
:1027F000E30020C1963009F05FC0EB8CFC8C109296
:10280000E9001092FC031092FB03123091F5109234
:10281000FA031092F9030E94551399E0BE016F5F0D
:102820007F4FDB01E92F1D92EA95E9F799831A831F
:1028300091E09E8390EA98879AEF99872091FB0315
:102840003091FC03275F3F4F3C832B838D83109295
:10285000E9001092FC031092FB03F092FA03E0925D
:10286000F90349E050E080E00E945E120E94551397
:10287000E1C0F092FA03E092F9030E944113DC01F7
:102880001296ED90FC901397E114F10409F4C0C086
:10289000D701ED91FC910480F581E02DBE016B5EC6
:1028A0007F4FC7010995009719F00CF0C3C0C6C04F
:1028B000F701E084F184E8CF973009F4BFC0983085
:1028C00021F481E08093F100B5C0993009F0B2C0E5
:1028D000837009F0B3C0E1E0F1E081E021E036E38C
:1028E0009081992361F08093E9002093EB0091910E
:1028F0009093EC003093ED008F5F873089F78EE77F
:102900008093EA001092EA008F8980936F0492C04E
:102910008B8D9C8D1092E9001092FC031092FB03AA
:102920009093FA038093F903898D811156C08E89A3
:102930009D89913A59F4813209F080C047E050E016
:102940006BE071E080E00E945E1274C0913209F089
:1029500075C0833289F4888D90E0982F88272F895D
:10296000822BA0E0B0E08093070190930801A09330
:102970000901B0930A015EC0803269F48091E800D9
:1029800082FFFCCF67E08BE091E00E94C60F8BEFE7
:102990008093E80006C0823209F04CC08F89809392
:1029A00012018091FE03882319F0EEEFFAE002C0D5
:1029B000E0E0F8E080910B0190910C01A0910D01F5
:1029C000B0910E01803B9440A105B10509F088C08B
:1029D0008091120180FFA0C083C00E944113DC01DE
:1029E00012960D911C9113970115110539F1D8011B
:1029F000ED91FC910190F081E02DBE016B5E7F4F67
:102A0000C8010995811116C0F80100851185ECCF28
:102A10001130C1F0133091F48F89882309F455C027
:102A20008230E9F440E860E18AE391E00E94890F96
:102A3000882321F08EEF8093E80087C081E28093A5
:102A4000EB0083C08B8D9C8D089711F41093F803D5
:102A50008091F803811136C06BE471E038C0813099
:102A600029F440E86BE08EE291E0E0CF833031F76B
:102A70000E944113DC011296ED90FC9013978E0199
:102A80000F5F1F4F6801E114F10479F0D701ED9158
:102A9000FC910680F781E02DB801C7010995080F68
:102AA000111DF701E084F184EECFD8011C92F601EC
:102AB00001900020E9F73197BF016C197D0940E0D2
:102AC000C601B4CF6DE571E002C06AE271E0611544
:102AD000710509F4B3CFFB01449150E080E833CF96
:102AE0000FB6F894A895809160008861809360008B
:102AF000109260000FBEA895EE3F2AE0F20739F071
:102B00008091FE0A9091FF0A9183808393CF109267
:102B1000FF0A1092FE0A8ECFEE3F8AE0F80731F0EE
:102B2000808191819093FF0A8093FE0A87E797E75F
:102B3000918380839BE088E10FB6F894A8958093F9
:102B400060000FBE9093600075CF6C960FB6F8943E
:102B5000DEBF0FBECDBFDF91CF91FF91EF91BF914F
:102B6000AF919F918F917F916F915F914F913F9125
:102B70002F911F910F91FF90EF90DF90CF900F90CA
:102B80000FBE0F901F901895CF93DF9300D000D009
:102B9000CDB7DEB79091C00499838A836B834C8351
:102BA0000E948B1924E030E0AE014F5F5F4F61E07F
:102BB0000E943A190F900F900F900F90DF91CF91D4
:102BC0000895BC01009791F0FC0101900020E9F705
:102BD0003197AF01481B590BE0917004F0917104DB
:102BE0000280F381E02D80E794E0099480E090E09A
:102BF0000895CF93DF9300D0CDB7DEB719821A8244
:102C00000E948B1922E030E0AE014F5F5F4F65E01C
:102C10000E943A190F900F90DF91CF9108950C9474
:102C2000E1159091C004892B891739F08093C00475
:102C300040E060E080E00C94C41508959091C004D9
:102C400080958923891739F08093C00440E060E0C3
:102C500080E00C94C4150895CF93DF93FC01248188
:102C60003581232B61F0C081D18168E270E0CE0113
:102C70000E948D20009719F08C1B9D0B02C08FEFD6
:102C80009FEFDF91CF9108958F929F92AF92BF9265
:102C90000F931F93CF93DF93CDB7DEB7A1970FB6F6
:102CA000F894DEBF0FBECDBF19A2423008F44AE04F
:102CB0008E010F5D1F4F842E912CA12CB12CA501EC
:102CC00094010E94601EE62FB901CA01015011094A
:102CD000EA3014F4E05D01C0E95CD801EC93232BE9
:102CE000242B252B61F7C8010E94E115A1960FB690
:102CF000F894DEBF0FBECDBFDF91CF911F910F9132
:102D0000BF90AF909F908F900895682F70E080E003
:102D100090E04AE00C944416CF93DF93682F70E064
:102D200080E090E04AE00E944416EC0183ED93E0DD
:102D30000E94E1158C0F9D1FDF91CF910895CF92D6
:102D4000DF92EF92FF92CF93DF936B017C01E091D2
:102D50007004F09171040190F081E02D6DE280E744
:102D600094E00995EC0166277727CB016C197D0962
:102D70008E099F094AE00E9444168C0F9D1FDF9127
:102D8000CF91FF90EF90DF90CF900895CF93DF9396
:102D9000BC01990F880B990B97FF03C00E949F16E7
:102DA00003C04AE00E944416EC0183ED93E00E94C8
:102DB000E1158C0F9D1FDF91CF910895CF93DF9385
:102DC0000E94E115EC0183ED93E00E94E1158C0F68
:102DD0009D1FDF91CF910895FC0180916F048111B7
:102DE00003C08FEF9FEF08959FB7F89482E0809320
:102DF000E9002091F20030E01216130614F421E0ED
:102E000030E02115310559F0289884E680936E044E
:102E10008091F10080838091F200882319F09FBF98
:102E2000C90108958BE68093E800F9CF3FB7F89485
:102E30008091710590917205A0917305B091740510
:102E400026B5A89B05C02F3F19F00196A11DB11D05
:102E50003FBFBA2FA92F982F8827820F911DA11D40
:102E6000B11DBC01CD0142E0660F771F881F991F7D
:102E70004A95D1F70895DC01FB0112968C911297C7
:102E800090E02481358182179307D1F4918180816C
:102E9000813A31F481E0913091F0933089F411C09E
:102EA000813271F49B3021F482811F968C9305C08E
:102EB0009A3031F4828150968C9381E00895089580
:102EC00080E00895DC01FB0188E4808389E481834C
:102ED00084E482831D969C911D979F709F5B9383D2
:102EE0001D968D919C911E9724E0969587952A9525
:102EF000E1F78F708F5B848385E00895FC01828108
:102F00008F5BFB01808381E00895EF92FF920F9326
:102F10001F93CF93DF93FB012081213851F523814B
:102F2000223239F5DC0112962C9130E04481558132
:102F300042175307F1F4EC010B851C85E12CF12CB1
:102F40000115110591F0F801448155816281738169
:102F500080E80E945E128F3FFFEF9F0769F0E80E46
:102F6000F91ED8010D911C91EBCF81E08F87C7012D
:102F700005C080E090E002C08FEF9FEFDF91CF911E
:102F80001F910F91FF90EF900895CF93DF93CDB7EE
:102F9000DEB769970FB6F894DEBF0FBECDBFFC0158
:102FA000DB018C918F5F8C93BE016F5F7F4F89E156
:102FB000DB011D928A95E9F729E0298384E08A8361
:102FC00091E09D8383E08E832A8721E22B879C8773
:102FD0009D879F8722E2288B27E02B8B25E02C8B77
:102FE0008E8B20E430E0388F2F8B998F82818B83FA
:102FF00095858685998B8A8B838180688D8B49E145
:1030000050E080E00E945E1269960FB6F894DEBF31
:103010000FBECDBFDF91CF91089590E0FC013197B5
:10302000EF30F105B0F5EB59FF4F0C94821E809103
:1030300080008F7703C0809180008F7D8093800017
:10304000089580918000877FF9CF84B58F7702C083
:1030500084B58F7D84BD0895809190008F7707C0DF
:10306000809190008F7D03C080919000877F809336
:10307000900008958091C0008F7703C08091C000B8
:103080008F7D8093C00008958091C200877F8093D8
:10309000C20008951F93CF93DF93282F30E0F901EA
:1030A000E554FE4F8491F901E456FE4FD491F901A5
:1030B000E358FE4FC491CC23C9F0162F81110E9412
:1030C0000D18EC2FF0E0EE0FFF1FE856FD4FA59115
:1030D000B4918FB7F894111105C09C91ED2FE09534
:1030E000E92302C0EC91ED2BEC938FBFDF91CF91E0
:1030F0001F910895CF93DF9390E0FC01E456FE4FBB
:103100002491FC01E358FE4F8491882361F190E003
:10311000880F991FFC01E657FD4FC591D491FC0122
:10312000E856FD4FA591B491611109C09FB7F8947D
:103130008881209582238883EC912E230BC06230F6
:1031400061F49FB7F8943881822F80958323888318
:10315000EC912E2B2C939FBF06C08FB7F894E8817B
:103160002E2B28838FBFDF91CF9108958F929F924E
:10317000AF92BF92CF92DF92EF92FF926B017C01F0
:103180000E9416174B015C01C114D104E104F10443
:10319000F1F00E941617DC01CB0188199909AA09E0
:1031A000BB09883E9340A105B10570F321E0C21A26
:1031B000D108E108F10888EE880E83E0981EA11C72
:1031C000B11CC114D104E104F10419F7DDCFFF9063
:1031D000EF90DF90CF90BF90AF909F908F90089529
:1031E0001F920F920FB60F9211242F933F938F933C
:1031F0009F93AF93BF938091020490910304A09199
:103200000404B09105043091700523E0230F2D379D
:1032100020F40196A11DB11D05C026E8230F0296DA
:10322000A11DB11D209370058093020490930304A7
:10323000A0930404B09305048091710590917205E8
:10324000A0917305B09174050196A11DB11D8093E5
:10325000710590937205A0937305B0937405BF91A7
:10326000AF919F918F913F912F910F900FBE0F9033
:103270001F901895AF92BF92CF92DF92EF92FF927C
:103280000F931F93CF93DF931F92CDB7DEB77C01CF
:1032900069836A01590141E050E0BE016F5F7F4FD1
:1032A000FC0183810E9485128C0197FD0BC0F70100
:1032B0008381A501B60180640E94851297FD02C03A
:1032C000800F911F0F90DF91CF911F910F91FF9071
:1032D000EF90DF90CF90BF90AF900895FC01A38551
:1032E000B485109719F47487638709C08D919C91F8
:1032F0001197009711F0DC01F9CF6D937C93258530
:103300003685DB0114968D919C911597820F931F42
:103310009687858708958091680581116BC081E04B
:1033200080935B0580935C0521E635E030935E0574
:1033300020935D051092600510925F052DE431E049
:10334000309358052093570510926305109262053B
:103350001092650510926405809366058093670559
:1033600081EC809361050E944113FC0121818091D1
:103370005B0590E0820F911D089724F081E0809317
:10338000680538C0A281B381109729F487E595E0DC
:10339000938382830EC018968D919C911997009704
:1033A00011F0DC01F8CF87E595E019969C938E9398
:1033B0001897808180935905818180935A05908167
:1033C00080915C05890F808380E090915B0589176F
:1033D000A8F6A0915D05B0915E05A80FB11D9C9166
:1033E000A181B0E0A050BF4F9C9391819F5F9183DA
:1033F0008F5FEBCF87E595E008950F931F93CF93F1
:10340000DF931F92CDB7DEB78C0169830E94F22053
:103410006981681741F0C8010F90DF91CF911F912A
:103420000F910C94FA200F90DF91CF911F910F9183
:1034300008950C94F220EF92FF920F931F93CF9375
:10344000DF93C82F880FDD0BCE01825D9B4F7C017F
:10345000DC011C911150C431D10594F4133080F477
:10346000CE0123E0880F991F2A95E1F7810F911D66
:10347000810F911D835B9C4F0E94191A082F01C078
:1034800000E0612FCE010E946B0B602F0E947F0B2A
:10349000FE01EA5FFB4F8081811105C0D7011C92BC
:1034A000C65EDB4F18821082DF91CF911F910F9182
:1034B000FF90EF900895109273041092720488EEBA
:1034C00093E0A0E0B0E08093740490937504A0931F
:1034D0007604B093770485E391E090937104809330
:1034E00070048FEF9FEF90937D0480937C04109283
:1034F000C00480913305811113C010922E051092E3
:103500002D058AED91E09093300580932F0586E399
:1035100090E0909332058093310581E080933305EC
:103520000E948B196DE275E00E946E1965ED73E0E3
:1035300081EC94E00E9491111092CA041092C90487
:1035400085E491E09093C8048093C704809141057D
:10355000811113C010923C0510923B0580E192E06E
:1035600090933E0580933D058FE290E09093400557
:1035700080933F0581E0809341050E948B196BE3A6
:1035800075E00E946E1980914F05811113C0109251
:103590004A05109249058FE392E090934C05809381
:1035A0004B058BE490E090934E0580934D0581E0B0
:1035B00080934F050E948B1969E475E00C946E1995
:1035C000CF93DF93CDB7DEB729970FB6F894DEBF60
:1035D0000FBECDBF789484B5826084BD84B5816010
:1035E00084BD85B5826085BD85B5816085BD8091CE
:1035F0006E00816080936E00109281008091810046
:10360000826080938100809181008160809381003D
:103610008091800081608093800080919100826021
:1036200080939100809191008160809391008091BE
:1036300090008160809390008091C10084608093AD
:10364000C1008091C10082608093C1008091C1005F
:1036500081608093C1008091C30081608093C3002A
:103660008091C00082608093C0008091C200816020
:103670008093C20080917A00846080937A00809168
:103680007A00826080937A0080917A0081608093D2
:103690007A0080917A00806880937A0010926F049B
:1036A000109200041092FF038091D70081608093F4
:1036B000D70080EA8093D80089B5806189BD89B53B
:1036C000826089BD09B400FEFDCF61E070E080E05A
:1036D00090E00E94B6188091D8008F7C8061809322
:1036E000D8008091E000807F8093E0008091E1002D
:1036F0008E7E8093E1008DE08093E200559A209ABF
:10370000EEEFFFE7859194918B3F9C4D19F481E09A
:103710008093FE038FEF9FEF90937D0480937C0452
:1037200046E054E08AE194E0EEE2F4E01192DC013C
:103730001D92CD01DA011D92AD01B4E0E234FB0728
:10374000A9F70FE111E0F801F0800E5F1F4F60E074
:103750008F2D0E947A1861E08F2D0E944A18F1E0A7
:1037600009321F0781F709E211E0D801FC900E5FD2
:103770001F4F60E08F2D0E947A1860E08F2D0E940D
:103780004A18B1E001331B0781F7E4E0F5E0A2E459
:10379000B4E085E090E011961C921E921182108296
:1037A0001B961C921E921A971386128655961C928F
:1037B0001E925497158A148A5F961C921E925E97E9
:1037C000178E168E019712963296009721F76CE2AB
:1037D00071E080E090E00E94B6182FB7F8948091D5
:1037E000020490910304A0910404B09105042FBF3A
:1037F0008093D8049093D904A093DA04B093DB04A7
:103800004091D4045091D5046091D6047091D704AE
:103810008C019D01041B150B260B370B0530110580
:103820002105310560F08093D4049093D504A093D2
:10383000D604B093D70481E080932C0502C0109287
:103840002C0580E794E00E941F10181619060CF052
:103850004AC080E794E00E943B10803219F18983CE
:103860001A820091C5041091C6040F5F1F4FB80162
:1038700081EC94E00E94FF10882341F12091C10463
:103880003091C2048091C5049091C604BE016F5F5F
:103890007F4F820F931F0E94A1201093C6040093B4
:1038A000C50414C061EC74E0CE0101960E9477114A
:1038B000CE0101960E947F01CE0101960E947211F5
:1038C00065ED73E081EC94E00E9451118091C50494
:1038D0009091C6048536910530F065ED73E081EC7A
:1038E00094E00E94511180912C05882309F4DDC0D9
:1038F00000916C0410916D048FEF93E00E94191AEF
:1039000090E0801791070CF4C4C120916A043091B3
:103910006B04821793070CF4BCC102E414E0E9E2E3
:10392000EE2EE1E0FE2ED7019C90B2E0EB0EF11CF2
:1039300061E0892D0E947A18A12CB12C7FE1C72E5D
:1039400071E0D72EF601219131916F013327F901F2
:10395000E554FE4F8491F901E456FE4F7490F9014D
:10396000E358FE4F84908820A1F081110E940D1829
:10397000E82DF0E0EE0FFF1FE159FE4FA591B49145
:10398000EC917E2231E020E009F430E0832F922F89
:1039900002C080E090E0F801EA0DFB1D21E08227E3
:1039A0009183808332E0A30EB11C8AE0A816B10493
:1039B00009F0C8CF60E0892D0E947A18065F1F4F7A
:1039C00094E00A36190709F0AECF3CEDA32E34E09F
:1039D000B32E42E4242E44E0342E54E0452E55E02C
:1039E000552E00E010E0C12CD12CE12CF12C9201DD
:1039F0002C0D3D1D38872F83F101EC0DFD1D8080BE
:103A00009180D9018D919C918815990581F1F501DD
:103A1000EC0DFD1DB1E08B169104B9F460906A04C1
:103A200070906B0471826082A301B801C7010E948B
:103A3000420C282FA301B801C70129870E94550C09
:103A40002985622F0E94670C12C060807180A301DB
:103A5000B801C7010E94420C282FA301B801C70179
:103A600029870E94550C2985622F0E947F0BEF81C8
:103A7000F88591828082FFEFEF1AFF0A2AE0C20EDA
:103A8000D11C38E2C316D10409F0B1CF0F5F1F4F2C
:103A900082E0480E511C92E0290E311CA2E0AA0ED1
:103AA000B11C0530110509F09ECF00911301109152
:103AB000140161E085E00E947A180115110511F4E6
:103AC00060E004C00F3F110529F461E085E00E9429
:103AD0004A187CC0E0ECF1E0E4918E2F90E0FC010C
:103AE0003197EF30F10508F06CC0EA5AFF4F0C94A3
:103AF000821E84B5806884BD07BD68C084B58062BD
:103B000084BD08BD63C08091800080688093800080
:103B1000109389000093880059C0809180008062D2
:103B20008093800010938B0000938A004FC0809197
:103B3000800088608093800010938D0000938C003B
:103B400045C0809190008068809390001093990008
:103B5000009398003BC08091900080628093900019
:103B600010939B0000939A0031C080919000886070
:103B70008093900010939D0000939C0027C080913B
:103B8000C00080688093C0008091C0008F7B8093CC
:103B9000C0000093CF001AC08091C0008062809363
:103BA000C0000093D00012C08091C2008860809352
:103BB000C2008091C2008B7F8093C2000093D2002C
:103BC00005C0003811050CF080CF7ACF80912C050C
:103BD000882309F456C080911501882309F445C053
:103BE0008AE1C82E84E0D82E9EE2892E94E0992E98
:103BF0002CE4A22E23E0B22EE12CF12CF401119141
:103C00004F01112329F1D6018C91882319F081509D
:103C10008C931EC01150133050F4C501810F911DBB
:103C2000810F911D01960E94191A082F01C000E012
:103C3000612FC7010E946B0B602F0E94670CF70178
:103C4000EA5FFB4F8081811103C08E2D0E941B1AF9
:103C5000BFEFEB1AFB0AEFEFCE1ADE0AF8E0AF0E69
:103C6000B11C04E1E016F10449F680911801803896
:103C7000C9F4909117019038A9F4909116019038E9
:103C800089F480E090E0892B09F4A7CD0E94000020
:103C9000A4CD10926D0410926C0410926B041092DB
:103CA0006A043BCE4091160140586091170160585C
:103CB00080580E94C415E5CF81EC94E00C947211F9
:103CC000A1E21A2EAA1BBB1BFD010DC0AA1FBB1F20
:103CD000EE1FFF1FA217B307E407F50720F0A21B92
:103CE000B30BE40BF50B661F771F881F991F1A94FF
:103CF00069F760957095809590959B01AC01BD0129
:103D0000CF010895EE0FFF1F0590F491E02D099467
:103D1000CF93DF938230910510F482E090E0E09140
:103D20007705F091780520E030E0C0E0D0E03097F2
:103D300011F14081518148175907C0F048175907C0
:103D400061F482819381209719F09B838A832BC031
:103D5000909378058093770526C02115310519F0D9
:103D60004217530718F49A01BE01DF01EF010280E8
:103D7000F381E02DDCCF2115310509F1281B390B2A
:103D80002430310590F412968D919C911397611512
:103D9000710521F0FB019383828304C09093780521
:103DA00080937705FD01329644C0FD01E20FF31FB9
:103DB00081939193225031092D933C933AC02091E5
:103DC000750530917605232B41F420911B0130912C
:103DD0001C013093760520937505209119013091CF
:103DE0001A012115310541F42DB73EB740911D014F
:103DF00050911E01241B350BE0917505F09176055D
:103E0000E217F307A0F42E1B3F0B2817390778F0B1
:103E1000AC014E5F5F4F2417350748F04E0F5F1F10
:103E200050937605409375058193919302C0E0E02D
:103E3000F0E0CF01DF91CF9108950F931F93CF93BF
:103E4000DF93009709F48CC0FC0132971382128231
:103E500000917705109178050115110581F42081F5
:103E60003181820F931F20917505309176052817B7
:103E7000390779F5F0937605E093750571C0D8019F
:103E800040E050E0AE17BF0750F412962D913C91E0
:103E90001397AD012115310509F1D901F3CF9D012A
:103EA000DA013383228360817181860F971F821725
:103EB000930769F4EC0128813981260F371F2E5FA3
:103EC0003F4F318320838A819B8193838283452B5B
:103ED00029F4F0937805E093770542C01396FC939C
:103EE000EE931297ED01499159919E01240F351FD0
:103EF000E217F30771F480819181840F951F029678
:103F000011969C938E938281938113969C938E93AA
:103F10001297E0E0F0E0D80112968D919C911397F2
:103F2000009719F0F8018C01F6CF8D919C919801C2
:103F30002E5F3F4F820F931F2091750530917605BC
:103F40002817390769F4309729F4109278051092F0
:103F5000770502C0138212821093760500937505CF
:103F6000DF91CF911F910F910895A0E0B0E0EBEBAE
:103F7000FFE10C940C21EC01009721F4CB010E948D
:103F8000881EB8C0FC01E60FF71F9C0122503109C2
:103F9000E217F30708F4ACC0D9010D911C911197F9
:103FA00006171707B0F00530110508F49FC0C801C7
:103FB00004978617970708F499C002501109061B49
:103FC000170B019311936D937C93CF010E941D1FDA
:103FD0008DC05B01A01AB10A4C01800E911EA09108
:103FE0007705B091780540E050E0E12CF12C109776
:103FF00009F44AC0A815B905D1F56D907C901197C8
:10400000630182E0C80ED11CCA14DB0480F1A30155
:104010004A195B096A0182E0C80ED11C1296BC9055
:1040200012971396AC91B5E0CB16D10440F0B28252
:10403000A38351834083D9016D937C930AC00E5FA3
:104040001F4FC301800F911FF90191838083EB2DD6
:10405000FA2FE114F10431F0D7011396FC93EE939B
:10406000129744C0F0937805E09377053FC08D9197
:104070009C9111974817590708F4AC017D011296DD
:104080000D90BC91A02DB3CF8091750590917605D0
:1040900088159905E1F446175707C8F4809119016E
:1040A00090911A01009741F48DB79EB740911D0180
:1040B00050911E01841B950BE817F907C8F4F09383
:1040C0007605E0937505F901718360830FC0CB011C
:1040D0000E94881E7C01009759F0A801BE010E9431
:1040E0008420CE010E941D1FC70104C0CE0102C062
:1040F00080E090E0CDB7DEB7EEE00C94282181E0BF
:1041000090E0F8940C943F21FB01DC0102C0019087
:104110000D9241505040D8F70895FC0181918617C7
:1041200021F08823D9F7992708953197CF01089571
:10413000FB01DC018D91019080190110D9F3990BDD
:104140000895FB01DC0101900D920020E1F7089534
:10415000FB01DC014150504030F08D9101908019FD
:1041600019F40020B9F7881B990B08951F93FC01DF
:1041700099278827BC01E89411911032E9F319308E
:1041800010F01E30C8F31B3251F01D3249F4689410
:1041900006C00E94DD20610F711D811D911D1191CE
:1041A00010531A30B0F33EF4909580957095619558
:1041B0007F4F8F4F9F4F1F910895592F482F372FB3
:1041C000262F660F771F881F991F660F771F881F7E
:1041D000991F620F731F841F951F660F771F881F1B
:1041E000991F0895F999FECF92BD81BDF89A99273C
:1041F00080B50895262FF999FECF1FBA92BD81BDD3
:1042000020BD0FB6F894FA9AF99A0FBE0196089558
:104210002F923F924F925F926F927F928F929F92D6
:10422000AF92BF92CF92DF92EF92FF920F931F93C4
:10423000CF93DF93CDB7DEB7CA1BDB0B0FB6F89475
:10424000DEBF0FBECDBF09942A88398848885F84B5
:104250006E847D848C849B84AA84B984C884DF8026
:10426000EE80FD800C811B81AA81B981CE0FD11D0A
:104270000FB6F894DEBF0FBECDBFED01089511E07B
:10428000C4E5D1E004C0FE010E94821E2196C5351E
:08429000D107C9F7F894FFCF34
:1042980000C18081000000FFFFFFFF00E100000077
:1042A8000000003200018080800000790580001045
:1042B800000E000F00120013000900080007000696
:1042C8000000000000FE0F2B131F103B10591014A4
:1042D8001000000000410BD30F000000003B17C581
:1042E8001785176217756E697175656B72657169E7
:1042F8006E666F0044455052454349415445440059
:10430800756E697175656B7265716E616D65004674
:10431800656C697800756E697175656B7265717623
:10432800617269616E740046656C69782074797091
:10433800655A45524F00756E697175656B72657186
:1043480064726976657200416E696D757320496E95
:104358006E6F766120322E342E3100756E6971755C
:10436800656B7265716275696C640046656C697825
:10437800204F454D00756E697175656B7365746B7B
:10438800657900736574206B65792800756E6971AD
:1043980075656B736574656570726F6D00736574B0
:1043A80020454550524F4D2800756E697175656BF3
:1043B8007365746C617900736574206C61796572DA
:1043C80020636F756E7428006572726F723A206987
:1043D8006E73756666696369656E742045455052EB
:1043E8004F4D00756E697175656B6765746C6179A1
:1043F80000756E697175656B6765746B65790072B8
:10440800657475726E206B65792800756E697175B3
:10441800656B676574726F7700756E697175656B2A
:10442800676574636F6C00756E697175656B73652C
:10443800746D617374657200736574206D61737453
:1044480065722800756E697175656B7365746E6B3E
:10445800726F00736574204E4B524F206D6F646508
:1044680028006572726F723A20696E76616C6964B1
:10447800204E4B524F206F7074696F6E00756E69D5
:104488007175656B6765746E6B726F00756E6971B7
:1044980075656B6765746D6F647300676574206D0F
:1044A8006F647328006D6564696100756E69717564
:1044B800656B7365746D6163726F00736574206DED
:1044C8006163726F2800737469636B794B657973E4
:1044D80000426C656450574D00756E697175656B67
:1044E8007365746272696768746E65737300736567
:1044F80074206272696768746E6573732829007521
:104508006E697175656B6765746272696768746EE8
:1045180065737300676574206272696768746E6595
:1045280073732829006475616C526F6C657300742D
:10453800617044616E636500756E697175656B7352
:10454800657474617064616E63650073657420746A
:10455800617064616E636528006D6F7573654B6586
:064568007973000D0A004A
:00000001FF
