:100000000C9476010C949E010C949E010C949E011C
:100010000C949E010C949E010C949E010C949E01E4
:100020000C949E010C949E010C948F100C949C12C5
:100030000C949E010C949E010C949E010C949E01C4
:100040000C949E010C949E010C949E010C949E01B4
:100050000C949E010C949E010C949E010C946F19BB
:100060000C949E010C949E010C949E010C949E0194
:100070000C949E010C949E010C949E010C949E0184
:100080000C949E010C949E010C949E010C949E0174
:100090000C949E010C949E010C949E010C949E0164
:1000A0000C949E010C949E010C949E01EB14EE1492
:1000B000DD14E114E7140F150F150F15F214F614E3
:1000C000FA14001504150F150A15F11EF61EFB1E75
:1000D000051F0F1F591F591F591F191F231F2D1FA0
:1000E000371F441F591F4C1F000000002500280027
:1000F0002B002E003100080B00020202010009044F
:100100000000010202000005240010010524010185
:1001100001042402060524060001070581031000DE
:100120004009040100020A00000007050202400025
:10013000000705830240000004030904417264754E
:10014000696E6F204C4C430041726475696E6F207C
:100150004C656F6E6172646F001201000200000056
:10016000404123368000010102030112010002EF29
:10017000020140412336800001010203010000001A
:10018000002300260029002C002F0004040404048E
:10019000030405020202020403020202020606062A
:1001A00006060604040202020404040802011040C8
:1001B00080401020408040800802040180402010D0
:1001C0000201108010204040200000000200090FB2
:1001D0000000030401000C0000000000000000000B
:1001E000000000000000000005010906A10105074C
:1001F00019E029E715002501750195088102050C14
:1002000095017508150026FF00190029FF810005DA
:1002100008190129089508750191020507950675C9
:1002200008150026E700190029E78100C00000003A
:1002300000240027002A002D00300005010906A136
:10024000018508050719E029E715002501750195C5
:10025000088102190029671500250175019568813B
:100260000295017508150026E700190029E78100AD
:10027000C005010902A10185010509190129081517
:100280000025019508750181020501093009310930
:10029000381581257F750895038106C0050C090175
:1002A000A10185051500250109E909EA75019502F5
:1002B000810609E29501810609B09501810609B11F
:1002C0009501810609B79501810609B59501810659
:1002D00009B69501810609B39501810609B4950116
:1002E000810695068107C0000420002011241FBE4E
:1002F000CFEFDAE0DEBFCDBF14E0A0E0B1E0E6E78B
:10030000F7E402C005900D92AC31B107D9F725E0B2
:10031000ACE1B4E001C01D92A73EB207E1F711E0E5
:10032000C5E7D1E004C02197FE010E94F120C43747
:10033000D107C9F70E94401C0C94AE230C94000016
:100340003F924F925F926F927F928F929F92AF9265
:10035000BF92CF92DF92EF92FF920F931F93CF93B2
:10036000DF93CDB7DEB763970FB6F894DEBF0FBE4D
:10037000CDBF8C0169E871E00E948F15882321F0C0
:1003800088E991E00E94CB1B64EA71E0C8010E94F9
:100390008F15882321F083EB91E00E94CB1B69EB42
:1003A00071E0C8010E948F15882321F08BEC91E049
:1003B0000E94CB1B6AED71E0C8010E948F15882353
:1003C00021F08BEE91E00E94CB1B6FEF71E0C80132
:1003D0000E948F15882319F08FE092E0B4C169E183
:1003E00072E0CE0101960E947A10BE016F5F7F4FCE
:1003F000C8010E947415F82ECE0101960E947D1648
:10040000FF2009F4F5C0C8010E94191BAC014F5F21
:100410005F4FB801CE0101960E94740BBE016F5F61
:100420007F4FC8010E94AE15CE0101960E947D1635
:10043000C8010E94191B9C0140E050E0B801CE01A8
:1004400001960E943716CE0101960E946915962EDC
:10045000CE0101960E947D16C8010E94191BAC01B5
:100460004F5F5F4FB801CE0101960E94740BBE0131
:100470006F5F7F4FC8010E94AE15CE0101960E94AA
:100480007D16C8010E94191B9C0140E050E0B80194
:10049000CE0101960E943716CE0101960E94691581
:1004A000A62ECE0101960E947D16C8010E94191B3E
:1004B000AC014F5F5F4FB801CE0101960E94740BF3
:1004C000BE016F5F7F4FC8010E94AE15CE0101963D
:1004D0000E947D16C8010E94191B9C0140E050E05B
:1004E000B801CE0101960E943716CE0101960E94F6
:1004F0006915B62ECE0101960E947D16C8010E9494
:10050000191BAC014F5F5F4FB801CE0101960E94ED
:10051000740BBE016F5F7F4FC8010E94AE15CE0104
:1005200001960E947D16C8010E94191B9C0140E0A3
:1005300050E0B801CE0101960E943716CE01019617
:100540000E946915C62ECE0101960E947D16C80133
:100550000E94191BAC014F5F5F4FB801CE0101969D
:100560000E94740BBE016F5F7F4FC8010E94AE15E1
:10057000CE0101960E947D16C8010E946915D62EF3
:1005800084E0A89E70011124E90CF11C84E1B89E5E
:10059000E00CF11C1124EE0CFF1C6C2DC7010E9415
:1005A000681A6D2DC70101960E94681A87E292E0D1
:1005B0000E94171B892D0E94721B8BE492E00E94FF
:1005C000171B8A2D0E94721B8BE492E00E94171B5E
:1005D0008B2D0E94721B8BE492E00E94171B8C2DC6
:1005E0000E94721B8BE492E00E94171B8D2D6FC03E
:1005F00060E372E0CE0101960E947A10BE016F5F47
:100600007F4FC8010E947415F82ECE0101960E94FA
:100610007D16FF2009F45EC0C8010E94191BAC01C1
:100620004F5F5F4FB801CE0101960E94740BBE016F
:100630006F5F7F4FC8010E94AE15CE0101960E94E8
:100640007D16C8010E94191B9C0140E050E0B801D2
:10065000CE0101960E943716CE0101960E946915BF
:100660006B017C01CE0101960E947D16C8010E949B
:10067000191BAC014F5F5F4FB801CE0101960E947C
:10068000740BBE016F5F7F4FC8010E94AE15CE0193
:1006900001960E947D16C8010E946915B62EC601FA
:1006A0000E94681A81E492E00E94171BB601DD0CDB
:1006B000880B990B97FF03C00E948C1B03C04AE074
:1006C0000E94311B8BE492E00E94171B8B2D0E942D
:1006D000791B7DC16DE472E0CE0101960E947A1013
:1006E000BE016F5F7F4FC8010E947415F82ECE01C6
:1006F00001960E947D16FF2049F1C8010E94191B36
:10070000AC014F5F5F4FB801CE0101960E94740BA0
:10071000BE016F5F7F4FC8010E94AE15CE010196EA
:100720000E947D16C8010E946915F62E8EE18F1574
:1007300040F06F2D8FEF93E00E94681A8BE592E0F6
:10074000D5C08CE692E00E94CB1B41C167E872E005
:10075000C8010E948F15882319F08FEF93E02CC0F9
:1007600065E972E0CE0101960E947A10BE016F5FCA
:100770007F4FC8010E947415F82ECE0101960E9489
:100780007D16FF20E1F0C8010E94191BAC014F5FEC
:100790005F4FB801CE0101960E94740BBE016F5FDE
:1007A0007F4FC8010E94AE15CE0101960E947D16B2
:1007B000C8010E946915CB010E94841A88CF66EA9D
:1007C00072E0CE0101960E947A10BE016F5F7F4FEA
:1007D000C8010E947415F82ECE0101960E947D1664
:1007E000FF2009F487C0C8010E94191BAC014F5FAC
:1007F0005F4FB801CE0101960E94740BBE016F5F7E
:100800007F4FC8010E94AE15CE0101960E947D1651
:10081000C8010E94191B9C0140E050E0B801CE01C4
:1008200001960E943716CE0101960E946915E62EA8
:10083000CE0101960E947D16C8010E94191BAC01D1
:100840004F5F5F4FB801CE0101960E94740BBE014D
:100850006F5F7F4FC8010E94AE15CE0101960E94C6
:100860007D16C8010E94191B9C0140E050E0B801B0
:10087000CE0101960E943716CE0101960E9469159D
:10088000C62ECE0101960E947D16C8010E94191B3A
:10089000AC014F5F5F4FB801CE0101960E94740B0F
:1008A000BE016F5F7F4FC8010E94AE15CE01019659
:1008B0000E947D16C8010E946915A62EB12CD12C6C
:1008C000F12CA501B601C7010E94620B982EA5016B
:1008D000B601C7010E944F0BF82E84EB92E00E94F4
:1008E000171B892D0E94721B8BE492E00E94171B3C
:1008F0008F2DEDCE60EC72E0CE0101960E947A1051
:10090000BE016F5F7F4FC8010E947415F82ECE01A3
:1009100001960E947D16FF2019F085E090E015C039
:100920006EEC72E0CE0101960E947A10BE016F5FFC
:100930007F4FC8010E947415F82ECE0101960E94C7
:100940007D16FF2029F084E090E00E94B31B3FC099
:100950006CED72E0CE0101960E947A10BE016F5FCD
:100960007F4FC8010E947415F82ECE0101960E9497
:100970007D16FF2061F1C8010E94191BAC014F5F79
:100980005F4FB801CE0101960E94740BBE016F5FEC
:100990007F4FC8010E94AE15CE0101960E947D16C0
:1009A000C8010E946915611103C01092150103C0AE
:1009B00081E0809315018DEE92E00E94171B6091FB
:1009C000150170E080E090E04AE00E94311BB80120
:1009D000CE0107960E94821669EF72E0CE01019661
:1009E0000E947A10BE016F5F7F4FCE0107960E9472
:1009F0007415F82ECE0101960E947D16FF2009F491
:100A000040C0CE0107960E94191BAC014F5F5F4F9B
:100A1000BE01695F7F4FCE0101960E94740BBE013B
:100A20006F5F7F4FCE0107960E94AE15CE010196F3
:100A30000E947D16CE0107960E946915F62E82E06F
:100A40008F15D0F06F2D8EEF93E00E94681A809181
:100A50002D05813019F48CE995E002C088E895E015
:100A60000E94A60CF0922D050E94F41A88E093E0F3
:100A70000E94171B8F2D11C087E193E00E94CB1BB2
:100A80000EC062E373E0CE0107960E948F158823A3
:100A900031F08EEF93E00E94841A0E94791BCE0100
:100AA00007960E947D16B801CE010D960E9482160F
:100AB00061E473E0CE010D960E948F15882321F02A
:100AC00080E593E00E94171BBE01635F7F4FCE015C
:100AD00007960E94821661E473E0CE0101960E949F
:100AE0007A10BE016F5F7F4FCE0107960E9474158A
:100AF000182FCE0101960E947D16112321F08AE560
:100B000093E00E94171BCE0107960E947D16BE013E
:100B1000635F7F4FCE0107960E94821661E473E007
:100B2000CE0101960E947A10BE016F5F7F4FCE0109
:100B300007960E947415182FCE0101960E947D160B
:100B4000112329F08AE693E00E94171B85C160E615
:100B500073E0CE0101960E947A10BE016F5F7F4F55
:100B6000CE0107960E947415182FCE0101960E949F
:100B70007D16112309F470C1CE0107960E94191B3E
:100B8000AC014F5F5F4FBE01695F7F4FCE010196A1
:100B90000E94740BBE016F5F7F4FCE0107960E94CB
:100BA000AE15CE0101960E947D16CE0107960E94D9
:100BB000191B9C0140E050E0BE01695F7F4FCE01F0
:100BC00001960E943716CE0101960E946915F62EF5
:100BD000CE0101960E947D16CE0107960E94191B38
:100BE000AC014F5F5F4FBE01695F7F4FCE01019641
:100BF0000E94740BBE016F5F7F4FCE0107960E946B
:100C0000AE15CE0101960E947D16CE0107960E9478
:100C1000191B9C0140E050E0BE01695F7F4FCE018F
:100C200001960E943716CE0101960E946915E62EA4
:100C3000CE0101960E947D1682E1F89E800111246A
:100C40008BE08F1548F088E08E1530F06E2DC801CE
:100C5000875A9D4F0E94681A480188EA881A8DEFCA
:100C6000980A580185EAA81A8DEFB80A065A1D4F4E
:100C7000C12CD12C412C512C32014394CE0107962A
:100C80000E94191BAC014F5F5F4FBE01695F7F4F30
:100C9000CE0101960E94740BBE016F5F7F4FCE01A3
:100CA00007960E94AE15CE0101960E947D16CE01D8
:100CB00007960E94191B9C0140E050E0BE01695F4D
:100CC0007F4FCE0101960E943716CE0101960E94F9
:100CD0006915CE0101966B8B0E947D166B898BE0A6
:100CE0008F1518F0C8010E94681ACE0107960E945D
:100CF000191BAC014F5F5F4FBE01695F7F4FCE0193
:100D000001960E94740BBE016F5F7F4FCE01079664
:100D10000E94AE15CE0101960E947D16CE01079667
:100D20000E94191B9C0140E050E0BE01695F7F4FAB
:100D3000CE0101960E943716CE0101960E946915D8
:100D4000CE0101966B8B0E947D166B898BE08F150F
:100D500018F0C5010E94681ACE0107960E94191B5F
:100D6000AC014F5F5F4FBE01695F7F4FCE010196BF
:100D70000E94740BBE016F5F7F4FCE0107960E94E9
:100D8000AE15CE0101960E947D16CE0107960E94F7
:100D9000191B9C0140E050E0BE01695F7F4FCE010E
:100DA00001960E943716CE0101960E946915362ED3
:100DB000CE0101960E947D168BE08F15C8F0C4010C
:100DC0000E94841A282FD301C2010C2C04C0880F62
:100DD000991FAA1FBB1F0A94D2F7332019F0622F64
:100DE000682B03C08095622F6823C4010E94681A93
:100DF0008FEFC81AD80A82E0A80EB11C0E5F1F4FF1
:100E000088E0C816D10409F039CFCE0107960E94B8
:100E1000191BAC014F5F5F4FBE01695F7F4FCE0171
:100E200001960E94740BBE016F5F7F4FCE01079643
:100E30000E94AE15CE0101960E947D1680E793E0D8
:100E40000E94171B8F2D0E94721B8BE492E00E9460
:100E5000171B8E2D0E94791BCE0107960E947D16CE
:100E6000BE01635F7F4FCE0107960E94821661E448
:100E700073E0CE0101960E947A10BE016F5F7F4F32
:100E8000CE0107960E947415182FCE0101960E947C
:100E90007D16112321F08BE793E00E94171BCE01F2
:100EA00007960E947D16BE01635F7F4FCE010796B5
:100EB0000E94821661E473E0CE0101960E947A10CE
:100EC000BE016F5F7F4FCE0107960E947415182FE9
:100ED000CE0101960E947D16112329F086E893E049
:100EE0000E94171B6BC06EE873E0CE0101960E9452
:100EF0007A10BE016F5F7F4FCE0107960E94741576
:100F0000182FCE0101960E947D161123C9F1CE0142
:100F100007960E94191BAC014F5F5F4FBE01695FCE
:100F20007F4FCE0101960E94740BBE016F5F7F4F11
:100F3000CE0107960E94AE15CE0101960E947D1645
:100F4000CE0107960E94191B9C0140E050E0BE01B3
:100F5000695F7F4FCE0101960E943716CE01019640
:100F60000E946915CE0101966B8B0E947D166B89DC
:100F700070E0709314016093130183EA93E016C04C
:100F800064EB73E0CE0101960E947A10BE016F5FA0
:100F90007F4FCE0107960E947415182FCE0101963F
:100FA0000E947D16112351F089EC93E00E94171BDB
:100FB00080911301909114010E94B31BCE010796FA
:100FC0000E947D16BE01635F7F4FCE0107960E948F
:100FD000821661E473E0CE0101960E947A10BE0190
:100FE0006F5F7F4FCE0107960E947415182FCE01B8
:100FF00001960E947D16112321F08AED93E00E9454
:10100000171BCE0107960E947D16BE01635F7F4FBE
:10101000CE0107960E94821661E473E0CE0101962C
:101020000E947A10BE016F5F7F4FCE0107960E942B
:101030007415182FCE0101960E947D16112329F0F8
:1010400084EE93E00E94171B38C26DEE73E0CE0170
:1010500001960E947A10BE016F5F7F4FCE01079606
:101060000E947415182FCE0101960E947D1611233F
:1010700009F423C2CE0107960E94191BAC014F5FF1
:101080005F4FBE01695F7F4FCE0101960E94740BD6
:10109000BE016F5F7F4FCE0107960E94AE15CE0155
:1010A00001960E947D16CE0107960E94191B9C0195
:1010B00040E050E0BE01695F7F4FCE0101960E9483
:1010C0003716CE0101960E946915B62ECE01019603
:1010D0000E947D16CE0107960E94191BAC014F5F3E
:1010E0005F4FBE01695F7F4FCE0101960E94740B76
:1010F000BE016F5F7F4FCE0107960E94AE15CE01F5
:1011000001960E947D16CE0107960E94191B9C0134
:1011100040E050E0BE01695F7F4FCE0101960E9422
:101120003716CE0101960E946915362ECE01019622
:101130000E947D16CE0107960E94191BAC014F5FDD
:101140005F4FBE01695F7F4FCE0101960E94740B15
:10115000BE016F5F7F4FCE0107960E94AE15CE0194
:1011600001960E947D16CE0107960E94191B9C01D4
:1011700040E050E0BE01695F7F4FCE0101960E94C2
:101180003716CE0101960E946915462ECE010196B2
:101190000E947D16CE0107960E94191BAC014F5F7D
:1011A0005F4FBE01695F7F4FCE0101960E94740BB5
:1011B000BE016F5F7F4FCE0107960E94AE15CE0134
:1011C00001960E947D16CE0107960E94191B9C0174
:1011D00040E050E0BE01695F7F4FCE0101960E9462
:1011E0003716CE0101960E946915562ECE01019642
:1011F0000E947D16CE0107960E94191BAC014F5F1D
:101200005F4FBE01695F7F4FCE0101960E94740B54
:10121000BE016F5F7F4FCE0107960E94AE15CE01D3
:1012200001960E947D16CE0107960E94191B9C0113
:1012300040E050E0BE01695F7F4FCE0101960E9401
:101240003716CE0101960E946915662ECE010196D1
:101250000E947D16CE0107960E94191BAC014F5FBC
:101260005F4FBE01695F7F4FCE0101960E94740BF4
:10127000BE016F5F7F4FCE0107960E94AE15CE0173
:1012800001960E947D16CE0107960E94191B9C01B3
:1012900040E050E0BE01695F7F4FCE0101960E94A1
:1012A0003716CE0101960E946915762ECE01019661
:1012B0000E947D16CE0107960E94191BAC014F5F5C
:1012C0005F4FBE01695F7F4FCE0101960E94740B94
:1012D000BE016F5F7F4FCE0107960E94AE15CE0113
:1012E00001960E947D16CE0107960E94191B9C0153
:1012F00040E050E0BE01695F7F4FCE0101960E9441
:101300003716CE0101960E946915862ECE010196F0
:101310000E947D16CE0107960E94191BAC014F5FFB
:101320005F4FBE01695F7F4FCE0101960E94740B33
:10133000BE016F5F7F4FCE0107960E94AE15CE01B2
:1013400001960E947D16CE0107960E94191B9C01F2
:1013500040E050E0BE01695F7F4FCE0101960E94E0
:101360003716CE0101960E946915962ECE01019680
:101370000E947D16CE0107960E94191BAC014F5F9B
:101380005F4FBE01695F7F4FCE0101960E94740BD3
:10139000BE016F5F7F4FCE0107960E94AE15CE0152
:1013A00001960E947D16CE0107960E946915A62E11
:1013B0000B2D10E083E18B1590F1780183E0EE0CAA
:1013C000FF1C8A95E1F7670186EBC81A8CEFD80AF3
:1013D000C6010E94841A8C7F682F630DC6010E948B
:1013E000681AC6010E94841A8370942D990F990F70
:1013F000682F690FC6010E94681A652DC701845BBA
:101400009C4F0E94681A672DC701825B9C4F0E9407
:10141000681A692DC701805B9C4F0E94681A462D8F
:1014200060E0C8010E94270B482D61E0C8010E94BE
:10143000270B4A2D62E0C8010E94270B80E094E050
:101440000E94171B8B2D0E94721B8BE492E00E945E
:10145000171B832D0E94721B8BE492E00E94171BC6
:10146000842D0E94721B8BE492E00E94171B852D35
:101470000E94721B8BE492E00E94171B862D0E9433
:10148000721B8BE492E00E94171B872D0E94721B37
:101490008BE492E00E94171B882D0E94721B8BE444
:1014A00092E00E94171B892D0E94721B8BE492E030
:1014B0000E94171B8A2D0E94791BCE0107960E945D
:1014C0007D16BE01635F7F4FCE0107960E94821694
:1014D00061E473E0CE0101960E947A10BE016F5F55
:1014E0007F4FCE0107960E947415182FCE010196EA
:1014F0000E947D16112321F08EE094E00E94171BBC
:10150000CE0107960E947D1661E473E0CE010D9630
:101510000E948F15882321F088E194E00E94171B18
:10152000CE010D960E947D1663960FB6F894DEBF2D
:101530000FBECDBFDF91CF911F910F91FF90EF9024
:10154000DF90CF90BF90AF909F908F907F906F90E3
:101550005F904F903F9008958C3091058CF46830E7
:1015600078F442E1489F9001499F300D1124C90150
:10157000860F911D860F911D855A9D4F0C94841ADC
:1015800080E00895CF93DF932091B1043091B204AD
:10159000882319F02F5F3F4F02C02150310930934B
:1015A000B2042093B104C091B104D091B2048FEF82
:1015B00093E00E94841A90E0C817D9072CF010928B
:1015C000B2041092B10407C0D7FF05C001979093F1
:1015D000B2048093B104DF91CF9108950F931F93CC
:1015E000CF93DF9381E0809331040DE114E0C0E0FC
:1015F000D0E0F80180818823F9F0209711F480EE83
:1016000004C0C130D10521F481EE0E940B1B12C031
:10161000C230D10511F482EEF8CFC330D10511F4F8
:1016200086EEF3CF8091B1049091B2049093B00410
:101630008093AF04F801108221960F5F1F4FC431D1
:10164000D105B9F6DF91CF911F910F9108958431A3
:10165000910584F4633070F423E0880F991F2A9574
:10166000E1F7860F911D860F911D642F835B9C4FC0
:101670000C94681A0895843191057CF4633068F401
:1016800023E0880F991F2A95E1F7845B9C4F860F12
:10169000911D860F911D0C94841A80E00895660FA9
:1016A000771F660F771F860F971F64E1649F900175
:1016B000659F300D1124820F931F880F991F01968B
:1016C0000C94841A660F771F660F771F680F791FB7
:1016D00024E1249FC001259F900D1124860F971FA0
:1016E000880F991F0C94841ACF93DF93EC01FB01B0
:1016F000248135810E943716CE01DF91CF91089564
:101700000F931F93CF93DF93EC01E881F98100845D
:10171000F185E02D40E009958C01892B39F0E881B5
:10172000F9810680F781E02DCE010995C801DF918E
:10173000CF911F910F9108950F931F93CF93DF9334
:10174000EC01E881F9810084F185E02D41E0099503
:101750008C01892B39F0E881F9810680F781E02D31
:10176000CE010995C801DF91CF911F910F91089586
:10177000FF920F931F93CF93DF938C01F62E0E945D
:101780009C0BEC01892B21F06F2DC8010E94800B6E
:10179000CE01DF91CF911F910F91FF900895CF93CC
:1017A000DF93D82FC62F80911501882309F454C0E8
:1017B000611104C08D2F0E940B1B4EC0613091F04F
:1017C0006230C9F480911C0481110CC080912D05F8
:1017D0006CE2813019F48CE995E002C088E895E06C
:1017E0000E94B80B8091B1049091B2049093B00420
:1017F0008093AF0431C06B3091F06C3019F460E02D
:1018000080EE24C06D3001F16E3019F460E086EE98
:101810001DC06F3039F460E080EE0E94CF0B60E0B5
:1018200081EE14C0603129F460E080EE0E94CF0B9D
:1018300007C0613119F460E080EE04C0623161F4E8
:1018400060E081EE0E94CF0B60E082EE0E94CF0B41
:1018500060E08D2F0E94CF0B80911501882391F1BC
:101860008CEE8C0F8A3070F5C43119F460E080EE94
:1018700004C0C53129F460E081EE0E94CF0B12C094
:10188000C63119F460E082EEF8CFC73119F460E098
:1018900086EEF3CF8091B1049091B2049093B0049E
:1018A0008093AF0480911C0481110CC080912D05A0
:1018B0006D2F813019F48CE995E002C088E895E03D
:1018C0000E94B80B80911501882329F0C33119F4C7
:1018D0008D2F0E94861A809115018823A1F1CF31A6
:1018E00039F48091180180588D1B809318012BC00A
:1018F000C03239F48091170180588D1B80931701F5
:1019000022C0C13239F48091160180588D1B80931A
:10191000160119C0C232B9F4D13011F481E00FC000
:10192000D23011F482E00BC0D33011F484E007C050
:10193000D43011F488E003C0D53029F480E1DF9180
:10194000CF910C94321CDF91CF9108950F931F9388
:10195000CF93DF93EC01E881F9810480F581E02DDC
:1019600009958C01892B39F0E881F9810680F7818E
:10197000E02DCE010995C801DF91CF911F910F9104
:1019800008956F927F928F929F92AF92BF92CF9263
:10199000DF92EF92FF920F931F93CF93DF9300D0CC
:1019A0001F92CDB7DEB7082F162F81E080931C045D
:1019B00080911501882309F492C0611104C0802F21
:1019C0000E94FF1A8CC0613021F0623059F41092ED
:1019D0001C04802F002E000C990B9093B004809370
:1019E000AF047DC06330B9F5011102C081E003C0CE
:1019F000013021F480E00E94C20A71C0E090B1047D
:101A0000F090B20481E00E2C01C0880F0A94EAF72E
:101A1000282F3AE0C32ED12C220F69F08FEFE81A5D
:101A2000F80A8FEF93E02B830E94841A90E02B81B9
:101A3000E816F9061CF021E0E12CF12C822F80231E
:101A400029F0F092B204E092B10449C091E0C91AC1
:101A5000D10811F7F6CF653089F42091AF043091A9
:101A6000B004802F002E000C990B2817390709F0BD
:101A7000B0CF8091B1049091B204AFCF6B3091F0B0
:101A80006C3019F460E080EE24C06D3001F16E30EE
:101A900019F460E086EE1DC06F3039F460E080EE2E
:101AA0000E94C10C60E081EE14C0603129F460E056
:101AB00080EE0E94C10C07C0613119F460E080EE35
:101AC00004C0623161F460E081EE0E94C10C60E00C
:101AD00082EE0E94C10C60E0802F0E94C10C8091B8
:101AE0001501882361F1163051F580912D05813063
:101AF00019F48CE995E002C088E895E00E94A60CF4
:101B0000602F8EEF93E00E94681A80912D0581303E
:101B100019F48CE995E002C088E895E00E94A60CD3
:101B200000932D050E94F41A80912D05813019F43F
:101B30008CE995E002C088E895E00E94A60C8091AF
:101B40001501882359F1143049F5011102C081E0D3
:101B500017C0013011F482E013C0023011F4198370
:101B600010C0033011F488E00BC0043011F480E1A0
:101B700007C0053011F480E403C0063079F480E832
:101B800089831A820E940A1A22E030E0AE014F5F78
:101B90005F4F65E00E94B9190E94DE1A809115011D
:101BA000882309F45DC0173009F05AC0802E002E3A
:101BB000000C99088CE0881691040CF051C092E159
:101BC000090260011124C601875A9D4F0E94841AA0
:101BD000560196EAA91A9DEFB90AE12CF12C682E5C
:101BE000712C88EAC81A8DEFD80AE614F7042CF590
:101BF000C6010E94841A90E00E2C02C0959587952C
:101C00000A94E2F76E2D80FFD9C0C4010E94AC0A8D
:101C1000682FC5016B830E94841A6B810E94CF0BD1
:101C200065E070E080E090E00E9435199FEFE91ACE
:101C3000F90A82E0A80EB11CD8CF8091B10490912E
:101C4000B2049093B0048093AF0480912D0581304D
:101C500019F48CE995E002C088E895E00E94A60C92
:101C600080911501882379F11E3159F5802F002EBE
:101C7000000C990BFC01E35EFB4F308121E0232730
:101C800020832223F1F0011102C080EE03C0013055
:101C900021F481EE0E94FF1A11C0023011F482EE8D
:101CA000F9CF033011F486EEF5CF2CEF200F203161
:101CB00028F403979093B0048093AF0410923104FA
:101CC00002C00E94EE0A80911501882309F446C0E3
:101CD0001A3009F07FC00536B4F480911301909159
:101CE0001401800F911D07FD9A9597FF05C0109272
:101CF00014011092130125C08F3F9105F1F0ECF013
:101D00008FEF90E01AC0053691F3063619F480E2A1
:101D100090E013C0073619F480E490E00EC0083656
:101D200019F480E690E009C0093619F480E890E0E3
:101D300004C00A3631F480EA90E090931401809355
:101D4000130188EE810F863048F410921C04812F15
:101D500090E047979093B0048093AF048091150171
:101D6000882309F482C0133109F04DC0002E000C05
:101D7000110BF801ED58FB4F8081843008F075C0DD
:101D80008F5F8083043111056CF4C80123E0880F54
:101D9000991F2A95E1F7865B9C4F0E94841A8695CD
:101DA000869501C080E0F801E15AFB4F880F8083DF
:101DB000F801E55BFB4F81E0808357C0C4010E94BE
:101DC000AC0A682FC5016B830E94841A6B810E9444
:101DD000C10C26CF143119F460E080EE09C0153132
:101DE00019F460E081EE04C0163139F460E082EE4F
:101DF0000E94C10C10921C04B1CF173109F0A1CF81
:101E000060E086EEF5CF1F3139F4809118018058DB
:101E1000080F0093180129C0103239F4809117017E
:101E20008058080F0093170120C0113239F48091B7
:101E300016018058080F0093160117C01232A9F43A
:101E4000013011F481E00FC0023011F482E00BC0C8
:101E5000033011F484E007C0043011F488E003C0BB
:101E6000053019F480E10E94251C0F900F900F900F
:101E7000DF91CF911F910F91FF90EF90DF90CF9066
:101E8000BF90AF909F908F907F906F900895CF9369
:101E9000DF93EC01E881F9810480F581E02D09955B
:101EA000E881F9810680F781E02DCE01DF91CF91A5
:101EB00009940895409141045091420420913F04B7
:101EC0003091400442175307B4F49091E8009570A4
:101ED000E1F39091E80092FD19C08093F1008091A8
:101EE00041049091420401968F739927892B19F42C
:101EF0008EEF8093E8008091410490914204019616
:101F0000909342048093410481E0089580E0089515
:101F1000CF92DF92EF92FF920F931F93CF93DF93B5
:101F20001F92CDB7DEB7182F062FE42E862F880F0D
:101F30008E5F99830E945A0F83E00E945A0FF12E00
:101F4000C12E9981D92E8C2D8F19801798F4F60106
:101F5000E7FE02C0849101C080810E945A0F182FB1
:101F600080E00E945A0F8123FFEFCF1ADF0A811110
:101F7000EACF01C081E00F90DF91CF911F910F91C7
:101F8000FF90EF90DF90CF900895615030F0209156
:101F9000F100FC0120830196F8CF289884E6809315
:101FA0002B050895CF92DF92EF92FF920F931F932C
:101FB000CF93DF936C017A018B01C0E0D0E0CE15A6
:101FC000DF0589F0D8016D918D01D601ED91FC916D
:101FD0000190F081E02DC6010995892B11F47E0155
:101FE00002C02196ECCFC701DF91CF911F910F91D5
:101FF000FF90EF90DF90CF900895CF93DF931F92E3
:10200000CDB7DEB76983DC01ED91FC910280F381ED
:10201000E02D41E050E0BE016F5F7F4F09950F90CA
:10202000DF91CF91089583E08093E9008091F200E1
:10203000882319F08AE38093E8000895FC018485E1
:10204000958597FD0BC09FB7F89482E08093E900D7
:102050008091F2009FBF90E0019608959FB7F89499
:1020600082E08093E9008091F2009FBF90E00895A4
:10207000CF93DF931F92CDB7DEB7FC0184859585A2
:1020800097FD05C02FEF3FEF358724870BC0CE01AA
:1020900001960E94D91B019719F4898190E002C032
:1020A0008FEF9FEF0F90DF91CF9108950F931F93C4
:1020B000CF93DF931F92CDB7DEB78C01FC018485EF
:1020C000958597FF0EC0CE0101960E94D91B0197FE
:1020D00019F4298130E002C02FEF3FEFF801358776
:1020E0002487F801848595850F90DF91CF911F910A
:1020F0000F910895FC0111821082138212821582C1
:1021000014826115710551F0FB0101900020E9F77F
:102110003197AF01461B570B0C94EB1508951F9296
:102120000F920FB60F9211248F939F938091E1002D
:102130009091E100937F9093E10083FF0FC0109294
:10214000E90091E09093EB001092EC0092E3909301
:10215000ED0010922C0598E09093F00082FF20C0D3
:1021600093E09093E9009091F200992319F09AE39B
:102170009093E80090914304992339F0909143049F
:10218000915090934304992389F190912B059923C1
:1021900039F090912B05915090932B05992341F1A3
:1021A00084FF10C08091E2008E7E81608093E20007
:1021B0008091E1008F7E8093E100809145048E7EC6
:1021C000806111C080FF16C08091E2008E7E806128
:1021D0008093E2008091E1008E7E8093E100809107
:1021E00045048E7E81608093450404C05D9ACDCF06
:1021F000289AD6CF9F918F910F900FBE0F901F906E
:102200001895BF92CF92DF92EF92FF920F931F9398
:10221000CF93DF936C018B01EB019BEFB92E2097DD
:10222000C1F07E01C134D1051CF080E4E82EF12C10
:102230008091E80082FFFCCFC8018C1B9D0B6E2DA6
:102240008C0D9D1D0E94C50FB092E800CE19DF09CC
:10225000E6CFC801DF91CF911F910F91FF90EF90D2
:10226000DF90CF90BF900895DF92EF92FF920F938F
:102270001F93CF93DF93D82E8A017B01E40EF51EC6
:10228000EB01CE15DF0571F0D7FE03C0FE0184918E
:1022900001C088810E945A0F21968111F2CF8FEFE1
:1022A0009FEF01C0C801DF91CF911F910F91FF9067
:1022B000EF90DF9008958F929F92AF92BF92CF924E
:1022C000DF92EF92FF920F931F93CF93DF9300D093
:1022D0001F92CDB7DEB7382F8B0180912C0581116D
:1022E00003C08FEF9FEF7DC08091450480FF05C044
:1022F0008091E00082608093E0004A018AEFF82E2E
:10230000832F8770E82E9FE3C92E832F8072B82E0B
:102310002AE3D22E832F8074A82E8114910409F40D
:1023200057C08FB7F894E092E9009091E80095FFCC
:1023300005C09091F2002C2D291B01C020E08FBF19
:10234000211110C0FA94FF2061F261E070E080E09A
:1023500090E039834A835B830E94351939814A8131
:102360005B81DBCF822F90E0881699060CF4282D34
:102370006FB7F894E092E9008091E80085FF26C0ED
:10238000822F90E0881A990ABB2029F02150A8F0EA
:102390001092F100FBCFF80137FF07C0215058F031
:1023A00074917093F1003196F9CF215020F0719122
:1023B0007093F100FACF080F191F8091E80085FF94
:1023C0000DC08114910411F4A11008C06FBFA5CFF6
:1023D0005D9884E680934304CA0103C0D092E8006C
:1023E000F5CF0F900F900F90DF91CF911F910F912C
:1023F000FF90EF90DF90CF90BF90AF909F908F9025
:102400000895CF93DF93EC0180911201882331F07E
:1024100083E00E945B111816190634F081E090E009
:102420009B838A8380E090E0DF91CF910895CF93E2
:10243000DF93FC01DB01C281D381209719F4738300
:10244000628308C088859985009711F0EC01FACF66
:10245000B987A887808112968C93129781811396F1
:102460008C931397908115968C911597890F808383
:1024700080E014969C9114978917A0F49181C92F3C
:10248000D0E0AE0140505F4F16962D913C911797CA
:10249000280F311DE9012881EA0128839F5F91837C
:1024A0008F5FE7CF81E0DF91CF910895809136046F
:1024B00081110DC082E08093320484E08093330464
:1024C000109235041092340481E08093360482E344
:1024D00094E008950F931F93CF93DF931F92CDB78E
:1024E000DEB782E0898342E450E066EF70E080E886
:1024F0000E9434110E945612DC0112960D911C911B
:1025000013970115110569F0D801ED91FC91028036
:10251000F381E02DBE016F5F7F4FC801099597FFE2
:1025200007C089810F90DF91CF911F910F9108957E
:10253000F80100851185E5CF1F920F920FB60F921B
:102540001124CF92DF92EF92FF920F931F932F935C
:102550003F934F935F936F937F938F939F93AF932B
:10256000BF93EF93FF93CF93DF93CDB7DEB76C9715
:10257000DEBFCDBF1092E9008091E80083FFF4C177
:1025800068E0CE0145960E94C50F82EF8093E80077
:102590008D8987FF05C09091E80090FFFCCF03C0B4
:1025A0009EEF9093E800982F907609F0C6C09E8920
:1025B0002F89188D91110CC0803829F48091460420
:1025C0008093F10002C01092F1001092F10041C11D
:1025D000422F50E0512B913051F481113AC14130DA
:1025E000510509F036C1809146048D7F0BC09330B0
:1025F00061F481112EC14130510509F02AC1809149
:10260000460482608093460424C1953041F4809151
:10261000E80080FFFCCF20682093E3001AC19630C9
:1026200009F05FC0EB8CFC8C1092E9001092420420
:1026300010924104123091F51092400410923F0420
:102640000E946A1299E0BE016F5F7F4FDB01E92FA4
:102650001D92EA95E9F799831A8391E09E8390EAA7
:1026600098879AEF99872091410430914204275F1F
:102670003F4F3C832B838D831092E90010924204DC
:1026800010924104F0924004E0923F0449E050E08F
:1026900080E00E9434110E946A12DBC0F092400474
:1026A000E0923F040E945612DC011296ED90FC90DD
:1026B0001397E114F10409F4BAC0D701ED91FC912C
:1026C0000480F581E02DBE016B5E7F4FC701099547
:1026D000009719F00CF0BDC0C0C0F701E084F18490
:1026E000E8CF973009F4B9C0983021F481E08093A5
:1026F000F100AFC0993009F0ACC0837009F0ADC0F3
:10270000E1E0F1E081E021E036E39081992361F09E
:102710008093E9002093EB0091919093EC0030932B
:10272000ED008F5F873089F78EE78093EA00109283
:10273000EA008F8980932C058CC08B8D9C8D109224
:10274000E900109242041092410490934004809357
:102750003F04898D811150C08E899D89913A59F429
:10276000813209F07AC047E050E06BE071E080E030
:102770000E9434116EC0913209F06FC0833289F427
:10278000888D90E0982F88272F89822BA0E0B0E0D9
:102790008093070190930801A0930901B0930A0167
:1027A00058C0803239F467E070E08BE091E00E941D
:1027B000011106C0823209F04CC08F89809312014A
:1027C00080914404882319F0EEEFFAE002C0E0E0C3
:1027D000F8E080910B0190910C01A0910D01B09156
:1027E0000E01803B9440A105B10509F088C080919D
:1027F000120180FFA0C083C00E945612DC01129615
:102800000D911C9113970115110539F1D801ED9126
:10281000FC910190F081E02DBE016B5E7F4FC801FD
:102820000995811116C0F80100851185ECCF113092
:10283000C1F0133091F48F89882309F455C0823098
:10284000E9F440E860E188E491E00E94880F882381
:1028500021F08EEF8093E80087C081E28093EB0047
:1028600083C08B8D9C8D089711F410933E0480914A
:102870003E04811136C069E571E038C0813029F429
:1028800040E86BE08CE391E0E0CF833031F70E94C9
:102890005612DC011296ED90FC9013978E010F5F9B
:1028A0001F4F6801E114F10479F0D701ED91FC911B
:1028B0000680F781E02DB801C7010995080F111DA9
:1028C000F701E084F184EECFD8011C92F60101906B
:1028D0000020E9F73197BF016C197D0940E0C6017E
:1028E000B4CF6BE671E002C068E371E06115710579
:1028F00009F4B3CFFB01449150E080E839CF0FB623
:10290000F894A8958091600088618093600010928F
:1029100060000FBEA895EE3F2AE0F20739F08091E3
:10292000FE0A9091FF0A9183808393CF1092FF0A51
:102930001092FE0A8ECFEE3F8AE0F80731F08081D8
:1029400091819093FF0A8093FE0A87E797E791832E
:1029500080839BE088E10FB6F894A895809360008F
:102960000FBE9093600075CF6C960FB6F894DEBFE3
:102970000FBECDBFDF91CF91FF91EF91BF91AF918E
:102980009F918F917F916F915F914F913F912F9187
:102990001F910F91FF90EF90DF90CF900F900FBE9F
:1029A0000F901F90189590E0FC013197EF30F105E2
:1029B000B0F5EA5AFF4F0C94F120809180008F7798
:1029C00003C0809180008F7D809380000895809166
:1029D0008000877FF9CF84B58F7702C084B58F7D63
:1029E00084BD0895809190008F7707C080919000FA
:1029F0008F7D03C080919000877F80939000089521
:102A00008091C0008F7703C08091C0008F7D80933C
:102A1000C00008958091C200877F8093C20008950E
:102A20001F93CF93DF93282F30E0F901E753FE4F38
:102A30008491F901E655FE4FD491F901E557FE4F17
:102A4000C491CC23C9F0162F81110E94D314EC2F0E
:102A5000F0E0EE0FFF1FE851FF4FA591B4918FB743
:102A6000F894111105C09C91ED2FE095E92302C067
:102A7000EC91ED2BEC938FBFDF91CF911F910895D7
:102A80000E94EE220F931F93CF93DF93EC01888176
:102A90009981009729F02A813B812617370788F40E
:102AA0008B016F5F7F4F0E942422009761F0998312
:102AB00088831B830A832C813D81232B11F4FC0125
:102AC000108281E001C080E0DF91CF911F910F91D2
:102AD0000895FC0180819181009711F00C942523C9
:102AE00060E070E0CB010895FB0144815581FC0159
:102AF000248135812417350778F0808191810097F2
:102B000059F0FB01608171816115710529F00E9406
:102B1000172321E0892B09F020E0822F0895FC0182
:102B200024813581232B31F421E061157105A1F059
:102B3000FB0108C0FC01808191816115710531F4B0
:102B400021E0FC018081882339F005C00E94072321
:102B500021E0892B09F020E0822F08950F931F9325
:102B6000CF93DF938C01EB018617970771F1FC017E
:102B7000808191810097B1F068817981611571053B
:102B800079F0428153812C813D814217530740F0F7
:102B90000E9410238C819D81F8019583848313C04A
:102BA0000E948C2188819981F801918380838A8198
:102BB0009B81938382838C819D81958384831982F9
:102BC00018821B821A821D821C82C801DF91CF915C
:102BD0001F910F910895EF92FF920F931F93CF9340
:102BE000DF93EC017B018A01BA010E944215288122
:102BF000398181110DC02115310519F0C9010E94DB
:102C00008C21198218821D821C821B821A8206C0A6
:102C10001D830C83B701C9010E941023CE01DF91EF
:102C2000CF911F910F91FF90EF900895CF93DF9375
:102C3000EC016115710559F0FB0101900020E9F7E5
:102C40003197AF01461B570B0E94EB150CC08881D2
:102C50009981009711F00E948C21198218821D829F
:102C60001C821B821A82CE01DF91CF910895BF9200
:102C7000CF92DF92EF92FF920F931F93CF93DF9348
:102C80007C016B018A01E9012417350720F4812FAB
:102C90008901C42FD82F6AE174E0C7010E947A101D
:102CA000D60114968D919C91159708171907D0F4A9
:102CB0008C179D0708F4EC01D601ED91FC9111975A
:102CC000EC0FFD1FB08010824D915C91BA01600F36
:102CD000711FC7010E941616D601ED91FC91EC0FF1
:102CE000FD1FB082C701DF91CF911F910F91FF901F
:102CF000EF90DF90CF90BF900895FC01808191818B
:102D00000C948C21FB01DC0111961C921E921396EF
:102D10001C921E92129715961C921E92149786175B
:102D2000970749F0608171816115710521F0448137
:102D300055810C94EB1508953FB7F89480912705C1
:102D400090912805A0912905B0912A0526B5A89B48
:102D500005C02F3F19F00196A11DB11D3FBFBA2F2D
:102D6000A92F982F8827820F911DA11DB11DBC018D
:102D7000CD0142E0660F771F881F991F4A95D1F752
:102D80000895FC0134969C01245F3F4F80E090E061
:102D90004081411101961192E217F307C9F7089596
:102DA000FC0120E2260F2830F0F0DC01169620E02E
:102DB00030E08D91442349F0861304C0E20FF31FE5
:102DC000668326C0811107C0F9CF861304C0E20FC5
:102DD000F31F16821DC02F5F3F4F2630310549F784
:102DE00080E090E008953481442349F081E090E050
:102DF00001C0880F2A95EAF7832B848309C041E03C
:102E000050E001C0440F2A95EAF7409543234483DC
:102E100081E090E00895FC0134969C012D5E3F4FC7
:102E200080E090E0608160FD0196462F50E055956E
:102E30004795642F452BB9F71192E217F30791F7E5
:102E40000895FC016836B8F4862F877021E030E0E1
:102E500001C0220F8A95EAF7669566956695E60F9A
:102E6000F11D442319F08581282B03C020959581FD
:102E70002923258326C050E2560F5830B0F46481D0
:102E8000442349F021E030E001C0220F5A95EAF7CF
:102E9000262B248316C081E090E001C0880F5A954C
:102EA000EAF78095862384830CC08289442331F01D
:102EB000861711F0811108C0628B03C0861304C00D
:102EC000128A81E090E0089580E090E00895DC01AE
:102ED000FB0112968C91129790E024813581821724
:102EE0009307D1F491818081813A31F481E091306E
:102EF00091F0933089F411C0813271F49B3021F448
:102F000082811F968C9305C09A3031F4828150964D
:102F10008C9381E00895089580E00895DC01FB0121
:102F200088E4808389E4818384E482831D969C9174
:102F30001D979F709F5B93831D968D919C911E970B
:102F400024E0969587952A95E1F78F708F5B8483AF
:102F500085E00895FC0182818F5BFB01808381E025
:102F60000895CF93DF93EC01FB018A8190E02481E7
:102F700035818217930709F04AC081819081913A87
:102F800069F4813009F441C0833011F48F8903C0A2
:102F90008230E9F5888D8093F10037C09132B9F520
:102FA0008B3019F482818F8B30C08A3019F4828182
:102FB000888F2BC0893059F5668177818381833072
:102FC00079F48C8D9D8D6817790709F58A8D9B8D15
:102FD0000E9401118C8D9D8D90689D8F8C8F15C0E6
:102FE000823041F46130710591F461E070E0CE010E
:102FF000499609C0813059F46830710541F468E0A0
:1030000070E0CE010E960E94011181E001C080E0C7
:10301000DF91CF910895FB0120812138B9F42381FC
:103020002232A1F4DC0112962C91129730E04481F7
:1030300055814217530751F421E057962C9345E4EC
:1030400050E068EE71E080E80C94341180E090E08C
:103050000895CF93DF93CDB7DEB769970FB6F89495
:10306000DEBF0FBECDBFFC01DB019C919F5F9C9337
:10307000BE016F5F7F4F89E1DB011D928A95E9F701
:1030800029E0298384E08A8391E09D8383E08E8315
:103090009F8398872A8721E22B879C879D879F871C
:1030A00022E2288B25E4298B27E02B8B25E02C8B33
:1030B0008E8B20E430E0388F2F8B998F82818B8329
:1030C000838180688D8B49E150E080E00E9434115B
:1030D00069960FB6F894DEBF0FBECDBFDF91CF91DA
:1030E0000895EF92FF920F931F93CF93DF93FB010D
:1030F0002081213851F52381223239F5DC011296E5
:103100002C9130E04481558142175307F1F4EC01D2
:103110000B851C85E12CF12C0115110591F0F801AE
:10312000448155816281738180E80E9434118F3F10
:10313000FFEF9F0769F0E80EF91ED8010D911C9171
:10314000EBCF81E08F87C70105C080E090E002C02F
:103150008FEF9FEFDF91CF911F910F91FF90EF9035
:103160000895CF93DF93CDB7DEB769970FB6F89484
:10317000DEBF0FBECDBFFC01DB018C918F5F8C9356
:10318000BE016F5F7F4F89E1DB011D928A95E9F7F0
:1031900029E0298384E08A8391E09D8383E08E8304
:1031A0002A8721E22B879C879D879F8722E2288B95
:1031B00027E02B8B25E02C8B8E8B20E430E0388FA2
:1031C0002F8B998F82818B8395858685998B8A8BAE
:1031D000838180688D8B49E150E080E00E9434114A
:1031E00069960FB6F894DEBF0FBECDBFDF91CF91C9
:1031F0000895CF93DF9390E0FC01E655FE4F2491B4
:10320000FC01E557FE4F8491882361F190E0880F1F
:10321000991FFC01E35DFD4FC591D491FC01E8517C
:10322000FF4FA591B491611109C09FB7F8948881AF
:10323000209582238883EC912E230BC0623061F4A9
:103240009FB7F8943881822F809583238883EC91EF
:103250002E2B2C939FBF06C08FB7F894E8812E2B9E
:1032600028838FBFDF91CF9108958F929F92AF9265
:10327000BF92CF92DF92EF92FF926B017C010E948E
:103280009C164B015C01C114D104E104F104F1F07E
:103290000E949C16DC01CB0188199909AA09BB0977
:1032A000883E9340A105B10570F321E0C21AD10810
:1032B000E108F10888EE880E83E0981EA11CB11C7D
:1032C000C114D104E104F10419F7DDCFFF90EF90B0
:1032D000DF90CF90BF90AF909F908F9008951F92F6
:1032E0000F920FB60F9211242F933F938F939F93BA
:1032F000AF93BF938091470490914804A0914904F3
:10330000B0914A043091260523E0230F2D3720F495
:103310000196A11DB11D05C026E8230F0296A11D2F
:10332000B11D209326058093470490934804A093F1
:103330004904B0934A048091270590912805A091F3
:103340002905B0912A050196A11DB11D809327057D
:1033500090932805A0932905B0932A05BF91AF91BA
:103360009F918F913F912F910F900FBE0F901F90C3
:103370001895AF92BF92CF92DF92EF92FF920F9388
:103380001F93CF93DF931F92CDB7DEB77C01698384
:103390006A01590141E050E0BE016F5F7F4FFC01BF
:1033A00083810E945B118C0197FD0BC0F701838123
:1033B000A501B60180640E945B1197FD02C0800FD9
:1033C000911F0F90DF91CF911F910F91FF90EF9080
:1033D000DF90CF90BF90AF900895FC01A385B48596
:1033E000109719F47487638709C08D919C91119788
:1033F000009711F0DC01F9CF6D937C93258536851C
:10340000DB0114968D919C911597820F931F9687DF
:103410008587089580911E05811137C081E08093D2
:1034200011058093120527E135E0309314052093B0
:103430001305109216051092150525E331E030931F
:103440000E0520930D051092190510921805109283
:103450001B0510921A0580931C0580931D0581ECB5
:10346000809317050E945612FC014181209111059D
:1034700030E0240F311D2830310524F46DE075E073
:103480000E94171281E080931E058DE095E008955B
:10349000CF93DF93EC010E940A1AAE014C5F5F4F9D
:1034A0002FE030E068E0DF91CF910C94B9190F93D1
:1034B0001F93CF93DF93EB018A010E940A1A9801B0
:1034C000AE0161E0DF91CF911F910F910C94B9197A
:1034D0000F931F93CF93DF931F92CDB7DEB78C016D
:1034E00069830E9461236981681741F0C8010F90C8
:1034F000DF91CF911F910F910C9469230F90DF9171
:10350000CF911F910F9108950C946123EF92FF9238
:103510000F931F93CF93DF93C82F880FDD0BCE013E
:103520008D589B4F7C01DC011C911150C431D10599
:1035300094F4133080F4CE0123E0880F991F2A956C
:10354000E1F7810F911D810F911D835B9C4F0E94BC
:10355000841A082F01C000E0612FCE010E943B0BAE
:10356000602F0E94CF0BFE01E55BFB4F8081811134
:1035700005C0D7011C92C15ADB4F18821082DF911F
:10358000CF911F910F91FF90EF900895BC0100978C
:1035900091F0FC0101900020E9F73197AF01481B41
:1035A000590BE0912E05F0912F050280F381E02D5B
:1035B0008EE295E0099480E090E00895CF93DF9348
:1035C00000D0CDB7DEB719821A820E940A1A22E013
:1035D00030E0AE014F5F5F4F65E00E94B9190F9078
:1035E0000F90DF91CF91089580912D05813019F4CE
:1035F0008CE995E002C088E895E00C94470F682FAD
:1036000080912D05813019F48CE995E002C088E89D
:1036100095E00C949C0B682F80912D05813019F456
:103620008CE995E002C088E895E00C94800B0C943E
:10363000C61ACF93DF93FC0124813581232B61F0DF
:10364000C081D18168E270E0CE010E94FC22009727
:1036500019F08C1B9D0B02C08FEF9FEFDF91CF9174
:1036600008958F929F92AF92BF920F931F93CF9323
:10367000DF93CDB7DEB7A1970FB6F894DEBF0FBECC
:10368000CDBF19A2423008F44AE08E010F5D1F4FF2
:10369000842E912CA12CB12CA50194010E94CF2045
:1036A000E62FB901CA0101501109EA3014F4E05DB6
:1036B00001C0E95CD801EC93232B242B252B61F767
:1036C000C8010E94C61AA1960FB6F894DEBF0FBEBD
:1036D000CDBFDF91CF911F910F91BF90AF909F9081
:1036E0008F900895682F70E080E090E04AE00C949D
:1036F000311BCF93DF93682F70E080E090E04AE0C9
:103700000E94311BEC0188E194E00E94C61A8C0FE4
:103710009D1FDF91CF910895CF92DF92EF92FF929C
:10372000CF93DF936B017C01E0912E05F0912F0583
:103730000190F081E02D6DE28EE295E00995EC01BB
:1037400066277727CB016C197D098E099F094AE00E
:103750000E94311B8C0F9D1FDF91CF91FF90EF9046
:10376000DF90CF900895CF93DF93BC01990F880B22
:10377000990B97FF03C00E948C1B03C04AE00E9474
:10378000311BEC0188E194E00E94C61A8C0F9D1F4A
:10379000DF91CF910895CF93DF930E94C61AEC0179
:1037A00088E194E00E94C61A8C0F9D1FDF91CF9193
:1037B0000895FC0180912C05811103C08FEF9FEFCC
:1037C00008959FB7F89482E08093E9002091F20079
:1037D00030E01216130614F421E030E02115310513
:1037E00059F0289884E680932B058091F10080831E
:1037F0008091F200882319F09FBFC90108958BE6DC
:103800008093E800F9CFCF93DF9300D000D0CDB7FD
:10381000DEB7EFEAF5E0928199838A836B834C836C
:103820000190F081E02D0190F081E02D44E050E026
:10383000BE016F5F7F4F8FEA95E009950F900F9063
:103840000F900F90DF91CF9108959091B105892B42
:10385000891739F08093B10540E060E080E00C9476
:10386000031C08959091B10580958923891739F03B
:103870008093B10540E060E080E00C94031C089563
:10388000CF93DF93CDB7DEB729970FB6F894DEBF9D
:103890000FBECDBF789484B5826084BD84B581604D
:1038A00084BD85B5826085BD85B5816085BD80910B
:1038B0006E00816080936E00109281008091810083
:1038C000826080938100809181008160809381007B
:1038D000809180008160809380008091910082605F
:1038E00080939100809191008160809391008091FC
:1038F00090008160809390008091C10084608093EB
:10390000C1008091C10082608093C1008091C1009C
:1039100081608093C1008091C30081608093C30067
:103920008091C00082608093C0008091C20081605D
:103930008093C20080917A00846080937A008091A5
:103940007A00826080937A0080917A00816080930F
:103950007A0080917A00806880937A0010922C051A
:1039600010924604109245048091D70081608093A4
:10397000D70080EA8093D80089B5806189BD89B578
:10398000826089BD09B400FEFDCF61E070E080E097
:1039900090E00E9435198091D8008F7C80618093DF
:1039A000D8008091E000807F8093E0008091E1006A
:1039B0008E7E8093E1008DE08093E200559A209AFC
:1039C000EEEFFFE7859194918B3F9C4D19F481E0D8
:1039D000809344040E94F41A8FEF9FEF90933B056D
:1039E00080933A058EEF93E00E94841A182F8091FD
:1039F0002D05813019F48CE995E002C088E895E046
:103A00000E94A60C10932D050E94F41A4BE454E07A
:103A10008FE594E0E3E7F4E01192DC011D92CD0123
:103A2000DA011D92AD01B4E0E738FB07A9F70FE119
:103A300011E0F801F0800E5F1F4F60E08F2D0E94B3
:103A4000F91861E08F2D0E941015F1E009321F076F
:103A500081F709E211E0D801FC900E5F1F4F60E092
:103A60008F2D0E94F91860E08F2D0E941015B1E093
:103A700001331B0781F7E4EEF4E0A7E8B4E085E04A
:103A800090E011961C921E92118210821B961C923D
:103A90001E921A971386128655961C921E92549760
:103AA000158A148A5F961C921E925E97178E168E48
:103AB000019712963296009721F76CE271E080E050
:103AC00090E00E9435192FB7F894809147049091A7
:103AD0004804A0914904B0914A042FBF8093B704D1
:103AE0009093B804A093B904B093BA044091B3047E
:103AF0005091B4046091B5047091B6048C019D019D
:103B0000041B150B260B370B05301105210531055C
:103B100060F08093B3049093B404A093B504B09381
:103B2000B60481E080930C0502C010920C058EE271
:103B300095E00E941E10181619060CF04AC08EE27D
:103B400095E00E943810803219F189831A82009121
:103B5000B6051091B7050F5F1F4FB80182EB95E0D6
:103B60000E944215882341F12091B2053091B3059E
:103B70008091B6059091B705BE016F5F7F4F820FB0
:103B8000931F0E9410231093B7050093B60514C02D
:103B900062EB75E0CE0101960E948216CE0101967D
:103BA0000E94A001CE0101960E947D166AE174E098
:103BB00082EB95E00E9416168091B6059091B705AC
:103BC0008536910530F06AE174E082EB95E00E9461
:103BD000161680910C05882309F4DFC00091B1040A
:103BE0001091B2048FEF93E00E94841A90E0801746
:103BF00091070CF4EFC12091AF043091B00482170B
:103C000093070CF4E7C107E814E0E9E2EE2EE1E0E7
:103C1000FE2ED7019C90B2E0EB0EF11C61E0892DE5
:103C20000E94F918A12CB12C7FE1C72E71E0D72E8C
:103C3000F601219131916F013327F901E753FE4FCE
:103C40008491F901E655FE4F7490F901E557FE4F56
:103C500084908820A1F081110E94D314E82DF0E017
:103C6000EE0FFF1FE358FE4FA591B491EC917E2219
:103C700031E020E009F430E0832F922F02C080E091
:103C800090E0F801EA0DFB1D21E0822791838083FB
:103C900032E0A30EB11C8AE0A816B10409F0C8CF27
:103CA00060E0892D0E94F918065F1F4F94E00F3ADB
:103CB000190709F0AECF3CEB832E34E0932E44EE8F
:103CC000A42E44E0B42E57E8452E54E0552E00E0D3
:103CD00010E0C12CD12CE12CF12C95012C0D3D1DB7
:103CE00038872F8312012C0C3D1CD1018D919C91A2
:103CF000F901208131812817390771F1F401EC0DA8
:103D0000FD1D0197B9F46090AF047090B00471820A
:103D10006082A301B801C7010E944F0B282FA301A5
:103D2000B801C70129870E94620B2985622F0E9472
:103D3000C10C12C060807180A301B801C7010E944C
:103D40004F0B282FA301B801C70129870E94620BDE
:103D50002985622F0E94CF0BD1018D919C91EF811B
:103D6000F88591838083FFEFEF1AFF0A2AE0C20EE5
:103D7000D11C38E2C316D10409F0AFCF0F5F1F4F3B
:103D800082E0480E511C92E0A90EB11CA2E08A0EFE
:103D9000911C0530110509F09CCF00911301109181
:103DA000140161E085E00E94F9180115110511F474
:103DB00060E004C00F3F110529F461E085E00E9436
:103DC00010157CC0EEECF1E0E4918E2F90E0FC0148
:103DD0003197EF30F10508F06CC0EB59FF4F0C94B0
:103DE000F12084B5806884BD07BD68C084B5806259
:103DF00084BD08BD63C0809180008068809380008E
:103E0000109389000093880059C0809180008062DF
:103E10008093800010938B0000938A004FC08091A4
:103E2000800088608093800010938D0000938C0048
:103E300045C0809190008068809390001093990015
:103E4000009398003BC08091900080628093900026
:103E500010939B0000939A0031C08091900088607D
:103E60008093900010939D0000939C0027C0809148
:103E7000C00080688093C0008091C0008F7B8093D9
:103E8000C0000093CF001AC08091C0008062809370
:103E9000C0000093D00012C08091C200886080935F
:103EA000C2008091C2008B7F8093C2000093D20039
:103EB00005C0003811050CF080CF7ACF80910C0539
:103EC000811105C080910C0581114FC07BC080918C
:103ED00015018823B9F38FE5C82E84E0D82E93E727
:103EE000892E94E0992E2CE4A22E23E0B22EE12C10
:103EF000F12CF40111914F01112349F1D6018C915C
:103F0000882319F081508C9322C01150133050F443
:103F1000C501810F911D810F911D01960E94841A88
:103F2000082F01C000E0612FC7010E943B0B602FEA
:103F30000E94C10CF701E55BFB4F8081811107C036
:103F400080911501882319F08E2D0E94861ABFEFEB
:103F5000EB1AFB0AEFEFCE1ADE0AF8E0AF0EB11C47
:103F600004E1E016F10429F6ADCF80911801803804
:103F7000A1F480911701803881F480911601803876
:103F800061F48091BB048823E9F01092BB04109285
:103F9000B10540E060E080E013C01092B10540E060
:103FA00060E080E00E94031C81E08093BB044091AC
:103FB000160140586091170160588091180180588F
:103FC0000E94031C80E090E0892B09F47CCD0E94C4
:103FD000000079CD1092B2041092B1041092B00496
:103FE0001092AF0410CEBC01625F7F4FFC01838151
:103FF00048E050E080640C945B110A970C94F31F26
:1040000082EB95E00C947D161092310510923005EC
:1040100088EE93E0A0E0B0E0809332059093330502
:10402000A0933405B093350581E491E090932F057A
:1040300080932E058FEF9FEF90933B0580933A0579
:1040400081E0809382058093830524E935E03093F5
:10405000850520938405109287051092860510929D
:104060008B0510928A0521E531E030937F0520937E
:104070007E052FE531E030938905209388058093F4
:1040800095058093960510929705109299051092C8
:10409000980510929B0510929A0581EC80939405E7
:1040A0000E945612FC0141812091820530E0240FCC
:1040B000311D2830310524F46EE775E00E94171297
:1040C00010929F0510929E0589E791E090939D05BF
:1040D00080939C058091BF05811113C01092BA0591
:1040E0001092B9058BE392E09093BC058093BB05D9
:1040F00086E390E09093BE058093BD0581E08093B8
:10410000BF050E940A1A69EB75E00E94ED19109232
:10411000B10587E891E09093B0058093AF05809159
:10412000CD05811113C01092C8051092C70581E713
:1041300092E09093CA058093C9058BE290E090933A
:10414000CC058093CB0581E08093CD050E940A1AAF
:1041500067EC75E00E94ED196AE174E082EB95E08E
:104160000E947A108091DB05811113C01092D60550
:104170001092D5058CE992E09093D8058093D705ED
:104180008BE490E09093DA058093D90581E08093E9
:10419000DB050E940A1A65ED75E00C94ED19A1E2A9
:1041A0001A2EAA1BBB1BFD010DC0AA1FBB1FEE1FB1
:1041B000FF1FA217B307E407F50720F0A21BB30BFC
:1041C000E40BF50B661F771F881F991F1A9469F778
:1041D00060957095809590959B01AC01BD01CF01D4
:1041E0000895EE0FFF1F0590F491E02D0994CF93F1
:1041F000DF938230910510F482E090E0E091E505D4
:10420000F091E60520E030E0C0E0D0E0309711F119
:104210004081518148175907C0F04817590761F488
:1042200082819381209719F09B838A832BC090937E
:10423000E6058093E50526C02115310519F04217E2
:10424000530718F49A01BE01DF01EF010280F381E8
:10425000E02DDCCF2115310509F1281B390B243065
:10426000310590F412968D919C911397611571050B
:1042700021F0FB019383828304C09093E605809331
:10428000E505FD01329644C0FD01E20FF31F819365
:104290009193225031092D933C933AC02091E3052C
:1042A0003091E405232B41F420911B0130911C0136
:1042B0003093E4052093E3052091190130911A0110
:1042C0002115310541F42DB73EB740911D015091A4
:1042D0001E01241B350BE091E305F091E405E21784
:1042E000F307A0F42E1B3F0B2817390778F0AC0119
:1042F0004E5F5F4F2417350748F04E0F5F1F5093F6
:10430000E4054093E3058193919302C0E0E0F0E07F
:10431000CF01DF91CF9108950F931F93CF93DF9338
:10432000009709F48CC0FC0132971382128200912D
:10433000E5051091E6050115110581F42081318113
:10434000820F931F2091E3053091E4052817390768
:1043500079F5F093E405E093E30571C0D80140E0FE
:1043600050E0AE17BF0750F412962D913C91139771
:10437000AD012115310509F1D901F3CF9D01DA0114
:104380003383228360817181860F971F8217930781
:1043900069F4EC0128813981260F371F2E5F3F4FCA
:1043A000318320838A819B8193838283452B29F4E7
:1043B000F093E605E093E50542C01396FC93EE9377
:1043C0001297ED01499159919E01240F351FE21773
:1043D000F30771F480819181840F951F02961196E5
:1043E0009C938E938281938113969C938E931297C4
:1043F000E0E0F0E0D80112968D919C911397009720
:1044000019F0F8018C01F6CF8D919C9198012E5FE7
:104410003F4F820F931F2091E3053091E405281749
:10442000390769F4309729F41092E6051092E505F2
:1044300002C0138212821093E4050093E305DF911A
:10444000CF911F910F910895A0E0B0E0EAE2F2E26F
:104450000C947B23EC01009721F4CB010E94F72000
:10446000B8C0FC01E60FF71F9C0122503109E2178A
:10447000F30708F4ACC0D9010D911C9111970617F0
:104480001707B0F00530110508F49FC0C801049764
:104490008617970708F499C002501109061B170BDD
:1044A000019311936D937C93CF010E948C218DC059
:1044B0005B01A01AB10A4C01800E911EA091E50586
:1044C000B091E60540E050E0E12CF12C109709F4A2
:1044D0004AC0A815B905D1F56D907C90119763017C
:1044E00082E0C80ED11CCA14DB0480F1A3014A1972
:1044F0005B096A0182E0C80ED11C1296BC9012972B
:104500001396AC91B5E0CB16D10440F0B282A383F0
:1045100051834083D9016D937C930AC00E5F1F4F76
:10452000C301800F911FF90191838083EB2DFA2F36
:10453000E114F10431F0D7011396FC93EE93129736
:1045400044C0F093E605E093E5053FC08D919C9152
:1045500011974817590708F4AC017D0112960D9088
:10456000BC91A02DB3CF8091E3059091E40588150F
:104570009905E1F446175707C8F480911901909105
:104580001A01009741F48DB79EB740911D015091DB
:104590001E01841B950BE817F907C8F4F093E40596
:1045A000E093E305F901718360830FC0CB010E94A2
:1045B000F7207C01009759F0A801BE010E94F32268
:1045C000CE010E948C21C70104C0CE0102C080E050
:1045D00090E0CDB7DEB7EEE00C94972381E090E059
:1045E000F8940C94AE23FB01DC0102C001900D9203
:1045F00041505040D8F70895FC018191861721F071
:104600008823D9F7992708953197CF010895FB01A1
:10461000DC018D91019080190110D9F3990B089557
:10462000FB01DC0101900D920020E1F70895FB01F0
:10463000DC014150504030F08D910190801919F407
:104640000020B9F7881B990B08951F93FC01992747
:104650008827BC01E89411911032E9F3193010F069
:104660001E30C8F31B3251F01D3249F4689406C065
:104670000E944C23610F711D811D911D11911053DA
:104680001A30B0F33EF490958095709561957F4F08
:104690008F4F9F4F1F910895592F482F372F262F47
:1046A000660F771F881F991F660F771F881F991F36
:1046B000620F731F841F951F660F771F881F991F36
:1046C0000895F999FECF92BD81BDF89A992780B5DA
:1046D0000895262FF999FECF1FBA92BD81BD20BD46
:1046E0000FB6F894FA9AF99A0FBE019608952F9290
:1046F0003F924F925F926F927F928F929F92AF9272
:10470000BF92CF92DF92EF92FF920F931F93CF93BE
:10471000DF93CDB7DEB7CA1BDB0B0FB6F894DEBF55
:104720000FBECDBF09942A88398848885F846E847B
:104730007D848C849B84AA84B984C884DF80EE80C5
:10474000FD800C811B81AA81B981CE0FD11D0FB6CE
:10475000F894DEBF0FBECDBFED01089511E0C5E7AF
:10476000D1E004C0FE010E94F1202196C637D10796
:06477000C9F7F894FFCF29
:1047760000C18081000000FFFFFFFF00E100000094
:104786000000003200018080800000E705800010F4
:10479600000E000F001200130009000800070006B3
:1047A60000000000006717B11871188E170000008E
:1047B60000FD0F01121E10381056101310000000D5
:1047C60000B11729180B18AA17F31FF6FF0000B837
:1047D6000BD20FC116FD1FD0160000000040154079
:1047E600154015AA1700000000B80BD20F0B17488A
:1047F6001A211700000000571A756E697175656BEE
:10480600726571696E666F00444550524543494171
:1048160054454400756E697175656B7265716E619C
:104826006D650046656C697800756E697175656BB6
:1048360072657176617269616E740046656C69783D
:1048460020747970655A45524F00756E69717565A9
:104856006B72657164726976657200416E696D7519
:104866007320496E6E6F766120322E352E310075BB
:104876006E697175656B7265716275696C64004607
:10488600656C6978204F454D00756E697175656B6D
:104896007365746B657900736574206B65792800A0
:1048A600756E697175656B736574656570726F6D2C
:1048B6000073657420454550524F4D2800756E694A
:1048C6007175656B7365746C617900736574206CC2
:1048D6006179657220636F756E7428006572726FF8
:1048E600723A20696E73756666696369656E7420CF
:1048F600454550524F4D00756E697175656B67651C
:10490600746C617900756E697175656B6765746540
:104916006570726F6D00756E697175656B6765742C
:104926006B65790072657475726E206B6579280007
:10493600756E697175656B676574726F7700756EF4
:10494600697175656B676574636F6C00756E697107
:1049560075656B7365746D617374657200736574E8
:10496600206D61737465722800756E697175656B6B
:104976007365746E6B726F00736574204E4B524F85
:10498600206D6F646528006572726F723A20696ED9
:1049960076616C6964204E4B524F206F7074696F5C
:1049A6006E00756E697175656B6765746E6B726F97
:1049B60000756E697175656B6765746D6F647300FC
:1049C600676574206D6F647328006D6564696100A6
:1049D600756E697175656B7365746D6163726F0071
:1049E600736574206D6163726F2800737469636BFD
:1049F600794B65797300426C656450574D00756E4E
:104A0600697175656B7365746272696768746E65E2
:104A1600737300736574206272696768746E657378
:104A260073282900756E697175656B6765746272A6
:104A3600696768746E65737300676574206272696E
:104A46006768746E6573732829006475616C526FAC
:104A56006C65730074617044616E636500756E69A0
:104A66007175656B73657474617064616E636500FE
:104A76007365742074617064616E636528006D6F80
:0C4A86007573654B657973000D0A000024
:00000001FF
