:100000000C9476010C949E010C949E010C949E011C
:100010000C949E010C949E010C949E010C949E01E4
:100020000C949E010C949E010C9481140C948E16D9
:100030000C949E010C949E010C949E010C949E01C4
:100040000C949E010C949E010C949E010C949E01B4
:100050000C949E010C949E010C949E010C94FF1B29
:100060000C949E010C949E010C949E010C949E0194
:100070000C949E010C949E010C949E010C949E0184
:100080000C949E010C949E010C949E010C949E0174
:100090000C94491C0C949E010C949E010C949E019E
:1000A0000C949E010C949E010C949E01FC2301244F
:1000B000062410241A2464246424642424242E2472
:1000C000382442244F2464245724DD18E018CF1824
:1000D000D318D918011901190119E418E818EC18F6
:1000E000F218F6180119FC18000000002300260081
:1000F00029002C002F000404040404030405020258
:1001000002020403020202020606060606060404B0
:100110000202020404040802011040804010204042
:1001200080408008020401804020100201108010ED
:10013000204040200000000200090F0000030401DD
:10014000000C0000000000000000000000000000A3
:1001500000000000000000250028002B002E0031C8
:1001600000080B0002020201000904000001020263
:1001700000000524001001052401010104240206E9
:100180000524060001070581031000400904010051
:10019000020A000000070502024000000705830272
:1001A0004000000403090441726475696E6F204CBD
:1001B0004C430041726475696E6F204C656F6E61CF
:1001C00072646F001201000200000040412336807B
:1001D00000010102030112010002EF02014041236C
:1001E000368000010102030105010906A10105078E
:1001F00019E029E715002501750195088102050C14
:1002000095017508150026FF00190029FF810005DA
:1002100008190129089508750191020507950675C9
:1002200008150026E700190029E78100C00000003A
:1002300000240027002A002D00300005010906A136
:10024000018508050719E029E715002501750195C5
:10025000088102190029671500250175019568813B
:100260000295017508150026E700190029E78100AD
:10027000C005010902A10185010509190129081517
:100280000025019508750181020501093009310930
:10029000381581257F750895038106C0050C090175
:1002A000A10185051500250109E909EA75019502F5
:1002B000810609E29501810609B09501810609B11F
:1002C0009501810609B79501810609B59501810659
:1002D00009B69501810609B39501810609B4950116
:1002E000810695068107C000D425B12611241FBEC2
:1002F000CFEFDAE0DEBFCDBF14E0A0E0B1E0E2E492
:10030000F3E502C005900D92A83FB107D9F727E0A9
:10031000A8EFB4E001C01D92AF3FB207E1F711E0D2
:10032000C5E7D1E004C02197FE010E94D726C4375B
:10033000D107C9F70E942D210C9494290C94000038
:100340003F924F925F926F927F928F929F92AF9265
:10035000BF92CF92DF92EF92FF920F931F93CF93B2
:10036000DF93CDB7DEB763970FB6F894DEBF0FBE4D
:10037000CDBF8C0161EA71E00E943E12882321F01A
:1003800080EB91E00E94641E6CEB71E0C8010E945A
:100390003E12882321F08BEC91E00E94641E6CEDEC
:1003A00071E0C8010E943E12882321F08BEC91E09D
:1003B0000E94641E6EEE71E0C8010E943E12882306
:1003C00021F08FEF91E00E94641E63E172E0C801AA
:1003D0000E943E12882319F083E292E0ABC167E2EB
:1003E00072E0CE0101960E946C14BE016F5F7F4FD8
:1003F000C8010E942312F82ECE0101960E942C13F0
:10040000FF2009F4F5C0C8010E94321EAC014F5F05
:100410005F4FB801CE0101960E94000EBE016F5FD2
:100420007F4FC8010E945D12CE0101960E942C13DD
:10043000C8010E94321E9C0140E050E0B801CE018C
:1004400001960E94E612CE0101960E941812962E85
:10045000CE0101960E942C13C8010E94321EAC01ED
:100460004F5F5F4FB801CE0101960E94000EBE01A2
:100470006F5F7F4FC8010E945D12CE0101960E94FE
:100480002C13C8010E94321E9C0140E050E0B801CC
:10049000CE0101960E94E612CE0101960E9418122A
:1004A000A62ECE0101960E942C13C8010E94321E76
:1004B000AC014F5F5F4FB801CE0101960E94000E64
:1004C000BE016F5F7F4FC8010E945D12CE01019691
:1004D0000E942C13C8010E94321E9C0140E050E093
:1004E000B801CE0101960E94E612CE0101960E944B
:1004F0001812B62ECE0101960E942C13C8010E943C
:10050000321EAC014F5F5F4FB801CE0101960E94D1
:10051000000EBE016F5F7F4FC8010E945D12CE01C9
:1005200001960E942C13C8010E94321E9C0140E0DB
:1005300050E0B801CE0101960E94E612CE0101966C
:100540000E941812C62ECE0101960E942C13C801DB
:100550000E94321EAC014F5F5F4FB801CE01019681
:100560000E94000EBE016F5F7F4FC8010E945D12A6
:10057000CE0101960E942C13C8010E941812D62E9B
:1005800088E0A89E70011124E90CF11C88E2B89E55
:10059000E00CF11C1124EE0CFF1C6C2DC7010E9415
:1005A000CF206D2DC70101960E94CF2085E392E0F8
:1005B0000E94301E892D0E944A1E89E592E00E9409
:1005C000301E8A2D0E944A1E89E592E00E94301E4C
:1005D0008B2D0E944A1E89E592E00E94301E8C2DD0
:1005E0000E944A1E89E592E00E94301E8D2D66C051
:1005F0006EE372E0CE0101960E946C14BE016F5F43
:100600007F4FC8010E942312F82ECE0101960E944E
:100610002C13FF2009F455C0C8010E94321EAC0102
:100620004F5F5F4FB801CE0101960E94000EBE01E0
:100630006F5F7F4FC8010E945D12CE0101960E943C
:100640002C13C8010E94321E9C0140E050E0B8010A
:10065000CE0101960E94E612CE0101960E94181268
:100660004B015C01CE0101960E942C13C8010E942F
:10067000321EAC014F5F5F4FB801CE0101960E9460
:10068000000EBE016F5F7F4FC8010E945D12CE0158
:1006900001960E942C13C8010E941812F62EC40164
:1006A0000E94CF208FE492E00E94301EC4010E947D
:1006B000D41E89E592E00E94301E8F2D0E94511EAB
:1006C00075C16BE572E0CE0101960E946C14BE010B
:1006D0006F5F7F4FC8010E942312F82ECE01019652
:1006E0000E942C13FF2049F1C8010E94321EAC0168
:1006F0004F5F5F4FB801CE0101960E94000EBE0110
:100700006F5F7F4FC8010E945D12CE0101960E946B
:100710002C13C8010E941812F62E8FE08F1540F09E
:100720006F2D8FEF93E00E94CF2089E692E0C3CF38
:100730008AE792E00E94641E39C165E972E0C8014F
:100740000E943E12882319F08FEF93E02CC063EAD9
:1007500072E0CE0101960E946C14BE016F5F7F4F64
:10076000C8010E942312F82ECE0101960E942C137C
:10077000FF20E1F0C8010E94321EAC014F5F5F4FC5
:10078000B801CE0101960E94000EBE016F5F7F4F3F
:10079000C8010E945D12CE0101960E942C13C8016F
:1007A0000E941812CB010E94EB2088CF64EB72E00C
:1007B000CE0101960E946C14BE016F5F7F4FC8018D
:1007C0000E942312F82ECE0101960E942C13FF20C6
:1007D00009F482C0C8010E94321EAC014F5F5F4F16
:1007E000B801CE0101960E94000EBE016F5F7F4FDF
:1007F000C8010E945D12CE0101960E942C13C8010F
:100800000E94321E9C0140E050E0B801CE010196EA
:100810000E94E612CE0101960E941812E62ECE0129
:1008200001960E942C13C8010E94321EAC014F5F3A
:100830005F4FB801CE0101960E94000EBE016F5FAE
:100840007F4FC8010E945D12CE0101960E942C13B9
:10085000C8010E94321E9C0140E050E0B801CE0168
:1008600001960E94E612CE0101960E941812C62E31
:10087000CE0101960E942C13C8010E94321EAC01C9
:100880004F5F5F4FB801CE0101960E94000EBE017E
:100890006F5F7F4FC8010E945D12CE0101960E94DA
:1008A0002C13C8010E941812A62EB12CD12CF12CA9
:1008B000A501B601C7010E94ED0D982EA501B60154
:1008C000C7010E94D90DF82E82EC92E00E94301EE2
:1008D000892D0E944A1EEDCE6EEC72E0CE0101968B
:1008E0000E946C14BE016F5F7F4FC8010E942312EB
:1008F000F82ECE0101960E942C13FF2019F085E0FE
:1009000090E015C06CED72E0CE0101960E946C146F
:10091000BE016F5F7F4FC8010E942312F82ECE01E7
:1009200001960E942C13FF2029F088E090E00E949D
:10093000DE1E3CC06AEE72E0CE0101960E946C148D
:10094000BE016F5F7F4FC8010E942312F82ECE01B7
:1009500001960E942C13FF2049F1C8010E94321E0B
:10096000AC014F5F5F4FB801CE0101960E94000EAF
:10097000BE016F5F7F4FC8010E945D12CE010196DC
:100980000E942C13C8010E941812611103C010921A
:10099000020103C081E0809302018BEF92E00E948C
:1009A000301E8091020190E00E94D41EB801CE0159
:1009B00007960E94311367E073E0CE0101960E9412
:1009C0006C14BE016F5F7F4FCE0107960E94231209
:1009D000F82ECE0101960E942C13FF2009F440C08E
:1009E000CE0107960E94321EAC014F5F5F4FBE01E1
:1009F000695F7F4FCE0101960E94000EBE016F5FBE
:100A00007F4FCE0107960E945D12CE0101960E9493
:100A10002C13CE0107960E941812F62E82E08F1535
:100A2000D0F06F2D8EEF93E00E94CF2080912007B1
:100A3000813019F48BE997E002C087E897E00E94C3
:100A4000320FF09220070E940D1E86E193E00E9473
:100A5000301E8F2D11C085E293E00E94641E0EC0EF
:100A600060E473E0CE0107960E943E12882331F0C5
:100A70008EEF93E00E94EB200E94511ECE0107965C
:100A80000E942C13B801CE010D960E9431136FE421
:100A900073E0CE010D960E943E12882321F08EE570
:100AA00093E00E94301EBE01635F7F4FCE01079628
:100AB0000E9431136FE473E0CE0101960E946C1422
:100AC000BE016F5F7F4FCE0107960E942312182F41
:100AD000CE0101960E942C13112329F088E693E0A1
:100AE0000E94301E6BC060E773E0CE0101960E9449
:100AF0006C14BE016F5F7F4FCE0107960E942312D8
:100B0000182FCE0101960E942C131123C9F1CE019A
:100B100007960E94321EAC014F5F5F4FBE01695FB6
:100B20007F4FCE0101960E94000EBE016F5F7F4F86
:100B3000CE0107960E945D12CE0101960E942C13F1
:100B4000CE0107960E94321E9C0140E050E0BE019B
:100B5000695F7F4FCE0101960E94E612CE01019699
:100B60000E941812CE0101966B8B0E942C136B8988
:100B700070E0709301016093000185E893E016C076
:100B800066E973E0CE0101960E946C14BE016F5FAE
:100B90007F4FCE0107960E942312182FCE01019697
:100BA0000E942C13112351F08BEA93E00E94301E17
:100BB00080910001909101010E94DE1ECE010796F6
:100BC0000E942C13BE01635F7F4FCE0107960E94E7
:100BD00031136CEB73E0CE0101960E946C14BE01E0
:100BE0006F5F7F4FCE0107960E942312182FCE0110
:100BF00001960E942C13112309F426C1CE010796F9
:100C00000E94321EAC014F5F5F4FBE01695F7F4F94
:100C1000CE0101960E94000EBE016F5F7F4FCE0194
:100C200007960E945D12CE0101960E942C13CE0100
:100C300007960E94321E9C0140E050E0BE01695FB1
:100C40007F4FCE0101960E94E612CE0101960E94CE
:100C50001812D62ECE0101960E942C13CE010796B3
:100C60000E94321EAC014F5F5F4FBE01695F7F4F34
:100C7000CE0101960E94000EBE016F5F7F4FCE0134
:100C800007960E945D12CE0101960E942C13CE01A0
:100C900007960E94321E9C0140E050E0BE01695F51
:100CA0007F4FCE0101960E94E612CE0101960E946E
:100CB0001812E62ECE0101960E942C13CE01079643
:100CC0000E94321EAC014F5F5F4FBE01695F7F4FD4
:100CD000CE0101960E94000EBE016F5F7F4FCE01D4
:100CE00007960E945D12CE0101960E942C13CE0140
:100CF00007960E94321E9C0140E050E0BE01695FF1
:100D00007F4FCE0101960E94E612CE0101960E940D
:100D10001812F62ECE0101960E942C13CE010796D2
:100D20000E94321EAC014F5F5F4FBE01695F7F4F73
:100D3000CE0101960E94000EBE016F5F7F4FCE0173
:100D400007960E945D12CE0101960E942C13CE01DF
:100D500007960E94321E9C0140E050E0BE01695F90
:100D60007F4FCE0101960E94E612CE0101960E94AD
:100D70001812062FCE0101960E942C13CE01079661
:100D80000E94321EAC014F5F5F4FBE01695F7F4F13
:100D9000CE0101960E94000EBE016F5F7F4FCE0113
:100DA00007960E945D12CE0101960E942C13CE017F
:100DB00007960E941812162F81E08093FC0688E0A7
:100DC00080931E071092FD0610921F0762E081E7D4
:100DD00097E00E94E5196D2D81E797E00E94E519E3
:100DE0006E2D81E797E00E94E5196F2D81E797E06E
:100DF0000E94E519802F002E000C990B0E94CF1E37
:100E0000612F81E797E00E94E5190E94721E8DEC28
:100E100093E00E94301E8D2D0E944A1E8BED93E0C0
:100E20000E94301E8E2D0E944A1E8BED93E00E9480
:100E3000301E8F2D0E944A1E8BED93E00E94301EC3
:100E4000802F0E944A1E6EC06EED73E0CE010196A7
:100E50000E946C14BE016F5F7F4FCE0107960E9407
:100E60002312182FCE0101960E942C13112309F48E
:100E700061C0CE0107960E94321EAC014F5F5F4FEA
:100E8000BE01695F7F4FCE0101960E94000EBE0138
:100E90006F5F7F4FCE0107960E945D12CE010196D3
:100EA0000E942C13CE0107960E94321E9C0140E046
:100EB00050E0BE01695F7F4FCE0101960E94E612AD
:100EC000CE0101960E9418126B017C01CE010196A1
:100ED0000E942C13CE0107960E94321EAC014F5F78
:100EE0005F4FBE01695F7F4FCE0101960E94000EE9
:100EF000BE016F5F7F4FCE0107960E945D12CE014B
:100F000001960E942C13CE0107960E941812162FEC
:100F1000C6010E94890D82EF93E00E94301EC60137
:100F20000E94D41E8BED93E00E94301E812F0E9400
:100F3000511E8FC068E074E0CE0101960E946C14CF
:100F4000BE016F5F7F4FCE0107960E942312182FBC
:100F5000CE0101960E942C13112351F1CE01079668
:100F60000E94321EAC014F5F5F4FBE01695F7F4F31
:100F7000CE0101960E94000EBE016F5F7F4FCE0131
:100F800007960E945D12CE0101960E942C13CE019D
:100F900007960E941812162F6D3038F48FEF93E0E9
:100FA0000E94890D89E194E0BFCF81E394E036C0CF
:100FB0006FE574E0CE0101960E946C14BE016F5F74
:100FC0007F4FCE0107960E942312182FCE01019663
:100FD0000E942C13112329F1CE0107960E94321E84
:100FE000AC014F5F5F4FBE01695F7F4FCE0101963D
:100FF0000E94000EBE016F5F7F4FCE0107960E94D8
:101000005D12CE0101960E942C13CE0107960E941C
:101010001812862F0E94BA0D83E794E00E94641E86
:1010200018C06FE473E0CE0101960E946C14BE01FB
:101030006F5F7F4FCE0107960E942312182FCE01BB
:1010400001960E942C13112321F086E894E00E945F
:10105000301ECE0107960E942C13BE01635F7F4FA6
:10106000CE0107960E9431136FE473E0CE01019622
:101070000E946C14BE016F5F7F4FCE0107960E94E5
:101080002312182FCE0101960E942C13112321F058
:101090008AE894E00E94301ECE0107960E942C132D
:1010A000BE01635F7F4FCE0107960E9431136FE44C
:1010B00073E0CE0101960E946C14BE016F5F7F4FFA
:1010C000CE0107960E942312182FCE0101960E948E
:1010D0002C13112329F08AE994E00E94301E85C167
:1010E00060E974E0CE0101960E946C14BE016F5F4E
:1010F0007F4FCE0107960E942312182FCE01019632
:101100000E942C13112309F470C1CE0107960E948E
:10111000321EAC014F5F5F4FBE01695F7F4FCE0152
:1011200001960E94000EBE016F5F7F4FCE010796B1
:101130000E945D12CE0101960E942C13CE010796EB
:101140000E94321E9C0140E050E0BE01695F7F4F6B
:10115000CE0101960E94E612CE0101960E9418125D
:10116000F62ECE0101960E942C13CE0107960E9406
:10117000321EAC014F5F5F4FBE01695F7F4FCE01F2
:1011800001960E94000EBE016F5F7F4FCE01079651
:101190000E945D12CE0101960E942C13CE0107968B
:1011A0000E94321E9C0140E050E0BE01695F7F4F0B
:1011B000CE0101960E94E612CE0101960E941812FD
:1011C000E62ECE0101960E942C1382E1F89E80014A
:1011D00011248BE08F1548F088E08E1530F06E2DCD
:1011E000C801875A9D4F0E94CF20480188EA881A7B
:1011F0008DEF980A580185EAA81A8DEFB80A065AA9
:101200001D4FC12CD12C412C512C32014394CE01C5
:1012100007960E94321EAC014F5F5F4FBE01695FAF
:101220007F4FCE0101960E94000EBE016F5F7F4F7F
:10123000CE0107960E945D12CE0101960E942C13EA
:10124000CE0107960E94321E9C0140E050E0BE0194
:10125000695F7F4FCE0101960E94E612CE01019692
:101260000E941812CE0101966B8B0E942C136B8981
:101270008BE08F1518F0C8010E94CF20CE01079691
:101280000E94321EAC014F5F5F4FBE01695F7F4F0E
:10129000CE0101960E94000EBE016F5F7F4FCE010E
:1012A00007960E945D12CE0101960E942C13CE017A
:1012B00007960E94321E9C0140E050E0BE01695F2B
:1012C0007F4FCE0101960E94E612CE0101960E9448
:1012D0001812CE0101966B8B0E942C136B898BE048
:1012E0008F1518F0C5010E94CF20CE0107960E94ED
:1012F000321EAC014F5F5F4FBE01695F7F4FCE0171
:1013000001960E94000EBE016F5F7F4FCE010796CF
:101310000E945D12CE0101960E942C13CE01079609
:101320000E94321E9C0140E050E0BE01695F7F4F89
:10133000CE0101960E94E612CE0101960E9418127B
:10134000362ECE0101960E942C138BE08F15C8F02B
:10135000C4010E94EB20282FD301C2010C2C04C031
:10136000880F991FAA1FBB1F0A94D2F7332019F0C8
:10137000622F682B03C08095622F6823C4010E94EE
:10138000CF208FEFC81AD80A82E0A80EB11C0E5FDA
:101390001F4F88E0C816D10409F039CFCE01079657
:1013A0000E94321EAC014F5F5F4FBE01695F7F4FED
:1013B000CE0101960E94000EBE016F5F7F4FCE01ED
:1013C00007960E945D12CE0101960E942C1380EABE
:1013D00094E00E94301E8F2D0E944A1E89E592E003
:1013E0000E94301E8E2D0E94511ECE0107960E9433
:1013F0002C13BE01635F7F4FCE0107960E9431130D
:101400006FE473E0CE0101960E946C14BE016F5F21
:101410007F4FCE0107960E942312182FCE0101960E
:101420000E942C13112321F08BEA94E00E94301EBD
:10143000CE0107960E942C13BE01635F7F4FCE0141
:1014400007960E9431136FE473E0CE0101960E946B
:101450006C14BE016F5F7F4FCE0107960E9423126E
:10146000182FCE0101960E942C13112329F085EB31
:1014700094E00E94301E38C26EEB74E0CE010196FB
:101480000E946C14BE016F5F7F4FCE0107960E94D1
:101490002312182FCE0101960E942C13112309F458
:1014A00023C2CE0107960E94321EAC014F5F5F4FF0
:1014B000BE01695F7F4FCE0101960E94000EBE0102
:1014C0006F5F7F4FCE0107960E945D12CE0101969D
:1014D0000E942C13CE0107960E94321E9C0140E010
:1014E00050E0BE01695F7F4FCE0101960E94E61277
:1014F000CE0101960E941812B62ECE0101960E94CE
:101500002C13CE0107960E94321EAC014F5F5F4F35
:10151000BE01695F7F4FCE0101960E94000EBE01A1
:101520006F5F7F4FCE0107960E945D12CE0101963C
:101530000E942C13CE0107960E94321E9C0140E0AF
:1015400050E0BE01695F7F4FCE0101960E94E61216
:10155000CE0101960E941812362ECE0101960E94ED
:101560002C13CE0107960E94321EAC014F5F5F4FD5
:10157000BE01695F7F4FCE0101960E94000EBE0141
:101580006F5F7F4FCE0107960E945D12CE010196DC
:101590000E942C13CE0107960E94321E9C0140E04F
:1015A00050E0BE01695F7F4FCE0101960E94E612B6
:1015B000CE0101960E941812462ECE0101960E947D
:1015C0002C13CE0107960E94321EAC014F5F5F4F75
:1015D000BE01695F7F4FCE0101960E94000EBE01E1
:1015E0006F5F7F4FCE0107960E945D12CE0101967C
:1015F0000E942C13CE0107960E94321E9C0140E0EF
:1016000050E0BE01695F7F4FCE0101960E94E61255
:10161000CE0101960E941812562ECE0101960E940C
:101620002C13CE0107960E94321EAC014F5F5F4F14
:10163000BE01695F7F4FCE0101960E94000EBE0180
:101640006F5F7F4FCE0107960E945D12CE0101961B
:101650000E942C13CE0107960E94321E9C0140E08E
:1016600050E0BE01695F7F4FCE0101960E94E612F5
:10167000CE0101960E941812662ECE0101960E949C
:101680002C13CE0107960E94321EAC014F5F5F4FB4
:10169000BE01695F7F4FCE0101960E94000EBE0120
:1016A0006F5F7F4FCE0107960E945D12CE010196BB
:1016B0000E942C13CE0107960E94321E9C0140E02E
:1016C00050E0BE01695F7F4FCE0101960E94E61295
:1016D000CE0101960E941812762ECE0101960E942C
:1016E0002C13CE0107960E94321EAC014F5F5F4F54
:1016F000BE01695F7F4FCE0101960E94000EBE01C0
:101700006F5F7F4FCE0107960E945D12CE0101965A
:101710000E942C13CE0107960E94321E9C0140E0CD
:1017200050E0BE01695F7F4FCE0101960E94E61234
:10173000CE0101960E941812862ECE0101960E94BB
:101740002C13CE0107960E94321EAC014F5F5F4FF3
:10175000BE01695F7F4FCE0101960E94000EBE015F
:101760006F5F7F4FCE0107960E945D12CE010196FA
:101770000E942C13CE0107960E94321E9C0140E06D
:1017800050E0BE01695F7F4FCE0101960E94E612D4
:10179000CE0101960E941812962ECE0101960E944B
:1017A0002C13CE0107960E94321EAC014F5F5F4F93
:1017B000BE01695F7F4FCE0101960E94000EBE01FF
:1017C0006F5F7F4FCE0107960E945D12CE0101969A
:1017D0000E942C13CE0107960E941812A62E0B2DE4
:1017E00010E083E18B1590F1780183E0EE0CFF1C93
:1017F0008A95E1F7670186EBC81A8CEFD80AC60113
:101800000E94EB208C7F682F630DC6010E94CF20C1
:10181000C6010E94EB208370942D990F990F682FB9
:10182000690FC6010E94CF20652DC701845B9C4FC4
:101830000E94CF20672DC701825B9C4F0E94CF2062
:10184000692DC701805B9C4F0E94CF20462D60E030
:10185000C8010E94610D482D61E0C8010E94610D20
:101860004A2D62E0C8010E94610D81ED94E00E9462
:10187000301E8B2D0E944A1E89E592E00E94301E88
:10188000832D0E944A1E89E592E00E94301E842D1D
:101890000E944A1E89E592E00E94301E852D0E941A
:1018A0004A1E89E592E00E94301E862D0E944A1E43
:1018B00089E592E00E94301E872D0E944A1E89E52C
:1018C00092E00E94301E882D0E944A1E89E592E017
:1018D0000E94301E892D0E944A1E89E592E00E94D6
:1018E000301E8A2D0E94511ECE0107960E942C1395
:1018F000BE01635F7F4FCE0107960E9431136FE4F4
:1019000073E0CE0101960E946C14BE016F5F7F4FA1
:10191000CE0107960E942312182FCE0101960E9435
:101920002C13112321F08FED94E00E94301ECE0184
:1019300007960E942C13BE01635F7F4FCE0107966E
:101940000E9431136FE473E0CE0101960E946C1483
:10195000BE016F5F7F4FCE0107960E942312182FA2
:10196000CE0101960E942C13112321F089EE94E000
:101970000E94301ECE0107960E942C136FE473E084
:10198000CE010D960E943E12882321F084EF94E050
:101990000E94301ECE010D960E942C1363960FB646
:1019A000F894DEBF0FBECDBFDF91CF911F910F9195
:1019B000FF90EF90DF90CF90BF90AF909F908F906F
:1019C0007F906F905F904F903F9008958C3091057D
:1019D0008CF4683078F442E1489F9001499F300DC3
:1019E0001124C901860F911D860F911D855A9D4FA7
:1019F0000C94EB2080E00895CF93DF932091C505F0
:101A00003091C605882319F02F5F3F4F02C0215047
:101A100031093093C6052093C505C091C505D09105
:101A2000C6058FEF93E00E94EB2090E0C817D9071E
:101A30002CF01092C6051092C50507C0D7FF05C04F
:101A400001979093C6058093C505DF91CF910895C6
:101A50000F931F93CF93DF9381E080930D0509EFE0
:101A600014E0C0E0D0E0F80180818823F9F02097ED
:101A700011F480EE04C0C130D10521F481EE0E9442
:101A8000241E12C0C230D10511F482EEF8CFC3304B
:101A9000D10511F486EEF3CF8091C5059091C6056E
:101AA0009093C4058093C305F801108221960F5FBF
:101AB0001F4FC431D105B9F6DF91CF911F910F911E
:101AC00008958431910584F4633070F423E0880F25
:101AD000991F2A95E1F7860F911D860F911D642F9E
:101AE000835B9C4F0C94CF200895843191057CF446
:101AF000633068F423E0880F991F2A95E1F7845B2F
:101B00009C4F860F911D860F911D0C94EB2080E059
:101B100008950F931F93CF93DF931F92CDB7DEB736
:101B20008C0181E08093FC0688E080931E07109270
:101B3000FD0610921F0784E090E069830E94CF1E8B
:101B4000698181E797E00E94E5190F3F110541F097
:101B50003CF08FEF90E00E94CF1E0F5F1109F5CF90
:101B6000C8010E94CF1E0F90DF91CF911F910F915E
:101B70000C94721ECF93DF931F92CDB7DEB7682F00
:101B800081E08093FC0688E080931E071092FD069A
:101B900010921F0786E090E069830E94CF1E698142
:101BA00081E797E00E94E5190F90DF91CF910C94A7
:101BB000721E23E0660F771F2A95E1F7860F971FA5
:101BC00068E2649F9001659F300D1124820F931F7E
:101BD000880F991F01960C94EB2023E0660F771F66
:101BE0002A95E1F7680F791F28E2249FC001259FFD
:101BF000900D1124860F971F880F991F0C94EB20CE
:101C0000CF93DF93EC01FB01248135810E94E61222
:101C1000CE01DF91CF9108950F931F93CF93DF9360
:101C2000EC01E881F9810084F185E02D40E009951F
:101C30008C01892B39F0E881F9810680F781E02D4C
:101C4000CE010995C801DF91CF911F910F910895A1
:101C50000F931F93CF93DF93EC01E881F981008408
:101C6000F185E02D41E009958C01892B39F0E8815F
:101C7000F9810680F781E02DCE010995C801DF9139
:101C8000CF911F910F910895FF920F931F93CF93C0
:101C9000DF938C01F62E0E94280EEC01892B21F097
:101CA0006F2DC8010E940C0ECE01DF91CF911F91C4
:101CB0000F91FF900895CF93DF93D82FC62F809177
:101CC0000201882309F454C0611104C08D2F0E94C1
:101CD000241E4EC0613091F06230C9F48091F80446
:101CE00081110CC0809120076CE2813019F48BE9DE
:101CF00097E002C087E897E00E94440E8091C505F6
:101D00009091C6059093C4058093C30531C06B3094
:101D100091F06C3019F460E080EE24C06D3001F178
:101D20006E3019F460E086EE1DC06F3039F460E06B
:101D300080EE0E945B0E60E081EE14C0603129F4F9
:101D400060E080EE0E945B0E07C0613119F460E034
:101D500080EE04C0623161F460E081EE0E945B0EAF
:101D600060E082EE0E945B0E60E08D2F0E945B0EB1
:101D700080910201882391F18CEE8C0F8A3070F5EE
:101D8000C43119F460E080EE04C0C53129F460E08C
:101D900081EE0E945B0E12C0C63119F460E082EE43
:101DA000F8CFC73119F460E086EEF3CF8091C50516
:101DB0009091C6059093C4058093C3058091F80463
:101DC00081110CC0809120076D2F813019F48BE9AF
:101DD00097E002C087E897E00E94440E80910201DC
:101DE000882329F0C33119F48D2F0E94ED208091B2
:101DF00002018823A1F1CF3139F480910501805887
:101E00008D1B809305012BC0C03239F480910401F1
:101E100080588D1B8093040122C0C13239F4809117
:101E2000030180588D1B8093030119C0C232B9F49D
:101E3000D13011F481E00FC0D23011F482E00BC038
:101E4000D33011F484E007C0D43011F488E003C02B
:101E5000D53029F480E1DF91CF910C944F1FDF91B1
:101E6000CF9108950F931F93CF93DF93EC01E881F7
:101E7000F9810480F581E02D09958C01892B39F0D9
:101E8000E881F9810680F781E02DCE010995C8012E
:101E9000DF91CF911F910F9108956F927F928F9252
:101EA0009F92AF92BF92CF92DF92EF92FF920F93E9
:101EB0001F93CF93DF9300D01F92CDB7DEB7182FBB
:101EC000062F81E08093F80480910201882309F4B1
:101ED00091C0611104C0812F0E94181E8BC0613017
:101EE00021F0623059F41092F804812F012E000C79
:101EF000990B9093C4058093C3057CC06330B1F502
:101F0000111102C081E003C0113021F480E00E9471
:101F1000FC0C70C0E090C505F090C60521E00E2CC9
:101F200001C0220F0A94EAF73AE0C32ED12C220F07
:101F300069F08FEFE81AF80A8FEF93E02B830E9485
:101F4000EB2090E02B81E816F9061CF021E0E12C53
:101F5000F12C822F812329F0F092C605E092C5056D
:101F600049C091E0C91AD10811F7F6CF653089F45C
:101F70002091C3053091C405812F012E000C990BCF
:101F80002817390709F0B1CF8091C5059091C60592
:101F9000B0CF6B3091F06C3019F460E080EE24C06B
:101FA0006D3001F16E3019F460E086EE1DC06F30C7
:101FB00039F460E080EE0E944D0F60E081EE14C0C5
:101FC000603129F460E080EE0E944D0F07C061315E
:101FD00019F460E080EE04C0623161F460E081EEEB
:101FE0000E944D0F60E082EE0E944D0F60E0812F55
:101FF0000E944D0F80910201882361F1063051F556
:1020000080912007813019F48BE997E002C087E8BE
:1020100097E00E94320F612F8EEF93E00E94CF2055
:1020200080912007813019F48BE997E002C087E89E
:1020300097E00E94320F109320070E940D1E80919E
:102040002007813019F48BE997E002C087E897E018
:102050000E94320F809102018823C9F10A30E9F50C
:102060001536B4F48091000190910101810F911D0A
:1020700017FD9A9597FF05C010920101109200017B
:1020800028C08F3F9105F1F0ECF08FEF90E01AC07F
:10209000153691F3163619F480E290E013C0173626
:1020A00019F480E490E00EC0183619F480E690E050
:1020B00009C0193619F480E890E004C01A3649F4D2
:1020C00080EA90E0909301018093000102C00A3001
:1020D00021F4809100010E94BA0D809102018823B1
:1020E00059F1043049F5111102C081E017C01130D7
:1020F00011F482E013C0123011F4098310C01330C0
:1021000011F488E00BC0143011F480E107C01530E1
:1021100011F480E403C0163079F480E889831A82D0
:102120000E94802022E030E0AE014F5F5F4F65E00B
:102130000E942F200E94F71D80910201882309F43C
:102140005DC0073009F05AC0812E012E000C99089D
:102150008CE0881691040CF051C092E119026001E4
:102160001124C601875A9D4F0E94EB20560196EA22
:10217000A91A9DEFB90AE12CF12C682E712C88EA7E
:10218000C81A8DEFD80AE614F7042CF5C6010E9490
:10219000EB2090E00E2C02C0959587950A94E2F70B
:1021A0006E2D80FFC0C0C4010E94E60C682FC501DF
:1021B0006B830E94EB206B810E945B0E65E070E0F8
:1021C00080E090E00E94C51B9FEFE91AF90A82E0C7
:1021D000A80EB11CD8CF8091C5059091C6059093EB
:1021E000C4058093C30580912007813019F48BE9E1
:1021F00097E002C087E897E00E94320F80910201C9
:10220000882329F1043119F460E080EE09C005311A
:1022100019F460E081EE04C0063139F460E082EE2A
:102220000E944D0F1092F80412C0073119F460E0BB
:1022300086EEF6CF88EE800F863048F41092F804D0
:10224000802F90E047979093C4058093C3058091B9
:1022500002018823A1F1033149F5E12E012E000C82
:10226000FF08F701E15AFA4F8081843040F58F5F13
:10227000808394E1E916F1046CF4C70123E0880F30
:10228000991F2A95E1F7865B9C4F0E94EB2086956B
:10229000869501C080E0F701E55BFA4F880F8083E7
:1022A000F701E95CFA4F81E0808309C00F3109F042
:1022B00046C0809105018058810F8093050180916F
:1022C0000201882309F467C00E3151F5812F012ED8
:1022D000000C990BFC01E750FB4F308121E02327D4
:1022E00020832223E9F0111102C080EE03C01130D7
:1022F00021F481EE0E94181E10C0123011F482EEFB
:10230000F9CF133011F486EEF5CF1450103128F4C4
:1023100003979093C4058093C30510920D053BC0AD
:102320000E94280D38C0C4010E94E60C682FC50128
:102330006B830E94EB206B810E944D0F3FCF0032D8
:1023400039F4809104018058810F80930401B7CF44
:10235000013239F4809103018058810F8093030189
:10236000AECF023209F0ABCF113011F481E010C0D2
:10237000123011F482E00CC0133011F484E008C074
:10238000143011F488E004C0153009F098CF80E1D2
:102390000E94421F94CF0F900F900F90DF91CF912A
:1023A0001F910F91FF90EF90DF90CF90BF90AF9073
:1023B0009F908F907F906F900895CF93DF93EC0163
:1023C000E881F9810480F581E02D0995E881F981A2
:1023D0000680F781E02DCE01DF91CF9109940E9414
:1023E000D4280F931F93CF93DF93EC0188819981B9
:1023F000009729F02A813B812617370788F48B0143
:102400006F5F7F4F0E940A28009761F0998388834D
:102410001B830A832C813D81232B11F4FC01108244
:1024200081E001C080E0DF91CF911F910F9108956D
:10243000FC0180819181009711F00C940B2960E0E0
:1024400070E0CB010895FB0144815581FC0124819A
:1024500035812417350778F080819181009759F0F4
:10246000FB01608171816115710529F00E94FD28D1
:1024700021E0892B09F020E0822F0895FC012481BE
:102480003581232B31F421E061157105A1F0FB01A9
:1024900008C0FC01808191816115710531F421E052
:1024A000FC018081882339F005C00E94ED2821E0DD
:1024B000892B09F020E0822F08950F931F93CF936B
:1024C000DF938C01EB018617970771F1FC01808186
:1024D00091810097B1F0688179816115710579F07A
:1024E000428153812C813D814217530740F00E9465
:1024F000F6288C819D81F8019583848313C00E9406
:10250000722788819981F801918380838A819B81D8
:10251000938382838C819D81958384831982188221
:102520001B821A821D821C82C801DF91CF911F91EC
:102530000F910895EF92FF920F931F93CF93DF9324
:10254000EC017B018A01BA010E94F11128813981D5
:1025500081110DC02115310519F0C9010E947227A2
:10256000198218821D821C821B821A8206C01D835A
:102570000C83B701C9010E94F628CE01DF91CF91EB
:102580001F910F91FF90EF900895CF93DF93EC018F
:102590006115710559F0FB0101900020E9F73197B1
:1025A000AF01461B570B0E949A120CC0888199817B
:1025B000009711F00E947227198218821D821C82D6
:1025C0001B821A82CE01DF91CF910895BF92CF92E4
:1025D000DF92EF92FF920F931F93CF93DF937C01D3
:1025E0006B018A01E9012417350720F4812F890145
:1025F000C42FD82F66EF74E0C7010E946C14D60177
:1026000014968D919C91159708171907D0F48C1783
:102610009D0708F4EC01D601ED91FC911197EC0FA8
:10262000FD1FB08010824D915C91BA01600F711F47
:10263000C7010E94C512D601ED91FC91EC0FFD1F60
:10264000B082C701DF91CF911F910F91FF90EF9062
:10265000DF90CF90BF900895FC01808191810C9410
:102660007227FB01DC0111961C921E9213961C929C
:102670001E92129715961C921E9214978617970712
:1026800049F0608171816115710521F044815581A6
:102690000C949A12089508954091840650918506ED
:1026A000209182063091830642175307B4F490912B
:1026B000E8009570E1F39091E80092FD19C08093D5
:1026C000F100809184069091850601968F73992779
:1026D000892B19F48EEF8093E80080918406909105
:1026E00085060196909385068093840681E008957F
:1026F00080E00895CF92DF92EF92FF920F931F93A5
:10270000CF93DF931F92CDB7DEB7182F062FE42E9D
:10271000862F880F8E5F99830E944C1383E00E945E
:102720004C13F12EC12E9981D92E8C2D8F19801723
:1027300098F4F601E7FE02C0849101C080810E94F6
:102740004C13182F80E00E944C138123FFEFCF1A07
:10275000DF0A8111EACF01C081E00F90DF91CF91B4
:102760001F910F91FF90EF90DF90CF9008956150EF
:1027700030F02091F100FC0120830196F8CF2898D9
:1027800084E68093D3060895CF92DF92EF92FF9272
:102790000F931F93CF93DF936C017A018B01C0E0FD
:1027A000D0E0CE15DF0589F0D8016D918D01D601FD
:1027B000ED91FC910190F081E02DC6010995892BE6
:1027C00011F47E0102C02196ECCFC701DF91CF91B9
:1027D0001F910F91FF90EF90DF90CF900895CF93CE
:1027E000DF931F92CDB7DEB76983DC01ED91FC91D9
:1027F0000280F381E02D41E050E0BE016F5F7F4F2A
:1028000009950F90DF91CF91089583E08093E900BF
:102810008091F200882319F08AE38093E8000895FC
:10282000FC018485958597FD0BC09FB7F89482E0E5
:102830008093E9008091F2009FBF90E00196089597
:102840009FB7F89482E08093E9008091F2009FBFE7
:1028500090E008950F931F93CF93DF931F92CDB70E
:10286000DEB78C01FC018485958597FF0EC0CE01F3
:1028700001960E94F61E019719F4298130E002C0EA
:102880002FEF3FEFF80135872487F8018485958580
:102890000F90DF91CF911F910F910895CF93DF9308
:1028A0001F92CDB7DEB7FC018485958597FD05C0E5
:1028B0002FEF3FEF358724870BC0CE0101960E9492
:1028C000F61E019719F4898190E002C08FEF9FEF07
:1028D0000F90DF91CF910895FC0111821082138235
:1028E0001282158214826115710551F0FB0101906D
:1028F0000020E9F73197AF01461B570B0C949A1251
:1029000008951F920F920FB60F9211248F939F93E9
:102910008091E1009091E100937F9093E10083FF2B
:102920000FC01092E90091E09093EB001092EC0040
:1029300092E39093ED001092D40698E09093F0000B
:1029400082FF20C093E09093E9009091F2009923D8
:1029500019F09AE39093E80090918606992339F054
:1029600090918606915090938606992389F19091D3
:10297000D306992339F09091D30691509093D306C2
:10298000992341F184FF10C08091E2008E7E816026
:102990008093E2008091E1008F7E8093E10080913E
:1029A0000F058E7E806111C080FF16C08091E2000D
:1029B0008E7E80618093E2008091E1008E7E809324
:1029C000E10080910F058E7E816080930F0504C029
:1029D0005D9ACDCF289AD6CF9F918F910F900FBE41
:1029E0000F901F901895BF92CF92DF92EF92FF92B7
:1029F0000F931F93CF93DF936C018B01EB019BEF40
:102A0000B92E2097C1F07E01C134D1051CF080E4BD
:102A1000E82EF12C8091E80082FFFCCFC8018C1BCE
:102A20009D0B6E2D8C0D9D1D0E94B713B092E8007A
:102A3000CE19DF09E6CFC801DF91CF911F910F9129
:102A4000FF90EF90DF90CF90BF900895DF92EF92CC
:102A5000FF920F931F93CF93DF93D82E8A017B01B0
:102A6000E40EF51EEB01CE15DF0571F0D7FE03C0B5
:102A7000FE01849101C088810E944C13219681112E
:102A8000F2CF8FEF9FEF01C0C801DF91CF911F916F
:102A90000F91FF90EF90DF9008958F929F92AF92E9
:102AA000BF92CF92DF92EF92FF920F931F93CF933B
:102AB000DF9300D01F92CDB7DEB7382F8B01809106
:102AC000D406811103C08FEF9FEF7DC080910F0569
:102AD00080FF05C08091E00082608093E0004A01A1
:102AE0008AEFF82E832F8770E82E9FE3C92E832F5D
:102AF0008072B82E2AE3D22E832F8074A82E8114E0
:102B0000910409F457C08FB7F894E092E9009091CE
:102B1000E80095FF05C09091F2002C2D291B01C003
:102B200020E08FBF211110C0FA94FF2061F261E014
:102B300070E080E090E039834A835B830E94C51B8C
:102B400039814A815B81DBCF822F90E0881699061C
:102B50000CF4282D6FB7F894E092E9008091E8001A
:102B600085FF26C0822F90E0881A990ABB2029F0A1
:102B70002150A8F01092F100FBCFF80137FF07C0F9
:102B8000215058F074917093F1003196F9CF215093
:102B900020F071917093F100FACF080F191F809106
:102BA000E80085FF0DC08114910411F4A11008C044
:102BB0006FBFA5CF5D9884E680938606CA0103C0E7
:102BC000D092E800F5CF0F900F900F90DF91CF914A
:102BD0001F910F91FF90EF90DF90CF90BF90AF903B
:102BE0009F908F900895CF93DF93EC01809118010F
:102BF000882331F083E00E944D151816190634F031
:102C000081E090E09B838A8380E090E0DF91CF9128
:102C10000895CF93DF93FC01DB01C281D38120971C
:102C200019F47383628308C088859985009711F031
:102C3000EC01FACFB987A887808112968C931297FE
:102C4000818113968C931397908115968C9115978B
:102C5000890F808380E014969C9114978917A0F4C3
:102C60009181C92FD0E0AE014A5F5E4F16962D913B
:102C70003C911797280F311DE9012881EA0128832B
:102C80009F5F91838F5FE7CF81E0DF91CF910895C0
:102C90008091790681110DC082E08093750684E0F1
:102CA00080937606109278061092770681E08093E2
:102CB000790685E796E008950F931F93CF93DF93EE
:102CC0001F92CDB7DEB782E0898342E450E061E62F
:102CD00071E080E80E9426150E944816DC011296D9
:102CE0000D911C9113970115110569F0D801ED9113
:102CF000FC910280F381E02DBE016F5F7F4FC80120
:102D0000099597FF07C089810F90DF91CF911F919F
:102D10000F910895F80100851185E5CF1F920F925C
:102D20000FB60F921124CF92DF92EF92FF920F9382
:102D30001F932F933F934F935F936F937F938F9343
:102D40009F93AF93BF93EF93FF93CF93DF93CDB751
:102D5000DEB76C97DEBFCDBF1092E9008091E8002E
:102D600083FFF4C168E0CE0145960E94B71382EF5D
:102D70008093E8008D8987FF05C09091E80090FF5F
:102D8000FCCF03C09EEF9093E800982F907609F057
:102D9000C6C09E892F89188D91110CC0803829F4E6
:102DA000809110058093F10002C01092F100109202
:102DB000F10041C1422F50E0512B913051F481116B
:102DC0003AC14130510509F036C1809110058D7F1F
:102DD0000BC0933061F481112EC14130510509F0CF
:102DE0002AC18091100582608093100524C195301E
:102DF00041F48091E80080FFFCCF20682093E3003D
:102E00001AC1963009F05FC0EB8CFC8C1092E9007F
:102E10001092850610928406123091F51092830666
:102E2000109282060E945C1699E0BE016F5F7F4F90
:102E3000DB01E92F1D92EA95E9F799831A8391E066
:102E40009E8390EA98879AEF998720918406309123
:102E50008506275F3F4F3C832B838D831092E900CB
:102E60001092850610928406F0928306E092820604
:102E700049E050E080E00E9426150E945C16DBC00D
:102E8000F0928306E09282060E944816DC011296B8
:102E9000ED90FC901397E114F10409F4BAC0D70146
:102EA000ED91FC910480F581E02DBE016B5E7F4FBA
:102EB000C7010995009719F00CF0BDC0C0C0F7011B
:102EC000E084F184E8CF973009F4B9C0983021F458
:102ED00081E08093F100AFC0993009F0ACC08370FD
:102EE00009F0ADC0E7E0F1E081E021E036E3908158
:102EF000992361F08093E9002093EB0091919093E6
:102F0000EC003093ED008F5F873089F78EE7809378
:102F1000EA001092EA008F898093D4068CC08B8DD2
:102F20009C8D1092E9001092850610928406909371
:102F3000830680938206898D811150C08E899D8978
:102F4000913A59F4813209F07AC047E050E061E1EA
:102F500071E080E00E9426156EC0913209F06FC0CA
:102F6000833289F4888D90E0982F88272F89822BCF
:102F7000A0E0B0E080930D0190930E01A0930F01AB
:102F8000B093100158C0803239F467E070E081E1FD
:102F900091E00E94F31406C0823209F04CC08F8980
:102FA0008093180180910E05882319F0EEEFFAE066
:102FB00002C0E0E0F8E08091110190911201A0912F
:102FC0001301B0911401803B9440A105B10509F0B3
:102FD00088C08091180180FFA0C083C00E9448165D
:102FE000DC0112960D911C9113970115110539F111
:102FF000D801ED91FC910190F081E02DBE016B5E56
:103000007F4FC8010995811116C0F801008511850F
:10301000ECCF1130C1F0133091F48F89882309F47B
:1030200055C08230E9F440E860E183EB91E00E9412
:103030007A13882321F08EEF8093E80087C081E225
:103040008093EB0083C08B8D9C8D089711F41093B7
:10305000810680918106811136C064EC71E038C030
:10306000813029F440E86BE087EA91E0E0CF8330DB
:1030700031F70E944816DC011296ED90FC901397F0
:103080008E010F5F1F4F6801E114F10479F0D70141
:10309000ED91FC910680F781E02DB801C7010995FB
:1030A000080F111DF701E084F184EECFD8011C92C6
:1030B000F60101900020E9F73197BF016C197D09F5
:1030C00040E0C601B4CF66ED71E002C063EA71E092
:1030D0006115710509F4B3CFFB01449150E080E81C
:1030E00039CF0FB6F894A8958091600088618093DD
:1030F0006000109260000FBEA895EE3F2AE0F20734
:1031000039F08091FE0A9091FF0A9183808393CFDA
:103110001092FF0A1092FE0A8ECFEE3F8AE0F80767
:1031200031F0808191819093FF0A8093FE0A87E7B6
:1031300097E7918380839BE088E10FB6F894A89588
:10314000809360000FBE9093600075CF6C960FB6B1
:10315000F894DEBF0FBECDBFDF91CF91FF91EF910D
:10316000BF91AF919F918F917F916F915F914F919F
:103170003F912F911F910F91FF90EF90DF90CF9093
:103180000F900FBE0F901F90189590E0FC013197A3
:10319000EF30F105B0F5EB59FF4F0C94D726809135
:1031A00080008F7703C0809180008F7D80938000A6
:1031B000089580918000877FF9CF84B58F7702C012
:1031C00084B58F7D84BD0895809190008F7707C06E
:1031D000809190008F7D03C080919000877F8093C5
:1031E000900008958091C0008F7703C08091C00047
:1031F0008F7D8093C00008958091C200877F809367
:10320000C20008951F93CF93DF93282F30E0F90178
:10321000EC5CFE4F8491F901EB5EFE4FD491F90115
:10322000EA50FF4FC491CC23C9F0162F81110E94A0
:10323000C518EC2FF0E0EE0FFF1FED5AFE4FA591E1
:10324000B4918FB7F894111105C09C91ED2FE095C2
:10325000E92302C0EC91ED2BEC938FBFDF91CF916E
:103260001F9108953FB7F8948091CF069091D006B2
:10327000A091D106B091D20626B5A89B05C02F3FDC
:1032800019F00196A11DB11D3FBFBA2FA92F982F8C
:103290008827820F911DA11DB11DBC01CD0142E007
:1032A000660F771F881F991F4A95D1F7089585EDFE
:1032B0008093BC008091BC0084FDFCCF1092FB0683
:1032C00008954091A906262F30E0240F311D2132A8
:1032D0003105DCF42091FB062430C9F4FC0180E0C8
:1032E00090E0861758F43091A9062191DC01A95786
:1032F000B94FA30FB11D2C930196F3CF8091A9066E
:10330000680F6093A90680E0089581E0089582E047
:1033100008950895E091160580911505E81730F499
:10332000F0E0E95EFA4F808190E008958FEF9FEF23
:1033300008959091160580911505981750F4E92F7E
:10334000F0E0E95EFA4F208130E09F5F9093160530
:1033500002C02FEF3FEFC90108958091150590E05D
:1033600020911605821B91090895CF92DF92EF926A
:10337000FF920F931F93CF93DF937C01262F972FFC
:103380008A018091FC06882391F0C62FD72F6E0109
:10339000C40ED51ECC15DD0571F06991D701ED91F4
:1033A000FC910190F081E02DC7010995F3CF642FC6
:1033B000822F0E946119C801DF91CF911F910F9157
:1033C000FF90EF90DF90CF900895CF93DF931F92FF
:1033D000CDB7DEB769832091FC062223D1F020917E
:1033E0001F07203240F021E030E0FC0133832283CC
:1033F00080E090E015C08091FD06E82FF0E0E250FB
:10340000F94F998190838F5F8093FD0680931F070A
:1034100005C061E0CE0101960E94611981E090E053
:103420000F90DF91CF910895FC0134969C01245FA9
:103430003F4F80E090E04081411101961192E217E8
:10344000F307C9F70895FC0120E2260F2830F0F0B9
:10345000DC01169620E030E08D91442349F086137C
:1034600004C0E20FF31F668326C0811107C0F9CFA5
:10347000861304C0E20FF31F16821DC02F5F3F4F5B
:103480002630310549F780E090E0089534814423E7
:1034900049F081E090E001C0880F2A95EAF7832B7C
:1034A000848309C041E050E001C0440F2A95EAF747
:1034B00040954323448381E090E00895FC013496D5
:1034C0009C012D5E3F4F80E090E0608160FD0196A1
:1034D000462F50E055954795642F452BB9F711922B
:1034E000E217F30791F70895FC016836B8F4862FC8
:1034F000877021E030E001C0220F8A95EAF76695D7
:1035000066956695E60FF11D442319F08581282BF9
:1035100003C0209595812923258326C050E2560FAC
:103520005830B0F46481442349F021E030E001C018
:10353000220F5A95EAF7262B248316C081E090E0EB
:1035400001C0880F5A95EAF78095862384830CC0C2
:103550008289442331F0861711F0811108C0628BF3
:1035600003C0861304C0128A81E090E0089580E0D1
:1035700090E00895CF93DF93EC01FB018A8190E006
:10358000248135818217930709F04AC08181908197
:10359000913A69F4813009F441C0833011F48F8984
:1035A00003C08230E9F5888D8093F10037C09132F5
:1035B000B9F58B3019F482818F8B30C08A3019F4C1
:1035C0008281888F2BC0893059F56681778183810C
:1035D000833079F48C8D9D8D6817790709F58A8D74
:1035E0009B8D0E94F3148C8D9D8D90689D8F8C8F88
:1035F00015C0823041F46130710591F461E070E0F2
:10360000CE01499609C0813059F46830710541F402
:1036100068E070E0CE010E960E94F31481E001C0D4
:1036200080E0DF91CF910895FB0120812138B9F42A
:1036300023812232A1F4DC0112962C91129730E002
:10364000448155814217530751F421E057962C933A
:1036500045E450E068EE71E080E80C94261580E0C7
:1036600090E00895CF93DF93CDB7DEB769970FB69B
:10367000F894DEBF0FBECDBFFC01DB019C919F5FC4
:103680009C93BE016F5F7F4F89E1DB011D928A959C
:10369000E9F729E0298384E08A8391E09D8383E030
:1036A0008E839F8398872A8721E22B879C879D871B
:1036B0009F8722E2288B25E4298B27E02B8B25E0AE
:1036C0002C8B8E8B20E430E0388F2F8B998F82816A
:1036D0008B83838180688D8B49E150E080E00E947C
:1036E000261569960FB6F894DEBF0FBECDBFDF91E9
:1036F000CF910895CF93DF93EC010E948020AE011B
:103700004C5F5F4F2FE030E068E0DF91CF910C9489
:103710002F20CF93DF9390E0FC01EB5EFE4F2491CE
:10372000FC01EA50FF4F8491882361F190E0880FFB
:10373000991FFC01E35DFD4FC591D491FC01ED5A49
:10374000FE4FA591B491611109C09FB7F89488818B
:10375000209582238883EC912E230BC0623061F484
:103760009FB7F8943881822F809583238883EC91CA
:103770002E2B2C939FBF06C08FB7F894E8812E2B79
:1037800028838FBFDF91CF9108958F929F92AF9240
:10379000BF92CF92DF92EF92FF926B017C010E9469
:1037A00032194B015C01C114D104E104F104F1F0C0
:1037B0000E943219DC01CB0188199909AA09BB09B9
:1037C000883E9340A105B10570F321E0C21AD108EB
:1037D000E108F10888EE880E83E0981EA11CB11C58
:1037E000C114D104E104F10419F7DDCFFF90EF908B
:1037F000DF90CF90BF90AF909F908F9008951F92D1
:103800000F920FB60F9211242F933F938F939F9394
:10381000AF93BF938091110590911205A09113056C
:10382000B09114053091CE0623E0230F2D3720F4FC
:103830000196A11DB11D05C026E8230F0296A11D0A
:10384000B11D2093CE068093110590931205A0938D
:103850001305B09314058091CF069091D006A091E6
:10386000D106B091D2060196A11DB11D8093CF065D
:103870009093D006A093D106B093D206BF91AF919A
:103880009F918F913F912F910F900FBE0F901F909E
:1038900018951F920F920FB60F9211242F933F93FA
:1038A0004F935F936F937F938F939F93AF93BF9348
:1038B000EF93FF938091B900887F803609F49CC014
:1038C00068F5883209F45BC090F4803109F454C083
:1038D00038F4882309F4F6C0883009F44DC0F6C0E6
:1038E000883109F44CC0803209F45DC0EFC08034E7
:1038F00009F468C048F4803309F455C0883309F0EE
:10390000E5C08093F906D8C0803509F44FC08835EA
:1039100009F45DC0883409F0D9C0D6C0883909F4EB
:10392000C7C0A8F4883709F467C038F4883609F4AA
:1039300063C0803709F460C0C9C0883809F4B8C0D2
:10394000803909F45FC0803809F0C0C05BC0803B9B
:1039500009F486C038F4803A09F466C0883A09F45C
:103960007FC0B4C0803C09F4A7C0883C09F4A4C05F
:10397000883B09F48AC0AAC08091D60610C09091F5
:10398000F8068091F706981770F5E091F80681E047
:103990008E0F8093F806F0E0E952F94F8081809312
:1039A000BB0085EC86C08093F9068EC0E091F806D6
:1039B00081E08E0F8093F8068091BB00F0E0E95221
:1039C000F94F80839091F8068091F7066EC0E091E0
:1039D000F80681E08E0F8093F8068091BB00F0E03E
:1039E000E952F94F80838091FA0681116DC081E020
:1039F0008093D50684EA61C083E08093FB06109231
:103A0000CD06CFCF8091CD06803208F051C0E09135
:103A1000CD0681E08E0F8093CD068091BB00F0E053
:103A2000E355F94F8083BDCF85EC8093BC001092A5
:103A3000FB068091CD06803230F4E091CD06F0E0B7
:103A4000E355F94F10826091CD0670E0E091AB062E
:103A5000F091AC068DEA96E009951092CD0636C03D
:103A600084E08093FB061092AA061092A906E091CA
:103A7000A706F091A80609958091A906811105C0B5
:103A800081E08093A90610928706E091AA0681E062
:103A90008E0F8093AA06F0E0E957F94F808180935A
:103AA000BB009091AA068091A906981708F479CFD7
:103AB00085E88093BC000AC085EC8093BC0010921E
:103AC000FB0604C01092F9060E945719FF91EF916E
:103AD000BF91AF919F918F917F916F915F914F9126
:103AE0003F912F910F900FBE0F901F901895BC0122
:103AF000009791F0FC0101900020E9F73197AF01A8
:103B0000481B590BE0912107F09122070280F381B5
:103B1000E02D81E297E0099480E090E008958F9293
:103B20009F92AF92BF920F931F93CF93DF93CDB726
:103B3000DEB7A1970FB6F894DEBF0FBECDBF19A2B6
:103B4000423008F44AE08E010F5D1F4F842E912C05
:103B5000A12CB12CA50194010E94B526E62FB90134
:103B6000CA0101501109EA3014F4E05D01C0E95CBA
:103B7000D801EC93232B242B252B61F7C8010E943D
:103B8000771DA1960FB6F894DEBF0FBECDBFDF91B3
:103B9000CF911F910F91BF90AF909F908F900895FC
:103BA000CF92DF92EF92FF92CF93DF936B017C0174
:103BB000E0912107F09122070190F081E02D6DE264
:103BC00081E297E00995EC0166277727CB016C1914
:103BD0007D098E099F094AE00E948F1D8C0F9D1F51
:103BE000DF91CF91FF90EF90DF90CF900895CF932A
:103BF000DF9300D0CDB7DEB719821A820E948020F1
:103C000022E030E0AE014F5F5F4F65E00E942F2061
:103C10000F900F90DF91CF91089580912007813010
:103C200019F48BE997E002C087E897E00C94DD1166
:103C3000682F80912007813019F48BE997E002C04A
:103C400087E897E00C94280E682F80912007813038
:103C500019F48BE997E002C087E897E00C940C0E0A
:103C60000C94771DCF93DF93FC0124813581232BA6
:103C700061F0C081D18168E270E0CE010E94E2284B
:103C8000009719F08C1B9D0B02C08FEF9FEFDF9107
:103C9000CF910895682F70E080E090E04AE00C94A6
:103CA0008F1DCF93DF93682F70E080E090E04AE0B3
:103CB0000E948F1DEC0184EF94E00E94771D8C0F11
:103CC0009D1FDF91CF910895CF93DF930E94771DC1
:103CD000EC0184EF94E00E94771D8C0F9D1FDF9113
:103CE000CF91089520911F0790911E07213208F06F
:103CF0004AC08091FB068111FCCF32E03093FB0675
:103D000031E03093FA063FEF3093F9061092F8064F
:103D10002093F706AEEFB6E047ED56E0FA013E2FEE
:103D2000341B321718F43D913193F9CF1092D60617
:103D30002091D606990F922B9093D6069091D50696
:103D4000913061F41092D5069091D6069093BB0005
:103D50009091BC0093FDF8CF95EC01C095EE909347
:103D6000BC009091FB069230E1F39091F9069F3FE1
:103D700079F08091F906803241F08091F906803324
:103D800031F084E005C081E003C082E001C083E03F
:103D90001092FD0610921F071092FC060895682FDE
:103DA00081E797E00C94E519BC01990F880B990BFA
:103DB00097FD0C94D01D4AE00C948F1DCF93DF9398
:103DC000BC01990F880B990B97FF03C00E94D01D6F
:103DD00003C04AE00E948F1DEC0184EF94E00E9432
:103DE000771D8C0F9D1FDF91CF910895FC0180916D
:103DF000D406811103C08FEF9FEF08959FB7F89409
:103E000082E08093E9002091F20030E01216130660
:103E100014F421E030E02115310559F0289884E6AA
:103E20008093D3068091F10080838091F2008823F3
:103E300019F09FBFC90108958BE68093E800F9CF80
:103E4000CF93DF9300D000D0CDB7DEB7EEEAF7E036
:103E5000928199838A836B834C830190F081E02D5A
:103E60000190F081E02D44E050E0BE016F5F7F4F94
:103E70008EEA97E009950F900F900F900F90DF91C9
:103E8000CF9108959091B007892B891739F08093CD
:103E9000B00740E060E080E00C94201F089590910E
:103EA000B00780958923891739F08093B00740E0E7
:103EB00060E080E00C94201F0895DC01FB01129665
:103EC0008C91129790E02481358182179307D1F469
:103ED00091818081813A31F481E0913091F0933089
:103EE00089F411C0813271F49B3021F482811F96D4
:103EF0008C9305C09A3031F4828150968C9381E086
:103F00000895089580E00895DC01FB0188E4808332
:103F100089E4818384E482831D969C911D979F7020
:103F20009F5B93831D968D919C911E9724E096959F
:103F300087952A95E1F78F708F5B848385E00895DC
:103F4000FC0182818F5BFB01808381E00895EF9209
:103F5000FF920F931F93CF93DF93FB0120812138B2
:103F600051F52381223239F5DC0112962C9130E093
:103F70004481558142175307F1F4EC010B851C85F0
:103F8000E12CF12C0115110591F0F80144815581C6
:103F90006281738180E80E9426158F3FFFEF9F07A3
:103FA00069F0E80EF91ED8010D911C91EBCF81E06C
:103FB0008F87C70105C080E090E002C08FEF9FEFC0
:103FC000DF91CF911F910F91FF90EF900895CF93C4
:103FD000DF93CDB7DEB769970FB6F894DEBF0FBE9B
:103FE000CDBFFC01DB018C918F5F8C93BE016F5FB5
:103FF0007F4F89E1DB011D928A95E9F729E029834A
:1040000084E08A8391E09D8383E08E832A8721E286
:104010002B879C879D879F8722E2288B27E02B8B0D
:1040200025E02C8B8E8B20E430E0388F2F8B998FFE
:1040300082818B8395858685998B8A8B8381806825
:104040008D8B49E150E080E00E94261569960FB6FD
:10405000F894DEBF0FBECDBFDF91CF910895AF9230
:10406000BF92CF92DF92EF92FF920F931F93CF9365
:10407000DF931F92CDB7DEB77C0169836A015901D6
:1040800041E050E0BE016F5F7F4FFC0183810E94E1
:104090004D158C0197FD0BC0F7018381A501B60179
:1040A00080640E944D1597FD02C0800F911F0F90F4
:1040B000DF91CF911F910F91FF90EF90DF90CF9004
:1040C000BF90AF900895FC01A385B485109719F4B3
:1040D0007487638709C08D919C911197009711F0A7
:1040E000DC01F9CF6D937C9325853685DB01149631
:1040F0008D919C911597820F931F968785870895C0
:104100008091F307811137C081E08093E6078093A7
:10411000E7072CEE37E03093E9072093E807109289
:10412000EB071092EA0729E931E03093E307209387
:10413000E2071092EE071092ED071092F00710922E
:10414000EF078093F1078093F20781EC8093EC07EF
:104150000E944816FC0141812091E60730E0240FBF
:10416000311D2830310524F462EE77E00E940916F3
:1041700081E08093F30782EE97E008950F931F93F9
:10418000CF93DF93EB018A010E9480209801AE015A
:1041900061E0DF91CF911F910F910C942F200F932D
:1041A0001F93CF93DF931F92CDB7DEB78C01698346
:1041B0000E9447296981681741F0C8010F90DF917B
:1041C000CF911F910F910C944F290F90DF91CF91B8
:1041D0001F910F9108950C944729EF92FF920F932E
:1041E0001F93CF93DF93C82F880FDD0BCE01815A29
:1041F0009A4F7C01DC011C911150C431D10594F41B
:10420000133080F4CE0123E0880F991F2A95E1F73F
:10421000810F911D810F911D835B9C4F0E94EB20AC
:10422000082F01C000E0612FCE010E94750D602FA4
:104230000E945B0EFE01E95CFA4F8081811105C08E
:10424000D7011C92C55BDA4F18821082DF91CF91A3
:104250001F910F91FF90EF900895CF93DF93CDB70B
:10426000DEB7A2970FB6F894DEBF0FBECDBF78942D
:1042700084B5826084BD84B5816084BD85B582606B
:1042800085BD85B5816085BD80916E00816080931C
:104290006E00109281008091810082608093810085
:1042A0008091810081608093810080918000816095
:1042B0008093800080919100826080939100809132
:1042C0009100816080939100809190008160809343
:1042D00090008091C10084608093C1008091C100F2
:1042E00082608093C1008091C10081608093C10091
:1042F0008091C30081608093C3008091C000826080
:104300008093C0008091C20081608093C200809140
:104310007A00846080937A0080917A008260809332
:104320007A0080917A00816080937A0080917A008F
:10433000806880937A001092D40610921005109233
:104340000F058091D70081608093D70080EA809329
:10435000D80089B5806189BD89B5826089BD09B4FD
:1043600000FEFDCF61E070E080E090E00E94C51BA0
:104370008091D8008F7C80618093D8008091E0008C
:10438000807F8093E0008091E1008E7E8093E10049
:104390008DE08093E200559A209AEEEFFFE7859139
:1043A00094918B3F9C4D19F481E080930E050E94FF
:1043B0000D1E8FEF9FEF90932E0780932D078EEFAA
:1043C00093E00E94EB20182F80912007813019F490
:1043D0008BE997E002C087E897E00E94320F1093C4
:1043E00020070E940D1E10921605109215051092BE
:1043F000FD0610921F071092FB0681E08093FA06DB
:104400001092D50661E082E00E94021961E083E02B
:104410000E9402198091B9008E7F8093B90080912B
:10442000B9008D7F8093B90088E48093B80085E45B
:104430008093BC0047E355E08BE495E0EFE5F5E0C1
:104440001192DC011D92CD01DA011D92AD01B5E0A2
:10445000E337FB07A9F70FE111E0F801F0800E5FE9
:104460001F4F60E08F2D0E94891B61E08F2D0E94FD
:104470000219F1E009321F0781F709E211E0D801C2
:10448000FC900E5F1F4F60E08F2D0E94891B60E043
:104490008F2D0E940219B1E009331B0781F720E03C
:1044A00030E080E090E0AC01420F531FFA01ED587C
:1044B000FA4F11821082FA01EC5DF94F11821082DD
:1044C0000A968035910579F72E5F3F4F2A303105E6
:1044D00041F76CE271E080E090E00E94C51B2FB7CD
:1044E000F8948091110590911205A0911305B09157
:1044F00014052FBF8093CB059093CC05A093CD05D9
:10450000B093CE054091C7055091C8056091C9058B
:104510007091CA058C019D01041B150B260B370BEE
:10452000053011052105310560F08093C705909392
:10453000C805A093C905B093CA0581E080937406AD
:1045400002C01092740681E297E00E9410141816BF
:1045500019060CF04AC081E297E00E944E148032A6
:1045600019F189831A820091B5071091B6070F5F80
:104570001F4FB80181EB97E00E94F111882341F1B0
:104580002091B1073091B2078091B5079091B6079D
:10459000BE016F5F7F4F820F931F0E94F62810931A
:1045A000B6070093B50714C061EB77E0CE01019622
:1045B0000E943113CE0101960E94A001CE01019606
:1045C0000E942C1366EF74E081EB97E00E94C51205
:1045D0008091B5079091B6078536910530F066EF6A
:1045E00074E081EB97E00E94C512809174068823E5
:1045F00009F4DEC00091C5051091C6058FEF93E068
:104600000E94EB2090E0801791070CF4B7C2209134
:10461000C3053091C405821793070CF4AFC2E3E7DA
:104620004E2EE5E05E2E8201F9E2EF2EF1E0FF2E44
:10463000D7019C90B2E0EB0EF11C61E0892D0E9445
:10464000891B7FE1C72E71E0D72EA12CB12CF6017A
:10465000219131916F013327F901EC5CFE4F849178
:10466000F901EB5EFE4F8490F901EA50FF4F749020
:104670007720A1F081110E94C518E72DF0E0EE0F20
:10468000FF1FE851FF4FA591B491EC918E2231E0CC
:1046900020E009F430E0832F922F02C080E090E008
:1046A000F801EA0DFB1D21E082279183808332E02F
:1046B000A30EB11C8AE0A816B10409F0C8CF60E0CF
:1046C000892D0E94891B065F1F4F95E0033C190747
:1046D00009F0AECF44E2A42E46E0B42E54ED852E70
:1046E00055E0952E00E010E0C12CD12CE12CF12CEE
:1046F00095012C0D3D1D39A328A312012C0C3D1C46
:10470000D1018D919C91F9012081318128173907C0
:1047100071F1F401EC0DFD1D0197B9F46090C30532
:104720007090C40571826082A301B801C7010E9424
:10473000D90D282FA301B801C7012AA30E94ED0DAE
:104740002AA1622F0E944D0F12C060807180A301C8
:10475000B801C7010E94D90D282FA301B801C701D4
:104760002AA30E94ED0D2AA1622F0E945B0ED101A7
:104770008D919C91E8A1F9A191838083FFEFEF1ABD
:10478000FF0A2AE0C20ED11C30E5C316D10409F09D
:10479000AFCF0F5F1F4F82E0480E511C92E0A90E71
:1047A000B11CA2E08A0E911C0530110509F09CCFC6
:1047B000009100011091010161E085E00E94891BD8
:1047C0000115110511F460E004C00F3F110529F433
:1047D00061E085E00E9402197CC0E9E3F1E0E49128
:1047E0008E2F90E0FC013197EF30F10508F06CC09E
:1047F000EA5AFF4F0C94D72684B5806884BD07BD64
:1048000068C084B5806284BD08BD63C080918000AB
:10481000806880938000109389000093880059C0BD
:104820008091800080628093800010938B000093C1
:104830008A004FC080918000886080938000109330
:104840008D0000938C0045C080919000806880931B
:10485000900010939900009398003BC080919000C5
:1048600080628093900010939B0000939A0031C067
:104870008091900088608093900010939D00009339
:104880009C0027C08091C00080688093C000809108
:10489000C0008F7B8093C0000093CF001AC080912E
:1048A000C00080628093C0000093D00012C080914D
:1048B000C20088608093C2008091C2008B7F809389
:1048C000C2000093D20005C0003811050CF080CF63
:1048D0007ACF80917406882309F4C4C00091C5057D
:1048E0001091C6058091D1059091D205081719073E
:1048F000C9F081E08093FC0688E080931E07109247
:10490000FD0610921F0785E090E00E94CF1E602FE9
:1049100081E797E00E94E5190E94721E1093D2056C
:104920000093D1050091C3051091C4058091CF0576
:104930009091D00508171907C9F081E08093FC0613
:1049400088E080931E071092FD0610921F0781E0F9
:1049500090E00E94CF1E602F81E797E00E94E5194A
:104960000E94721E1093D0050093CF058091FB0624
:104970008111FCCF81E08093FB068093FA069FEFC4
:104980009093F9061092F8069EE19093F7068093B3
:10499000D6068091D60680618093D6068091D50692
:1049A000813061F41092D5068091D6068093BB00C9
:1049B0008091BC0083FDF8CF85EC01C085EE80932B
:1049C000BC008091FB068130E1F38091F8068F31C5
:1049D00018F41091F80601C01FE1A7EDB6E027E139
:1049E00035E0F9018E2F821B811718F48D91819388
:1049F000F9CF109216051093150580E000E0909114
:104A00001605191771F081E797E00E949919E1E006
:104A1000F0E0EC0FFD1FE00FF11D80830F5F81E0E0
:104A2000EECF8823F9F0E9808E010C5F1F4FCC2474
:104A3000C394D12CF12CCE14DF04A4F4F8013297E6
:104A4000808131966081F8019081923018F00E9447
:104A50004D0F02C00E945B0EF3E0CF0ED11C0D5F24
:104A60001F4FE9CF80917406811105C080917406B3
:104A700081114FC07BC0809102018823B9F38BE480
:104A8000C82E85E0D82E9FE5892E95E0992E2CE43E
:104A9000A22E23E0B22EE12CF12CD4011D914D0168
:104AA000112349F1F6018081882319F08150808318
:104AB00022C01150133050F4C501810F911D810F98
:104AC000911D01960E94EB20082F01C000E0612F8C
:104AD000C7010E94750D602F0E944D0FF701E95C20
:104AE000FA4F8081811107C080910201882319F05B
:104AF0008E2D0E94ED20FFEFEF1AFF0A0FEFC01A74
:104B0000D00A18E0A10EB11C24E1E216F10429F646
:104B1000ADCF809105018038A1F4809104018038E7
:104B200081F480910301803861F48091D30588235A
:104B3000E9F01092D3051092B00740E060E080E009
:104B400013C01092B00740E060E080E00E94201F98
:104B500081E08093D30540910301405860910401A6
:104B600060588091050180580E94201F80E090E0ED
:104B7000892B09F4B4CC0E940000B1CC1092C60578
:104B80001092C5051092C4051092C30548CDBC0112
:104B9000625F7F4FFC01838148E050E080640C94A9
:104BA0004D150A970C94C7251092240710922307DD
:104BB00088EE93E0A0E0B0E080932507909326076D
:104BC000A0932707B09328072DE331E03093220705
:104BD000209321072FEF3FEF30932E0720932D07CF
:104BE000109274071092730780937507909376075D
:104BF000A0937707B09378078DE491E090937207C4
:104C00008093710781E0809381078093820723E975
:104C100037E0309384072093830710928607109221
:104C2000850710928A07109289072DE531E03093AD
:104C30007E0720937D072BE631E030938807209391
:104C40008707809394078093950710929607109298
:104C500098071092970710929A071092990781EC83
:104C6000809393070E944816FC014181209181079F
:104C700030E0240F311D2830310524F46DE777E052
:104C80000E94091610929E0710929D0785E891E0F8
:104C900090939C0780939B078091BE07811113C05E
:104CA0001092B9071092B8078BE392E09093BB077C
:104CB0008093BA0786E390E09093BD078093BC078A
:104CC00081E08093BE070E94802068EB77E00E941D
:104CD00063201092B00783E991E09093AF0780932F
:104CE000AE078091CC07811113C01092C7071092B4
:104CF000C60781E792E09093C9078093C8078BE2CB
:104D000090E09093CB078093CA0781E08093CC0713
:104D10000E94802066EC77E00E94632066EF74E0DA
:104D200081EB97E00E946C148091DA07811113C027
:104D30001092D5071092D4078CE992E09093D70790
:104D40008093D6078BE490E09093D9078093D8079F
:104D500081E08093DA070E94802064ED77E00C9474
:104D6000632081EB97E00C942C13A1E21A2EAA1B6E
:104D7000BB1BFD010DC0AA1FBB1FEE1FFF1FA2170B
:104D8000B307E407F50720F0A21BB30BE40BF50B08
:104D9000661F771F881F991F1A9469F76095709591
:104DA000809590959B01AC01BD01CF010895EE0F58
:104DB000FF1F0590F491E02D0994CF93DF9382308B
:104DC000910510F482E090E0E091FD07F091FE077C
:104DD00020E030E0C0E0D0E0309711F14081518117
:104DE00048175907C0F04817590761F48281938129
:104DF000209719F09B838A832BC09093FE078093A2
:104E0000FD0726C02115310519F04217530718F484
:104E10009A01BE01DF01EF010280F381E02DDCCFBA
:104E20002115310509F1281B390B2430310590F487
:104E300012968D919C9113976115710521F0FB01DC
:104E40009383828304C09093FE078093FD07FD0146
:104E5000329644C0FD01E20FF31F819391932250DB
:104E600031092D933C933AC02091FB073091FC0708
:104E7000232B41F420911B0130911C013093FC073E
:104E80002093FB072091190130911A01211531055A
:104E900041F42DB73EB740911D0150911E01241BD6
:104EA000350BE091FB07F091FC07E217F307A0F444
:104EB0002E1B3F0B2817390778F0AC014E5F5F4F70
:104EC0002417350748F04E0F5F1F5093FC0740939F
:104ED000FB078193919302C0E0E0F0E0CF01DF9106
:104EE000CF9108950F931F93CF93DF93009709F409
:104EF0008CC0FC013297138212820091FD07109141
:104F0000FE070115110581F420813181820F931F65
:104F10002091FB073091FC072817390779F5F093AA
:104F2000FC07E093FB0771C0D80140E050E0AE17EA
:104F3000BF0750F412962D913C911397AD012115A6
:104F4000310509F1D901F3CF9D01DA0133832283C1
:104F500060817181860F971F8217930769F4EC01B6
:104F600028813981260F371F2E5F3F4F31832083E1
:104F70008A819B8193838283452B29F4F093FE07DA
:104F8000E093FD0742C01396FC93EE931297ED0158
:104F9000499159919E01240F351FE217F30771F4CF
:104FA00080819181840F951F029611969C938E9318
:104FB0008281938113969C938E931297E0E0F0E0A8
:104FC000D80112968D919C911397009719F0F801D2
:104FD0008C01F6CF8D919C9198012E5F3F4F820FEF
:104FE000931F2091FB073091FC072817390769F4BC
:104FF000309729F41092FE071092FD0702C0138229
:1050000012821093FC070093FB07DF91CF911F9151
:105010000F910895A0E0B0E0E0E1F8E20C9461297E
:10502000EC01009721F4CB010E94DD26B8C0FC0101
:10503000E60FF71F9C0122503109E217F30708F42D
:10504000ACC0D9010D911C91119706171707B0F04C
:105050000530110508F49FC0C8010497861797070B
:1050600008F499C002501109061B170B0193119304
:105070006D937C93CF010E9472278DC05B01A01AB3
:10508000B10A4C01800E911EA091FD07B091FE0760
:1050900040E050E0E12CF12C109709F44AC0A8152B
:1050A000B905D1F56D907C901197630182E0C80E2F
:1050B000D11CCA14DB0480F1A3014A195B096A01FF
:1050C00082E0C80ED11C1296BC9012971396AC9138
:1050D000B5E0CB16D10440F0B282A3835183408364
:1050E000D9016D937C930AC00E5F1F4FC301800FDF
:1050F000911FF90191838083EB2DFA2FE114F104C4
:1051000031F0D7011396FC93EE93129744C0F093BD
:10511000FE07E093FD073FC08D919C9111974817C2
:10512000590708F4AC017D0112960D90BC91A02D99
:10513000B3CF8091FB079091FC0788159905E1F4A6
:1051400046175707C8F48091190190911A010097EA
:1051500041F48DB79EB740911D0150911E01841BF3
:10516000950BE817F907C8F4F093FC07E093FB07E9
:10517000F901718360830FC0CB010E94DD267C01A1
:10518000009759F0A801BE010E94D928CE010E94C3
:105190007227C70104C0CE0102C080E090E0CDB705
:1051A000DEB7EEE00C947D2981E090E0F8940C9459
:1051B0009429FB01DC0102C001900D924150504046
:1051C000D8F70895FC018191861721F08823D9F73B
:1051D000992708953197CF010895FB01DC018D9146
:1051E000019080190110D9F3990B0895FB01DC019E
:1051F00001900D920020E1F70895FB01DC01415080
:10520000504030F08D910190801919F40020B9F7C9
:10521000881B990B08951F93FC0199278827BC01CF
:10522000E89411911032E9F3193010F01E30C8F3F0
:105230001B3251F01D3249F4689406C00E94322995
:10524000610F711D811D911D119110531A30B0F322
:105250003EF490958095709561957F4F8F4F9F4F4D
:105260001F910895592F482F372F262F660F771F2C
:10527000881F991F660F771F881F991F620F731F62
:10528000841F951F660F771F881F991F0895F9992E
:10529000FECF92BD81BDF89A992780B50895262F3B
:1052A000F999FECF1FBA92BD81BD20BD0FB6F8940B
:1052B000FA9AF99A0FBE019608952F923F924F9253
:1052C0005F926F927F928F929F92AF92BF92CF9296
:1052D000DF92EF92FF920F931F93CF93DF93CDB79F
:1052E000DEB7CA1BDB0B0FB6F894DEBF0FBECDBF17
:1052F00009942A88398848885F846E847D848C84E8
:105300009B84AA84B984C884DF80EE80FD800C81F0
:105310001B81AA81B981CE0FD11D0FB6F894DEBFD3
:105320000FBECDBFED01089511E0C5E7D1E004C087
:10533000FE010E94D7262196C637D107C9F7F894F7
:02534000FFCF9D
:1053420032000180808000C18081000000FFFFFFE9
:10535200FF00E10000000000000000FF07800004E1
:1053620000060007000800090015001400130012CF
:10537200000F000E0010000A0000000000EF13F3FF
:105382001510144E142A14051400000000E519B576
:1053920019AD1999198A19891900000000BA1A322F
:1053A2001B141BA01FC725F6FF0000440EC41314D4
:1053B2001AD125231A00000000EF11EF11EF11A0FE
:1053C2001F00000000440EC4135E1A7A1B741A00F8
:1053D200000000BE20000000005D1FE71FA71F8421
:1053E2001F756E697175656B726571696E666F00A6
:1053F200444550524543494154454400756E6971D4
:1054020075656B7265716E616D6500446976657272
:1054120067652033204D617374657200756E697122
:1054220075656B72657176617269616E7400756E15
:10543200697175656B726571647269766572004136
:105442006E696D757320496E6E6F766120322E35EE
:105452002E3100756E697175656B72657162756961
:105462006C64004F454D00756E697175656B7365AF
:10547200746B657900736574206B65792800756EAD
:10548200697175656B736574656570726F6D0073B4
:10549200657420454550524F4D2800756E697175EF
:1054A200656B7365746C617900736574206C6179E6
:1054B200657220636F756E7428006572726F723A3E
:1054C20020696E73756666696369656E7420454509
:1054D20050524F4D00756E697175656B6765746CDE
:1054E200617900756E697175656B67657465657064
:1054F200726F6D00756E697175656B6765746B654A
:10550200790072657475726E206B65792800756E0C
:10551200697175656B676574726F7700756E697115
:1055220075656B676574636F6C00756E697175651F
:105532006B7365746D617374657200736574206D4D
:1055420061737465722800756E697175656B736538
:10555200746E6B726F00736574204E4B524F206DE8
:105562006F646528006572726F723A20696E7661A7
:105572006C6964204E4B524F206F7074696F6E00DD
:10558200756E697175656B6765746E6B726F0075A8
:105592006E697175656B6765746D6F6473006765BD
:1055A20074206D6F64732800426C656450574D001F
:1055B200756E697175656B7365746272696768741B
:1055C2006E65737300736574206272696768746EC6
:1055D200657373282900756E697175656B676574EB
:1055E2006272696768746E657373006765742062BE
:1055F20072696768746E657373282900756E6971C4
:1056020075656B7365747375626B6579007375622A
:10561200206B6579207365743A20002C2000756E2A
:10562200697175656B736574737562656570726FA8
:105632006D0057726F746520746F20737562204518
:105642004550524F4D3A2000756E697175656B7306
:1056520065747375626C6179004564697465642070
:105662006C6179657220636F756E7420746F3A2075
:10567200004C6179657220636F756E742065646990
:10568200742061626F727465642C20696E73756632
:1056920066696369656E7420454550524F4D0075C9
:1056A2006E697175656B7365747375626272696731
:1056B200687400536574207375622062726967684A
:1056C200746E65737300493243006D6564696100ED
:1056D200756E697175656B7365746D6163726F0068
:1056E200736574206D6163726F28006475616C521A
:1056F2006F6C65730074617044616E636500756EF2
:10570200697175656B73657474617064616E6365EC
:10571200007365742074617064616E636528006D46
:105722006F7573654B65797300737469636B794B3D
:08573200657973000D0A000007
:2070000055C000006EC000006CC000006AC0000068C0000066C0000064C0000062C0000043
:2070200060C000005EC00000F2C400005AC0000058C0000056C0000054C0000052C00000EE
:2070400050C0000078C000004CC000004AC0000048C0000046C0000044C0000042C00000BE
:2070600040C000003EC000003CC000003AC0000038C0000036C0000034C0000032C0000048
:2070800030C000002EC000002CC000002AC0000028C0000026C0000024C0000022C00000A8
:2070A00020C000001EC000001CC0000011241FBECFEFDAE0DEBFCDBF11E0A0E0B1E0E2E3BC
:2070C000FFE702C005900D92A83AB107D9F711E0A8EAB1E001C01D92AE3BB107E1F78FD30B
:2070E00026C78ECFF89410926F0010928100109285001092840081E085BF15BE47985D9AEB
:20710000289A0C94000008952091B2013091B3012F5F3F4F3093B3012093B201932F37FFA6
:2071200003C08EEF831B982F990F921710F447980895479A08951F920F920FB60F9211246E
:207140002F938F939F93EF93FF9310928500109284008091A8019091A901009741F00197D3
:207160009093A9018093A801892B09F45D9A8091AA019091AB01009741F001979093AB0126
:207180008093AA01892B09F4289AE0E0F0E0859194918F5F9F4F49F08091AC019091AD0151
:2071A00001969093AD018093AC01FF91EF919F918F912F910F900FBE0F901F90189584E0BC
:2071C0008093E9000DC08091E8008B778093E80003C08EB3882351F08091E80082FFF9CFBE
:2071E0008091E80085FFEFCF8091F1000895982F83E08093E9008091E80085FD0DC0809136
:20720000E8008E778093E80003C08EB3882369F08091E80080FFF9CF9093F1005D9884E6CB
:2072200090E09093A9018093A80108954F925F926F927F928F929F92AF92BF92CF92DF921E
:20724000EF92FF920F931F93CF93DF9384E08093E9008091E80082FF57C2289884E690E067
:207260009093AB018093AA01AADF182F853481F48CE49DE19093AD018093AC0107B600FC4B
:20728000FDCFF999FECF81E180935700E89503C0843519F494DF8DE00DC28C34E1F38035F9
:2072A000D1F3843721F484E4A2DF80E003C2813611F489E5FFC18134B1F481DF182F7FDFE3
:2072C00090E0880F991FAA2797FDA095BA2F312F330F20E0442737FD4095542F822B932B68
:2072E000A42BB52BB8C1803711F483E5E3C1833549F4C0E0D1E089917ADF21E0C730D20714
:20730000D1F7D9C1863521F481E371DF80E3D2C1833731F487E86BDF85E969DF8EE1CAC149
:207320008536B9F4E0E0F0E093E085E090935700E89507B600FCFDCF80935700E89507B65D
:2073400000FCFDCFE058FF4FA0E7E030FA0771F7A2CF823739F4E1E0F0E089E08093570024
:207360008491A8C1863439F4E0E0F0E089E08093570084919FC18E3439F4E3E0F0E089E0E5
:2073800080935700849196C1813539F4E2E0F0E089E08093570084918DC1823631F489E521
:2073A00026DF80E024DF80E885C1823419F0873609F0E5C01092AD011092AC0100DF082FE8
:2073C000FEDEF82EFCDE682E8554823008F071C1902F80E0CF2DD0E0C82BD92B10926F00B3
:2073E000173609F04BC081E180935700E895DD24CC24C3943FC0E090AE01F090AF010091CC
:20740000B0011091B101B6E46B16D9F4ED2DF0E0EE29FF29E4918E2FEADEDD2081F082E08D
