:100000000C9451010C9479010C9479010C947901B0
:100010000C9479010C9479010C9479010C94790178
:100020000C9479010C9479010C94AB120C94B814D3
:100030000C9479010C9479010C9479010C94790158
:100040000C9479010C9479010C9479010C94790148
:100050000C9479010C9479010C9479010C94E81AB0
:100060000C9479010C9479010C9479010C94790128
:100070000C9479010C9479010C9479010C94790118
:100080000C9479010C9479010C9479010C94790108
:100090000C94321B0C9479010C9479010C94790125
:1000A0000C9479010C9479010C9479014D1A501A31
:1000B0003F1A431A491A711A711A711A541A581AA6
:1000C0005C1A621A661A711A6C1A0000000023008A
:1000D000260029002C002F00040404040403040556
:1000E00002020202040302020202060606060606D5
:1000F00004040202020404040802011040804010BB
:10010000204080408008020401804020100201103D
:100110008010204040200000000200090F00000372
:100120000401000C000000000000000000000000BE
:10013000000000000005010906A101850805071956
:10014000E029E715002501750195088102190029AC
:1001500067150025017501956881029501750815DF
:100160000026E700190029E78100C0050C0901A15C
:100170000185051500250109E909EA750195028146
:100180000609E29501810609B09501810609B1953C
:1001900001810609B79501810609B5950181060916
:1001A000B69501810609B39501810609B4950181CF
:1001B0000695068107C000000000250028002B00DE
:1001C0002E003100080B00020202010009040000A9
:1001D00001020200000524001001052401010104B0
:1001E00024020605240600010705810310004009CA
:1001F000040100020A000000070502024000000797
:100200000583024000000403090441726475696EAD
:100210006F204C4C430041726475696E6F204C65D1
:100220006F6E6172646F00120100020000004041B5
:1002300023368000010102030112010002EF0201D6
:10024000404123368000010102030105010906A196
:1002500001050719E029E7150025017501950881B9
:1002600002050C95017508150026FF00190029FFED
:1002700081000508190129089508750191020507F3
:1002800095067508150026E700190029E78100C0CA
:1002900000000000240027002A002D0030003F1D30
:1002A000662111241FBECFEFDAE0DEBFCDBF13E021
:1002B000A0E0B1E0ECEAF8E402C005900D92A83CA1
:1002C000B107D9F726E0A8ECB3E001C01D92AC3924
:1002D000B207E1F711E0C0E5D1E004C02197FE01CB
:1002E0000E948C21CF34D107C9F70E942E1E0C9496
:1002F00049240C9400003F924F925F926F927F923C
:100300008F929F92AF92BF92CF92DF92EF92FF9225
:100310000F931F93CF93DF93CDB7DEB763970FB6DD
:10032000F894DEBF0FBECDBF8C0165E971E00E947D
:100330008710882321F084EA91E00E94A40F60EBEB
:1003400071E0C8010E948710882321F08FEB91E0B3
:100350000E94A40F60ED71E0C8010E9487108823FD
:1003600021F08FEB91E00E94A40F62EE71E0C801D2
:100370000E948710882321F083EF91E00E94A40F50
:1003800067E072E0C8010E948710882319F087E1B6
:1003900092E0B4C16BE172E0CE0101960E94961228
:1003A000BE016F5F7F4FC8010E946C10F82ECE0116
:1003B00001960E947712FF2009F4F5C0C8010E943F
:1003C000310FAC014F5F5F4FB801CE0101960E9423
:1003D0006F0BBE016F5F7F4FC8010E94C711CE0136
:1003E00001960E947712C8010E94310F9C0140E0E3
:1003F00050E0B801CE0101960E942610CE01019670
:100400000E941B10962ECE0101960E947712C80101
:100410000E94310FAC014F5F5F4FB801CE010196D2
:100420000E946F0BBE016F5F7F4FC8010E94C71112
:10043000CE0101960E947712C8010E94310F9C01E3
:1004400040E050E0B801CE0101960E942610CE0196
:1004500001960E941B10A62ECE0101960E947712D3
:10046000C8010E94310FAC014F5F5F4FB801CE0150
:1004700001960E946F0BBE016F5F7F4FC8010E9403
:10048000C711CE0101960E947712C8010E94310F58
:100490009C0140E050E0B801CE0101960E94261078
:1004A000CE0101960E941B10B62ECE0101960E942D
:1004B0007712C8010E94310FAC014F5F5F4FB80146
:1004C000CE0101960E946F0BBE016F5F7F4FC80186
:1004D0000E94C711CE0101960E947712C8010E94A6
:1004E000310F9C0140E050E0B801CE0101960E941E
:1004F0002610CE0101960E941B10C62ECE01019639
:100500000E947712C8010E94310FAC014F5F5F4F0C
:10051000B801CE0101960E946F0BBE016F5F7F4F45
:10052000C8010E94C711CE0101960E947712C8012E
:100530000E941B10D62E87E0A89E70011124E90CA2
:10054000F11C83E2B89EE00CF11C1124EE0CFF1CA0
:100550006C2DC7010E94211D6D2DC70101960E94BF
:10056000211D89E292E00E942F0F892D0E948A0F9F
:100570008DE492E00E942F0F8A2D0E948A0F8DE455
:1005800092E00E942F0F8B2D0E948A0F8DE492E043
:100590000E942F0F8C2D0E948A0F8DE492E00E9402
:1005A0002F0F8D2D6FC062E372E0CE0101960E9485
:1005B0009612BE016F5F7F4FC8010E946C10F82E2B
:1005C000CE0101960E947712FF2009F45EC0C80197
:1005D0000E94310FAC014F5F5F4FB801CE01019611
:1005E0000E946F0BBE016F5F7F4FC8010E94C71151
:1005F000CE0101960E947712C8010E94310F9C0122
:1006000040E050E0B801CE0101960E942610CE01D4
:1006100001960E941B106B017C01CE0101960E9485
:100620007712C8010E94310FAC014F5F5F4FB801D4
:10063000CE0101960E946F0BBE016F5F7F4FC80114
:100640000E94C711CE0101960E947712C8010E9434
:100650001B10B62EC6010E94211D83E492E00E9469
:100660002F0FB601DD0C880B990B97FF03C00E947A
:10067000B20F03C04AE00E94490F8DE492E00E944D
:100680002F0F8B2D0E94910F7DC16FE472E0CE0180
:1006900001960E949612BE016F5F7F4FC8010E94B3
:1006A0006C10F82ECE0101960E947712FF2049F1BE
:1006B000C8010E94310FAC014F5F5F4FB801CE01FE
:1006C00001960E946F0BBE016F5F7F4FC8010E94B1
:1006D000C711CE0101960E947712C8010E941B101B
:1006E000F62E81E18F1540F06F2D8FEF93E00E9481
:1006F000211D8DE592E0D5C08EE692E00E94A40F08
:1007000041C169E872E0C8010E948710882319F08E
:100710008FEF93E02CC067E972E0CE0101960E9452
:100720009612BE016F5F7F4FC8010E946C10F82EB9
:10073000CE0101960E947712FF20E1F0C8010E94CD
:10074000310FAC014F5F5F4FB801CE0101960E949F
:100750006F0BBE016F5F7F4FC8010E94C711CE01B2
:1007600001960E947712C8010E941B10CB010E94C3
:100770003D1D88CF68EA72E0CE0101960E94961274
:10078000BE016F5F7F4FC8010E946C10F82ECE0132
:1007900001960E947712FF2009F487C0C8010E94C9
:1007A000310FAC014F5F5F4FB801CE0101960E943F
:1007B0006F0BBE016F5F7F4FC8010E94C711CE0152
:1007C00001960E947712C8010E94310F9C0140E0FF
:1007D00050E0B801CE0101960E942610CE0101968C
:1007E0000E941B10E62ECE0101960E947712C801CE
:1007F0000E94310FAC014F5F5F4FB801CE010196EF
:100800000E946F0BBE016F5F7F4FC8010E94C7112E
:10081000CE0101960E947712C8010E94310F9C01FF
:1008200040E050E0B801CE0101960E942610CE01B2
:1008300001960E941B10C62ECE0101960E947712CF
:10084000C8010E94310FAC014F5F5F4FB801CE016C
:1008500001960E946F0BBE016F5F7F4FC8010E941F
:10086000C711CE0101960E947712C8010E941B1089
:10087000A62EB12CD12CF12CA501B601C7010E94E6
:100880005B0B982EA501B601C7010E94460BF82EFE
:1008900086EB92E00E942F0F892D0E948A0F8DE433
:1008A00092E00E942F0F8F2DEDCE62EC72E0CE0110
:1008B00001960E949612BE016F5F7F4FC8010E9491
:1008C0006C10F82ECE0101960E947712FF2019F0CD
:1008D00085E090E015C060ED72E0CE0101960E94C7
:1008E0009612BE016F5F7F4FC8010E946C10F82EF8
:1008F000CE0101960E947712FF2029F087E090E058
:100900000E94D90F3FC06EED72E0CE0101960E94A9
:100910009612BE016F5F7F4FC8010E946C10F82EC7
:10092000CE0101960E947712FF2061F1C8010E945A
:10093000310FAC014F5F5F4FB801CE0101960E94AD
:100940006F0BBE016F5F7F4FC8010E94C711CE01C0
:1009500001960E947712C8010E941B10611103C00A
:100960001092010103C081E0809301018FEE92E0BB
:100970000E942F0F6091010170E080E090E04AE05A
:100980000E94490FB801CE0107960E947C126BEFBE
:1009900072E0CE0101960E949612BE016F5F7F4FFA
:1009A000CE0107960E946C10F82ECE0101960E948F
:1009B0007712FF2009F440C0CE0107960E94310F44
:1009C000AC014F5F5F4FBE01695F7F4FCE01019663
:1009D0000E946F0BBE016F5F7F4FCE0107960E9492
:1009E000C711CE0101960E947712CE0107960E9490
:1009F0001B10F62E82E08F15D0F06F2D8EEF93E056
:100A00000E94211D80919B04813019F486E195E0BC
:100A100002C082E095E00E94840CF0929B040E9448
:100A20000C0F8AE093E00E942F0F8F2D11C089E1F7
:100A300093E00E94A40F0EC064E373E0CE0107961A
:100A40000E948710882331F08EEF93E00E943D1DB5
:100A50000E94910FCE0107960E947712B801CE0135
:100A60000D960E947C1263E473E0CE010D960E9405
:100A70008710882321F082E593E00E942F0FBE01AA
:100A8000635F7F4FCE0107960E947C1263E473E0A0
:100A9000CE0101960E949612BE016F5F7F4FCE017C
:100AA00007960E946C10182FCE0101960E947712B3
:100AB000112321F08CE593E00E942F0FCE010796C1
:100AC0000E947712BE01635F7F4FCE0107960E949E
:100AD0007C1263E473E0CE0101960E949612BE017F
:100AE0006F5F7F4FCE0107960E946C10182FCE01CA
:100AF00001960E947712112321F085E693E00E946F
:100B00002F0FCE0107960E947712BE01635F7F4FC1
:100B1000CE0107960E947C1263E473E0CE01019639
:100B20000E949612BE016F5F7F4FCE0107960E9412
:100B30006C10182FCE0101960E947712112329F014
:100B400089E793E00E942F0F85C16FE673E0CE0125
:100B500001960E949612BE016F5F7F4FCE010796ED
:100B60000E946C10182FCE0101960E94771211235B
:100B700009F470C1CE0107960E94310FAC014F5F9E
:100B80005F4FBE01695F7F4FCE0101960E946F0BE0
:100B9000BE016F5F7F4FCE0107960E94C711CE0145
:100BA00001960E947712CE0107960E94310F9C0198
:100BB00040E050E0BE01695F7F4FCE0101960E9488
:100BC0002610CE0101960E941B10F62ECE01019632
:100BD0000E947712CE0107960E94310FAC014F5F41
:100BE0005F4FBE01695F7F4FCE0101960E946F0B80
:100BF000BE016F5F7F4FCE0107960E94C711CE01E5
:100C000001960E947712CE0107960E94310F9C0137
:100C100040E050E0BE01695F7F4FCE0101960E9427
:100C20002610CE0101960E941B10E62ECE010196E1
:100C30000E94771282E1F89E800111248BE08F15CB
:100C400048F088E08E1530F06E2DC801875A9D4F10
:100C50000E94211D480188EA881A8DEF980A5801E0
:100C600085EAA81A8DEFB80A065A1D4FC12CD12C5F
:100C7000412C512C32014394CE0107960E94310F32
:100C8000AC014F5F5F4FBE01695F7F4FCE010196A0
:100C90000E946F0BBE016F5F7F4FCE0107960E94CF
:100CA000C711CE0101960E947712CE0107960E94CD
:100CB000310F9C0140E050E0BE01695F7F4FCE01E3
:100CC00001960E942610CE0101960E941B10CE01B3
:100CD00001966B8B0E9477126B898BE08F1518F051
:100CE000C8010E94211DCE0107960E94310FAC0160
:100CF0004F5F5F4FBE01695F7F4FCE0101960E943B
:100D00006F0BBE016F5F7F4FCE0107960E94C71128
:100D1000CE0101960E947712CE0107960E94310FF4
:100D20009C0140E050E0BE01695F7F4FCE0101961B
:100D30000E942610CE0101960E941B10CE01019642
:100D40006B8B0E9477126B898BE08F1518F0C501B1
:100D50000E94211DCE0107960E94310FAC014F5F0A
:100D60005F4FBE01695F7F4FCE0101960E946F0BFE
:100D7000BE016F5F7F4FCE0107960E94C711CE0163
:100D800001960E947712CE0107960E94310F9C01B6
:100D900040E050E0BE01695F7F4FCE0101960E94A6
:100DA0002610CE0101960E941B10362ECE01019610
:100DB0000E9477128BE08F15C8F0C4010E943D1D80
:100DC000282FD301C2010C2C04C0880F991FAA1F21
:100DD000BB1F0A94D2F7332019F0622F682B03C08F
:100DE0008095622F6823C4010E94211D8FEFC81ACD
:100DF000D80A82E0A80EB11C0E5F1F4F88E0C8160B
:100E0000D10409F039CFCE0107960E94310FAC0111
:100E10004F5F5F4FBE01695F7F4FCE0101960E9419
:100E20006F0BBE016F5F7F4FCE0107960E94C71107
:100E3000CE0101960E9477128FE793E00E942F0F58
:100E40008F2D0E948A0F8DE492E00E942F0F8E2D2D
:100E50000E94910FCE0107960E947712BE01635F38
:100E60007F4FCE0107960E947C1263E473E0CE01AF
:100E700001960E949612BE016F5F7F4FCE010796CA
:100E80000E946C10182FCE0101960E947712112338
:100E900021F08AE893E00E942F0FCE0107960E946E
:100EA0007712BE01635F7F4FCE0107960E947C12CE
:100EB00063E473E0CE0101960E949612BE016F5F5B
:100EC0007F4FCE0107960E946C10182FCE0101961D
:100ED0000E947712112329F080E993E00E942F0FDE
:100EE00038C269E973E0CE0101960E949612BE01F4
:100EF0006F5F7F4FCE0107960E946C10182FCE01B6
:100F000001960E947712112309F423C2CE0107969D
:100F10000E94310FAC014F5F5F4FBE01695F7F4F91
:100F2000CE0101960E946F0BBE016F5F7F4FCE0115
:100F300007960E94C711CE0101960E947712CE013A
:100F400007960E94310F9C0140E050E0BE01695FAE
:100F50007F4FCE0101960E942610CE0101960E947D
:100F60001B10B62ECE0101960E947712CE01079675
:100F70000E94310FAC014F5F5F4FBE01695F7F4F31
:100F8000CE0101960E946F0BBE016F5F7F4FCE01B5
:100F900007960E94C711CE0101960E947712CE01DA
:100FA00007960E94310F9C0140E050E0BE01695F4E
:100FB0007F4FCE0101960E942610CE0101960E941D
:100FC0001B10362ECE0101960E947712CE01079695
:100FD0000E94310FAC014F5F5F4FBE01695F7F4FD1
:100FE000CE0101960E946F0BBE016F5F7F4FCE0155
:100FF00007960E94C711CE0101960E947712CE017A
:1010000007960E94310F9C0140E050E0BE01695FED
:101010007F4FCE0101960E942610CE0101960E94BC
:101020001B10462ECE0101960E947712CE01079624
:101030000E94310FAC014F5F5F4FBE01695F7F4F70
:10104000CE0101960E946F0BBE016F5F7F4FCE01F4
:1010500007960E94C711CE0101960E947712CE0119
:1010600007960E94310F9C0140E050E0BE01695F8D
:101070007F4FCE0101960E942610CE0101960E945C
:101080001B10562ECE0101960E947712CE010796B4
:101090000E94310FAC014F5F5F4FBE01695F7F4F10
:1010A000CE0101960E946F0BBE016F5F7F4FCE0194
:1010B00007960E94C711CE0101960E947712CE01B9
:1010C00007960E94310F9C0140E050E0BE01695F2D
:1010D0007F4FCE0101960E942610CE0101960E94FC
:1010E0001B10662ECE0101960E947712CE01079644
:1010F0000E94310FAC014F5F5F4FBE01695F7F4FB0
:10110000CE0101960E946F0BBE016F5F7F4FCE0133
:1011100007960E94C711CE0101960E947712CE0158
:1011200007960E94310F9C0140E050E0BE01695FCC
:101130007F4FCE0101960E942610CE0101960E949B
:101140001B10762ECE0101960E947712CE010796D3
:101150000E94310FAC014F5F5F4FBE01695F7F4F4F
:10116000CE0101960E946F0BBE016F5F7F4FCE01D3
:1011700007960E94C711CE0101960E947712CE01F8
:1011800007960E94310F9C0140E050E0BE01695F6C
:101190007F4FCE0101960E942610CE0101960E943B
:1011A0001B10862ECE0101960E947712CE01079663
:1011B0000E94310FAC014F5F5F4FBE01695F7F4FEF
:1011C000CE0101960E946F0BBE016F5F7F4FCE0173
:1011D00007960E94C711CE0101960E947712CE0198
:1011E00007960E94310F9C0140E050E0BE01695F0C
:1011F0007F4FCE0101960E942610CE0101960E94DB
:101200001B10962ECE0101960E947712CE010796F2
:101210000E94310FAC014F5F5F4FBE01695F7F4F8E
:10122000CE0101960E946F0BBE016F5F7F4FCE0112
:1012300007960E94C711CE0101960E947712CE0137
:1012400007960E941B10A62E0B2D10E083E18B1534
:1012500090F1780183E0EE0CFF1C8A95E1F76701BD
:1012600086EBC81A8CEFD80AC6010E943D1D8C7F00
:10127000682F630DC6010E94211DC6010E943D1DFD
:101280008370942D990F990F682F690FC6010E94E2
:10129000211D652DC701845B9C4F0E94211D672D78
:1012A000C701825B9C4F0E94211D692DC701805B95
:1012B0009C4F0E94211D462D60E0C8010E941E0B1C
:1012C000482D61E0C8010E941E0B4A2D62E0C80152
:1012D0000E941E0B8CEA93E00E942F0F8B2D0E9420
:1012E0008A0F8DE492E00E942F0F832D0E948A0FB7
:1012F0008DE492E00E942F0F842D0E948A0F8DE4CE
:1013000092E00E942F0F852D0E948A0F8DE492E0BB
:101310000E942F0F862D0E948A0F8DE492E00E947A
:101320002F0F872D0E948A0F8DE492E00E942F0FCD
:10133000882D0E948A0F8DE492E00E942F0F892D44
:101340000E948A0F8DE492E00E942F0F8A2D0E9446
:10135000910FCE0107960E947712BE01635F7F4F07
:10136000CE0107960E947C1263E473E0CE010196E1
:101370000E949612BE016F5F7F4FCE0107960E94BA
:101380006C10182FCE0101960E947712112321F0C4
:101390008AEB93E00E942F0FCE0107960E947712EE
:1013A00063E473E0CE010D960E948710882321F03C
:1013B00085EC93E00E942F0FCE010D960E947712CC
:1013C00063960FB6F894DEBF0FBECDBFDF91CF910D
:1013D0001F910F91FF90EF90DF90CF90BF90AF9053
:1013E0009F908F907F906F905F904F903F90089567
:1013F0008C3091058CF4683078F442E1489F90017C
:10140000499F300D1124C901860F911D860F911D32
:10141000855A9D4F0C943D1D80E00895CF93DF9336
:101420002091970430919804882319F02F5F3F4F43
:1014300002C0215031093093980420939704C09141
:101440009704D09198048FEF93E00E943D1D90E0A7
:10145000C817D9072CF0109298041092970407C06F
:10146000D7FF05C001979093980480939704DF916C
:10147000CF9108950F931F93CF93DF9381E08093D3
:10148000FC0308EE13E0C0E0D0E0F801808188237F
:10149000F9F0209711F480EE04C0C130D10521F499
:1014A00081EE0E94230F12C0C230D10511F482EEEA
:1014B000F8CFC330D10511F486EEF3CF80919704B5
:1014C000909198049093960480939504F80110826B
:1014D00021960F5F1F4FC431D105B9F6DF91CF912F
:1014E0001F910F910895EF92FF920F931F93CF9347
:1014F000DF931F92CDB7DEB78CEE94E00E94BC174D
:10150000813051F48CEE94E00E94BC17992790939F
:101510009604809395047BC0823081F58CEE94E034
:101520000E94BC17F82E8CEE94E00E94BC17E82EA7
:101530008CEE94E00E94BC17082F8CEE94E00E9481
:10154000BC17682F8CEE94E069830E94BC17182F9B
:1015500087E0E89E900111242F0D311D83E2089F42
:10156000200D311D11247901EE0CFF1C6981C7018A
:101570000E94211D612FC701019609C0833081F4AB
:101580008CEE94E00E94BC17682F8FEF93E00F90D1
:10159000DF91CF911F910F91FF90EF900C94211D3F
:1015A0008430E1F48CEE94E00E94BC17682F00E0D8
:1015B00010E02091050430E080910604281B3109D9
:1015C000121613064CF48CEE94E069830E94BC174B
:1015D000080F191F6981EDCFC801D9CF853051F4AB
:1015E0008CEE94E00E94BC17992790939804809306
:1015F00097040DC0863059F48CEE94E00F90DF9183
:10160000CF911F910F91FF90EF900C94BC170F900A
:10161000DF91CF911F910F91FF90EF90089540912E
:1016200000014093C90350E069EC73E08CEE94E054
:101630000E94D81781E080930001089584319105BC
:1016400084F4633070F423E0880F991F2A95E1F742
:10165000860F911D860F911D642F835B9C4F0C9408
:10166000211D0895843191057CF4633068F423E0F2
:10167000880F991F2A95E1F7845B9C4F860F911D77
:10168000860F911D0C943D1D80E00895E7E0E69FD4
:101690009001E79F300D1124820F931F63E2649F36
:1016A0009001659F300D1124820F931F880F991FA1
:1016B00001960C943D1DE7E0E69F9001E79F300DF9
:1016C0001124820F931F63E2649F9001659F300D88
:1016D0001124820F931F880F991F0C943D1DCF93E7
:1016E000DF93EC01FB01248135810E942610CE019D
:1016F000DF91CF9108950F931F93CF93DF93EC0168
:10170000E881F9810084F185E02D40E009958C01A4
:10171000892B39F0E881F9810680F781E02DCE012F
:101720000995C801DF91CF911F910F9108950F93F3
:101730001F93CF93DF93EC01E881F9810084F18559
:10174000E02D41E009958C01892B39F0E881F98180
:101750000680F781E02DCE010995C801DF91CF9178
:101760001F910F910895FF920F931F93CF93DF93D3
:101770008C01F62E0E94970BEC01892B21F06F2D26
:10178000C8010E947B0BCE01DF91CF911F910F9179
:10179000FF900895CF93DF93D82FC62F809101013A
:1017A000882309F454C0611104C08D2F0E94230FB7
:1017B0004EC0613091F06230C9F48091C80381114C
:1017C0000CC080919B046CE2813019F486E195E0B5
:1017D00002C082E095E00E94B30B80919704909143
:1017E0009804909396048093950431C06B3091F0E7
:1017F0006C3019F460E080EE24C06D3001F16E3081
:1018000019F460E086EE1DC06F3039F460E080EEC0
:101810000E94CA0B60E081EE14C0603129F460E0E0
:1018200080EE0E94CA0B07C0613119F460E080EEBF
:1018300004C0623161F460E081EE0E94CA0B60E096
:1018400082EE0E94CA0B60E08D2F0E94CA0B80912D
:1018500000018F31A8F4E82FF0E0E753FC4FD0836C
:10186000E1E0E80FF0E0E753FC4FC083E2E0E80F6F
:10187000F0E0E753FC4F91E090838D5F809300018F
:1018800080910101882391F18CEE8C0F8A3070F5E4
:10189000C43119F460E080EE04C0C53129F460E081
:1018A00081EE0E94CA0B12C0C63119F460E082EECC
:1018B000F8CFC73119F460E086EEF3CF809197043A
:1018C0009091980490939604809395048091C80316
:1018D00081110CC080919B046D2F813019F486E139
:1018E00095E002C082E095E00E94B30B8091010177
:1018F000882339F0C33129F48D2FDF91CF910C94D7
:10190000E11CDF91CF9108950F931F93CF93DF9345
:10191000EC01E881F9810480F581E02D09958C01C5
:10192000892B39F0E881F9810680F781E02DCE011D
:101930000995C801DF91CF911F910F9108956F9282
:101940007F928F929F92AF92BF92CF92DF92EF924F
:10195000FF920F931F93CF93DF9300D01F92CDB7C9
:10196000DEB7082F162F81E08093C8038091010114
:10197000882309F492C0611104C0802F0E94170FC0
:101980008CC0613021F0623059F41092C803802F6E
:10199000002E000C990B90939604809395047DC0C3
:1019A0006330B9F5011102C081E003C0013021F4B8
:1019B00080E00E940E0A71C0E0909704F0909804B5
:1019C00081E00E2C01C0880F0A94EAF7282F3AE034
:1019D000C32ED12C220F69F08FEFE81AF80A8FEF8F
:1019E00093E02B830E943D1D90E02B81E816F906C1
:1019F0001CF021E0E12CF12C822F802329F0F092C1
:101A00009804E092970449C091E0C91AD10811F7EF
:101A1000F6CF653089F42091950430919604802F9B
:101A2000002E000C990B2817390709F0B0CF8091D0
:101A3000970490919804AFCF6B3091F06C3019F40B
:101A400060E080EE24C06D3001F16E3019F460E08A
:101A500086EE1DC06F3039F460E080EE0E949F0C6E
:101A600060E081EE14C0603129F460E080EE0E94F5
:101A70009F0C07C0613119F460E080EE04C0623150
:101A800061F460E081EE0E949F0C60E082EE0E94B3
:101A90009F0C60E0802F0E949F0C809101018823A1
:101AA00061F1163051F580919B04813019F486E183
:101AB00095E002C082E095E00E94840C602F8EEFDA
:101AC00093E00E94211D80919B04813019F486E1EE
:101AD00095E002C082E095E00E94840C00939B0494
:101AE0000E940C0F80919B04813019F486E195E0EF
:101AF00002C082E095E00E94840C809100018F3149
:101B0000A8F4E82FF0E0E753FC4F0083E1E0E80F92
:101B1000F0E0E753FC4F1083E2E0E80FF0E0E7531A
:101B2000FC4F95E090838D5F8093000180910101CF
:101B3000882329F1143119F460E080EE09C01531D1
:101B400019F460E081EE04C0163139F460E082EEF1
:101B50000E949F0C1092C80312C0173119F460E064
:101B600086EEF6CF88EE810F863048F41092C803D7
:101B7000812F90E0479790939604809395048091ED
:101B80000101882309F45DC0173009F05AC0802E86
:101B9000002E000C99088CE0881691040CF051C0BE
:101BA00092E1090260011124C601875A9D4F0E94EB
:101BB0003D1D560196EAA91A9DEFB90AE12CF12CB8
:101BC000682E712C88EAC81A8DEFD80AE614F7043B
:101BD0002CF5C6010E943D1D90E00E2C02C095958B
:101BE00087950A94E2F76E2D80FF9AC0C4010E9487
:101BF000F809682FC5016B830E943D1D6B810E940F
:101C0000CA0B65E070E080E090E00E94AE1A9FEFA2
:101C1000E91AF90A82E0A80EB11CD8CF8091970486
:101C200090919804909396048093950480919B04DE
:101C3000813019F486E195E002C082E095E00E94CF
:101C4000840C80910101882359F1143049F5011168
:101C500002C081E017C0013011F482E013C00230ED
:101C600011F4198310C0033011F488E00BC0043064
:101C700011F480E107C0053011F480E403C00630A0
:101C800079F480E889831A820E94941C22E030E073
:101C9000AE014F5F5F4F65E00E94601C0E94F60E30
:101CA00080910101882309F463C0133139F5002EB6
:101CB000000C110BF801E55CFB4F8081843068F566
:101CC0008F5F8083043111056CF4C80123E0880F15
:101CD000991F2A95E1F7865B9C4F0E943D1D8695D2
:101CE000869501C080E0F801E95DFB4F880F808395
:101CF000F801ED5EFB4F81E080830FC01E3169F477
:101D0000802F002E000C990BFC01E851FC4F308114
:101D100021E02327208321110FC00E943A0A28C006
:101D2000C4010E94F809682FC5016B830E943D1D04
:101D30006B810E949F0C65CF011102C080EE03C031
:101D4000013021F481EE0E94170F10C0023011F40F
:101D500082EEF9CF033011F486EEF5CF0450003156
:101D600028F4039790939604809395041092FC03B3
:101D70000F900F900F90DF91CF911F910F91FF90D7
:101D8000EF90DF90CF90BF90AF909F908F907F901B
:101D90006F900895CF93DF93EC01E881F98104807F
:101DA000F581E02D0995E881F9810680F781E02D24
:101DB000CE01DF91CF910994BC01009791F0FC0115
:101DC00001900020E9F73197AF01481B590BE091D2
:101DD0009C04F0919D040280F381E02D8CE994E055
:101DE000099480E090E008950E948923CF93DF93C7
:101DF00000D0CDB7DEB719821A820E94941C22E06F
:101E000030E0AE014F5F5F4F65E00E94601C0F90B5
:101E10000F90DF91CF91089580919B04813019F448
:101E200086E195E002C082E095E00C94CA0E682F2E
:101E300080919B04813019F486E195E002C082E034
:101E400095E00C94970B682F80919B04813019F4D6
:101E500086E195E002C082E095E00C947B0B0C9447
:101E6000DC0ECF93DF93FC0124813581232B61F0BD
:101E7000C081D18168E270E0CE010E949723009773
:101E800019F08C1B9D0B02C08FEF9FEFDF91CF915C
:101E900008958F929F92AF92BF920F931F93CF930B
:101EA000DF93CDB7DEB7A1970FB6F894DEBF0FBEB4
:101EB000CDBF19A2423008F44AE08E010F5D1F4FDA
:101EC000842E912CA12CB12CA50194010E946A2191
:101ED000E62FB901CA0101501109EA3014F4E05D9E
:101EE00001C0E95CD801EC93232B242B252B61F74F
:101EF000C8010E94DC0EA1960FB6F894DEBF0FBE9B
:101F0000CDBFDF91CF911F910F91BF90AF909F9068
:101F10008F900895682F70E080E090E04AE00C9484
:101F2000490FCF93DF93682F70E080E090E04AE0A4
:101F30000E94490FEC0185EC93E00E94DC0E8C0FAF
:101F40009D1FDF91CF910895CF93DF930E94DC0E08
:101F5000EC0185EC93E00E94DC0E8C0F9D1FDF915D
:101F6000CF910895CF92DF92EF92FF92CF93DF93BC
:101F70006B017C01E0919C04F0919D040190F08143
:101F8000E02D6DE28CE994E00995EC016627772756
:101F9000CB016C197D098E099F094AE00E94490F07
:101FA0008C0F9D1FDF91CF91FF90EF90DF90CF902E
:101FB0000895CF93DF93BC01990F880B990B97FF7E
:101FC00003C00E94B20F03C04AE00E94490FEC0117
:101FD00085EC93E00E94DC0E8C0F9D1FDF91CF916A
:101FE0000895FC0180919A04811103C08FEF9FEF47
:101FF00008959FB7F89482E08093E9002091F20061
:1020000030E01216130614F421E030E021153105FA
:1020100059F0289884E6809399048091F100808398
:102020008091F200882319F09FBFC90108958BE6C3
:102030008093E800F9CFFC0180819181009711F035
:102040000C94C02360E070E0CB010895BF92CF9262
:10205000DF92EF92FF920F931F93CF93DF937C0158
:102060006B018A01E9012417350720F4812F8901CA
:10207000C42FD82F67EC73E0C7010E949612D601D7
:1020800014968D919C91159708171907D0F48C1709
:102090009D0708F4EC01D601ED91FC911197EC0F2E
:1020A000FD1FB08010824D915C91BA01600F711FCD
:1020B000C7010E945612D601ED91FC91EC0FFD1F55
:1020C000B082C701DF91CF911F910F91FF90EF90E8
:1020D000DF90CF90BF900895FB0144815581FC01B2
:1020E000248135812417350778F08081918100970C
:1020F00059F0FB01608171816115710529F00E9421
:10210000B22321E0892B09F020E0822F0895FC0101
:1021100024813581232B31F421E061157105A1F073
:10212000FB0108C0FC01808191816115710531F4CA
:1021300021E0FC018081882339F005C00E94A223A0
:1021400021E0892B09F020E0822F08950895409125
:10215000F0055091F1052091EE053091EF05421701
:102160005307B4F49091E8009570E1F39091E80082
:1021700092FD19C08093F1008091F0059091F105D6
:1021800001968F739927892B19F48EEF8093E800BD
:102190008091F0059091F10501969093F10580935F
:1021A000F00581E0089580E00895CF92DF92EF92EC
:1021B000FF920F931F93CF93DF931F92CDB7DEB79C
:1021C000182F062FE42E862F880F8E5F99830E948A
:1021D000A71083E00E94A710F12EC12E9981D92E5D
:1021E0008C2D8F19801798F4F601E7FE02C08491B8
:1021F00001C080810E94A710182F80E00E94A710C4
:102200008123FFEFCF1ADF0A8111EACF01C081E0FD
:102210000F90DF91CF911F910F91FF90EF90DF9082
:10222000CF900895615030F02091F100FC0120839F
:102230000196F8CF289884E6809399040895CF9268
:10224000DF92EF92FF920F931F93CF93DF936C0176
:102250007A018B01C0E0D0E0CE15DF0589F0D8010E
:102260006D918D01D601ED91FC910190F081E02DF1
:10227000C6010995892B11F47E0102C02196ECCF8D
:10228000C701DF91CF911F910F91FF90EF90DF90E9
:10229000CF900895CF93DF931F92CDB7DEB76983B8
:1022A000DC01ED91FC910280F381E02D41E050E0F2
:1022B000BE016F5F7F4F09950F90DF91CF91089519
:1022C00083E08093E9008091F200882319F08AE38B
:1022D0008093E8000895FC018485958597FD0BC0E7
:1022E0009FB7F89482E08093E9008091F2009FBF4D
:1022F00090E0019608959FB7F89482E08093E900FA
:102300008091F2009FBF90E008950F931F93CF93A9
:10231000DF931F92CDB7DEB78C01FC0184859585D4
:1023200097FF0EC0CE0101960E94F10F019719F49C
:10233000298130E002C02FEF3FEFF8013587248775
:10234000F801848595850F90DF91CF911F910F91B2
:102350000895CF93DF931F92CDB7DEB7FC0184853C
:10236000958597FD05C02FEF3FEF358724870BC07C
:10237000CE0101960E94F10F019719F4898190E036
:1023800002C08FEF9FEF0F90DF91CF9108950F93D1
:102390001F93CF93DF938C01EB018617970771F1A1
:1023A000FC01808191810097B1F06881798161158C
:1023B000710579F0428153812C813D814217530789
:1023C00040F00E94AB238C819D81F801958384832A
:1023D00013C00E94272288819981F801918380830C
:1023E0008A819B81938382838C819D819583848361
:1023F000198218821B821A821D821C82C801DF91F9
:10240000CF911F910F9108950F931F93CF93DF9357
:10241000EC0188819981009729F02A813B81261758
:10242000370788F48B016F5F7F4F0E94BF220097B0
:1024300061F0998388831B830A832C813D81232B40
:1024400011F4FC01108281E001C080E0DF91CF91A6
:102450001F910F910895EF92FF920F931F93CF93C7
:10246000DF93EC017B018A01BA010E9404122881EA
:10247000398181110DC02115310519F0C9010E9462
:102480002722198218821D821C821B821A8206C092
:102490001D830C83B701C9010E94AB23CE01DF91DC
:1024A000CF911F910F91FF90EF900895CF93DF93FD
:1024B000EC016115710559F0FB0101900020E9F76D
:1024C0003197AF01461B570B0E942B120CC088811D
:1024D0009981009711F00E942722198218821D828B
:1024E0001C821B821A82CE01DF91CF910895FC01DC
:1024F000808191810C942722FB01DC0111961C92B2
:102500001E9213961C921E92129715961C921E9262
:1025100014978617970749F06081718161157105DD
:1025200021F0448155810C942B120895FC011182F5
:10253000108213821282158214826115710551F086
:10254000FB0101900020E9F73197AF01461B570BC3
:102550000C942B1208951F920F920FB60F92112414
:102560008F939F938091E1009091E100937F9093EE
:10257000E10083FF0FC01092E90091E09093EB001F
:102580001092EC0092E39093ED0010929A0498E080
:102590009093F00082FF20C093E09093E900909127
:1025A000F200992319F09AE39093E8009091F205D4
:1025B000992339F09091F20591509093F205992367
:1025C00089F190919904992339F09091990491504F
:1025D00090939904992341F184FF10C08091E20007
:1025E0008E7E81608093E2008091E1008F7E8093F7
:1025F000E1008091FE038E7E806111C080FF16C0D5
:102600008091E2008E7E80618093E2008091E10003
:102610008E7E8093E1008091FE038E7E81608093A8
:10262000FE0304C05D9ACDCF289AD6CF9F918F919B
:102630000F900FBE0F901F901895BF92CF92DF9210
:10264000EF92FF920F931F93CF93DF936C018B0157
:10265000EB019BEFB92E2097C1F07E01C134D1056B
:102660001CF080E4E82EF12C8091E80082FFFCCF82
:10267000C8018C1B9D0B6E2D8C0D9D1D0E9412118F
:10268000B092E800CE19DF09E6CFC801DF91CF9103
:102690001F910F91FF90EF90DF90CF90BF90089522
:1026A000DF92EF92FF920F931F93CF93DF93D82E79
:1026B0008A017B01E40EF51EEB01CE15DF0571F0FA
:1026C000D7FE03C0FE01849101C088810E94A7103B
:1026D00021968111F2CF8FEF9FEF01C0C801DF91EA
:1026E000CF911F910F91FF90EF90DF9008958F92FF
:1026F0009F92AF92BF92CF92DF92EF92FF920F9391
:102700001F93CF93DF9300D01F92CDB7DEB7382F42
:102710008B0180919A04811103C08FEF9FEF7DC0E0
:102720008091FE0380FF05C08091E000826080936D
:10273000E0004A018AEFF82E832F8770E82E9FE38E
:10274000C92E832F8072B82E2AE3D22E832F807455
:10275000A82E8114910409F457C08FB7F894E09221
:10276000E9009091E80095FF05C09091F2002C2DB2
:10277000291B01C020E08FBF211110C0FA94FF2057
:1027800061F261E070E080E090E039834A835B832E
:102790000E94AE1A39814A815B81DBCF822F90E0A3
:1027A000881699060CF4282D6FB7F894E092E9008A
:1027B0008091E80085FF26C0822F90E0881A990A50
:1027C000BB2029F02150A8F01092F100FBCFF801B6
:1027D00037FF07C0215058F074917093F100319683
:1027E000F9CF215020F071917093F100FACF080FCA
:1027F000191F8091E80085FF0DC08114910411F428
:10280000A11008C06FBFA5CF5D9884E68093F20544
:10281000CA0103C0D092E800F5CF0F900F900F903F
:10282000DF91CF911F910F91FF90EF90DF90CF90AC
:10283000BF90AF909F908F900895CF93DF93EC015E
:1028400080911401882331F083E00E9477131816D9
:10285000190634F081E090E09B838A8380E090E069
:10286000DF91CF910895CF93DF93FC01DB01C2810B
:10287000D381209719F47383628308C08885998572
:10288000009711F0EC01FACFB987A88780811296E2
:102890008C931297818113968C9313979081159640
:1028A0008C911597890F808380E014969C911497E2
:1028B0008917A0F49181C92FD0E0AE014E5F5E4F21
:1028C00016962D913C911797280F311DE90128810B
:1028D000EA0128839F5F91838F5FE7CF81E0DF91DB
:1028E000CF9108958091E50581110DC082E080931C
:1028F000E10584E08093E2051092E4051092E3057F
:1029000081E08093E50581EE95E008950F931F9394
:10291000CF93DF931F92CDB7DEB782E0898342E485
:1029200050E064EC71E080E80E9450130E94721441
:10293000DC0112960D911C9113970115110569F098
:10294000D801ED91FC910280F381E02DBE016F5F13
:102950007F4FC801099597FF07C089810F90DF91CC
:10296000CF911F910F910895F80100851185E5CF52
:102970001F920F920FB60F921124CF92DF92EF9217
:10298000FF920F931F932F933F934F935F936F93F8
:102990007F938F939F93AF93BF93EF93FF93CF93C7
:1029A000DF93CDB7DEB76C97DEBFCDBF1092E900E5
:1029B0008091E80083FFF4C168E0CE0145960E9453
:1029C000121182EF8093E8008D8987FF05C09091F6
:1029D000E80090FFFCCF03C09EEF9093E800982F93
:1029E000907609F0C6C09E892F89188D91110CC070
:1029F000803829F48091FF038093F10002C0109287
:102A0000F1001092F10041C1422F50E0512B913062
:102A100051F481113AC14130510509F036C180911C
:102A2000FF038D7F0BC0933061F481112EC14130C3
:102A3000510509F02AC18091FF0382608093FF0352
:102A400024C1953041F48091E80080FFFCCF2068DC
:102A50002093E3001AC1963009F05FC0EB8CFC8C28
:102A60001092E9001092F1051092F005123091F5E4
:102A70001092EF051092EE050E94861499E0BE01B7
:102A80006F5F7F4FDB01E92F1D92EA95E9F799838C
:102A90001A8391E09E8390EA98879AEF9987209114
:102AA000F0053091F105275F3F4F3C832B838D83E9
:102AB0001092E9001092F1051092F005F092EF05E6
:102AC000E092EE0549E050E080E00E9450130E9441
:102AD0008614DBC0F092EF05E092EE050E947214BE
:102AE000DC011296ED90FC901397E114F10409F4C7
:102AF000BAC0D701ED91FC910480F581E02DBE01B3
:102B00006B5E7F4FC7010995009719F00CF0BDC0AF
:102B1000C0C0F701E084F184E8CF973009F4B9C070
:102B2000983021F481E08093F100AFC0993009F032
:102B3000ACC0837009F0ADC0E3E0F1E081E021E0DA
:102B400036E39081992361F08093E9002093EB00B4
:102B500091919093EC003093ED008F5F873089F76F
:102B60008EE78093EA001092EA008F8980939A049E
:102B70008CC08B8D9C8D1092E9001092F105109203
:102B8000F0059093EF058093EE05898D811150C07B
:102B90008E899D89913A59F4813209F07AC047E0D3
:102BA00050E06DE071E080E00E9450136EC0913201
:102BB00009F06FC0833289F4888D90E0982F8827C0
:102BC0002F89822BA0E0B0E08093090190930A0145
:102BD000A0930B01B0930C0158C0803239F467E028
:102BE00070E08DE091E00E941D1306C0823209F072
:102BF0004CC08F89809314018091FD03882319F0C4
:102C0000EEEFFAE002C0E0E0F8E080910D01909173
:102C10000E01A0910F01B0911001803B9440A105DD
:102C2000B10509F088C08091140180FFA0C083C065
:102C30000E947214DC0112960D911C9113970115DC
:102C4000110539F1D801ED91FC910190F081E02D51
:102C5000BE016B5E7F4FC8010995811116C0F80156
:102C600000851185ECCF1130C1F0133091F48F89BC
:102C7000882309F455C08230E9F440E860E186E138
:102C800092E00E94D510882321F08EEF8093E80017
:102C900087C081E28093EB0083C08B8D9C8D089769
:102CA00011F41093ED058091ED05811136C067E2B6
:102CB00072E038C0813029F440E86BE08AE092E0AD
:102CC000E0CF833031F70E947214DC011296ED9050
:102CD000FC9013978E010F5F1F4F6801E114F10400
:102CE00079F0D701ED91FC910680F781E02DB801D4
:102CF000C7010995080F111DF701E084F184EECF9B
:102D0000D8011C92F60101900020E9F73197BF012C
:102D10006C197D0940E0C601B4CF69E372E002C0DE
:102D200066E072E06115710509F4B3CFFB014491CF
:102D300050E080E839CF0FB6F894A89580916000F4
:102D4000886180936000109260000FBEA895EE3FEE
:102D50002AE0F20739F08091FE0A9091FF0A9183F0
:102D6000808393CF1092FF0A1092FE0A8ECFEE3F1F
:102D70008AE0F80731F0808191819093FF0A809377
:102D8000FE0A87E797E7918380839BE088E10FB68F
:102D9000F894A895809360000FBE9093600075CF63
:102DA0006C960FB6F894DEBF0FBECDBFDF91CF910A
:102DB000FF91EF91BF91AF919F918F917F916F9113
:102DC0005F914F913F912F911F910F91FF90EF9045
:102DD000DF90CF900F900FBE0F901F9018951F930C
:102DE000CF93DF93282F30E0F901EA5EFE4F849104
:102DF000F901E950FF4FD491F901E852FF4FC49116
:102E0000CC23C9F0162F81110E94351AEC2FF0E067
:102E1000EE0FFF1FEA54FE4FA591B4918FB7F894BF
:102E2000111105C09C91ED2FE095E92302C0EC91B2
:102E3000ED2BEC938FBFDF91CF911F9108953FB79A
:102E4000F8948091940690919506A0919606B09181
:102E5000970626B5A89B05C02F3F19F00196A11D26
:102E6000B11D3FBFBA2FA92F982F8827820F911D20
:102E7000A11DB11DBC01CD0142E0660F771F881F67
:102E8000991F4A95D1F7089585ED8093BC008091F4
:102E9000BC0084FDFCCF10920204089540914C06C2
:102EA000262F30E0240F311D21323105DCF4209132
:102EB00002042430C9F4FC0180E090E0861758F445
:102EC00030914C062191DC01A45DB94FA30FB11DD7
:102ED0002C930196F3CF80914C06680F60934C06BB
:102EE00080E0089581E0089582E00895E0910B0468
:102EF000F0910C04309729F010920404109203040E
:102F000009940895CF93DF93AC01E0910D04F09103
:102F10000E043097F1F09091060480910504981703
:102F2000C0F090E0292F30E02617370754F4D9017C
:102F3000A45FB94FEA01C20FD31F88818C939F5FB2
:102F4000F1CF1092060460930504CB01DF91CF917D
:102F50000994DF91CF9108950895E091060480913E
:102F60000504E81730F4F0E0E45FF94F808190E069
:102F700008958FEF9FEF08959091060480910504C6
:102F8000981750F4E92FF0E0E45FF94F208130E02A
:102F90009F5F9093060402C02FEF3FEFC901089591
:102FA0008091050490E020910604821B9109089508
:102FB000CF93DF9300D0CDB7DEB7CB01642F498329
:102FC0005A830E944E174981842F5A81952F0F9062
:102FD0000F90DF91CF910895CF93DF931F92CDB7DC
:102FE000DEB7698361E0CE0101960E944E1781E051
:102FF00090E00F90DF91CF910895FC0134969C01F1
:10300000245F3F4F80E090E0408141110196119292
:10301000E217F307C9F70895FC0120E2260F2830D4
:10302000F0F0DC01169620E030E08D91442349F069
:10303000861304C0E20FF31F668326C0811107C008
:10304000F9CF861304C0E20FF31F16821DC02F5F55
:103050003F4F2630310549F780E090E008953481F4
:10306000442349F081E090E001C0880F2A95EAF7F7
:10307000832B848309C041E050E001C0440F2A95AE
:10308000EAF740954323448381E090E00895FC01F2
:1030900034969C012D5E3F4F80E090E0608160FDA2
:1030A0000196462F50E055954795642F452BB9F76B
:1030B0001192E217F30791F70895FC016836B8F40E
:1030C000862F877021E030E001C0220F8A95EAF751
:1030D000669566956695E60FF11D442319F0858186
:1030E000282B03C0209595812923258326C050E2F3
:1030F000560F5830B0F46481442349F021E030E0A9
:1031000001C0220F5A95EAF7262B248316C081E0CE
:1031100090E001C0880F5A95EAF780958623848352
:103120000CC08289442331F0861711F0811108C048
:10313000628B03C0861304C0128A81E090E0089578
:1031400080E090E00895DC01FB0112968C911297CB
:1031500090E02481358182179307D1F49181808199
:10316000813A31F481E0913091F0933089F411C0CB
:10317000813271F49B3021F482811F968C9305C0BB
:103180009A3031F4828150968C9381E008950895AD
:1031900080E00895DC01FB0188E4808389E4818379
:1031A00084E482831D969C911D979F709F5B9383FF
:1031B0001D968D919C911E9724E0969587952A9552
:1031C000E1F78F708F5B848385E00895FC01828135
:1031D0008F5BFB01808381E00895CF93DF93EC0147
:1031E000FB018A8190E0248135818217930709F0E1
:1031F0004AC081819081913A69F4813009F441C0DB
:10320000833011F48F8903C08230E9F5888D809373
:10321000F10037C09132B9F58B3019F482818F8B70
:1032200030C08A3019F48281888F2BC0893059F5DB
:10323000668177818381833079F48C8D9D8D6817C9
:10324000790709F58A8D9B8D0E941D138C8D9D8DAC
:1032500090689D8F8C8F15C0823041F4613071056C
:1032600091F461E070E0CE01499609C0813059F4D3
:103270006830710541F468E070E0CE010E960E945E
:103280001D1381E001C080E0DF91CF910895FB0123
:1032900020812138B9F423812232A1F4DC01129675
:1032A0002C91129730E0448155814217530751F415
:1032B00021E057962C9345E450E06BE472E080E8FF
:1032C0000C94501380E090E00895CF93DF93CDB736
:1032D000DEB769970FB6F894DEBF0FBECDBFFC0115
:1032E000DB019C919F5F9C93BE016F5F7F4F89E1E3
:1032F000DB011D928A95E9F729E0298384E08A831E
:1033000091E09D8383E08E839F8398872A8721E2C3
:103310002B879C879D879F8722E2288B25E4298B1A
:1033200027E02B8B25E02C8B8E8B20E430E0388F30
:103330002F8B998F82818B83838180688D8B49E16C
:1033400050E080E00E94501369960FB6F894DEBFFB
:103350000FBECDBFDF91CF910895EF92FF920F93F3
:103360001F93CF93DF93FB012081213851F52381F7
:10337000223239F5DC0112962C9130E044815581DE
:1033800042175307F1F4EC010B851C85E12CF12C5D
:103390000115110591F0F801448155816281738115
:1033A00080E80E9450138F3FFFEF9F0769F0E80EFF
:1033B000F91ED8010D911C91EBCF81E08F87C701D9
:1033C00005C080E090E002C08FEF9FEFDF91CF91CA
:1033D0001F910F91FF90EF900895CF93DF93CDB79A
:1033E000DEB769970FB6F894DEBF0FBECDBFFC0104
:1033F000DB018C918F5F8C93BE016F5F7F4F89E102
:10340000DB011D928A95E9F729E0298384E08A830C
:1034100091E09D8383E08E832A8721E22B879C871E
:103420009D879F8722E2288B27E02B8B25E02C8B22
:103430008E8B20E430E0388F2F8B998F82818B83A5
:1034400095858685998B8A8B838180688D8B49E1F0
:1034500050E080E00E94501369960FB6F894DEBFEA
:103460000FBECDBFDF91CF91089590E0FC01319761
:10347000EF30F105B0F5EA5AFF4F0C948C218091A2
:1034800080008F7703C0809180008F7D80938000C3
:10349000089580918000877FF9CF84B58F7702C02F
:1034A00084B58F7D84BD0895809190008F7707C08B
:1034B000809190008F7D03C080919000877F8093E2
:1034C000900008958091C0008F7703C08091C00064
:1034D0008F7D8093C00008958091C200877F809384
:1034E000C2000895CF93DF9390E0FC01E950FF4FB5
:1034F0002491FC01E852FF4F8491882361F190E010
:10350000880F991FFC01E057FD4FC591D491FC0134
:10351000EA54FE4FA591B491611109C09FB7F89488
:103520008881209582238883EC912E230BC0623002
:1035300061F49FB7F8943881822F80958323888324
:10354000EC912E2B2C939FBF06C08FB7F894E88187
:103550002E2B28838FBFDF91CF9108958F929F925A
:10356000AF92BF92CF92DF92EF92FF926B017C01FC
:103570000E941F174B015C01C114D104E104F10446
:10358000F1F00E941F17DC01CB0188199909AA09E3
:10359000BB09883E9340A105B10570F321E0C21A32
:1035A000D108E108F10888EE880E83E0981EA11C7E
:1035B000B11CC114D104E104F10419F7DDCFFF906F
:1035C000EF90DF90CF90BF90AF909F908F90089535
:1035D0001F920F920FB60F9211242F933F938F9348
:1035E0009F93AF93BF9380910F0490911004A0918B
:1035F0001104B09112043091930623E0230F2D376C
:1036000020F40196A11DB11D05C026E8230F0296E6
:10361000A11DB11D2093930680930F049093100475
:10362000A0931104B0931204809194069091950692
:10363000A0919606B09197060196A11DB11D8093A9
:10364000940690939506A0939606B0939706BF9123
:10365000AF919F918F913F912F910F900FBE0F903F
:103660001F9018951F920F920FB60F9211242F934F
:103670003F934F935F936F937F938F939F93AF93FA
:10368000BF93EF93FF938091B900887F803609F450
:103690009CC068F5883209F45BC090F4803109F46D
:1036A00054C038F4882309F4F6C0883009F44DC0BA
:1036B000F6C0883109F44CC0803209F45DC0EFC017
:1036C000803409F468C048F4803309F455C0883365
:1036D00009F0E5C080936F06D8C0803509F44FC06B
:1036E000883509F45DC0883409F0D9C0D6C088395E
:1036F00009F4C7C0A8F4883709F467C038F48836DD
:1037000009F463C0803709F460C0C9C0883809F47F
:10371000B8C0803909F45FC0803809F0C0C05BC010
:10372000803B09F486C038F4803A09F466C0883AD0
:1037300009F47FC0B4C0803C09F4A7C0883C09F4F8
:10374000A4C0883B09F48AC0AAC08091920610C028
:103750009091910680919006981770F5E0919106EE
:1037600081E08E0F80939106F0E0E059F94F80815F
:103770008093BB0085EC86C080936F068EC0E0917D
:10378000910681E08E0F809391068091BB00F0E05E
:10379000E059F94F808390919106809190066EC018
:1037A000E091910681E08E0F809391068091BB009D
:1037B000F0E0E059F94F80838091010481116DC0E0
:1037C00081E08093000484EA61C083E08093020476
:1037D00010926E06CFCF80916E06803208F051C0F5
:1037E000E0916E0681E08E0F80936E068091BB00A3
:1037F000F0E0E25BF94F8083BDCF85EC8093BC00A5
:103800001092020480916E06803230F4E0916E06D0
:10381000F0E0E25BF94F108260916E0670E0E0919B
:103820000704F09108048EE496E0099510926E0664
:1038300036C084E08093020410924D0610924C062C
:10384000E0910904F0910A04099580914C068111D8
:1038500005C081E080934C0610922C06E0914D0645
:1038600081E08E0F80934D06F0E0E45DF94F80819A
:103870008093BB0090914D0680914C06981708F4F8
:1038800079CF85E88093BC000AC085EC8093BC00AA
:103890001092020404C010926F060E944417FF9118
:1038A000EF91BF91AF919F918F917F916F915F91B8
:1038B0004F913F912F910F900FBE0F901F90189531
:1038C000AF92BF92CF92DF92EF92FF920F931F932E
:1038D000CF93DF931F92CDB7DEB77C0169836A0176
:1038E000590141E050E0BE016F5F7F4FFC018381D1
:1038F0000E9477138C0197FD0BC0F7018381A5010E
:10390000B60180640E94771397FD02C0800F911F5B
:103910000F90DF91CF911F910F91FF90EF90DF906B
:10392000CF90BF90AF90089580910406811137C069
:1039300081E08093F7058093F8052DEF35E0309313
:10394000FA052093F9051092FC051092FB052DE86D
:1039500031E03093F4052093F3051092FF051092A7
:10396000FE051092010610920006809302068093D5
:10397000030681EC8093FD050E947214FC014181D5
:103980002091F70530E0240F311D2830310524F453
:1039900063EF75E00E94331481E08093040683EFA7
:1039A00095E00895CF93DF93EC010E94941CAE0143
:1039B0004C5F5F4F2FE030E068E0DF91CF910C94D7
:1039C000601CEF92FF920F931F93CF93DF93C82F4A
:1039D000880FDD0BCE01855C9B4F7C01DC011C91C7
:1039E0001150C431D10594F4133080F4CE0123E09A
:1039F000880F991F2A95E1F7810F911D810F911D65
:103A0000835B9C4F0E943D1D082F01C000E0612F89
:103A1000CE010E94320B602F0E94CA0BFE01ED5EA8
:103A2000FB4F8081811105C0D7011C92C95DDB4F1E
:103A300018821082DF91CF911F910F91FF90EF902C
:103A400008950F931F93CF93DF931F92CDB7DEB7E7
:103A50008C0169830E94FC236981681741F0C801C9
:103A60000F90DF91CF911F910F910C9404240F9030
:103A7000DF91CF911F910F9108950C94FC23109228
:103A80009F0410929E0488EE93E0A0E0B0E0809343
:103A9000A0049093A104A093A204B093A30427E3ED
:103AA00031E030939D0420939C042FEF3FEF30933F
:103AB000A9042093A8041092EF041092EE048093BE
:103AC000F0049093F104A093F204B093F30487E41C
:103AD00091E09093ED048093EC0481E08093FC04EA
:103AE0008093FD042EE035E03093FF042093FE0424
:103AF0001092010510920005109205051092040520
:103B000027E531E03093F9042093F80425E631E00D
:103B1000309303052093020580930F0580931005D1
:103B200010921105109213051092120510921505AE
:103B30001092140581EC80930E050E947214FC0112
:103B400041812091FC0430E0240F311D28303105E3
:103B500024F468EF74E00E94331410921905109257
:103B600018058FE791E090931705809316058091D3
:103B7000CB05811113C01092C6051092C50585E3CF
:103B800091E09093C8058093C70586E390E09093F9
:103B9000CA058093C90581E08093CB050E94941CDF
:103BA000FC01A385B485109729F485EC95E09487F2
:103BB00083870BC08D919C911197009711F0DC01C8
:103BC000F9CF85EC95E08D939C9325853685809182
:103BD000C9059091CA05820F931F9687858767EC68
:103BE00073E089E295E00E9496128091D9058111D7
:103BF00013C01092D4051092D3058BE691E09093F8
:103C0000D6058093D5058BE490E09093D8058093FA
:103C1000D70581E08093D9050E94941CFC01A385FF
:103C2000B485109729F483ED95E0948783870BC0C2
:103C30008D919C911197009711F0DC01F9CF83EDE4
:103C400095E08D939C93258536858091D70590913D
:103C5000D805820F931F968785870895CF93DF93AA
:103C6000CDB7DEB729970FB6F894DEBF0FBECDBF34
:103C7000789484B5826084BD84B5816084BD85B547
:103C8000826085BD85B5816085BD80916E00816053
:103C900080936E00109281008091810082608093F9
:103CA00081008091810081608093810080918000FB
:103CB0008160809380008091910082608093910068
:103CC000809191008160809391008091900081604B
:103CD000809390008091C10084608093C1008091A6
:103CE000C10082608093C1008091C1008160809397
:103CF000C1008091C30081608093C3008091C000A7
:103D000082608093C0008091C20081608093C20075
:103D100080917A00846080937A0080917A0082603A
:103D200080937A0080917A00816080937A008091FC
:103D30007A00806880937A0010929A041092FF03B0
:103D40001092FE038091D70081608093D70080EAB3
:103D50008093D80089B5806189BD89B5826089BDAD
:103D600009B400FEFDCF61E070E080E090E00E94C9
:103D7000AE1A8091D8008F7C80618093D8008091AA
:103D8000E000807F8093E0008091E1008E7E809350
:103D9000E1008DE08093E200559A209AEEEFFFE774
:103DA000859194918B3F9C4D19F481E08093FD03A4
:103DB0000E940C0F8FEF9FEF9093A9048093A804AB
:103DC0008EEF93E00E943D1D182F80919B0481305F
:103DD00019F486E195E002C082E095E00E94840C2F
:103DE00010939B040E940C0F80E18093BA0086E739
:103DF00097E190930A048093090482E897E19093F5
:103E0000080480930704109206041092050410928F
:103E10000404109203041092020481E080930104D0
:103E20001092000461E082E00E94EF1661E083E0FE
:103E30000E94EF168091B9008E7F8093B900809127
:103E4000B9008D7F8093B90088E48093B80085E441
:103E50008093BC00109201018FE09BE090930C04D2
:103E600080930B0483E79AE090930E0480930D04F3
:103E700043E154E087E294E0EBE3F4E01192DC01EB
:103E80001D92CD01DA011D92AD01B4E0EF34FB07C4
:103E9000A9F70BE111E0F801F0800E5F1F4F60E021
:103EA0008F2D0E94721A61E08F2D0E94EF16F1E0B3
:103EB00005321F0781F705E211E0D801FC900E5F83
:103EC0001F4F60E08F2D0E94721A60E08F2D0E94BC
:103ED000EF16B1E003331B0781F720E030E080E00C
:103EE00090E0AC01420F531FFA01E15BFB4F1182DE
:103EF0001082FA01E258FA4F118210820A96863433
:103F0000910579F72E5F3F4F2A30310541F76CE27A
:103F100071E080E090E00E94AE1A2FB7F894809193
:103F20000F0490911004A0911104B09112042FBFBE
:103F30008093340590933505A0933605B0933705EB
:103F400040913005509131056091320570913305F3
:103F50008C019D01041B150B260B370B0730110537
:103F60002105310560F08093300590933105A093D1
:103F70003205B093330581E08093C40502C01092EE
:103F8000C4058CE994E00E946B11181619060CF018
:103F90004AC08CE994E00E94A911803219F189830A
:103FA0001A8200912D0510912E050F5F1F4FB80149
:103FB00089E295E00E940412882341F120912905AD
:103FC00030912A0580912D0590912E05BE016F5FDD
:103FD0007F4F820F931F0E94AB2310932E050093F7
:103FE0002D0514C069E275E0CE0101960E947C1295
:103FF000CE0101960E947B01CE0101960E947712AC
:1040000067EC73E089E295E00E94561280912D05DD
:1040100090912E058536910530F067EC73E089E2CA
:1040200095E00E9456128091C405882309F4DEC0F1
:1040300000919704109198048FEF93E00E943D1D2A
:1040400090E0801791070CF42BC1209195043091DA
:104050009604821793070CF423C17FE4472E74E083
:10406000572E8201E5E2EE2EE1E0FE2ED7019C9074
:10407000B2E0EB0EF11C61E0892D0E94721A6BE137
:10408000C62E61E0D62EA12CB12CF60121913191E2
:104090006F013327F901EA5EFE4F8491F901E9507F
:1040A000FF4F8490F901E852FF4F74907720A1F000
:1040B00081110E94351AE72DF0E0EE0FFF1FE65345
:1040C000FF4FA591B491EC918E2231E020E009F4EC
:1040D00030E0832F922F02C080E090E0F801EA0DDB
:1040E000FB1D21E082279183808332E0A30EB11C67
:1040F0008AE0A816B10409F0C8CF60E0892D0E94BB
:10410000721A065F1F4F94E00539190709F0AECF08
:104110003EE7A32E35E0B32E48E3842E45E0942EEF
:1041200000E010E0C12CD12CE12CF12C95012C0DDC
:104130003D1D38872F8312012C0C3D1CD1018D9120
:104140009C91F901208131812817390771F1F4011F
:10415000EC0DFD1D0197B9F46090950470909604E4
:1041600071826082A301B801C7010E94460B282F0B
:10417000A301B801C70129870E945B0B2985622F23
:104180000E949F0C12C060807180A301B801C7011A
:104190000E94460B282FA301B801C70129870E945E
:1041A0005B0B2985622F0E94CA0BD1018D919C91D6
:1041B000EF81F88591838083FFEFEF1AFF0A2AE0F1
:1041C000C20ED11C36E4C316D10409F0AFCF0F5F85
:1041D0001F4F82E0480E511C92E0A90EB11CA2E0D4
:1041E0008A0E911C0530110509F09CCF8091C40501
:1041F000811108C080E090E0892B09F48ECE0E94E6
:1042000000008BCE809101018823A1F387E2C82EA4
:1042100084E0D82E9BE3892E94E0992E2CE4A22EE4
:1042200023E0B22EE12CF12CF40111914F01112366
:1042300049F1D6018C91882319F081508C9322C0CA
:104240001150133050F4C501810F911D810F911D44
:1042500001960E943D1D082F01C000E0612FC7019B
:104260000E94320B602F0E949F0CF701ED5EFB4F06
:104270008081811107C080910101882319F08E2D62
:104280000E94E11CBFEFEB1AFB0AEFEFCE1ADE0A29
:10429000F8E0AF0EB11C04E1E016F10429F6AACF54
:1042A000109298041092970410929604109295041C
:1042B000D4CEBC01625F7F4FFC01838148E050E0B7
:1042C00080640C9477130A970C94592189E295E045
:1042D0000C947712A1E21A2EAA1BBB1BFD010DC084
:1042E000AA1FBB1FEE1FFF1FA217B307E407F507A6
:1042F00020F0A21BB30BE40BF50B661F771F881F82
:10430000991F1A9469F760957095809590959B0117
:10431000AC01BD01CF010895EE0FFF1F0590F49190
:10432000E02D0994CF93DF938230910510F482E061
:1043300090E0E0919A06F0919B0620E030E0C0E02A
:10434000D0E0309711F14081518148175907C0F0F2
:104350004817590761F482819381209719F09B8354
:104360008A832BC090939B0680939A0626C02115C2
:10437000310519F04217530718F49A01BE01DF0105
:10438000EF010280F381E02DDCCF2115310509F129
:10439000281B390B2430310590F412968D919C9195
:1043A00013976115710521F0FB019383828304C08B
:1043B00090939B0680939A06FD01329644C0FD01BE
:1043C000E20FF31F81939193225031092D933C9377
:1043D0003AC02091980630919906232B41F4209100
:1043E0001701309118013093990620939806209177
:1043F0001501309116012115310541F42DB73EB755
:104400004091190150911A01241B350BE091980637
:10441000F0919906E217F307A0F42E1B3F0B281723
:10442000390778F0AC014E5F5F4F2417350748F02D
:104430004E0F5F1F50939906409398068193919376
:1044400002C0E0E0F0E0CF01DF91CF9108950F933B
:104450001F93CF93DF93009709F48CC0FC01329730
:104460001382128200919A0610919B060115110584
:1044700081F420813181820F931F20919806309121
:1044800099062817390779F5F0939906E09398066D
:1044900071C0D80140E050E0AE17BF0750F412964B
:1044A0002D913C911397AD012115310509F1D901E9
:1044B000F3CF9D01DA013383228360817181860FFE
:1044C000971F8217930769F4EC0128813981260F21
:1044D000371F2E5F3F4F318320838A819B819383D7
:1044E0008283452B29F4F0939B06E0939A0642C001
:1044F0001396FC93EE931297ED01499159919E0109
:10450000240F351FE217F30771F480819181840F26
:10451000951F029611969C938E9382819381139698
:104520009C938E931297E0E0F0E0D80112968D9163
:104530009C911397009719F0F8018C01F6CF8D919B
:104540009C9198012E5F3F4F820F931F20919806F8
:10455000309199062817390769F4309729F4109299
:104560009B0610929A0602C013821282109399063B
:1045700000939806DF91CF911F910F910895A0E0CD
:10458000B0E0E5ECF2E20C941624EC01009721F483
:10459000CB010E949221B8C0FC01E60FF71F9C01DD
:1045A00022503109E217F30708F4ACC0D9010D918C
:1045B0001C91119706171707B0F00530110508F484
:1045C0009FC0C80104978617970708F499C0025046
:1045D0001109061B170B019311936D937C93CF0167
:1045E0000E9427228DC05B01A01AB10A4C01800EE7
:1045F000911EA0919A06B0919B0640E050E0E12CFC
:10460000F12C109709F44AC0A815B905D1F56D90A1
:104610007C901197630182E0C80ED11CCA14DB04A0
:1046200080F1A3014A195B096A0182E0C80ED11C1E
:104630001296BC9012971396AC91B5E0CB16D104AC
:1046400040F0B282A38351834083D9016D937C9360
:104650000AC00E5F1F4FC301800F911FF9019183A4
:104660008083EB2DFA2FE114F10431F0D70113967A
:10467000FC93EE93129744C0F0939B06E0939A0646
:104680003FC08D919C9111974817590708F4AC01D0
:104690007D0112960D90BC91A02DB3CF809198060C
:1046A0009091990688159905E1F446175707C8F4C3
:1046B0008091150190911601009741F48DB79EB736
:1046C0004091190150911A01841B950BE817F907C5
:1046D000C8F4F0939906E0939806F901718360831A
:1046E0000FC0CB010E9492217C01009759F0A801D4
:1046F000BE010E948E23CE010E942722C70104C062
:10470000CE0102C080E090E0CDB7DEB7EEE00C94C1
:10471000322481E090E0F8940C944924FB01DC0100
:1047200002C001900D9241505040D8F70895FC010D
:104730008191861721F08823D9F799270895319719
:10474000CF010895FB01DC018D91019080190110CA
:10475000D9F3990B0895FB01DC0101900D92002023
:10476000E1F70895FB01DC014150504030F08D919C
:104770000190801919F40020B9F7881B990B08954E
:104780001F93FC0199278827BC01E89411911032EE
:10479000E9F3193010F01E30C8F31B3251F01D320E
:1047A00049F4689406C00E94E723610F711D811DC2
:1047B000911D119110531A30B0F33EF490958095ED
:1047C000709561957F4F8F4F9F4F1F910895592F7F
:1047D000482F372F262F660F771F881F991F660FC8
:1047E000771F881F991F620F731F841F951F660F05
:1047F000771F881F991F0895F999FECF92BD81BD3B
:10480000F89A992780B50895262FF999FECF1FBAF7
:1048100092BD81BD20BD0FB6F894FA9AF99A0FBEE9
:10482000019608952F923F924F925F926F927F92DE
:104830008F929F92AF92BF92CF92DF92EF92FF92B0
:104840000F931F93CF93DF93CDB7DEB7CA1BDB0B5C
:104850000FB6F894DEBF0FBECDBF09942A88398801
:1048600048885F846E847D848C849B84AA84B98408
:10487000C884DF80EE80FD800C811B81AA81B98114
:10488000CE0FD11D0FB6F894DEBF0FBECDBFED0128
:10489000089511E0C0E5D1E004C0FE010E948C2122
:0C48A0002196C135D107C9F7F894FFCF6D
:1048AC00010100C18081000000FFFFFFFF00E1005B
:1048BC00000000000000009C06800012000F000E9B
:1048CC000010000A0013001400090008000700067D
:1048DC00000400000000004A111D146B11A9118581
:1048EC0011601100000000EC17D817D017BC17ADE1
:1048FC0017AC1700000000ED1865194719E6185998
:10490C0021F6FF0000B30B1F11FD1763210C1800DB
:10491C00000000F40EF40EF40EE61800000000B3D4
:10492C000B1F114718D21C5D1800000000A318EDD6
:10493C0019AD19CA18756E697175656B72657169F7
:10494C006E666F00444550524543494154454400FE
:10495C00756E697175656B7265716E616D6500540C
:10496C0065726D696E7573203220536C61766500CB
:10497C00756E697175656B72657176617269616E60
:10498C007400756E697175656B72657164726976A8
:10499C00657200416E696D757320496E6E6F76613C
:1049AC0020322E352E3100756E697175656B72650E
:1049BC00716275696C64004F454D00756E69717557
:1049CC00656B7365746B657900736574206B6579C1
:1049DC002800756E697175656B73657465657072A9
:1049EC006F6D0073657420454550524F4D2800750E
:1049FC006E697175656B7365746C61790073657440
:104A0C00206C6179657220636F756E742800657215
:104A1C00726F723A20696E73756666696369656E4A
:104A2C007420454550524F4D00756E697175656B1C
:104A3C006765746C617900756E697175656B676516
:104A4C0074656570726F6D00756E697175656B67F5
:104A5C0065746B65790072657475726E206B65791F
:104A6C002800756E697175656B676574726F770078
:104A7C00756E697175656B676574636F6C00756EC7
:104A8C00697175656B7365746D61737465720073B0
:104A9C006574206D61737465722800756E6971752B
:104AAC00656B7365746E6B726F00736574204E4B1F
:104ABC00524F206D6F646528006572726F723A20D8
:104ACC00696E76616C6964204E4B524F206F707426
:104ADC00696F6E00756E697175656B6765746E6B69
:104AEC00726F00756E697175656B6765746D6F6457
:104AFC007300676574206D6F6473280049324353EB
:104B0C006C617665006475616C526F6C65730075D1
:104B1C006E697175656B7365746D6163726F00732B
:104B2C006574206D6163726F28006D656469610046
:104B3C0074617044616E636500756E697175656B47
:104B4C0073657474617064616E6365007365742061
:104B5C0074617064616E63652800737469636B794A
:084B6C004B657973000D0A008E
:00000001FF
