:100000000C9476010C949E010C949E010C949E011C
:100010000C949E010C949E010C949E010C949E01E4
:100020000C949E010C949E010C9483140C949016D5
:100030000C949E010C949E010C949E010C949E01C4
:100040000C949E010C949E010C949E010C949E01B4
:100050000C949E010C949E010C949E010C94011C26
:100060000C949E010C949E010C949E010C949E0194
:100070000C949E010C949E010C949E010C949E0184
:100080000C949E010C949E010C949E010C949E0174
:100090000C944B1C0C949E010C949E010C949E019C
:1000A0000C949E010C949E010C949E01FE2303244B
:1000B000082412241C246624662466242624302462
:1000C0003A244424512466245924DF18E218D11814
:1000D000D518DB18031903190319E618EA18EE18E6
:1000E000F418F8180319FE18000000002300260079
:1000F00029002C002F000404040404030405020258
:1001000002020403020202020606060606060404B0
:100110000202020404040802011040804010204042
:1001200080408008020401804020100201108010ED
:10013000204040200000000200090F0000030401DD
:10014000000C0000000000000000000000000000A3
:1001500000000000000000250028002B002E0031C8
:1001600000080B0002020201000904000001020263
:1001700000000524001001052401010104240206E9
:100180000524060001070581031000400904010051
:10019000020A000000070502024000000705830272
:1001A0004000000403090441726475696E6F204CBD
:1001B0004C430041726475696E6F204C656F6E61CF
:1001C00072646F001201000200000040412336807B
:1001D00000010102030112010002EF02014041236C
:1001E000368000010102030105010906A10105078E
:1001F00019E029E715002501750195088102050C14
:1002000095017508150026FF00190029FF810005DA
:1002100008190129089508750191020507950675C9
:1002200008150026E700190029E78100C00000003A
:1002300000240027002A002D00300005010906A136
:10024000018508050719E029E715002501750195C5
:10025000088102190029671500250175019568813B
:100260000295017508150026E700190029E78100AD
:10027000C005010902A10185010509190129081517
:100280000025019508750181020501093009310930
:10029000381581257F750895038106C0050C090175
:1002A000A10185051500250109E909EA75019502F5
:1002B000810609E29501810609B09501810609B11F
:1002C0009501810609B79501810609B59501810659
:1002D00009B69501810609B39501810609B4950116
:1002E000810695068107C000D625B32611241FBEBE
:1002F000CFEFDAE0DEBFCDBF15E0A0E0B1E0E6E48D
:10030000F3E502C005900D92A230B107D9F727E0BE
:10031000A2E0B5E001C01D92AB3EB207E1F711E0EB
:10032000C5E7D1E004C02197FE010E94D926C43759
:10033000D107C9F70E942F210C9496290C94000034
:100340003F924F925F926F927F928F929F92AF9265
:10035000BF92CF92DF92EF92FF920F931F93CF93B2
:10036000DF93CDB7DEB763970FB6F894DEBF0FBE4D
:10037000CDBF8C016FE971E00E944012882321F00B
:100380008EEA91E00E94661E6AEB71E0C8010E944D
:100390004012882321F089EC91E00E94661E6BEDEB
:1003A00071E0C8010E944012882321F089EC91E09D
:1003B0000E94661E6DEE71E0C8010E944012882303
:1003C00021F08EEF91E00E94661E62E172E0C801AA
:1003D0000E944012882319F082E292E0ABC161E3EF
:1003E00072E0CE0101960E946E14BE016F5F7F4FD6
:1003F000C8010E942512F82ECE0101960E942E13EC
:10040000FF2009F4F5C0C8010E94341EAC014F5F03
:100410005F4FB801CE0101960E94020EBE016F5FD0
:100420007F4FC8010E945F12CE0101960E942E13D9
:10043000C8010E94341E9C0140E050E0B801CE018A
:1004400001960E94E812CE0101960E941A12962E81
:10045000CE0101960E942E13C8010E94341EAC01E9
:100460004F5F5F4FB801CE0101960E94020EBE01A0
:100470006F5F7F4FC8010E945F12CE0101960E94FC
:100480002E13C8010E94341E9C0140E050E0B801C8
:10049000CE0101960E94E812CE0101960E941A1226
:1004A000A62ECE0101960E942E13C8010E94341E72
:1004B000AC014F5F5F4FB801CE0101960E94020E62
:1004C000BE016F5F7F4FC8010E945F12CE0101968F
:1004D0000E942E13C8010E94341E9C0140E050E08F
:1004E000B801CE0101960E94E812CE0101960E9449
:1004F0001A12B62ECE0101960E942E13C8010E9438
:10050000341EAC014F5F5F4FB801CE0101960E94CF
:10051000020EBE016F5F7F4FC8010E945F12CE01C5
:1005200001960E942E13C8010E94341E9C0140E0D7
:1005300050E0B801CE0101960E94E812CE0101966A
:100540000E941A12C62ECE0101960E942E13C801D7
:100550000E94341EAC014F5F5F4FB801CE0101967F
:100560000E94020EBE016F5F7F4FC8010E945F12A2
:10057000CE0101960E942E13C8010E941A12D62E97
:1005800087E0A89E70011124E90CF11C83E2B89E5B
:10059000E00CF11C1124EE0CFF1C6C2DC7010E9415
:1005A000D1206D2DC70101960E94D1208FE392E0EA
:1005B0000E94321E892D0E944C1E83E692E00E940A
:1005C000321E8A2D0E944C1E83E692E00E94321E4B
:1005D0008B2D0E944C1E83E692E00E94321E8C2DD1
:1005E0000E944C1E83E692E00E94321E8D2D66C052
:1005F00068E472E0CE0101960E946E14BE016F5F46
:100600007F4FC8010E942512F82ECE0101960E944C
:100610002E13FF2009F455C0C8010E94341EAC01FE
:100620004F5F5F4FB801CE0101960E94020EBE01DE
:100630006F5F7F4FC8010E945F12CE0101960E943A
:100640002E13C8010E94341E9C0140E050E0B80106
:10065000CE0101960E94E812CE0101960E941A1264
:100660004B015C01CE0101960E942E13C8010E942D
:10067000341EAC014F5F5F4FB801CE0101960E945E
:10068000020EBE016F5F7F4FC8010E945F12CE0154
:1006900001960E942E13C8010E941A12F62EC40160
:1006A0000E94D12089E592E00E94321EC4010E947E
:1006B000D61E83E692E00E94321E8F2D0E94531EAA
:1006C00075C165E672E0CE0101960E946E14BE010E
:1006D0006F5F7F4FC8010E942512F82ECE01019650
:1006E0000E942E13FF2049F1C8010E94341EAC0164
:1006F0004F5F5F4FB801CE0101960E94020EBE010E
:100700006F5F7F4FC8010E945F12CE0101960E9469
:100710002E13C8010E941A12F62E81E18F1540F0A7
:100720006F2D8FEF93E00E94D12083E792E0C3CF3B
:1007300084E892E00E94661E39C16FE972E0C80148
:100740000E944012882319F08FEF93E02CC06DEACD
:1007500072E0CE0101960E946E14BE016F5F7F4F62
:10076000C8010E942512F82ECE0101960E942E1378
:10077000FF20E1F0C8010E94341EAC014F5F5F4FC3
:10078000B801CE0101960E94020EBE016F5F7F4F3D
:10079000C8010E945F12CE0101960E942E13C8016B
:1007A0000E941A12CB010E94ED2088CF6EEB72E0FE
:1007B000CE0101960E946E14BE016F5F7F4FC8018B
:1007C0000E942512F82ECE0101960E942E13FF20C2
:1007D00009F482C0C8010E94341EAC014F5F5F4F14
:1007E000B801CE0101960E94020EBE016F5F7F4FDD
:1007F000C8010E945F12CE0101960E942E13C8010B
:100800000E94341E9C0140E050E0B801CE010196E8
:100810000E94E812CE0101960E941A12E62ECE0125
:1008200001960E942E13C8010E94341EAC014F5F36
:100830005F4FB801CE0101960E94020EBE016F5FAC
:100840007F4FC8010E945F12CE0101960E942E13B5
:10085000C8010E94341E9C0140E050E0B801CE0166
:1008600001960E94E812CE0101960E941A12C62E2D
:10087000CE0101960E942E13C8010E94341EAC01C5
:100880004F5F5F4FB801CE0101960E94020EBE017C
:100890006F5F7F4FC8010E945F12CE0101960E94D8
:1008A0002E13C8010E941A12A62EB12CD12CF12CA5
:1008B000A501B601C7010E94EE0D982EA501B60153
:1008C000C7010E94D90DF82E8CEC92E00E94321ED6
:1008D000892D0E944C1EEDCE68ED72E0CE0101968E
:1008E0000E946E14BE016F5F7F4FC8010E942512E7
:1008F000F82ECE0101960E942E13FF2019F085E0FC
:1009000090E015C066EE72E0CE0101960E946E1472
:10091000BE016F5F7F4FC8010E942512F82ECE01E5
:1009200001960E942E13FF2029F087E090E00E949C
:10093000E01E3CC064EF72E0CE0101960E946E148E
:10094000BE016F5F7F4FC8010E942512F82ECE01B5
:1009500001960E942E13FF2049F1C8010E94341E07
:10096000AC014F5F5F4FB801CE0101960E94020EAD
:10097000BE016F5F7F4FC8010E945F12CE010196DA
:100980000E942E13C8010E941A12611103C0109216
:10099000020103C081E08093020185E093E00E94A0
:1009A000321E8091020190E00E94D61EB801CE0155
:1009B00007960E94331361E173E0CE0101960E9415
:1009C0006E14BE016F5F7F4FCE0107960E94251205
:1009D000F82ECE0101960E942E13FF2009F440C08C
:1009E000CE0107960E94341EAC014F5F5F4FBE01DF
:1009F000695F7F4FCE0101960E94020EBE016F5FBC
:100A00007F4FCE0107960E945F12CE0101960E9491
:100A10002E13CE0107960E941A12F62E82E08F1531
:100A2000D0F06F2D8EEF93E00E94D12080910C07C3
:100A3000813019F487E897E002C083E797E00E94CD
:100A4000340FF0920C070E940F1E80E293E00E9488
:100A5000321E8F2D11C08FE293E00E94661E0EC0E1
:100A60006AE473E0CE0107960E944012882331F0B9
:100A70008EEF93E00E94ED200E94531ECE01079658
:100A80000E942E13B801CE010D960E94331369E522
:100A900073E0CE010D960E944012882321F088E673
:100AA00093E00E94321EBE01635F7F4FCE01079626
:100AB0000E94331369E573E0CE0101960E946E1423
:100AC000BE016F5F7F4FCE0107960E942512182F3F
:100AD000CE0101960E942E13112329F082E793E0A4
:100AE0000E94321E6BC06AE773E0CE0101960E943D
:100AF0006E14BE016F5F7F4FCE0107960E942512D4
:100B0000182FCE0101960E942E131123C9F1CE0198
:100B100007960E94341EAC014F5F5F4FBE01695FB4
:100B20007F4FCE0101960E94020EBE016F5F7F4F84
:100B3000CE0107960E945F12CE0101960E942E13ED
:100B4000CE0107960E94341E9C0140E050E0BE0199
:100B5000695F7F4FCE0101960E94E812CE01019697
:100B60000E941A12CE0101966B8B0E942E136B8984
:100B700070E070930101609300018FE893E016C06C
:100B800060EA73E0CE0101960E946E14BE016F5FB1
:100B90007F4FCE0107960E942512182FCE01019695
:100BA0000E942E13112351F085EB93E00E94321E18
:100BB00080910001909101010E94E01ECE010796F4
:100BC0000E942E13BE01635F7F4FCE0107960E94E5
:100BD000331369E573E0CE0101960E946E14BE01E5
:100BE0006F5F7F4FCE0107960E942512182FCE010E
:100BF00001960E942E13112321F086EC93E00E94AF
:100C0000321ECE0107960E942E13BE01635F7F4FF6
:100C1000CE0107960E94331360ED73E0CE0101967A
:100C20000E946E14BE016F5F7F4FCE0107960E9437
:100C30002512182FCE0101960E942E13112309F4BC
:100C400026C1CE0107960E94341EAC014F5F5F4F54
:100C5000BE01695F7F4FCE0101960E94020EBE0168
:100C60006F5F7F4FCE0107960E945F12CE01019603
:100C70000E942E13CE0107960E94341E9C0140E074
:100C800050E0BE01695F7F4FCE0101960E94E812DD
:100C9000CE0101960E941A12D62ECE0101960E9414
:100CA0002E13CE0107960E94341EAC014F5F5F4F9A
:100CB000BE01695F7F4FCE0101960E94020EBE0108
:100CC0006F5F7F4FCE0107960E945F12CE010196A3
:100CD0000E942E13CE0107960E94341E9C0140E014
:100CE00050E0BE01695F7F4FCE0101960E94E8127D
:100CF000CE0101960E941A12E62ECE0101960E94A4
:100D00002E13CE0107960E94341EAC014F5F5F4F39
:100D1000BE01695F7F4FCE0101960E94020EBE01A7
:100D20006F5F7F4FCE0107960E945F12CE01019642
:100D30000E942E13CE0107960E94341E9C0140E0B3
:100D400050E0BE01695F7F4FCE0101960E94E8121C
:100D5000CE0101960E941A12F62ECE0101960E9433
:100D60002E13CE0107960E94341EAC014F5F5F4FD9
:100D7000BE01695F7F4FCE0101960E94020EBE0147
:100D80006F5F7F4FCE0107960E945F12CE010196E2
:100D90000E942E13CE0107960E94341E9C0140E053
:100DA00050E0BE01695F7F4FCE0101960E94E812BC
:100DB000CE0101960E941A12062FCE0101960E94C2
:100DC0002E13CE0107960E94341EAC014F5F5F4F79
:100DD000BE01695F7F4FCE0101960E94020EBE01E7
:100DE0006F5F7F4FCE0107960E945F12CE01019682
:100DF0000E942E13CE0107960E941A12162F81E030
:100E00008093E80688E080930A071092E906109222
:100E10000B0762E08DE597E00E94E7196D2D8DE5E7
:100E200097E00E94E7196E2D8DE597E00E94E71983
:100E30006F2D8DE597E00E94E719802F002E000CA2
:100E4000990B0E94D11E612F8DE597E00E94E71952
:100E50000E94741E81EE93E00E94321E8D2D0E942E
:100E60004C1E8FEE93E00E94321E8E2D0E944C1E6F
:100E70008FEE93E00E94321E8F2D0E944C1E8FEE4B
:100E800093E00E94321E802F0E944C1E6EC062EFC3
:100E900073E0CE0101960E946E14BE016F5F7F4F1A
:100EA000CE0107960E942512182FCE0101960E94AE
:100EB0002E13112309F461C0CE0107960E94341E3F
:100EC000AC014F5F5F4FBE01695F7F4FCE0101965E
:100ED0000E94020EBE016F5F7F4FCE0107960E94F7
:100EE0005F12CE0101960E942E13CE0107960E943A
:100EF000341E9C0140E050E0BE01695F7F4FCE018F
:100F000001960E94E812CE0101960E941A126B010E
:100F10007C01CE0101960E942E13CE0107960E94FD
:100F2000341EAC014F5F5F4FBE01695F7F4FCE0142
:100F300001960E94020EBE016F5F7F4FCE010796A1
:100F40000E945F12CE0101960E942E13CE010796D9
:100F50000E941A12162FC6010E94890D86E094E0A5
:100F60000E94321EC6010E94D61E8FEE93E00E94A0
:100F7000321E812F0E94531E8FC06CE174E0CE019F
:100F800001960E946E14BE016F5F7F4FCE010796DF
:100F90000E942512182FCE0101960E942E131123B4
:100FA00051F1CE0107960E94341EAC014F5F5F4F96
:100FB000BE01695F7F4FCE0101960E94020EBE0105
:100FC0006F5F7F4FCE0107960E945F12CE010196A0
:100FD0000E942E13CE0107960E941A12162F6F3010
:100FE00038F48FEF93E00E94890D8DE294E0BFCF3B
:100FF00085E494E036C063E774E0CE0101960E9478
:101000006E14BE016F5F7F4FCE0107960E942512BE
:10101000182FCE0101960E942E13112329F1CE0123
:1010200007960E94341EAC014F5F5F4FBE01695F9F
:101030007F4FCE0101960E94020EBE016F5F7F4F6F
:10104000CE0107960E945F12CE0101960E942E13D8
:10105000CE0107960E941A12862F0E94BA0D87E8C9
:1010600094E00E94661E18C069E573E0CE01019607
:101070000E946E14BE016F5F7F4FCE0107960E94E3
:101080002512182FCE0101960E942E13112321F054
:101090008AE994E00E94321ECE0107960E942E1328
:1010A000BE01635F7F4FCE0107960E94331369E54F
:1010B00073E0CE0101960E946E14BE016F5F7F4FF8
:1010C000CE0107960E942512182FCE0101960E948C
:1010D0002E13112329F088EA94E00E94321E85C164
:1010E0006EE974E0CE0101960E946E14BE016F5F3E
:1010F0007F4FCE0107960E942512182FCE01019630
:101100000E942E13112309F470C1CE0107960E948C
:10111000341EAC014F5F5F4FBE01695F7F4FCE0150
:1011200001960E94020EBE016F5F7F4FCE010796AF
:101130000E945F12CE0101960E942E13CE010796E7
:101140000E94341E9C0140E050E0BE01695F7F4F69
:10115000CE0101960E94E812CE0101960E941A1259
:10116000F62ECE0101960E942E13CE0107960E9404
:10117000341EAC014F5F5F4FBE01695F7F4FCE01F0
:1011800001960E94020EBE016F5F7F4FCE0107964F
:101190000E945F12CE0101960E942E13CE01079687
:1011A0000E94341E9C0140E050E0BE01695F7F4F09
:1011B000CE0101960E94E812CE0101960E941A12F9
:1011C000E62ECE0101960E942E1382E1F89E800148
:1011D00011248BE08F1548F088E08E1530F06E2DCD
:1011E000C801875A9D4F0E94D120480188EA881A79
:1011F0008DEF980A580185EAA81A8DEFB80A065AA9
:101200001D4FC12CD12C412C512C32014394CE01C5
:1012100007960E94341EAC014F5F5F4FBE01695FAD
:101220007F4FCE0101960E94020EBE016F5F7F4F7D
:10123000CE0107960E945F12CE0101960E942E13E6
:10124000CE0107960E94341E9C0140E050E0BE0192
:10125000695F7F4FCE0101960E94E812CE01019690
:101260000E941A12CE0101966B8B0E942E136B897D
:101270008BE08F1518F0C8010E94D120CE0107968F
:101280000E94341EAC014F5F5F4FBE01695F7F4F0C
:10129000CE0101960E94020EBE016F5F7F4FCE010C
:1012A00007960E945F12CE0101960E942E13CE0176
:1012B00007960E94341E9C0140E050E0BE01695F29
:1012C0007F4FCE0101960E94E812CE0101960E9446
:1012D0001A12CE0101966B8B0E942E136B898BE044
:1012E0008F1518F0C5010E94D120CE0107960E94EB
:1012F000341EAC014F5F5F4FBE01695F7F4FCE016F
:1013000001960E94020EBE016F5F7F4FCE010796CD
:101310000E945F12CE0101960E942E13CE01079605
:101320000E94341E9C0140E050E0BE01695F7F4F87
:10133000CE0101960E94E812CE0101960E941A1277
:10134000362ECE0101960E942E138BE08F15C8F029
:10135000C4010E94ED20282FD301C2010C2C04C02F
:10136000880F991FAA1FBB1F0A94D2F7332019F0C8
:10137000622F682B03C08095622F6823C4010E94EE
:10138000D1208FEFC81AD80A82E0A80EB11C0E5FD8
:101390001F4F88E0C816D10409F039CFCE01079657
:1013A0000E94341EAC014F5F5F4FBE01695F7F4FEB
:1013B000CE0101960E94020EBE016F5F7F4FCE01EB
:1013C00007960E945F12CE0101960E942E138EEAAC
:1013D00094E00E94321E8F2D0E944C1E83E692E004
:1013E0000E94321E8E2D0E94531ECE0107960E942F
:1013F0002E13BE01635F7F4FCE0107960E94331309
:1014000069E573E0CE0101960E946E14BE016F5F24
:101410007F4FCE0107960E942512182FCE0101960C
:101420000E942E13112321F089EB94E00E94321EBA
:10143000CE0107960E942E13BE01635F7F4FCE013F
:1014400007960E94331369E573E0CE0101960E946E
:101450006E14BE016F5F7F4FCE0107960E9425126A
:10146000182FCE0101960E942E13112329F08FEB25
:1014700094E00E94321E38C268EC74E0CE010196FE
:101480000E946E14BE016F5F7F4FCE0107960E94CF
:101490002512182FCE0101960E942E13112309F454
:1014A00023C2CE0107960E94341EAC014F5F5F4FEE
:1014B000BE01695F7F4FCE0101960E94020EBE0100
:1014C0006F5F7F4FCE0107960E945F12CE0101969B
:1014D0000E942E13CE0107960E94341E9C0140E00C
:1014E00050E0BE01695F7F4FCE0101960E94E81275
:1014F000CE0101960E941A12B62ECE0101960E94CC
:101500002E13CE0107960E94341EAC014F5F5F4F31
:10151000BE01695F7F4FCE0101960E94020EBE019F
:101520006F5F7F4FCE0107960E945F12CE0101963A
:101530000E942E13CE0107960E94341E9C0140E0AB
:1015400050E0BE01695F7F4FCE0101960E94E81214
:10155000CE0101960E941A12362ECE0101960E94EB
:101560002E13CE0107960E94341EAC014F5F5F4FD1
:10157000BE01695F7F4FCE0101960E94020EBE013F
:101580006F5F7F4FCE0107960E945F12CE010196DA
:101590000E942E13CE0107960E94341E9C0140E04B
:1015A00050E0BE01695F7F4FCE0101960E94E812B4
:1015B000CE0101960E941A12462ECE0101960E947B
:1015C0002E13CE0107960E94341EAC014F5F5F4F71
:1015D000BE01695F7F4FCE0101960E94020EBE01DF
:1015E0006F5F7F4FCE0107960E945F12CE0101967A
:1015F0000E942E13CE0107960E94341E9C0140E0EB
:1016000050E0BE01695F7F4FCE0101960E94E81253
:10161000CE0101960E941A12562ECE0101960E940A
:101620002E13CE0107960E94341EAC014F5F5F4F10
:10163000BE01695F7F4FCE0101960E94020EBE017E
:101640006F5F7F4FCE0107960E945F12CE01019619
:101650000E942E13CE0107960E94341E9C0140E08A
:1016600050E0BE01695F7F4FCE0101960E94E812F3
:10167000CE0101960E941A12662ECE0101960E949A
:101680002E13CE0107960E94341EAC014F5F5F4FB0
:10169000BE01695F7F4FCE0101960E94020EBE011E
:1016A0006F5F7F4FCE0107960E945F12CE010196B9
:1016B0000E942E13CE0107960E94341E9C0140E02A
:1016C00050E0BE01695F7F4FCE0101960E94E81293
:1016D000CE0101960E941A12762ECE0101960E942A
:1016E0002E13CE0107960E94341EAC014F5F5F4F50
:1016F000BE01695F7F4FCE0101960E94020EBE01BE
:101700006F5F7F4FCE0107960E945F12CE01019658
:101710000E942E13CE0107960E94341E9C0140E0C9
:1017200050E0BE01695F7F4FCE0101960E94E81232
:10173000CE0101960E941A12862ECE0101960E94B9
:101740002E13CE0107960E94341EAC014F5F5F4FEF
:10175000BE01695F7F4FCE0101960E94020EBE015D
:101760006F5F7F4FCE0107960E945F12CE010196F8
:101770000E942E13CE0107960E94341E9C0140E069
:1017800050E0BE01695F7F4FCE0101960E94E812D2
:10179000CE0101960E941A12962ECE0101960E9449
:1017A0002E13CE0107960E94341EAC014F5F5F4F8F
:1017B000BE01695F7F4FCE0101960E94020EBE01FD
:1017C0006F5F7F4FCE0107960E945F12CE01019698
:1017D0000E942E13CE0107960E941A12A62E0B2DE0
:1017E00010E083E18B1590F1780183E0EE0CFF1C93
:1017F0008A95E1F7670186EBC81A8CEFD80AC60113
:101800000E94ED208C7F682F630DC6010E94D120BD
:10181000C6010E94ED208370942D990F990F682FB7
:10182000690FC6010E94D120652DC701845B9C4FC2
:101830000E94D120672DC701825B9C4F0E94D1205E
:10184000692DC701805B9C4F0E94D120462D60E02E
:10185000C8010E94610D482D61E0C8010E94610D20
:101860004A2D62E0C8010E94610D8BED94E00E9458
:10187000321E8B2D0E944C1E83E692E00E94321E87
:10188000832D0E944C1E83E692E00E94321E842D1E
:101890000E944C1E83E692E00E94321E852D0E941B
:1018A0004C1E83E692E00E94321E862D0E944C1E42
:1018B00083E692E00E94321E872D0E944C1E83E632
:1018C00092E00E94321E882D0E944C1E83E692E018
:1018D0000E94321E892D0E944C1E83E692E00E94D7
:1018E000321E8A2D0E94531ECE0107960E942E138F
:1018F000BE01635F7F4FCE0107960E94331369E5F7
:1019000073E0CE0101960E946E14BE016F5F7F4F9F
:10191000CE0107960E942512182FCE0101960E9433
:101920002E13112321F089EE94E00E94321ECE0185
:1019300007960E942E13BE01635F7F4FCE0107966C
:101940000E94331369E573E0CE0101960E946E1484
:10195000BE016F5F7F4FCE0107960E942512182FA0
:10196000CE0101960E942E13112321F084EF94E002
:101970000E94321ECE0107960E942E1369E573E085
:10198000CE010D960E944012882321F08EEF94E044
:101990000E94321ECE010D960E942E1363960FB642
:1019A000F894DEBF0FBECDBFDF91CF911F910F9195
:1019B000FF90EF90DF90CF90BF90AF909F908F906F
:1019C0007F906F905F904F903F9008958C3091057D
:1019D0008CF4683078F442E1489F9001499F300DC3
:1019E0001124C901860F911D860F911D855A9D4FA7
:1019F0000C94ED2080E00895CF93DF932091C505EE
:101A00003091C605882319F02F5F3F4F02C0215047
:101A100031093093C6052093C505C091C505D09105
:101A2000C6058FEF93E00E94ED2090E0C817D9071C
:101A30002CF01092C6051092C50507C0D7FF05C04F
:101A400001979093C6058093C505DF91CF910895C6
:101A50000F931F93CF93DF9381E08093170503E0EB
:101A600015E0C0E0D0E0F80180818823F9F02097EC
:101A700011F480EE04C0C130D10521F481EE0E9442
:101A8000261E12C0C230D10511F482EEF8CFC33049
:101A9000D10511F486EEF3CF8091C5059091C6056E
:101AA0009093C4058093C305F801108221960F5FBF
:101AB0001F4FC431D105B9F6DF91CF911F910F911E
:101AC00008958431910584F4633070F423E0880F25
:101AD000991F2A95E1F7860F911D860F911D642F9E
:101AE000835B9C4F0C94D1200895843191057CF444
:101AF000633068F423E0880F991F2A95E1F7845B2F
:101B00009C4F860F911D860F911D0C94ED2080E057
:101B100008950F931F93CF93DF931F92CDB7DEB736
:101B20008C0181E08093E80688E080930A07109298
:101B3000E90610920B0784E090E069830E94D11EB1
:101B400069818DE597E00E94E7190F3F110541F08B
:101B50003CF08FEF90E00E94D11E0F5F1109F5CF8E
:101B6000C8010E94D11E0F90DF91CF911F910F915C
:101B70000C94741ECF93DF931F92CDB7DEB7682FFE
:101B800081E08093E80688E080930A071092E906D6
:101B900010920B0786E090E069830E94D11E698154
:101BA0008DE597E00E94E7190F90DF91CF910C949B
:101BB000741EE7E0E69F9001E79F300D1124820F2D
:101BC000931F63E2649F9001659F300D1124820F83
:101BD000931F880F991F01960C94ED20E7E0E69F74
:101BE0009001E79F300D1124820F931F63E2649FE1
:101BF0009001659F300D1124820F931F880F991F4C
:101C00000C94ED20CF93DF93EC01FB01248135810F
:101C10000E94E812CE01DF91CF9108950F931F9398
:101C2000CF93DF93EC01E881F9810084F185E02D09
:101C300040E009958C01892B39F0E881F981068013
:101C4000F781E02DCE010995C801DF91CF911F9159
:101C50000F9108950F931F93CF93DF93EC01E881C9
:101C6000F9810084F185E02D41E009958C01892BF3
:101C700039F0E881F9810680F781E02DCE010995E0
:101C8000C801DF91CF911F910F910895FF920F939B
:101C90001F93CF93DF938C01F62E0E942A0EEC0146
:101CA000892B21F06F2DC8010E940E0ECE01DF910D
:101CB000CF911F910F91FF900895CF93DF93D82F6D
:101CC000C62F80910201882309F454C0611104C019
:101CD0008D2F0E94261E4EC0613091F06230C9F4F3
:101CE0008091020581110CC080910C076CE281305B
:101CF00019F487E897E002C083E797E00E94460E58
:101D00008091C5059091C6059093C4058093C30545
:101D100031C06B3091F06C3019F460E080EE24C07B
:101D20006D3001F16E3019F460E086EE1DC06F3049
:101D300039F460E080EE0E945D0E60E081EE14C038
:101D4000603129F460E080EE0E945D0E07C06131D1
:101D500019F460E080EE04C0623161F460E081EE6D
:101D60000E945D0E60E082EE0E945D0E60E08D2FAD
:101D70000E945D0E80910201882391F18CEE8C0F00
:101D80008A3070F5C43119F460E080EE04C0C531CA
:101D900029F460E081EE0E945D0E12C0C63119F494
:101DA00060E082EEF8CFC73119F460E086EEF3CF41
:101DB0008091C5059091C6059093C4058093C30595
:101DC0008091020581110CC080910C076D2F81302C
:101DD00019F487E897E002C083E797E00E94460E77
:101DE00080910201882329F0C33119F48D2F0E94BC
:101DF000EF20809102018823A1F1CF3139F4809145
:101E0000050180588D1B809305012BC0C03239F429
:101E10008091040180588D1B8093040122C0C1323F
:101E200039F48091030180588D1B8093030119C000
:101E3000C232B9F4D13011F481E00FC0D23011F4C4
:101E400082E00BC0D33011F484E007C0D43011F429
:101E500088E003C0D53029F480E1DF91CF910C9464
:101E6000511FDF91CF9108950F931F93CF93DF936D
:101E7000EC01E881F9810480F581E02D09958C0160
:101E8000892B39F0E881F9810680F781E02DCE01B8
:101E90000995C801DF91CF911F910F9108956F921D
:101EA0007F928F929F92AF92BF92CF92DF92EF92EA
:101EB000FF920F931F93CF93DF9300D01F92CDB764
:101EC000DEB7182F062F81E0809302058091020172
:101ED000882309F491C0611104C0812F0E941A1E49
:101EE0008BC0613021F0623059F410920205812FCD
:101EF000012E000C990B9093C4058093C3057CC000
:101F00006330B1F5111102C081E003C0113021F43A
:101F100080E00E94FC0C70C0E090C505F090C60502
:101F200021E00E2C01C0220F0A94EAF73AE0C32EFA
:101F3000D12C220F69F08FEFE81AF80A8FEF93E0A7
:101F40002B830E94ED2090E02B81E816F9061CF00F
:101F500021E0E12CF12C822F812329F0F092C6059B
:101F6000E092C50549C091E0C91AD10811F7F6CF32
:101F7000653089F42091C3053091C405812F012E6D
:101F8000000C990B2817390709F0B1CF8091C505CE
:101F90009091C605B0CF6B3091F06C3019F460E0D1
:101FA00080EE24C06D3001F16E3019F460E086EEF1
:101FB0001DC06F3039F460E080EE0E944F0F60E08A
:101FC00081EE14C0603129F460E080EE0E944F0F72
:101FD00007C0613119F460E080EE04C0623161F441
:101FE00060E081EE0E944F0F60E082EE0E944F0F92
:101FF00060E0812F0E944F0F80910201882361F1E0
:10200000063051F580910C07813019F487E897E08C
:1020100002C083E797E00E94340F612F8EEF93E0B8
:102020000E94D12080910C07813019F487E897E055
:1020300002C083E797E00E94340F10930C070E94C0
:102040000F1E80910C07813019F487E897E002C0D9
:1020500083E797E00E94340F80910201811108C04C
:102060000A3009F056C0809100010E94BA0D51C09B
:102070000A3009F045C01536B4F480910001909102
:102080000101810F911D17FD9A9597FF05C01092D0
:1020900001011092000125C08F3F9105F1F0ECF095
:1020A0008FEF90E01AC0153691F3163619F480E2DE
:1020B00090E013C0173619F480E490E00EC0183693
:1020C00019F480E690E009C0193619F480E890E030
:1020D00004C01A3631F480EA90E0909301018093B5
:1020E000000188EE800F863008F0BACF109202050A
:1020F000802F90E047979093C4058093C30509C053
:10210000043109F010C160E080EE0E944F0F109280
:10211000020580910201882309F45DC0073009F0AF
:102120005AC0812E012E000C99088CE0881691046B
:102130000CF051C092E1190260011124C601875AC6
:102140009D4F0E94ED20560196EAA91A9DEFB90A0B
:10215000E12CF12C682E712C88EAC81A8DEFD80A70
:10216000E614F7042CF5C6010E94ED2090E00E2C39
:1021700002C0959587950A94E2F76E2D80FFE3C023
:10218000C4010E94E60C682FC5016B830E94ED20FC
:102190006B810E945D0E65E070E080E090E00E943F
:1021A000C71B9FEFE91AF90A82E0A80EB11CD8CF2D
:1021B0008091C5059091C6059093C4058093C30591
:1021C00080910C07813019F487E897E002C083E71B
:1021D00097E00E94340F80910201882359F1043066
:1021E00049F5111102C081E017C0113011F482E0ED
:1021F00013C0123011F4098310C0133011F488E0B9
:102200000BC0143011F480E107C0153011F480E4E4
:1022100003C0163079F480E889831A820E948220F4
:1022200022E030E0AE014F5F5F4F65E00E94312059
:102230000E94F91D809102018823E1F1033149F5E3
:10224000E12E012E000CFF08F701E759FA4F8081BB
:10225000843070F58F5F808394E1E916F1046CF4AB
:10226000C70123E0880F991F2A95E1F7865B9C4FF1
:102270000E94ED208695869501C080E0F701EB5A1B
:10228000FA4F880F8083F701EF5BFA4F81E080837C
:102290000FC00E3169F4812F012E000C990BFC0147
:1022A000ED5FFA4F308121E023272083211157C0B1
:1022B0000E94280D80910201882309F46EC00F311D
:1022C00039F4809105018058180F1093050165C0FD
:1022D000003239F4809104018058180F10930401E2
:1022E0005CC0013239F4809103018058180F1093BB
:1022F000030153C0023209F050C0113011F481E0E3
:102300000FC0123011F482E00BC0133011F484E0DE
:1023100007C0143011F488E003C01530F1F580E1F6
:102320000E94441F3AC0053119F460E081EEEDCE01
:10233000063119F460E082EEE8CE073109F0D1CE23
:1023400060E086EEE2CEC4010E94E60C682FC50173
:102350006B830E94ED206B810E944F0F1CCF1111E7
:1023600002C080EE03C0113021F481EE0E941A1EDB
:1023700011C0123011F482EEF9CF133011F486EE51
:10238000F5CF2CEF210F203128F403979093C4054B
:102390008093C305109217058DCF0F900F900F906B
:1023A000DF91CF911F910F91FF90EF90DF90CF9031
:1023B000BF90AF909F908F907F906F900895CF9334
:1023C000DF93EC01E881F9810480F581E02D099526
:1023D000E881F9810680F781E02DCE01DF91CF9170
:1023E00009940E94D6280F931F93CF93DF93EC019B
:1023F00088819981009729F02A813B812617370728
:1024000088F48B016F5F7F4F0E940C28009761F06A
:10241000998388831B830A832C813D81232B11F4AC
:10242000FC01108281E001C080E0DF91CF911F911B
:102430000F910895FC0180819181009711F00C9417
:102440000D2960E070E0CB010895FB0144815581C6
:10245000FC01248135812417350778F08081918132
:10246000009759F0FB01608171816115710529F0B8
:102470000E94FF2821E0892B09F020E0822F089597
:10248000FC0124813581232B31F421E06115710594
:10249000A1F0FB0108C0FC018081918161157105EB
:1024A00031F421E0FC018081882339F005C00E94CD
:1024B000EF2821E0892B09F020E0822F08950F9367
:1024C0001F93CF93DF938C01EB018617970771F170
:1024D000FC01808191810097B1F06881798161155B
:1024E000710579F0428153812C813D814217530758
:1024F00040F00E94F8288C819D81F80195838483A7
:1025000013C00E94742788819981F8019183808388
:102510008A819B81938382838C819D81958384832F
:10252000198218821B821A821D821C82C801DF91C7
:10253000CF911F910F910895EF92FF920F931F93E8
:10254000CF93DF93EC017B018A01BA010E94F31162
:102550002881398181110DC02115310519F0C9017A
:102560000E947427198218821D821C821B821A8283
:1025700006C01D830C83B701C9010E94F828CE0153
:10258000DF91CF911F910F91FF90EF900895CF931E
:10259000DF93EC016115710559F0FB0101900020FA
:1025A000E9F73197AF01461B570B0E949C120CC0F4
:1025B00088819981009711F00E94742719821882EE
:1025C0001D821C821B821A82CE01DF91CF91089559
:1025D000BF92CF92DF92EF92FF920F931F93CF9310
:1025E000DF937C016B018A01E9012417350720F490
:1025F000812F8901C42FD82F60E075E0C7010E94A8
:102600006E14D60114968D919C9115970817190791
:10261000D0F48C179D0708F4EC01D601ED91FC91E4
:102620001197EC0FFD1FB08010824D915C91BA01A3
:10263000600F711FC7010E94C712D601ED91FC9176
:10264000EC0FFD1FB082C701DF91CF911F910F9159
:10265000FF90EF90DF90CF90BF900895FC018081B4
:1026600091810C947427FB01DC0111961C921E923F
:1026700013961C921E92129715961C921E921497F6
:102680008617970749F0608171816115710521F006
:10269000448155810C949C120895089540917006D0
:1026A0005091710620916E0630916F0642175307C4
:1026B000B4F49091E8009570E1F39091E80092FDF8
:1026C00019C08093F1008091700690917106019677
:1026D0008F739927892B19F48EEF8093E8008091EE
:1026E0007006909171060196909371068093700622
:1026F00081E0089580E00895CF92DF92EF92FF92FB
:102700000F931F93CF93DF931F92CDB7DEB7182F90
:10271000062FE42E862F880F8E5F99830E944E131A
:1027200083E00E944E13F12EC12E9981D92E8C2D5B
:102730008F19801798F4F601E7FE02C0849101C05A
:1027400080810E944E13182F80E00E944E13812337
:10275000FFEFCF1ADF0A8111EACF01C081E00F90AD
:10276000DF91CF911F910F91FF90EF90DF90CF906D
:102770000895615030F02091F100FC012083019612
:10278000F8CF289884E68093BF060895CF92DF9211
:10279000EF92FF920F931F93CF93DF936C017A0117
:1027A0008B01C0E0D0E0CE15DF0589F0D8016D9136
:1027B0008D01D601ED91FC910190F081E02DC601D3
:1027C0000995892B11F47E0102C02196ECCFC70137
:1027D000DF91CF911F910F91FF90EF90DF90CF90FD
:1027E0000895CF93DF931F92CDB7DEB76983DC01E5
:1027F000ED91FC910280F381E02D41E050E0BE01BB
:102800006F5F7F4F09950F90DF91CF91089583E01F
:102810008093E9008091F200882319F08AE3809385
:10282000E8000895FC018485958597FD0BC09FB74E
:10283000F89482E08093E9008091F2009FBF90E0DD
:10284000019608959FB7F89482E08093E900809103
:10285000F2009FBF90E008950F931F93CF93DF93F3
:102860001F92CDB7DEB78C01FC018485958597FF5B
:102870000EC0CE0101960E94F81E019719F429811D
:1028800030E002C02FEF3FEFF80135872487F801D1
:10289000848595850F90DF91CF911F910F910895B9
:1028A000CF93DF931F92CDB7DEB7FC01848595856A
:1028B00097FD05C02FEF3FEF358724870BC0CE0172
:1028C00001960E94F81E019719F4898190E002C0D8
:1028D0008FEF9FEF0F90DF91CF910895FC01118250
:1028E000108213821282158214826115710551F0D3
:1028F000FB0101900020E9F73197AF01461B570B10
:102900000C949C1208951F920F920FB60F921124EF
:102910008F939F938091E1009091E100937F90933A
:10292000E10083FF0FC01092E90091E09093EB006B
:102930001092EC0092E39093ED001092C00698E0A4
:102940009093F00082FF20C093E09093E900909173
:10295000F200992319F09AE39093E800909172069F
:10296000992339F0909172069150909372069923B1
:1029700089F19091BF06992339F09091BF0691504B
:102980009093BF06992341F184FF10C08091E2002B
:102990008E7E81608093E2008091E1008F7E809343
:1029A000E100809119058E7E806111C080FF16C004
:1029B0008091E2008E7E80618093E2008091E10050
:1029C0008E7E8093E100809119058E7E81608093D8
:1029D000190504C05D9ACDCF289AD6CF9F918F91CB
:1029E0000F900FBE0F901F901895BF92CF92DF925D
:1029F000EF92FF920F931F93CF93DF936C018B01A4
:102A0000EB019BEFB92E2097C1F07E01C134D105B7
:102A10001CF080E4E82EF12C8091E80082FFFCCFCE
:102A2000C8018C1B9D0B6E2D8C0D9D1D0E94B91332
:102A3000B092E800CE19DF09E6CFC801DF91CF914F
:102A40001F910F91FF90EF90DF90CF90BF9008956E
:102A5000DF92EF92FF920F931F93CF93DF93D82EC5
:102A60008A017B01E40EF51EEB01CE15DF0571F046
:102A7000D7FE03C0FE01849101C088810E944E13DD
:102A800021968111F2CF8FEF9FEF01C0C801DF9136
:102A9000CF911F910F91FF90EF90DF9008958F924B
:102AA0009F92AF92BF92CF92DF92EF92FF920F93DD
:102AB0001F93CF93DF9300D01F92CDB7DEB7382F8F
:102AC0008B018091C006811103C08FEF9FEF7DC005
:102AD0008091190580FF05C08091E000826080939D
:102AE000E0004A018AEFF82E832F8770E82E9FE3DB
:102AF000C92E832F8072B82E2AE3D22E832F8074A2
:102B0000A82E8114910409F457C08FB7F894E0926D
:102B1000E9009091E80095FF05C09091F2002C2DFE
:102B2000291B01C020E08FBF211110C0FA94FF20A3
:102B300061F261E070E080E090E039834A835B837A
:102B40000E94C71B39814A815B81DBCF822F90E0D5
:102B5000881699060CF4282D6FB7F894E092E900D6
:102B60008091E80085FF26C0822F90E0881A990A9C
:102B7000BB2029F02150A8F01092F100FBCFF80102
:102B800037FF07C0215058F074917093F1003196CF
:102B9000F9CF215020F071917093F100FACF080F16
:102BA000191F8091E80085FF0DC08114910411F474
:102BB000A11008C06FBFA5CF5D9884E68093720610
:102BC000CA0103C0D092E800F5CF0F900F900F908C
:102BD000DF91CF911F910F91FF90EF90DF90CF90F9
:102BE000BF90AF909F908F900895CF93DF93EC01AB
:102BF00080911801882331F083E00E944F15181648
:102C0000190634F081E090E09B838A8380E090E0B5
:102C1000DF91CF910895CF93DF93FC01DB01C28157
:102C2000D381209719F47383628308C088859985BE
:102C3000009711F0EC01FACFB987A887808112962E
:102C40008C931297818113968C931397908115968C
:102C50008C911597890F808380E014969C9114972E
:102C60008917A0F49181C92FD0E0AE014A5F5E4F71
:102C700016962D913C911797280F311DE901288157
:102C8000EA0128839F5F91838F5FE7CF81E0DF9127
:102C9000CF9108958091650681110DC082E08093E7
:102CA000610684E0809362061092640610926306C7
:102CB00081E08093650681E696E008950F931F9367
:102CC000CF93DF931F92CDB7DEB782E0898342E4D2
:102CD00050E061E671E080E80E9428150E944A16E3
:102CE000DC0112960D911C9113970115110569F0E5
:102CF000D801ED91FC910280F381E02DBE016F5F60
:102D00007F4FC801099597FF07C089810F90DF9118
:102D1000CF911F910F910895F80100851185E5CF9E
:102D20001F920F920FB60F921124CF92DF92EF9263
:102D3000FF920F931F932F933F934F935F936F9344
:102D40007F938F939F93AF93BF93EF93FF93CF9313
:102D5000DF93CDB7DEB76C97DEBFCDBF1092E90031
:102D60008091E80083FFF4C168E0CE0145960E949F
:102D7000B91382EF8093E8008D8987FF05C0909199
:102D8000E80090FFFCCF03C09EEF9093E800982FDF
:102D9000907609F0C6C09E892F89188D91110CC0BC
:102DA000803829F480911A058093F10002C01092B6
:102DB000F1001092F10041C1422F50E0512B9130AF
:102DC00051F481113AC14130510509F036C1809169
:102DD0001A058D7F0BC0933061F481112EC14130F3
:102DE000510509F02AC180911A05826080931A0565
:102DF00024C1953041F48091E80080FFFCCF206829
:102E00002093E3001AC1963009F05FC0EB8CFC8C74
:102E10001092E9001092710610927006123091F52E
:102E200010926F0610926E060E945E1699E0BE0127
:102E30006F5F7F4FDB01E92F1D92EA95E9F79983D8
:102E40001A8391E09E8390EA98879AEF9987209160
:102E5000700630917106275F3F4F3C832B838D8333
:102E60001092E9001092710610927006F0926F06AF
:102E7000E0926E0649E050E080E00E9428150E9432
:102E80005E16DBC0F0926F06E0926E060E944A1654
:102E9000DC011296ED90FC901397E114F10409F413
:102EA000BAC0D701ED91FC910480F581E02DBE01FF
:102EB0006B5E7F4FC7010995009719F00CF0BDC0FC
:102EC000C0C0F701E084F184E8CF973009F4B9C0BD
:102ED000983021F481E08093F100AFC0993009F07F
:102EE000ACC0837009F0ADC0E7E0F1E081E021E023
:102EF00036E39081992361F08093E9002093EB0001
:102F000091919093EC003093ED008F5F873089F7BB
:102F10008EE78093EA001092EA008F898093C006C2
:102F20008CC08B8D9C8D1092E900109271061092CE
:102F3000700690936F0680936E06898D811150C044
:102F40008E899D89913A59F4813209F07AC047E01F
:102F500050E061E171E080E00E9428156EC091327E
:102F600009F06FC0833289F4888D90E0982F88270C
:102F70002F89822BA0E0B0E080930D0190930E0189
:102F8000A0930F01B093100158C0803239F467E06C
:102F900070E081E191E00E94F51406C0823209F0F0
:102FA0004CC08F898093180180911805882319F0EF
:102FB000EEEFFAE002C0E0E0F8E0809111019091BC
:102FC0001201A0911301B0911401803B9440A1051E
:102FD000B10509F088C08091180180FFA0C083C0AE
:102FE0000E944A16DC0112960D911C91139701154F
:102FF000110539F1D801ED91FC910190F081E02D9E
:10300000BE016B5E7F4FC8010995811116C0F801A2
:1030100000851185ECCF1130C1F0133091F48F8908
:10302000882309F455C08230E9F440E860E183EB7D
:1030300091E00E947C13882321F08EEF8093E800BA
:1030400087C081E28093EB0083C08B8D9C8D0897B5
:1030500011F410936D0680916D06811136C064ECF9
:1030600071E038C0813029F440E86BE087EA91E0F4
:10307000E0CF833031F70E944A16DC011296ED90C2
:10308000FC9013978E010F5F1F4F6801E114F1044C
:1030900079F0D701ED91FC910680F781E02DB80120
:1030A000C7010995080F111DF701E084F184EECFE7
:1030B000D8011C92F60101900020E9F73197BF0179
:1030C0006C197D0940E0C601B4CF66ED71E002C025
:1030D00063EA71E06115710509F4B3CFFB01449116
:1030E00050E080E839CF0FB6F894A8958091600041
:1030F000886180936000109260000FBEA895EE3F3B
:103100002AE0F20739F08091FE0A9091FF0A91833C
:10311000808393CF1092FF0A1092FE0A8ECFEE3F6B
:103120008AE0F80731F0808191819093FF0A8093C3
:10313000FE0A87E797E7918380839BE088E10FB6DB
:10314000F894A895809360000FBE9093600075CFAF
:103150006C960FB6F894DEBF0FBECDBFDF91CF9156
:10316000FF91EF91BF91AF919F918F917F916F915F
:103170005F914F913F912F911F910F91FF90EF9091
:10318000DF90CF900F900FBE0F901F90189590E09A
:10319000FC013197EF30F105B0F5EB59FF4F0C947E
:1031A000D926809180008F7703C0809180008F7D29
:1031B00080938000089580918000877FF9CF84B547
:1031C0008F7702C084B58F7D84BD08958091900073
:1031D0008F7707C0809190008F7D03C08091900011
:1031E000877F8093900008958091C0008F7703C0FF
:1031F0008091C0008F7D8093C00008958091C200AF
:10320000877F8093C20008951F93CF93DF93282F69
:1032100030E0F901EC5CFE4F8491F901EB5EFE4F6A
:10322000D491F901EA50FF4FC491CC23C9F0162F75
:1032300081110E94C718EC2FF0E0EE0FFF1FED5A2E
:10324000FE4FA591B4918FB7F894111105C09C91D0
:10325000ED2FE095E92302C0EC91ED2BEC938FBFAD
:10326000DF91CF911F9108953FB7F8948091BB06ED
:103270009091BC06A091BD06B091BE0626B5A89B54
:1032800005C02F3F19F00196A11DB11D3FBFBA2FF8
:10329000A92F982F8827820F911DA11DB11DBC0158
:1032A000CD0142E0660F771F881F991F4A95D1F71D
:1032B000089585ED8093BC008091BC0084FDFCCF17
:1032C0001092E706089540919506262F30E0240FCE
:1032D000311D21323105DCF42091E7062430C9F498
:1032E000FC0180E090E0861758F43091950621911A
:1032F000DC01AD58B94FA30FB11D2C930196F3CF4C
:1033000080919506680F6093950680E0089581E0AE
:10331000089582E008950895E091200580911F05A9
:10332000E81730F4F0E0EF5DFA4F808190E0089507
:103330008FEF9FEF08959091200580911F059817BA
:1033400050F4E92FF0E0EF5DFA4F208130E09F5F0D
:103350009093200502C02FEF3FEFC901089580919F
:103360001F0590E020912005821B91090895CF92BE
:10337000DF92EF92FF920F931F93CF93DF937C0125
:10338000262F972F8A018091E806882391F0C62F77
:10339000D72F6E01C40ED51ECC15DD0571F06991D5
:1033A000D701ED91FC910190F081E02DC7010995C5
:1033B000F3CF642F822F0E946319C801DF91CF9150
:1033C0001F910F91FF90EF90DF90CF900895CF93D2
:1033D000DF931F92CDB7DEB769832091E8062223E1
:1033E000D1F020910B07203240F021E030E0FC01C9
:1033F0003383228380E090E015C08091E906E82FB6
:10340000F0E0E651F94F998190838F5F8093E90650
:1034100080930B0705C061E0CE0101960E946319FD
:1034200081E090E00F90DF91CF910895FC013496F8
:103430009C01245F3F4F80E090E040814111019664
:103440001192E217F307C9F70895FC0120E2260F55
:103450002830F0F0DC01169620E030E08D91442316
:1034600049F0861304C0E20FF31F668326C0811162
:1034700007C0F9CF861304C0E20FF31F16821DC0E8
:103480002F5F3F4F2630310549F780E090E00895E7
:103490003481442349F081E090E001C0880F2A95EF
:1034A000EAF7832B848309C041E050E001C0440F58
:1034B0002A95EAF740954323448381E090E00895FC
:1034C000FC0134969C012D5E3F4F80E090E06081CE
:1034D00060FD0196462F50E055954795642F452B8A
:1034E000B9F71192E217F30791F70895FC016836D6
:1034F000B8F4862F877021E030E001C0220F8A9552
:10350000EAF7669566956695E60FF11D442319F076
:103510008581282B03C0209595812923258326C0EA
:1035200050E2560F5830B0F46481442349F021E052
:1035300030E001C0220F5A95EAF7262B248316C0EB
:1035400081E090E001C0880F5A95EAF780958623C4
:1035500084830CC08289442331F0861711F08111D5
:1035600008C0628B03C0861304C0128A81E090E019
:10357000089580E090E00895CF93DF93EC01FB0184
:103580008A8190E0248135818217930709F04AC02F
:1035900081819081913A69F4813009F441C083308E
:1035A00011F48F8903C08230E9F5888D8093F10092
:1035B00037C09132B9F58B3019F482818F8B30C0CE
:1035C0008A3019F48281888F2BC0893059F5668141
:1035D00077818381833079F48C8D9D8D681779078D
:1035E00009F58A8D9B8D0E94F5148C8D9D8D9068B8
:1035F0009D8F8C8F15C0823041F46130710591F43C
:1036000061E070E0CE01499609C0813059F468301C
:10361000710541F468E070E0CE010E960E94F51449
:1036200081E001C080E0DF91CF910895FB0120810E
:103630002138B9F423812232A1F4DC0112962C91B5
:10364000129730E0448155814217530751F421E02D
:1036500057962C9345E450E068EE71E080E80C94B6
:10366000281580E090E00895CF93DF93CDB7DEB7C3
:1036700069970FB6F894DEBF0FBECDBFFC01DB012A
:103680009C919F5F9C93BE016F5F7F4F89E1DB013F
:103690001D928A95E9F729E0298384E08A8391E0E5
:1036A0009D8383E08E839F8398872A8721E22B87DF
:1036B0009C879D879F8722E2288B25E4298B27E022
:1036C0002B8B25E02C8B8E8B20E430E0388F2F8BDA
:1036D000998F82818B83838180688D8B49E150E053
:1036E00080E00E94281569960FB6F894DEBF0FBEE1
:1036F000CDBFDF91CF910895CF93DF93EC010E946E
:103700008220AE014C5F5F4F2FE030E068E0DF9138
:10371000CF910C943120CF93DF9390E0FC01EB5ECE
:10372000FE4F2491FC01EA50FF4F8491882361F100
:1037300090E0880F991FFC01E35DFD4FC591D49186
:10374000FC01ED5AFE4FA591B491611109C09FB7DC
:10375000F8948881209582238883EC912E230BC0D6
:10376000623061F49FB7F8943881822F809583236B
:103770008883EC912E2B2C939FBF06C08FB7F894B3
:10378000E8812E2B28838FBFDF91CF9108958F92F0
:103790009F92AF92BF92CF92DF92EF92FF926B0116
:1037A0007C010E9434194B015C01C114D104E10475
:1037B000F104F1F00E943419DC01CB018819990958
:1037C000AA09BB09883E9340A105B10570F321E029
:1037D000C21AD108E108F10888EE880E83E0981E2D
:1037E000A11CB11CC114D104E104F10419F7DDCF0F
:1037F000FF90EF90DF90CF90BF90AF909F908F9011
:1038000008951F920F920FB60F9211242F933F939A
:103810008F939F93AF93BF9380911B0590911C054D
:10382000A0911D05B0911E053091BA0623E0230F2B
:103830002D3720F40196A11DB11D05C026E8230FE8
:103840000296A11DB11D2093BA0680931B0590938B
:103850001C05A0931D05B0931E058091BB06909199
:10386000BC06A091BD06B091BE060196A11DB11D7A
:103870008093BB069093BC06A093BD06B093BE0692
:10388000BF91AF919F918F913F912F910F900FBE5C
:103890000F901F9018951F920F920FB60F92112440
:1038A0002F933F934F935F936F937F938F939F9348
:1038B000AF93BF93EF93FF938091B900887F8036D9
:1038C00009F49CC068F5883209F45BC090F480313B
:1038D00009F454C038F4882309F4F6C0883009F498
:1038E0004DC0F6C0883109F44CC0803209F45DC087
:1038F000EFC0803409F468C048F4803309F455C03F
:10390000883309F0E5C08093E506D8C0803509F416
:103910004FC0883509F45DC0883409F0D9C0D6C0DD
:10392000883909F4C7C0A8F4883709F467C038F4A7
:10393000883609F463C0803709F460C0C9C088388C
:1039400009F4B8C0803909F45FC0803809F0C0C0FC
:103950005BC0803B09F486C038F4803A09F466C045
:10396000883A09F47FC0B4C0803C09F4A7C0883C01
:1039700009F4A4C0883B09F48AC0AAC08091C20699
:1039800010C09091E4068091E306981770F5E091DD
:10399000E40681E08E0F8093E406F0E0ED53F94FEA
:1039A00080818093BB0085EC86C08093E5068EC045
:1039B000E091E40681E08E0F8093E4068091BB00E5
:1039C000F0E0ED53F94F80839091E4068091E30697
:1039D0006EC0E091E40681E08E0F8093E406809152
:1039E000BB00F0E0ED53F94F80838091E606811132
:1039F0006DC081E08093C10684EA61C083E080935A
:103A0000E7061092B906CFCF8091B906803208F050
:103A100051C0E091B90681E08E0F8093B906809184
:103A2000BB00F0E0E756F94F8083BDCF85EC809373
:103A3000BC001092E7068091B906803230F4E09124
:103A4000B906F0E0E756F94F10826091B90670E0D0
:103A5000E0919706F091980689E996E00995109211
:103A6000B90636C084E08093E7061092960610925D
:103A70009506E0919306F09194060995809195063C
:103A8000811105C081E08093950610927306E09144
:103A9000960681E08E0F80939606F0E0ED58F94F80
:103AA00080818093BB00909196068091950698172F
:103AB00008F479CF85E88093BC000AC085EC809338
:103AC000BC001092E70604C01092E5060E94591946
:103AD000FF91EF91BF91AF919F918F917F916F91E6
:103AE0005F914F913F912F910F900FBE0F901F90BC
:103AF0001895BC01009791F0FC0101900020E9F7B6
:103B00003197AF01481B590BE0910D07F0910E075B
:103B10000280F381E02D8DE097E0099480E090E051
:103B200008958F929F92AF92BF920F931F93CF935E
:103B3000DF93CDB7DEB7A1970FB6F894DEBF0FBE07
:103B4000CDBF19A2423008F44AE08E010F5D1F4F2D
:103B5000842E912CA12CB12CA50194010E94B72692
:103B6000E62FB901CA0101501109EA3014F4E05DF1
:103B700001C0E95CD801EC93232B242B252B61F7A2
:103B8000C8010E94791DA1960FB6F894DEBF0FBE42
:103B9000CDBFDF91CF911F910F91BF90AF909F90BC
:103BA0008F900895CF92DF92EF92FF92CF93DF93A1
:103BB0006B017C01E0910D07F0910E070190F081FF
:103BC000E02D6DE28DE097E00995EC0166277727FF
:103BD000CB016C197D098E099F094AE00E94911D55
:103BE0008C0F9D1FDF91CF91FF90EF90DF90CF90D2
:103BF0000895CF93DF9300D0CDB7DEB719821A8234
:103C00000E94822022E030E0AE014F5F5F4F65E00E
:103C10000E9431200F900F90DF91CF9108958091F5
:103C20000C07813019F487E897E002C083E797E03A
:103C30000C94DF11682F80910C07813019F487E80C
:103C400097E002C083E797E00C942A0E682F8091DA
:103C50000C07813019F487E897E002C083E797E00A
:103C60000C940E0E0C94791DCF93DF93FC012481EC
:103C70003581232B61F0C081D18168E270E0CE01F3
:103C80000E94E428009719F08C1B9D0B02C08FEF57
:103C90009FEFDF91CF910895682F70E080E090E072
:103CA0004AE00C94911DCF93DF93682F70E080E081
:103CB00090E04AE00E94911DEC018EEF94E00E949A
:103CC000791D8C0F9D1FDF91CF910895CF93DF93C6
:103CD0000E94791DEC018EEF94E00E94791D8C0FFB
:103CE0009D1FDF91CF91089520910B0790910A07B6
:103CF000213208F04AC08091E7068111FCCF32E002
:103D00003093E70631E03093E6063FEF3093E50667
:103D10001092E4062093E306AAEEB6E043EC56E0E8
:103D2000FA013E2F341B321718F43D913193F9CF2D
:103D30001092C2062091C206990F922B9093C20650
:103D40009091C106913061F41092C1069091C20623
:103D50009093BB009091BC0093FDF8CF95EC01C00F
:103D600095EE9093BC009091E7069230E1F390912C
:103D7000E5069F3F79F08091E506803241F0809121
:103D8000E506803331F084E005C081E003C082E0C5
:103D900001C083E01092E90610920B071092E8062A
:103DA0000895682F8DE597E00C94E719BC01990FF1
:103DB000880B990B97FD0C94D21D4AE00C94911D31
:103DC000CF93DF93BC01990F880B990B97FF03C02A
:103DD0000E94D21D03C04AE00E94911DEC018EEFAB
:103DE00094E00E94791D8C0F9D1FDF91CF91089563
:103DF000FC018091C006811103C08FEF9FEF0895F1
:103E00009FB7F89482E08093E9002091F20030E0BF
:103E10001216130614F421E030E02115310559F093
:103E2000289884E68093BF068091F100808380917A
:103E3000F200882319F09FBFC90108958BE6809393
:103E4000E800F9CFCF93DF9300D000D0CDB7DEB735
:103E5000EAE9F7E0928199838A836B834C8301902E
:103E6000F081E02D0190F081E02D44E050E0BE01B2
:103E70006F5F7F4F8AE997E009950F900F900F9041
:103E80000F90DF91CF91089590919C07892B89170E
:103E900039F080939C0740E060E080E00C94221FA2
:103EA000089590919C0780958923891739F0809314
:103EB0009C0740E060E080E00C94221F0895DC0144
:103EC000FB0112968C91129790E024813581821724
:103ED0009307D1F491818081813A31F481E091306E
:103EE00091F0933089F411C0813271F49B3021F448
:103EF00082811F968C9305C09A3031F4828150964E
:103F00008C9381E00895089580E00895DC01FB0121
:103F100088E4808389E4818384E482831D969C9174
:103F20001D979F709F5B93831D968D919C911E970B
:103F300024E0969587952A95E1F78F708F5B8483AF
:103F400085E00895FC0182818F5BFB01808381E025
:103F50000895EF92FF920F931F93CF93DF93FB018E
:103F60002081213851F52381223239F5DC01129666
:103F70002C9130E04481558142175307F1F4EC0154
:103F80000B851C85E12CF12C0115110591F0F80130
:103F9000448155816281738180E80E9428158F3F9A
:103FA000FFEF9F0769F0E80EF91ED8010D911C91F3
:103FB000EBCF81E08F87C70105C080E090E002C0B1
:103FC0008FEF9FEFDF91CF911F910F91FF90EF90B7
:103FD0000895CF93DF93CDB7DEB769970FB6F89406
:103FE000DEBF0FBECDBFFC01DB018C918F5F8C93D8
:103FF000BE016F5F7F4F89E1DB011D928A95E9F772
:1040000029E0298384E08A8391E09D8383E08E8385
:104010002A8721E22B879C879D879F8722E2288B16
:1040200027E02B8B25E02C8B8E8B20E430E0388F23
:104030002F8B998F82818B8395858685998B8A8B2F
:10404000838180688D8B49E150E080E00E942815D3
:1040500069960FB6F894DEBF0FBECDBFDF91CF914A
:104060000895AF92BF92CF92DF92EF92FF920F939B
:104070001F93CF93DF931F92CDB7DEB77C01698387
:104080006A01590141E050E0BE016F5F7F4FFC01C2
:1040900083810E944F158C0197FD0BC0F70183812E
:1040A000A501B60180640E944F1597FD02C0800FE4
:1040B000911F0F90DF91CF911F910F91FF90EF9083
:1040C000DF90CF90BF90AF900895FC01A385B48599
:1040D000109719F47487638709C08D919C9111978B
:1040E000009711F0DC01F9CF6D937C93258536851F
:1040F000DB0114968D919C911597820F931F9687E3
:10410000858708958091DF07811137C081E0809312
:10411000D2078093D30728ED37E03093D50720935B
:10412000D4071092D7071092D60727E931E03093D1
:10413000CF072093CE071092DA071092D90710927A
:10414000DC071092DB078093DD078093DE0781ECAC
:104150008093D8070E944A16FC0141812091D20722
:1041600030E0240F311D2830310524F46EEC77E067
:104170000E940B1681E08093DF078EEC97E0089594
:104180000F931F93CF93DF93EB018A010E9482204C
:104190009801AE0161E0DF91CF911F910F910C94D6
:1041A00031200F931F93CF93DF931F92CDB7DEB7CC
:1041B0008C0169830E9449296981681741F0C8010F
:1041C0000F90DF91CF911F910F910C9451290F9077
:1041D000DF91CF911F910F9108950C944929EF928F
:1041E000FF920F931F93CF93DF93C82F880FDD0BA0
:1041F000CE0187599A4F7C01DC011C911150C431CA
:10420000D10594F4133080F4CE0123E0880F991F78
:104210002A95E1F7810F911D810F911D835B9C4FC2
:104220000E94ED20082F01C000E0612FCE010E9406
:10423000750D602F0E945D0EFE01EF5BFA4F8081CD
:10424000811105C0D7011C92CB5ADA4F1882108217
:10425000DF91CF911F910F91FF90EF900895CF9331
:10426000DF93CDB7DEB7A2970FB6F894DEBF0FBECF
:10427000CDBF789484B5826084BD84B5816084BDEF
:1042800085B5826085BD85B5816085BD80916E00F4
:10429000816080936E001092810080918100826025
:1042A0008093810080918100816080938100809162
:1042B0008000816080938000809191008260809373
:1042C0009100809191008160809391008091900095
:1042D0008160809390008091C10084608093C100D0
:1042E0008091C10082608093C1008091C100816093
:1042F0008093C1008091C30081608093C30080914E
:10430000C00082608093C0008091C2008160809371
:10431000C20080917A00846080937A0080917A0054
:10432000826080937A0080917A00816080937A0025
:1043300080917A00806880937A001092C006109273
:104340001A05109219058091D70081608093D700DB
:1043500080EA8093D80089B5806189BD89B5826083
:1043600089BD09B400FEFDCF61E070E080E090E01F
:104370000E94C71B8091D8008F7C80618093D800F9
:104380008091E000807F8093E0008091E1008E7E4C
:104390008093E1008DE08093E200559A209AEEEF41
:1043A000FFE7859194918B3F9C4D19F481E08093B8
:1043B00018050E940F1E8FEF9FEF90931A078093AE
:1043C00019078EEF93E00E94ED20182F80910C07C3
:1043D000813019F487E897E002C083E797E00E94F4
:1043E000340F10930C070E940F1E1092200510929C
:1043F0001F051092E90610920B071092E70681E064
:104400008093E6061092C10661E082E00E940419E2
:1044100061E083E00E9404198091B9008E7F80934F
:10442000B9008091B9008D7F8093B90088E48093B2
:10443000B80085E48093BC0041E455E085E595E053
:10444000E9E6F5E01192DC011D92CD01DA011D9241
:10445000AD01B5E0ED37FB07A9F70FE111E0F80179
:10446000F0800E5F1F4F60E08F2D0E948B1B61E07C
:104470008F2D0E940419F1E009321F0781F709E22C
:1044800011E0D801FC900E5F1F4F60E08F2D0E945D
:104490008B1B60E08F2D0E940419B1E007331B07CE
:1044A00081F720E030E080E090E0AC01420F531F44
:1044B000FA01E358FA4F11821082FA01E65EF94FD1
:1044C000118210820A968634910579F72E5F3F4F4C
:1044D0002A30310541F76CE271E080E090E00E9403
:1044E000C71B2FB7F89480911B0590911C05A091D4
:1044F0001D05B0911E052FBF8093CB059093CC0571
:10450000A093CD05B093CE054091C7055091C80545
:104510006091C9057091CA058C019D01041B150BA2
:10452000260B370B073011052105310560F080930C
:10453000C7059093C805A093C905B093CA0581E04B
:104540008093600602C0109260068DE097E00E94A2
:104550001214181619060CF04AC08DE097E00E945C
:104560005014803219F189831A820091A1071091A9
:10457000A2070F5F1F4FB8018DE997E00E94F3116A
:10458000882341F120919D0730919E078091A107DA
:104590009091A207BE016F5F7F4F820F931F0E9411
:1045A000F8281093A2070093A10714C06DE977E0E3
:1045B000CE0101960E943313CE0101960E94A00104
:1045C000CE0101960E942E1360E075E08DE997E020
:1045D0000E94C7128091A1079091A207853691058C
:1045E00030F060E075E08DE997E00E94C71280919D
:1045F0006006882309F4DEC00091C5051091C60548
:104600008FEF93E00E94ED2090E0801791070CF46B
:10461000B7C22091C3053091C405821793070CF4EB
:10462000AFC2EDE74E2EE5E05E2E8201F9E2EF2EFD
:10463000F1E0FF2ED7019C90B2E0EB0EF11C61E09F
:10464000892D0E948B1B7FE1C72E71E0D72EA12CF4
:10465000B12CF601219131916F013327F901EC5C06
:10466000FE4F8491F901EB5EFE4F8490F901EA5010
:10467000FF4F74907720A1F081110E94C718E72D99
:10468000F0E0EE0FFF1FE851FF4FA591B491EC91C0
:104690008E2231E020E009F430E0832F922F02C017
:1046A00080E090E0F801EA0DFB1D21E08227918374
:1046B000808332E0A30EB11C8AE0A816B10409F091
:1046C000C8CF60E0892D0E948B1B065F1F4F95E0CD
:1046D000033C190709F0AECF4AE1A42E46E0B42E00
:1046E00054ED852E55E0952E00E010E0C12CD12C24
:1046F000E12CF12C95012C0D3D1D39A328A31201AD
:104700002C0C3D1CD1018D919C91F90120813181AE
:104710002817390771F1F401EC0DFD1D0197B9F46B
:104720006090C3057090C40571826082A301B801D6
:10473000C7010E94D90D282FA301B801C7012AA3E0
:104740000E94EE0D2AA1622F0E944F0F12C06080BE
:104750007180A301B801C7010E94D90D282FA301C0
:10476000B801C7012AA30E94EE0D2AA1622F0E9460
:104770005D0ED1018D919C91E8A1F9A19183808377
:10478000FFEFEF1AFF0A2AE0C20ED11C36E4C3166F
:10479000D10409F0AFCF0F5F1F4F82E0480E511CCC
:1047A00092E0A90EB11CA2E08A0E911C0530110501
:1047B00009F09CCF009100011091010161E085E0BA
:1047C0000E948B1B0115110511F460E004C00F3F1E
:1047D000110529F461E085E00E9404197CC0E9E339
:1047E000F1E0E4918E2F90E0FC013197EF30F1057C
:1047F00008F06CC0EA5AFF4F0C94D92684B5806843
:1048000084BD07BD68C084B5806284BD08BD63C037
:1048100080918000806880938000109389000093CD
:10482000880059C08091800080628093800010933E
:104830008B0000938A004FC0809180008860809335
:10484000800010938D0000938C0045C080919000F3
:1048500080688093900010939900009398003BC06B
:104860008091900080628093900010939B00009351
:104870009A0031C0809190008860809390001093DE
:104880009D0000939C0027C08091C00080688093A9
:10489000C0008091C0008F7B8093C0000093CF0048
:1048A0001AC08091C00080628093C0000093D00045
:1048B00012C08091C20088608093C2008091C200C3
:1048C0008B7F8093C2000093D20005C00038110591
:1048D0000CF080CF7ACF80916006882309F4C4C0A1
:1048E0000091C5051091C6058091D1059091D20522
:1048F00008171907C9F081E08093E80688E08093E3
:104900000A071092E90610920B0785E090E00E94DA
:10491000D11E602F8DE597E00E94E7190E94741E5A
:104920001093D2050093D1050091C3051091C405E1
:104930008091CF059091D00508171907C9F081E043
:104940008093E80688E080930A071092E9061092A7
:104950000B0781E090E00E94D11E602F8DE597E06B
:104960000E94E7190E94741E1093D0050093CF0592
:104970008091E7068111FCCF81E08093E706809368
:10498000E6069FEF9093E5061092E4069EE1909371
:10499000E3068093C2068091C20680618093C206BE
:1049A0008091C106813061F41092C1068091C206E7
:1049B0008093BB008091BC0083FDF8CF85EC01C0E3
:1049C00085EE8093BC008091E7068130E1F3809111
:1049D000E4068F3118F41091E40601C01FE1A3EC46
:1049E000B6E021E235E0F9018E2F821B811718F421
:1049F0008D918193F9CF1092200510931F0580E0CF
:104A000000E090912005191771F08DE597E00E9464
:104A10009B19E1E0F0E0EC0FFD1FE00FF11D80833A
:104A20000F5F81E0EECF8823F9F0E9808E010C5F03
:104A30001F4FCC24C394D12CF12CCE14DF04A4F44A
:104A4000F8013297808131966081F801908192302F
:104A500018F00E944F0F02C00E945D0EF3E0CF0ECF
:104A6000D11C0D5F1F4FE9CF80916006811105C0F9
:104A70008091600681114FC07BC080910201882324
:104A8000B9F385E5C82E85E0D82E99E6892E95E004
:104A9000992E2CE4A22E23E0B22EE12CF12CD4018D
:104AA0001D914D01112349F1F6018081882319F0F0
:104AB0008150808322C01150133050F4C501810F02
:104AC000911D810F911D01960E94ED20082F01C0BC
:104AD00000E0612FC7010E94750D602F0E944F0FEB
:104AE000F701EF5BFA4F8081811107C080910201CD
:104AF000882319F08E2D0E94EF20FFEFEF1AFF0A96
:104B00000FEFC01AD00A18E0A10EB11C24E1E21682
:104B1000F10429F6ADCF809105018038A1F4809190
:104B20000401803881F480910301803861F4809120
:104B3000D3058823E9F01092D30510929C0740E03A
:104B400060E080E013C010929C0740E060E080E0ED
:104B50000E94221F81E08093D305409103014058B9
:104B60006091040160588091050180580E94221FC5
:104B700080E090E0892B09F4B4CC0E940000B1CC15
:104B80001092C6051092C5051092C4051092C30577
:104B900048CDBC01625F7F4FFC01838148E050E05B
:104BA00080640C944F150A970C94C9251092100735
:104BB00010920F0788EE93E0A0E0B0E08093110719
:104BC00090931207A0931307B09314072BE331E0DF
:104BD00030930E0720930D072FEF3FEF30931A0706
:104BE000209319071092600710925F078093610766
:104BF00090936207A0936307B09364078BE491E0FE
:104C000090935E0780935D0781E080936D078093AA
:104C10006E072FE737E03093700720936F071092ED
:104C200072071092710710927607109275072BE5A4
:104C300031E030936A072093690729E631E0309329
:104C400074072093730780938007809381071092E5
:104C500082071092840710928307109286071092A1
:104C6000850781EC80937F070E944A16FC014181F1
:104C700020916D0730E0240F311D2830310524F4D8
:104C800069E677E00E940B1610928A071092890756
:104C900083E891E090938807809387078091AA0723
:104CA000811113C01092A5071092A4078BE392E024
:104CB0009093A7078093A60786E390E09093A907B7
:104CC0008093A80781E08093AA070E94822064EA6B
:104CD00077E00E94652010929C0781E991E0909313
:104CE0009B0780939A078091B807811113C0109297
:104CF000B3071092B20781E792E09093B5078093D3
:104D0000B4078BE290E09093B7078093B60781E0F9
:104D10008093B8070E94822062EB77E00E946520B2
:104D200060E075E08DE997E00E946E148091C607FF
:104D3000811113C01092C1071092C0078CE992E054
:104D40009093C3078093C2078BE490E09093C507CC
:104D50008093C40781E08093C6070E94822060ECA4
:104D600077E00C9465208DE997E00C942E13A1E276
:104D70001A2EAA1BBB1BFD010DC0AA1FBB1FEE1FD5
:104D8000FF1FA217B307E407F50720F0A21BB30B20
:104D9000E40BF50B661F771F881F991F1A9469F79C
:104DA00060957095809590959B01AC01BD01CF01F8
:104DB0000895EE0FFF1F0590F491E02D0994CF9315
:104DC000DF938230910510F482E090E0E091E907F2
:104DD000F091EA0720E030E0C0E0D0E0309711F138
:104DE0004081518148175907C0F04817590761F4AD
:104DF00082819381209719F09B838A832BC09093A3
:104E0000EA078093E90726C02115310519F04217FA
:104E1000530718F49A01BE01DF01EF010280F3810C
:104E2000E02DDCCF2115310509F1281B390B243089
:104E3000310590F412968D919C911397611571052F
:104E400021F0FB019383828304C09093EA0780934F
:104E5000E907FD01329644C0FD01E20FF31F819383
:104E60009193225031092D933C933AC02091E7074A
:104E70003091E807232B41F420911B0130911C0154
:104E80003093E8072093E7072091190130911A0128
:104E90002115310541F42DB73EB740911D015091C8
:104EA0001E01241B350BE091E707F091E807E2179C
:104EB000F307A0F42E1B3F0B2817390778F0AC013D
:104EC0004E5F5F4F2417350748F04E0F5F1F50931A
:104ED000E8074093E7078193919302C0E0E0F0E098
:104EE000CF01DF91CF9108950F931F93CF93DF935D
:104EF000009709F48CC0FC01329713821282009152
:104F0000E9071091EA070115110581F4208131812B
:104F1000820F931F2091E7073091E8072817390780
:104F200079F5F093E807E093E70771C0D80140E016
:104F300050E0AE17BF0750F412962D913C91139795
:104F4000AD012115310509F1D901F3CF9D01DA0138
:104F50003383228360817181860F971F82179307A5
:104F600069F4EC0128813981260F371F2E5F3F4FEE
:104F7000318320838A819B8193838283452B29F40B
:104F8000F093EA07E093E90742C01396FC93EE938F
:104F90001297ED01499159919E01240F351FE21797
:104FA000F30771F480819181840F951F0296119609
:104FB0009C938E938281938113969C938E931297E8
:104FC000E0E0F0E0D80112968D919C911397009744
:104FD00019F0F8018C01F6CF8D919C9198012E5F0C
:104FE0003F4F820F931F2091E7073091E807281762
:104FF000390769F4309729F41092EA071092E9070B
:1050000002C0138212821093E8070093E707DF9132
:10501000CF911F910F910895A0E0B0E0E2E1F8E296
:105020000C946329EC01009721F4CB010E94DF2648
:10503000B8C0FC01E60FF71F9C0122503109E217AE
:10504000F30708F4ACC0D9010D911C911197061714
:105050001707B0F00530110508F49FC0C801049788
:105060008617970708F499C002501109061B170B01
:10507000019311936D937C93CF010E9474278DC08F
:105080005B01A01AB10A4C01800E911EA091E907A4
:10509000B091EA0740E050E0E12CF12C109709F4C0
:1050A0004AC0A815B905D1F56D907C9011976301A0
:1050B00082E0C80ED11CCA14DB0480F1A3014A1996
:1050C0005B096A0182E0C80ED11C1296BC9012974F
:1050D0001396AC91B5E0CB16D10440F0B282A38315
:1050E00051834083D9016D937C930AC00E5F1F4F9B
:1050F000C301800F911FF90191838083EB2DFA2F5B
:10510000E114F10431F0D7011396FC93EE9312975A
:1051100044C0F093EA07E093E9073FC08D919C916A
:1051200011974817590708F4AC017D0112960D90AC
:10513000BC91A02DB3CF8091E7079091E807881527
:105140009905E1F446175707C8F480911901909129
:105150001A01009741F48DB79EB740911D015091FF
:105160001E01841B950BE817F907C8F4F093E807B4
:10517000E093E707F901718360830FC0CB010E94C0
:10518000DF267C01009759F0A801BE010E94DB28B0
:10519000CE010E947427C70104C0CE0102C080E086
:1051A00090E0CDB7DEB7EEE00C947F2981E090E08F
:1051B000F8940C949629FB01DC0102C001900D9239
:1051C00041505040D8F70895FC018191861721F095
:1051D0008823D9F7992708953197CF010895FB01C6
:1051E000DC018D91019080190110D9F3990B08957C
:1051F000FB01DC0101900D920020E1F70895FB0115
:10520000DC014150504030F08D910190801919F42B
:105210000020B9F7881B990B08951F93FC0199276B
:105220008827BC01E89411911032E9F3193010F08D
:105230001E30C8F31B3251F01D3249F4689406C089
:105240000E943429610F711D811D911D1191105310
:105250001A30B0F33EF490958095709561957F4F2C
:105260008F4F9F4F1F910895592F482F372F262F6B
:10527000660F771F881F991F660F771F881F991F5A
:10528000620F731F841F951F660F771F881F991F5A
:105290000895F999FECF92BD81BDF89A992780B5FE
:1052A0000895262FF999FECF1FBA92BD81BD20BD6A
:1052B0000FB6F894FA9AF99A0FBE019608952F92B4
:1052C0003F924F925F926F927F928F929F92AF9296
:1052D000BF92CF92DF92EF92FF920F931F93CF93E3
:1052E000DF93CDB7DEB7CA1BDB0B0FB6F894DEBF7A
:1052F0000FBECDBF09942A88398848885F846E84A0
:105300007D848C849B84AA84B984C884DF80EE80E9
:10531000FD800C811B81AA81B981CE0FD11D0FB6F2
:10532000F894DEBF0FBECDBFED01089511E0C5E7D3
:10533000D1E004C0FE010E94D9262196C637D107CC
:06534000C9F7F894FFCF4D
:1053460032000180808000C18081000000FFFFFFE5
:10535600FF00E10000000000000000EB07800004F1
:1053660000060007000800090015001400130012CB
:10537600000F000E00100000000000F113F51512DA
:105386001450142C14071400000000E719B719AFC5
:10539600199B198C198B1900000000BC1A341B16B6
:1053A6001BA21FC925F6FF0000460EC613161AD308
:1053B60025251A00000000F111F111F111A21F00BC
:1053C600000000460EC613601A7C1B761A00000009
:1053D60000C020000000005F1FE91FA91F861F757F
:1053E6006E697175656B726571696E666F004445AD
:1053F60050524543494154454400756E697175657F
:105406006B7265716E616D65005465726D696E755E
:10541600732032204D617374657200756E69717503
:10542600656B72657176617269616E7400756E691D
:105436007175656B72657164726976657200416E2D
:10544600696D757320496E6E6F766120322E352E2A
:105456003100756E697175656B7265716275696C1F
:1054660064005465726D696E75732032204F454D28
:1054760000756E697175656B7365746B657900731C
:105486006574206B65792800756E697175656B7337
:105496006574656570726F6D00736574204545505F
:1054A600524F4D2800756E697175656B7365746C26
:1054B600617900736574206C6179657220636F751C
:1054C6006E7428006572726F723A20696E73756623
:1054D60066696369656E7420454550524F4D007587
:1054E6006E697175656B6765746C617900756E6957
:1054F6007175656B676574656570726F6D00756E45
:10550600697175656B6765746B657900726574752D
:10551600726E206B65792800756E697175656B67AB
:105526006574726F7700756E697175656B67657402
:10553600636F6C00756E697175656B7365746D610B
:105546007374657200736574206D61737465722877
:1055560000756E697175656B7365746E6B726F003D
:10556600736574204E4B524F206D6F64652800653D
:1055760072726F723A20696E76616C6964204E4B66
:10558600524F206F7074696F6E00756E6971756524
:105596006B6765746E6B726F00756E697175656B9E
:1055A6006765746D6F647300676574206D6F6473EF
:1055B6002800426C656450574D00756E69717565BB
:1055C6006B7365746272696768746E657373007372
:1055D6006574206272696768746E65737328290042
:1055E600756E697175656B676574627269676874F3
:1055F6006E65737300676574206272696768746E9E
:105606006573732829006475616C526F6C6573004D
:10561600756E697175656B7365747375626B6579A3
:1056260000737562206B6579207365743A20002CCF
:105636002000756E697175656B7365747375626547
:105646006570726F6D0057726F746520746F20738A
:10565600756220454550524F4D3A2000756E69716E
:1056660075656B7365747375626C61790045646901
:10567600746564206C6179657220636F756E742041
:10568600746F3A20004C6179657220636F756E7491
:1056960020656469742061626F727465642C206988
:1056A6006E73756666696369656E7420454550520A
:1056B6004F4D00756E697175656B736574737562B0
:1056C600627269676874005365742073756220623C
:1056D60072696768746E6573730049324300756E4C
:1056E600697175656B7365746D6163726F0073655F
:1056F60074206D6163726F28006D65646961007462
:10570600617044616E636500756E697175656B7372
:10571600657474617064616E63650073657420748A
:10572600617064616E63652800737469636B794B9D
:10573600657973006D6F7573654B657973000D0A36
:02574600000061
:2070000055C000006EC000006CC000006AC0000068C0000066C0000064C0000062C0000043
:2070200060C000005EC00000F2C400005AC0000058C0000056C0000054C0000052C00000EE
:2070400050C0000078C000004CC000004AC0000048C0000046C0000044C0000042C00000BE
:2070600040C000003EC000003CC000003AC0000038C0000036C0000034C0000032C0000048
:2070800030C000002EC000002CC000002AC0000028C0000026C0000024C0000022C00000A8
:2070A00020C000001EC000001CC0000011241FBECFEFDAE0DEBFCDBF11E0A0E0B1E0E2E3BC
:2070C000FFE702C005900D92A83AB107D9F711E0A8EAB1E001C01D92AE3BB107E1F78FD30B
:2070E00026C78ECFF89410926F0010928100109285001092840081E085BF15BE47985D9AEB
:20710000289A0C94000008952091B2013091B3012F5F3F4F3093B3012093B201932F37FFA6
:2071200003C08EEF831B982F990F921710F447980895479A08951F920F920FB60F9211246E
:207140002F938F939F93EF93FF9310928500109284008091A8019091A901009741F00197D3
:207160009093A9018093A801892B09F45D9A8091AA019091AB01009741F001979093AB0126
:207180008093AA01892B09F4289AE0E0F0E0859194918F5F9F4F49F08091AC019091AD0151
:2071A00001969093AD018093AC01FF91EF919F918F912F910F900FBE0F901F90189584E0BC
:2071C0008093E9000DC08091E8008B778093E80003C08EB3882351F08091E80082FFF9CFBE
:2071E0008091E80085FFEFCF8091F1000895982F83E08093E9008091E80085FD0DC0809136
:20720000E8008E778093E80003C08EB3882369F08091E80080FFF9CF9093F1005D9884E6CB
:2072200090E09093A9018093A80108954F925F926F927F928F929F92AF92BF92CF92DF921E
:20724000EF92FF920F931F93CF93DF9384E08093E9008091E80082FF57C2289884E690E067
:207260009093AB018093AA01AADF182F853481F48CE49DE19093AD018093AC0107B600FC4B
:20728000FDCFF999FECF81E180935700E89503C0843519F494DF8DE00DC28C34E1F38035F9
:2072A000D1F3843721F484E4A2DF80E003C2813611F489E5FFC18134B1F481DF182F7FDFE3
:2072C00090E0880F991FAA2797FDA095BA2F312F330F20E0442737FD4095542F822B932B68
:2072E000A42BB52BB8C1803711F483E5E3C1833549F4C0E0D1E089917ADF21E0C730D20714
:20730000D1F7D9C1863521F481E371DF80E3D2C1833731F487E86BDF85E969DF8EE1CAC149
:207320008536B9F4E0E0F0E093E085E090935700E89507B600FCFDCF80935700E89507B65D
:2073400000FCFDCFE058FF4FA0E7E030FA0771F7A2CF823739F4E1E0F0E089E08093570024
:207360008491A8C1863439F4E0E0F0E089E08093570084919FC18E3439F4E3E0F0E089E0E5
:2073800080935700849196C1813539F4E2E0F0E089E08093570084918DC1823631F489E521
:2073A00026DF80E024DF80E885C1823419F0873609F0E5C01092AD011092AC0100DF082FE8
:2073C000FEDEF82EFCDE682E8554823008F071C1902F80E0CF2DD0E0C82BD92B10926F00B3
:2073E000173609F04BC081E180935700E895DD24CC24C3943FC0E090AE01F090AF010091CC
:20740000B0011091B101B6E46B16D9F4ED2DF0E0EE29FF29E4918E2FEADEDD2081F082E08D
