:100000000C9497010C94BF010C94BF010C94BF0198
:100010000C94BF010C94BF010C94BF010C94BF0160
:100020000C94BF010C94BF010C9425120C9426145F
:100030000C94BF010C94BF010C94BF010C94BF0140
:100040000C94BF010C94BF010C94BF010C94BF0130
:100050000C94BF010C94BF010C94BF010C94641A62
:100060000C94BF010C94BF010C94BF010C94BF0110
:100070000C94BF010C94BF010C94BF010C94BF0100
:100080000C94BF010C94BF010C94BF010C94BF01F0
:100090000C94AE1A0C94BF010C94BF010C94BF01D8
:1000A0000C94BF010C94BF010C94BF01C919CC1969
:1000B000BB19BF19C519ED19ED19ED19D019D419CE
:1000C000D819DE19E219ED19E819212226222B226E
:1000D00035223F22892289228922492253225D2208
:1000E0006722742289227C220000000000000000A8
:1000F0002A2B280000000000000000000000000083
:1001000000000000000000002C9EB4A0A1A2A434B6
:10011000A6A7A5AE362D3738271E1F20212223245F
:100120002526B333B62EB7B89F8485868788898AFB
:100130008B8C8D8E8F909192939495969798999A97
:100140009B9C9D2F3130A3AD350405060708090A95
:100150000B0C0D0E0F101112131415161718191A77
:100160001B1C1DAFB1B0B500000000002500280029
:100170002B002E003100080B0002020201000904CE
:100180000000010202000005240010010524010105
:10019000010424020605240600010705810310005E
:1001A0004009040100020A000000070502024000A5
:1001B0000007058302400000040309041201000245
:1001C000EF02014041233680000101020301417228
:1001D0006475696E6F204C4C430041726475696EA2
:1001E0006F204C656F6E6172646F0005010906A196
:1001F00001050719E029E71500250175019508811A
:1002000002050C95017508150026FF00190029FF4D
:100210008100050819012908950875019102050753
:1002200095067508150026E700190029E78100C02A
:1002300000000000240027002A002D0030000000EC
:1002400000002300260029002C002F0004040404D1
:10025000040304050202020204030202020206066B
:100260000606060604040202020404040802011041
:1002700040804010204080408008020401804020DF
:1002800010020110801020404020000000020009F0
:100290000F0000030401000C00000000000000003B
:1002A00000000000000000000005010906A1018512
:1002B00008050719E029E715002501750195088152
:1002C00002190029671500250175019568810295BD
:1002D000017508150026E700190029E78100C0050F
:1002E0000C0901A10185051500250109E909EA7537
:1002F000019502810609E29501810609B095018107
:100300000609B19501810609B79501810609B595E0
:1003100001810609B69501810609B3950181060997
:10032000B49501810695068107C0D722C623112402
:100330001FBECFEFDAE0DEBFCDBF26E0ACE1B4E018
:1003400001C01D92A837B207E1F714E0A0E0B1E0C8
:10035000ECE6FDE402C005900D92AC31B107D9F78F
:1003600011E0C6E9D1E004C02197FE010E94752486
:10037000C539D107C9F70E94C51E0C94A9260C9453
:1003800000003F924F925F926F927F928F929F9266
:10039000AF92BF92CF92DF92EF92FF920F931F9393
:1003A000CF93DF93CDB7DEB763970FB6F894DEBF78
:1003B0000FBECDBF8C0164E971E00E94261D882329
:1003C00021F083EA91E00E940B1E6FEA71E0C80100
:1003D0000E94261D882321F08EEB91E00E940B1EC7
:1003E00061ED71E0C8010E94261D882321F08EEB8B
:1003F00091E00E940B1E63EE71E0C8010E94261D71
:10040000882321F084EF91E00E940B1E67E072E0E8
:10041000C8010E94261D882319F087E192E0A4C13B
:100420006BE172E0CE0101960E941012BE016F5F77
:100430007F4FC8010E940B1DF82ECE0101960E942D
:10044000F111FF2009F4F5C0C8010E94D91DAC01CB
:100450004F5F5F4FB801CE0101960E94940CBE0120
:100460006F5F7F4FC8010E944111CE0101960E942B
:10047000F111C8010E94D91D9C0140E050E0B80173
:10048000CE0101960E94C51CCE0101960E94BA1CA5
:10049000962ECE0101960E94F111C8010E94D91D2D
:1004A000AC014F5F5F4FB801CE0101960E94940CE2
:1004B000BE016F5F7F4FC8010E944111CE010196BE
:1004C0000E94F111C8010E94D91D9C0140E050E03A
:1004D000B801CE0101960E94C51CCE0101960E9472
:1004E000BA1CA62ECE0101960E94F111C8010E94ED
:1004F000D91DAC014F5F5F4FB801CE0101960E943C
:10050000940CBE016F5F7F4FC8010E944111CE0164
:1005100001960E94F111C8010E94D91D9C0140E082
:1005200050E0B801CE0101960E94C51CCE01019693
:100530000E94BA1CB62ECE0101960E94F111C8018C
:100540000E94D91DAC014F5F5F4FB801CE010196EB
:100550000E94940CBE016F5F7F4FC8010E94411141
:10056000CE0101960E94F111C8010E94D91D9C0183
:1005700040E050E0B801CE0101960E94C51CCE01BA
:1005800001960E94BA1CC62ECE0101960E94F1115E
:10059000C8010E94D91DAC014F5F5F4FB801CE0169
:1005A00001960E94940CBE016F5F7F4FC8010E94AC
:1005B0004111CE0101960E94F111C8010E94BA1C9E
:1005C000D62E86E0A89E70011124E90CF11C88E16A
:1005D000B89EE00CF11C1124EE0CFF1C6C2DC70121
:1005E0000E949C1C6D2DC70101960E949C1C89E2F3
:1005F00092E00E94D71D892D0E94F11D8DE492E0AA
:100600000E94D71D8A2D0E94F11D8DE492E00E9468
:10061000D71D8B2D0E94F11D8DE492E00E94D71D05
:100620008C2D0E94F11D8DE492E00E94D71D8D2D2E
:100630009CC162E372E0CE0101960E941012BE01DD
:100640006F5F7F4FC8010E940B1DF82ECE010196EF
:100650000E94F111FF2009F44EC0C8010E94D91D6B
:10066000AC014F5F5F4FB801CE0101960E94940C20
:10067000BE016F5F7F4FC8010E944111CE010196FC
:100680000E94F111C8010E94D91D9C0140E050E078
:10069000B801CE0101960E94C51CCE0101960E94B0
:1006A000BA1C4B015C01CE0101960E94F111C801F8
:1006B0000E94D91DAC014F5F5F4FB801CE0101967A
:1006C0000E94940CBE016F5F7F4FC8010E944111D0
:1006D000CE0101960E94F111C8010E94BA1CF62EAB
:1006E000C4010E949C1C83E492E00E94D71DC401B7
:1006F0000E94191E0BC16FE472E0CE0101960E94A8
:100700001012BE016F5F7F4FC8010E940B1DF82EB3
:10071000CE0101960E94F111FF2049F1C8010E940B
:10072000D91DAC014F5F5F4FB801CE0101960E9409
:10073000940CBE016F5F7F4FC8010E944111CE0132
:1007400001960E94F111C8010E94BA1CF62E89E19F
:100750008F1540F06F2D8FEF93E00E949C1C8DE56C
:1007600092E0D6C08EE692E00E940B1E3DC169E881
:1007700072E0C8010E94261D882319F08FEF93E0D4
:100780002DC067E972E0CE0101960E941012BE01F1
:100790006F5F7F4FC8010E940B1DF82ECE0101969E
:1007A0000E94F111FF20E9F0C8010E94D91DAC019F
:1007B0004F5F5F4FB801CE0101960E94940CBE01BD
:1007C0006F5F7F4FC8010E944111CE0101960E94C8
:1007D000F111C8010E94BA1C862F90E00E94791E78
:1007E000C4C068EA72E0CE0101960E941012BE01F8
:1007F0006F5F7F4FC8010E940B1DF82ECE0101963E
:100800000E94F111FF2009F487C0C8010E94D91D80
:10081000AC014F5F5F4FB801CE0101960E94940C6E
:10082000BE016F5F7F4FC8010E944111CE0101964A
:100830000E94F111C8010E94D91D9C0140E050E0C6
:10084000B801CE0101960E94C51CCE0101960E94FE
:10085000BA1CE62ECE0101960E94F111C8010E9439
:10086000D91DAC014F5F5F4FB801CE0101960E94C8
:10087000940CBE016F5F7F4FC8010E944111CE01F1
:1008800001960E94F111C8010E94D91D9C0140E00F
:1008900050E0B801CE0101960E94C51CCE01019620
:1008A0000E94BA1CC62ECE0101960E94F111C80109
:1008B0000E94D91DAC014F5F5F4FB801CE01019678
:1008C0000E94940CBE016F5F7F4FC8010E944111CE
:1008D000CE0101960E94F111C8010E94BA1CA62EF9
:1008E000B12CD12CF12CA501B601C7010E94A50B9A
:1008F000982EA501B601C7010E94900BF82E86EB39
:1009000092E00E94D71D892D0E94F11D8DE492E096
:100910000E94D71D8F2D29C062EC72E0CE01019696
:100920000E941012BE016F5F7F4FC8010E940B1D15
:10093000F82ECE0101960E94F111FF2011F084E003
:1009400014C060ED72E0CE0101960E941012BE014B
:100950006F5F7F4FC8010E940B1DF82ECE010196DC
:100960000E94F111FF2021F086E00E94F81D3CC09A
:100970006EED72E0CE0101960E941012BE016F5F13
:100980007F4FC8010E940B1DF82ECE0101960E94D8
:10099000F111FF2049F1C8010E94D91DAC014F5F40
:1009A0005F4FB801CE0101960E94940CBE016F5FAB
:1009B0007F4FC8010E944111CE0101960E94F111A2
:1009C000C8010E94BA1C611103C01092150103C036
:1009D00081E0809315018FEE92E00E94D71D8091F7
:1009E000150190E00E94191EB801CE0107960E94E1
:1009F000F6116BEF72E0CE0101960E941012BE015B
:100A00006F5F7F4FCE0107960E940B1DF82ECE011F
:100A100001960E94F111FF2009F440C0CE01079613
:100A20000E94D91DAC014F5F5F4FBE01695F7F4FD0
:100A3000CE0101960E94940CBE016F5F7F4FCE01E4
:100A400007960E944111CE0101960E94F111CE013C
:100A500007960E94BA1CF62E82E08F15D0F06F2DFB
:100A60008EEF93E00E949C1C8091C305813019F4A5
:100A70008EE396E002C08AE296E00E94A10DF09219
:100A8000C3050E94B41D8AE093E00E94D71D8F2DFC
:100A900011C089E193E00E940B1E0EC064E373E075
:100AA000CE0107960E94261D882331F08EEF93E039
:100AB0000E94791E0E94F81DCE0107960E94F11136
:100AC000B801CE010D960E94F61163E473E0CE01E9
:100AD0000D960E94261D882321F082E593E00E9456
:100AE000D71DBE01635F7F4FCE0107960E94F611AE
:100AF00063E473E0CE0101960E941012BE016F5FA5
:100B00007F4FCE0107960E940B1D182FCE01019634
:100B10000E94F111112329F08CE593E00E94D71D6A
:100B200066C064E673E0CE0101960E941012BE0119
:100B30006F5F7F4FCE0107960E940B1D182FCE01CD
:100B400001960E94F1111123B1F1CE0107960E9486
:100B5000D91DAC014F5F5F4FBE01695F7F4FCE0172
:100B600001960E94940CBE016F5F7F4FCE010796E5
:100B70000E944111CE0101960E94F111CE0107960B
:100B80000E94D91D9C0140E050E0BE01695F7F4F8B
:100B9000CE0101960E94C51CCE0101960E94BA1C8E
:100BA000CE0101966B8B0E94F1116B896093140149
:100BB00089E793E016C06AE873E0CE0101960E94CF
:100BC0001012BE016F5F7F4FCE0107960E940B1D72
:100BD000182FCE0101960E94F111112341F08FE9E7
:100BE00093E00E94D71D809114010E94F81DCE0150
:100BF00007960E94F111BE01635F7F4FCE010796F9
:100C00000E94F61163E473E0CE0101960E94101277
:100C1000BE016F5F7F4FCE0107960E940B1D182FFC
:100C2000CE0101960E94F111112321F080EB93E097
:100C30000E94D71DCE0107960E94F111BE01635F8D
:100C40007F4FCE0107960E94F61163E473E0CE0158
:100C500001960E941012BE016F5F7F4FCE01079672
:100C60000E940B1D182FCE0101960E94F111112335
:100C700021F089EB93E00E94D71DCE0107960E94D8
:100C8000F111BE01635F7F4FCE0107960E94F611FE
:100C900063E473E0CE0101960E941012BE016F5F03
:100CA0007F4FCE0107960E940B1D182FCE01019693
:100CB0000E94F111112329F089EC93E00E94D71DC5
:100CC00085C16FEB73E0CE0101960E941012BE0148
:100CD0006F5F7F4FCE0107960E940B1D182FCE012C
:100CE00001960E94F111112309F470C1CE010796FB
:100CF0000E94D91DAC014F5F5F4FBE01695F7F4FFE
:100D0000CE0101960E94940CBE016F5F7F4FCE0111
:100D100007960E944111CE0101960E94F111CE0169
:100D200007960E94D91D9C0140E050E0BE01695F1A
:100D30007F4FCE0101960E94C51CCE0101960E94F4
:100D4000BA1CF62ECE0101960E94F111CE01079633
:100D50000E94D91DAC014F5F5F4FBE01695F7F4F9D
:100D6000CE0101960E94940CBE016F5F7F4FCE01B1
:100D700007960E944111CE0101960E94F111CE0109
:100D800007960E94D91D9C0140E050E0BE01695FBA
:100D90007F4FCE0101960E94C51CCE0101960E9494
:100DA000BA1CE62ECE0101960E94F11182E1F89E56
:100DB000800111248BE08F1548F088E08E1530F00B
:100DC0006E2DC801875A9D4F0E949C1C480188EADD
:100DD000881A8DEF980A580185EAA81A8DEFB80A8B
:100DE000065A1D4FC12CD12C412C512C3201439459
:100DF000CE0107960E94D91DAC014F5F5F4FBE0127
:100E0000695F7F4FCE0101960E94940CBE016F5F17
:100E10007F4FCE0107960E944111CE0101960E949C
:100E2000F111CE0107960E94D91D9C0140E050E0CF
:100E3000BE01695F7F4FCE0101960E94C51CCE01A5
:100E400001960E94BA1CCE0101966B8B0E94F11193
:100E50006B898BE08F1518F0C8010E949C1CCE0195
:100E600007960E94D91DAC014F5F5F4FBE01695FBD
:100E70007F4FCE0101960E94940CBE016F5F7F4FA1
:100E8000CE0107960E944111CE0101960E94F111F8
:100E9000CE0107960E94D91D9C0140E050E0BE01A2
:100EA000695F7F4FCE0101960E94C51CCE0101965D
:100EB0000E94BA1CCE0101966B8B0E94F1116B89C6
:100EC0008BE08F1518F0C5010E949C1CCE0107967F
:100ED0000E94D91DAC014F5F5F4FBE01695F7F4F1C
:100EE000CE0101960E94940CBE016F5F7F4FCE0130
:100EF00007960E944111CE0101960E94F111CE0188
:100F000007960E94D91D9C0140E050E0BE01695F38
:100F10007F4FCE0101960E94C51CCE0101960E9412
:100F2000BA1C362ECE0101960E94F1118BE08F156E
:100F3000C8F0C4010E94791E282FD301C2010C2CD5
:100F400004C0880F991FAA1FBB1F0A94D2F7332031
:100F500019F0622F682B03C08095622F6823C401AB
:100F60000E949C1C8FEFC81AD80A82E0A80EB11C00
:100F70000E5F1F4F88E0C816D10409F039CFCE01AB
:100F800007960E94D91DAC014F5F5F4FBE01695F9C
:100F90007F4FCE0101960E94940CBE016F5F7F4F80
:100FA000CE0107960E944111CE0101960E94F111D7
:100FB0008FEC93E00E94D71D8F2D0E94F11D8DE4D0
:100FC00092E00E94D71D8E2D0E94F81DCE0107963B
:100FD0000E94F111BE01635F7F4FCE0107960E9410
:100FE000F61163E473E0CE0101960E941012BE0177
:100FF0006F5F7F4FCE0107960E940B1D182FCE0109
:1010000001960E94F111112321F08AED93E00E94D4
:10101000D71DCE0107960E94F111BE01635F7F4F7D
:10102000CE0107960E94F61163E473E0CE010196AB
:101030000E941012BE016F5F7F4FCE0107960E9483
:101040000B1D182FCE0101960E94F111112329F0DA
:1010500084EE93E00E94D71D33C26DEE73E0CE01A3
:1010600001960E941012BE016F5F7F4FCE0107965E
:101070000E940B1D182FCE0101960E94F111112321
:1010800009F41EC2CE0107960E94D91DAC014F5F24
:101090005F4FBE01695F7F4FCE0101960E94940CA5
:1010A000BE016F5F7F4FCE0107960E944111CE01B6
:1010B00001960E94F111CE0107960E94D91D9C0154
:1010C00040E050E0BE01695F7F4FCE0101960E9473
:1010D000C51CCE0101960E94BA1C162FCE010196A6
:1010E0000E94F111CE0107960E94D91DAC014F5FFD
:1010F0005F4FBE01695F7F4FCE0101960E94940C45
:10110000BE016F5F7F4FCE0107960E944111CE0155
:1011100001960E94F111CE0107960E94D91D9C01F3
:1011200040E050E0BE01695F7F4FCE0101960E9412
:10113000C51CCE0101960E94BA1C562ECE01019606
:101140000E94F111CE0107960E94D91DAC014F5F9C
:101150005F4FBE01695F7F4FCE0101960E94940CE4
:10116000BE016F5F7F4FCE0107960E944111CE01F5
:1011700001960E94F111CE0107960E94D91D9C0193
:1011800040E050E0BE01695F7F4FCE0101960E94B2
:10119000C51CCE0101960E94BA1C662ECE01019696
:1011A0000E94F111CE0107960E94D91DAC014F5F3C
:1011B0005F4FBE01695F7F4FCE0101960E94940C84
:1011C000BE016F5F7F4FCE0107960E944111CE0195
:1011D00001960E94F111CE0107960E94D91D9C0133
:1011E00040E050E0BE01695F7F4FCE0101960E9452
:1011F000C51CCE0101960E94BA1C762ECE01019626
:101200000E94F111CE0107960E94D91DAC014F5FDB
:101210005F4FBE01695F7F4FCE0101960E94940C23
:10122000BE016F5F7F4FCE0107960E944111CE0134
:1012300001960E94F111CE0107960E94D91D9C01D2
:1012400040E050E0BE01695F7F4FCE0101960E94F1
:10125000C51CCE0101960E94BA1C862ECE010196B5
:101260000E94F111CE0107960E94D91DAC014F5F7B
:101270005F4FBE01695F7F4FCE0101960E94940CC3
:10128000BE016F5F7F4FCE0107960E944111CE01D4
:1012900001960E94F111CE0107960E94D91D9C0172
:1012A00040E050E0BE01695F7F4FCE0101960E9491
:1012B000C51CCE0101960E94BA1C962ECE01019645
:1012C0000E94F111CE0107960E94D91DAC014F5F1B
:1012D0005F4FBE01695F7F4FCE0101960E94940C63
:1012E000BE016F5F7F4FCE0107960E944111CE0174
:1012F00001960E94F111CE0107960E94D91D9C0112
:1013000040E050E0BE01695F7F4FCE0101960E9430
:10131000C51CCE0101960E94BA1CA62ECE010196D4
:101320000E94F111CE0107960E94D91DAC014F5FBA
:101330005F4FBE01695F7F4FCE0101960E94940C02
:10134000BE016F5F7F4FCE0107960E944111CE0113
:1013500001960E94F111CE0107960E94D91D9C01B1
:1013600040E050E0BE01695F7F4FCE0101960E94D0
:10137000C51CCE0101960E94BA1CB62ECE01019664
:101380000E94F111CE0107960E94D91DAC014F5F5A
:101390005F4FBE01695F7F4FCE0101960E94940CA2
:1013A000BE016F5F7F4FCE0107960E944111CE01B3
:1013B00001960E94F111CE0107960E94BA1C062FD9
:1013C000143180F588E0189F70011124670186EBC5
:1013D000C81A8CEFD80AC6010E94791E8C7F682F2C
:1013E000650DC6010E949C1CC6010E94791E837077
:1013F000962D990F990F682F690FC6010E949C1CAA
:10140000672DC701845B9C4F0E949C1C692DC701FE
:10141000825B9C4F0E949C1C6B2DC701805B9C4F84
:101420000E949C1C482D60E0812F0E945A0B4A2D7F
:1014300061E0812F0E945A0B402F62E0812F0E94B1
:101440005A0B80E094E00E94D71D812F0E94F11D6D
:101450008DE492E00E94D71D852D0E94F11D8DE440
:1014600092E00E94D71D862D0E94F11D8DE492E02E
:101470000E94D71D872D0E94F11D8DE492E00E94ED
:10148000D71D882D0E94F11D8DE492E00E94D71D8A
:10149000892D0E94F11D8DE492E00E94D71D8A2DB6
:1014A0000E94F11D8DE492E00E94D71D8B2D0E94B9
:1014B000F11D8DE492E00E94D71D802F0E94F81D3F
:1014C000CE0107960E94F111BE01635F7F4FCE01EE
:1014D00007960E94F61163E473E0CE0101960E9424
:1014E0001012BE016F5F7F4FCE0107960E940B1D49
:1014F000182FCE0101960E94F111112321F08EE0E8
:1015000094E00E94D71DCE0107960E94F11163E47A
:1015100073E0CE010D960E94261D882321F089E1FB
:1015200094E00E94D71DCE010D960E94F1116396A2
:101530000FB6F894DEBF0FBECDBFDF91CF911F91E4
:101540000F91FF90EF90DF90CF90BF90AF909F9062
:101550008F907F906F905F904F903F900895EF92A3
:10156000FF920F931F93CF93DF93E62FF0E0E038C5
:10157000F10540F021E030E0DC0113963C932E931E
:10158000129722C0D42F7C01E851FF4FC491DC0197
:10159000ED91FC916C2F6F770484F585E02D099512
:1015A0008C01C7FF13C0892B11F4D1110DC0D701D5
:1015B000ED91FC910484F585E02D4D2F61EEC7017E
:1015C0000995802B912B02C080E090E0DF91CF91B4
:1015D0001F910F91FF90EF9008958C3070F4683058
:1015E00060F422E1829FC0011124860F911D860FB5
:1015F000911D855A9D4F0C94791E80E00895CF93DC
:1016000090919F05882311F09F5F01C091509093A6
:101610009F05C0919F058FEF93E0CF3F31F40E946B
:10162000791E815080939F0506C00E94791EC817BD
:1016300010F010929F05CF9108950F931F93CF93B1
:1016400081E0809332040EE114E0C0E0F801808173
:101650008823C1F0C11102C080EE03C0C13021F463
:1016600081EE0E94CB1D0CC0C23011F482EEF9CF86
:10167000C33011F486EEF5CF80919F0580939E05CF
:10168000F8011082CF5F0F5F1F4FC431F9F6CF9181
:101690001F910F910895409113014093FF0450E072
:1016A0006FEF74E084E196E00E94391781E0809347
:1016B00013010895843178F4633068F428E0829F40
:1016C000C0011124860F911D860F911D642F835B2D
:1016D0009C4F0C949C1C0895843170F4633060F42A
:1016E00028E0829FC0011124860F911D860F911D55
:1016F000835B9C4F0C94791E80E00895843170F4D4
:10170000633060F428E0829FC0011124845B9C4F09
:10171000860F911D860F911D0C94791E80E008950F
:10172000E6E0E69F9001E79F300D1124820F931FA2
:1017300068E1649F9001659F300D1124820F931F13
:10174000880F991F01960C94791EE6E0E69F9001A0
:10175000E79F300D1124820F931F68E1649F900171
:10176000659F300D1124820F931F880F991F0C94D1
:10177000791EAF92BF92CF92DF92EF92FF920F93BA
:101780001F93CF93DF931F92CDB7DEB784E196E02E
:101790000E941D17813039F484E196E00E941D17E4
:1017A00080939E05B5C0823081F584E196E00E9469
:1017B0001D17F82E84E196E00E941D17E82E84E1A3
:1017C00096E00E941D17082F84E196E00E941D17E5
:1017D000682F84E196E069830E941D17182F86E028
:1017E000E89E900111242F0D311D88E1089F200DE6
:1017F000311D11247901EE0CFF1C6981C7010E9483
:101800009C1C612FC701019627C0833041F484E1FD
:1018100096E00E941D17682F8FEF93E01DC0843063
:1018200041F584E196E00E941D17682F00E010E06A
:101830002091F10430E08091F204281B3109121646
:1018400013064CF484E196E069830E941D17080F8B
:10185000191F6981EDCFC8010F90DF91CF911F91C2
:101860000F91FF90EF90DF90CF90BF90AF900C94CE
:101870009C1C853039F484E196E00E941D1780930A
:101880009F0546C0863039F484E196E00E941D171A
:10189000809314013DC08730D9F584E196E00E9421
:1018A0001D178C0184E196E00E941D1711277C0111
:1018B000FF24C0909E05F801EE0FFF1FEE0FFF1FE3
:1018C000EE0DFF1DE259FA4FC082B09013018EE178
:1018D0008B15F0F0D12CA601B701C8010E94A50B11
:1018E000EB2DF0E0E150FB4F8083AA24A394AB0CD6
:1018F000A0921301A601B701C8010E94900BEA2D26
:10190000F0E0E150FB4F8083B394B394B0921301A5
:101910000F90DF91CF911F910F91FF90EF90DF908B
:10192000CF90BF90AF900895CF93DF93EC01FB0170
:10193000248135810E94C51CCE01DF91CF9108958D
:101940000F931F93CF93DF93EC0140E00E94AF0A07
:101950008C01892B39F0E881F9810284F385E02D2F
:10196000CE010995C801DF91CF911F910F91089584
:101970000F931F93CF93DF93EC0141E00E94AF0AD6
:101980008C01892B39F0E881F9810284F385E02DFF
:10199000CE010995C801DF91CF911F910F91089554
:1019A000FF920F931F93CF93DF938C01F62E0E942B
:1019B000B80CEC01892B21F06F2DC8010E94A00CFE
:1019C000CE01DF91CF911F910F91FF900895CF939A
:1019D000DF93D82FC62F80911501882309F458C0B2
:1019E000611104C08D2F0E94CB1D52C0613059F48B
:1019F00080911D0490919E05891318C010929E0538
:101A000010921D0445C06230A1F480911C04811124
:101A1000EFCF8091C3056CE2813019F48EE396E03C
:101A200002C08AE296E00E94D00CE2CF80939E052D
:101A30002FC06C3019F460E080EE24C06D3001F1ED
:101A40006E3019F460E086EE1DC06F3039F460E04E
:101A500080EE0E94E70C60E081EE14C0603129F452
:101A600060E080EE0E94E70C07C0613119F460E08D
:101A700080EE04C0623161F460E081EE0E94E70C08
:101A800060E082EE0E94E70C60E08D2F0E94E70C80
:101A9000809113018F31A8F4E82FF0E0E150FB4F63
:101AA000D083E1E0E80FF0E0E150FB4FC083E2E0DB
:101AB000E80FF0E0E150FB4F91E090838D5F809361
:101AC000130180911501882371F18CEE8C0F8A30FF
:101AD00050F5C43119F460E080EE04C0C53129F43A
:101AE00060E081EE0E94E70C0EC0C63119F460E0A0
:101AF00082EEF8CFC73119F460E086EEF3CF809123
:101B00009F0580939E0580911C0481110CC08091DB
:101B1000C3056D2F813019F48EE396E002C08AE28E
:101B200096E00E94D00C80911501882339F0C331D2
:101B300029F48D2FDF91CF910C945D1CDF91CF9113
:101B400008950F931F93CF93DF93EC01E881F98100
:101B50000084F185E02D09958C01892B39F0E8810D
:101B6000F9810284F385E02DCE010995C801DF914A
:101B7000CF911F910F9108959F92AF92BF92CF92F4
:101B8000DF92EF92FF920F931F93CF93DF9300D0DA
:101B90001F92CDB7DEB7182F062F81E080931C046B
:101BA00080911501882309F481C0611104C0812F3F
:101BB0000E94BF1D7BC0613019F410921D0406C045
:101BC000623039F410921D0410921C0410939E058B
:101BD0006DC0633059F5111102C081E003C01130AE
:101BE00021F480E00E94FF0A61C0F0909F0521E08F
:101BF0000F2C01C0220F0A94EAF73AE0E32E220FDD
:101C000049F0F3948FEF93E02B830E94791E2B8190
:101C1000F81610F021E0F12C822F812319F0F092B8
:101C20009F0544C0EA94E110EACFF9CF653079F41A
:101C300080919E0590E0212F012E000C330B82171E
:101C4000930721F680919F0580939E052FC06C30ED
:101C500019F460E080EE24C06D3001F16E3019F4AB
:101C600060E086EE1DC06F3039F460E080EE0E94C7
:101C7000BC0D60E081EE14C0603129F460E080EEBC
:101C80000E94BC0D07C0613119F460E080EE04C011
:101C9000623161F460E081EE0E94BC0D60E082EE92
:101CA0000E94BC0D60E0812F0E94BC0D8091150147
:101CB000882361F1063051F58091C305813019F414
:101CC0008EE396E002C08AE296E00E94A10D612FA9
:101CD0008EEF93E00E949C1C8091C305813019F423
:101CE0008EE396E002C08AE296E00E94A10D109376
:101CF000C3050E94B41D8091C305813019F48EE3A1
:101D000096E002C08AE296E00E94A10D9091150132
:101D1000992381F10A3071F51536ACF480911401E4
:101D2000212F012E000C330B280F311D37FF03C06C
:101D3000109214011FC02F3F310519F014F08FEFDE
:101D400017C0810F15C0153699F3163611F480E2CD
:101D50000FC0173611F480E40BC0183611F480E67A
:101D600007C0193611F480E803C01A3619F480EA66
:101D700080931401809113018F31A8F4E82FF0E0D3
:101D8000E150FB4F1083E1E0E80FF0E0E150FB4F42
:101D90000083E2E0E80FF0E0E150FB4F25E0208314
:101DA0008D5F80931301992359F1043049F5111186
:101DB00002C081E017C0113011F482E013C012306C
:101DC00011F4098310C0133011F488E00BC01430F3
:101DD00011F480E107C0153011F480E403C016301F
:101DE00079F480E889831A820E94101C22E030E096
:101DF000AE014F5F5F4F65E00E94DC1B0E949E1D9D
:101E000080911501882309F452C0073009F04FC0B2
:101E10001C3008F04CC022E1129F60011124C60161
:101E2000875A9D4F0E94791E982E560186EAA81A5D
:101E30008DEFB80AE12CF12C28EAC21A2DEFD20A54
:101E4000E91430F5C6010E94791E282F30E00E2CCF
:101E500002C0359527950A94E2F76E2D812F20FF59
:101E6000C4C00E94ED0A682FC5016B830E94791ED1
:101E70006B810E94E70C65E070E080E090E00E94DA
:101E80002A1A8FEFE81AF80A22E0A20EB11CD8CF66
:101E900080919F0580939E058091C305813019F440
:101EA0008EE396E002C08AE296E00E94A10D809146
:101EB0001501882311F1043119F460E080EE09C0A6
:101EC000053119F460E081EE04C0063139F460E0B8
:101ED00082EE0E94BC0D10921C040FC0073119F451
:101EE00060E086EEF6CF88EE800F863030F41092F8
:101EF0001C0489EE800F80939E0580911501882334
:101F000009F442C0033109F03FC0C12E012E000C7C
:101F1000DD08F601E65AFA4F80818330A8F5FF24E8
:101F2000F394F80EF082143158F428E0129FC001A7
:101F30001124865B9C4F0E94791E8695869501C070
:101F400080E0F601EE0FFF1FEE5CFA4F22E3829F66
:101F5000C001112491838083F601E25EFA4F81E093
:101F6000808383E0F81669F06F2D812F0E947E0B2D
:101F7000E82E6F2D812F0E946C0BE11005C081119E
:101F800003C0812F0E940F10809115018823C1F199
:101F90000E3141F5E12F012E000CFF0BE25EFB4FED
:101FA000908181E0892780838823E1F0111102C0AC
:101FB00080EE03C0113021F481EE0E94BF1D0FC0DE
:101FC000123011F482EEF9CF133011F486EEF5CF12
:101FD0008CEF810F803118F4135010939E051092EE
:101FE00032040EC00E941D0B0BC00E94ED0A682F28
:101FF000C5016B830E94791E6B810E94BC0D3BCF93
:102000000F900F900F90DF91CF911F910F91FF9044
:10201000EF90DF90CF90BF90AF909F900895FF9288
:102020000F931F93CF93DF93082FC82FD0E0FE01AB
:10203000E65AFA4F10811150612F0E947E0BF82E44
:10204000612F802F0E946C0BCC0FDD1FCE5CDA4F0E
:102050002FEF3FEF39832883682F8F2DDF91CF91AA
:102060001F910F91FF900C94BC0DCF93DF93EC0167
:10207000E881F9810084F185E02D0995E881F981F5
:102080000284F385E02DCE01DF91CF91099408956C
:10209000409141045091420420913F04309140040A
:1020A00042175307B4F49091E8009570E1F39091D2
:1020B000E80092FD19C08093F10080914104909155
:1020C000420401968F739927892B19F48EEF809320
:1020D000E80080914104909142040196909342045B
:1020E0008093410481E0089580E008952FB7F8942B
:1020F00087708093E9009091E800892F807295FFA6
:1021000004C09091F20080E4891B2FBF08956150B4
:1021100030F02091F100FC0120830196F8CF28983F
:1021200084E68093C1050895CF92DF92EF92FF92EB
:102130000F931F93CF93DF936C017A018B01C0E063
:10214000D0E0CE15DF0589F0D8016D918D01D60163
:10215000ED91FC910190F081E02DC6010995892B4C
:1021600011F47E0102C02196ECCFC701DF91CF911F
:102170001F910F91FF90EF90DF90CF900895CF9334
:10218000DF931F92CDB7DEB76983DC01ED91FC913F
:102190000280F381E02D41E050E0BE016F5F7F4F90
:1021A00009950F90DF91CF91089583E08093E90026
:1021B0008091F200882319F08AE38093E800089563
:1021C00083E00E94761090E00895FC018485958557
:1021D00097FD0BC09FB7F89482E08093E90080914F
:1021E000F2009FBF90E0019608959FB7F89482E0B7
:1021F0008093E9008091F2009FBF90E008950F93D3
:102200001F93CF93DF931F92CDB7DEB78C01FC01F4
:102210008485958597FF0EC0CE0101960E944F1EC2
:10222000019719F4298130E002C02FEF3FEFF80148
:1022300035872487F801848595850F90DF91CF91AC
:102240001F910F910895CF93DF931F92CDB7DEB703
:10225000FC018485958597FD05C02FEF3FEF3587FD
:1022600024870BC0CE0101960E944F1E019719F4DE
:10227000898190E002C08FEF9FEF0F90DF91CF91A7
:1022800008950F931F93CF93DF938C01EB01861773
:10229000970771F1FC01808191810097B1F068810D
:1022A00079816115710579F0428153812C813D81DD
:1022B0004217530740F00E9494268C819D81F801BB
:1022C0009583848313C00E94102588819981F80129
:1022D000918380838A819B81938382838C819D817A
:1022E00095838483198218821B821A821D821C8224
:1022F000C801DF91CF911F910F9108950F931F9304
:10230000CF93DF93EC0188819981009729F02A818E
:102310003B812617370788F48B016F5F7F4F0E9440
:10232000A825009761F0998388831B830A832C81F9
:102330003D81232B11F4FC01108281E001C080E07B
:10234000DF91CF911F910F910895EF92FF920F931C
:102350001F93CF93DF93EC017B018A01BA010E94A6
:102360007E112881398181110DC02115310519F0A7
:10237000C9010E941025198218821D821C821B82AD
:102380001A8206C01D830C83B701C9010E949426DE
:10239000CE01DF91CF911F910F91FF90EF900895A3
:1023A000CF93DF93EC016115710559F0FB010190AA
:1023B0000020E9F73197AF01461B570B0E94A5118A
:1023C0000CC088819981009711F00E941025198214
:1023D00018821D821C821B821A82CE01DF91CF914E
:1023E0000895FC01808191810C941025FB01DC0192
:1023F00011961C921E9213961C921E92129715967D
:102400001C921E9214978617970749F0608171817C
:102410006115710521F0448155810C94A511089531
:10242000FC011182108213821282158214826115BE
:10243000710551F0FB0101900020E9F73197AF01E0
:10244000461B570B0C94A51108951F920F920FB6BF
:102450000F9211248F939F938091E1009091E1005E
:10246000937F9093E10083FF0FC01092E90091E009
:102470009093EB001092EC0092E39093ED00109299
:10248000C20598E09093F00082FF20C093E0909303
:10249000E9009091F200992319F09AE39093E800F3
:1024A00090914304992339F0909143049150909373
:1024B0004304992389F19091C105992339F09091B2
:1024C000C10591509093C105992341F184FF10C03B
:1024D0008091E2008E7E81608093E2008091E10035
:1024E0008F7E8093E1008091EA048E7E806111C02E
:1024F00080FF16C08091E2008E7E80618093E200B2
:102500008091E1008E7E8093E1008091EA048E7ECE
:1025100081608093EA0404C05D9ACDCF289AD6CF1B
:102520009F918F910F900FBE0F901F901895BF92A3
:10253000CF92DF92EF92FF920F931F93CF93DF938F
:102540006C018B01EB019BEFB92E2097C1F07E014E
:10255000C134D1051CF080E4E82EF12C8091E80014
:1025600082FFFCCFC8018C1B9D0B6E2D8C0D9D1D19
:102570000E948710B092E800CE19DF09E6CFC801AB
:10258000DF91CF911F910F91FF90EF90DF90CF904F
:10259000BF900895DF92EF92FF920F931F93CF9316
:1025A000DF93D82E8A017B01E40EF51EEB01CE15D8
:1025B000DF0571F0D7FE03C0FE01849101C0888160
:1025C0000E94481021968111F2CF8FEF9FEF01C03A
:1025D000C801DF91CF911F910F91FF90EF90DF9095
:1025E00008957F928F929F92AF92BF92CF92DF9287
:1025F000EF92FF920F931F93CF93DF93C82E8B011F
:102600007A018091C205811103C08FEF9FEF75C0E1
:102610008091EA0480FF05C08091E0008260809391
:10262000E000CE2DDF2DD12C8AEF882E8C2D8770E7
:10263000B82E8C2D8072A82E8C2D8074982E9AE343
:10264000792E209709F452C08C2D0E947610282FE5
:1026500081110AC08A948820C1F261E070E080E0B4
:1026600090E00E942A1AEDCF90E0C817D9070CF429
:102670002C2F3FB7F894B092E9008091E80085FFD5
:1026800033C0822F90E0C81BD90BAA2029F021501B
:10269000A8F01092F100FBCFF801C7FE07C021504F
:1026A00058F044914093F1003196F9CF215020F039
:1026B00041914093F100FACF080F191FDD2019F066
:1026C0007092E8000AC08091E80085FD08C0709211
:1026D000E800DD24D394209739F0D12C05C0209751
:1026E00019F491107092E8003FBFABCFD110ACCF7E
:1026F0005D9884E680934304C701DF91CF911F91D9
:102700000F91FF90EF90DF90CF90BF90AF909F9090
:102710008F907F900895CF93DF93EC018091120109
:10272000882331F083E00E94F1121816190634F064
:1027300081E090E09B838A8380E090E0DF91CF91FD
:102740000895CF93DF93FC01DB01C281D3812097F1
:1027500019F47383628308C088859985009711F006
:10276000EC01FACFB987A887808112968C931297D3
:10277000818113968C931397908115968C91159760
:10278000890F808380E014969C9114978917A0F498
:102790009181C92FD0E0AE0140505F4F16962D9128
:1027A0003C911797280F311DE9012881EA01288300
:1027B0009F5F91838F5FE7CF81E0DF91CF91089595
:1027C0008091370481110DC082E08093330484E04E
:1027D00080933404109236041092350481E0809383
:1027E000370483E394E008950F931F93CF93DF930F
:1027F0001F92CDB7DEB782E0898342E450E066E7FE
:1028000071E080E80E94CA120E94E013DC01129677
:102810000D911C9113970115110569F0D801ED91E7
:10282000FC910280F381E02DBE016F5F7F4FC801F4
:10283000099597FF07C089810F90DF91CF911F9174
:102840000F910895F80100851185E5CF1F920F9231
:102850000FB60F921124CF92DF92EF92FF920F9357
:102860001F932F933F934F935F936F937F938F9318
:102870009F93AF93BF93EF93FF93CF93DF93CDB726
:10288000DEB76C97DEBFCDBF1092E9008091E80003
:1028900083FFE7C168E0CE0145960E94871082EF72
:1028A0008093E8008D8987FF05C09091E80090FF34
:1028B000FCCF03C09EEF9093E800982F907609F02C
:1028C000C6C09E892F89188D91110CC0803829F4BB
:1028D0008091EB048093F10002C01092F1001092FD
:1028E000F10042C1422F50E0512B913051F481113F
:1028F0003BC14130510509F037C18091EB048D7F18
:102900000BC0933061F481112FC14130510509F0A2
:102910002BC18091EB0482608093EB0425C195303C
:1029200041F48091E80080FFFCCF20682093E30011
:102930001BC1963009F05FC0EB8CFC8C1092E90053
:102940001092420410924104123091F5109240040A
:1029500010923F040E94F41399E0BE016F5F7F4F15
:10296000DB01E92F1D92EA95E9F799831A8391E03B
:102970009E8390EA98879AEF99872091410430913D
:102980004204275F3F4F3C832B838D831092E900E5
:102990001092420410924104F0924004E0923F04ED
:1029A00049E050E080E00E94CA120E94F413DCC0AB
:1029B000F0924004E0923F040E94E013DC01129682
:1029C000ED90FC901397E114F10409F4BAC0D7011B
:1029D000ED91FC910480F581E02DBE016B5E7F4F8F
:1029E000C7010995009719F00CF0BEC0C1C0F701EE
:1029F000E084F184E8CF973009F4BAC0983021F42C
:102A000081E08093F100B0C0993009F0ADC08370CF
:102A100009F0AEC0E1E0F1E081E021E036E3908131
:102A2000992361F08093E9002093EB0091919093BA
:102A3000EC003093ED008F5F873089F78EE780934D
:102A4000EA001092EA008F898093C2058DC08B8DB9
:102A50009C8D1092E90010924204109241049093D0
:102A6000400480933F04898D811150C08E899D89D7
:102A7000913A59F4813209F07BC047E050E06BE0B5
:102A800071E080E00E94CA126FC0913209F070C0FC
:102A9000833289F4888D90E0982F88272F89822BA4
:102AA000A0E0B0E08093070190930801A093090192
:102AB000B0930A0159C0803239F467E070E08BE0CE
:102AC00091E00E94971206C0823209F04DC08F89B2
:102AD000809312018091E904882319F0EEEFFAE067
:102AE00002C0E0E0F8E080910B0190910C01A09110
:102AF0000D01B0910E01803B9440A105B10509F094
:102B00007BC08091120180FF93C076C00E94E013C9
:102B1000DC0112960D911C9113970115110541F1DD
:102B2000D801ED91FC910190F081E02DBE016B5E2A
:102B30007F4FC8010995811117C0F80100851185E3
:102B4000ECCF113009F44EC0133091F48F898823F3
:102B500009F445C0823081F440E860E18AED91E0FB
:102B60000E947B1E882321F08EEF8093E80079C0BD
:102B700081E28093EB0075C0813029F440E86BE07E
:102B80008EEC91E0EDCF833099F70E94E013DC01E9
:102B90001296ED90FC9013978E010F5F1F4F680106
:102BA000E114F10479F0D701ED91FC910680F781F1
:102BB000E02DB801C7010995080F111DF701E08448
:102BC000F184EECFD8011C92F60101900020E9F7C4
:102BD0003197BF016C197D0940E0C601C1CF68EB98
:102BE00071E002C06CEB71E06115710509F2FB0147
:102BF000449150E080E846CF0FB6F894A8958091B4
:102C00006000886180936000109260000FBEA895FC
:102C1000EE3F2AE0F20739F08091FE0A9091FF0A18
:102C200091838083A1CF1092FF0A1092FE0A9CCF5D
:102C3000EE3F8AE0F80731F0808191819093FF0A9E
:102C40008093FE0A87E797E7918380839BE088E182
:102C50000FB6F894A895809360000FBE9093600023
:102C600083CF6C960FB6F894DEBF0FBECDBFDF9159
:102C7000CF91FF91EF91BF91AF919F918F917F91F4
:102C80006F915F914F913F912F911F910F91FF9005
:102C9000EF90DF90CF900F900FBE0F901F90189580
:102CA0001F93CF93DF93282F30E0F901E657FD4FB4
:102CB0008491F901E559FD4FD491F901E45BFD4F91
:102CC000C491CC23C9F0162F81110E94B119EC2FA9
:102CD000F0E0EE0FFF1FE859FE4FA591B4918FB7BA
:102CE000F894111105C09C91ED2FE095E92302C0E5
:102CF000EC91ED2BEC938FBFDF91CF911F91089555
:102D00003FB7F8948091E5049091E604A091E70420
:102D1000B091E80426B5A89B05C02F3F19F0019695
:102D2000A11DB11D3FBFBA2FA92F982F8827820F51
:102D3000911DA11DB11DBC01CD0142E0660F771FA1
:102D4000881F991F4A95D1F7089585ED8093BC009F
:102D50008091BC0084FDFCCF1092EE040895409158
:102D60009D04262F30E0240F311D21323105DCF483
:102D70002091EE042430C9F4FC0180E090E0861735
:102D800058F430919D042191DC01A358BB4FA30F4F
:102D9000B11D2C930196F3CF80919D04680F609331
:102DA0009D0480E0089581E0089582E00895E09117
:102DB000F704F091F804309729F01092F004109283
:102DC000EF0409940895CF93DF93AC01E091F904E7
:102DD000F091FA043097F1F09091F2048091F104AF
:102DE0009817C0F090E0292F30E02617370754F4E9
:102DF000D901A35ABB4FEA01C20FD31F88818C931C
:102E00009F5FF1CF1092F2046093F104CB01DF9148
:102E1000CF910994DF91CF9108950895E091F20444
:102E20008091F104E81730F4F0E0E35AFB4F808121
:102E300090E008958FEF9FEF08959091F2048091B4
:102E4000F104981750F4E92FF0E0E35AFB4F20818A
:102E500030E09F5F9093F20402C02FEF3FEFC90173
:102E600008958091F10490E02091F204821B910971
:102E70000895CF93DF9300D0CDB7DEB7CB01642F99
:102E800049835A830E94AF164981842F5A81952F16
:102E90000F900F90DF91CF910895CF93DF931F9202
:102EA000CDB7DEB7698361E0CE0101960E94AF160F
:102EB00081E090E00F90DF91CF910895FC0134966E
:102EC0009C01245F3F4F80E090E0408141110196DA
:102ED0001192E217F307C9F70895CF93DF93DC014E
:102EE00050E2560F5830D0F414966C911497442346
:102EF00051F021E030E001C0220F5A95EAF7262B6D
:102F000014962C9337C081E090E001C0880F5A9549
:102F1000EAF78095862314968C932CC0FC01369694
:102F20004423B9F00C96EF012991261719F1C8171F
:102F3000D907D1F780E090E02191211105C0A80FB9
:102F4000B91F16966C9316C0019686309105A1F7AD
:102F50000EC080E090E02191261305C0A80FB91F94
:102F600016961C9207C0019686309105A1F780E065
:102F700090E002C081E090E0DF91CF910895FC01E4
:102F800034969C012D5E3F4F80E090E0608160FDB3
:102F90000196462F50E055954795642F452BB9F77C
:102FA0001192E217F30791F70895FC016836B8F41F
:102FB000862F877021E030E001C0220F8A95EAF762
:102FC000669566956695E60FF11D442319F0858197
:102FD000282B03C0209595812923258326C050E204
:102FE000560F5830B0F46481442349F021E030E0BA
:102FF00001C0220F5A95EAF7262B248316C081E0E0
:1030000090E001C0880F5A95EAF780958623848363
:103010000CC08289442331F0861711F0811108C059
:10302000628B03C0861304C0128A81E090E0089589
:1030300080E090E00895089580E090E00895DC013C
:10304000FB0112968C91129790E0248135818217B2
:103050009307D1F491818081813A31F481E09130FC
:1030600091F0933089F411C0813271F49B3021F4D6
:1030700082811F968C9305C09A3031F482815096DC
:103080008C9381E00895089580E00895DC01FB01B0
:1030900088E4808389E4818384E482831D969C9103
:1030A0001D979F709F5B93831D968D919C911E979A
:1030B00024E0969587952A95E1F78F708F5B84833E
:1030C00085E00895FC0182818F5BFB01808381E0B4
:1030D0000895CF93DF93EC01FB018A8190E0248176
:1030E00035818217930709F04AC081819081913A16
:1030F00069F4813009F441C0833011F48F8903C031
:103100008230E9F5888D8093F10037C09132B9F5AE
:103110008B3019F482818F8B30C08A3019F4828110
:10312000888F2BC0893059F5668177818381833000
:1031300079F48C8D9D8D6817790709F58A8D9B8DA3
:103140000E9497128C8D9D8D90689D8F8C8F15C0DD
:10315000823041F46130710591F461E070E0CE019C
:10316000499609C0813059F46830710541F468E02E
:1031700070E0CE010E960E94971281E001C080E0BF
:10318000DF91CF910895FB0120812138B9F423818B
:103190002232A1F4DC0112962C91129730E0448186
:1031A00055814217530751F421E057962C9345E47B
:1031B00050E06BEE71E080E80C94CA1280E090E081
:1031C0000895CF93DF93CDB7DEB769970FB6F89424
:1031D000DEBF0FBECDBFFC01DB019C919F5F9C93C6
:1031E000BE016F5F7F4F89E1DB011D928A95E9F790
:1031F00029E0298384E08A8391E09D8383E08E83A4
:103200009F8398872A8721E22B879C879D879F87AA
:1032100022E2288B25E4298B27E02B8B25E02C8BC1
:103220008E8B20E430E0388F2F8B998F82818B83B7
:10323000838180688D8B49E150E080E00E94CA1252
:1032400069960FB6F894DEBF0FBECDBFDF91CF9168
:103250000895EF92FF920F931F93CF93DF93FB019B
:103260002081213851F52381223239F5DC01129673
:103270002C9130E04481558142175307F1F4EC0161
:103280000B851C85E12CF12C0115110591F0F8013D
:10329000448155816281738180E80E94CA128F3F08
:1032A000FFEF9F0769F0E80EF91ED8010D911C9100
:1032B000EBCF81E08F87C70105C080E090E002C0BE
:1032C0008FEF9FEFDF91CF911F910F91FF90EF90C4
:1032D0000895CF93DF93CDB7DEB769970FB6F89413
:1032E000DEBF0FBECDBFFC01DB018C918F5F8C93E5
:1032F000BE016F5F7F4F89E1DB011D928A95E9F77F
:1033000029E0298384E08A8391E09D8383E08E8392
:103310002A8721E22B879C879D879F8722E2288B23
:1033200027E02B8B25E02C8B8E8B20E430E0388F30
:103330002F8B998F82818B8395858685998B8A8B3C
:10334000838180688D8B49E150E080E00E94CA1241
:1033500069960FB6F894DEBF0FBECDBFDF91CF9157
:10336000089590E0FC013197EF30F105B0F5EA5A8D
:10337000FF4F0C947524809180008F7703C080915B
:1033800080008F7D80938000089580918000877FEA
:10339000F9CF84B58F7702C084B58F7D84BD089541
:1033A000809190008F7707C0809190008F7D03C03F
:1033B00080919000877F8093900008958091C00055
:1033C0008F7703C08091C0008F7D8093C0000895E7
:1033D0008091C200877F8093C2000895CF93DF93CE
:1033E00090E0FC01E559FD4F2491FC01E45BFD4FA9
:1033F0008491882361F190E0880F991FFC01E05DC2
:10340000FD4FC591D491FC01E859FE4FA591B491AF
:10341000611109C09FB7F894888120958223888321
:10342000EC912E230BC0623061F49FB7F894388181
:10343000822F809583238883EC912E2B2C939FBF22
:1034400006C08FB7F894E8812E2B28838FBFDF91B9
:10345000CF9108958F929F92AF92BF92CF92DF92B9
:10346000EF92FF926B017C010E9480164B015C0180
:10347000C114D104E104F104F1F00E948016DC01D2
:10348000CB0188199909AA09BB09883E9340A10577
:10349000B10570F321E0C21AD108E108F10888EE05
:1034A000880E83E0981EA11CB11CC114D104E10454
:1034B000F10419F7DDCFFF90EF90DF90CF90BF9030
:1034C000AF909F908F9008951F920F920FB60F921A
:1034D00011242F933F938F939F93AF93BF9380912A
:1034E000FB049091FC04A091FD04B091FE04309186
:1034F000E40423E0230F2D3720F40196A11DB11D14
:1035000005C026E8230F0296A11DB11D2093E404F7
:103510008093FB049093FC04A093FD04B093FE04FD
:103520008091E5049091E604A091E704B091E8044D
:103530000196A11DB11D8093E5049093E604A0932C
:10354000E704B093E804BF91AF919F918F913F91B1
:103550002F910F900FBE0F901F9018951F920F92F2
:103560000FB60F9211242F933F934F935F936F9356
:103570007F938F939F93AF93BF93EF93FF9380912C
:10358000B900887F803609F49CC068F5883209F458
:103590005BC090F4803109F454C038F4882309F4F6
:1035A000F6C0883009F44DC0F6C0883109F44CC02B
:1035B000803209F45DC0EFC0803409F468C048F47B
:1035C000803309F455C0883309F0E5C08093C00406
:1035D000D8C0803509F44FC0883509F45DC08834FF
:1035E00009F0D9C0D6C0883909F4C7C0A8F4883713
:1035F00009F467C038F4883609F463C0803709F4E9
:1036000060C0C9C0883809F4B8C0803909F45FC007
:10361000803809F0C0C05BC0803B09F486C038F434
:10362000803A09F466C0883A09F47FC0B4C0803C8F
:1036300009F4A7C0883C09F4A4C0883B09F48AC0F7
:10364000AAC08091E30410C09091E2048091E1044B
:10365000981770F5E091E20481E08E0F8093E20408
:10366000F0E0EF53FB4F80818093BB0085EC86C078
:103670008093C0048EC0E091E20481E08E0F8093BD
:10368000E2048091BB00F0E0EF53FB4F8083909108
:10369000E2048091E1046EC0E091E20481E08E0FCB
:1036A0008093E2048091BB00F0E0EF53FB4F8083F6
:1036B0008091ED0481116DC081E08093EC0484EA77
:1036C00061C083E08093EE041092BF04CFCF80915D
:1036D000BF04803208F051C0E091BF0481E08E0F3A
:1036E0008093BF048091BB00F0E0E156FB4F8083E4
:1036F000BDCF85EC8093BC001092EE048091BF0496
:10370000803230F4E091BF04F0E0E156FB4F1082CC
:103710006091BF0470E0E091F304F091F4048FE94C
:1037200094E009951092BF0436C084E08093EE04C3
:1037300010929E0410929D04E091F504F091F6041D
:10374000099580919D04811105C081E080939D04BD
:1037500010927D04E0919E0481E08E0F80939E0480
:10376000F0E0E358FB4F80818093BB0090919E0472
:1037700080919D04981708F479CF85E88093BC0068
:103780000AC085EC8093BC001092EE0404C0109235
:10379000C0040E94A516FF91EF91BF91AF919F9138
:1037A0008F917F916F915F914F913F912F910F90EA
:1037B0000FBE0F901F901895AF92BF92CF92DF92DD
:1037C000EF92FF920F931F93CF93DF931F92CDB78A
:1037D000DEB77C0169836A01590141E050E0BE0116
:1037E0006F5F7F4FFC0183810E94F1128C0197FD76
:1037F0000BC0F7018381A501B60180640E94F1121C
:1038000097FD02C0800F911F0F90DF91CF911F9104
:103810000F91FF90EF90DF90CF90BF90AF90089501
:1038200080915504811137C081E0809348048093D2
:1038300049042EE434E030934B0420934A04109260
:103840004D0410924C0420E231E030934504209363
:1038500044041092500410924F041092520410929B
:103860005104809353048093540481EC80934E045C
:103870000E94E013FC0141812091480430E0240FB4
:10388000311D2830310524F464E474E00E94A11352
:1038900081E08093550484E494E00895CF93DF930E
:1038A000EC010E94101CAE014C5F5F4F2FE030E036
:1038B00068E0DF91CF910C94DC1BBF92CF92DF9236
:1038C000EF92FF920F931F93CF93DF93C82F082E91
:1038D000000CDD0B9E01220F331FA9014E5C5A4FD5
:1038E0007A01FA012081318137FF19C0182FAE010A
:1038F000465A5A4F6A01FA0100810150602F0E9416
:103900007E0BB82E602F812F0E946C0B682F8B2DA1
:103910000E94E70CF6011082F70111821082C25E4C
:10392000DA4F1882DF91CF911F910F91FF90EF90A6
:10393000DF90CF90BF9008950F931F93CF93DF93A5
:103940001F92CDB7DEB78C0169830E94062469817E
:10395000681741F0C8010F90DF91CF911F910F912F
:103960000C940E240F90DF91CF911F910F91089529
:103970000E947226FC0180819181009711F00C94C5
:10398000CA2360E070E0CB010895BF92CF92DF922E
:10399000EF92FF920F931F93CF93DF937C016B0104
:1039A0008A01E9012417350720F4812F8901C42FEA
:1039B000D82F6BE174E0C7010E941012D601149653
:1039C0008D919C91159708171907D0F48C179D07B6
:1039D00008F4EC01D601ED91FC911197EC0FFD1F5D
:1039E000B08010824D915C91BA01600F711FC701C8
:1039F0000E94D011D601ED91FC91EC0FFD1FB08219
:103A0000C701DF91CF911F910F91FF90EF90DF9051
:103A1000CF90BF900895FB0144815581FC01248122
:103A200035812417350778F080819181009759F00E
:103A3000FB01608171816115710529F00E949B264F
:103A400021E0892B09F020E0822F0895FC012481D8
:103A50003581232B31F421E061157105A1F0FB01C3
:103A600008C0FC01808191816115710531F421E06C
:103A7000FC018081882339F005C00E948B2621E05B
:103A8000892B09F020E0822F0895BC01009791F066
:103A9000FC0101900020E9F73197AF01481B590B59
:103AA000E091C405F091C5050280F381E02D84EC1E
:103AB00095E0099480E090E008958F929F92AF92F4
:103AC000BF920F931F93CF93DF93CDB7DEB7A1972C
:103AD0000FB6F894DEBF0FBECDBF19A2423008F476
:103AE0004AE08E010F5D1F4F842E912CA12CB12C2A
:103AF000A50194010E945324E62FB901CA01015087
:103B00001109EA3014F4E05D01C0E95CD801EC93DE
:103B1000232B242B252B61F7C8010E94451DA1965C
:103B20000FB6F894DEBF0FBECDBFDF91CF911F91CE
:103B30000F91BF90AF909F908F900895CF93DF9398
:103B400000D0CDB7DEB719821A820E94101C22E085
:103B500030E0AE014F5F5F4F65E00E94DC1B0F90CD
:103B60000F90DF91CF9108958091C305813019F4B2
:103B70008EE396E002C08AE296E00C943510682F3E
:103B80008091C305813019F48EE396E002C08AE289
:103B900096E00C94B80C682F8091C305813019F41D
:103BA0008EE396E002C08AE296E00C94A00C0C949E
:103BB000451DCF93DF93FC0124813581232B61F0D8
:103BC000C081D18168E270E0CE010E94802600971A
:103BD00019F08C1B9D0B02C08FEF9FEFDF91CF91EF
:103BE0000895682F70E080E090E04AE00C945D1D3D
:103BF000CF93DF93682F70E080E090E04AE00E946E
:103C00005D1DEC0189E194E00E94451D8C0F9D1F14
:103C1000DF91CF910895CF93DF930E94451DEC0172
:103C200089E194E00E94451D8C0F9D1FDF91CF918B
:103C30000895CF92DF92EF92FF92CF93DF936C01C2
:103C4000990FEE08FF08F7FE1FC0E091C405F09140
:103C5000C5050190F081E02D6DE284EC95E00995B9
:103C6000EC0166277727CB016C197D098E099F0926
:103C70004AE00E945D1D8C0F9D1FDF91CF91FF9048
:103C8000EF90DF90CF9008954AE0C701B601DF9131
:103C9000CF91FF90EF90DF90CF900C945D1DFC01D1
:103CA0008091C205811103C08FEF9FEF08959FB7E8
:103CB000F89482E08093E9002091F20030E012163F
:103CC000130614F421E030E02115310559F028984D
:103CD00084E68093C1058091F10080838091F20099
:103CE000882319F09FBFC90108958BE68093E800EF
:103CF000F9CF0C940624CF92DF92EF92FF920F93AC
:103D00001F93CF93DF931F92CDB7DEB7182F062FE7
:103D1000E42E862F880F8E5F99830E94481083E0DF
:103D20000E944810F12EC12E9981D92E8C2D8F1909
:103D3000801798F4F601E7FE02C0849101C08081EB
:103D40000E944810182F80E00E9448108123FFEF46
:103D5000CF1ADF0A8111EACF01C081E00F90DF9115
:103D6000CF911F910F91FF90EF90DF90CF9008952A
:103D7000BC01625F7F4FFC01838148E050E08064BA
:103D80000C94F1120A970C94B81ECF93DF93CDB721
:103D9000DEB729970FB6F894DEBF0FBECDBF78947B
:103DA00084B5826084BD84B5816084BD85B5826040
:103DB00085BD85B5816085BD80916E0081608093F1
:103DC0006E0010928100809181008260809381005A
:103DD000809181008160809381008091800081606A
:103DE0008093800080919100826080939100809107
:103DF0009100816080939100809190008160809318
:103E000090008091C10084608093C1008091C100C6
:103E100082608093C1008091C10081608093C10065
:103E20008091C30081608093C3008091C000826054
:103E30008093C0008091C20081608093C200809115
:103E40007A00846080937A0080917A008260809307
:103E50007A0080917A00816080937A0080917A0064
:103E6000806880937A001092C2051092EB04109241
:103E7000EA048091D70081608093D70080EA809324
:103E8000D80089B5806189BD89B5826089BD09B4D2
:103E900000FEFDCF61E070E080E090E00E942A1A11
:103EA0008091D8008F7C80618093D8008091E00061
:103EB000807F8093E0008091E1008E7E8093E1001E
:103EC0008DE08093E200559A209AEEEFFFE785910E
:103ED00094918B3F9C4D19F481E08093E9040E94FA
:103EE000B41D8FEF9FEF9093D1058093D0058EEF97
:103EF00093E00E94791E182F8091C305813019F438
:103F00008EE396E002C08AE296E00E94A10D109333
:103F1000C3050E94B41D80E18093BA0087ED96E14D
:103F20009093F6048093F50483EE96E19093F40465
:103F30008093F3041092F2041092F1041092F004B2
:103F40001092EF041092EE0481E08093ED04109241
:103F5000EC0461E082E00E94501661E083E00E9480
:103F600050168091B9008E7F8093B9008091B9007E
:103F70008D7F8093B90088E48093B80085E48093B6
:103F8000BC00109215018BE49BE09093F8048093A1
:103F9000F70489EB9BE09093FA048093F9044EE1D7
:103FA00055E082E395E0EAE5F5E024E12E0F119279
:103FB000DC011D921D92CD01DA011D92AD012E137F
:103FC000F6CF08E211E0F4E0EF2EE00EF801F190F8
:103FD0008F0160E08F2D0E94EE1961E08F2D0E940D
:103FE0005016E012F3CF0CE211E0E6E04E2E400E48
:103FF000D801FD908D0160E08F2D0E94EE1960E0E8
:104000008F2D0E9450164012F3CF48EA55E026E863
:1040100035E064E0620F80E090E0F901E80FF91FFD
:104020001082FA01E80FF91F108204968831910579
:10403000A1F72F5F3F4F4F5F5F4F6213ECCF6CE2F2
:1040400071E080E090E00E942A1A2FB7F8948091E6
:10405000FB049091FC04A091FD04B091FE042FBFDD
:104060008093A4059093A505A093A605B093A705FA
:104070004091A0055091A1056091A2057091A30502
:1040800084179507A607B70761F08093A005909362
:10409000A105A093A205B093A30581E08093C0057C
:1040A00002C01092C00584EC95E00E94E51018163D
:1040B00019060CF04AC084EC95E00E94231180326E
:1040C00019F189831A8200915506109156060F5FE7
:1040D0001F4FB80181E596E00E947E11882341F1CF
:1040E00020915106309152068091550690915606C6
:1040F000BE016F5F7F4F820F931F0E949426109323
:1041000056060093550614C061E576E0CE0101968F
:104110000E94F611CE0101960E94C101CE010196C6
:104120000E94F1116BE174E081E596E00E94D011EC
:1041300080915506909156068536910530F06BE1D9
:1041400074E081E596E00E94D01110919F058FEFF9
:1041500093E00E94791E811708F424C290919E0575
:10416000891708F41FC28091C005882309F445C14E
:1041700066E8C62E65E0D62E7CE2E72E71E0F72ECB
:1041800088248394F70191907F0161E0892D0E943A
:10419000EE1958E2A52E51E0B52E00E010E0D50151
:1041A0002D915D0130E0F901E657FD4F8491F90151
:1041B000E559FD4F7490F901E45BFD4F6490662072
:1041C00079F081110E94B119E62DF0E0EE0FFF1F8A
:1041D000E25CFD4FA591B491EC917E2281E009F45F
:1041E00080E0F601E00FF11F882580830F5F1F4FED
:1041F00004301105A1F660E0892D0E94EE19B4E0AB
:10420000CB0ED11C4E10BECF3EE6832E35E0932E52
:1042100000E010E00F83F801E855FA4F5F01C12C70
:10422000D12CE12CF12CF601E00FF11FEA57FA4FE7
:104230008081813009F094C0F50180818111ACC08A
:10424000809113018F31B0F4E82FF0E0E150FB4F83
:10425000E082E1E0E80FF0E0E150FB4F2F812083A6
:10426000E2E0E80FF0E0E150FB4F33E030838D5F98
:104270008093130160909E05F401EC0DFD1D60829A
:10428000712CA301B801C7010E94900B582EA30105
:10429000B801C7010E94A50B909113019F31A8F4AA
:1042A000E92FF0E0E150FB4F8083E1E0E90FF0E01F
:1042B000E150FB4F5082E2E0E90FF0E0E150FB4FAC
:1042C000A2E0A0839D5F909313019091150191113D
:1042D00013C060909E05712CA301B801C7010E9414
:1042E000900B582EA301B801C7010E94A50B652DA4
:1042F0000E94BC0D2FEF4EC022E3622E25E0722EED
:10430000212C312C282F880F330B39872887822DB9
:1043100033E1531205C02885398522153305A9F0EC
:10432000D3012D913C91121613067CF40E940F10BC
:10433000F101E25EFA4F8081811107C08091150181
:10434000882319F0822D0E945D1CBFEF2B1A3B0AB7
:10435000E2E06E0E711CF4E12F163104C1F6B9CF04
:1043600081111AC0D5018C918A3FB1F4F401EC0D92
:10437000FD1D6080712CA301B801C7010E94900B44
:10438000582EA301B801C7010E94A50B652D0E94FC
:10439000E70C25E0F50120833FEFE31AF30A84E000
:1043A000C80ED11C94E0A90EB11CA8E1CA16D10414
:1043B00009F039CF0F5F1F4FBFEF8B1A9B0A0430F4
:1043C000110509F027CF48EA55E09A012C5F922F9A
:1043D00020E030E0FA01E20FF31F8081882321F012
:1043E0008A3F11F0815080832C5F3F4F2831310587
:1043F00089F74F5F5F4F9413EBCFF09014010F2DAF
:1044000010E061E085E00E94EE190115110511F43C
:1044100060E004C00F3F110529F461E085E00E94CF
:1044200050167CC0EFE8F2E0E4918E2F90E0FC01A2
:104430003197EF30F10508F06CC0EB59FF4F0C9449
:10444000752484B5806884BDF7BC68C084B580627B
:1044500084BDF8BC63C08091800080688093800038
:10446000109389000093880059C080918000806279
:104470008093800010938B0000938A004FC080913E
:10448000800088608093800010938D0000938C00E2
:1044900045C08091900080688093900010939900AF
:1044A000009398003BC080919000806280939000C0
:1044B00010939B0000939A0031C080919000886017
:1044C0008093900010939D0000939C0027C08091E2
:1044D000C00080688093C0008091C0008F7B809373
:1044E000C000F092CF001AC08091C000806280931B
:1044F000C000F092D00012C08091C200886080930A
:10450000C2008091C2008B7F8093C200F092D200E3
:1045100005C0003811050CF080CF7ACF8091C0051E
:10452000811108C080E090E0892B09F48ECD0E94B3
:1045300000008BCD809115018823A1F382E3C82E62
:1045400085E0D82E9AE5E92E95E0F92E00E010E0FE
:10455000D7018D917D018823E1F0F6018081918161
:104560001816190624F401979183808312C0892BB1
:1045700081F4802F0E940F10F801E25EFA4F8081D3
:10458000811107C080911501882319F0802F0E94A6
:104590005D1C0F5F1F4FF2E0CF0ED11C04311105DF
:1045A000B9F6C0CF10929F0510929E05DCCD1092F7
:1045B000C7051092C60588EE93E0A0E0B0E08093B6
:1045C000C8059093C905A093CA05B093CB0526E30F
:1045D00031E03093C5052093C4052FEF3FEF3093B2
:1045E000D1052093D00510921706109216068093DD
:1045F000180690931906A0931A06B0931B0688E438
:1046000091E0909315068093140681E08093240630
:104610008093250626E336E030932706209326066E
:10462000109229061092280610922D0610922C0640
:104630002AE531E0309321062093200628E631E078
:1046400030932B0620932A068093370680933806F2
:104650001092390610923B0610923A0610923D06CF
:1046600010923C0681EC809336060E94E013FC0118
:1046700041812091240630E0240F311D283031057E
:1046800024F460E276E00E94A11310924106109299
:10469000400686E891E090933F0680933E06809125
:1046A0005E06811113C0109259061092580689EACD
:1046B00092E090935B0680935A0686E390E0909395
:1046C0005D0680935C0681E080935E060E94101C6C
:1046D000FC01A385B485109729F488E596E09487BA
:1046E00083870BC08D919C911197009711F0DC018D
:1046F000F9CF88E596E08D939C932585368580914A
:104700005C0690915D06820F931F968785876BE10B
:1047100074E081E596E00E94101280916C06811190
:1047200013C010926706109266068FED92E0909388
:104730006906809368068BE490E090936B06809303
:104740006A0681E080936C060E94101CFC01A38520
:10475000B485109729F486E696E0948783870BC08A
:104760008D919C911197009711F0DC01F9CF86E6AD
:1047700096E08D939C932585368580916A0690916D
:104780006B06820F931F96878587089581E596E0D3
:104790000C94F1111F93FC0199278827BC01E89420
:1047A00011911032E9F3193010F01E30C8F31B32AA
:1047B00051F01D3249F4689406C00E94F123610F44
:1047C000711D811D911D119110531A30B0F33EF4EB
:1047D00090958095709561957F4F8F4F9F4F1F915A
:1047E0000895592F482F372F262F660F771F881FC0
:1047F000991F660F771F881F991F620F731F841FF1
:10480000951F660F771F881F991F0895F999FECF8E
:1048100092BD81BDF89A992780B50895262FF99900
:10482000FECF1FBA92BD81BD20BD0FB6F894FA9A93
:10483000F99A0FBE019608952F923F924F925F9280
:104840006F927F928F929F92AF92BF92CF92DF92A0
:10485000EF92FF920F931F93CF93DF93CDB7DEB705
:10486000CA1BDB0B0FB6F894DEBF0FBECDBF099499
:104870002A88398848885F846E847D848C849B84F0
:10488000AA84B984C884DF80EE80FD800C811B81FE
:10489000AA81B981CE0FD11D0FB6F894DEBF0FBE2D
:1048A000CDBFED010895A1E21A2EAA1BBB1BFD018D
:1048B0000DC0AA1FBB1FEE1FFF1FA217B307E407FF
:1048C000F50720F0A21BB30BE40BF50B661F771F57
:1048D000881F991F1A9469F7609570958095909537
:1048E0009B01AC01BD01CF010895EE0FFF1F0590A4
:1048F000F491E02D0994CF93DF938230910510F469
:1049000082E090E0E0917606F091770620E030E0DA
:10491000C0E0D0E0309711F140815181481759072C
:10492000C0F04817590761F482819381209719F0EC
:104930009B838A832BC0909377068093760626C04C
:104940002115310519F04217530718F49A01BE01D9
:10495000DF01EF010280F381E02DDCCF211531056D
:1049600009F1281B390B2430310590F412968D91F2
:104970009C9113976115710521F0FB01938382834C
:1049800004C09093770680937606FD01329644C06A
:10499000FD01E20FF31F81939193225031092D9372
:1049A0003C933AC02091740630917506232B41F454
:1049B00020911801309119013093750620937406E7
:1049C00020911601309117012115310541F42DB7C1
:1049D0003EB740911A0150911B01241B350BE09109
:1049E0007406F0917506E217F307A0F42E1B3F0B37
:1049F0002817390778F0AC014E5F5F4F2417350751
:104A000048F04E0F5F1F50937506409374068193D4
:104A1000919302C0E0E0F0E0CF01DF91CF910895E3
:104A20000F931F93CF93DF93009709F48CC0FC0181
:104A30003297138212820091760610917706011543
:104A4000110581F420813181820F931F209174061A
:104A5000309175062817390779F5F0937506E093BC
:104A6000740671C0D80140E050E0AE17BF0750F4A3
:104A700012962D913C911397AD012115310509F145
:104A8000D901F3CF9D01DA013383228360817181E3
:104A9000860F971F8217930769F4EC0128813981EB
:104AA000260F371F2E5F3F4F318320838A819B81E2
:104AB00093838283452B29F4F0937706E09376065F
:104AC00042C01396FC93EE931297ED0149915991D0
:104AD0009E01240F351FE217F30771F48081918145
:104AE000840F951F029611969C938E9382819381D9
:104AF00013969C938E931297E0E0F0E0D801129603
:104B00008D919C911397009719F0F8018C01F6CFC5
:104B10008D919C9198012E5F3F4F820F931F2091A2
:104B20007406309175062817390769F4309729F40F
:104B3000109277061092760602C0138212821093AA
:104B4000750600937406DF91CF911F910F91089520
:104B5000A0E0B0E0EEEAF5E20C942024EC0100972E
:104B600021F4CB010E947B24B8C0FC01E60FF71FA3
:104B70009C0122503109E217F30708F4ACC0D901B7
:104B80000D911C91119706171707B0F0053011050C
:104B900008F49FC0C80104978617970708F499C0C6
:104BA00002501109061B170B019311936D937C930F
:104BB000CF010E9410258DC05B01A01AB10A4C01E3
:104BC000800E911EA0917606B091770640E050E0ED
:104BD000E12CF12C109709F44AC0A815B905D1F5BC
:104BE0006D907C901197630182E0C80ED11CCA14AD
:104BF000DB0480F1A3014A195B096A0182E0C80E57
:104C0000D11C1296BC9012971396AC91B5E0CB16BE
:104C1000D10440F0B282A38351834083D9016D93C4
:104C20007C930AC00E5F1F4FC301800F911FF901D3
:104C300091838083EB2DFA2FE114F10431F0D70139
:104C40001396FC93EE93129744C0F0937706E0938B
:104C500076063FC08D919C9111974817590708F42B
:104C6000AC017D0112960D90BC91A02DB3CF809127
:104C700074069091750688159905E1F44617570753
:104C8000C8F48091160190911701009741F48DB7F7
:104C90009EB740911A0150911B01841B950BE81798
:104CA000F907C8F4F0937506E0937406F90171836F
:104CB00060830FC0CB010E947B247C01009759F0D8
:104CC000A801BE010E947726CE010E941025C701CF
:104CD00004C0CE0102C080E090E0CDB7DEB7EEE0C8
:104CE0000C943C2481E090E0F8940C94A926FB01FC
:104CF000DC0102C001900D9241505040D8F7089558
:104D0000FC018191861721F08823D9F7992708950E
:104D10003197CF010895FB01DC018D91019080193D
:104D20000110D9F3990B0895FB01DC0101900D925C
:104D30000020E1F70895FB01DC014150504030F0C4
:104D40008D910190801919F40020B9F7881B990BF7
:104D5000089511E0C6E9D1E004C0FE010E94752467
:0C4D60002196C739D107C9F7F894FFCF9E
:104D6C0000C18081000000FFFFFFFF00E100000098
:104D7C0000000001320100007806800000000000F5
:104D8C001F186919291946180607080913120F0E5E
:104D9C00100A00000000BF108B13E010D510E510B6
:104DAC002311FF10000000004D1739171C180D17A8
:104DBC0031171D170E17000000006918E118C318F1
:104DCC006218B81EF6FF0000D00C94101C181B18AB
:104DDC005E17C21E6D1700000000B81CB81CB81C72
:104DEC00621800000000D00C94101C181B18BF1780
:104DFC004E1CD517756E697175656B726571696E30
:104E0C00666F004445505245434941544544007532
:104E1C006E697175656B7265716E616D6500446963
:104E2C00766572676520544D203220536C6176652F
:104E3C0000756E697175656B726571766172696109
:104E4C006E7400756E697175656B726571647269EB
:104E5C0076657200416E696D757320496E6E6F7662
:104E6C00612078322E3800756E697175656B7265CC
:104E7C00716275696C64004F454D00756E69717592
:104E8C00656B7365746B657900736574206B6579FC
:104E9C002800756E697175656B73657465657072E4
:104EAC006F6D0073657420454550524F4D28007549
:104EBC006E697175656B7365746C6179007365747B
:104ECC00206C6179657220636F756E742800657251
:104EDC00726F723A20696E73756666696369656E86
:104EEC007420454550524F4D00756E697175656B58
:104EFC006765746C617900756E697175656B676552
:104F0C0074656570726F6D00756E697175656B6730
:104F1C0065746B65790072657475726E206B65795A
:104F2C002800756E697175656B676574726F7700B3
:104F3C00756E697175656B676574636F6C00756E02
:104F4C00697175656B7365746D61737465720073EB
:104F5C006574206D61737465722800756E69717566
:104F6C00656B7365746E6B726F00736574204E4B5A
:104F7C00524F206D6F646528006572726F723A2013
:104F8C00696E76616C6964204E4B524F206F707461
:104F9C00696F6E00756E697175656B6765746E6BA4
:104FAC00726F00756E697175656B6765746D6F6492
:104FBC007300676574206D6F64732800426C6564C0
:104FCC0050574D00756E697175656B7365746272BF
:104FDC00696768746E6573730073657420627269B7
:104FEC006768746E657373282900756E69717565D1
:104FFC006B6765746272696768746E65737300675A
:10500C006574206272696768746E65737328290011
:10501C00493243536C617665006D65646961007556
:10502C006E697175656B7365746D6163726F007316
:10503C006574206D6163726F28006475616C526FCA
:10504C006C65730074617044616E636500756E69A4
:10505C007175656B73657474617064616E63650002
:10506C007365742074617064616E63652800737479
:0C507C0069636B794B657973000D0A00C5
:2070000055C000006EC000006CC000006AC0000068C0000066C0000064C0000062C0000043
:2070200060C000005EC00000F2C400005AC0000058C0000056C0000054C0000052C00000EE
:2070400050C0000078C000004CC000004AC0000048C0000046C0000044C0000042C00000BE
:2070600040C000003EC000003CC000003AC0000038C0000036C0000034C0000032C0000048
:2070800030C000002EC000002CC000002AC0000028C0000026C0000024C0000022C00000A8
:2070A00020C000001EC000001CC0000011241FBECFEFDAE0DEBFCDBF11E0A0E0B1E0E2E3BC
:2070C000FFE702C005900D92A83AB107D9F711E0A8EAB1E001C01D92AE3BB107E1F78FD30B
:2070E00026C78ECFF89410926F0010928100109285001092840081E085BF15BE47985D9AEB
:20710000289A0C94000008952091B2013091B3012F5F3F4F3093B3012093B201932F37FFA6
:2071200003C08EEF831B982F990F921710F447980895479A08951F920F920FB60F9211246E
:207140002F938F939F93EF93FF9310928500109284008091A8019091A901009741F00197D3
:207160009093A9018093A801892B09F45D9A8091AA019091AB01009741F001979093AB0126
:207180008093AA01892B09F4289AE0E0F0E0859194918F5F9F4F49F08091AC019091AD0151
:2071A00001969093AD018093AC01FF91EF919F918F912F910F900FBE0F901F90189584E0BC
:2071C0008093E9000DC08091E8008B778093E80003C08EB3882351F08091E80082FFF9CFBE
:2071E0008091E80085FFEFCF8091F1000895982F83E08093E9008091E80085FD0DC0809136
:20720000E8008E778093E80003C08EB3882369F08091E80080FFF9CF9093F1005D9884E6CB
:2072200090E09093A9018093A80108954F925F926F927F928F929F92AF92BF92CF92DF921E
:20724000EF92FF920F931F93CF93DF9384E08093E9008091E80082FF57C2289884E690E067
:207260009093AB018093AA01AADF182F853481F48CE49DE19093AD018093AC0107B600FC4B
:20728000FDCFF999FECF81E180935700E89503C0843519F494DF8DE00DC28C34E1F38035F9
:2072A000D1F3843721F484E4A2DF80E003C2813611F489E5FFC18134B1F481DF182F7FDFE3
:2072C00090E0880F991FAA2797FDA095BA2F312F330F20E0442737FD4095542F822B932B68
:2072E000A42BB52BB8C1803711F483E5E3C1833549F4C0E0D1E089917ADF21E0C730D20714
:20730000D1F7D9C1863521F481E371DF80E3D2C1833731F487E86BDF85E969DF8EE1CAC149
:207320008536B9F4E0E0F0E093E085E090935700E89507B600FCFDCF80935700E89507B65D
:2073400000FCFDCFE058FF4FA0E7E030FA0771F7A2CF823739F4E1E0F0E089E08093570024
:207360008491A8C1863439F4E0E0F0E089E08093570084919FC18E3439F4E3E0F0E089E0E5
:2073800080935700849196C1813539F4E2E0F0E089E08093570084918DC1823631F489E521
:2073A00026DF80E024DF80E885C1823419F0873609F0E5C01092AD011092AC0100DF082FE8
:2073C000FEDEF82EFCDE682E8554823008F071C1902F80E0CF2DD0E0C82BD92B10926F00B3
:2073E000173609F04BC081E180935700E895DD24CC24C3943FC0E090AE01F090AF010091CC
:20740000B0011091B101B6E46B16D9F4ED2DF0E0EE29FF29E4918E2FEADEDD2081F082E08D
:2074200090E0A0E0B0E0E80EF91E0A1F1B1FE092AE01F092AF010093B0011093B101DC2470
:2074400018C0D801C701B695A7959795879559D5CEDE82E090E0A0E0B0E0E80EF91E0A1FF2
:207460001B1FE092AE01F092AF010093B0011093B1012197209709F0BECF7DC08090AE01F5
:207480009090AF01A090B001B090B10196E4691609F05DC083E0F40180935700E89507B63E
:2074A00000FCFDCF54C0F6E46F1661F5772031F1E090AE01F090AF010091B0011091B1019E
:2074C0007EDED82ECC24852D90E08C299D29F7010C0140925700E895112482E090E0A0E08B
:2074E000B0E0E80EF91E0A1F1B1FE092AE01F092AF010093B0011093B10102C060DE582E1A
:20750000742423C0E090AE01F090AF010091B0011091B10116950795F794E79450DE682FFA
:20752000C701F7D48091AE019091AF01A091B001B091B1010296A11DB11D8093AE01909349
:20754000AF01A093B001B093B101219704C05524772444244394209709F0A5CF96E46916B6
:2075600041F485E0F40180935700E89507B600FCFDCF8DE03CDE82E080936F009CC0833492
:2075800071F40091AE011091AF0119DE90E021E0F8010C0120935700E89511247CCE8336C8
:2075A00019F5E090AE01F090AF010091B0011091B10105DEF701E16090E021E00C0120938C
:2075C0005700E895112482E090E0A0E0B0E0E80EF91E0A1F1B1FE092AE01F092AF0100936A
:2075E000B0011093B10157CE8D3661F4E091AE01F091AF0185E080935700E89507B600FCF2
:20760000FDCF49CE823551F4E091AE01F091AF0105911491812FEBDD802F4CC0843421F5FE
:20762000E090AE01F090AF010091B0011091B10116950795F794E794C2DD682FC70169D4DE
:207640008091AE019091AF01A091B001B091B1010296A11DB11D8093AE019093AF01A093D8
:20766000B001B093B10117CE843609F5E090AE01F090AF010091B0011091B101D801C70142
:20768000B695A795979587953CD4B1DD82E090E0A0E0B0E0E80EF91E0A1F1B1FE092AE010A
:2076A000F092AF010093B0011093B10104C08B3111F08FE39CDD83E08093E9009091E8002B
:2076C0008091E8008E778093E80095FF04C010C08EB38823C9F08091E80080FFF9CF809193
:2076E000E8008E778093E80003C08EB3882361F08091E80080FFF9CF84E08093E9008091F1
:20770000E8008B778093E800DF91CF911F910F91FF90EF90DF90CF90BF90AF909F908F90AC
:207720007F906F905F904F9008959091B601892F8F77813249F58091B7018032A1F081328A
:2077400019F5913A09F58091E800877F8093E8008DE091E067E070E00BD28091E8008B770B
:207760008093E8000895913279F48091E800877F8093E8008DE091E067E070E05DD2809192
:20778000E8008E778093E800089582E061EC42E0B5D083E061E842E1B1D084E060E842E1EF
:2077A000ADC084B7877F84BF88E10FB6F89480936000109260000FBE20E880E090E00FB63F
:2077C000F89420936100809361000FBE81E085BF92E095BF3F9A209A559AE1E6F0E02083A1
:2077E000108247985D9A289A109289008AEF8093880090936F0083E080938100F0C0409116
:20780000000850910108109201081092000894B714BE88E10FB6F8948093600010926000D5
:207820000FBE292F30E0F901E270F07091FD18C090FF05C0859194918F5F9F4F81F423FFFF
:207840000FC08091090190910A014817590741F0E0E0F0E0859194918F5F9F4F09F042DC64
:20786000A0DF78941092AD011092AC010CC0DEDC36D38091AC019091AD0181549F4110F00D
:207880001092140141DC80911401882381F78091E00081608093E00025DC80E090E0089598
:2078A000FA01923049F0933061F09130F9F485E191E022E130E01EC087E291E02EE330E04D
:2078C00019C0882329F485E691E024E030E012C0813029F489E691E022E230E00BC0823006
:2078E00029F48DE891E028E130E004C080E090E020E030E091838083C90108958093E9004E
:207900008091EB0081608093EB001092ED006093EC004093ED008091EE00881F8827881F62
:2079200008958091B60188238CF403C08EB38823B1F08091E80082FFF9CF8091E8008B772A
:207940008093E80008958EB3882349F08091E80080FFF9CF8091E8008E778093E800089594
:20796000EF92FF920F931F9345D04CD008ED10E0F80180818F77808380818068808380819B
:207980008F7D808319BC1EBA1092B40180EEE82EF12CF70180818B7F8083F8018081816052
:2079A000808380E060E042E0A9DFE1EEF0E080818E7F8083E2EEF0E0808181608083808144
:2079C00088608083F70180818E7F8083F8018081806180831F910F91FF90EF900895E7ED06
:2079E000F0E08081816080838AE482BF81E08093B501B6CFE8EDF0E080818E7F808310921C
:207A0000E20008951092DA001092E10008951F920F920FB60F9211242F933F934F935F93F6
:207A20006F937F938F939F93AF93BF93EF93FF938091DA0080FF1BC08091D80080FF17C0B2
:207A40008091DA008E7F8093DA008091D90080FF0BC080E189BD82E189BD09B400FEFDCF36
:207A600081E08EBB3BD203C019BC1EBA37D28091E10080FF17C08091E20080FF13C0809138
:207A8000E2008E7F8093E2008091E20080618093E2008091D80080628093D80019BC85E049
:207AA0008EBB1CD28091E10084FF2CC08091E20084FF28C080E189BD82E189BD09B400FEC5
:207AC000FDCF8091D8008F7D8093D8008091E1008F7E8093E1008091E2008F7E8093E20012
:207AE0008091E20081608093E2008091B401882331F48091E30087FD02C081E001C084E067
:207B00008EBBECD18091E10083FF21C08091E20083FF1DC08091E100877F8093E10082E06A
:207B20008EBB1092B4018091E1008E7F8093E1008091E2008E7F8093E2008091E2008061E9
:207B40008093E20080E060E042E0D8DEC7D1FF91EF91BF91AF919F918F917F916F915F9130
:207B60004F913F912F910F900FBE0F901F9018959C014091BC015091BD014617570718F49D
:207B8000F90190E044C06115710511F0AB01F8CF8091E8008E778093E80040E050E0F0CF0F
:207BA0008EB3882309F444C0853009F443C08091E80083FF02C081E008958091E80082FD70
:207BC00031C08091E80080FF22C08091F3009091F200782F60E0292F30E0262B372B07C07A
:207BE00081918093F100415050402F5F3F4F4115510519F02830310598F390E02830310566
