:100000000C94AD010C94D5010C94D5010C94D50140
:100010000C94D5010C94D5010C94D5010C94D50108
:100020000C94D5010C94D5010C94EA150C943B1753
:100030000C94D5010C94D5010C94D5010C94D501E8
:100040000C94D5010C94D5010C94D5010C94D501D8
:100050000C94D5010C94D5010C94D5010C94011E7F
:100060000C94D5010C94D5010C94D5010C94D501B8
:100070000C94D5010C94D5010C94D5010C94D501A8
:100080000C94D5010C94D5010C94D5010C94D50198
:100090000C944B1E0C94D5010C94D5010C94D501F5
:1000A0000C94D5010C94D5010C94D501822587259B
:1000B0008C259625A025EA25EA25EA25AA25B4253A
:1000C000BE25C825D525EA25DD257D1980196F199E
:1000D00073197919A119A119A119841988198C19F1
:1000E00092199619A1199C19000000000000000047
:1000F0002A2B280000000000000000000000000083
:1001000000000000000000002C9EB4A0A1A2A434B6
:10011000A6A7A5AE362D3738271E1F20212223245F
:100120002526B333B62EB7B89F8485868788898AFB
:100130008B8C8D8E8F909192939495969798999A97
:100140009B9C9D2F3130A3AD350405060708090A95
:100150000B0C0D0E0F101112131415161718191A77
:100160001B1C1DAFB1B0B50000000000230026002D
:1001700029002C002F0004040404040304050202D7
:100180000202040302020202060606060606040430
:1001900002020204040408020110408040102040C2
:1001A000804080080204018040201002011080106D
:1001B000204040200000000200090F00000304015D
:1001C000000C000000000000000000000000000023
:1001D00000000000000000240027002A002D00304D
:1001E0000000000000250028002B002E0031000830
:1001F0000B000202020100090400000102020000DB
:10020000052400100105240101010424020605242F
:100210000600010705810310004009040100020ADD
:1002200000000007050202400000070583024000AD
:10023000000403090412010002EF020140412336C9
:100240008000010102030141726475696E6F204CE8
:100250004C430041726475696E6F204C656F6E612E
:1002600072646F0005010906A101050719E029E77D
:1002700015002501750195088102050C9501750889
:10028000150026FF00190029FF8100050819012922
:100290000895087501910205079506750815002651
:1002A000E700190029E78100C005010906A10185C1
:1002B00008050719E029E715002501750195088152
:1002C00002190029671500250175019568810295BD
:1002D000017508150026E700190029E78100C0050F
:1002E000010902A101850105091901290815002547
:1002F0000195087501810205010930093109381598
:1003000081257F750895038106C0050C0901A101AF
:1003100085051500250109E909EA7501950281069F
:1003200009E29501810609B09501810609B195019F
:10033000810609B79501810609B59501810609B6BF
:100340009501810609B39501810609B495018106DD
:1003500095068107C0003E271B2811241FBECFEF42
:10036000DAE0DEBFCDBF27E0ACEFB4E001C01D9204
:10037000AF39B207E1F714E0A0E0B1E0E6E1F6E55D
:1003800002C005900D92AC3FB107D9F711E0CCEA5D
:10039000D1E004C02197FE010E94CA28CB3AD107C0
:1003A000C9F70E94A8220C94FE2A0C9400003F92E8
:1003B0004F925F926F927F928F929F92AF92BF9275
:1003C000CF92DF92EF92FF920F931F93CF93DF9321
:1003D000CDB7DEB763970FB6F894DEBF0FBECDBFC3
:1003E0008C016FE971E00E946C13882321F08EEA82
:1003F00091E00E94B0206AEB71E0C8010E946C138A
:10040000882321F089EC91E00E94B0206AED71E030
:10041000C8010E946C13882321F089EC91E00E94AE
:10042000B0206CEE71E0C8010E946C13882321F0AB
:100430008DEF91E00E94B02060E172E0C8010E945F
:100440006C13882319F080E292E0A4C164E272E0A8
:10045000CE0101960E94D515BE016F5F7F4FC80186
:100460000E945113F82ECE0101960E945A14FF20CB
:1004700009F4F5C0C8010E947E20AC014F5F5F4FB8
:10048000B801CE0101960E949B0EBE016F5F7F4FA7
:10049000C8010E948B13CE0101960E945A14C80114
:1004A0000E947E209C0140E050E0B801CE01019600
:1004B0000E941414CE0101960E944613962ECE017E
:1004C00001960E945A14C8010E947E20AC014F5F21
:1004D0005F4FB801CE0101960E949B0EBE016F5F77
:1004E0007F4FC8010E948B13CE0101960E945A14BF
:1004F000C8010E947E209C0140E050E0B801CE017E
:1005000001960E941414CE0101960E944613A62E55
:10051000CE0101960E945A14C8010E947E20AC01AF
:100520004F5F5F4FB801CE0101960E949B0EBE0146
:100530006F5F7F4FC8010E948B13CE0101960E940E
:100540005A14C8010E947E209C0140E050E0B8018E
:10055000CE0101960E941414CE0101960E9446130A
:10056000B62ECE0101960E945A14C8010E947E2028
:10057000AC014F5F5F4FB801CE0101960E949B0E08
:10058000BE016F5F7F4FC8010E948B13CE010196A1
:100590000E945A14C8010E947E209C0140E050E055
:1005A000B801CE0101960E941414CE0101960E945A
:1005B0004613C62ECE0101960E945A14C8010E940D
:1005C0007E20AC014F5F5F4FB801CE0101960E94C3
:1005D0009B0EBE016F5F7F4FC8010E948B13CE013F
:1005E00001960E945A14C8010E944613D62E88E034
:1005F000A89E70011124E90CF11C88E2B89EE00C61
:10060000F11C1124EE0CFF1C6C2DC7010E948A22E4
:100610006D2DC70101960E948A2282E392E00E941A
:100620007C20892D0E94962086E592E00E947C2005
:100630008A2D0E94962086E592E00E947C208B2DD8
:100640000E94962086E592E00E947C208C2D0E94DC
:10065000962086E592E00E947C208D2D9CC16BE364
:1006600072E0CE0101960E94D515BE016F5F7F4FEB
:10067000C8010E945113F82ECE0101960E945A140F
:10068000FF2009F44EC0C8010E947E20AC014F5FDC
:100690005F4FB801CE0101960E949B0EBE016F5FB5
:1006A0007F4FC8010E948B13CE0101960E945A14FD
:1006B000C8010E947E209C0140E050E0B801CE01BC
:1006C00001960E941414CE0101960E9446134B011C
:1006D0005C01CE0101960E945A14C8010E947E203E
:1006E000AC014F5F5F4FB801CE0101960E949B0E97
:1006F000BE016F5F7F4FC8010E948B13CE01019630
:100700000E945A14C8010E944613F62EC4010E948A
:100710008A228CE492E00E947C20C4010E94202165
:100720000BC168E572E0CE0101960E94D515BE01AD
:100730006F5F7F4FC8010E945113F82ECE010196C2
:100740000E945A14FF2049F1C8010E947E20AC018A
:100750004F5F5F4FB801CE0101960E949B0EBE0114
:100760006F5F7F4FC8010E948B13CE0101960E94DC
:100770005A14C8010E944613F62E8FE08F1540F0E0
:100780006F2D8FEF93E00E948A2286E692E0D6C01A
:1007900087E792E00E94B0203DC162E972E0C801A3
:1007A0000E946C13882319F08FEF93E02DC060EA4C
:1007B00072E0CE0101960E94D515BE016F5F7F4F9A
:1007C000C8010E945113F82ECE0101960E945A14BE
:1007D000FF20E9F0C8010E947E20AC014F5F5F4F0F
:1007E000B801CE0101960E949B0EBE016F5F7F4F44
:1007F000C8010E948B13CE0101960E945A14C801B1
:100800000E944613862F90E00E94A622C4C061EB8E
:1008100072E0CE0101960E94D515BE016F5F7F4F39
:10082000C8010E945113F82ECE0101960E945A145D
:10083000FF2009F487C0C8010E947E20AC014F5FF1
:100840005F4FB801CE0101960E949B0EBE016F5F03
:100850007F4FC8010E948B13CE0101960E945A144B
:10086000C8010E947E209C0140E050E0B801CE010A
:1008700001960E941414CE0101960E944613E62EA2
:10088000CE0101960E945A14C8010E947E20AC013C
:100890004F5F5F4FB801CE0101960E949B0EBE01D3
:1008A0006F5F7F4FC8010E948B13CE0101960E949B
:1008B0005A14C8010E947E209C0140E050E0B8011B
:1008C000CE0101960E941414CE0101960E94461397
:1008D000C62ECE0101960E945A14C8010E947E20A5
:1008E000AC014F5F5F4FB801CE0101960E949B0E95
:1008F000BE016F5F7F4FC8010E948B13CE0101962E
:100900000E945A14C8010E944613A62EB12CD12C65
:10091000F12CA501B601C7010E94880E982EA501F1
:10092000B601C7010E94740EF82E8FEB92E00E9470
:100930007C20892D0E94962086E592E00E947C20F2
:100940008F2D29C06BEC72E0CE0101960E94D51567
:10095000BE016F5F7F4FC8010E945113F82ECE0178
:1009600001960E945A14FF2011F085E014C069ED31
:1009700072E0CE0101960E94D515BE016F5F7F4FD8
:10098000C8010E945113F82ECE0101960E945A14FC
:10099000FF2021F088E00E949D203CC067EE72E0BD
:1009A000CE0101960E94D515BE016F5F7F4FC80131
:1009B0000E945113F82ECE0101960E945A14FF2076
:1009C00049F1C8010E947E20AC014F5F5F4FB80122
:1009D000CE0101960E949B0EBE016F5F7F4FC80142
:1009E0000E948B13CE0101960E945A14C8010E94E6
:1009F0004613611103C01092010103C081E080938E
:100A0000010188EF92E00E947C208091010190E03A
:100A10000E942021B801CE0107960E945F1464E075
:100A200073E0CE0101960E94D515BE016F5F7F4F26
:100A3000CE0107960E945113F82ECE0101960E9416
:100A40005A14FF2009F440C0CE0107960E947E2070
:100A5000AC014F5F5F4FBE01695F7F4FCE010196D2
:100A60000E949B0EBE016F5F7F4FCE0107960E94D2
:100A70008B13CE0101960E945A14CE0107960E9454
:100A80004613F62E82E08F15D0F06F2D8EEF93E097
:100A90000E948A228091C006813019F48BE397E08E
:100AA00002C087E297E00E94D30FF092C0060E9436
:100AB000592083E193E00E947C208F2D11C082E2B7
:100AC00093E00E94B0200EC06DE373E0CE01079664
:100AD0000E946C13882331F08EEF93E00E94A622CF
:100AE0000E949D20CE0107960E945A14B801CE01A3
:100AF0000D960E945F146CE473E0CE010D960E9487
:100B00006C13882321F08BE593E00E947C20BE01CA
:100B1000635F7F4FCE0107960E945F146CE473E021
:100B2000CE0101960E94D515BE016F5F7F4FCE01A9
:100B300007960E945113182FCE0101960E945A1455
:100B4000112329F085E693E00E947C2066C06DE6C3
:100B500073E0CE0101960E94D515BE016F5F7F4FF5
:100B6000CE0107960E945113182FCE0101960E94C4
:100B70005A141123B1F1CE0107960E947E20AC01D8
:100B80004F5F5F4FBE01695F7F4FCE0101960E94AC
:100B90009B0EBE016F5F7F4FCE0107960E948B13A5
:100BA000CE0101960E945A14CE0107960E947E2023
:100BB0009C0140E050E0BE01695F7F4FCE0101968D
:100BC0000E941414CE0101960E944613CE01019694
:100BD0006B8B0E945A146B896093000182E893E04A
:100BE00016C063E973E0CE0101960E94D515BE01DF
:100BF0006F5F7F4FCE0107960E945113182FCE01D1
:100C000001960E945A14112341F088EA93E00E9451
:100C10007C20809100010E949D20CE0107960E94B9
:100C20005A14BE01635F7F4FCE0107960E945F1486
:100C300069EB73E0CE0101960E94D515BE016F5F8E
:100C40007F4FCE0107960E945113182FCE010196B7
:100C50000E945A14112309F426C1CE0107960E945E
:100C60007E20AC014F5F5F4FBE01695F7F4FCE01B9
:100C700001960E949B0EBE016F5F7F4FCE010796CB
:100C80000E948B13CE0101960E945A14CE01079642
:100C90000E947E209C0140E050E0BE01695F7F4FD2
:100CA000CE0101960E941414CE0101960E944613B3
:100CB000D62ECE0101960E945A14CE0107960E94AC
:100CC0007E20AC014F5F5F4FBE01695F7F4FCE0159
:100CD00001960E949B0EBE016F5F7F4FCE0107966B
:100CE0000E948B13CE0101960E945A14CE010796E2
:100CF0000E947E209C0140E050E0BE01695F7F4F72
:100D0000CE0101960E941414CE0101960E94461352
:100D1000E62ECE0101960E945A14CE0107960E943B
:100D20007E20AC014F5F5F4FBE01695F7F4FCE01F8
:100D300001960E949B0EBE016F5F7F4FCE0107960A
:100D40000E948B13CE0101960E945A14CE01079681
:100D50000E947E209C0140E050E0BE01695F7F4F11
:100D6000CE0101960E941414CE0101960E944613F2
:100D7000F62ECE0101960E945A14CE0107960E94CB
:100D80007E20AC014F5F5F4FBE01695F7F4FCE0198
:100D900001960E949B0EBE016F5F7F4FCE010796AA
:100DA0000E948B13CE0101960E945A14CE01079621
:100DB0000E947E209C0140E050E0BE01695F7F4FB1
:100DC000CE0101960E941414CE0101960E94461392
:100DD000062FCE0101960E945A14CE0107960E945A
:100DE0007E20AC014F5F5F4FBE01695F7F4FCE0138
:100DF00001960E949B0EBE016F5F7F4FCE0107964A
:100E00000E948B13CE0101960E945A14CE010796C0
:100E10000E944613162F81E080939C0688E0809301
:100E2000BE0610929D061092BF0662E081E197E037
:100E30000E94861B6D2D81E197E00E94861B6E2D1E
:100E400081E197E00E94861B6F2D81E197E00E946F
:100E5000861B802F002E000C990B0E941B21612FF6
:100E600081E197E00E94861B0E94BE208AEC93E0FD
:100E70000E947C208D2D0E94962088ED93E00E9498
:100E80007C208E2D0E94962088ED93E00E947C208D
:100E90008F2D0E94962088ED93E00E947C20802F69
:100EA0000E9496206EC06BED73E0CE0101960E9409
:100EB000D515BE016F5F7F4FCE0107960E9451137B
:100EC000182FCE0101960E945A14112309F461C013
:100ED000CE0107960E947E20AC014F5F5F4FBE019E
:100EE000695F7F4FCE0101960E949B0EBE016F5F2E
:100EF0007F4FCE0107960E948B13CE0101960E9470
:100F00005A14CE0107960E947E209C0140E050E0DA
:100F1000BE01695F7F4FCE0101960E941414CE017D
:100F200001960E9446136B017C01CE0101960E943E
:100F30005A14CE0107960E947E20AC014F5F5F4F8E
:100F4000BE01695F7F4FCE0101960E949B0EBE01DC
:100F50006F5F7F4FCE0107960E948B13CE010196E3
:100F60000E945A14CE0107960E944613162FC601FE
:100F70000E94050E8FEE93E00E947C20C6010E9425
:100F8000202188ED93E00E947C20812F0E949D20EB
:100F90008FC065E074E0CE0101960E94D515BE01B8
:100FA0006F5F7F4FCE0107960E945113182FCE011D
:100FB00001960E945A14112351F1CE0107960E9406
:100FC0007E20AC014F5F5F4FBE01695F7F4FCE0156
:100FD00001960E949B0EBE016F5F7F4FCE01079668
:100FE0000E948B13CE0101960E945A14CE010796DF
:100FF0000E944613162F6D3038F48FEF93E00E9455
:10100000050E86E194E0BFCF8EE294E036C06CE539
:1010100074E0CE0101960E94D515BE016F5F7F4F2F
:10102000CE0107960E945113182FCE0101960E94FF
:101030005A14112329F1CE0107960E947E20AC019B
:101040004F5F5F4FBE01695F7F4FCE0101960E94E7
:101050009B0EBE016F5F7F4FCE0107960E948B13E0
:10106000CE0101960E945A14CE0107960E944613A3
:10107000862F0E94360E80E794E00E94B02018C0B0
:101080006CE473E0CE0101960E94D515BE016F5F3E
:101090007F4FCE0107960E945113182FCE01019663
:1010A0000E945A14112321F083E894E00E947C20CE
:1010B000CE0107960E945A14BE01635F7F4FCE0196
:1010C00007960E945F146CE473E0CE0101960E94C3
:1010D000D515BE016F5F7F4FCE0107960E94511359
:1010E000182FCE0101960E945A14112321F087E88F
:1010F00094E00E947C20CE0107960E945A14BE0103
:10110000635F7F4FCE0107960E945F146CE473E02B
:10111000CE0101960E94D515BE016F5F7F4FCE01B3
:1011200007960E945113182FCE0101960E945A145F
:10113000112329F087E994E00E947C2085C16DE8A5
:1011400074E0CE0101960E94D515BE016F5F7F4FFE
:10115000CE0107960E945113182FCE0101960E94CE
:101160005A14112309F470C1CE0107960E947E2003
:10117000AC014F5F5F4FBE01695F7F4FCE010196AB
:101180000E949B0EBE016F5F7F4FCE0107960E94AB
:101190008B13CE0101960E945A14CE0107960E942D
:1011A0007E209C0140E050E0BE01695F7F4FCE0190
:1011B00001960E941414CE0101960E944613F62E49
:1011C000CE0101960E945A14CE0107960E947E20FD
:1011D000AC014F5F5F4FBE01695F7F4FCE0101964B
:1011E0000E949B0EBE016F5F7F4FCE0107960E944B
:1011F0008B13CE0101960E945A14CE0107960E94CD
:101200007E209C0140E050E0BE01695F7F4FCE012F
:1012100001960E941414CE0101960E944613E62EF8
:10122000CE0101960E945A1482E1F89E8001112499
:101230008BE08F1548F088E08E1530F06E2DC801D8
:10124000875A9D4F0E948A22480188EA881A8DEFAA
:10125000980A580185EAA81A8DEFB80A065A1D4F58
:10126000C12CD12C412C512C32014394CE01079634
:101270000E947E20AC014F5F5F4FBE01695F7F4FD0
:10128000CE0101960E949B0EBE016F5F7F4FCE0183
:1012900007960E948B13CE0101960E945A14CE012C
:1012A00007960E947E209C0140E050E0BE01695FED
:1012B0007F4FCE0101960E941414CE0101960E9428
:1012C0004613CE0101966B8B0E945A146B898BE0FA
:1012D0008F1518F0C8010E948A22CE0107960E943D
:1012E0007E20AC014F5F5F4FBE01695F7F4FCE0133
:1012F00001960E949B0EBE016F5F7F4FCE01079645
:101300000E948B13CE0101960E945A14CE010796BB
:101310000E947E209C0140E050E0BE01695F7F4F4B
:10132000CE0101960E941414CE0101960E9446132C
:10133000CE0101966B8B0E945A146B898BE08F153E
:1013400018F0C5010E948A22CE0107960E947E20D5
:10135000AC014F5F5F4FBE01695F7F4FCE010196C9
:101360000E949B0EBE016F5F7F4FCE0107960E94C9
:101370008B13CE0101960E945A14CE0107960E944B
:101380007E209C0140E050E0BE01695F7F4FCE01AE
:1013900001960E941414CE0101960E944613362E27
:1013A000CE0101960E945A148BE08F15C8F0C4013B
:1013B0000E94A622282FD301C2010C2C04C0880F42
:1013C000991FAA1FBB1F0A94D2F7332019F0622F6E
:1013D000682B03C08095622F6823C4010E948A2273
:1013E0008FEFC81AD80A82E0A80EB11C0E5F1F4FFB
:1013F00088E0C816D10409F039CFCE0107960E94C3
:101400007E20AC014F5F5F4FBE01695F7F4FCE0111
:1014100001960E949B0EBE016F5F7F4FCE01079623
:101420000E948B13CE0101960E945A148DE994E01C
:101430000E947C208F2D0E94962086E592E00E94DB
:101440007C208E2D0E949D20CE0107960E945A146A
:10145000BE01635F7F4FCE0107960E945F146CE46C
:1014600073E0CE0101960E94D515BE016F5F7F4FDC
:10147000CE0107960E945113182FCE0101960E94AB
:101480005A14112321F088EA94E00E947C20CE01B6
:1014900007960E945A14BE01635F7F4FCE010796E4
:1014A0000E945F146CE473E0CE0101960E94D51592
:1014B000BE016F5F7F4FCE0107960E945113182F18
:1014C000CE0101960E945A14112329F082EB94E078
:1014D0000E947C2033C26BEB74E0CE0101960E9427
:1014E000D515BE016F5F7F4FCE0107960E94511345
:1014F000182FCE0101960E945A14112309F41EC21E
:10150000CE0107960E947E20AC014F5F5F4FBE0167
:10151000695F7F4FCE0101960E949B0EBE016F5FF7
:101520007F4FCE0107960E948B13CE0101960E9439
:101530005A14CE0107960E947E209C0140E050E0A4
:10154000BE01695F7F4FCE0101960E941414CE0147
:1015500001960E944613162FCE0101960E945A143E
:10156000CE0107960E947E20AC014F5F5F4FBE0107
:10157000695F7F4FCE0101960E949B0EBE016F5F97
:101580007F4FCE0107960E948B13CE0101960E94D9
:101590005A14CE0107960E947E209C0140E050E044
:1015A000BE01695F7F4FCE0101960E941414CE01E7
:1015B00001960E944613562ECE0101960E945A149F
:1015C000CE0107960E947E20AC014F5F5F4FBE01A7
:1015D000695F7F4FCE0101960E949B0EBE016F5F37
:1015E0007F4FCE0107960E948B13CE0101960E9479
:1015F0005A14CE0107960E947E209C0140E050E0E4
:10160000BE01695F7F4FCE0101960E941414CE0186
:1016100001960E944613662ECE0101960E945A142E
:10162000CE0107960E947E20AC014F5F5F4FBE0146
:10163000695F7F4FCE0101960E949B0EBE016F5FD6
:101640007F4FCE0107960E948B13CE0101960E9418
:101650005A14CE0107960E947E209C0140E050E083
:10166000BE01695F7F4FCE0101960E941414CE0126
:1016700001960E944613762ECE0101960E945A14BE
:10168000CE0107960E947E20AC014F5F5F4FBE01E6
:10169000695F7F4FCE0101960E949B0EBE016F5F76
:1016A0007F4FCE0107960E948B13CE0101960E94B8
:1016B0005A14CE0107960E947E209C0140E050E023
:1016C000BE01695F7F4FCE0101960E941414CE01C6
:1016D00001960E944613862ECE0101960E945A144E
:1016E000CE0107960E947E20AC014F5F5F4FBE0186
:1016F000695F7F4FCE0101960E949B0EBE016F5F16
:101700007F4FCE0107960E948B13CE0101960E9457
:101710005A14CE0107960E947E209C0140E050E0C2
:10172000BE01695F7F4FCE0101960E941414CE0165
:1017300001960E944613962ECE0101960E945A14DD
:10174000CE0107960E947E20AC014F5F5F4FBE0125
:10175000695F7F4FCE0101960E949B0EBE016F5FB5
:101760007F4FCE0107960E948B13CE0101960E94F7
:101770005A14CE0107960E947E209C0140E050E062
:10178000BE01695F7F4FCE0101960E941414CE0105
:1017900001960E944613A62ECE0101960E945A146D
:1017A000CE0107960E947E20AC014F5F5F4FBE01C5
:1017B000695F7F4FCE0101960E949B0EBE016F5F55
:1017C0007F4FCE0107960E948B13CE0101960E9497
:1017D0005A14CE0107960E947E209C0140E050E002
:1017E000BE01695F7F4FCE0101960E941414CE01A5
:1017F00001960E944613B62ECE0101960E945A14FD
:10180000CE0107960E947E20AC014F5F5F4FBE0164
:10181000695F7F4FCE0101960E949B0EBE016F5FF4
:101820007F4FCE0107960E948B13CE0101960E9436
:101830005A14CE0107960E944613062F143180F5E4
:1018400088E0189F70011124670186EBC81A8CEF9D
:10185000D80AC6010E94A6228C7F682F650DC6019A
:101860000E948A22C6010E94A6228370962D990F9B
:10187000990F682F690FC6010E948A22672DC70140
:10188000845B9C4F0E948A22692DC701825B9C4F1A
:101890000E948A226B2DC701805B9C4F0E948A2286
:1018A000482D60E0812F0E94CF0D4A2D61E0812FED
:1018B0000E94CF0D402F62E0812F0E94CF0D8EEC51
:1018C00094E00E947C20812F0E94962086E592E081
:1018D0000E947C20852D0E94962086E592E00E9441
:1018E0007C20862D0E94962086E592E00E947C2036
:1018F000872D0E94962086E592E00E947C20882D0C
:101900000E94962086E592E00E947C20892D0E940C
:10191000962086E592E00E947C208A2D0E949620E7
:1019200086E592E00E947C208B2D0E94962086E521
:1019300092E00E947C20802F0E949D20CE0107967D
:101940000E945A14BE01635F7F4FCE0107960E942A
:101950005F146CE473E0CE0101960E94D515BE01C0
:101960006F5F7F4FCE0107960E945113182FCE0153
:1019700001960E945A14112321F08CED94E00E94EC
:101980007C20CE0107960E945A14BE01635F7F4FF0
:10199000CE0107960E945F146CE473E0CE010196BD
:1019A0000E94D515BE016F5F7F4FCE0107960E9442
:1019B0005113182FCE0101960E945A14112321F0C1
:1019C00086EE94E00E947C20CE0107960E945A1475
:1019D000BE01635F7F4FCE0107960E945F146CE4E7
:1019E00073E0CE0101960E94D515BE016F5F7F4F57
:1019F000CE0107960E945113182FCE0101960E9426
:101A00005A14112321F081EF94E00E947C20CE0132
:101A100007960E945A146CE473E0CE010D960E9462
:101A20006C13882321F089EF94E00E947C20CE0182
:101A30000D960E945A1463960FB6F894DEBF0FBE3F
:101A4000CDBFDF91CF911F910F91FF90EF90DF906D
:101A5000CF90BF90AF909F908F907F906F905F904E
:101A60004F903F900895EF92FF920F931F93CF9363
:101A7000DF93E62FF0E0E038F10540F021E030E0C0
:101A8000DC0113963C932E93129722C0D42F7C0135
:101A9000E851FF4FC491DC01ED91FC916C2F6F7701
:101AA0000484F585E02D09958C01C7FF13C0892BAF
:101AB00011F4D1110DC0D701ED91FC910484F5858D
:101AC000E02D4D2F61EEC7010995802B912B02C0AF
:101AD00080E090E0DF91CF911F910F91FF90EF9008
:101AE00008958C3070F4683060F422E1829FC00168
:101AF0001124860F911D860F911D855A9D4F0C94C0
:101B0000A62280E00895CF9390919505882311F047
:101B10009F5F01C0915090939505C09195058FEFFF
:101B200093E0CF3F31F40E94A62281508093950527
:101B300006C00E94A622C81710F010929505CF91FA
:101B400008950F931F93CF9381E08093140500E0D5
:101B500015E0C0E0F80180818823C1F0C11102C006
:101B600080EE03C0C13021F481EE0E9470200CC0D1
:101B7000C23011F482EEF9CFC33011F486EEF5CF06
:101B80008091950580939405F8011082CF5F0F5FD7
:101B90001F4FC431F9F6CF911F910F9108958431F1
:101BA00078F4633068F428E0829FC0011124860F26
:101BB000911D860F911D642F835B9C4F0C948A228C
:101BC0000895843170F4633060F428E0829FC0018E
:101BD0001124860F911D860F911D835B9C4F0C94E1
:101BE000A62280E00895843170F4633060F428E028
:101BF000829FC0011124845B9C4F860F911D860F2C
:101C0000911D0C94A62280E008950F931F93CF930B
:101C1000DF931F92CDB7DEB78C0181E080939C06E5
:101C200088E08093BE0610929D061092BF0684E065
:101C300090E069830E941B21698181E197E00E9405
:101C4000861B0F3F110541F03CF08FEF90E00E94A2
:101C50001B210F5F1109F5CFC8010E941B210F90B6
:101C6000DF91CF911F910F910C94BE20CF93DF9302
:101C70001F92CDB7DEB7682F81E080939C0688E085
:101C80008093BE0610929D061092BF0686E090E0FB
:101C900069830E941B21698181E197E00E94861B74
:101CA0000F90DF91CF910C94BE20CF93DF931F92C2
:101CB000CDB7DEB7682F81E080939C0688E08093E3
:101CC000BE0610929D061092BF0681E090E06983E7
:101CD0000E941B21698181E197E00E94861B0F9081
:101CE000DF91CF910C94BE2023E0660F771F2A95D9
:101CF000E1F7860F971F68E2649F9001659F300DA2
:101D00001124820F931F880F991F01960C94A6220D
:101D100023E0660F771F2A95E1F7680F791F28E205
:101D2000249FC001259F900D1124860F971F880FB7
:101D3000991F0C94A622CF93DF93EC01FB01248121
:101D400035810E941414CE01DF91CF9108950F9335
:101D50001F93CF93DF93EC0140E00E94330D8C0181
:101D6000892B39F0E881F9810284F385E02DCE01D9
:101D70000995C801DF91CF911F910F9108950F939D
:101D80001F93CF93DF93EC0141E00E94330D8C0150
:101D9000892B39F0E881F9810284F385E02DCE01A9
:101DA0000995C801DF91CF911F910F910895FF927E
:101DB0000F931F93CF93DF938C01F62E0E94BF0EDB
:101DC000EC01892B21F06F2DC8010E94A70ECE01D6
:101DD000DF91CF911F910F91FF900895CF93DF93E3
:101DE000D82FC62F80910101882309F458C06111B2
:101DF00004C08D2F0E94702052C0613059F4809130
:101E0000FD0490919405891318C0109294051092C6
:101E1000FD0445C06230A1F48091FC048111EFCF34
:101E20008091C0066CE2813019F48BE397E002C028
:101E300087E297E00E94D70EE2CF809394052FC0EF
:101E40006C3019F460E080EE24C06D3001F16E302A
:101E500019F460E086EE1DC06F3039F460E080EE6A
:101E60000E94EE0E60E081EE14C0603129F460E063
:101E700080EE0E94EE0E07C0613119F460E080EE42
:101E800004C0623161F460E081EE0E94EE0E60E019
:101E900082EE0E94EE0E60E08D2F0E94EE0E809189
:101EA0000101882371F18CEE8C0F8A3050F5C4311A
:101EB00019F460E080EE04C0C53129F460E081EEE1
:101EC0000E94EE0E0EC0C63119F460E082EEF8CF2B
:101ED000C73119F460E086EEF3CF809195058093C9
:101EE00094058091FC0481110CC08091C0066D2F77
:101EF000813019F48BE397E002C087E297E00E94FB
:101F0000D70E80910101882329F0C33119F48D2F58
:101F10000E944B2280910101882391F1CF3139F445
:101F20008091040180588D1B8093040129C0C03228
:101F300039F48091030180588D1B8093030120C0E8
:101F4000C13239F48091020180588D1B80930201C7
:101F500017C0C232A9F4D13011F481E00FC0D230E1
:101F600011F482E00BC0D33011F484E007C0D43008
:101F700011F488E003C0D53019F480E10E94AF214C
:101F800080910101882361F0CB3051F460E08D2F06
:101F90000E94EE0E60E081EE0E94EE0E1092FE04B2
:101FA000DF91CF9108950F931F93CF93DF93EC01AF
:101FB000E881F9810084F185E02D09958C01892B58
:101FC00039F0E881F9810284F385E02DCE0109958D
:101FD000C801DF91CF911F910F9108959F92AF9209
:101FE000BF92CF92DF92EF92FF920F931F93CF9306
:101FF000DF9300D01F92CDB7DEB7182F062F81E0F8
:102000008093FC0480910101882309F481C061114F
:1020100004C0812F0E9464207BC0613019F41092AB
:10202000FD0406C0623039F41092FD041092FC04E5
:10203000109394056DC0633059F5111102C081E011
:1020400003C0113021F480E00E94830D61C0F09044
:10205000950521E00F2C01C0220F0A94EAF73AE01F
:10206000E32E220F49F0F3948FEF93E02B830E942D
:10207000A6222B81F81610F021E0F12C822F81236B
:1020800019F0F092950544C0EA94E110EACFF9CF37
:10209000653079F48091940590E0212F012E000C99
:1020A000330B8217930721F6809195058093940551
:1020B0002FC06C3019F460E080EE24C06D3001F167
:1020C0006E3019F460E086EE1DC06F3039F460E0C8
:1020D00080EE0E94EE0F60E081EE14C0603129F4C2
:1020E00060E080EE0E94EE0F07C0613119F460E0FD
:1020F00080EE04C0623161F460E081EE0E94EE0F78
:1021000060E082EE0E94EE0F60E0812F0E94EE0FF1
:1021100080910101882361F1063051F58091C0065C
:10212000813019F48BE397E002C087E297E00E94C8
:10213000D30F612F8EEF93E00E948A228091C00618
:10214000813019F48BE397E002C087E297E00E94A8
:10215000D30F1093C0060E9459208091C006813091
:1021600019F48BE397E002C087E297E00E94D30F57
:1021700080910101882389F10A30A9F51536ACF464
:1021800080910001212F012E000C330B280F311DEF
:1021900037FF03C01092000122C02F3F310519F014
:1021A00014F08FEF17C0810F15C0153699F316364E
:1021B00011F480E20FC0173611F480E40BC018361A
:1021C00011F480E607C0193611F480E803C01A360E
:1021D00031F480EA8093000102C00A3021F480913A
:1021E00000010E94360E80910101882359F10430CC
:1021F00049F5111102C081E017C0113011F482E0DD
:1022000013C0123011F4098310C0133011F488E0A8
:102210000BC0143011F480E107C0153011F480E4D4
:1022200003C0163079F480E889831A820E940D2257
:1022300022E030E0AE014F5F5F4F65E00E94791F02
:102240000E94432080910101882309F452C0073085
:1022500009F04FC01C3008F04CC022E1129F600111
:102260001124C601875A9D4F0E94A622982E56011E
:1022700086EAA81A8DEFB80AE12CF12C28EAC21AD6
:102280002DEFD20AE91430F5C6010E94A622282FAC
:1022900030E00E2C02C0359527950A94E2F76E2D9A
:1022A000812F20FF0BC10E94710D682FC5016B8328
:1022B0000E94A6226B810E94EE0E65E070E080E035
:1022C00090E00E940E1A8FEFE81AF80A22E0A20EA0
:1022D000B11CD8CF80919505809394058091C0065C
:1022E000813019F48BE397E002C087E297E00E9407
:1022F000D30F80910101882311F1043119F460E0BA
:1023000080EE09C0053119F460E081EE04C00631A9
:1023100039F460E082EE0E94EE0F1092FC040FC0D0
:10232000073119F460E086EEF6CF88EE800F863034
:1023300030F41092FC0489EE800F80939405809114
:102340000101882309F442C0033109F03FC0C12EC6
:10235000012E000CDD08F601E85AFA4F8081833027
:10236000A8F5FF24F394F80EF082143158F428E015
:10237000129FC0011124865B9C4F0E94A622869565
:10238000869501C080E0F601EE0FFF1FE05DFA4F79
:1023900022E3829FC001112491838083F601E45ED1
:1023A000FA4F81E0808383E0F81669F06F2D812F6A
:1023B0000E94F30DE82E6F2D812F0E94E10DE11098
:1023C00005C0811103C0812F0E9478128091010104
:1023D000882391F10F3139F4809104018058810FE5
:1023E0008093040129C0003239F4809103018058A0
:1023F000810F8093030120C0013239F480910201E2
:102400008058810F8093020117C00232A9F4113065
:1024100011F481E00FC0123011F482E00BC01330D0
:1024200011F484E007C0143011F488E003C01530C3
:1024300019F480E10E94A22180910101882369F1B1
:102440000E3149F5E12F012E000CFF0BE050FB4F40
:10245000908181E0892780838823E9F0111102C0EF
:1024600080EE03C0113021F481EE0E94642010C080
:10247000123011F482EEF9CF133011F486EEF5CF5D
:102480008CEF810F803120F48DEF810F80939405C4
:102490001092140502C00E94A10D809101018823B1
:1024A000C1F00B30B1F460E081EE0E94EE0F60E00D
:1024B000812F0E94EE0F1093FE040BC00E94710D3D
:1024C000682FC5016B830E94A6226B810E94EE0FCC
:1024D000F4CE0F900F900F90DF91CF911F910F913D
:1024E000FF90EF90DF90CF90BF90AF909F900895B6
:1024F000FF920F931F93CF93DF93082FC82FD0E045
:10250000FE01E85AFA4F10811150612F0E94F30D1D
:10251000F82E612F802F0E94E10DCC0FDD1FC05DD2
:10252000DA4F2FEF3FEF39832883682F8F2DDF910C
:10253000CF911F910F91FF900C94EE0FCF92DF92ED
:10254000EF92FF920F931F93CF93DF93182F062FD5
:1025500080910101811105C08091010181112EC07E
:1025600051C080E3E82E85E0F82EC0E0D0E0C12E17
:10257000012E000CDD088C2F033119F4CC16DD067A
:10258000A9F0F70120813181121613067CF40E9414
:102590007812FE01E45EFA4F8081811107C08091BC
:1025A0000101882319F08C2F0E944B222196F2E022
:1025B000EF0EF11CC431D105F1F6CECF011110C0E0
:1025C0001093FF048091FE048823E1F060E00E94F4
:1025D000EE0E60E081EE0E94EE0E1092FE0412C03C
:1025E0000B3081F48091FF0418130CC060E0812F40
:1025F000DF91CF911F910F91FF90EF90DF90CF90DF
:102600000C94EE0EDF91CF911F910F91FF90EF9000
:10261000DF90CF900895CF93DF93EC01E881F981AB
:102620000084F185E02D0995E881F9810284F38524
:10263000E02DCE01DF91CF9109940E94C72A0F931C
:102640001F93CF93DF93EC0188819981009729F044
:102650002A813B812617370788F48B016F5F7F4FF4
:102660000E94FD29009761F0998388831B830A8368
:102670002C813D81232B11F4FC01108281E001C0EB
:1026800080E0DF91CF911F910F910895FC0180812F
:102690009181009711F00C941F2860E070E0CB014D
:1026A0000895FB0144815581FC0124813581241763
:1026B000350778F080819181009759F0FB016081A6
:1026C00071816115710529F00E94F02A21E0892BA2
:1026D00009F020E0822F0895FC0124813581232B0D
:1026E00031F421E061157105A1F0FB0108C0FC0186
:1026F000808191816115710531F421E0FC018081B7
:10270000882339F005C00E94E02A21E0892B09F0D6
:1027100020E0822F08950F931F93CF93DF938C01B6
:10272000EB018617970771F1FC0180819181009779
:10273000B1F0688179816115710579F04281538129
:102740002C813D814217530740F00E94E92A8C8179
:102750009D81F8019583848313C00E946529888137
:102760009981F801918380838A819B8193838283FD
:102770008C819D8195838483198218821B821A82A1
:102780001D821C82C801DF91CF911F910F91089586
:10279000EF92FF920F931F93CF93DF93EC017B0196
:1027A0008A01BA010E941F132881398181110DC04D
:1027B0002115310519F0C9010E9465291982188275
:1027C0001D821C821B821A8206C01D830C83B701E6
:1027D000C9010E94E92ACE01DF91CF911F910F918B
:1027E000FF90EF900895CF93DF93EC016115710591
:1027F00059F0FB0101900020E9F73197AF01461B2A
:10280000570B0E94C8130CC088819981009711F062
:102810000E946529198218821D821C821B821A82DD
:10282000CE01DF91CF910895BF92CF92DF92EF92C8
:10283000FF920F931F93CF93DF937C016B018A016B
:10284000E9012417350720F4812F8901C42FD82FDF
:102850006BEF74E0C7010E94D515D60114968D91D7
:102860009C91159708171907D0F48C179D0708F449
:10287000EC01D601ED91FC911197EC0FFD1FB0809A
:1028800010824D915C91BA01600F711FC7010E94C7
:10289000F313D601ED91FC91EC0FFD1FB082C7013F
:1028A000DF91CF911F910F91FF90EF90DF90CF902C
:1028B000BF900895FC01808191810C946529FB01F2
:1028C000DC0111961C921E9213961C921E92129776
:1028D00015961C921E9214978617970749F06081EF
:1028E00071816115710521F0448155810C94C813E3
:1028F0000895089540910606509107062091040618
:102900003091050642175307B4F49091E800957092
:10291000E1F39091E80092FD19C08093F10080915D
:1029200006069091070601968F739927892B19F453
:102930008EEF8093E800809106069091070601963D
:10294000909307068093060681E0089580E008953D
:10295000CF92DF92EF92FF920F931F93CF93DF936B
:102960001F92CDB7DEB7182F062FE42E862F880FC3
:102970008E5F99830E947A1483E00E947A14F12E6C
:10298000C12E9981D92E8C2D8F19801798F4F601BC
:10299000E7FE02C0849101C080810E947A14182F42
:1029A00080E00E947A148123FFEFCF1ADF0A8111A1
:1029B000EACF01C081E00F90DF91CF911F910F917D
:1029C000FF90EF90DF90CF9008952FB7F894877025
:1029D0008093E9009091E800892F807295FF04C0F0
:1029E0009091F20080E4891B2FBF0895615030F070
:1029F0002091F100FC0120830196F8CF289884E60D
:102A0000809373060895CF92DF92EF92FF920F9317
:102A10001F93CF93DF936C017A018B01C0E0D0E06C
:102A2000CE15DF0589F0D8016D918D01D601ED91AC
:102A3000FC910190F081E02DC6010995892B11F4DC
:102A40007E0102C02196ECCFC701DF91CF911F918B
:102A50000F91FF90EF90DF90CF900895CF93DF9389
:102A60001F92CDB7DEB76983DC01ED91FC91028046
:102A7000F381E02D41E050E0BE016F5F7F4F09958B
:102A80000F90DF91CF91089583E08093E9008091CA
:102A9000F200882319F08AE38093E800089583E028
:102AA0000E94E51490E00895FC018485958597FDCA
:102AB0000BC09FB7F89482E08093E9008091F20008
:102AC0009FBF90E0019608959FB7F89482E08093AD
:102AD000E9008091F2009FBF90E008953FB7F8941D
:102AE0008091F4059091F505A091F605B091F70558
:102AF00026B5A89B05C02F3F19F00196A11DB11D59
:102B00003FBFBA2FA92F982F8827820F911DA11D93
:102B1000B11DBC01CD0142E0660F771F881F991FD0
:102B20004A95D1F708950F931F93CF93DF931F9288
:102B3000CDB7DEB78C01FC018485958597FF0EC06B
:102B4000CE0101960E945621019719F4298130E0A7
:102B500002C02FEF3FEFF80135872487F801848505
:102B600095850F90DF91CF911F910F910895CF938D
:102B7000DF931F92CDB7DEB7FC018485958597FD65
:102B800005C02FEF3FEF358724870BC0CE0101969C
:102B90000E945621019719F4898190E002C08FEFBD
:102BA0009FEF0F90DF91CF910895FC011182108269
:102BB00013821282158214826115710551F0FB0196
:102BC00001900020E9F73197AF01461B570B0C9499
:102BD000C81308951F920F920FB60F9211248F936E
:102BE0009F938091E1009091E100937F9093E100A9
:102BF00083FF0FC01092E90091E09093EB001092D8
:102C0000EC0092E39093ED001092740698E090939C
:102C1000F00082FF20C093E09093E9009091F200D1
:102C2000992319F09AE39093E8009091080699236C
:102C300039F090910806915090930806992389F1F4
:102C400090917306992339F0909173069150909367
:102C50007306992341F184FF10C08091E2008E7EBB
:102C600081608093E2008091E1008F7E8093E1009B
:102C7000809116058E7E806111C080FF16C0809104
:102C8000E2008E7E80618093E2008091E1008E7E82
:102C90008093E100809116058E7E816080931605F9
:102CA00004C05D9ACDCF289AD6CF9F918F910F9077
:102CB0000FBE0F901F901895BF92CF92DF92EF92A8
:102CC000FF920F931F93CF93DF936C018B01EB0166
:102CD0009BEFB92E2097C1F07E01C134D1051CF0C5
:102CE00080E4E82EF12C8091E80082FFFCCFC8013F
:102CF0008C1B9D0B6E2D8C0D9D1D0E94F614B092A9
:102D0000E800CE19DF09E6CFC801DF91CF911F910E
:102D10000F91FF90EF90DF90CF90BF900895DF92DA
:102D2000EF92FF920F931F93CF93DF93D82E8A01D8
:102D30007B01E40EF51EEB01CE15DF0571F0D7FE29
:102D400003C0FE01849101C088810E947A142196FB
:102D50008111F2CF8FEF9FEF01C0C801DF91CF91BA
:102D60001F910F91FF90EF90DF900895CF93DF9325
:102D7000FC01DB01C281D381209719F47383628344
:102D800008C088859985009711F0EC01FACFB987C2
:102D9000A887808112968C931297818113968C93C9
:102DA0001397908115968C911597890F808380E0F9
:102DB00014969C9114978917A0F49181C92FD0E0A3
:102DC000AE014B5F5E4F16962D913C911797280FE1
:102DD000311DE9012881EA0128839F5F91838F5F7C
:102DE000E7CF81E0DF91CF9108958091FC058111BB
:102DF0000DC082E08093F80584E08093F90510927D
:102E0000FB051092FA0581E08093FC0588EF95E0C0
:102E100008950F931F93CF93DF931F92CDB7DEB723
:102E200082E0898342E450E06FEE71E080E80E9426
:102E30008F160E94F516DC0112960D911C911397C6
:102E40000115110569F0D801ED91FC910280F38123
:102E5000E02DBE016F5F7F4FC801099597FF07C046
:102E600089810F90DF91CF911F910F910895F80103
:102E700000851185E5CF1F920F920FB60F92112496
:102E8000CF92DF92EF92FF920F931F932F933F9376
:102E90004F935F936F937F938F939F93AF93BF9362
:102EA000EF93FF93CF93DF93CDB7DEB76C97DEBF81
:102EB000CDBF1092E9008091E80083FFE7C168E090
:102EC000CE0145960E94F61482EF8093E8008D892A
:102ED00087FF05C09091E80090FFFCCF03C09EEFF4
:102EE0009093E800982F907609F0C6C09E892F89AC
:102EF000188D91110CC0803829F4809117058093AA
:102F0000F10002C01092F1001092F10042C1422F74
:102F100050E0512B913051F481113BC141305105AA
:102F200009F037C1809117058D7F0BC0933061F494
:102F300081112FC14130510509F02BC18091170536
:102F400082608093170525C1953041F48091E80097
:102F500080FFFCCF20682093E3001BC1963009F06E
:102F60005FC0EB8CFC8C1092E90010920706109267
:102F70000606123091F510920506109204060E9482
:102F8000091799E0BE016F5F7F4FDB01E92F1D92AA
:102F9000EA95E9F799831A8391E09E8390EA9887EE
:102FA0009AEF99872091060630910706275F3F4FD9
:102FB0003C832B838D831092E900109207061092B8
:102FC0000606F0920506E092040649E050E080E033
:102FD0000E948F160E940917DCC0F0920506E0924D
:102FE00004060E94F516DC011296ED90FC901397F2
:102FF000E114F10409F4BAC0D701ED91FC91048009
:10300000F581E02DBE016B5E7F4FC70109950097EA
:1030100019F00CF0BEC0C1C0F701E084F184E8CF24
:10302000973009F4BAC0983021F481E08093F10020
:10303000B0C0993009F0ADC0837009F0AEC0E6E0D1
:10304000F1E081E021E036E39081992361F0809303
:10305000E9002093EB0091919093EC003093ED0008
:103060008F5F873089F78EE78093EA001092EA003D
:103070008F89809374068DC08B8D9C8D1092E90092
:103080001092070610920606909305068093040698
:10309000898D811150C08E899D89913A59F4813270
:1030A00009F07BC047E050E060E171E080E00E9401
:1030B0008F166FC0913209F070C0833289F4888D09
:1030C00090E0982F88272F89822BA0E0B0E0809392
:1030D0000C0190930D01A0930E01B0930F0159C004
:1030E000803239F467E070E080E191E00E945C1684
:1030F00006C0823209F04DC08F89809317018091FC
:103100001505882319F0EEEFFAE002C0E0E0F8E0E0
:103110008091100190911101A0911201B0911301C1
:10312000803B9440A105B10509F07BC08091170157
:1031300080FF93C076C00E94F516DC0112960D91B7
:103140001C9113970115110541F1D801ED91FC91E6
:103150000190F081E02DBE016B5E7F4FC8010995A3
:10316000811117C0F80100851185ECCF113009F4E9
:103170004EC0133091F48F89882309F445C0823002
:1031800081F440E860E183E592E00E94A81488237E
:1031900021F08EEF8093E80079C081E28093EB000C
:1031A00075C0813029F440E86BE087E492E0EDCF10
:1031B000833099F70E94F516DC011296ED90FC9091
:1031C00013978E010F5F1F4F6801E114F10479F02E
:1031D000D701ED91FC910680F781E02DB801C70180
:1031E0000995080F111DF701E084F184EECFD80195
:1031F0001C92F60101900020E9F73197BF016C198C
:103200007D0940E0C601C1CF61E372E002C065E321
:1032100072E06115710509F2FB01449150E080E80C
:1032200046CF0FB6F894A89580916000886180938E
:103230006000109260000FBEA895EE3F2AE0F207F2
:1032400039F08091FE0A9091FF0A91838083A1CF8B
:103250001092FF0A1092FE0A9CCFEE3F8AE0F80718
:1032600031F0808191819093FF0A8093FE0A87E775
:1032700097E7918380839BE088E10FB6F894A89547
:10328000809360000FBE9093600083CF6C960FB662
:10329000F894DEBF0FBECDBFDF91CF91FF91EF91CC
:1032A000BF91AF919F918F917F916F915F914F915E
:1032B0003F912F911F910F91FF90EF90DF90CF9052
:1032C0000F900FBE0F901F90189590E0FC01319762
:1032D000EF30F105B0F5EB59FF4F0C94CA288091FF
:1032E00080008F7703C0809180008F7D8093800065
:1032F000089580918000877FF9CF84B58F7702C0D1
:1033000084B58F7D84BD0895809190008F7707C02C
:10331000809190008F7D03C080919000877F809383
:10332000900008958091C0008F7703C08091C00005
:103330008F7D8093C00008958091C200877F809325
:10334000C20008951F93CF93DF93282F30E0F90137
:10335000EC54FE4F8491F901EB56FE4FD491F901E4
:10336000EA58FE4FC491CC23C9F0162F81110E9458
:103370006519EC2FF0E0EE0FFF1FEF51FE4FA59106
:10338000B4918FB7F894111105C09C91ED2FE09581
:10339000E92302C0EC91ED2BEC938FBFDF91CF912D
:1033A0001F910895CF93DF9390E0FC01EB56FE4F01
:1033B0002491FC01EA58FE4F8491882361F190E04A
:1033C000880F991FFC01ED52FE4FC591D491FC016D
:1033D000EF51FE4FA591B491611109C09FB7F894C8
:1033E0008881209582238883EC912E230BC0623044
:1033F00061F49FB7F8943881822F80958323888366
:10340000EC912E2B2C939FBF06C08FB7F894E881C8
:103410002E2B28838FBFDF91CF9108958F929F929B
:10342000AF92BF92CF92DF92EF92FF926B017C013D
:103430000E946E154B015C01C114D104E104F1043A
:10344000F1F00E946E15DC01CB0188199909AA09D7
:10345000BB09883E9340A105B10570F321E0C21A73
:10346000D108E108F10888EE880E83E0981EA11CBF
:10347000B11CC114D104E104F10419F7DDCFFF90B0
:10348000EF90DF90CF90BF90AF909F908F90089576
:103490007F928F929F92AF92BF92CF92DF92EF92E4
:1034A000FF920F931F93CF93DF93C82E8B017A0166
:1034B00080917406811103C08FEF9FEF75C08091DA
:1034C000160580FF05C08091E00082608093E000D7
:1034D000CE2DDF2DD12C8AEF882E8C2D8770B82E23
:1034E0008C2D8072A82E8C2D8074982E9AE3792EC4
:1034F000209709F452C08C2D0E94E514282F8111C9
:103500000AC08A948820C1F261E070E080E090E017
:103510000E940E1AEDCF90E0C817D9070CF42C2F9B
:103520003FB7F894B092E9008091E80085FF33C07E
:10353000822F90E0C81BD90BAA2029F02150A8F0B7
:103540001092F100FBCFF801C7FE07C0215058F0E0
:1035500044914093F1003196F9CF215020F04191F0
:103560004093F100FACF080F191FDD2019F0709277
:10357000E8000AC08091E80085FD08C07092E8006C
:10358000DD24D394209739F0D12C05C0209719F46D
:1035900091107092E8003FBFABCFD110ACCF5D98D7
:1035A00084E680930806C701DF91CF911F910F91A8
:1035B000FF90EF90DF90CF90BF90AF909F908F9053
:1035C0007F900895CF93DF93EC01809117018823BA
:1035D00031F083E00E94481A1816190634F081E091
:1035E00090E09B838A8380E090E0DF91CF91089503
:1035F00085ED8093BC008091BC0084FDFCCF1092CF
:103600009B06089540912B06262F30E0240F311D94
:1036100021323105DCF420919B062430C9F4FC01F1
:1036200080E090E0861758F430912B062191DC0160
:10363000A75FB94FA30FB11D2C930196F3CF8091D3
:103640002B06680F60932B0680E0089581E00895B3
:1036500082E008950895E091520680915106E8179E
:1036600030F4F0E0ED5AF94F808190E008958FEF4B
:103670009FEF08959091520680915106981750F44B
:10368000E92FF0E0ED5AF94F208130E09F5F9093F1
:10369000520602C02FEF3FEFC901089580915106F5
:1036A00090E020915206821B91090895CF92DF92FB
:1036B000EF92FF920F931F93CF93DF937C01262FFE
:1036C000972F8A0180919C06882391F0C62FD72FCF
:1036D0006E01C40ED51ECC15DD0571F06991D701C0
:1036E000ED91FC910190F081E02DC7010995F3CF98
:1036F000642F822F0E94021BC801DF91CF911F917E
:103700000F91FF90EF90DF90CF900895CF93DF93CC
:103710001F92CDB7DEB7698320919C062223D1F09A
:103720002091BF06203240F021E030E0FC013383DD
:10373000228380E090E015C080919D06E82FF0E0A4
:10374000E256F94F998190838F5F80939D06809315
:10375000BF0605C061E0CE0101960E94021B81E018
:1037600090E00F90DF91CF910895FC0134969C0179
:10377000245F3F4F80E090E040814111019611921B
:10378000E217F307C9F70895CF93DF93DC0150E206
:10379000560F5830D0F414966C911497442351F07E
:1037A00021E030E001C0220F5A95EAF7262B14964B
:1037B0002C9337C081E090E001C0880F5A95EAF75A
:1037C0008095862314968C932CC0FC013696442356
:1037D000B9F00C96EF012991261719F1C817D907EE
:1037E000D1F780E090E02191211105C0A80FB91F09
:1037F00016966C9316C0019686309105A1F70EC0FF
:1038000080E090E02191261305C0A80FB91F1696FD
:103810001C9207C0019686309105A1F780E090E0E8
:1038200002C081E090E0DF91CF910895FC013496D1
:103830009C012D5E3F4F80E090E0608160FD01962D
:10384000462F50E055954795642F452BB9F71192B7
:10385000E217F30791F70895FC016836B8F4862F54
:10386000877021E030E001C0220F8A95EAF7669563
:1038700066956695E60FF11D442319F08581282B86
:1038800003C0209595812923258326C050E2560F39
:103890005830B0F46481442349F021E030E001C0A5
:1038A000220F5A95EAF7262B248316C081E090E078
:1038B00001C0880F5A95EAF78095862384830CC04F
:1038C0008289442331F0861711F0811108C0628B80
:1038D00003C0861304C0128A81E090E0089580E05E
:1038E00090E00895089580E090E00895DC01FB01E8
:1038F00012968C91129790E024813581821793075C
:10390000D1F491818081813A31F481E0913091F05C
:10391000933089F411C0813271F49B3021F482819B
:103920001F968C9305C09A3031F4828150968C9307
:1039300081E00895089580E00895DC01FB0188E4AA
:10394000808389E4818384E482831D969C911D9702
:103950009F709F5B93831D968D919C911E9724E091
:10396000969587952A95E1F78F708F5B848385E024
:103970000895CF93DF93EC01FB018A8190E02481CD
:1039800035818217930709F04AC081819081913A6D
:1039900069F4813009F441C0833011F48F8903C088
:1039A0008230E9F5888D8093F10037C09132B9F506
:1039B0008B3019F482818F8B30C08A3019F4828168
:1039C000888F2BC0893059F5668177818381833058
:1039D00079F48C8D9D8D6817790709F58A8D9B8DFB
:1039E0000E945C168C8D9D8D90689D8F8C8F15C06C
:1039F000823041F46130710591F461E070E0CE01F4
:103A0000499609C0813059F46830710541F468E085
:103A100070E0CE010E960E945C1681E001C080E04D
:103A2000DF91CF910895FB0120812138B9F42381E2
:103A30002232A1F4DC0112962C91129730E04481DD
:103A400055814217530751F421E057962C9345E4D2
:103A500050E064E672E080E80C948F1680E090E01D
:103A60000895CF93DF93CDB7DEB769970FB6F8947B
:103A7000DEBF0FBECDBFFC01DB019C919F5F9C931D
:103A8000BE016F5F7F4F89E1DB011D928A95E9F7E7
:103A900029E0298384E08A8391E09D8383E08E83FB
:103AA0009F8398872A8721E22B879C879D879F8702
:103AB00022E2288B25E4298B27E02B8B25E02C8B19
:103AC0008E8B20E430E0388F2F8B998F82818B830F
:103AD000838180688D8B49E150E080E00E948F16E1
:103AE00069960FB6F894DEBF0FBECDBFDF91CF91C0
:103AF0000895EF92FF920F931F93CF93DF93FB01F3
:103B00002081213851F52381223239F5DC011296CA
:103B10002C9130E04481558142175307F1F4EC01B8
:103B20000B851C85E12CF12C0115110591F0F80194
:103B3000448155816281738180E80E948F168F3F96
:103B4000FFEF9F0769F0E80EF91ED8010D911C9157
:103B5000EBCF81E08F87C70105C080E090E002C015
:103B60008FEF9FEFDF91CF911F910F91FF90EF901B
:103B70000895CF93DF93CDB7DEB769970FB6F8946A
:103B8000DEBF0FBECDBFFC01DB018C918F5F8C933C
:103B9000BE016F5F7F4F89E1DB011D928A95E9F7D6
:103BA00029E0298384E08A8391E09D8383E08E83EA
:103BB0002A8721E22B879C879D879F8722E2288B7B
:103BC00027E02B8B25E02C8B8E8B20E430E0388F88
:103BD0002F8B998F82818B8395858685998B8A8B94
:103BE000838180688D8B49E150E080E00E948F16D0
:103BF00069960FB6F894DEBF0FBECDBFDF91CF91AF
:103C000008951F920F920FB60F9211242F933F9396
:103C10008F939F93AF93BF9380911805909119054F
:103C2000A0911A05B0911B053091500623E0230F97
:103C30002D3720F40196A11DB11D05C026E8230FE4
:103C40000296A11DB11D20935006809318059093F4
:103C50001905A0931A05B0931B058091F405909166
:103C6000F505A091F605B091F7050196A11DB11DCE
:103C70008093F4059093F505A093F605B093F705AE
:103C8000BF91AF919F918F913F912F910F900FBE58
:103C90000F901F9018951F920F920FB60F9211243C
:103CA0002F933F934F935F936F937F938F939F9344
:103CB000AF93BF93EF93FF938091B900887F8036D5
:103CC00009F49CC068F5883209F45BC090F4803137
:103CD00009F454C038F4882309F4F6C0883009F494
:103CE0004DC0F6C0883109F44CC0803209F45DC083
:103CF000EFC0803409F468C048F4803309F455C03B
:103D0000883309F0E5C080939906D8C0803509F45E
:103D10004FC0883509F45DC0883409F0D9C0D6C0D9
:103D2000883909F4C7C0A8F4883709F467C038F4A3
:103D3000883609F463C0803709F460C0C9C0883888
:103D400009F4B8C0803909F45FC0803809F0C0C0F8
:103D50005BC0803B09F486C038F4803A09F466C041
:103D6000883A09F47FC0B4C0803C09F4A7C0883CFD
:103D700009F4A4C0883B09F48AC0AAC080917606E1
:103D800010C09091980680919706981770F5E09171
:103D9000980681E08E0F80939806F0E0E958F94F7D
:103DA00080818093BB0085EC86C0809399068EC08D
:103DB000E091980681E08E0F809398068091BB0079
:103DC000F0E0E958F94F808390919806809197062A
:103DD0006EC0E091980681E08E0F809398068091E6
:103DE000BB00F0E0E958F94F808380919A06811179
:103DF0006DC081E08093750684EA61C083E08093A2
:103E00009B0610924F06CFCF80914F06803208F06C
:103E100051C0E0914F0681E08E0F80934F06809154
:103E2000BB00F0E0E15DF94F8083BDCF85EC80936E
:103E3000BC0010929B0680914F06803230F4E091D6
:103E40004F06F0E0E15DF94F108260914F0670E09F
:103E5000E0912D06F0912E068FE296E009951092E2
:103E60004F0636C084E080939B0610922C06109279
:103E70002B06E0912906F0912A06099580912B06E0
:103E8000811105C081E080932B0610920906E09114
:103E90002C0681E08E0F80932C06F0E0E75FF94F4F
:103EA00080818093BB0090912C0680912B069817FF
:103EB00008F479CF85E88093BC000AC085EC809334
:103EC000BC0010929B0604C0109299060E94F81A3A
:103ED000FF91EF91BF91AF919F918F917F916F91E2
:103EE0005F914F913F912F910F900FBE0F901F90B8
:103EF0001895AF92BF92CF92DF92EF92FF920F93FD
:103F00001F93CF93DF931F92CDB7DEB77C016983F8
:103F10006A01590141E050E0BE016F5F7F4FFC0133
:103F200083810E94481A8C0197FD0BC0F7018381A1
:103F3000A501B60180640E94481A97FD02C0800F57
:103F4000911F0F90DF91CF911F910F91FF90EF90F4
:103F5000DF90CF90BF90AF900895CF93DF93EC01A7
:103F60000E940D22AE014C5F5F4F2FE030E068E011
:103F7000DF91CF910C94791F0F931F93CF93DF9311
:103F8000EB018A010E940D229801AE0161E0DF91F0
:103F9000CF911F910F910C94791FFC01A385B485DB
:103FA000109719F47487638709C08D919C911197BC
:103FB000009711F0DC01F9CF6D937C932585368550
:103FC000DB0114968D919C911597820F931F968714
:103FD00085870895BC01009791F0FC0101900020B5
:103FE000E9F73197AF01481B590BE091C106F091F9
:103FF000C2060280F381E02D81EC96E0099480E016
:1040000090E008958F929F92AF92BF920F931F936B
:10401000CF93DF93CDB7DEB7A1970FB6F894DEBF8D
:104020000FBECDBF19A2423008F44AE08E010F5DE9
:104030001F4F842E912CA12CB12CA50194010E941C
:10404000A828E62FB901CA0101501109EA3014F479
:10405000E05D01C0E95CD801EC93232B242B252BD8
:1040600061F7C8010E94EA1FA1960FB6F894DEBF5F
:104070000FBECDBFDF91CF911F910F91BF90AF9039
:104080009F908F900895CF93DF9300D0CDB7DEB788
:1040900019821A820E940D2222E030E0AE014F5FA9
:1040A0005F4F65E00E94791F0F900F90DF91CF91D5
:1040B00008958091C006813019F48BE397E002C027
:1040C00087E297E00C940B13682F8091C006813033
:1040D00019F48BE397E002C087E297E00C94BF0EDF
:1040E000682F8091C006813019F48BE397E002C0FD
:1040F00087E297E00C94A70E0C94EA1FCF93DF930E
:10410000FC0124813581232B61F0C081D18168E2DB
:1041100070E0CE010E94D52A009719F08C1B9D0BF0
:1041200002C08FEF9FEFDF91CF910895682F70E06D
:1041300080E090E04AE00C940220CF93DF93682F58
:1041400070E080E090E04AE00E940220EC0189EFFC
:1041500094E00E94EA1F8C0F9D1FDF91CF9108957C
:10416000CF93DF930E94EA1FEC0189EF94E00E9455
:10417000EA1F8C0F9D1FDF91CF9108952091BF06FC
:104180009091BE06213208F04AC080919B068111B1
:10419000FCCF32E030939B0631E030939A063FEF3C
:1041A000309399061092980620939706AEE9B6E0F0
:1041B00047E756E0FA013E2F341B321718F43D91C1
:1041C0003193F9CF1092760620917606990F922BB3
:1041D0009093760690917506913061F41092750671
:1041E000909176069093BB009091BC0093FDF8CF20
:1041F00095EC01C095EE9093BC0090919B06923097
:10420000E1F3909199069F3F79F080919906803271
:1042100041F080919906803331F084E005C081E05F
:1042200003C082E001C083E010929D061092BF0699
:1042300010929C060895682F81E197E00C94861BEC
:10424000CF92DF92EF92FF92CF93DF936C01990FA1
:10425000EE08FF08F7FE1FC0E091C106F091C2060C
:104260000190F081E02D6DE281EC96E00995EC0182
:1042700066277727CB016C197D098E099F094AE0D3
:104280000E9402208C0F9D1FDF91CF91FF90EF9035
:10429000DF90CF9008954AE0C701B601DF91CF913A
:1042A000FF90EF90DF90CF900C940220FC01809162
:1042B0007406811103C08FEF9FEF08959FB7F894A4
:1042C00082E08093E9002091F20030E0121613069C
:1042D00014F421E030E02115310559F0289884E6E6
:1042E000809373068091F10080838091F20088238F
:1042F00019F09FBFC90108958BE68093E800F9CFBC
:10430000CF93DF9300D000D0CDB7DEB7EEE4F7E077
:10431000928199838A836B834C830190F081E02D95
:104320000190F081E02D44E050E0BE016F5F7F4FCF
:104330008EE497E009950F900F900F900F90DF910A
:10434000CF91089590915007892B891739F0809368
:10435000500740E060E080E00C9480210895909147
:10436000500780958923891739F08093500740E0E2
:1043700060E080E00C948021089590919B0691115B
:10438000FCCF813208F080E291E090939B069093FD
:104390009A062FEF2093990610929806280F2093E3
:1043A00097069093760690917606906190937606A4
:1043B00090917506913061F4109275069091760691
:1043C0009093BB009091BC0093FDF8CF95EC01C099
:1043D00095EE9093BC0090919B069130E1F3909103
:1043E0009806981710F480919806A7E7B6E023E5A1
:1043F00036E0F9019E2F921B981718F49D91919326
:10440000F9CF10925206809351060895FC018281E3
:104410008F5BFB01808381E0089580919307811178
:1044200037C081E080938607809387072CE837E0C8
:10443000309389072093880710928B0710928A0780
:1044400027E931E0309383072093820710928E078B
:1044500010928D071092900710928F07809391070A
:104460008093920781EC80938C070E94F516FC01E3
:1044700041812091860730E0240F311D283031051D
:1044800024F462E877E00E94B61681E080939307F7
:1044900082E897E00895BF92CF92DF92EF92FF9269
:1044A0000F931F93CF93DF93C82F082E000CDD0BC3
:1044B0009E01220F331FA901405D5A4F7A01FA0174
:1044C0002081318137FF19C0182FAE01485A5A4F49
:1044D0006A01FA0100810150602F0E94F30DB82E8D
:1044E000602F812F0E94E10D682F8B2D0E94EE0E10
:1044F000F6011082F70111821082C45EDA4F188231
:10450000DF91CF911F910F91FF90EF90DF90CF90AF
:10451000BF9008950F931F93CF93DF931F92CDB752
:10452000DEB78C0169830E945B286981681741F0BE
:10453000C8010F90DF91CF911F910F910C946328C8
:104540000F90DF91CF911F910F9108950C945B28EC
:10455000CF93DF93CDB7DEB7A0970FB6F894DEBF49
:104560000FBECDBF789484B5826084BD84B5816070
:1045700084BD85B5826085BD85B5816085BD80912E
:104580006E00816080936E001092810080918100A6
:10459000826080938100809181008160809381009E
:1045A0008091800081608093800080919100826082
:1045B000809391008091910081608093910080911F
:1045C00090008160809390008091C100846080930E
:1045D000C1008091C10082608093C1008091C100C0
:1045E00081608093C1008091C30081608093C3008B
:1045F0008091C00082608093C0008091C200816081
:104600008093C20080917A00846080937A008091C8
:104610007A00826080937A0080917A008160809332
:104620007A0080917A00806880937A0010927406F4
:1046300010921705109216058091D7008160809323
:10464000D70080EA8093D80089B5806189BD89B59B
:10465000826089BD09B400FEFDCF61E070E080E0BA
:1046600090E00E940E1A8091D8008F7C8061809328
:10467000D8008091E000807F8093E0008091E1008D
:104680008E7E8093E1008DE08093E200559A209A1F
:10469000EEEFFFE7859194918B3F9C4D19F481E0FB
:1046A000809315050E9459208FEF9FEF9093CE06BF
:1046B0008093CD068EEF93E00E94A622182F809162
:1046C000C006813019F48BE397E002C087E297E0DF
:1046D0000E94D30F1093C0060E94592010925206D8
:1046E0001092510610929D061092BF0610929B06E2
:1046F00081E080939A061092750661E082E00E9444
:10470000A21961E083E00E94A2198091B9008E7F16
:104710008093B9008091B9008D7F8093B90088E4BF
:104720008093B80085E48093BC004CE155E080E3C1
:1047300095E0E8E5F5E024E12E0F1192DC011D92F1
:104740001D92CD01DA011D92AD012E13F6CF0EE1BF
:1047500011E0B5E0EB2EE00EF801F1908F0160E082
:104760008F2D0E94D21961E08F2D0E94A219E012B4
:10477000F3CF03E211E0A8E05A2E500ED801FD90CD
:104780008D0160E08F2D0E94D21960E08F2D0E9474
:10479000A2195012F3CF4BEC55E02CE635E065E062
:1047A000620F80E090E0F901E80FF91F1082FA0132
:1047B000E80FF91F1082059688329105A1F72F5F47
:1047C0003F4F4F5F5F4F6213ECCF6CE271E080E0D0
:1047D00090E00E940E1A8BEC95E0F5E02F2E280E4B
:1047E0002FB7F8948091180590911905A0911A059A
:1047F000B0911B052FBF80939A0590939B05A093C2
:104800009C05B0939D054091960550919705609148
:1048100098057091990584179507A607B70761F069
:104820008093960590939705A0939805B09399056A
:1048300081E08093F30502C01092F30581EC96E0CD
:104840000E945415181619060CF04AC081EC96E027
:104850000E94B715803219F189831A820091550799
:10486000109156070F5F1F4FB80181E597E00E9436
:104870001F13882341F120915107309152078091F5
:10488000550790915607BE016F5F7F4F820F931FB0
:104890000E94E92A109356070093550714C061E55A
:1048A00077E0CE0101960E945F14CE0101960E942E
:1048B000D701CE0101960E945A146BEF74E081E596
:1048C00097E00E94F3138091550790915607853623
:1048D000910530F06BEF74E081E597E00E94F313EF
:1048E000109195058FEF93E00E94A622811708F49E
:1048F000B3C290919405891708F4AEC28091F30574
:10490000882309F4DBC0ECE6EE2EE5E0FE2E03E2A0
:1049100011E088248394F80191908F0161E0892D42
:104920000E94D2197EE1C72E71E0D72EA12CB12CA6
:10493000D6012D916D0130E0F901EC54FE4F8491C8
:10494000F901EB56FE4F7490F901EA58FE4F64905E
:10495000662079F081110E946519E62DF0E0EE0FD6
:10496000FF1FE859FE4FA591B491EC917E2281E0A2
:1049700009F480E0F701EA0DFB1D88258083BFEF75
:10498000AB1ABB0AE5E0AE16B10491F660E0892DE2
:104990000E94D219F5E0EF0EF11C5012BCCF43EA91
:1049A000642E45E0742E00E010E055E0352EF8014D
:1049B000E553FA4F5F01C12CD12CE12CF12CF6010B
:1049C000E00FF11FE459FA4F8081813071F5D50174
:1049D0008C91811145C080909405F301EC0DFD1D73
:1049E0008082912CA401B801C7010E94740E482E48
:1049F000A401B801C7010E94880E642D0E949E1276
:104A000080909405912CA401B801C7010E94740EF6
:104A1000482EA401B801C7010E94880E642D0E948F
:104A2000EE0F2FEFF50120831BC0811119C0D501B6
:104A30008C918A3FA9F4F301EC0DFD1D8080912C2F
:104A4000A401B801C7010E94740E482EA401B80148
:104A5000C7010E94880E642D0E94EE0EF50130827F
:104A6000FFEFEF1AFF0A25E0C20ED11C85E0A80E69
:104A7000B11C98E2C916D10409F0A1CF0F5F1F4FF6
:104A8000AFEF6A1A7A0A0530110509F090CF4BECA6
:104A900055E020E030E0FA01E20FF31F8081882327
:104AA00021F08A3F11F0815080832B5F3F4F2832E5
:104AB000310589F74F5F5F4F2412EBCFF090000173
:104AC0000F2D10E061E085E00E94D219011511055B
:104AD00011F460E004C00F3F110529F461E085E0A6
:104AE0000E94A2197CC0E9EBF1E0E4918E2F90E0E6
:104AF000FC013197EF30F10508F06CC0EA5AFF4F26
:104B00000C94CA2884B5806884BDF7BC68C084B59D
:104B1000806284BDF8BC63C080918000806880930F
:104B20008000109389000093880059C08091800014
:104B300080628093800010938B0000938A004FC0A6
:104B40008091800088608093800010938D00009396
:104B50008C0045C0809190008068809390001093F5
:104B60009900009398003BC08091900080628093F0
:104B7000900010939B0000939A0031C080919000A8
:104B800088608093900010939D0000939C0027C044
:104B90008091C00080688093C0008091C0008F7BAE
:104BA0008093C000F092CF001AC08091C000806254
:104BB0008093C000F092D00012C08091C200886043
:104BC0008093C2008091C2008B7F8093C200F092DC
:104BD000D20005C0003811050CF080CF7ACF60916B
:104BE0009505062F10E08091A0059091A10508176A
:104BF0001907D1F081E080939C0688E08093BE067F
:104C000010929D061092BF0685E090E068A30E9476
:104C10001B2168A181E197E00E94861B0E94BE20B3
:104C20001093A1050093A00580919405082F10E032
:104C300020919E0530919F050217130731F00E94C5
:104C4000550E10939F0500939E058FE190E00E9402
:104C5000BD2180E010E02091510690915206291765
:104C600071F081E197E00E943A1BE1E0F0E0EC0F87
:104C7000FD1FE10FF11D80831F5F81E0ECCF8111EB
:104C800005C08091F305811174C08EC0E9808E014A
:104C90000C5F1F4FA12CB12CCC24C394D12CF12C30
:104CA0009924939438E0832ECE14DF0454F7F8014E
:104CB0003297808131966081D8019C91933009F4BC
:104CC00050C0782E923019F40E949E124CC095303C
:104CD00009F042C080919405482F50E020919E0534
:104CE00030919F054217530799F10E94550E80910C
:104CF000940590E090939F0580939E0590929C066A
:104D00008092BE0610929D061092BF0687E090E04A
:104D10000E941B216B2D81E197E00E94861B6A2D6A
:104D200081E197E00E94861B0E94BE2083E090E014
:104D30000E94BD2181E197E00E943A1B81E197E04A
:104D40000E943A1B782E81E197E00E943A1B682F5F
:104D5000872D0E94EE0F07C0913029F40E94EE0EBD
:104D600002C0A62EB82EB3E0CB0ED11C0D5F1F4F94
:104D70009BCF809101018823B9F080E3C82E85E0A4
:104D8000D82E98E5E92E95E0F92E00E010E0F70125
:104D900081917F0181110DC00F5F1F4FB2E0CB0EDB
:104DA000D11C0431110599F78091F30581111FC0C1
:104DB0004BC0D6018D919C9111971816190624F4B9
:104DC00001978D939C93E8CF892B31F7802F0E9418
:104DD0007812F801E45EFA4F80818111DDCF809175
:104DE00001018823C9F2802F0E944B22D5CF8091E8
:104DF00004018038A1F480910301803881F480910E
:104E00000201803861F48091A2058823E9F01092B4
:104E1000A2051092500740E060E080E013C01092BD
:104E2000500740E060E080E00E94802181E08093B4
:104E3000A2054091020140586091030160588091A1
:104E4000040180580E94802180E090E0892B09F4C1
:104E5000C7CC0E940000C4CC109295051092940516
:104E60004DCDBC01625F7F4FFC01838148E050E083
:104E700080640C94481A0A970C9431271092C40647
:104E80001092C30688EE93E0A0E0B0E08093C506E0
:104E90009093C606A093C706B093C8062FE231E0F0
:104EA0003093C2062093C1062FEF3FEF3093CE061A
:104EB0002093CD06109214071092130780931507C4
:104EC00090931607A0931707B093180781E491E019
:104ED000909312078093110781E0809321078093BC
:104EE000220723E337E0309324072093230710920F
:104EF00026071092250710922A071092290723E50A
:104F000031E030931E0720931D0721E631E03093F6
:104F10002807209327078093340780933507109242
:104F20003607109238071092370710923A071092FE
:104F3000390781EC809333070E94F516FC0141810B
:104F40002091210730E0240F311D2830310524F451
:104F50006DE177E00E94B61610923E0710923D0771
:104F60008FE791E090933C0780933B0780915E0729
:104F7000811113C0109259071092580789EA92E0E4
:104F800090935B0780935A0786E390E090935D07C8
:104F900080935C0781E080935E070E940D2268E5A4
:104FA00077E00E94CD1F1092500781E991E0909325
:104FB0004F0780934E0780916C07811113C01092A8
:104FC0006707109266078FED92E0909369078093D0
:104FD00068078BE290E090936B0780936A0781E00B
:104FE00080936C070E940D2266E677E00E94CD1F39
:104FF0006BEF74E081E597E00E94D51580917A0708
:10500000811113C010927507109274078AE093E023
:1050100090937707809376078BE490E090937907DD
:105020008093780781E080937A070E940D2264E7DD
:1050300077E00C94CD1F81E597E00C945A141F93F0
:10504000FC0199278827BC01E89411911032E9F3FB
:10505000193010F01E30C8F31B3251F01D3249F4E4
:10506000689406C00E944628610F711D811D911D24
:10507000119110531A30B0F33EF4909580957095CD
:1050800061957F4F8F4F9F4F1F910895592F482F44
:10509000372F262F660F771F881F991F660F771FE0
:1050A000881F991F620F731F841F951F660F771F3C
:1050B000881F991F0895F999FECF92BD81BDF89A76
:1050C000992780B50895262FF999FECF1FBA92BD72
:1050D00081BD20BD0FB6F894FA9AF99A0FBE0196D9
:1050E00008952F923F924F925F926F927F928F928C
:1050F0009F92AF92BF92CF92DF92EF92FF920F9367
:105100001F93CF93DF93CDB7DEB7CA1BDB0B0FB670
:10511000F894DEBF0FBECDBF09942A88398848882D
:105120005F846E847D848C849B84AA84B984C884C3
:10513000DF80EE80FD800C811B81AA81B981CE0FBA
:10514000D11D0FB6F894DEBF0FBECDBFED0108959F
:10515000A1E21A2EAA1BBB1BFD010DC0AA1FBB1F7B
:10516000EE1FFF1FA217B307E407F50720F0A21BED
:10517000B30BE40BF50B661F771F881F991F1A945A
:1051800069F760957095809590959B01AC01BD0184
:10519000CF010895EE0FFF1F0590F491E02D0994C3
:1051A000CF93DF938230910510F482E090E0E0919C
:1051B0009D07F0919E0720E030E0C0E0D0E03097FE
:1051C00011F14081518148175907C0F0481759071C
:1051D00061F482819381209719F09B838A832BC08D
:1051E00090939E0780939D0726C02115310519F0E5
:1051F0004217530718F49A01BE01DF01EF01028044
:10520000F381E02DDCCF2115310509F1281B390B85
:105210002430310590F412968D919C91139761156D
:10522000710521F0FB019383828304C090939E0754
:1052300080939D07FD01329644C0FD01E20FF31FEC
:1052400081939193225031092D933C933AC0209140
:105250009B0730919C07232B41F420911A01309138
:105260001B0130939C0720939B07209118013091DC
:1052700019012115310541F42DB73EB740911C01AC
:1052800050911D01241B350BE0919B07F0919C0769
:10529000E217F307A0F42E1B3F0B2817390778F00D
:1052A000AC014E5F5F4F2417350748F04E0F5F1F6C
:1052B00050939C0740939B078193919302C0E0E039
:1052C000F0E0CF01DF91CF9108950F931F93CF931B
:1052D000DF93009709F48CC0FC013297138212828D
:1052E00000919D0710919E070115110581F4208101
:1052F0003181820F931F20919B0730919C072817C3
:10530000390779F5F0939C07E0939B0771C0D801AA
:1053100040E050E0AE17BF0750F412962D913C913B
:105320001397AD012115310509F1D901F3CF9D0185
:10533000DA013383228360817181860F971F821780
:10534000930769F4EC0128813981260F371F2E5FFE
:105350003F4F318320838A819B8193838283452BB6
:1053600029F4F0939E07E0939D0742C01396FC93A7
:10537000EE931297ED01499159919E01240F351F2B
:10538000E217F30771F480819181840F951F0296D3
:1053900011969C938E938281938113969C938E9306
:1053A0001297E0E0F0E0D80112968D919C9113974E
:1053B000009719F0F8018C01F6CF8D919C9198011E
:1053C0002E5F3F4F820F931F20919B0730919C07C8
:1053D0002817390769F4309729F410929E07109224
:1053E0009D0702C01382128210939C0700939B07B3
:1053F000DF91CF911F910F910895A0E0B0E0E3E01D
:10540000FAE20C947528EC01009721F4CB010E947C
:10541000D028B8C0FC01E60FF71F9C0122503109CB
:10542000E217F30708F4ACC0D9010D911C91119754
:1054300006171707B0F00530110508F49FC0C80122
:1054400004978617970708F499C002501109061BA4
:10545000170B019311936D937C93CF010E946529E3
:105460008DC05B01A01AB10A4C01800E911EA09163
:105470009D07B0919E0740E050E0E12CF12C109781
:1054800009F44AC0A815B905D1F56D907C90119723
:10549000630182E0C80ED11CCA14DB0480F1A301B1
:1054A0004A195B096A0182E0C80ED11C1296BC90B1
:1054B00012971396AC91B5E0CB16D10440F0B282AE
:1054C000A38351834083D9016D937C930AC00E5FFF
:1054D0001F4FC301800F911FF90191838083EB2D32
:1054E000FA2FE114F10431F0D7011396FC93EE93F7
:1054F000129744C0F0939E07E0939D073FC08D91A3
:105500009C9111974817590708F4AC017D01129638
:105510000D90BC91A02DB3CF80919B0790919C07DB
:1055200088159905E1F446175707C8F480911801CA
:1055300090911901009741F48DB79EB740911C01DD
:1055400050911D01841B950BE817F907C8F4F093DF
:105550009C07E0939B07F901718360830FC0CB0127
:105560000E94D0287C01009759F0A801BE010E943A
:10557000CC2ACE010E946529C70104C0CE0102C019
:1055800080E090E0CDB7DEB7EEE00C94912881E0AA
:1055900090E0F8940C94FE2AFB01DC0102C001901B
:1055A0000D9241505040D8F70895FC018191861723
:1055B00021F08823D9F7992708953197CF010895CD
:1055C000FB01DC018D91019080190110D9F3990B39
:1055D0000895FB01DC0101900D920020E1F7089590
:1055E000FB01DC014150504030F08D910190801959
:1055F00019F40020B9F7881B990B089511E0CCEA43
:10560000D1E004C0FE010E94CA282196CD3AD107FC
:06561000C9F7F894FFCF7A
:10561600320180808000C18081000000FFFFFFFF13
:1056260000E100000000000000009F078000040663
:10563600070809151413120F0E100A000000002E99
:1056460015E21A4F1544155415B7159315000000A9
:1056560000861B561B731C2A1B4E1B3A1B2B1B005A
:10566600000000B91C311D131D06223127F6FF006C
:1056760000D70E0315731C721CB51B3B27C41B00F9
:105686000000001D131D131D13062200000000D785
:105696000E0315731C721C161CAD1F2C1C0000007B
:1056A60000BC1F00000000761CB91D791D9D1C75ED
:1056B6006E697175656B726571696E666F004445DA
:1056C60050524543494154454400756E69717565AC
:1056D6006B7265716E616D650044697665726765AA
:1056E6002033204D617374657200756E697175653E
:1056F6006B72657176617269616E7400756E69713F
:1057060075656B72657164726976657200416E6962
:105716006D757320496E6E6F76612078322E380073
:10572600756E697175656B7265716275696C640019
:105736004F454D00756E697175656B7365746B6564
:105746007900736574206B65792800756E697175CB
:10575600656B736574656570726F6D007365742033
:10576600454550524F4D2800756E697175656B73CE
:1057760065746C617900736574206C61796572205B
:10578600636F756E7428006572726F723A20696E67
:1057960073756666696369656E7420454550524F38
:1057A6004D00756E697175656B6765746C6179001E
:1057B600756E697175656B676574656570726F6D19
:1057C60000756E697175656B6765746B65790072D6
:1057D600657475726E206B65792800756E697175D2
:1057E600656B676574726F7700756E697175656B49
:1057F600676574636F6C00756E697175656B73654B
:10580600746D617374657200736574206D61737471
:1058160065722800756E697175656B7365746E6B5C
:10582600726F00736574204E4B524F206D6F646526
:1058360028006572726F723A20696E76616C6964CF
:10584600204E4B524F206F7074696F6E00756E69F3
:105856007175656B6765746E6B726F00756E6971D5
:1058660075656B6765746D6F647300676574206D2D
:105876006F64732800426C656450574D00756E69FD
:105886007175656B7365746272696768746E65734A
:105896007300736574206272696768746E657373EA
:1058A600282900756E697175656B67657462726922
:1058B6006768746E657373006765742062726967E2
:1058C60068746E657373282900756E697175656BEA
:1058D6007365747375626B657900737562206B65A9
:1058E60079207365743A20002C2000756E697175F5
:1058F600656B736574737562656570726F6D00575D
:10590600726F746520746F2073756220454550521E
:105916004F4D3A2000756E697175656B73657473CA
:1059260075626C617900456469746564206C61799F
:10593600657220636F756E7420746F3A20004C6137
:1059460079657220636F756E742065646974206171
:10595600626F727465642C20696E7375666669631E
:1059660069656E7420454550524F4D00756E6971DC
:1059760075656B73657473756262726967687400C6
:1059860053657420737562206272696768746E6508
:10599600737300493243006D6564696100756E6911
:1059A6007175656B7365746D6163726F0073657491
:1059B600206D6163726F28006475616C526F6C654F
:1059C600730074617044616E636500756E6971750C
:1059D600656B73657474617064616E63650073658D
:1059E600742074617064616E636528006D6F7573F1
:1059F600654B65797300737469636B794B6579736D
:0C5A06000073686966746564000D0A0096
:00000001FF
