:100000000C9476010C949E010C949E010C949E011C
:100010000C949E010C949E010C949E010C949E01E4
:100020000C949E010C949E010C94511A0C944F1B3D
:100030000C949E010C949E010C949E010C949E01C4
:100040000C949E010C949E010C949E010C949E01B4
:100050000C949E010C949E010C949E010C942A1702
:100060000C949E010C949E010C949E010C949E0194
:100070000C949E010C949E010C949E010C949E0184
:100080000C949E010C949E010C949E010C949E0174
:100090000C9474170C949E010C949E010C949E0178
:1000A0000C949E010C949E010C949E01A315A61520
:1000B000951599159F15C715C715C715AA15AE151E
:1000C000B215B815BC15C715C21507240C24112488
:1000D0001B2425246F246F246F242F2439244324C8
:1000E0004D245A246F24622405010906A101050745
:1000F00019E029E715002501750195088102050C15
:1001000095017508150026FF00190029FF810005DB
:1001100008190129089508750191020507950675CA
:1001200008150026E700190029E78100C00000003B
:1001300000240027002A002D0030000000000025C8
:100140000028002B002E00310000000000230026B4
:100150000029002C002F00040404040403040502F9
:100160000202020403020202020606060606060452
:10017000040202020404040802011040804010201E
:10018000408040800802040180402010020110805D
:1001900010204040200000000200090F000003046E
:1001A00001000C0000000000000000000000000042
:1001B00000000000080B0002020201000904000018
:1001C00001020200000524001001052401010104C0
:1001D00024020605240600010705810310004009DA
:1001E000040100020A0000000705020240000007A7
:1001F0000583024000000403090441726475696EBE
:100200006F204C4C430041726475696E6F204C65E1
:100210006F6E6172646F00120100020000004041C5
:1002200023368000010102030112010002EF0201E6
:10023000404123368000010102030105010906A1A6
:10024000018508050719E029E715002501750195C5
:10025000088102190029671500250175019568813B
:100260000295017508150026E700190029E78100AD
:10027000C005010902A10185010509190129081517
:100280000025019508750181020501093009310930
:10029000381581257F750895038106C0050C090175
:1002A000A10185051500250109E909EA75019502F5
:1002B000810609E29501810609B09501810609B11F
:1002C0009501810609B79501810609B59501810659
:1002D00009B69501810609B39501810609B4950116
:1002E000810695068107C000D225AF2611241FBEC6
:1002F000CFEFDAE0DEBFCDBF14E0A0E0B1E0EEE387
:10030000F3E502C005900D92A43FB107D9F727E0AD
:10031000A4EFB4E001C01D92AB39B207E1F711E0E0
:10032000C5E7D1E004C02197FE010E94D526C4375D
:10033000D107C9F70E9438210C9492290C9400002F
:100340003F924F925F926F927F928F929F92AF9265
:10035000BF92CF92DF92EF92FF920F931F93CF93B2
:10036000DF93CDB7DEB763970FB6F894DEBF0FBE4D
:10037000CDBF8C016BE971E00E943119882321F017
:100380008AEA91E00E94731E66EB71E0C8010E9448
:100390003119882321F085EC91E00E94731E69EDEC
:1003A00071E0C8010E943119882321F085EC91E0A9
:1003B0000E94731E6BEE71E0C8010E943119882300
:1003C00021F08CEF91E00E94731E60E172E0C801A1
:1003D0000E943119882319F080E292E0ABC164E2F7
:1003E00072E0CE0101960E943C1ABE016F5F7F4F02
:1003F000C8010E941619F82ECE0101960E941D1AFE
:10040000FF2009F4F5C0C8010E94411EAC014F5FF6
:100410005F4FB801CE0101960E94020EBE016F5FD0
:100420007F4FC8010E948E19CE0101960E941D1AAD
:10043000C8010E94411E9C0140E050E0B801CE017D
:1004400001960E94D018CE0101960E94C518962EE2
:10045000CE0101960E941D1AC8010E94411EAC01E6
:100460004F5F5F4FB801CE0101960E94020EBE01A0
:100470006F5F7F4FC8010E948E19CE0101960E94C6
:100480001D1AC8010E94411E9C0140E050E0B801C5
:10049000CE0101960E94D018CE0101960E94C51887
:1004A000A62ECE0101960E941D1AC8010E94411E6F
:1004B000AC014F5F5F4FB801CE0101960E94020E62
:1004C000BE016F5F7F4FC8010E948E19CE01019659
:1004D0000E941D1AC8010E94411E9C0140E050E08C
:1004E000B801CE0101960E94D018CE0101960E945B
:1004F000C518B62ECE0101960E941D1AC8010E9491
:10050000411EAC014F5F5F4FB801CE0101960E94C2
:10051000020EBE016F5F7F4FC8010E948E19CE018F
:1005200001960E941D1AC8010E94411E9C0140E0D4
:1005300050E0B801CE0101960E94D018CE0101967C
:100540000E94C518C62ECE0101960E941D1AC80130
:100550000E94411EAC014F5F5F4FB801CE01019672
:100560000E94020EBE016F5F7F4FC8010E948E196C
:10057000CE0101960E941D1AC8010E94C518D62EF0
:1005800086E0A89E70011124E90CF11C88E1B89E58
:10059000E00CF11C1124EE0CFF1C6C2DC7010E9415
:1005A000CD206D2DC70101960E94CD2082E392E0FF
:1005B0000E943F1E892D0E94591E86E592E00E94EE
:1005C0003F1E8A2D0E94591E86E592E00E943F1E22
:1005D0008B2D0E94591E86E592E00E943F1E8C2DB5
:1005E0000E94591E86E592E00E943F1E8D2D66C036
:1005F0006BE372E0CE0101960E943C1ABE016F5F70
:100600007F4FC8010E941619F82ECE0101960E9454
:100610001D1AFF2009F455C0C8010E94411EAC01FB
:100620004F5F5F4FB801CE0101960E94020EBE01DE
:100630006F5F7F4FC8010E948E19CE0101960E9404
:100640001D1AC8010E94411E9C0140E050E0B80103
:10065000CE0101960E94D018CE0101960E94C518C5
:100660004B015C01CE0101960E941D1AC8010E9437
:10067000411EAC014F5F5F4FB801CE0101960E9451
:10068000020EBE016F5F7F4FC8010E948E19CE011E
:1006900001960E941D1AC8010E94C518F62EC401B9
:1006A0000E94CD208CE492E00E943F1EC4010E9473
:1006B000E31E86E592E00E943F1E8F2D0E94601E81
:1006C00075C168E572E0CE0101960E943C1ABE0138
:1006D0006F5F7F4FC8010E941619F82ECE01019658
:1006E0000E941D1AFF2049F1C8010E94411EAC0161
:1006F0004F5F5F4FB801CE0101960E94020EBE010E
:100700006F5F7F4FC8010E948E19CE0101960E9433
:100710001D1AC8010E94C518F62E89E18F1540F0F8
:100720006F2D8FEF93E00E94CD2086E692E0C3CF3D
:1007300087E792E00E94731E39C162E972E0C80146
:100740000E943119882319F08FEF93E02CC060EAE2
:1007500072E0CE0101960E943C1ABE016F5F7F4F8E
:10076000C8010E941619F82ECE0101960E941D1A8A
:10077000FF20E1F0C8010E94411EAC014F5F5F4FB6
:10078000B801CE0101960E94020EBE016F5F7F4F3D
:10079000C8010E948E19CE0101960E941D1AC8013F
:1007A0000E94C518CB010E94E92088CF61EB72E05E
:1007B000CE0101960E943C1ABE016F5F7F4FC801B7
:1007C0000E941619F82ECE0101960E941D1AFF20D4
:1007D00009F482C0C8010E94411EAC014F5F5F4F07
:1007E000B801CE0101960E94020EBE016F5F7F4FDD
:1007F000C8010E948E19CE0101960E941D1AC801DF
:100800000E94411E9C0140E050E0B801CE010196DB
:100810000E94D018CE0101960E94C518E62ECE0186
:1008200001960E941D1AC8010E94411EAC014F5F33
:100830005F4FB801CE0101960E94020EBE016F5FAC
:100840007F4FC8010E948E19CE0101960E941D1A89
:10085000C8010E94411E9C0140E050E0B801CE0159
:1008600001960E94D018CE0101960E94C518C62E8E
:10087000CE0101960E941D1AC8010E94411EAC01C2
:100880004F5F5F4FB801CE0101960E94020EBE017C
:100890006F5F7F4FC8010E948E19CE0101960E94A2
:1008A0001D1AC8010E94C518A62EB12CD12CF12CFE
:1008B000A501B601C7010E94EE0D982EA501B60153
:1008C000C7010E94D90DF82E8FEB92E00E943F1EC7
:1008D000892D0E94591EEDCE6BEC72E0CE0101967F
:1008E0000E943C1ABE016F5F7F4FC8010E9416191B
:1008F000F82ECE0101960E941D1AFF2019F084E007
:1009000090E015C069ED72E0CE0101960E943C1A9C
:10091000BE016F5F7F4FC8010E941619F82ECE01ED
:1009200001960E941D1AFF2029F086E090E00E94A7
:10093000ED1E3CC067EE72E0CE0101960E943C1AAB
:10094000BE016F5F7F4FC8010E941619F82ECE01BD
:1009500001960E941D1AFF2049F1C8010E94411E04
:10096000AC014F5F5F4FB801CE0101960E94020EAD
:10097000BE016F5F7F4FC8010E948E19CE010196A4
:100980000E941D1AC8010E94C518611103C010926F
:10099000020103C081E08093020188EF92E00E948F
:1009A0003F1E8091020190E00E94E31EB801CE013B
:1009B00007960E94221A64E073E0CE0101960E941D
:1009C0003C1ABE016F5F7F4FCE0107960E94161939
:1009D000F82ECE0101960E941D1AFF2009F440C096
:1009E000CE0107960E94411EAC014F5F5F4FBE01D2
:1009F000695F7F4FCE0101960E94020EBE016F5FBC
:100A00007F4FCE0107960E948E19CE0101960E945B
:100A10001D1ACE0107960E94C518F62E82E08F158A
:100A2000D0F06F2D8EEF93E00E94CD208091BC0618
:100A3000813019F487E397E002C083E297E00E94D7
:100A4000340FF092BC060E941C1E83E193E00E94CA
:100A50003F1E8F2D11C082E293E00E94731E0EC0D4
:100A60006DE373E0CE0107960E943119882331F0BF
:100A70008EEF93E00E94E9200E94601ECE0107964F
:100A80000E941D1AB801CE010D960E94221A6CE434
:100A900073E0CE010D960E943119882321F08BE579
:100AA00093E00E943F1EBE01635F7F4FCE01079619
:100AB0000E94221A6CE473E0CE0101960E943C1A57
:100AC000BE016F5F7F4FCE0107960E941619182F47
:100AD000CE0101960E941D1A112329F085E693E0AC
:100AE0000E943F1E6BC06DE673E0CE0101960E942E
:100AF0003C1ABE016F5F7F4FCE0107960E94161908
:100B0000182FCE0101960E941D1A1123C9F1CE01A2
:100B100007960E94411EAC014F5F5F4FBE01695FA7
:100B20007F4FCE0101960E94020EBE016F5F7F4F84
:100B3000CE0107960E948E19CE0101960E941D1AC1
:100B4000CE0107960E94411E9C0140E050E0BE018C
:100B5000695F7F4FCE0101960E94D018CE010196A9
:100B60000E94C518CE0101966B8B0E941D1A6B89DD
:100B700070E0709301016093000182E893E016C079
:100B800063E973E0CE0101960E943C1ABE016F5FDB
:100B90007F4FCE0107960E941619182FCE0101969D
:100BA0000E941D1A112351F088EA93E00E943F1E13
:100BB00080910001909101010E94ED1ECE010796E7
:100BC0000E941D1ABE01635F7F4FCE0107960E94EF
:100BD000221A69EB73E0CE0101960E943C1ABE0115
:100BE0006F5F7F4FCE0107960E941619182FCE0116
:100BF00001960E941D1A112309F426C1CE01079601
:100C00000E94411EAC014F5F5F4FBE01695F7F4F85
:100C1000CE0101960E94020EBE016F5F7F4FCE0192
:100C200007960E948E19CE0101960E941D1ACE01D0
:100C300007960E94411E9C0140E050E0BE01695FA2
:100C40007F4FCE0101960E94D018CE0101960E94DE
:100C5000C518D62ECE0101960E941D1ACE01079608
:100C60000E94411EAC014F5F5F4FBE01695F7F4F25
:100C7000CE0101960E94020EBE016F5F7F4FCE0132
:100C800007960E948E19CE0101960E941D1ACE0170
:100C900007960E94411E9C0140E050E0BE01695F42
:100CA0007F4FCE0101960E94D018CE0101960E947E
:100CB000C518E62ECE0101960E941D1ACE01079698
:100CC0000E94411EAC014F5F5F4FBE01695F7F4FC5
:100CD000CE0101960E94020EBE016F5F7F4FCE01D2
:100CE00007960E948E19CE0101960E941D1ACE0110
:100CF00007960E94411E9C0140E050E0BE01695FE2
:100D00007F4FCE0101960E94D018CE0101960E941D
:100D1000C518F62ECE0101960E941D1ACE01079627
:100D20000E94411EAC014F5F5F4FBE01695F7F4F64
:100D3000CE0101960E94020EBE016F5F7F4FCE0171
:100D400007960E948E19CE0101960E941D1ACE01AF
:100D500007960E94411E9C0140E050E0BE01695F81
:100D60007F4FCE0101960E94D018CE0101960E94BD
:100D7000C518062FCE0101960E941D1ACE010796B6
:100D80000E94411EAC014F5F5F4FBE01695F7F4F04
:100D9000CE0101960E94020EBE016F5F7F4FCE0111
:100DA00007960E948E19CE0101960E941D1ACE014F
:100DB00007960E94C518162F81E08093980688E058
:100DC0008093BA06109299061092BB0662E08DE0FD
:100DD00097E00E9409136D2D8DE097E00E940913A2
:100DE0006E2D8DE097E00E9409136F2D8DE097E046
:100DF0000E940913802F002E000C990B0E94DE1E0A
:100E0000612F8DE097E00E9409130E94811E8AECF9
:100E100093E00E943F1E8D2D0E94591E88ED93E0A5
:100E20000E943F1E8E2D0E94591E88ED93E00E9465
:100E30003F1E8F2D0E94591E88ED93E00E943F1E99
:100E4000802F0E94591E6EC06BED73E0CE0101969B
:100E50000E943C1ABE016F5F7F4FCE0107960E9431
:100E60001619182FCE0101960E941D1A112309F49C
:100E700061C0CE0107960E94411EAC014F5F5F4FDB
:100E8000BE01695F7F4FCE0101960E94020EBE0136
:100E90006F5F7F4FCE0107960E948E19CE0101969B
:100EA0000E941D1ACE0107960E94411E9C0140E03F
:100EB00050E0BE01695F7F4FCE0101960E94D018BD
:100EC000CE0101960E94C5186B017C01CE010196EE
:100ED0000E941D1ACE0107960E94411EAC014F5F71
:100EE0005F4FBE01695F7F4FCE0101960E94020EE7
:100EF000BE016F5F7F4FCE0107960E948E19CE0113
:100F000001960E941D1ACE0107960E94C518162F41
:100F1000C6010E94890D8FEE93E00E943F1EC6011C
:100F20000E94E31E88ED93E00E943F1E812F0E94E5
:100F3000601E8FC065E074E0CE0101960E943C1AED
:100F4000BE016F5F7F4FCE0107960E941619182FC2
:100F5000CE0101960E941D1A112351F1CE01079670
:100F60000E94411EAC014F5F5F4FBE01695F7F4F22
:100F7000CE0101960E94020EBE016F5F7F4FCE012F
:100F800007960E948E19CE0101960E941D1ACE016D
:100F900007960E94C518162F653138F48FEF93E03D
:100FA0000E94890D86E194E0BFCF8EE294E036C0C6
:100FB0006CE574E0CE0101960E943C1ABE016F5FA1
:100FC0007F4FCE0107960E941619182FCE01019669
:100FD0000E941D1A112329F1CE0107960E94411E7D
:100FE000AC014F5F5F4FBE01695F7F4FCE0101963D
:100FF0000E94020EBE016F5F7F4FCE0107960E94D6
:101000008E19CE0101960E941D1ACE0107960E94EC
:10101000C518862F0E94BA0D80E794E00E94731EC7
:1010200018C06CE473E0CE0101960E943C1ABE0128
:101030006F5F7F4FCE0107960E941619182FCE01C1
:1010400001960E941D1A112321F083E894E00E946A
:101050003F1ECE0107960E941D1ABE01635F7F4F9F
:10106000CE0107960E94221A6CE473E0CE0101962D
:101070000E943C1ABE016F5F7F4FCE0107960E940F
:101080001619182FCE0101960E941D1A112321F066
:1010900087E894E00E943F1ECE0107960E941D1A29
:1010A000BE01635F7F4FCE0107960E94221A6CE457
:1010B00073E0CE0101960E943C1ABE016F5F7F4F24
:1010C000CE0107960E941619182FCE0101960E9494
:1010D0001D1A112329F087E994E00E943F1E85C163
:1010E0006DE874E0CE0101960E943C1ABE016F5F6C
:1010F0007F4FCE0107960E941619182FCE01019638
:101100000E941D1A112309F470C1CE0107960E9496
:10111000411EAC014F5F5F4FBE01695F7F4FCE0143
:1011200001960E94020EBE016F5F7F4FCE010796AF
:101130000E948E19CE0101960E941D1ACE010796BB
:101140000E94411E9C0140E050E0BE01695F7F4F5C
:10115000CE0101960E94D018CE0101960E94C518BA
:10116000F62ECE0101960E941D1ACE0107960E940E
:10117000411EAC014F5F5F4FBE01695F7F4FCE01E3
:1011800001960E94020EBE016F5F7F4FCE0107964F
:101190000E948E19CE0101960E941D1ACE0107965B
:1011A0000E94411E9C0140E050E0BE01695F7F4FFC
:1011B000CE0101960E94D018CE0101960E94C5185A
:1011C000E62ECE0101960E941D1A82E1F89E800152
:1011D00011248BE08F1548F088E08E1530F06E2DCD
:1011E000C801875A9D4F0E94CD20480188EA881A7D
:1011F0008DEF980A580185EAA81A8DEFB80A065AA9
:101200001D4FC12CD12C412C512C32014394CE01C5
:1012100007960E94411EAC014F5F5F4FBE01695FA0
:101220007F4FCE0101960E94020EBE016F5F7F4F7D
:10123000CE0107960E948E19CE0101960E941D1ABA
:10124000CE0107960E94411E9C0140E050E0BE0185
:10125000695F7F4FCE0101960E94D018CE010196A2
:101260000E94C518CE0101966B8B0E941D1A6B89D6
:101270008BE08F1518F0C8010E94CD20CE01079693
:101280000E94411EAC014F5F5F4FBE01695F7F4FFF
:10129000CE0101960E94020EBE016F5F7F4FCE010C
:1012A00007960E948E19CE0101960E941D1ACE014A
:1012B00007960E94411E9C0140E050E0BE01695F1C
:1012C0007F4FCE0101960E94D018CE0101960E9458
:1012D000C518CE0101966B8B0E941D1A6B898BE09D
:1012E0008F1518F0C5010E94CD20CE0107960E94EF
:1012F000411EAC014F5F5F4FBE01695F7F4FCE0162
:1013000001960E94020EBE016F5F7F4FCE010796CD
:101310000E948E19CE0101960E941D1ACE010796D9
:101320000E94411E9C0140E050E0BE01695F7F4F7A
:10133000CE0101960E94D018CE0101960E94C518D8
:10134000362ECE0101960E941D1A8BE08F15C8F033
:10135000C4010E94E920282FD301C2010C2C04C033
:10136000880F991FAA1FBB1F0A94D2F7332019F0C8
:10137000622F682B03C08095622F6823C4010E94EE
:10138000CD208FEFC81AD80A82E0A80EB11C0E5FDC
:101390001F4F88E0C816D10409F039CFCE01079657
:1013A0000E94411EAC014F5F5F4FBE01695F7F4FDE
:1013B000CE0101960E94020EBE016F5F7F4FCE01EB
:1013C00007960E948E19CE0101960E941D1A8DE982
:1013D00094E00E943F1E8F2D0E94591E86E592E0E8
:1013E0000E943F1E8E2D0E94601ECE0107960E9415
:1013F0001D1ABE01635F7F4FCE0107960E94221A1D
:101400006CE473E0CE0101960E943C1ABE016F5F4E
:101410007F4FCE0107960E941619182FCE01019614
:101420000E941D1A112321F088EA94E00E943F1EB9
:10143000CE0107960E941D1ABE01635F7F4FCE0149
:1014400007960E94221A6CE473E0CE0101960E9476
:101450003C1ABE016F5F7F4FCE0107960E9416199E
:10146000182FCE0101960E941D1A112329F082EB3C
:1014700094E00E943F1E38C26BEB74E0CE010196EF
:101480000E943C1ABE016F5F7F4FCE0107960E94FB
:101490001619182FCE0101960E941D1A112309F466
:1014A00023C2CE0107960E94411EAC014F5F5F4FE1
:1014B000BE01695F7F4FCE0101960E94020EBE0100
:1014C0006F5F7F4FCE0107960E948E19CE01019665
:1014D0000E941D1ACE0107960E94411E9C0140E009
:1014E00050E0BE01695F7F4FCE0101960E94D01887
:1014F000CE0101960E94C518B62ECE0101960E941B
:101500001D1ACE0107960E94411EAC014F5F5F4F2E
:10151000BE01695F7F4FCE0101960E94020EBE019F
:101520006F5F7F4FCE0107960E948E19CE01019604
:101530000E941D1ACE0107960E94411E9C0140E0A8
:1015400050E0BE01695F7F4FCE0101960E94D01826
:10155000CE0101960E94C518362ECE0101960E943A
:101560001D1ACE0107960E94411EAC014F5F5F4FCE
:10157000BE01695F7F4FCE0101960E94020EBE013F
:101580006F5F7F4FCE0107960E948E19CE010196A4
:101590000E941D1ACE0107960E94411E9C0140E048
:1015A00050E0BE01695F7F4FCE0101960E94D018C6
:1015B000CE0101960E94C518462ECE0101960E94CA
:1015C0001D1ACE0107960E94411EAC014F5F5F4F6E
:1015D000BE01695F7F4FCE0101960E94020EBE01DF
:1015E0006F5F7F4FCE0107960E948E19CE01019644
:1015F0000E941D1ACE0107960E94411E9C0140E0E8
:1016000050E0BE01695F7F4FCE0101960E94D01865
:10161000CE0101960E94C518562ECE0101960E9459
:101620001D1ACE0107960E94411EAC014F5F5F4F0D
:10163000BE01695F7F4FCE0101960E94020EBE017E
:101640006F5F7F4FCE0107960E948E19CE010196E3
:101650000E941D1ACE0107960E94411E9C0140E087
:1016600050E0BE01695F7F4FCE0101960E94D01805
:10167000CE0101960E94C518662ECE0101960E94E9
:101680001D1ACE0107960E94411EAC014F5F5F4FAD
:10169000BE01695F7F4FCE0101960E94020EBE011E
:1016A0006F5F7F4FCE0107960E948E19CE01019683
:1016B0000E941D1ACE0107960E94411E9C0140E027
:1016C00050E0BE01695F7F4FCE0101960E94D018A5
:1016D000CE0101960E94C518762ECE0101960E9479
:1016E0001D1ACE0107960E94411EAC014F5F5F4F4D
:1016F000BE01695F7F4FCE0101960E94020EBE01BE
:101700006F5F7F4FCE0107960E948E19CE01019622
:101710000E941D1ACE0107960E94411E9C0140E0C6
:1017200050E0BE01695F7F4FCE0101960E94D01844
:10173000CE0101960E94C518862ECE0101960E9408
:101740001D1ACE0107960E94411EAC014F5F5F4FEC
:10175000BE01695F7F4FCE0101960E94020EBE015D
:101760006F5F7F4FCE0107960E948E19CE010196C2
:101770000E941D1ACE0107960E94411E9C0140E066
:1017800050E0BE01695F7F4FCE0101960E94D018E4
:10179000CE0101960E94C518962ECE0101960E9498
:1017A0001D1ACE0107960E94411EAC014F5F5F4F8C
:1017B000BE01695F7F4FCE0101960E94020EBE01FD
:1017C0006F5F7F4FCE0107960E948E19CE01019662
:1017D0000E941D1ACE0107960E94C518A62E0B2D39
:1017E00010E083E18B1590F1780183E0EE0CFF1C93
:1017F0008A95E1F7670186EBC81A8CEFD80AC60113
:101800000E94E9208C7F682F630DC6010E94CD20C5
:10181000C6010E94E9208370942D990F990F682FBB
:10182000690FC6010E94CD20652DC701845B9C4FC6
:101830000E94CD20672DC701825B9C4F0E94CD2066
:10184000692DC701805B9C4F0E94CD20462D60E032
:10185000C8010E94610D482D61E0C8010E94610D20
:101860004A2D62E0C8010E94610D8EEC94E00E9456
:101870003F1E8B2D0E94591E86E592E00E943F1E5E
:10188000832D0E94591E86E592E00E943F1E842D02
:101890000E94591E86E592E00E943F1E852D0E94FF
:1018A000591E86E592E00E943F1E862D0E94591E19
:1018B00086E592E00E943F1E872D0E94591E86E514
:1018C00092E00E943F1E882D0E94591E86E592E0FC
:1018D0000E943F1E892D0E94591E86E592E00E94BB
:1018E0003F1E8A2D0E94601ECE0107960E941D1A7F
:1018F000BE01635F7F4FCE0107960E94221A6CE4FF
:1019000073E0CE0101960E943C1ABE016F5F7F4FCB
:10191000CE0107960E941619182FCE0101960E943B
:101920001D1A112321F08CED94E00E943F1ECE0180
:1019300007960E941D1ABE01635F7F4FCE01079676
:101940000E94221A6CE473E0CE0101960E943C1AB8
:10195000BE016F5F7F4FCE0107960E941619182FA8
:10196000CE0101960E941D1A112321F087EE94E00A
:101970000E943F1ECE0107960E941D1A6CE473E080
:10198000CE010D960E943119882321F081EF94E059
:101990000E943F1ECE010D960E941D1A63960FB63F
:1019A000F894DEBF0FBECDBFDF91CF911F910F9195
:1019B000FF90EF90DF90CF90BF90AF909F908F906F
:1019C0007F906F905F904F903F9008958C3091057D
:1019D0008CF4683078F442E1489F9001499F300DC3
:1019E0001124C901860F911D860F911D855A9D4FA7
:1019F0000C94E92080E00895CF93DF932091F905BE
:101A00003091FA05882319F02F5F3F4F02C0215013
:101A100031093093FA052093F905C091F905D09169
:101A2000FA058FEF93E00E94E92090E0C817D907EC
:101A30002CF01092FA051092F90507C0D7FF05C0E7
:101A400001979093FA058093F905DF91CF9108955E
:101A50000F931F93CF93DF9381E08093090505EFE8
:101A600014E0C0E0D0E0F80180818823F9F02097ED
:101A700011F480EE04C0C130D10521F481EE0E9442
:101A8000331E12C0C230D10511F482EEF8CFC3303C
:101A9000D10511F486EEF3CF8091F9059091FA0506
:101AA0009093F8058093F705F801108221960F5F57
:101AB0001F4FC431D105B9F6DF91CF911F910F911E
:101AC00008958431910584F4633070F423E0880F25
:101AD000991F2A95E1F7860F911D860F911D642F9E
:101AE000835B9C4F0C94CD200895843191057CF448
:101AF000633068F423E0880F991F2A95E1F7845B2F
:101B00009C4F860F911D860F911D0C94E92080E05B
:101B100008950F931F93CF93DF931F92CDB7DEB736
:101B20008C0181E08093980688E08093BA06109239
:101B300099061092BB0684E090E069830E94DE1E45
:101B400069818DE097E00E9409130F3F110541F074
:101B50003CF08FEF90E00E94DE1E0F5F1109F5CF81
:101B6000C8010E94DE1E0F90DF91CF911F910F914F
:101B70000C94811ECF93DF931F92CDB7DEB7682FF1
:101B800081E08093980688E08093BA0610929906C7
:101B90001092BB0686E090E069830E94DE1E698198
:101BA0008DE097E00E9409130F90DF91CF910C9484
:101BB000811EE6E0E69F9001E79F300D1124820F21
:101BC000931F68E1649F9001659F300D1124820F7F
:101BD000931F880F991F01960C94E920E6E0E69F79
:101BE0009001E79F300D1124820F931F68E1649FDD
:101BF0009001659F300D1124820F931F880F991F4C
:101C00000C94E920CF93DF93EC01FB012481358113
:101C10000E94D018CE01DF91CF9108950F931F93AA
:101C2000CF93DF93EC01E881F9810084F185E02D09
:101C300040E009958C01892B39F0E881F981068013
:101C4000F781E02DCE010995C801DF91CF911F9159
:101C50000F9108950F931F93CF93DF93EC01E881C9
:101C6000F9810084F185E02D41E009958C01892BF3
:101C700039F0E881F9810680F781E02DCE010995E0
:101C8000C801DF91CF911F910F910895FF920F939B
:101C90001F93CF93DF938C01F62E0E942A0EEC0146
:101CA000892B21F06F2DC8010E940E0ECE01DF910D
:101CB000CF911F910F91FF900895CF93DF93D82F6D
:101CC000C62F80910201882309F454C0611104C019
:101CD0008D2F0E94331E4EC0613091F06230C9F4E6
:101CE0008091F40481110CC08091BC066CE28130BB
:101CF00019F487E397E002C083E297E00E94460E62
:101D00008091F9059091FA059093F8058093F70575
:101D100031C06B3091F06C3019F460E080EE24C07B
:101D20006D3001F16E3019F460E086EE1DC06F3049
:101D300039F460E080EE0E945D0E60E081EE14C038
:101D4000603129F460E080EE0E945D0E07C06131D1
:101D500019F460E080EE04C0623161F460E081EE6D
:101D60000E945D0E60E082EE0E945D0E60E08D2FAD
:101D70000E945D0E80910201882391F18CEE8C0F00
:101D80008A3070F5C43119F460E080EE04C0C531CA
:101D900029F460E081EE0E945D0E12C0C63119F494
:101DA00060E082EEF8CFC73119F460E086EEF3CF41
:101DB0008091F9059091FA059093F8058093F705C5
:101DC0008091F40481110CC08091BC066D2F81308C
:101DD00019F487E397E002C083E297E00E94460E81
:101DE00080910201882329F0C33119F48D2F0E94BC
:101DF000EB20809102018823A1F1CF3139F4809149
:101E0000050180588D1B809305012BC0C03239F429
:101E10008091040180588D1B8093040122C0C1323F
:101E200039F48091030180588D1B8093030119C000
:101E3000C232B9F4D13011F481E00FC0D23011F4C4
:101E400082E00BC0D33011F484E007C0D43011F429
:101E500088E003C0D53029F480E1DF91CF910C9464
:101E60005E1FDF91CF9108950F931F93CF93DF9360
:101E7000EC01E881F9810480F581E02D09958C0160
:101E8000892B39F0E881F9810680F781E02DCE01B8
:101E90000995C801DF91CF911F910F9108956F921D
:101EA0007F928F929F92AF92BF92CF92DF92EF92EA
:101EB000FF920F931F93CF93DF9300D01F92CDB764
:101EC000DEB7182F062F81E08093F4048091020181
:101ED000882309F491C0611104C0812F0E94271E3C
:101EE0008BC0613021F0623059F41092F404812FDC
:101EF000012E000C990B9093F8058093F7057CC098
:101F00006330B1F5111102C081E003C0113021F43A
:101F100080E00E94FC0C70C0E090F905F090FA059A
:101F200021E00E2C01C0220F0A94EAF73AE0C32EFA
:101F3000D12C220F69F08FEFE81AF80A8FEF93E0A7
:101F40002B830E94E92090E02B81E816F9061CF013
:101F500021E0E12CF12C822F812329F0F092FA0567
:101F6000E092F90549C091E0C91AD10811F7F6CFFE
:101F7000653089F42091F7053091F805812F012E05
:101F8000000C990B2817390709F0B1CF8091F9059A
:101F90009091FA05B0CF6B3091F06C3019F460E09D
:101FA00080EE24C06D3001F16E3019F460E086EEF1
:101FB0001DC06F3039F460E080EE0E944F0F60E08A
:101FC00081EE14C0603129F460E080EE0E944F0F72
:101FD00007C0613119F460E080EE04C0623161F441
:101FE00060E081EE0E944F0F60E082EE0E944F0F92
:101FF00060E0812F0E944F0F80910201882361F1E0
:10200000063051F58091BC06813019F487E397E0E2
:1020100002C083E297E00E94340F612F8EEF93E0BD
:102020000E94CD208091BC06813019F487E397E0AF
:1020300002C083E297E00E94340F1093BC060E9416
:102040001C1E8091BC06813019F487E397E002C022
:1020500083E297E00E94340F809102018823C9F146
:102060000A30E9F51536B4F4809100019091010130
:10207000810F911D17FD9A9597FF05C010920101E0
:102080001092000128C08F3F9105F1F0ECF08FEF26
:1020900090E01AC0153691F3163619F480E290E0FC
:1020A00013C0173619F480E490E00EC0183619F406
:1020B00080E690E009C0193619F480E890E004C089
:1020C0001A3649F480EA90E0909301018093000170
:1020D00002C00A3021F4809100010E94BA0D809163
:1020E0000201882359F1043049F5111102C081E041
:1020F00017C0113011F482E013C0123011F40983BB
:1021000010C0133011F488E00BC0143011F480E1DA
:1021100007C0153011F480E403C0163079F480E86C
:1021200089831A820E948F2022E030E0AE014F5F47
:102130005F4F65E00E943E200E94061E80910201D2
:10214000882309F45DC0073009F05AC0812E012EA2
:10215000000C99088CE0881691040CF051C092E1B3
:10216000190260011124C601875A9D4F0E94E9207F
:10217000560196EAA91A9DEFB90AE12CF12C682EB6
:10218000712C88EAC81A8DEFD80AE614F7042CF5EA
:10219000C6010E94E92090E00E2C02C0959587951B
:1021A0000A94E2F76E2D80FFCDC0C4010E94E60CB8
:1021B000682FC5016B830E94E9206B810E945D0E30
:1021C00065E070E080E090E00E9434169FEFE91A2D
:1021D000F90A82E0A80EB11CD8CF8091F905909140
:1021E000FA059093F8058093F7058091BC0681303D
:1021F00019F487E397E002C083E297E00E94340F6E
:1022000080910201882329F1043119F460E080EE05
:1022100009C0053119F460E081EE04C0063139F4DB
:1022200060E082EE0E944F0F1092F40412C007315A
:1022300019F460E086EEF6CF88EE800F863048F421
:102240001092F404802F90E047979093F8058093C4
:10225000F705809102018823E1F1033149F5E12E70
:10226000012E000CFF08F701ED54FA4F80818430F5
:1022700070F58F5F808394E1E916F1046CF4C70177
:1022800023E0880F991F2A95E1F7865B9C4F0E94F7
:10229000E9208695869501C080E0F701E156FA4F66
:1022A000880F8083F701E557FA4F81E080830FC0E4
:1022B0000E3169F4812F012E000C990BFC01EB50BB
:1022C000FB4F308121E023272083211147C00E944A
:1022D000280D80910201882309F45EC00F3139F482
:1022E000809105018058180F1093050155C00032E8
:1022F00039F4809104018058180F109304014CC0E8
:10230000013239F4809103018058180F10930301B2
:1023100043C0023209F040C0113011F481E00FC017
:10232000123011F482E00BC0133011F484E007C0C6
:10233000143011F488E003C0153071F580E10E947B
:10234000511F2AC0C4010E94E60C682FC5016B838F
:102350000E94E9206B810E944F0F32CF111102C001
:1023600080EE03C0113021F481EE0E94271E11C0BF
:10237000123011F482EEF9CF133011F486EEF5CF5E
:102380002CEF210F203128F403979093F8058093C8
:10239000F705109209059DCF0F900F900F90DF91D8
:1023A000CF911F910F91FF90EF90DF90CF90BF9052
:1023B000AF909F908F907F906F900895CF93DF9311
:1023C000EC01E881F9810480F581E02D0995E8812F
:1023D000F9810680F781E02DCE01DF91CF9109943C
:1023E000CF92DF92EF92FF920F931F93CF93DF93E1
:1023F0006C017A018B01C0E0D0E0CE15DF0589F0D9
:10240000D8016D918D01D601ED91FC910190F08183
:10241000E02DC6010995892B11F47E0102C0219699
:10242000ECCFC701DF91CF911F910F91FF90EF90FB
:10243000DF90CF900895CF93DF931F92CDB7DEB793
:102440006983DC01ED91FC910280F381E02D41E094
:1024500050E0BE016F5F7F4F09950F90DF91CF91E4
:10246000089583E08093E9008091F200882319F0B9
:102470008AE38093E8000895FC018485958597FDA3
:102480000BC09FB7F89482E08093E9008091F2003E
:102490009FBF90E0019608959FB7F89482E08093E3
:1024A000E9008091F2009FBF90E008953FB7F89453
:1024B0008091520590915305A0915405B091550516
:1024C00026B5A89B05C02F3F19F00196A11DB11D8F
:1024D0003FBFBA2FA92F982F8827820F911DA11DCA
:1024E000B11DBC01CD0142E0660F771F881F991F07
:1024F0004A95D1F7089585ED8093BC008091BC008A
:1025000084FDFCCF10929706089540912C05262F4C
:1025100030E0240F311D21323105DCF42091970683
:102520002430C9F4FC0180E090E0861758F4309123
:102530002C052191DC01A65FBA4FA30FB11D2C938E
:102540000196F3CF80912C05680F60932C0580E0F5
:10255000089581E0089582E008950895E0916A0564
:1025600080916905E81730F4F0E0E559FA4F808171
:1025700090E008958FEF9FEF089590916A05809104
:102580006905981750F4E92FF0E0E559FA4F2081DA
:1025900030E09F5F90936A0502C02FEF3FEFC901C3
:1025A00008958091690590E020916A05821B910948
:1025B0000895CF92DF92EF92FF920F931F93CF93E4
:1025C000DF937C01262F972F8A018091980688231C
:1025D00091F0C62FD72F6E01C40ED51ECC15DD0588
:1025E00071F06991D701ED91FC910190F081E02D9E
:1025F000C7010995F3CF642F822F0E948512C8016D
:10260000DF91CF911F910F91FF90EF90DF90CF90CE
:102610000895CF93DF931F92CDB7DEB769832091E2
:1026200098062223D1F02091BB06203240F021E011
:1026300030E0FC013383228380E090E015C080917C
:102640009906E82FF0E0E656F94F998190838F5F65
:10265000809399068093BB0605C061E0CE01019688
:102660000E94851281E090E00F90DF91CF91089554
:10267000FC0134969C01245F3F4F80E090E0408154
:10268000411101961192E217F307C9F70895FC0171
:1026900020E2260F2830F0F0DC01169620E030E032
:1026A0008D91442349F0861304C0E20FF31F668323
:1026B00026C0811107C0F9CF861304C0E20FF31FB3
:1026C00016821DC02F5F3F4F2630310549F780E04D
:1026D00090E008953481442349F081E090E001C006
:1026E000880F2A95EAF7832B848309C041E050E0E4
:1026F00001C0440F2A95EAF740954323448381E0C3
:1027000090E00895FC0134969C012D5E3F4F80E0DF
:1027100090E0608160FD0196462F50E05595479509
:10272000642F452BB9F71192E217F30791F708953B
:10273000FC016836B8F4862F877021E030E001C0D4
:10274000220F8A95EAF7669566956695E60FF11D64
:10275000442319F08581282B03C0209595812923D6
:10276000258326C050E2560F5830B0F464814423CC
:1027700049F021E030E001C0220F5A95EAF7262BFC
:10278000248316C081E090E001C0880F5A95EAF7D3
:102790008095862384830CC08289442331F0861778
:1027A00011F0811108C0628B03C0861304C0128A25
:1027B00081E090E0089580E090E008950F931F93EA
:1027C000CF93DF931F92CDB7DEB78C01FC018485D8
:1027D000958597FF0EC0CE0101960E94051F0197B7
:1027E00019F4298130E002C02FEF3FEFF80135875F
:1027F0002487F801848595850F90DF91CF911F91F3
:102800000F910895CF93DF931F92CDB7DEB7FC01F0
:102810008485958597FD05C02FEF3FEF3587248789
:102820000BC0CE0101960E94051F019719F4898102
:1028300090E002C08FEF9FEF0F90DF91CF9108954E
:10284000CF93DF93EC01FB018A8190E024813581F5
:102850008217930709F04AC081819081913A69F407
:10286000813009F441C0833011F48F8903C0823074
:10287000E9F5888D8093F10037C09132B9F58B303E
:1028800019F482818F8B30C08A3019F48281888F4D
:102890002BC0893059F5668177818381833079F443
:1028A0008C8D9D8D6817790709F58A8D9B8D0E9407
:1028B000C31A8C8D9D8D90689D8F8C8F15C0823032
:1028C00041F46130710591F461E070E0CE01499608
:1028D00009C0813059F46830710541F468E070E056
:1028E000CE010E960E94C31A81E001C080E0DF9104
:1028F000CF910895FB0120812138B9F42381223240
:10290000A1F4DC0112962C91129730E0448155819C
:102910004217530751F421E057962C9345E450E0B9
:1029200068EE70E080E80C94F61A80E090E008957C
:10293000CF93DF93CDB7DEB769970FB6F894DEBFBC
:102940000FBECDBFFC01DB019C919F5F9C93BE013C
:102950006F5F7F4F89E1DB011D928A95E9F729E0DE
:10296000298384E08A8391E09D8383E08E839F8323
:1029700098872A8721E22B879C879D879F8722E261
:10298000288B25E4298B27E02B8B25E02C8B8E8B45
:1029900020E430E0388F2F8B998F82818B83838165
:1029A00080688D8B49E150E080E00E94F61A6996BC
:1029B0000FB6F894DEBF0FBECDBFDF91CF91089563
:1029C000CF93DF93EC010E948F20AE014C5F5F4FED
:1029D0002FE030E068E0DF91CF910C943E200F9320
:1029E0001F93CF93DF93EB018A010E948F20980100
:1029F000AE0161E0DF91CF911F910F910C943E20C9
:102A000040916B0650916C062091690630916A06E0
:102A100042175307B4F49091E8009570E1F3909158
:102A2000E80092FD19C08093F10080916B069091AF
:102A30006C0601968F739927892B19F48EEF80937A
:102A4000E80080916B0690916C06019690936C065D
:102A500080936B0681E0089580E00895615030F026
:102A60002091F100FC0120830196F8CF289884E69C
:102A700080936F060895CF93DF93FC01DB01C28141
:102A8000D381209719F47383628308C08885998560
:102A9000009711F0EC01FACFB987A88780811296D0
:102AA0008C931297818113968C931397908115962E
:102AB0008C911597890F808380E014969C911497D0
:102AC000891788F41696CD91DC911797C80FD11D00
:102AD0009881C181D0E0CA5FDE4F988391819F5F6A
:102AE00091838F5FEACF81E0DF91CF91089580914C
:102AF0005A0581110DC082E08093560584E08093D1
:102B00005705109259051092580581E080935A0597
:102B100086E595E0089590E0FC013197EF30F105EE
:102B2000B0F5EA5AFF4F0C94D526809180008F773C
:102B300003C0809180008F7D8093800008958091F4
:102B40008000877FF9CF84B58F7702C084B58F7DF1
:102B500084BD0895809190008F7707C08091900088
:102B60008F7D03C080919000877F809390000895AF
:102B70008091C0008F7703C08091C0008F7D8093CB
:102B8000C00008958091C200877F8093C20008959D
:102B90001F93CF93DF93282F30E0F901EB56FE4FC0
:102BA0008491F901EA58FE4FD491F901E95AFE4F98
:102BB000C491CC23C9F0162F81110E948B15EC2FE4
:102BC000F0E0EE0FFF1FE55CFE4FA591B4918FB7CB
:102BD000F894111105C09C91ED2FE095E92302C0F6
:102BE000EC91ED2BEC938FBFDF91CF911F91089566
:102BF000CF93DF9390E0FC01EA58FE4F2491FC0153
:102C0000E95AFE4F8491882361F190E0880F991F63
:102C1000FC01E35DFE4FC591D491FC01E55CFE4FE4
:102C2000A591B491611109C09FB7F894888120954E
:102C300082238883EC912E230BC0623061F49FB70E
:102C4000F8943881822F809583238883EC912E2BF2
:102C50002C939FBF06C08FB7F894E8812E2B288352
:102C60008FBFDF91CF9108958F929F92AF92BF92C5
:102C7000CF92DF92EF92FF926B017C010E9456127D
:102C80004B015C01C114D104E104F104F1F00E9494
:102C90005612DC01CB0188199909AA09BB09883EA3
:102CA0009340A105B10570F321E0C21AD108E108F3
:102CB000F10888EE880E83E0981EA11CB11CC11497
:102CC000D104E104F10419F7DDCFFF90EF90DF901C
:102CD000CF90BF90AF909F908F9008958F929F92CA
:102CE000AF92BF92CF92DF92EF92FF920F931F931A
:102CF000CF93DF9300D01F92CDB7DEB7382F8B0173
:102D000080917006811103C08FEF9FEF7DC080918D
:102D1000630580FF05C08091E00082608093E00041
:102D20004A018AEFF82E832F8770E82E9FE3C92E81
:102D3000832F8072B82E2AE3D22E832F8074A82E80
:102D40008114910409F457C08FB7F894E092E90018
:102D50009091E80095FF05C09091F2002C2D291B61
:102D600001C020E08FBF211110C0FA94FF2061F252
:102D700061E070E080E090E039834A835B830E94E9
:102D8000341639814A815B81DBCF822F90E088162F
:102D900099060CF4282D6FB7F894E092E900809121
:102DA000E80085FF26C0822F90E0881A990ABB2090
:102DB00029F02150A8F01092F100FBCFF80137FF65
:102DC00007C0215058F074917093F1003196F9CFFB
:102DD000215020F071917093F100FACF080F191F64
:102DE0008091E80085FF0DC08114910411F4A110B9
:102DF00008C06FBFA5CF5D9884E680936D06CA01B9
:102E000003C0D092E800F5CF0F900F900F90DF91A4
:102E1000CF911F910F91FF90EF90DF90CF90BF90D7
:102E2000AF909F908F900895CF93DF93EC018091A6
:102E30001801882331F083E00E946E1618161906D7
:102E400034F081E090E09B838A8380E090E0DF9122
:102E5000CF9108951F920F920FB60F9211242F93C6
:102E60003F938F939F93AF93BF938091650590910C
:102E70006605A0916705B09168053091510523E082
:102E8000230F2D3720F40196A11DB11D05C026E8A2
:102E9000230F0296A11DB11D209351058093650556
:102EA00090936605A0936705B093680580915205DD
:102EB00090915305A0915405B09155050196A11D1F
:102EC000B11D8093520590935305A0935405B09380
:102ED0005505BF91AF919F918F913F912F910F9089
:102EE0000FBE0F901F9018951F920F920FB60F9262
:102EF00011242F933F934F935F936F937F938F93FF
:102F00009F93AF93BF93EF93FF938091B900887F16
:102F1000803609F49CC068F5883209F45BC090F4EF
:102F2000803109F454C038F4882309F4F6C088309D
:102F300009F44DC0F6C0883109F44CC0803209F460
:102F40005DC0EFC0803409F468C048F4803309F4F0
:102F500055C0883309F0E5C080939506D8C0803508
:102F600009F44FC0883509F45DC0883409F0D9C030
:102F7000D6C0883909F4C7C0A8F4883709F467C0F7
:102F800038F4883609F463C0803709F460C0C9C0DA
:102F9000883809F4B8C0803909F45FC0803809F076
:102FA000C0C05BC0803B09F486C038F4803A09F4A5
:102FB00066C0883A09F47FC0B4C0803C09F4A7C059
:102FC000883C09F4A4C0883B09F48AC0AAC0809157
:102FD000720610C09091940680919306981770F530
:102FE000E091940681E08E0F80939406F0E0ED5816
:102FF000F94F80818093BB0085EC86C08093950655
:103000008EC0E091940681E08E0F809394068091AB
:10301000BB00F0E0ED58F94F8083909194068091C9
:1030200093066EC0E091940681E08E0F8093940623
:103030008091BB00F0E0ED58F94F808380919606B7
:1030400081116DC081E08093710684EA61C083E0E4
:103050008093970610925005CFCF80915005803213
:1030600008F051C0E091500581E08E0F809350052B
:103070008091BB00F0E0E05DFA4F8083BDCF85EC2E
:103080008093BC001092970680915005803230F4F6
:10309000E0915005F0E0E05DFA4F1082609150053C
:1030A00070E0E0912E05F0912F0580E395E0099501
:1030B0001092500536C084E08093970610922D053B
:1030C00010922C05E0912A05F0912B05099580912D
:1030D0002C05811105C081E080932C0510920A0512
:1030E000E0912D0581E08E0F80932D05F0E0E65FE5
:1030F000FA4F80818093BB0090912D0580912C0523
:10310000981708F479CF85E88093BC000AC085EC55
:103110008093BC001092970604C0109295060E94FE
:103120007B12FF91EF91BF91AF919F918F917F9112
:103130006F915F914F913F912F910F900FBE0F9024
:103140001F9018950E94D228CF93DF93EC01611550
:10315000710559F0FB0101900020E9F73197AF01AB
:10316000461B570B0E94F2190CC088819981009769
:1031700011F00E947027198218821D821C821B8206
:103180001A82CE01DF91CF910895FC018081918157
:10319000009711F00C94092960E070E0CB010895CC
:1031A000BF92CF92DF92EF92FF920F931F93CF9334
:1031B000DF937C016B018A01E9012417350720F4B4
:1031C000812F8901C42FD82F63EF74E0C7010E94BB
:1031D0003C1AD60114968D919C91159708171907E2
:1031E000D0F48C179D0708F4EC01D601ED91FC9109
:1031F0001197EC0FFD1FB08010824D915C91BA01C8
:10320000600F711FC7010E94A418D601ED91FC91B7
:10321000EC0FFD1FB082C701DF91CF911F910F917D
:10322000FF90EF90DF90CF90BF900895FB01448115
:103230005581FC01248135812417350778F0808180
:103240009181009759F0FB016081718161157105D1
:1032500029F00E94FB2821E0892B09F020E0822F31
:103260000895FC0124813581232B31F421E061157F
:103270007105A1F0FB0108C0FC01808191816115FD
:10328000710531F421E0FC018081882339F005C00B
:103290000E94EB2821E0892B09F020E0822F08957D
:1032A0000895CF92DF92EF92FF920F931F93CF93E7
:1032B000DF931F92CDB7DEB7182F062FE42E862F8F
:1032C000880F8E5F99830E94001583E00E9400158D
:1032D000F12EC12E9981D92E8C2D8F19801798F43B
:1032E000F601E7FE02C0849101C080810E940015B2
:1032F000182F80E00E9400158123FFEFCF1ADF0A0C
:103300008111EACF01C081E00F90DF91CF911F9131
:103310000F91FF90EF90DF90CF9008950F931F9340
:10332000CF93DF938C01EB018617970771F1FC01B6
:10333000808191810097B1F0688179816115710573
:1033400079F0428153812C813D814217530740F02F
:103350000E94F4288C819D81F8019583848313C099
:103360000E94702788819981F801918380838A81E6
:103370009B81938382838C819D8195838483198231
:1033800018821B821A821D821C82C801DF91CF9194
:103390001F910F9108950F931F93CF93DF93EC012B
:1033A00088819981009729F02A813B812617370768
:1033B00088F48B016F5F7F4F0E940828009761F0AF
:1033C000998388831B830A832C813D81232B11F4ED
:1033D000FC01108281E001C080E0DF91CF911F915C
:1033E0000F910895EF92FF920F931F93CF93DF9366
:1033F000EC017B018A01BA010E94CB192881398135
:1034000081110DC02115310519F0C9010E947027E5
:10341000198218821D821C821B821A8206C01D839B
:103420000C83B701C9010E94F428CE01DF91CF912E
:103430001F910F91FF90EF900895FC018081918181
:103440000C947027FB01DC0111961C921E921396BE
:103450001C921E92129715961C921E921497861714
:10346000970749F0608171816115710521F04481F0
:1034700055810C94F2190895FC0111821082138277
:103480001282158214826115710551F0FB010190C1
:103490000020E9F73197AF01461B570B0C94F21946
:1034A00008951F920F920FB60F9211248F939F933E
:1034B0008091E1009091E100937F9093E10083FF80
:1034C0000FC01092E90091E09093EB001092EC0095
:1034D00092E39093ED001092700698E09093F000C4
:1034E00082FF20C093E09093E9009091F20099232D
:1034F00019F09AE39093E80090916D06992339F0C2
:1035000090916D06915090936D06992389F1909159
:103510006F06992339F090916F06915090936F0642
:10352000992341F184FF10C08091E2008E7E81607A
:103530008093E2008091E1008F7E8093E100809192
:1035400063058E7E806111C080FF16C08091E2000D
:103550008E7E80618093E2008091E1008E7E809378
:10356000E100809163058E7E81608093630504C0D5
:103570005D9ACDCF289AD6CF9F918F910F900FBE95
:103580000F901F901895BF92CF92DF92EF92FF920B
:103590000F931F93CF93DF936C018B01EB019BEF94
:1035A000B92E2097C1F07E01C134D1051CF080E412
:1035B000E82EF12C8091E80082FFFCCFC8018C1B23
:1035C0009D0B6E2D8C0D9D1D0E942E15B092E80056
:1035D000CE19DF09E6CFC801DF91CF911F910F917E
:1035E000FF90EF90DF90CF90BF900895DF92EF9221
:1035F000FF920F931F93CF93DF93D82E8A017B0105
:10360000E40EF51EEB01CE15DF0571F0D7FE03C009
:10361000FE01849101C088810E94001521968111CC
:10362000F2CF8FEF9FEF01C0C801DF91CF911F91C3
:103630000F91FF90EF90DF9008950F931F93CF931A
:10364000DF931F92CDB7DEB782E0898342E450E07A
:1036500064EB71E080E80E94F61A0E947715DC01A5
:1036600012960D911C9113970115110569F0D8015F
:10367000ED91FC910280F381E02DBE016F5F7F4FE1
:10368000C801099597FF07C089810F90DF91CF91FD
:103690001F910F910895F80100851185E5CF1F92C4
:1036A0000F920FB60F921124CF92DF92EF92FF92FA
:1036B0000F931F932F933F934F935F936F937F933A
:1036C0008F939F93AF93BF93EF93FF93CF93DF932A
:1036D000CDB7DEB76C97DEBFCDBF1092E900809109
:1036E000E80083FFF4C168E0CE0145960E942E15E4
:1036F00082EF8093E8008D8987FF05C09091E800F4
:1037000090FFFCCF03C09EEF9093E800982F907637
:1037100009F0C6C09E892F89188D91110CC0803880
:1037200029F4809164058093F10002C01092F100A9
:103730001092F10041C1422F50E0512B913051F4D1
:1037400081113AC14130510509F036C180916405BB
:103750008D7F0BC0933061F481112EC14130510532
:1037600009F02AC18091640582608093640524C1B8
:10377000953041F48091E80080FFFCCF20682093D1
:10378000E3001AC1963009F05FC0EB8CFC8C1092FC
:10379000E90010926C0610926B06123091F51092AF
:1037A0006A06109269060E941D1B99E0BE016F5FB8
:1037B0007F4FDB01E92F1D92EA95E9F799831A8380
:1037C00091E09E8390EA98879AEF998720916B0603
:1037D00030916C06275F3F4F3C832B838D83109283
:1037E000E90010926C0610926B06F0926A06E09265
:1037F000690649E050E080E00E94F61A0E941D1B15
:10380000DBC0F0926A06E09269060E947715DC013F
:103810001296ED90FC901397E114F10409F4BAC0EC
:10382000D701ED91FC910480F581E02DBE016B5E26
:103830007F4FC7010995009719F00CF0BDC0C0C0BB
:10384000F701E084F184E8CF973009F4B9C09830EB
:1038500021F481E08093F100AFC0993009F0ACC051
:10386000837009F0ADC0E7E0F1E081E021E036E3EC
:103870009081992361F08093E9002093EB0091916E
:103880009093EC003093ED008F5F873089F78EE7DF
:103890008093EA001092EA008F89809370068CC0B2
:1038A0008B8D9C8D1092E90010926C0610926B0625
:1038B00090936A0680936906898D811150C08E8924
:1038C0009D89913A59F4813209F07AC047E050E07D
:1038D00061E171E080E00E94F61A6EC0913209F059
:1038E0006FC0833289F4888D90E0982F88272F89C4
:1038F000822BA0E0B0E080930D0190930E01A09385
:103900000F01B093100158C0803239F467E070E0C5
:1039100081E191E00E94C31A06C0823209F04CC0D6
:103920008F898093180180916205882319F0EEEF4A
:10393000FAE002C0E0E0F8E08091110190911201FC
:10394000A0911301B0911401803B9440A105B105F1
:1039500009F088C08091180180FFA0C083C00E9438
:103960007715DC0112960D911C9113970115110525
:1039700039F1D801ED91FC910190F081E02DBE016B
:103980006B5E7F4FC8010995811116C0F801008553
:103990001185ECCF1130C1F0133091F48F89882359
:1039A00009F455C08230E9F440E860E186E092E035
:1039B0000E945119882321F08EEF8093E80087C080
:1039C00081E28093EB0083C08B8D9C8D089711F46E
:1039D00010936E0680916E06811136C067E172E029
:1039E00038C0813029F440E86BE08AEF91E0E0CF05
:1039F000833031F70E947715DC011296ED90FC9030
:103A000013978E010F5F1F4F6801E114F10479F0E5
:103A1000D701ED91FC910680F781E02DB801C70137
:103A20000995080F111DF701E084F184EECFD8014C
:103A30001C92F60101900020E9F73197BF016C1943
:103A40007D0940E0C601B4CF69E272E002C066EFD2
:103A500071E06115710509F4B3CFFB01449150E0A9
:103A600080E839CF0FB6F894A895809160008861FE
:103A700080936000109260000FBEA895EE3F2AE090
:103A8000F20739F08091FE0A9091FF0A91838083BA
:103A900093CF1092FF0A1092FE0A8ECFEE3F8AE07B
:103AA000F80731F0808191819093FF0A8093FE0A9C
:103AB00087E797E7918380839BE088E10FB6F894CE
:103AC000A895809360000FBE9093600075CF6C96B0
:103AD0000FB6F894DEBF0FBECDBFDF91CF91FF913F
:103AE000EF91BF91AF919F918F917F916F915F9176
:103AF0004F913F912F911F910F91FF90EF90DF9089
:103B0000CF900F900FBE0F901F901895BC0100979B
:103B100091F0FC0101900020E9F73197AF01481BBB
:103B2000590BE091BD06F091BE060280F381E02DB5
:103B30008DEB96E0099480E090E008958F929F923B
:103B4000AF92BF920F931F93CF93DF93CDB7DEB7A2
:103B5000A1970FB6F894DEBF0FBECDBF19A24230B9
:103B600008F44AE08E010F5D1F4F842E912CA12C8A
:103B7000B12CA50194010E94B326E62FB901CA0118
:103B800001501109EA3014F4E05D01C0E95CD8018C
:103B9000EC93232B242B252B61F7C8010E94861D53
:103BA000A1960FB6F894DEBF0FBECDBFDF91CF91C7
:103BB0001F910F91BF90AF909F908F900895CF92DB
:103BC000DF92EF92FF92CF93DF936B017C01E09144
:103BD000BD06F091BE060190F081E02D6DE28DEB07
:103BE00096E00995EC0166277727CB016C197D09D2
:103BF0008E099F094AE00E949E1D8C0F9D1FDF9138
:103C0000CF91FF90EF90DF90CF900895CF93DF9307
:103C100000D0CDB7DEB719821A820E948F2022E031
:103C200030E0AE014F5F5F4F65E00E943E200F9095
:103C30000F90DF91CF9108958091BC06813019F4E7
:103C400087E397E002C083E297E00C94DE11682FCF
:103C50008091BC06813019F487E397E002C083E2CB
:103C600097E00C942A0E682F8091BC06813019F4DD
:103C700087E397E002C083E297E00C940E0E0C9469
:103C8000861DCF93DF93FC0124813581232B61F0C6
:103C9000C081D18168E270E0CE010E94E0280097E7
:103CA00019F08C1B9D0B02C08FEF9FEFDF91CF911E
:103CB0000895682F70E080E090E04AE00C949E1D2B
:103CC000CF93DF93682F70E080E090E04AE00E949D
:103CD0009E1DEC0181EF94E00E94861D8C0F9D1FBC
:103CE000DF91CF910895CF93DF930E94861DEC0161
:103CF00081EF94E00E94861D8C0F9D1FDF91CF9174
:103D000008952091BB069091BA06213208F04AC06E
:103D1000809197068111FCCF32E03093970631E015
:103D2000309396063FEF30939506109294062093B9
:103D30009306AAE9B6E043E756E0FA013E2F341BAA
:103D4000321718F43D913193F9CF109272062091F9
:103D50007206990F922B9093720690917106913092
:103D600061F410927106909172069093BB0090914D
:103D7000BC0093FDF8CF95EC01C095EE9093BC008C
:103D8000909197069230E1F3909195069F3F79F0DC
:103D900080919506803241F080919506803331F014
:103DA00084E005C081E003C082E001C083E010929E
:103DB00099061092BB06109298060895682F8DE020
:103DC00097E00C940913BC01990F880B990B97FD90
:103DD0000C94DF1D4AE00C949E1DCF93DF93BC0131
:103DE000990F880B990B97FF03C00E94DF1D03C03A
:103DF0004AE00E949E1DEC0181EF94E00E94861D26
:103E00008C0F9D1FDF91CF910895FC01809170066A
:103E1000811103C08FEF9FEF08959FB7F89482E060
:103E20008093E9002091F20030E01216130614F49A
:103E300021E030E02115310559F0289884E680937F
:103E40006F068091F10080838091F200882319F041
:103E50009FBFC90108958BE68093E800F9CFCF9307
:103E6000DF9300D000D0CDB7DEB7EAE4F7E092816F
:103E700099838A836B834C830190F081E02D0190BC
:103E8000F081E02D44E050E0BE016F5F7F4F8AE497
:103E900097E009950F900F900F900F90DF91CF91C1
:103EA000089590914C07892B891739F080934C071E
:103EB00040E060E080E00C942F1F089590914C0743
:103EC00080958923891739F080934C0740E060E0A2
:103ED00080E00C942F1F0895DC01FB0112968C9159
:103EE000129790E02481358182179307D1F4918154
:103EF0008081813A31F481E0913091F0933089F4FE
:103F000011C0813271F49B3021F482811F968C9311
:103F100005C09A3031F4828150968C9381E00895E7
:103F2000089580E00895DC01FB0188E4808389E442
:103F3000818384E482831D969C911D979F709F5B73
:103F400093831D968D919C911E9724E0969587955D
:103F50002A95E1F78F708F5B848385E00895FC01DB
:103F600082818F5BFB01808381E00895EF92FF9255
:103F70000F931F93CF93DF93FB012081213851F5DD
:103F80002381223239F5DC0112962C9130E04481F4
:103F9000558142175307F1F4EC010B851C85E12C88
:103FA000F12C0115110591F0F801448155816281D0
:103FB000738180E80E94F61A8F3FFFEF9F0769F038
:103FC000E80EF91ED8010D911C91EBCF81E08F878F
:103FD000C70105C080E090E002C08FEF9FEFDF9146
:103FE000CF911F910F91FF90EF900895CF93DF93A2
:103FF000CDB7DEB769970FB6F894DEBF0FBECDBF61
:10400000FC01DB018C918F5F8C93BE016F5F7F4F52
:1040100089E1DB011D928A95E9F729E0298384E093
:104020008A8391E09D8383E08E832A8721E22B8718
:104030009C879D879F8722E2288B27E02B8B25E09A
:104040002C8B8E8B20E430E0388F2F8B998F8281E0
:104050008B8395858685998B8A8B838180688D8BF0
:1040600049E150E080E00E94F61A69960FB6F89494
:10407000DEBF0FBECDBFDF91CF910895AF92BF924B
:10408000CF92DF92EF92FF920F931F93CF93DF9324
:104090001F92CDB7DEB77C0169836A01590141E007
:1040A00050E0BE016F5F7F4FFC0183810E946E165E
:1040B0008C0197FD0BC0F7018381A501B6018064D7
:1040C0000E946E1697FD02C0800F911F0F90DF9126
:1040D000CF911F910F91FF90EF90DF90CF90BF9005
:1040E000AF900895FC01A385B485109719F47487E7
:1040F000638709C08D919C911197009711F0DC01A5
:10410000F9CF6D937C9325853685DB0114968D91CF
:104110009C911597820F931F9687858708958091AC
:104120008F07811137C081E08093820780938307D6
:1041300028E837E03093850720938407109287079B
:104140001092860723E931E030937F0720937E07A2
:1041500010928A071092890710928C0710928B0791
:1041600080938D0780938E0781EC809388070E944F
:104170007715FC0141812091820730E0240F311D29
:104180002830310524F46EE777E00E943B1581E08A
:1041900080938F078EE797E008950F931F93CF9337
:1041A000DF931F92CDB7DEB78C0169830E9445294A
:1041B0006981681741F0C8010F90DF91CF911F917D
:1041C0000F910C944D290F90DF91CF911F910F917A
:1041D00008950C944529EF92FF920F931F93CF936C
:1041E000DF93C82F880FDD0BCE018D549A4F7C01D1
:1041F000DC011C911150C431D10594F4133080F4CA
:10420000CE0123E0880F991F2A95E1F7810F911DB8
:10421000810F911D835B9C4F0E94E920082F01C0F4
:1042200000E0612FCE010E94750D602F0E945D0E8F
:10423000FE01E557FA4F8081811105C0D7011C921C
:10424000C156DA4F18821082DF91CF911F910F91E2
:10425000FF90EF900895BC01625F7F4FFC01838166
:1042600048E050E080640C946E160A970C942B2161
:10427000CF93DF93CDB7DEB7A2970FB6F894DEBF2A
:104280000FBECDBF789484B5826084BD84B5816053
:1042900084BD85B5826085BD85B5816085BD809111
:1042A0006E00816080936E00109281008091810089
:1042B0008260809381008091810081608093810081
:1042C0008091800081608093800080919100826065
:1042D0008093910080919100816080939100809102
:1042E00090008160809390008091C10084608093F1
:1042F000C1008091C10082608093C1008091C100A3
:1043000081608093C1008091C30081608093C3006D
:104310008091C00082608093C0008091C200816063
:104320008093C20080917A00846080937A008091AB
:104330007A00826080937A0080917A008160809315
:104340007A0080917A00806880937A0010927006DB
:1043500010926405109263058091D700816080936C
:10436000D70080EA8093D80089B5806189BD89B57E
:10437000826089BD09B400FEFDCF61E070E080E09D
:1043800090E00E9434168091D8008F7C80618093E9
:10439000D8008091E000807F8093E0008091E10070
:1043A0008E7E8093E1008DE08093E200559A209A02
:1043B000EEEFFFE7859194918B3F9C4D19F481E0DE
:1043C000809362050E941C1E8FEF9FEF9093CA0698
:1043D0008093C9068EEF93E00E94E920182F809108
:1043E000BC06813019F487E397E002C083E297E0CE
:1043F0000E94340F1093BC060E941C1E10926A0586
:1044000010926905109299061092BB0610929706B9
:1044100081E0809396061092710661E082E00E942E
:10442000C81561E083E00E94C8158091B9008E7FB5
:104430008093B9008091B9008D7F8093B90088E4A2
:104440008093B80085E48093BC004BE855E08FE989
:1044500095E0E3EBF5E01192DC011D92CD01DA016C
:104460001D92AD01B5E0E73CFB07A9F70FE111E0B4
:10447000F801F0800E5F1F4F60E08F2D0E94F8154D
:1044800061E08F2D0E94C815F1E007321F0781F708
:1044900007E211E0D801FC900E5F1F4F60E08F2D06
:1044A0000E94F81560E08F2D0E94C815B1E003331B
:1044B0001B0781F720E030E080E090E0AC01420F84
:1044C000531FFA01E953FA4F11821082FA01E85C96
:1044D000F94F1182108208968033910579F72E5F8B
:1044E0003F4F2830310541F76CE271E080E090E009
:1044F0000E9434162FB7F894809165059091660557
:10450000A0916705B09168052FBF8093FF05909338
:104510000006A0930106B09302064091FB0550915E
:10452000FC056091FD057091FE058C019D01041B49
:10453000150B260B370B053011052105310560F0F1
:104540008093FB059093FC05A093FD05B093FE05B9
:1045500081E08093680602C0109268068DEB96E0B9
:104560000E943C12181619060CF04AC08DEB96E01A
:104570000E940214803219F189831A820091510736
:10458000109152070F5F1F4FB8018DE497E00E9412
:10459000CB19882341F120914D0730914E0780912E
:1045A000510790915207BE016F5F7F4F820F931F9B
:1045B0000E94F428109352070093510714C06DE431
:1045C00077E0CE0101960E94221ACE0101960E9448
:1045D000A001CE0101960E941D1A63EF74E08DE4E4
:1045E00097E00E94A4188091510790915207853658
:1045F000910530F063EF74E08DE497E00E94A41819
:1046000080916806882309F4DEC00091F9051091B5
:10461000FA058FEF93E00E94E92090E08017910760
:104620000CF4B7C22091F7053091F8058217930773
:104630000CF4AFC2E7EC4E2EE5E05E2E8201F7E20D
:10464000EF2EF1E0FF2ED7019C90B2E0EB0EF11CB3
:1046500061E0892D0E94F8157FE1C72E71E0D72E09
:10466000A12CB12CF601219131916F013327F90171
:10467000EB56FE4F8491F901EA58FE4F8490F90100
:10468000E95AFE4F74907720A1F081110E948B159A
:10469000E72DF0E0EE0FFF1FE75BFE4FA591B49111
:1046A000EC918E2231E020E009F430E0832F922F4C
:1046B00002C080E090E0F801EA0DFB1D21E08227B6
:1046C0009183808332E0A30EB11C88E0A816B10468
:1046D00009F0C8CF60E0892D0E94F815085F1F4FD0
:1046E00095E0073F190709F0AECF48E3A42E46E056
:1046F000B42E58E0852E56E0952E00E010E0C12C37
:10470000D12CE12CF12C95012C0D3D1D39A328A3B2
:1047100012012C0C3D1CD1018D919C91F90120813D
:1047200031812817390771F1F401EC0DFD1D019756
:10473000B9F46090F7057090F80571826082A3016A
:10474000B801C7010E94D90D282FA301B801C701E4
:104750002AA30E94EE0D2AA1622F0E944F0F12C0C1
:1047600060807180A301B801C7010E94D90D282F74
:10477000A301B801C7012AA30E94EE0D2AA1622F4E
:104780000E945D0ED1018D919C91E8A1F9A19183C8
:104790008083FFEFEF1AFF0A28E0C20ED11C30E33E
:1047A000C316D10409F0AFCF0F5F1F4F82E0480E50
:1047B000511C92E0A90EB11CA2E08A0E911C04309B
:1047C000110509F09CCF009100011091010161E0F9
:1047D00085E00E94F8150115110511F460E004C090
:1047E0000F3F110529F461E085E00E94C8157CC0E7
:1047F000EAE9F1E0E4918E2F90E0FC013197EF308F
:10480000F10508F06CC0EB59FF4F0C94D52684B528
:10481000806884BD07BD68C084B5806284BD08BD62
:1048200063C080918000806880938000109389002D
:104830000093880059C0809180008062809380003E
:1048400010938B0000938A004FC080918000886095
:104850008093800010938D0000938C0045C0809160
:1048600090008068809390001093990000939800C6
:104870003BC08091900080628093900010939B00D9
:1048800000939A0031C080919000886080939000DE
:1048900010939D0000939C0027C08091C000806809
:1048A0008093C0008091C0008F7B8093C0000093F4
:1048B000CF001AC08091C00080628093C000009336
:1048C000D00012C08091C20088608093C2008091A5
:1048D000C2008B7F8093C2000093D20005C00038D5
:1048E00011050CF080CF7ACF80916806882309F4F7
:1048F000C4C00091F9051091FA05809105069091C8
:10490000060608171907C9F081E08093980688E029
:104910008093BA06109299061092BB0685E090E04B
:104920000E94DE1E602F8DE097E00E9409130E9416
:10493000811E10930606009305060091F70510915D
:10494000F805809103069091040608171907C9F02D
:1049500081E08093980688E08093BA0610929906C9
:104960001092BB0681E090E00E94DE1E602F8DE079
:1049700097E00E9409130E94811E10930406009381
:104980000306809197068111FCCF81E08093970602
:10499000809396069FEF90939506109294069EE161
:1049A0009093930680937206809172068061809343
:1049B000720680917106813061F4109271068091C7
:1049C00072068093BB008091BC0083FDF8CF85EC1C
:1049D00001C085EE8093BC00809197068130E1F3A1
:1049E000809194068F3118F41091940601C01FE154
:1049F000A3E7B6E02BE635E0F9018E2F821B811785
:104A000018F48D918193F9CF10926A05109369057E
:104A100080E000E090916A05191771F08DE097E051
:104A20000E94BD12E1E0F0E0EC0FFD1FE00FF11D70
:104A300080830F5F81E0EECF8823F9F0E9808E015B
:104A40000C5F1F4FCC24C394D12CF12CCE14DF0467
:104A5000A4F4F8013297808131966081F801908149
:104A6000923018F00E944F0F02C00E945D0EF3E0DA
:104A7000CF0ED11C0D5F1F4FE9CF809168068111C9
:104A800005C08091680681114FC07BC080910201F2
:104A90008823B9F38FE9C82E85E0D82E93EB892EB1
:104AA00095E0992E2CE4A22E23E0B22EE12CF12CDD
:104AB000D4011D914D01112349F1F6018081882314
:104AC00019F08150808322C01150133050F4C50179
:104AD000810F911D810F911D01960E94E920082FE1
:104AE00001C000E0612FC7010E94750D602F0E9478
:104AF0004F0FF701E557FA4F8081811107C0809170
:104B00000201882319F08E2D0E94EB20FFEFEF1A8F
:104B1000FF0A0FEFC01AD00A18E0A10EB11C24E161
:104B2000E216F10429F6ADCF809105018038A1F499
:104B300080910401803881F480910301803861F410
:104B4000809107068823E9F01092070610924C071F
:104B500040E060E080E013C010924C0740E060E06D
:104B600080E00E942F1F81E080930706409103019F
:104B700040586091040160588091050180580E945E
:104B80002F1F80E090E0892B09F4B4CC0E94000034
:104B9000B1CC1092FA051092F9051092F805109216
:104BA000F70548CD1092C0061092BF0688EE93E03C
:104BB000A0E0B0E08093C1069093C206A093C30624
:104BC000B093C40627E331E03093BE062093BD06C0
:104BD0002FEF3FEF3093CA062093C90610921007BB
:104BE00010920F078093110790931207A093130759
:104BF000B093140787E491E090930E0780930D071C
:104C000081E080931D0780931E072FE237E03093E9
:104C1000200720931F07109222071092210710925D
:104C200026071092250727E531E030931A072093D5
:104C3000190725E631E0309324072093230780935A
:104C40003007809331071092320710923407109288
:104C50003307109236071092350781EC80932F07A7
:104C60000E947715FC01418120911D0730E0240F3F
:104C7000311D2830310524F469E177E00E943B15AD
:104C800010923A07109239078FE791E09093380716
:104C90008093370780915A07811113C010925507EE
:104CA000109254078BE392E0909357078093560736
:104CB00086E390E0909359078093580781E08093B2
:104CC0005A070E948F2064E577E00E9472201092BC
:104CD0004C078DE891E090934B0780934A078091B1
:104CE0006807811113C0109263071092620781E771
:104CF00092E090936507809364078BE290E0909335
:104D000067078093660781E0809368070E948F2081
:104D100062E677E00E94722063EF74E08DE497E032
:104D20000E943C1A80917607811113C0109271077E
:104D3000109270078CE992E090937307809372074A
:104D40008BE490E0909375078093740781E08093E3
:104D500076070E948F2060E777E00C9472208DE444
:104D600097E00C941D1AA1E21A2EAA1BBB1BFD0191
:104D70000DC0AA1FBB1FEE1FFF1FA217B307E4073A
:104D8000F50720F0A21BB30BE40BF50B661F771F92
:104D9000881F991F1A9469F7609570958095909572
:104DA0009B01AC01BD01CF010895EE0FFF1F0590DF
:104DB000F491E02D0994CF93DF938230910510F4A4
:104DC00082E090E0E0919907F0919A0720E030E0CE
:104DD000C0E0D0E0309711F1408151814817590768
:104DE000C0F04817590761F482819381209719F028
:104DF0009B838A832BC090939A078093990726C040
:104E00002115310519F04217530718F49A01BE0114
:104E1000DF01EF010280F381E02DDCCF21153105A8
:104E200009F1281B390B2430310590F412968D912D
:104E30009C9113976115710521F0FB019383828387
:104E400004C090939A0780939907FD01329644C05D
:104E5000FD01E20FF31F81939193225031092D93AD
:104E60003C933AC02091970730919807232B41F447
:104E700020911B0130911C013093980720939707D4
:104E80002091190130911A012115310541F42DB7F6
:104E90003EB740911D0150911E01241B350BE0913E
:104EA0009707F0919807E217F307A0F42E1B3F0B2A
:104EB0002817390778F0AC014E5F5F4F241735078C
:104EC00048F04E0F5F1F50939807409397078193C8
:104ED000919302C0E0E0F0E0CF01DF91CF9108951F
:104EE0000F931F93CF93DF93009709F48CC0FC01BD
:104EF0003297138212820091990710919A07011537
:104F0000110581F420813181820F931F2091970731
:104F1000309198072817390779F5F0939807E093AF
:104F2000970771C0D80140E050E0AE17BF0750F4BA
:104F300012962D913C911397AD012115310509F180
:104F4000D901F3CF9D01DA0133832283608171811E
:104F5000860F971F8217930769F4EC012881398126
:104F6000260F371F2E5F3F4F318320838A819B811D
:104F700093838283452B29F4F0939A07E093990752
:104F800042C01396FC93EE931297ED01499159910B
:104F90009E01240F351FE217F30771F48081918180
:104FA000840F951F029611969C938E938281938114
:104FB00013969C938E931297E0E0F0E0D80112963E
:104FC0008D919C911397009719F0F8018C01F6CF01
:104FD0008D919C9198012E5F3F4F820F931F2091DE
:104FE0009707309198072817390769F4309729F403
:104FF00010929A071092990702C01382128210939E
:10500000980700939707DF91CF911F910F91089513
:10501000A0E0B0E0EEE0F8E20C945F29EC0100972C
:1050200021F4CB010E94DB26B8C0FC01E60FF71F7C
:105030009C0122503109E217F30708F4ACC0D901F2
:105040000D911C91119706171707B0F00530110547
:1050500008F49FC0C80104978617970708F499C001
:1050600002501109061B170B019311936D937C934A
:10507000CF010E9470278DC05B01A01AB10A4C01BC
:10508000800E911EA0919907B0919A0740E050E0E0
:10509000E12CF12C109709F44AC0A815B905D1F5F7
:1050A0006D907C901197630182E0C80ED11CCA14E8
:1050B000DB0480F1A3014A195B096A0182E0C80E92
:1050C000D11C1296BC9012971396AC91B5E0CB16FA
:1050D000D10440F0B282A38351834083D9016D9300
:1050E0007C930AC00E5F1F4FC301800F911FF9010F
:1050F00091838083EB2DFA2FE114F10431F0D70175
:105100001396FC93EE93129744C0F0939A07E093A2
:1051100099073FC08D919C9111974817590708F442
:10512000AC017D0112960D90BC91A02DB3CF809162
:1051300097079091980788159905E1F44617570746
:10514000C8F48091190190911A01009741F48DB72C
:105150009EB740911D0150911E01841B950BE817CD
:10516000F907C8F4F0939807E0939707F901718362
:1051700060830FC0CB010E94DB267C01009759F0B1
:10518000A801BE010E94D728CE010E947027C70146
:1051900004C0CE0102C080E090E0CDB7DEB7EEE003
:1051A0000C947B2981E090E0F8940C949229FB0107
:1051B000DC0102C001900D9241505040D8F7089593
:1051C000FC018191861721F08823D9F7992708954A
:1051D0003197CF010895FB01DC018D910190801979
:1051E0000110D9F3990B0895FB01DC0101900D9298
:1051F0000020E1F70895FB01DC014150504030F000
:105200008D910190801919F40020B9F7881B990B32
:1052100008951F93FC0199278827BC01E8941191F8
:105220001032E9F3193010F01E30C8F31B3251F080
:105230001D3249F4689406C00E943029610F711D27
:10524000811D911D119110531A30B0F33EF49095C9
:105250008095709561957F4F8F4F9F4F1F91089557
:10526000592F482F372F262F660F771F881F991F1A
:10527000660F771F881F991F620F731F841F951F6A
:10528000660F771F881F991F0895F999FECF92BD69
:1052900081BDF89A992780B50895262FF999FECFF8
:1052A0001FBA92BD81BD20BD0FB6F894FA9AF99A43
:1052B0000FBE019608952F923F924F925F926F9288
:1052C0007F928F929F92AF92BF92CF92DF92EF9296
:1052D000FF920F931F93CF93DF93CDB7DEB7CA1B17
:1052E000DB0B0FB6F894DEBF0FBECDBF09942A8842
:1052F000398848885F846E847D848C849B84AA84EA
:10530000B984C884DF80EE80FD800C811B81AA8176
:10531000B981CE0FD11D0FB6F894DEBF0FBECDBF41
:10532000ED01089511E0C5E7D1E004C0FE010E943F
:0E533000D5262196C637D107C9F7F894FFCFCE
:10533E0032000180808000C18081000000FFFFFFED
:10534E00FF00E100000000000000009B0780000647
:10535E0000070008000900130012000F000E0010D5
:10536E00000A00000000001B1214173C120214DE8B
:10537E00133112000000000913D912D112BD12AE62
:10538E0012AD1200000000201498147A14AF1F2BD7
:10539E0021F6FF0000460EF0113813352147130099
:1053AE00000000A218A218A218AF1F0000000046AD
:1053BE000EF0118213E014981300000000EF140099
:1053CE000000006C1FF61FB61F931F756E69717576
:1053DE00656B726571696E666F0044455052454348
:1053EE00494154454400756E697175656B726571FE
:1053FE006E616D65004469766572676520544D2057
:10540E0032204D617374657200756E697175656BCE
:10541E0072657176617269616E7400756E6971750F
:10542E00656B72657164726976657200416E696D45
:10543E00757320496E6E6F766120322E352E3100D7
:10544E00756E697175656B7265716275696C6400F4
:10545E004F454D00756E697175656B7365746B653F
:10546E007900736574206B65792800756E697175A6
:10547E00656B736574656570726F6D00736574200E
:10548E00454550524F4D2800756E697175656B73A9
:10549E0065746C617900736574206C617965722036
:1054AE00636F756E7428006572726F723A20696E42
:1054BE0073756666696369656E7420454550524F13
:1054CE004D00756E697175656B6765746C617900F9
:1054DE00756E697175656B676574656570726F6DF4
:1054EE0000756E697175656B6765746B65790072B1
:1054FE00657475726E206B65792800756E697175AD
:10550E00656B676574726F7700756E697175656B23
:10551E00676574636F6C00756E697175656B736525
:10552E00746D617374657200736574206D6173744C
:10553E0065722800756E697175656B7365746E6B37
:10554E00726F00736574204E4B524F206D6F646501
:10555E0028006572726F723A20696E76616C6964AA
:10556E00204E4B524F206F7074696F6E00756E69CE
:10557E007175656B6765746E6B726F00756E6971B0
:10558E0075656B6765746D6F647300676574206D08
:10559E006F64732800426C656450574D00756E69D8
:1055AE007175656B7365746272696768746E657325
:1055BE007300736574206272696768746E657373C5
:1055CE00282900756E697175656B676574627269FD
:1055DE006768746E657373006765742062726967BD
:1055EE0068746E657373282900756E697175656BC5
:1055FE007365747375626B657900737562206B6584
:10560E0079207365743A20002C2000756E697175CF
:10561E00656B736574737562656570726F6D005737
:10562E00726F746520746F207375622045455052F9
:10563E004F4D3A2000756E697175656B73657473A5
:10564E0075626C617900456469746564206C61797A
:10565E00657220636F756E7420746F3A20004C6112
:10566E0079657220636F756E74206564697420614C
:10567E00626F727465642C20696E737566666963F9
:10568E0069656E7420454550524F4D00756E6971B7
:10569E0075656B73657473756262726967687400A1
:1056AE0053657420737562206272696768746E65E3
:1056BE00737300493243006D6564696100756E69EC
:1056CE007175656B7365746D6163726F007365746C
:1056DE00206D6163726F28006475616C526F6C652A
:1056EE00730074617044616E636500756E697175E7
:1056FE00656B73657474617064616E636500736568
:10570E00742074617064616E6365280073746963DC
:10571E006B794B657973006D6F7573654B65797336
:04572E00000D0A0060
:00000001FF
