:100000000C94AD010C94D5010C94D5010C94D50140
:100010000C94D5010C94D5010C94D5010C94D50108
:100020000C94D5010C94D5010C94AE120C94FF13D2
:100030000C94D5010C94D5010C94D5010C94D501E8
:100040000C94D5010C94D5010C94D5010C94D501D8
:100050000C94D5010C94D5010C94D5010C94D81BAB
:100060000C94D5010C94D5010C94D5010C94D501B8
:100070000C94D5010C94D5010C94D5010C94D501A8
:100080000C94D5010C94D5010C94D5010C94D50198
:100090000C94221C0C94D5010C94D5010C94D50120
:1000A0000C94D5010C94D5010C94D501411644163D
:1000B000331637163D1665166516651648164C1626
:1000C000501656165A16651660168E2393239823DB
:1000D000A223AC23F623F623F623B623C023CA2398
:1000E000D423E123F623E9230000000000000000F0
:1000F0002A2B280000000000000000000000000083
:1001000000000000000000002C9EB4A0A1A2A434B6
:10011000A6A7A5AE362D3738271E1F20212223245F
:100120002526B333B62EB7B89F8485868788898AFB
:100130008B8C8D8E8F909192939495969798999A97
:100140009B9C9D2F3130A3AD350405060708090A95
:100150000B0C0D0E0F101112131415161718191A77
:100160001B1C1DAFB1B0B50000000000240027002B
:100170002A002D00300000000000250028002B0080
:100180002E003100080B00020202010009040000E9
:1001900001020200000524001001052401010104F0
:1001A000240206052406000107058103100040090A
:1001B000040100020A0000000705020240000007D7
:1001C0000583024000000403090412010002EF024B
:1001D0000140412336800001010203014172647530
:1001E000696E6F204C4C430041726475696E6F20DC
:1001F0004C656F6E6172646F000000000023002682
:100200000029002C002F0004040404040304050248
:1002100002020204030202020206060606060604A1
:10022000040202020404040802011040804010206D
:1002300040804080080204018040201002011080AC
:1002400010204040200000000200090F00000304BD
:1002500001000C0000000000000000000000000091
:100260000000000005010906A101050719E029E7C2
:1002700015002501750195088102050C9501750889
:10028000150026FF00190029FF8100050819012922
:100290000895087501910205079506750815002651
:1002A000E700190029E78100C005010906A10185C1
:1002B00008050719E029E715002501750195088152
:1002C00002190029671500250175019568810295BD
:1002D000017508150026E700190029E78100C0050F
:1002E000010902A101850105091901290815002547
:1002F0000195087501810205010930093109381598
:1003000081257F750895038106C0050C0901A101AF
:1003100085051500250109E909EA7501950281069F
:1003200009E29501810609B09501810609B195019F
:10033000810609B79501810609B59501810609B6BF
:100340009501810609B39501810609B495018106DD
:1003500095068107C0008324602511241FBECFEFBE
:10036000DAE0DEBFCDBF26E0A8E3B4E001C01D9215
:10037000A83DB207E1F714E0A0E0B1E0E0EAF0E563
:1003800002C005900D92A833B107D9F711E0CCEA6D
:10039000D1E004C02197FE010E940F26CB3AD1077D
:1003A000C9F70E940A200C9443280C9400003F9245
:1003B0004F925F926F927F928F929F92AF92BF9275
:1003C000CF92DF92EF92FF920F931F93CF93DF9321
:1003D000CDB7DEB763970FB6F894DEBF0FBECDBFC3
:1003E0008C0160EA71E00E944B18882321F08FEAAB
:1003F00091E00E94201F6BEB71E0C8010E944B1836
:10040000882321F08AEC91E00E94201F6AED71E0C0
:10041000C8010E944B18882321F08AEC91E00E94C9
:10042000201F6CEE71E0C8010E944B18882321F058
:100430008DEF91E00E94201F60E172E0C8010E94F0
:100440004B18882319F080E292E0A4C164E272E0C4
:10045000CE0101960E949912BE016F5F7F4FC801C5
:100460000E943018F82ECE0101960E947A12FF20C9
:1004700009F4F5C0C8010E94EE1EAC014F5F5F4F4A
:10048000B801CE0101960E94F00CBE016F5F7F4F54
:10049000C8010E946A18CE0101960E947A12C80112
:1004A0000E94EE1E9C0140E050E0B801CE01019692
:1004B0000E94EA17CE0101960E94DF17962ECE0108
:1004C00001960E947A12C8010E94EE1EAC014F5F95
:1004D0005F4FB801CE0101960E94F00CBE016F5F24
:1004E0007F4FC8010E946A18CE0101960E947A12BD
:1004F000C8010E94EE1E9C0140E050E0B801CE0110
:1005000001960E94EA17CE0101960E94DF17A62EDF
:10051000CE0101960E947A12C8010E94EE1EAC0123
:100520004F5F5F4FB801CE0101960E94F00CBE01F3
:100530006F5F7F4FC8010E946A18CE0101960E942A
:100540007A12C8010E94EE1E9C0140E050E0B80102
:10055000CE0101960E94EA17CE0101960E94DF1794
:10056000B62ECE0101960E947A12C8010E94EE1E9C
:10057000AC014F5F5F4FB801CE0101960E94F00CB5
:10058000BE016F5F7F4FC8010E946A18CE010196BD
:100590000E947A12C8010E94EE1E9C0140E050E0C9
:1005A000B801CE0101960E94EA17CE0101960E9481
:1005B000DF17C62ECE0101960E947A12C8010E9452
:1005C000EE1EAC014F5F5F4FB801CE0101960E9455
:1005D000F00CBE016F5F7F4FC8010E946A18CE0108
:1005E00001960E947A12C8010E94DF17D62E88E079
:1005F000A89E70011124E90CF11C88E2B89EE00C61
:10060000F11C1124EE0CFF1C6C2DC7010E943E1E34
:100610006D2DC70101960E943E1E82E392E00E946A
:10062000EC1E892D0E94061F86E592E00E94EC1EBA
:100630008A2D0E94061F86E592E00E94EC1E8B2DFB
:100640000E94061F86E592E00E94EC1E8C2D0E94FF
:10065000061F86E592E00E94EC1E8D2D9CC16BE387
:1006600072E0CE0101960E949912BE016F5F7F4F2A
:10067000C8010E943018F82ECE0101960E947A120D
:10068000FF2009F44EC0C8010E94EE1EAC014F5F6E
:100690005F4FB801CE0101960E94F00CBE016F5F62
:1006A0007F4FC8010E946A18CE0101960E947A12FB
:1006B000C8010E94EE1E9C0140E050E0B801CE014E
:1006C00001960E94EA17CE0101960E94DF174B01A6
:1006D0005C01CE0101960E947A12C8010E94EE1EB2
:1006E000AC014F5F5F4FB801CE0101960E94F00C44
:1006F000BE016F5F7F4FC8010E946A18CE0101964C
:100700000E947A12C8010E94DF17F62EC4010E94CF
:100710003E1E8CE492E00E94EC1EC4010E942E1F3B
:100720000BC168E572E0CE0101960E949912BE01EC
:100730006F5F7F4FC8010E943018F82ECE010196DE
:100740000E947A12FF2049F1C8010E94EE1EAC01FE
:100750004F5F5F4FB801CE0101960E94F00CBE01C1
:100760006F5F7F4FC8010E946A18CE0101960E94F8
:100770007A12C8010E94DF17F62E8FE08F1540F025
:100780006F2D8FEF93E00E943E1E86E692E0D6C06A
:1007900087E792E00E94201F3DC162E972E0C80134
:1007A0000E944B18882319F08FEF93E02DC060EA68
:1007B00072E0CE0101960E949912BE016F5F7F4FD9
:1007C000C8010E943018F82ECE0101960E947A12BC
:1007D000FF20E9F0C8010E94EE1EAC014F5F5F4FA1
:1007E000B801CE0101960E94F00CBE016F5F7F4FF1
:1007F000C8010E946A18CE0101960E947A12C801AF
:100800000E94DF17862F90E00E94CB1FC4C061EBCF
:1008100072E0CE0101960E949912BE016F5F7F4F78
:10082000C8010E943018F82ECE0101960E947A125B
:10083000FF2009F487C0C8010E94EE1EAC014F5F83
:100840005F4FB801CE0101960E94F00CBE016F5FB0
:100850007F4FC8010E946A18CE0101960E947A1249
:10086000C8010E94EE1E9C0140E050E0B801CE019C
:1008700001960E94EA17CE0101960E94DF17E62E2C
:10088000CE0101960E947A12C8010E94EE1EAC01B0
:100890004F5F5F4FB801CE0101960E94F00CBE0180
:1008A0006F5F7F4FC8010E946A18CE0101960E94B7
:1008B0007A12C8010E94EE1E9C0140E050E0B8018F
:1008C000CE0101960E94EA17CE0101960E94DF1721
:1008D000C62ECE0101960E947A12C8010E94EE1E19
:1008E000AC014F5F5F4FB801CE0101960E94F00C42
:1008F000BE016F5F7F4FC8010E946A18CE0101964A
:100900000E947A12C8010E94DF17A62EB12CD12CAA
:10091000F12CA501B601C7010E94000C982EA5017B
:10092000B601C7010E94EC0BF82E8FEB92E00E94FB
:10093000EC1E892D0E94061F86E592E00E94EC1EA7
:100940008F2D29C06BEC72E0CE0101960E949912A6
:10095000BE016F5F7F4FC8010E943018F82ECE0194
:1009600001960E947A12FF2011F085E014C069ED13
:1009700072E0CE0101960E949912BE016F5F7F4F17
:10098000C8010E943018F82ECE0101960E947A12FA
:10099000FF2021F088E00E940D1F3CC067EE72E04E
:1009A000CE0101960E949912BE016F5F7F4FC80170
:1009B0000E943018F82ECE0101960E947A12FF2074
:1009C00049F1C8010E94EE1EAC014F5F5F4FB801B4
:1009D000CE0101960E94F00CBE016F5F7F4FC801EF
:1009E0000E946A18CE0101960E947A12C8010E94E4
:1009F000DF17611103C01092150103C081E08093DD
:100A0000150188EF92E00E94EC1E8091150190E0A4
:100A10000E942E1FB801CE0107960E947F1264E04B
:100A200073E0CE0101960E949912BE016F5F7F4F65
:100A3000CE0107960E943018F82ECE0101960E9432
:100A40007A12FF2009F440C0CE0107960E94EE1EE4
:100A5000AC014F5F5F4FBE01695F7F4FCE010196D2
:100A60000E94F00CBE016F5F7F4FCE0107960E947F
:100A70006A18CE0101960E947A12CE0107960E9452
:100A8000DF17F62E82E08F15D0F06F2D8EEF93E0FA
:100A90000E943E1E80911206813019F48DE896E086
:100AA00002C089E796E00E94410EF09212060E9471
:100AB000C91E83E193E00E94EC1E8F2D11C082E2DB
:100AC00093E00E94201F0EC06DE373E0CE010796F5
:100AD0000E944B18882331F08EEF93E00E94CB1FC9
:100AE0000E940D1FCE0107960E947A12B801CE0116
:100AF0000D960E947F126CE473E0CE010D960E9469
:100B00004B18882321F08BE593E00E94EC1EBE0178
:100B1000635F7F4FCE0107960E947F126CE473E003
:100B2000CE0101960E949912BE016F5F7F4FCE01E8
:100B300007960E943018182FCE0101960E947A1253
:100B4000112329F085E693E00E94EC1E66C06DE655
:100B500073E0CE0101960E949912BE016F5F7F4F34
:100B6000CE0107960E943018182FCE0101960E94E0
:100B70007A121123B1F1CE0107960E94EE1EAC014C
:100B80004F5F5F4FBE01695F7F4FCE0101960E94AC
:100B9000F00CBE016F5F7F4FCE0107960E946A186E
:100BA000CE0101960E947A12CE0107960E94EE1E97
:100BB0009C0140E050E0BE01695F7F4FCE0101968D
:100BC0000E94EA17CE0101960E94DF17CE0101961E
:100BD0006B8B0E947A126B896093140182E893E018
:100BE00016C063E973E0CE0101960E949912BE011E
:100BF0006F5F7F4FCE0107960E943018182FCE01ED
:100C000001960E947A12112341F088EA93E00E9433
:100C1000EC1E809114010E940D1FCE0107960E94C8
:100C20007A12BE01635F7F4FCE0107960E947F124A
:100C30006CE473E0CE0101960E949912BE016F5FD1
:100C40007F4FCE0107960E943018182FCE010196D3
:100C50000E947A12112321F089EB93E00E94EC1E8E
:100C6000CE0107960E947A12BE01635F7F4FCE01CC
:100C700007960E947F126CE473E0CE0101960E94F9
:100C80009912BE016F5F7F4FCE0107960E94301808
:100C9000182FCE0101960E947A12112321F082ECC6
:100CA00093E00E94EC1ECE0107960E947A12BE01CC
:100CB000635F7F4FCE0107960E947F126CE473E062
:100CC000CE0101960E949912BE016F5F7F4FCE0147
:100CD00007960E943018182FCE0101960E947A12B2
:100CE000112321F08CEC93E00E94EC1ECE010796BC
:100CF0000E947A12BE01635F7F4FCE0107960E9469
:100D00007F126CE473E0CE0101960E949912BE013D
:100D10006F5F7F4FCE0107960E943018182FCE01CB
:100D200001960E947A12112329F08CED93E00E9423
:100D3000EC1E85C162ED73E0CE0101960E9499120E
:100D4000BE016F5F7F4FCE0107960E943018182FAB
:100D5000CE0101960E947A12112309F470C1CE01CE
:100D600007960E94EE1EAC014F5F5F4FBE01695FA8
:100D70007F4FCE0101960E94F00CBE016F5F7F4F46
:100D8000CE0107960E946A18CE0101960E947A123F
:100D9000CE0107960E94EE1E9C0140E050E0BE018D
:100DA000695F7F4FCE0101960E94EA17CE0101963E
:100DB0000E94DF17F62ECE0101960E947A12CE0114
:100DC00007960E94EE1EAC014F5F5F4FBE01695F48
:100DD0007F4FCE0101960E94F00CBE016F5F7F4FE6
:100DE000CE0107960E946A18CE0101960E947A12DF
:100DF000CE0107960E94EE1E9C0140E050E0BE012D
:100E0000695F7F4FCE0101960E94EA17CE010196DD
:100E10000E94DF17E62ECE0101960E947A1282E12F
:100E2000F89E800111248BE08F1548F088E08E1524
:100E300030F06E2DC801875A9D4F0E943E1E48011A
:100E400088EA881A8DEF980A580185EAA81A8DEF6A
:100E5000B80A065A1D4FC12CD12C412C512C3201FD
:100E60004394CE0107960E94EE1EAC014F5F5F4F88
:100E7000BE01695F7F4FCE0101960E94F00CBE015A
:100E80006F5F7F4FCE0107960E946A18CE010196D0
:100E90000E947A12CE0107960E94EE1E9C0140E04D
:100EA00050E0BE01695F7F4FCE0101960E94EA17B4
:100EB000CE0101960E94DF17CE0101966B8B0E9436
:100EC0007A126B898BE08F1518F0C8010E943E1EC4
:100ED000CE0107960E94EE1EAC014F5F5F4FBE0130
:100EE000695F7F4FCE0101960E94F00CBE016F5FDB
:100EF0007F4FCE0107960E946A18CE0101960E948C
:100F00007A12CE0107960E94EE1E9C0140E050E04E
:100F1000BE01695F7F4FCE0101960E94EA17CE01A4
:100F200001960E94DF17CE0101966B8B0E947A1208
:100F30006B898BE08F1518F0C5010E943E1ECE0113
:100F400007960E94EE1EAC014F5F5F4FBE01695FC6
:100F50007F4FCE0101960E94F00CBE016F5F7F4F64
:100F6000CE0107960E946A18CE0101960E947A125D
:100F7000CE0107960E94EE1E9C0140E050E0BE01AB
:100F8000695F7F4FCE0101960E94EA17CE0101965C
:100F90000E94DF17362ECE0101960E947A128BE056
:100FA0008F15C8F0C4010E94CB1F282FD301C201A6
:100FB0000C2C04C0880F991FAA1FBB1F0A94D2F7DC
:100FC000332019F0622F682B03C08095622F6823AD
:100FD000C4010E943E1E8FEFC81AD80A82E0A80EF4
:100FE000B11C0E5F1F4F88E0C816D10409F039CF3D
:100FF000CE0107960E94EE1EAC014F5F5F4FBE010F
:10100000695F7F4FCE0101960E94F00CBE016F5FB9
:101010007F4FCE0107960E946A18CE0101960E946A
:101020007A1282EE93E00E94EC1E8F2D0E94061F22
:1010300086E592E00E94EC1E8E2D0E940D1FCE01CF
:1010400007960E947A12BE01635F7F4FCE0107961A
:101050000E947F126CE473E0CE0101960E94991207
:10106000BE016F5F7F4FCE0107960E943018182F88
:10107000CE0101960E947A12112321F08DEE93E0A9
:101080000E94EC1ECE0107960E947A12BE01635F99
:101090007F4FCE0107960E947F126CE473E0CE0171
:1010A00001960E949912BE016F5F7F4FCE01079695
:1010B0000E943018182FCE0101960E947A12112337
:1010C00029F088EF93E00E94EC1E33C261E074E0E7
:1010D000CE0101960E949912BE016F5F7F4FCE0133
:1010E00007960E943018182FCE0101960E947A129E
:1010F000112309F41EC2CE0107960E94EE1EAC0118
:101100004F5F5F4FBE01695F7F4FCE0101960E9426
:10111000F00CBE016F5F7F4FCE0107960E946A18E8
:10112000CE0101960E947A12CE0107960E94EE1E11
:101130009C0140E050E0BE01695F7F4FCE01019607
:101140000E94EA17CE0101960E94DF17162FCE01EA
:1011500001960E947A12CE0107960E94EE1EAC0103
:101160004F5F5F4FBE01695F7F4FCE0101960E94C6
:10117000F00CBE016F5F7F4FCE0107960E946A1888
:10118000CE0101960E947A12CE0107960E94EE1EB1
:101190009C0140E050E0BE01695F7F4FCE010196A7
:1011A0000E94EA17CE0101960E94DF17562ECE014B
:1011B00001960E947A12CE0107960E94EE1EAC01A3
:1011C0004F5F5F4FBE01695F7F4FCE0101960E9466
:1011D000F00CBE016F5F7F4FCE0107960E946A1828
:1011E000CE0101960E947A12CE0107960E94EE1E51
:1011F0009C0140E050E0BE01695F7F4FCE01019647
:101200000E94EA17CE0101960E94DF17662ECE01DA
:1012100001960E947A12CE0107960E94EE1EAC0142
:101220004F5F5F4FBE01695F7F4FCE0101960E9405
:10123000F00CBE016F5F7F4FCE0107960E946A18C7
:10124000CE0101960E947A12CE0107960E94EE1EF0
:101250009C0140E050E0BE01695F7F4FCE010196E6
:101260000E94EA17CE0101960E94DF17762ECE016A
:1012700001960E947A12CE0107960E94EE1EAC01E2
:101280004F5F5F4FBE01695F7F4FCE0101960E94A5
:10129000F00CBE016F5F7F4FCE0107960E946A1867
:1012A000CE0101960E947A12CE0107960E94EE1E90
:1012B0009C0140E050E0BE01695F7F4FCE01019686
:1012C0000E94EA17CE0101960E94DF17862ECE01FA
:1012D00001960E947A12CE0107960E94EE1EAC0182
:1012E0004F5F5F4FBE01695F7F4FCE0101960E9445
:1012F000F00CBE016F5F7F4FCE0107960E946A1807
:10130000CE0101960E947A12CE0107960E94EE1E2F
:101310009C0140E050E0BE01695F7F4FCE01019625
:101320000E94EA17CE0101960E94DF17962ECE0189
:1013300001960E947A12CE0107960E94EE1EAC0121
:101340004F5F5F4FBE01695F7F4FCE0101960E94E4
:10135000F00CBE016F5F7F4FCE0107960E946A18A6
:10136000CE0101960E947A12CE0107960E94EE1ECF
:101370009C0140E050E0BE01695F7F4FCE010196C5
:101380000E94EA17CE0101960E94DF17A62ECE0119
:1013900001960E947A12CE0107960E94EE1EAC01C1
:1013A0004F5F5F4FBE01695F7F4FCE0101960E9484
:1013B000F00CBE016F5F7F4FCE0107960E946A1846
:1013C000CE0101960E947A12CE0107960E94EE1E6F
:1013D0009C0140E050E0BE01695F7F4FCE01019665
:1013E0000E94EA17CE0101960E94DF17B62ECE01A9
:1013F00001960E947A12CE0107960E94EE1EAC0161
:101400004F5F5F4FBE01695F7F4FCE0101960E9423
:10141000F00CBE016F5F7F4FCE0107960E946A18E5
:10142000CE0101960E947A12CE0107960E94DF1724
:10143000062F143180F588E0189F70011124670190
:1014400086EBC81A8CEFD80AC6010E94CB1F8C7F8E
:10145000682F650DC6010E943E1EC6010E94CB1F6B
:101460008370962D990F990F682F690FC6010E94FE
:101470003E1E672DC701845B9C4F0E943E1E692D56
:10148000C701825B9C4F0E943E1E6B2DC701805B93
:101490009C4F0E943E1E482D60E0812F0E94B60B9B
:1014A0004A2D61E0812F0E94B60B402F62E0812F10
:1014B0000E94B60B84E194E00E94EC1E812F0E94F2
:1014C000061F86E592E00E94EC1E852D0E94061FF5
:1014D00086E592E00E94EC1E862D0E94061F86E59E
:1014E00092E00E94EC1E872D0E94061F86E592E086
:1014F0000E94EC1E882D0E94061F86E592E00E9445
:10150000EC1E892D0E94061F86E592E00E94EC1ECB
:101510008A2D0E94061F86E592E00E94EC1E8B2D0C
:101520000E94061F86E592E00E94EC1E802F0E941A
:101530000D1FCE0107960E947A12BE01635F7F4F96
:10154000CE0107960E947F126CE473E0CE010196F3
:101550000E949912BE016F5F7F4FCE0107960E94D5
:101560003018182FCE0101960E947A12112321F013
:1015700082E294E00E94EC1ECE0107960E947A124D
:10158000BE01635F7F4FCE0107960E947F126CE41D
:1015900073E0CE0101960E949912BE016F5F7F4FEA
:1015A000CE0107960E943018182FCE0101960E9496
:1015B0007A12112321F08CE294E00E94EC1ECE01FD
:1015C00007960E947A126CE473E0CE010D960E9499
:1015D0004B18882321F084E394E00E94EC1ECE0196
:1015E0000D960E947A1263960FB6F894DEBF0FBE76
:1015F000CDBFDF91CF911F910F91FF90EF90DF90C2
:10160000CF90BF90AF909F908F907F906F905F90A2
:101610004F903F900895EF92FF920F931F93CF93B7
:10162000DF93E62FF0E0E038F10540F021E030E014
:10163000DC0113963C932E93129722C0D42F7C0189
:10164000E851FF4FC491DC01ED91FC916C2F6F7755
:101650000484F585E02D09958C01C7FF13C0892B03
:1016600011F4D1110DC0D701ED91FC910484F585E1
:10167000E02D4D2F61EEC7010995802B912B02C003
:1016800080E090E0DF91CF911F910F91FF90EF905C
:1016900008958C3070F4683060F422E1829FC001BC
:1016A0001124860F911D860F911D855A9D4F0C9414
:1016B000CB1F80E00895CF9390913705882311F0D8
:1016C0009F5F01C0915090933705C09137058FEF10
:1016D00093E0CF3F31F40E94CB1F815080933705B8
:1016E00006C00E94CB1FC81710F010923705CF918B
:1016F00008950F931F93CF9381E080934E040AE3E4
:1017000014E0C0E0F80180818823C1F0C11102C05B
:1017100080EE03C0C13021F481EE0E94E01E0CC0B7
:10172000C23011F482EEF9CFC33011F486EEF5CF5A
:101730008091370580933605F8011082CF5F0F5FE7
:101740001F4FC431F9F6CF911F910F910895409129
:1017500013014093760450E066E774E083E696E078
:101760000E943B1981E0809313010895843178F43D
:10177000633068F428E0829FC0011124860F911D18
:10178000860F911D642F835B9C4F0C943E1E089521
:10179000843170F4633060F428E0829FC00111242A
:1017A000860F911D860F911D835B9C4F0C94CB1F60
:1017B00080E00895843170F4633060F428E0829F03
:1017C000C0011124845B9C4F860F911D860F911DD3
:1017D0000C94CB1F80E0089523E0660F771F2A95B5
:1017E000E1F7860F971F68E2649F9001659F300DB7
:1017F0001124820F931F880F991F01960C94CB1F01
:1018000023E0660F771F2A95E1F7680F791F28E21A
:10181000249FC001259F900D1124860F971F880FCC
:10182000991F0C94CB1FAF92BF92CF92DF92EF9291
:10183000FF920F931F93CF93DF931F92CDB7DEB725
:1018400083E696E00E941F19813039F483E696E022
:101850000E941F1980933605B7C0823091F583E648
:1018600096E00E941F19F82E83E696E00E941F1949
:101870006C0183E696E00E941F19082F83E696E02C
:101880000E941F19682F83E696E069830E941F1942
:10189000182FDD2483E0CC0CDD1C8A95E1F7CF0CFA
:1018A000D11C760188E2089FE00CF11C1124EE0C9B
:1018B000FF1C6981C7010E943E1E612FC70101966E
:1018C00027C0833041F483E696E00E941F19682FF9
:1018D0008FEF93E01DC0843041F583E696E00E94CF
:1018E0001F19682F00E010E02091680430E080911B
:1018F0006904281B3109121613064CF483E696E09E
:1019000069830E941F19080F191F6981EDCFC80153
:101910000F90DF91CF911F910F91FF90EF90DF908B
:10192000CF90BF90AF900C943E1E853039F483E683
:1019300096E00E941F198093370546C0863039F41F
:1019400083E696E00E941F19809314013DC0873002
:10195000D9F583E696E00E941F195C0183E696E0C4
:101960000E941F198C011127E09036056501DD24C6
:10197000F80195E0A99EE00DF11D1124EA51FB4FFD
:10198000E082B09013018EE18B15F0F0F12CA701ED
:10199000B801C6010E94000CEB2DF0E0EA58FB4FA5
:1019A0008083AA24A394AB0CA0921301A701B801D1
:1019B000C6010E94EC0BEA2DF0E0EA58FB4F808351
:1019C000B394B394B09213010F90DF91CF911F9114
:1019D0000F91FF90EF90DF90CF90BF90AF90089560
:1019E000CF93DF93EC01FB01248135810E94EA173C
:1019F000CE01DF91CF9108950F931F93CF93DF9383
:101A0000EC0140E00E940B0B8C01892B39F0E8813E
:101A1000F9810284F385E02DCE010995C801DF919B
:101A2000CF911F910F9108950F931F93CF93DF9341
:101A3000EC0141E00E940B0B8C01892B39F0E8810D
:101A4000F9810284F385E02DCE010995C801DF916B
:101A5000CF911F910F910895FF920F931F93CF93F2
:101A6000DF938C01F62E0E94140DEC01892B21F0DE
:101A70006F2DC8010E94FC0CCE01DF91CF911F9108
:101A80000F91FF900895CF93DF93D82FC62F8091A9
:101A90001501882309F458C0611104C08D2F0E94DC
:101AA000E01E52C0613059F480913904909136059E
:101AB000891318C0109236051092390445C062305F
:101AC000A1F4809138048111EFCF809112066CE26D
:101AD000813019F48DE896E002C089E796E00E9413
:101AE0002C0DE2CF809336052FC06C3019F460E0E6
:101AF00080EE24C06D3001F16E3019F460E086EEA6
:101B00001DC06F3039F460E080EE0E94430D60E04C
:101B100081EE14C0603129F460E080EE0E94430D34
:101B200007C0613119F460E080EE04C0623161F4F5
:101B300060E081EE0E94430D60E082EE0E94430D62
:101B400060E08D2F0E94430D809113018F31A8F426
:101B5000E82FF0E0EA58FB4FD083E1E0E80FF0E037
:101B6000EA58FB4FC083E2E0E80FF0E0EA58FB4F91
:101B700091E090838D5F80931301809115018823FC
:101B800071F18CEE8C0F8A3050F5C43119F460E09D
:101B900080EE04C0C53129F460E081EE0E94430D5F
:101BA0000EC0C63119F460E082EEF8CFC73119F4E7
:101BB00060E086EEF3CF8091370580933605809103
:101BC000380481110CC0809112066D2F813019F4F8
:101BD0008DE896E002C089E796E00E942C0D809186
:101BE0001501882329F0C33119F48D2F0E94FF1DA0
:101BF00080911501882391F1CF3139F4809118013A
:101C000080588D1B8093180129C0C03239F480910F
:101C1000170180588D1B8093170120C0C13239F401
:101C20008091160180588D1B8093160117C0C23217
:101C3000A9F4D13011F481E00FC0D23011F482E068
:101C40000BC0D33011F484E007C0D43011F488E025
:101C500003C0D53019F480E10E94BD1F80911501A9
:101C6000882361F0CB3051F460E08D2F0E94430D4A
:101C700060E081EE0E94430D10929504DF91CF91B8
:101C800008950F931F93CF93DF93EC01E881F981BF
:101C90000084F185E02D09958C01892B39F0E881CC
:101CA000F9810284F385E02DCE010995C801DF9109
:101CB000CF911F910F9108959F92AF92BF92CF92B3
:101CC000DF92EF92FF920F931F93CF93DF9300D099
:101CD0001F92CDB7DEB7182F062F81E0809338040E
:101CE00080911501882309F481C0611104C0812FFE
:101CF0000E94D41E7BC0613019F41092390406C0D2
:101D0000623039F410923904109238041093360579
:101D10006DC0633059F5111102C081E003C011306C
:101D200021F480E00E945B0B61C0F090370521E058
:101D30000F2C01C0220F0A94EAF73AE0E32E220F9B
:101D400049F0F3948FEF93E02B830E94CB1F2B81FC
:101D5000F81610F021E0F12C822F812319F0F09277
:101D6000370544C0EA94E110EACFF9CF653079F441
:101D70008091360590E0212F012E000C330B821745
:101D8000930721F680913705809336052FC06C307C
:101D900019F460E080EE24C06D3001F16E3019F46A
:101DA00060E086EE1DC06F3039F460E080EE0E9486
:101DB0005C0E60E081EE14C0603129F460E080EEDA
:101DC0000E945C0E07C0613119F460E080EE04C02F
:101DD000623161F460E081EE0E945C0E60E082EEB0
:101DE0000E945C0E60E0812F0E945C0E80911501C4
:101DF000882361F1063051F580911206813019F483
:101E00008DE896E002C089E796E00E94410E612FBE
:101E10008EEF93E00E943E1E80911206813019F4ED
:101E20008DE896E002C089E796E00E94410E10938B
:101E300012060E94C91E80911206813019F48DE8A5
:101E400096E002C089E796E00E94410E909115014C
:101E5000992381F10A3071F51536ACF480911401A3
:101E6000212F012E000C330B280F311D37FF03C02B
:101E7000109214011FC02F3F310519F014F08FEF9D
:101E800017C0810F15C0153699F3163611F480E28C
:101E90000FC0173611F480E40BC0183611F480E639
:101EA00007C0193611F480E803C01A3619F480EA25
:101EB00080931401809113018F31A8F4E82FF0E092
:101EC000EA58FB4F1083E1E0E80FF0E0EA58FB4FDF
:101ED0000083E2E0E80FF0E0EA58FB4F25E02083C2
:101EE0008D5F80931301992311F1043119F460E09F
:101EF00080EE09C0053119F460E081EE04C00631BE
:101F000039F460E082EE0E945C0E109238040FC03B
:101F1000073119F460E086EEF6CF88EE800F863048
:101F200030F41092380489EE800F8093360580914A
:101F30001501882359F1043049F5111102C081E0DF
:101F400017C0113011F482E013C0123011F409836C
:101F500010C0133011F488E00BC0143011F480E18C
:101F600007C0153011F480E403C0163079F480E81E
:101F700089831A820E94A11D22E030E0AE014F5FEA
:101F80005F4F65E00E94501D0E94B31E80911501B5
:101F9000882309F452C0073009F04FC01C3008F004
:101FA0004CC022E1129F60011124C601875A9D4F47
:101FB0000E94CB1F982E560186EAA81A8DEFB80A08
:101FC000E12CF12C28EAC21A2DEFD20AE91430F5DF
:101FD000C6010E94CB1F282F30E00E2C02C0359581
:101FE00027950A94E2F76E2D812F20FFE5C00E940D
:101FF000490B682FC5016B830E94CB1F6B810E9428
:10200000430D65E070E080E090E00E94D2168FEF13
:10201000E81AF80A22E0A20EB11CD8CF8091370549
:102020008093360580911206813019F48DE896E090
:1020300002C089E796E00E94410E80911501882335
:1020400069F10E3149F5E12F012E000CFF0BE65C22
:10205000FB4F908181E0892780838823E9F011116B
:1020600002C080EE03C0113021F481EE0E94D41E24
:1020700010C0123011F482EEF9CF133011F486EE55
:10208000F5CF8CEF810F803120F48DEF810F80939D
:10209000360510924E0402C00E94790B8091150102
:1020A000882309F442C0033109F03FC0C12E012E3C
:1020B000000CDD08F601EE52FB4F80818330A8F55D
:1020C000FF24F394F80EF082143158F428E0129FA4
:1020D000C0011124865B9C4F0E94CB1F869586957C
:1020E00001C080E0F601EE0FFF1FE655FB4F22E333
:1020F000829FC001112491838083F601EA56FB4F31
:1021000081E0808383E0F81669F06F2D812F0E94B3
:10211000DA0BE82E6F2D812F0E94C80BE11005C04D
:10212000811103C0812F0E94F61080911501882330
:1021300091F10F3139F4809118018058810F80930B
:10214000180129C0003239F4809117018058810F9D
:102150008093170120C0013239F480911601805814
:10216000810F8093160117C00232A9F4113011F4C7
:1021700081E00FC0123011F482E00BC0133011F473
:1021800084E007C0143011F488E003C0153019F45E
:1021900080E10E94B01F809115018823C1F00B30AF
:1021A000B1F460E081EE0E945C0E60E0812F0E943D
:1021B0005C0E109395040BC00E94490B682FC5015B
:1021C0006B830E94CB1F6B810E945C0E1ACF0F9015
:1021D0000F900F90DF91CF911F910F91FF90EF9093
:1021E000DF90CF90BF90AF909F900895FF920F9394
:1021F0001F93CF93DF93082FC82FD0E0FE01EE523C
:10220000FB4F10811150612F0E94DA0BF82E612FC5
:10221000802F0E94C80BCC0FDD1FC655DB4F2FEF60
:102220003FEF39832883682F8F2DDF91CF911F9146
:102230000F91FF900C945C0ECF93DF93EC01E8813B
:10224000F9810084F185E02D0995E881F981028406
:10225000F385E02DCE01DF91CF910994089540914F
:102260005D0450915E0420915B0430915C04421740
:102270005307B4F49091E8009570E1F39091E80071
:1022800092FD19C08093F10080915D0490915E04ED
:1022900001968F739927892B19F48EEF8093E800AC
:1022A00080915D0490915E04019690935E0480930A
:1022B0005D0481E0089580E008952FB7F894877059
:1022C0008093E9009091E800892F807295FF04C007
:1022D0009091F20080E4891B2FBF0895615030F087
:1022E0002091F100FC0120830196F8CF289884E624
:1022F000809310060895CF92DF92EF92FF920F9392
:102300001F93CF93DF936C017A018B01C0E0D0E083
:10231000CE15DF0589F0D8016D918D01D601ED91C3
:10232000FC910190F081E02DC6010995892B11F4F3
:102330007E0102C02196ECCFC701DF91CF911F91A2
:102340000F91FF90EF90DF90CF900895CF93DF93A0
:102350001F92CDB7DEB76983DC01ED91FC9102805D
:10236000F381E02D41E050E0BE016F5F7F4F0995A2
:102370000F90DF91CF91089583E08093E9008091E1
:10238000F200882319F08AE38093E800089583E03F
:102390000E945D1190E00895FC018485958597FD6C
:1023A0000BC09FB7F89482E08093E9008091F2001F
:1023B0009FBF90E0019608959FB7F89482E08093C4
:1023C000E9008091F2009FBF90E008950F931F9362
:1023D000CF93DF931F92CDB7DEB78C01FC018485CC
:1023E000958597FF0EC0CE0101960E94641F01974C
:1023F00019F4298130E002C02FEF3FEFF801358753
:102400002487F801848595850F90DF91CF911F91E6
:102410000F910895CF93DF931F92CDB7DEB7FC01E4
:102420008485958597FD05C02FEF3FEF358724877D
:102430000BC0CE0101960E94641F019719F4898197
:1024400090E002C08FEF9FEF0F90DF91CF91089542
:102450000F931F93CF93DF93EC01888199810097AD
:1024600029F02A813B812617370788F48B016F5F9B
:102470007F4F0E944227009761F0998388831B83D6
:102480000A832C813D81232B11F4FC01108281E011
:1024900001C080E0DF91CF911F910F910895EF92DD
:1024A000FF920F931F93CF93DF93EC017B018A017F
:1024B000BA010E9428122881398181110DC021158D
:1024C000310519F0C9010E94AA26198218821D82BD
:1024D0001C821B821A8206C01D830C83B701C901AE
:1024E0000E942E28CE01DF91CF911F910F91FF9076
:1024F000EF900895FC01808191810C94AA26FB0144
:10250000DC0111961C921E9213961C921E92129739
:1025100015961C921E9214978617970749F06081B2
:1025200071816115710521F0448155810C944F1220
:102530000895FC0111821082138212821582148286
:102540006115710551F0FB0101900020E9F7319709
:10255000AF01461B570B0C944F1208951F920F9218
:102560000FB60F9211248F939F938091E100909169
:10257000E100937F9093E10083FF0FC01092E90088
:1025800091E09093EB001092EC0092E39093ED00B9
:102590001092110698E09093F00082FF20C093E023
:1025A0009093E9009091F200992319F09AE39093A7
:1025B000E80090915F04992339F090915F04915065
:1025C00090935F04992389F190911006992339F033
:1025D00090911006915090931006992341F184FF39
:1025E00010C08091E2008E7E81608093E200809135
:1025F000E1008F7E8093E100809161048E7E806196
:1026000011C080FF16C08091E2008E7E80618093B1
:10261000E2008091E1008E7E8093E1008091610470
:102620008E7E81608093610404C05D9ACDCF289A2C
:10263000D6CF9F918F910F900FBE0F901F9018953E
:10264000BF92CF92DF92EF92FF920F931F93CF939F
:10265000DF936C018B01EB019BEFB92E2097C1F04A
:102660007E01C134D1051CF080E4E82EF12C80916C
:10267000E80082FFFCCFC8018C1B9D0B6E2D8C0DDA
:102680009D1D0E946E11B092E800CE19DF09E6CFC1
:10269000C801DF91CF911F910F91FF90EF90DF90D4
:1026A000CF90BF900895DF92EF92FF920F931F9308
:1026B000CF93DF93D82E8A017B01E40EF51EEB0148
:1026C000CE15DF0571F0D7FE03C0FE01849101C075
:1026D00088810E942F1121968111F2CF8FEF9FEFF9
:1026E00001C0C801DF91CF911F910F91FF90EF9032
:1026F000DF900895CF93DF93FC01DB01C281D3818A
:10270000209719F47383628308C0888599850097A0
:1027100011F0EC01FACFB987A887808112968C93CB
:102720001297818113968C931397908115968C91B3
:102730001597890F808380E014969C9114978917D0
:10274000A0F49181C92FD0E0AE0140505F4F1696A2
:102750002D913C911797280F311DE9012881EA013D
:1027600028839F5F91838F5FE7CF81E0DF91CF91D7
:1027700008958091530481110DC082E080934F042D
:1027800084E080935004109252041092510481E02E
:10279000809353048FE494E008950F931F93CF9395
:1027A000DF931F92CDB7DEB782E0898342E450E029
:1027B00064E871E080E80E9453130E94B913DC01C1
:1027C00012960D911C9113970115110569F0D8010E
:1027D000ED91FC910280F381E02DBE016F5F7F4F90
:1027E000C801099597FF07C089810F90DF91CF91AC
:1027F0001F910F910895F80100851185E5CF1F9273
:102800000F920FB60F921124CF92DF92EF92FF92A8
:102810000F931F932F933F934F935F936F937F93E8
:102820008F939F93AF93BF93EF93FF93CF93DF93D8
:10283000CDB7DEB76C97DEBFCDBF1092E9008091B7
:10284000E80083FFE7C168E0CE0145960E946E1163
:1028500082EF8093E8008D8987FF05C09091E800A2
:1028600090FFFCCF03C09EEF9093E800982F9076E6
:1028700009F0C6C09E892F89188D91110CC080382F
:1028800029F4809162048093F10002C01092F1005B
:102890001092F10042C1422F50E0512B913051F47F
:1028A00081113BC14130510509F037C1809162046B
:1028B0008D7F0BC0933061F481112FC141305105E0
:1028C00009F02BC18091620482608093620425C16B
:1028D000953041F48091E80080FFFCCF2068209380
:1028E000E3001BC1963009F05FC0EB8CFC8C1092AA
:1028F000E90010925E0410925D04123091F510927E
:102900005C0410925B040E94CD1399E0BE016F5FDE
:102910007F4FDB01E92F1D92EA95E9F799831A832E
:1029200091E09E8390EA98879AEF998720915D04C1
:1029300030915E04275F3F4F3C832B838D83109241
:10294000E90010925E0410925D04F0925C04E09243
:102950005B0449E050E080E00E9453130E94CD13D5
:10296000DCC0F0925C04E0925B040E94B913DC01CD
:102970001296ED90FC901397E114F10409F4BAC09B
:10298000D701ED91FC910480F581E02DBE016B5ED5
:102990007F4FC7010995009719F00CF0BEC0C1C068
:1029A000F701E084F184E8CF973009F4BAC0983099
:1029B00021F481E08093F100B0C0993009F0ADC0FE
:1029C000837009F0AEC0E1E0F1E081E021E036E3A0
:1029D0009081992361F08093E9002093EB0091911D
:1029E0009093EC003093ED008F5F873089F78EE78E
:1029F0008093EA001092EA008F89809311068DC0BF
:102A00008B8D9C8D1092E90010925E0410925D04F3
:102A100090935C0480935B04898D811150C08E89F2
:102A20009D89913A59F4813209F07BC047E050E02A
:102A30006BE071E080E00E9453136FC0913209F0A7
:102A400070C0833289F4888D90E0982F88272F8971
:102A5000822BA0E0B0E08093070190930801A0933F
:102A60000901B0930A0159C0803239F467E070E07F
:102A70008BE091E00E94201306C0823209F04DC025
:102A80008F898093120180916004882319F0EEEF02
:102A9000FAE002C0E0E0F8E080910B0190910C01B7
:102AA000A0910D01B0910E01803B9440A105B105AC
:102AB00009F07BC08091120180FF93C076C00E9414
:102AC000B913DC0112960D911C9113970115110594
:102AD00041F1D801ED91FC910190F081E02DBE0112
:102AE0006B5E7F4FC8010995811117C0F801008501
:102AF0001185ECCF113009F44EC0133091F48F8959
:102B0000882309F445C0823081F440E860E188EE12
:102B100091E00E94CD1F882321F08EEF8093E80082
:102B200079C081E28093EB0075C0813029F440E8E0
:102B30006BE08CED91E0EDCF833099F70E94B913F3
:102B4000DC011296ED90FC9013978E010F5F1F4FE2
:102B50006801E114F10479F0D701ED91FC91068050
:102B6000F781E02DB801C7010995080F111DF70184
:102B7000E084F184EECFD8011C92F6010190002090
:102B8000E9F73197BF016C197D0940E0C601C1CF5B
:102B900066EC71E002C06AEC71E06115710509F242
:102BA000FB01449150E080E846CF0FB6F894A89519
:102BB00080916000886180936000109260000FBE79
:102BC000A895EE3F2AE0F20739F08091FE0A909135
:102BD000FF0A91838083A1CF1092FF0A1092FE0A10
:102BE0009CCFEE3F8AE0F80731F08081918190938D
:102BF000FF0A8093FE0A87E797E7918380839BE033
:102C000088E10FB6F894A895809360000FBE90936A
:102C1000600083CF6C960FB6F894DEBF0FBECDBFB9
:102C2000DF91CF91FF91EF91BF91AF919F918F91E4
:102C30007F916F915F914F913F912F911F910F91D4
:102C4000FF90EF90DF90CF900F900FBE0F901F90EE
:102C5000189590E0FC013197EF30F105B0F5EA5A94
:102C6000FF4F0C940F26809180008F7703C08091D6
:102C700080008F7D80938000089580918000877F01
:102C8000F9CF84B58F7702C084B58F7D84BD089558
:102C9000809190008F7707C0809190008F7D03C056
:102CA00080919000877F8093900008958091C0006C
:102CB0008F7703C08091C0008F7D8093C0000895FE
:102CC0008091C200877F8093C20008951F93CF93A5
:102CD000DF93282F30E0F901EB5BFD4F8491F90180
:102CE000EA5DFD4FD491F901E95FFD4FC491CC231A
:102CF000C9F0162F81110E942916EC2FF0E0EE0F7B
:102D0000FF1FEA58FE4FA591B4918FB7F8941111A7
:102D100005C09C91ED2FE095E92302C0EC91ED2BCD
:102D2000EC938FBFDF91CF911F910895CF93DF93E5
:102D300090E0FC01EA5DFD4F2491FC01E95FFD4F4D
:102D40008491882361F190E0880F991FFC01E85974
:102D5000FE4FC591D491FC01EA58FE4FA591B49164
:102D6000611109C09FB7F8948881209582238883D8
:102D7000EC912E230BC0623061F49FB7F894388138
:102D8000822F809583238883EC912E2B2C939FBFD9
:102D900006C08FB7F894E8812E2B28838FBFDF9170
:102DA000CF9108958F929F92AF92BF92CF92DF9270
:102DB000EF92FF926B017C010E94B31B4B015C01FF
:102DC000C114D104E104F104F1F00E94B31BDC0151
:102DD000CB0188199909AA09BB09883E9340A1052E
:102DE000B10570F321E0C21AD108E108F10888EEBC
:102DF000880E83E0981EA11CB11CC114D104E1040B
:102E0000F10419F7DDCFFF90EF90DF90CF90BF90E6
:102E1000AF909F908F9008957F928F929F92AF92E4
:102E2000BF92CF92DF92EF92FF920F931F93CF93B7
:102E3000DF93C82E8B017A0180911106811103C0A6
:102E40008FEF9FEF75C08091610480FF05C0809176
:102E5000E00082608093E000CE2DDF2DD12C8AEF40
:102E6000882E8C2D8770B82E8C2D8072A82E8C2DDC
:102E70008074982E9AE3792E209709F452C08C2DF5
:102E80000E945D11282F81110AC08A948820C1F206
:102E900061E070E080E090E00E94D216EDCF90E01B
:102EA000C817D9070CF42C2F3FB7F894B092E9005B
:102EB0008091E80085FF33C0822F90E0C81BD90BBA
:102EC000AA2029F02150A8F01092F100FBCFF801C0
:102ED000C7FE07C0215058F044914093F10031964D
:102EE000F9CF215020F041914093F100FACF080F23
:102EF000191FDD2019F07092E8000AC08091E800E7
:102F000085FD08C07092E800DD24D394209739F045
:102F1000D12C05C0209719F491107092E8003FBFA2
:102F2000ABCFD110ACCF5D9884E680935F04C7012E
:102F3000DF91CF911F910F91FF90EF90DF90CF9095
:102F4000BF90AF909F908F907F900895CF93DF9325
:102F5000EC0180911201882331F083E00E940C176C
:102F60001816190634F081E090E09B838A8380E094
:102F700090E0DF91CF9108950E940C28CF93DF93CA
:102F8000EC016115710559F0FB0101900020E9F792
:102F90003197AF01461B570B0E944F120CC088811E
:102FA0009981009711F00E94AA26198218821D8229
:102FB0001C821B821A82CE01DF91CF910895FC0101
:102FC00080819181009711F00C94642560E070E09D
:102FD000CB010895BF92CF92DF92EF92FF920F93B1
:102FE0001F93CF93DF937C016B018A01E9012417C2
:102FF000350720F4812F8901C42FD82F66E374E0B0
:10300000C7010E949912D60114968D919C91159733
:1030100008171907D0F48C179D0708F4EC01D601A6
:10302000ED91FC911197EC0FFD1FB08010824D9136
:103030005C91BA01600F711FC7010E94BE17D601D3
:10304000ED91FC91EC0FFD1FB082C701DF91CF9194
:103050001F910F91FF90EF90DF90CF90BF90089558
:10306000FB0144815581FC012481358124173507FA
:1030700078F080819181009759F0FB016081718126
:103080006115710529F00E94352821E0892B09F08E
:1030900020E0822F0895FC0124813581232B31F417
:1030A00021E061157105A1F0FB0108C0FC018081E0
:1030B00091816115710531F421E0FC018081882343
:1030C00039F005C00E94252821E0892B09F020E075
:1030D000822F08950F931F93CF93DF938C01EB0101
:1030E0008617970771F1FC01808191810097B1F0FB
:1030F000688179816115710579F0428153812C8154
:103100003D814217530740F00E942E288C819D81FB
:10311000F8019583848313C00E94AA26888199812F
:10312000F801918380838A819B81938382838C8140
:103130009D8195838483198218821B821A821D8245
:103140001C82C801DF91CF911F910F91089585EDE9
:103150008093BC008091BC0084FDFCCF109265047C
:1031600008954091C405262F30E0240F311D2132EF
:103170003105DCF4209165042430C9F4FC0180E0C1
:1031800090E0861758F43091C4052191DC01AC55CC
:10319000BA4FA30FB11D2C930196F3CF8091C405B4
:1031A000680F6093C40580E0089581E0089582E08F
:1031B0000895E0916E04F0916F04309729F0109219
:1031C00067041092660409940895CF93DF93AC01CD
:1031D000E0917004F09171043097F1F090916904DE
:1031E000809168049817C0F090E0292F30E02617EE
:1031F000370754F4D901AC57BA4FEA01C20FD31FB5
:1032000088818C939F5FF1CF10926904609368046A
:10321000CB01DF91CF910994DF91CF91089508956B
:10322000E091690480916804E81730F4F0E0EC570D
:10323000FA4F808190E008958FEF9FEF089590916D
:10324000690480916804981750F4E92FF0E0EC5776
:10325000FA4F208130E09F5F9093690402C02FEF06
:103260003FEFC90108958091680490E020916904BE
:10327000821B91090895CF93DF9300D0CDB7DEB7BD
:10328000CB01642F49835A830E94B1184981842F4E
:103290005A81952F0F900F90DF91CF910895CF9382
:1032A000DF931F92CDB7DEB7698361E0CE0101964F
:1032B0000E94B11881E090E00F90DF91CF910895C6
:1032C000FC0134969C01245F3F4F80E090E04081F8
:1032D000411101961192E217F307C9F70895CF93B0
:1032E000DF93DC0150E2560F5830D0F414966C9105
:1032F0001497442351F021E030E001C0220F5A9589
:10330000EAF7262B14962C9337C081E090E001C099
:10331000880F5A95EAF78095862314968C932CC0D3
:10332000FC0136964423B9F00C96EF01299126173B
:1033300019F1C817D907D1F780E090E02191211148
:1033400005C0A80FB91F16966C9316C0019686305B
:103350009105A1F70EC080E090E02191261305C0F1
:10336000A80FB91F16961C9207C0019686309105CA
:10337000A1F780E090E002C081E090E0DF91CF9182
:103380000895FC0134969C012D5E3F4F80E090E053
:10339000608160FD0196462F50E055954795642F5A
:1033A000452BB9F71192E217F30791F70895FC0145
:1033B0006836B8F4862F877021E030E001C0220F14
:1033C0008A95EAF7669566956695E60FF11D4423A2
:1033D00019F08581282B03C0209595812923258309
:1033E00026C050E2560F5830B0F46481442349F0AF
:1033F00021E030E001C0220F5A95EAF7262B248302
:1034000016C081E090E001C0880F5A95EAF78095D8
:10341000862384830CC08289442331F0861711F0FF
:10342000811108C0628B03C0861304C0128A81E038
:1034300090E0089580E090E00895089580E090E0A5
:103440000895DC01FB0112968C91129790E0248183
:10345000358182179307D1F491818081813A31F4CB
:1034600081E0913091F0933089F411C0813271F490
:103470009B3021F482811F968C9305C09A3031F4E1
:10348000828150968C9381E00895089580E008959C
:10349000DC01FB0188E4808389E4818384E4828306
:1034A0001D969C911D979F709F5B93831D968D9198
:1034B0009C911E9724E0969587952A95E1F78F7049
:1034C0008F5B848385E00895FC0182818F5BFB0123
:1034D000808381E00895CF93DF93EC01FB018A8123
:1034E00090E0248135818217930709F04AC08181D9
:1034F0009081913A69F4813009F441C0833011F42C
:103500008F8903C08230E9F5888D8093F10037C040
:103510009132B9F58B3019F482818F8B30C08A30AB
:1035200019F48281888F2BC0893059F566817781A3
:103530008381833079F48C8D9D8D6817790709F527
:103540008A8D9B8D0E9420138C8D9D8D90689D8F00
:103550008C8F15C0823041F46130710591F461E0C7
:1035600070E0CE01499609C0813059F46830710588
:1035700041F468E070E0CE010E960E94201381E0D5
:1035800001C080E0DF91CF910895FB0120812138B7
:10359000B9F423812232A1F4DC0112962C91129706
:1035A00030E0448155814217530751F421E057968A
:1035B0002C9345E450E064E672E080E80C945313E9
:1035C00080E090E00895CF93DF93CDB7DEB76997A1
:1035D0000FB6F894DEBF0FBECDBFFC01DB019C919E
:1035E0009F5F9C93BE016F5F7F4F89E1DB011D925E
:1035F0008A95E9F729E0298384E08A8391E09D8315
:1036000083E08E839F8398872A8721E22B879C877C
:103610009D879F8722E2288B25E4298B27E02B8B2F
:1036200025E02C8B8E8B20E430E0388F2F8B998F08
:1036300082818B83838180688D8B49E150E080E0BB
:103640000E94531369960FB6F894DEBF0FBECDBF2C
:10365000DF91CF910895EF92FF920F931F93CF9335
:10366000DF93FB012081213851F52381223239F586
:10367000DC0112962C9130E04481558142175307AA
:10368000F1F4EC010B851C85E12CF12C01151105E1
:1036900091F0F801448155816281738180E80E9434
:1036A00053138F3FFFEF9F0769F0E80EF91ED80113
:1036B0000D911C91EBCF81E08F87C70105C080E0A1
:1036C00090E002C08FEF9FEFDF91CF911F910F919C
:1036D000FF90EF900895CF93DF93CDB7DEB7699752
:1036E0000FB6F894DEBF0FBECDBFFC01DB018C919D
:1036F0008F5F8C93BE016F5F7F4F89E1DB011D926D
:103700008A95E9F729E0298384E08A8391E09D8303
:1037100083E08E832A8721E22B879C879D879F8762
:1037200022E2288B27E02B8B25E02C8B8E8B20E44C
:1037300030E0388F2F8B998F82818B83958586859A
:10374000998B8A8B838180688D8B49E150E080E082
:103750000E94531369960FB6F894DEBF0FBECDBF1B
:10376000DF91CF9108953FB7F89480910C06909126
:103770000D06A0910E06B0910F0626B5A89B05C0B8
:103780002F3F19F00196A11DB11D3FBFBA2FA92FE0
:10379000982F8827820F911DA11DB11DBC01CD015D
:1037A00042E0660F771F881F991F4A95D1F7089549
:1037B0001F920F920FB60F9211242F933F938F9366
:1037C0009F93AF93BF938091720490917304A091E3
:1037D0007404B091750430910B0623E0230F2D374C
:1037E00020F40196A11DB11D05C026E8230F029605
:1037F000A11DB11D20930B06809372049093730456
:10380000A0937404B093750480910C0690910D06FA
:10381000A0910E06B0910F060196A11DB11D8093D7
:103820000C0690930D06A0930E06B0930F06BF9161
:10383000AF919F918F913F912F910F900FBE0F905D
:103840001F9018951F920F920FB60F9211242F936D
:103850003F934F935F936F937F938F939F93AF9318
:10386000BF93EF93FF938091B900887F803609F46E
:103870009CC068F5883209F45BC090F4803109F48B
:1038800054C038F4882309F4F6C0883009F44DC0D8
:10389000F6C0883109F44CC0803209F45DC0EFC035
:1038A000803409F468C048F4803309F455C0883383
:1038B00009F0E5C08093E705D8C0803509F44FC012
:1038C000883509F45DC0883409F0D9C0D6C088397C
:1038D00009F4C7C0A8F4883709F467C038F48836FB
:1038E00009F463C0803709F460C0C9C0883809F49E
:1038F000B8C0803909F45FC0803809F0C0C05BC02F
:10390000803B09F486C038F4803A09F466C0883AEE
:1039100009F47FC0B4C0803C09F4A7C0883C09F416
:10392000A4C0883B09F48AC0AAC080910A0610C0CE
:103930009091090680910806981770F5E0910906A4
:1039400081E08E0F80930906F0E0E851FA4F808104
:103950008093BB0085EC86C08093E7058EC0E09124
:10396000090681E08E0F809309068091BB00F0E08C
:10397000E851FA4F808390910906809108066EC045
:10398000E091090681E08E0F809309068091BB00CB
:10399000F0E0E851FA4F80838091640481116DC09A
:1039A00081E08093630484EA61C083E080936504CE
:1039B0001092E605CFCF8091E605803208F051C025
:1039C000E091E60581E08E0F8093E6058091BB00D3
:1039D000F0E0EA53FA4F8083BDCF85EC8093BC00C2
:1039E000109265048091E605803230F4E091E6059E
:1039F000F0E0EA53FA4F10826091E60570E0E09142
:103A00006A04F0916B0486EC95E009951092E60546
:103A100036C084E0809365041092C5051092C405F9
:103A2000E0916C04F0916D0409958091C4058111B9
:103A300005C081E08093C4051092A405E091C505FE
:103A400081E08E0F8093C505F0E0EC55FA4F808140
:103A50008093BB009091C5058091C405981708F428
:103A600079CF85E88093BC000AC085EC8093BC00C8
:103A70001092650404C01092E7050E94A718FF91F8
:103A8000EF91BF91AF919F918F917F916F915F91D6
:103A90004F913F912F910F900FBE0F901F9018954F
:103AA000AF92BF92CF92DF92EF92FF920F931F934C
:103AB000CF93DF931F92CDB7DEB77C0169836A0194
:103AC000590141E050E0BE016F5F7F4FFC018381EF
:103AD0000E940C178C0197FD0BC0F7018381A50193
:103AE000B60180640E940C1797FD02C0800F911FE1
:103AF0000F90DF91CF911F910F91FF90EF90DF908A
:103B0000CF90BF90AF900895FC01A385B485109726
:103B100019F47487638709C08D919C911197009760
:103B200011F0DC01F9CF6D937C9325853685DB019F
:103B300014968D919C911597820F931F9687858778
:103B4000089580917C05811137C081E080936F05D5
:103B50008093700525E735E0309372052093710559
:103B6000109274051092730520E331E030936C05D8
:103B700020936B05109277051092760510927905C7
:103B80001092780580937A0580937B0581EC809371
:103B900075050E94B913FC01418120916F0530E049
:103BA000240F311D2830310524F46BE675E00E94A6
:103BB0007A1381E080937C058BE695E00895CF939E
:103BC000DF93EC010E94A11DAE014C5F5F4F2FE01F
:103BD00030E068E0DF91CF910C94501D0F931F935C
:103BE000CF93DF93EB018A010E94A11D9801AE01E2
:103BF00061E0DF91CF911F910F910C94501DBF9206
:103C0000CF92DF92EF92FF920F931F93CF93DF93A8
:103C1000C82F082E000CDD0B9E01220F331FA901B7
:103C200046555B4F7A01FA012081318137FF19C077
:103C3000182FAE014E525B4F6A01FA01008101500C
:103C4000602F0E94DA0BB82E602F812F0E94C80BC4
:103C5000682F8B2D0E94430DF6011082F70111820F
:103C60001082CA56DB4F1882DF91CF911F910F91BE
:103C7000FF90EF90DF90CF90BF9008950F931F9328
:103C8000CF93DF931F92CDB7DEB78C0169830E947B
:103C9000A0256981681741F0C8010F90DF91CF918D
:103CA0001F910F910C94A8250F90DF91CF911F9138
:103CB0000F910895BC01009791F0FC010190002044
:103CC000E9F73197AF01481B590BE0911306F091CA
:103CD00014060280F381E02D83E196E0099480E0F0
:103CE00090E008958F929F92AF92BF920F931F938F
:103CF000CF93DF93CDB7DEB7A1970FB6F894DEBFB1
:103D00000FBECDBF19A2423008F44AE08E010F5D0C
:103D10001F4F842E912CA12CB12CA50194010E943F
:103D2000ED25E62FB901CA0101501109EA3014F45A
:103D3000E05D01C0E95CD801EC93232B242B252BFB
:103D400061F7C8010E945A1EA1960FB6F894DEBF13
:103D50000FBECDBFDF91CF911F910F91BF90AF905C
:103D60009F908F900895CF93DF9300D0CDB7DEB7AB
:103D700019821A820E94A11D22E030E0AE014F5F3D
:103D80005F4F65E00E94501D0F900F90DF91CF9123
:103D9000089580911206813019F48DE896E002C0F2
:103DA00089E796E00C941C11682F809112068130EF
:103DB00019F48DE896E002C089E796E00C94140DA2
:103DC000682F80911206813019F48DE896E002C0C8
:103DD00089E796E00C94FC0C0C945A1ECF93DF9369
:103DE000FC0124813581232B61F0C081D18168E2FF
:103DF00070E0CE010E941A28009719F08C1B9D0BD1
:103E000002C08FEF9FEFDF91CF910895682F70E090
:103E100080E090E04AE00C94721ECF93DF93682F0D
:103E200070E080E090E04AE00E94721EEC0184E3C2
:103E300094E00E945A1E8C0F9D1FDF91CF91089530
:103E4000CF93DF930E945A1EEC0184E394E00E941A
:103E50005A1E8C0F9D1FDF91CF910895CF92DF9254
:103E6000EF92FF92CF93DF936C01990FEE08FF085A
:103E7000F7FE1FC0E0911306F09114060190F08147
:103E8000E02D6DE283E196E00995EC016627772746
:103E9000CB016C197D098E099F094AE00E94721EB0
:103EA0008C0F9D1FDF91CF91FF90EF90DF90CF900F
:103EB00008954AE0C701B601DF91CF91FF90EF90DE
:103EC000DF90CF900C94721EFC018091110681113D
:103ED00003C08FEF9FEF08959FB7F89482E080931F
:103EE000E9002091F20030E01216130614F421E0EC
:103EF00030E02115310559F0289884E680931006AA
:103F00008091F10080838091F200882319F09FBF97
:103F1000C90108958BE68093E800F9CFCF93DF9332
:103F200000D000D0CDB7DEB7E0EAF6E09281998309
:103F30008A836B834C830190F081E02D0190F081A6
:103F4000E02D44E050E0BE016F5F7F4F80EA96E0D5
:103F500009950F900F900F900F90DF91CF910895DA
:103F60009091A206892B891739F08093A20640E030
:103F700060E080E00C948E1F08959091A2068095D9
:103F80008923891739F08093A20640E060E080E041
:103F90000C948E1F08950C94A025CF92DF92EF927F
:103FA000FF920F931F93CF93DF931F92CDB7DEB78E
:103FB000182F062FE42E862F880F8E5F99830E947C
:103FC0002F1183E00E942F11F12EC12E9981D92E3D
:103FD0008C2D8F19801798F4F601E7FE02C08491AA
:103FE00001C080810E942F11182F80E00E942F11A4
:103FF0008123FFEFCF1ADF0A8111EACF01C081E0F0
:104000000F90DF91CF911F910F91FF90EF90DF9074
:10401000CF900895CF93DF93CDB7DEB72A970FB631
:10402000F894DEBF0FBECDBF789484B5826084BDA6
:1040300084B5816084BD85B5826085BD85B58160AC
:1040400085BD80916E00816080936E00109281002A
:1040500080918100826080938100809181008160E5
:1040600080938100809180008160809380008091A6
:104070009100826080939100809191008160809393
:104080009100809190008160809390008091C100A8
:1040900084608093C1008091C10082608093C100E0
:1040A0008091C10081608093C1008091C3008160D4
:1040B0008093C3008091C00082608093C000809193
:1040C000C20081608093C20080917A0084608093F6
:1040D0007A0080917A00826080937A0080917A00E1
:1040E000816080937A0080917A00806880937A0062
:1040F0001092110610926204109261048091D70010
:1041000081608093D70080EA8093D80089B5806170
:1041100089BD89B5826089BD09B400FEFDCF61E02B
:1041200070E080E090E00E94D2168091D8008F7CF1
:1041300080618093D8008091E000807F8093E000D0
:104140008091E1008E7E8093E1008DE08093E2001B
:10415000559A209AEEEFFFE7859194918B3F9C4D05
:1041600019F481E0809360040E94C91E8FEF9FEFD5
:104170009093200680931F068EEF93E00E94CB1F42
:10418000182F80911206813019F48DE896E002C054
:1041900089E796E00E94410E109312060E94C91E04
:1041A00080E18093BA0089ED98E190936D0480934B
:1041B0006C0485EE98E190936B0480936A041092EE
:1041C00069041092680410926704109266041092B9
:1041D000650481E0809364041092630461E082E0EE
:1041E0000E94661661E083E00E9466168091B90025
:1041F0008E7F8093B9008091B9008D7F8093B90044
:1042000088E48093B80085E48093BC001092150187
:1042100087EA9BE090936F0480936E0483E19CE0B7
:10422000909371048093700446E954E08AEA94E024
:10423000E2EDF4E024E12E0F1192DC011D921D92BB
:10424000CD01DA011D92AD012E13F6CF0FE111E081
:10425000E5E0EE2EE00EF801F1908F0160E08F2D89
:104260000E94961661E08F2D0E946616E012F3CF31
:1042700004E211E028E0200F2F83D801FD908D018A
:1042800060E08F2D0E94961660E08F2D0E946616CA
:104290002F812013F2CF42E455E02EE035E065E0B7
:1042A000620F80E090E0F901E80FF91F1082FA0137
:1042B000E80FF91F1082059688329105A1F72F5F4C
:1042C0003F4F4F5F5F4F6213ECCF6CE271E080E0D5
:1042D00090E00E94D2162FB7F894809172049091CA
:1042E0007304A0917404B09175042FBF80933C05B2
:1042F00090933D05A0933E05B0933F05409138054E
:104300005091390560913A0570913B0584179507E6
:10431000A607B70761F08093380590933905A093FD
:104320003A05B0933B0581E080936A0502C0109284
:104330006A0583E196E00E94CC11181619060CF06C
:104340004AC083E196E00E940A12803219F1898303
:104350001A820091A7061091A8060F5F1F4FB8019F
:1043600083EA96E00E942812882341F12091A30657
:104370003091A4068091A7069091A806BE016F5FB8
:104380007F4F820F931F0E942E281093A806009340
:10439000A70614C063EA76E0CE0101960E947F1260
:1043A000CE0101960E94D701CE0101960E947A1299
:1043B00066E374E083EA96E00E94BE178091A70648
:1043C0009091A8068536910530F066E374E083EAA3
:1043D00096E00E94BE17109137058FEF93E00E9480
:1043E000CB1F811708F47DC290913605891708F418
:1043F00078C280916A05882309F46CC16EE0C62EEC
:1044000065E0D62E74E2E72E71E0F72E88248394BF
:10441000D7019D907D0161E0892D0E9496165FE194
:10442000A52E51E0B52E00E010E0F50121915F01CD
:1044300030E0F901EB5BFD4F8491F901EA5DFD4F3E
:104440007490F901E95FFD4F6490662079F0811165
:104450000E942916E62DF0E0EE0FFF1FE750FE4FF9
:10446000A591B491EC917E2281E009F480E0F601FF
:10447000E00FF11F882580830F5F1F4F0530110566
:10448000A1F660E0892D0E949616F5E0CF0ED11CB2
:104490002F812E11BDCF36EE832E34E0932E00E017
:1044A00010E00887F801EE5BFA4F5F01C12CD12CB8
:1044B000E12CF12CF601E00FF11FE25FFA4F808151
:1044C000813009F0BAC0D5018C918111D2C08091A0
:1044D00013018F31B0F4E82FF0E0EA58FB4FE0828F
:1044E000E1E0E80FF0E0EA58FB4F28852083E2E0A6
:1044F000E80FF0E0EA58FB4F33E030838D5F8093A4
:10450000130160903605F401EC0DFD1D6082712CE5
:10451000A301B801C7010E94EC0B582EA301B801FA
:10452000C7010E94000C482E809113018F31A8F41E
:10453000E82FF0E0EA58FB4F4082E1E0E80FF0E0BE
:10454000EA58FB4F5082E2E0E80FF0E0EA58FB4FF8
:1045500092E090838D5F809313018091150181110A
:1045600005C080911501811136C052C02AEA622E21
:1045700024E0722E212C312C242D042C000C330B22
:104580003A872987822D33E1531205C029853A8560
:1045900022153305A9F0D3012D913C911216130673
:1045A0007CF40E94F610F101EA56FB4F80818111E4
:1045B00007C080911501882319F0822D0E94FF1DEC
:1045C000BFEF2B1A3B0AE2E06E0E711CF4E12F16CE
:1045D0003104C1F6C6CF511010C040924005809101
:1045E00095048823A9F060E00E94430D60E081EE0D
:1045F0000E94430D109295040BC02BE0521208C08C
:1046000080914005481204C060E0842D0E94430D53
:1046100060903605712CA301B801C7010E94EC0B14
:10462000582EA301B801C7010E94000C652D0E94FD
:104630005C0EEFEFD501EC931CC081111AC0D501BF
:104640008C918A3FB1F4F401EC0DFD1D6080712C5A
:10465000A301B801C7010E94EC0B582EA301B801B9
:10466000C7010E94000C652D0E94430D25E0F50155
:1046700020833FEFE31AF30A85E0C80ED11C95E0D2
:10468000A90EB11CA8E2CA16D10409F013CF0F5F1E
:104690001F4FBFEF8B1A9B0A0530110509F001CFA0
:1046A00042E455E09A012B5F922F20E030E0FA01BE
:1046B000E20FF31F8081882321F08A3F11F081509F
:1046C00080832B5F3F4F2832310589F74F5F5F4F63
:1046D0009413EBCFF09014010F2D10E061E085E012
:1046E0000E9496160115110511F460E004C00F3FF9
:1046F000110529F461E085E00E9466167CC0EAE4B9
:10470000F2E0E4918E2F90E0FC013197EF30F1055B
:1047100008F06CC0EB59FF4F0C940F2684B58068ED
:1047200084BDF7BC68C084B5806284BDF8BC63C03A
:1047300080918000806880938000109389000093AE
:10474000880059C08091800080628093800010931F
:104750008B0000938A004FC0809180008860809316
:10476000800010938D0000938C0045C080919000D4
:1047700080688093900010939900009398003BC04C
:104780008091900080628093900010939B00009332
:104790009A0031C0809190008860809390001093BF
:1047A0009D0000939C0027C08091C000806880938A
:1047B000C0008091C0008F7B8093C000F092CF003A
:1047C0001AC08091C00080628093C000F092D00037
:1047D00012C08091C20088608093C2008091C200A4
:1047E0008B7F8093C200F092D20005C00038110583
:1047F0000CF080CF7ACF80916A05811105C080913D
:104800006A05811139C065C0809115018823B9F30B
:104810008AEAC82E84E0D82E92EDE92E94E0F92E93
:1048200000E010E0D7018D917D018823E1F0F601D1
:10483000808191811816190624F401979183808351
:1048400012C0892B81F4802F0E94F610F801EA56DD
:10485000FB4F8081811107C080911501882319F0D9
:10486000802F0E94FF1D0F5F1F4FF2E0CF0ED11C63
:1048700004311105B9F6C3CF809118018038A1F435
:1048800080911701803881F480911601803861F49D
:10489000809141058823E9F0109241051092A2060B
:1048A00040E060E080E013C01092A20640E060E0CB
:1048B00080E00E948E1F81E08093410540911601A7
:1048C00040586091170160588091180180580E94EB
:1048D0008E1F80E090E0892B09F4FDCC0E9400003F
:1048E000FACC109237051092360583CDBC01625F79
:1048F0007F4FFC01838148E050E080640C940C17EA
:104900000A970C947624109216061092150688EEDB
:1049100093E0A0E0B0E08093170690931806A09370
:104920001906B0931A062CE331E030931406209355
:1049300013062FEF3FEF3093200620931F061092AF
:104940006606109265068093670690936806A093AA
:104950006906B0936A068EE491E0909364068093B2
:10496000630681E0809373068093740625E836E041
:10497000309376062093750610927806109277068B
:1049800010927C0610927B0620E631E03093700690
:1049900020936F062EE631E030937A062093790655
:1049A00080938606809387061092880610928A0666
:1049B0001092890610928C0610928B0681EC8093DF
:1049C00085060E94B913FC0141812091730630E0F5
:1049D000240F311D2830310524F46FE676E00E9463
:1049E0007A131092900610928F068CE891E09093C3
:1049F0008E0680938D068091B006811113C01092AF
:104A0000AB061092AA0689EA92E09093AD068093D5
:104A1000AC0686E390E09093AF068093AE0681E00B
:104A20008093B0060E94A11D6AEA76E00E94841D70
:104A30001092A2068EE991E09093A1068093A006C1
:104A40008091BE06811113C01092B9061092B8066B
:104A50008FED92E09093BB068093BA068BE290E0D4
:104A60009093BD068093BC0681E08093BE060E94B1
:104A7000A11D68EB76E00E94841D66E374E083EA82
:104A800096E00E9499128091CC06811113C0109279
:104A9000C7061092C6068AE093E09093C9068093F9
:104AA000C8068BE490E09093CB068093CA0681E021
:104AB0008093CC060E94A11D66EC76E00C94841DC8
:104AC00083EA96E00C947A121F93FC0199278827B9
:104AD000BC01E89411911032E9F3193010F01E3046
:104AE000C8F31B3251F01D3249F4689406C00E948D
:104AF0008B25610F711D811D911D119110531A306D
:104B0000B0F33EF490958095709561957F4F8F4FEF
:104B10009F4F1F910895592F482F372F262F660F2B
:104B2000771F881F991F660F771F881F991F620FB5
:104B3000731F841F951F660F771F881F991F089585
:104B4000F999FECF92BD81BDF89A992780B5089555
:104B5000262FF999FECF1FBA92BD81BD20BD0FB699
:104B6000F894FA9AF99A0FBE019608952F923F92FF
:104B70004F925F926F927F928F929F92AF92BF926D
:104B8000CF92DF92EF92FF920F931F93CF93DF9319
:104B9000CDB7DEB7CA1BDB0B0FB6F894DEBF0FBE76
:104BA000CDBF09942A88398848885F846E847D84C3
:104BB0008C849B84AA84B984C884DF80EE80FD80C5
:104BC0000C811B81AA81B981CE0FD11D0FB6F8943B
:104BD000DEBF0FBECDBFED010895A1E21A2EAA1BC4
:104BE000BB1BFD010DC0AA1FBB1FEE1FFF1FA2179D
:104BF000B307E407F50720F0A21BB30BE40BF50B9A
:104C0000661F771F881F991F1A9469F76095709522
:104C1000809590959B01AC01BD01CF010895EE0FE9
:104C2000FF1F0590F491E02D0994CF93DF9382301C
:104C3000910510F482E090E0E091D606F091D7065D
:104C400020E030E0C0E0D0E0309711F140815181A8
:104C500048175907C0F04817590761F482819381BA
:104C6000209719F09B838A832BC09093D70680935B
:104C7000D60626C02115310519F04217530718F43E
:104C80009A01BE01DF01EF010280F381E02DDCCF4C
:104C90002115310509F1281B390B2430310590F419
:104CA00012968D919C9113976115710521F0FB016E
:104CB0009383828304C09093D7068093D606FD0128
:104CC000329644C0FD01E20FF31F8193919322506D
:104CD00031092D933C933AC02091D4063091D506EA
:104CE000232B41F420911B0130911C013093D506F8
:104CF0002093D4062091190130911A012115310514
:104D000041F42DB73EB740911D0150911E01241B67
:104D1000350BE091D406F091D506E217F307A0F425
:104D20002E1B3F0B2817390778F0AC014E5F5F4F01
:104D30002417350748F04E0F5F1F5093D506409358
:104D4000D4068193919302C0E0E0F0E0CF01DF91BF
:104D5000CF9108950F931F93CF93DF93009709F49A
:104D60008CC0FC013297138212820091D6061091FA
:104D7000D7060115110581F420813181820F931F1F
:104D80002091D4063091D5062817390779F5F0938C
:104D9000D506E093D40671C0D80140E050E0AE17CC
:104DA000BF0750F412962D913C911397AD01211538
:104DB000310509F1D901F3CF9D01DA013383228353
:104DC00060817181860F971F8217930769F4EC0148
:104DD00028813981260F371F2E5F3F4F3183208373
:104DE0008A819B8193838283452B29F4F093D70694
:104DF000E093D60642C01396FC93EE931297ED0112
:104E0000499159919E01240F351FE217F30771F460
:104E100080819181840F951F029611969C938E93A9
:104E20008281938113969C938E931297E0E0F0E039
:104E3000D80112968D919C911397009719F0F80163
:104E40008C01F6CF8D919C9198012E5F3F4F820F80
:104E5000931F2091D4063091D5062817390769F49D
:104E6000309729F41092D7061092D60602C013820A
:104E700012821093D5060093D406DF91CF911F9133
:104E80000F910895A0E0B0E0E8E4F7E20C94BA25B1
:104E9000EC01009721F4CB010E941526B8C0FC015B
:104EA000E60FF71F9C0122503109E217F30708F4BF
:104EB000ACC0D9010D911C91119706171707B0F0DE
:104EC0000530110508F49FC0C8010497861797079D
:104ED00008F499C002501109061B170B0193119396
:104EE0006D937C93CF010E94AA268DC05B01A01A0E
:104EF000B10A4C01800E911EA091D606B091D70642
:104F000040E050E0E12CF12C109709F44AC0A815BC
:104F1000B905D1F56D907C901197630182E0C80EC0
:104F2000D11CCA14DB0480F1A3014A195B096A0190
:104F300082E0C80ED11C1296BC9012971396AC91C9
:104F4000B5E0CB16D10440F0B282A38351834083F5
:104F5000D9016D937C930AC00E5F1F4FC301800F70
:104F6000911FF90191838083EB2DFA2FE114F10455
:104F700031F0D7011396FC93EE93129744C0F0934F
:104F8000D706E093D6063FC08D919C9111974817A4
:104F9000590708F4AC017D0112960D90BC91A02D2B
:104FA000B3CF8091D4069091D50688159905E1F488
:104FB00046175707C8F48091190190911A0100977C
:104FC00041F48DB79EB740911D0150911E01841B85
:104FD000950BE817F907C8F4F093D506E093D406CB
:104FE000F901718360830FC0CB010E9415267C01FB
:104FF000009759F0A801BE010E941128CE010E941D
:10500000AA26C70104C0CE0102C080E090E0CDB75F
:10501000DEB7EEE00C94D62581E090E0F8940C9495
:105020004328FB01DC0102C001900D924150504029
:10503000D8F70895FC018191861721F08823D9F7CC
:10504000992708953197CF010895FB01DC018D91D7
:10505000019080190110D9F3990B0895FB01DC012F
:1050600001900D920020E1F70895FB01DC01415011
:10507000504030F08D910190801919F40020B9F75B
:10508000881B990B089511E0CCEAD1E004C0FE0121
:105090000E940F262196CD3AD107C9F7F894FFCF89
:1050A00000C18081000000FFFFFFFF00E100000061
:1050B0000000000132018080800000D806800004DA
:1050C00006070809151413120F0E100A000000003D
:1050D000211A6B1B2B1B481A00000000A611A617F3
:1050E000C711BC11CC110A12E611000000004F19C3
:1050F0003B191E1A0F1933191F191019000000004F
:105100006B1AE31AC51A641A7624F6FF00002C0DF8
:105110007B111E1A1D1A601980246F1900000000EF
:10512000BC17BC17BC17641A000000002C0D7B11C3
:105130001E1A1D1AC119DF1DD71900000000EE1D2F
:10514000756E697175656B726571696E666F004425
:105150004550524543494154454400756E69717547
:10516000656B7265716E616D650044697665726725
:1051700065203320536C61766500756E69717565C5
:105180006B72657176617269616E7400756E6971BA
:1051900075656B72657164726976657200416E69DE
:1051A0006D757320496E6E6F76612078322E3800EF
:1051B000756E697175656B7265716275696C640095
:1051C0004F454D00756E697175656B7365746B65E0
:1051D0007900736574206B65792800756E69717547
:1051E000656B736574656570726F6D0073657420AF
:1051F000454550524F4D2800756E697175656B734A
:1052000065746C617900736574206C6179657220D6
:10521000636F756E7428006572726F723A20696EE2
:1052200073756666696369656E7420454550524FB3
:105230004D00756E697175656B6765746C61790099
:10524000756E697175656B676574656570726F6D94
:1052500000756E697175656B6765746B6579007251
:10526000657475726E206B65792800756E6971754D
:10527000656B676574726F7700756E697175656BC4
:10528000676574636F6C00756E697175656B7365C6
:10529000746D617374657200736574206D617374ED
:1052A00065722800756E697175656B7365746E6BD8
:1052B000726F00736574204E4B524F206D6F6465A2
:1052C00028006572726F723A20696E76616C69644B
:1052D000204E4B524F206F7074696F6E00756E696F
:1052E0007175656B6765746E6B726F00756E697151
:1052F00075656B6765746D6F647300676574206DA9
:105300006F64732800426C656450574D00756E6978
:105310007175656B7365746272696768746E6573C5
:105320007300736574206272696768746E65737365
:10533000282900756E697175656B6765746272699D
:105340006768746E6573730067657420627269675D
:1053500068746E657373282900493243536C617613
:1053600065006475616C526F6C6573006D6564698E
:105370006100756E697175656B7365746D616372DB
:105380006F00736574206D6163726F2800737469B8
:10539000636B794B6579730074617044616E63650A
:1053A00000756E697175656B7365747461706461A5
:1053B0006E6365007365742074617064616E63650B
:1053C00028006D6F7573654B657973007368696646
:0853D000746564000D0A000081
:00000001FF
