:100000000C94AD010C94D5010C94D5010C94D50140
:100010000C94D5010C94D5010C94D5010C94D50108
:100020000C94D5010C94D5010C941E1B0C941C1C33
:100030000C94D5010C94D5010C94D5010C94D501E8
:100040000C94D5010C94D5010C94D5010C94D501D8
:100050000C94D5010C94D5010C94D5010C945A172D
:100060000C94D5010C94D5010C94D5010C94D501B8
:100070000C94D5010C94D5010C94D5010C94D501A8
:100080000C94D5010C94D5010C94D5010C94D50198
:100090000C94A4170C94D5010C94D5010C94D501A3
:1000A0000C94D5010C94D5010C94D5018F169216A1
:1000B000811685168B16B316B316B31696169A16B6
:1000C0009E16A416A816B316AE161D2522252725A2
:1000D00031253B2585258525852545254F25592510
:1000E00063257025852578250000000000000000AC
:1000F0002A2B280000000000000000000000000083
:1001000000000000000000002C9EB4A0A1A2A434B6
:10011000A6A7A5AE362D3738271E1F20212223245F
:100120002526B333B62EB7B89F8485868788898AFB
:100130008B8C8D8E8F909192939495969798999A97
:100140009B9C9D2F3130A3AD350405060708090A95
:100150000B0C0D0E0F101112131415161718191A77
:100160001B1C1DAFB1B0B50005010906A1010507B3
:1001700019E029E715002501750195088102050C94
:1001800095017508150026FF00190029FF8100055B
:10019000081901290895087501910205079506754A
:1001A00008150026E700190029E78100C0000000BB
:1001B00000240027002A002D003000000000002548
:1001C0000028002B002E003100080B000202020163
:1001D00000090400000102020000052400100105CE
:1001E00024010101042402060524060001070581FB
:1001F0000310004009040100020A00000007050284
:1002000002400000070583024000000403090412B5
:10021000010002EF02014041233680000101020388
:100220000141726475696E6F204C4C4300417264E9
:1002300075696E6F204C656F6E6172646F000000AF
:1002400000002300260029002C002F0004040404D1
:10025000040304050202020204030202020206066B
:100260000606060604040202020404040802011041
:1002700040804010204080408008020401804020DF
:1002800010020110801020404020000000020009F0
:100290000F0000030401000C00000000000000003B
:1002A00000000000000000000005010906A1018512
:1002B00008050719E029E715002501750195088152
:1002C00002190029671500250175019568810295BD
:1002D000017508150026E700190029E78100C0050F
:1002E000010902A101850105091901290815002547
:1002F0000195087501810205010930093109381598
:1003000081257F750895038106C0050C0901A101AF
:1003100085051500250109E909EA7501950281069F
:1003200009E29501810609B09501810609B195019F
:10033000810609B79501810609B59501810609B6BF
:100340009501810609B39501810609B495018106DD
:1003500095068107C000D126AE2711241FBECFEF1E
:10036000DAE0DEBFCDBF27E0A4EFB4E001C01D920C
:10037000A536B207E1F714E0A0E0B1E0ECE3F5E563
:1003800002C005900D92A43FB107D9F711E0CCEA65
:10039000D1E004C02197FE010E945D28CB3AD1072D
:1003A000C9F70E943F220C94912A0C9400003F92BE
:1003B0004F925F926F927F928F929F92AF92BF9275
:1003C000CF92DF92EF92FF920F931F93CF93DF9321
:1003D000CDB7DEB763970FB6F894DEBF0FBECDBFC3
:1003E0008C016CE971E00E94D519882321F08BEA19
:1003F00091E00E94B91F67EB71E0C8010E94D51916
:10040000882321F086EC91E00E94B91F6AED71E02B
:10041000C8010E94D519882321F086EC91E00E9442
:10042000B91F6CEE71E0C8010E94D519882321F034
:100430008DEF91E00E94B91F60E172E0C8010E9457
:10044000D519882319F080E292E0A4C164E272E039
:10045000CE0101960E94C31ABE016F5F7F4FC80193
:100460000E94BA19F82ECE0101960E94A41AFF200C
:1004700009F4F5C0C8010E94871FAC014F5F5F4FB0
:10048000B801CE0101960E947A0EBE016F5F7F4FC8
:10049000C8010E94F419CE0101960E94A41AC80155
:1004A0000E94871F9C0140E050E0B801CE010196F8
:1004B0000E94D81ACE0101960E94AF19962ECE0145
:1004C00001960E94A41AC8010E94871FAC014F5FC9
:1004D0005F4FB801CE0101960E947A0EBE016F5F98
:1004E0007F4FC8010E94F419CE0101960E94A41A00
:1004F000C8010E94871F9C0140E050E0B801CE0176
:1005000001960E94D81ACE0101960E94AF19A62E1C
:10051000CE0101960E94A41AC8010E94871FAC0157
:100520004F5F5F4FB801CE0101960E947A0EBE0167
:100530006F5F7F4FC8010E94F419CE0101960E949F
:10054000A41AC8010E94871F9C0140E050E0B80136
:10055000CE0101960E94D81ACE0101960E94AF19D1
:10056000B62ECE0101960E94A41AC8010E94871FD0
:10057000AC014F5F5F4FB801CE0101960E947A0E29
:10058000BE016F5F7F4FC8010E94F419CE01019632
:100590000E94A41AC8010E94871F9C0140E050E0FD
:1005A000B801CE0101960E94D81ACE0101960E9490
:1005B000AF19C62ECE0101960E94A41AC8010E944E
:1005C000871FAC014F5F5F4FB801CE0101960E94BB
:1005D0007A0EBE016F5F7F4FC8010E94F419CE01F1
:1005E00001960E94A41AC8010E94AF19D62E86E077
:1005F000A89E70011124E90CF11C88E1B89EE00C62
:10060000F11C1124EE0CFF1C6C2DC7010E9414225A
:100610006D2DC70101960E94142282E392E00E9490
:10062000851F892D0E949F1F86E592E00E94851FED
:100630008A2D0E949F1F86E592E00E94851F8B2DC8
:100640000E949F1F86E592E00E94851F8C2D0E94CC
:100650009F1F86E592E00E94851F8D2D9CC16BE354
:1006600072E0CE0101960E94C31ABE016F5F7F4FF8
:10067000C8010E94BA19F82ECE0101960E94A41A50
:10068000FF2009F44EC0C8010E94871FAC014F5FD4
:100690005F4FB801CE0101960E947A0EBE016F5FD6
:1006A0007F4FC8010E94F419CE0101960E94A41A3E
:1006B000C8010E94871F9C0140E050E0B801CE01B4
:1006C00001960E94D81ACE0101960E94AF194B01E3
:1006D0005C01CE0101960E94A41AC8010E94871FE6
:1006E000AC014F5F5F4FB801CE0101960E947A0EB8
:1006F000BE016F5F7F4FC8010E94F419CE010196C1
:100700000E94A41AC8010E94AF19F62EC4010E94CB
:1007100014228CE492E00E94851FC4010E942920CB
:100720000BC168E572E0CE0101960E94C31ABE01BA
:100730006F5F7F4FC8010E94BA19F82ECE01019653
:100740000E94A41AFF2049F1C8010E94871FAC0132
:100750004F5F5F4FB801CE0101960E947A0EBE0135
:100760006F5F7F4FC8010E94F419CE0101960E946D
:10077000A41AC8010E94AF19F62E89E18F1540F026
:100780006F2D8FEF93E00E94142286E692E0D6C090
:1007900087E792E00E94B91F3DC162E972E0C8019B
:1007A0000E94D519882319F08FEF93E02DC060EADD
:1007B00072E0CE0101960E94C31ABE016F5F7F4FA7
:1007C000C8010E94BA19F82ECE0101960E94A41AFF
:1007D000FF20E9F0C8010E94871FAC014F5F5F4F07
:1007E000B801CE0101960E947A0EBE016F5F7F4F65
:1007F000C8010E94F419CE0101960E94A41AC801F2
:100800000E94AF19862F90E00E943022C4C061EB95
:1008100072E0CE0101960E94C31ABE016F5F7F4F46
:10082000C8010E94BA19F82ECE0101960E94A41A9E
:10083000FF2009F487C0C8010E94871FAC014F5FE9
:100840005F4FB801CE0101960E947A0EBE016F5F24
:100850007F4FC8010E94F419CE0101960E94A41A8C
:10086000C8010E94871F9C0140E050E0B801CE0102
:1008700001960E94D81ACE0101960E94AF19E62E69
:10088000CE0101960E94A41AC8010E94871FAC01E4
:100890004F5F5F4FB801CE0101960E947A0EBE01F4
:1008A0006F5F7F4FC8010E94F419CE0101960E942C
:1008B000A41AC8010E94871F9C0140E050E0B801C3
:1008C000CE0101960E94D81ACE0101960E94AF195E
:1008D000C62ECE0101960E94A41AC8010E94871F4D
:1008E000AC014F5F5F4FB801CE0101960E947A0EB6
:1008F000BE016F5F7F4FC8010E94F419CE010196BF
:100900000E94A41AC8010E94AF19A62EB12CD12CA6
:10091000F12CA501B601C7010E94660E982EA50113
:10092000B601C7010E94510EF82E8FEB92E00E9493
:10093000851F892D0E949F1F86E592E00E94851FDA
:100940008F2D29C06BEC72E0CE0101960E94C31A74
:10095000BE016F5F7F4FC8010E94BA19F82ECE0109
:1009600001960E94A41AFF2011F084E014C069EDE2
:1009700072E0CE0101960E94C31ABE016F5F7F4FE5
:10098000C8010E94BA19F82ECE0101960E94A41A3D
:10099000FF2021F086E00E94A61F3CC067EE72E0B7
:1009A000CE0101960E94C31ABE016F5F7F4FC8013E
:1009B0000E94BA19F82ECE0101960E94A41AFF20B7
:1009C00049F1C8010E94871FAC014F5F5F4FB8011A
:1009D000CE0101960E947A0EBE016F5F7F4FC80163
:1009E0000E94F419CE0101960E94A41AC8010E9427
:1009F000AF19611103C01092140103C081E080930C
:100A0000140188EF92E00E94851F8091140190E00C
:100A10000E942920B801CE0107960E94A91A64E01D
:100A200073E0CE0101960E94C31ABE016F5F7F4F33
:100A3000CE0107960E94BA19F82ECE0101960E94A7
:100A4000A41AFF2009F440C0CE0107960E94871F18
:100A5000AC014F5F5F4FBE01695F7F4FCE010196D2
:100A60000E947A0EBE016F5F7F4FCE0107960E94F3
:100A7000F419CE0101960E94A41ACE0107960E9495
:100A8000AF19F62E82E08F15D0F06F2D8EEF93E028
:100A90000E94142280918606813019F481E097E04B
:100AA00002C08DEE96E00E94A40FF09286060E948E
:100AB000621F83E193E00E94851F8F2D11C082E2A7
:100AC00093E00E94B91F0EC06DE373E0CE0107965C
:100AD0000E94D519882331F08EEF93E00E943022D6
:100AE0000E94A61FCE0107960E94A41AB801CE014B
:100AF0000D960E94A91A6CE473E0CE010D960E9437
:100B0000D519882321F08BE593E00E94851FBE0153
:100B1000635F7F4FCE0107960E94A91A6CE473E0D1
:100B2000CE0101960E94C31ABE016F5F7F4FCE01B6
:100B300007960E94BA19182FCE0101960E94A41A96
:100B4000112329F085E693E00E94851F66C06DE6BB
:100B500073E0CE0101960E94C31ABE016F5F7F4F02
:100B6000CE0107960E94BA19182FCE0101960E9455
:100B7000A41A1123B1F1CE0107960E94871FAC0180
:100B80004F5F5F4FBE01695F7F4FCE0101960E94AC
:100B90007A0EBE016F5F7F4FCE0107960E94F41957
:100BA000CE0101960E94A41ACE0107960E94871FCB
:100BB0009C0140E050E0BE01695F7F4FCE0101968D
:100BC0000E94D81ACE0101960E94AF19CE0101965B
:100BD0006B8B0E94A41A6B896093130182E893E0E7
:100BE00016C063E973E0CE0101960E94C31ABE01EC
:100BF0006F5F7F4FCE0107960E94BA19182FCE0162
:100C000001960E94A41A112341F088EA93E00E9401
:100C1000851F809113010E94A61FCE0107960E9496
:100C2000A41ABE01635F7F4FCE0107960E94A91AE6
:100C300069EB73E0CE0101960E94C31ABE016F5F9B
:100C40007F4FCE0107960E94BA19182FCE01019648
:100C50000E94A41A112309F426C1CE0107960E940E
:100C6000871FAC014F5F5F4FBE01695F7F4FCE01B1
:100C700001960E947A0EBE016F5F7F4FCE010796EC
:100C80000E94F419CE0101960E94A41ACE01079683
:100C90000E94871F9C0140E050E0BE01695F7F4FCA
:100CA000CE0101960E94D81ACE0101960E94AF197A
:100CB000D62ECE0101960E94A41ACE0107960E945C
:100CC000871FAC014F5F5F4FBE01695F7F4FCE0151
:100CD00001960E947A0EBE016F5F7F4FCE0107968C
:100CE0000E94F419CE0101960E94A41ACE01079623
:100CF0000E94871F9C0140E050E0BE01695F7F4F6A
:100D0000CE0101960E94D81ACE0101960E94AF1919
:100D1000E62ECE0101960E94A41ACE0107960E94EB
:100D2000871FAC014F5F5F4FBE01695F7F4FCE01F0
:100D300001960E947A0EBE016F5F7F4FCE0107962B
:100D40000E94F419CE0101960E94A41ACE010796C2
:100D50000E94871F9C0140E050E0BE01695F7F4F09
:100D6000CE0101960E94D81ACE0101960E94AF19B9
:100D7000F62ECE0101960E94A41ACE0107960E947B
:100D8000871FAC014F5F5F4FBE01695F7F4FCE0190
:100D900001960E947A0EBE016F5F7F4FCE010796CB
:100DA0000E94F419CE0101960E94A41ACE01079662
:100DB0000E94871F9C0140E050E0BE01695F7F4FA9
:100DC000CE0101960E94D81ACE0101960E94AF1959
:100DD000062FCE0101960E94A41ACE0107960E940A
:100DE000871FAC014F5F5F4FBE01695F7F4FCE0130
:100DF00001960E947A0EBE016F5F7F4FCE0107966B
:100E00000E94F419CE0101960E94A41ACE01079601
:100E10000E94AF19162F81E08093620688E08093CC
:100E20008406109263061092850662E087ED96E0D4
:100E30000E948A136D2D87ED96E00E948A136E2D15
:100E400087ED96E00E948A136F2D87ED96E00E9451
:100E50008A13802F002E000C990B0E942420612FF2
:100E600087ED96E00E948A130E94C71F8AEC93E0E8
:100E70000E94851F8D2D0E949F1F88ED93E00E9488
:100E8000851F8E2D0E949F1F88ED93E00E94851F75
:100E90008F2D0E949F1F88ED93E00E94851F802F59
:100EA0000E949F1F6EC06BED73E0CE0101960E9401
:100EB000C31ABE016F5F7F4FCE0107960E94BA1919
:100EC000182FCE0101960E94A41A112309F461C0C3
:100ED000CE0107960E94871FAC014F5F5F4FBE0196
:100EE000695F7F4FCE0101960E947A0EBE016F5F4F
:100EF0007F4FCE0107960E94F419CE0101960E9401
:100F0000A41ACE0107960E94871F9C0140E050E082
:100F1000BE01695F7F4FCE0101960E94D81ACE01B3
:100F200001960E94AF196B017C01CE0101960E94CF
:100F3000A41ACE0107960E94871FAC014F5F5F4F36
:100F4000BE01695F7F4FCE0101960E947A0EBE01FD
:100F50006F5F7F4FCE0107960E94F419CE01019674
:100F60000E94A41ACE0107960E94AF19162FC6013F
:100F70000E94E20D8FEE93E00E94851FC6010E9441
:100F8000292088ED93E00E94851F812F0E94A61FD3
:100F90008FC065E074E0CE0101960E94C31ABE01C5
:100FA0006F5F7F4FCE0107960E94BA19182FCE01AE
:100FB00001960E94A41A112351F1CE0107960E94B6
:100FC000871FAC014F5F5F4FBE01695F7F4FCE014E
:100FD00001960E947A0EBE016F5F7F4FCE01079689
:100FE0000E94F419CE0101960E94A41ACE01079620
:100FF0000E94AF19162F653138F48FEF93E00E94ED
:10100000E20D86E194E0BFCF8EE294E036C06CE55D
:1010100074E0CE0101960E94C31ABE016F5F7F4F3C
:10102000CE0107960E94BA19182FCE0101960E9490
:10103000A41A112329F1CE0107960E94871FAC0143
:101040004F5F5F4FBE01695F7F4FCE0101960E94E7
:101050007A0EBE016F5F7F4FCE0107960E94F41992
:10106000CE0101960E94A41ACE0107960E94AF19E4
:10107000862F0E94130E80E794E00E94B91F18C0CB
:101080006CE473E0CE0101960E94C31ABE016F5F4B
:101090007F4FCE0107960E94BA19182FCE010196F4
:1010A0000E94A41A112321F083E894E00E94851F76
:1010B000CE0107960E94A41ABE01635F7F4FCE0146
:1010C00007960E94A91A6CE473E0CE0101960E9473
:1010D000C31ABE016F5F7F4FCE0107960E94BA19F7
:1010E000182FCE0101960E94A41A112321F087E83F
:1010F00094E00E94851FCE0107960E94A41ABE01AB
:10110000635F7F4FCE0107960E94A91A6CE473E0DB
:10111000CE0101960E94C31ABE016F5F7F4FCE01C0
:1011200007960E94BA19182FCE0101960E94A41AA0
:10113000112329F087E994E00E94851F85C16DE89D
:1011400074E0CE0101960E94C31ABE016F5F7F4F0B
:10115000CE0107960E94BA19182FCE0101960E945F
:10116000A41A112309F470C1CE0107960E94871FAB
:10117000AC014F5F5F4FBE01695F7F4FCE010196AB
:101180000E947A0EBE016F5F7F4FCE0107960E94CC
:10119000F419CE0101960E94A41ACE0107960E946E
:1011A000871F9C0140E050E0BE01695F7F4FCE0188
:1011B00001960E94D81ACE0101960E94AF19F62E10
:1011C000CE0101960E94A41ACE0107960E94871FA5
:1011D000AC014F5F5F4FBE01695F7F4FCE0101964B
:1011E0000E947A0EBE016F5F7F4FCE0107960E946C
:1011F000F419CE0101960E94A41ACE0107960E940E
:10120000871F9C0140E050E0BE01695F7F4FCE0127
:1012100001960E94D81ACE0101960E94AF19E62EBF
:10122000CE0101960E94A41A82E1F89E8001112449
:101230008BE08F1548F088E08E1530F06E2DC801D8
:10124000875A9D4F0E941422480188EA881A8DEF20
:10125000980A580185EAA81A8DEFB80A065A1D4F58
:10126000C12CD12C412C512C32014394CE01079634
:101270000E94871FAC014F5F5F4FBE01695F7F4FC8
:10128000CE0101960E947A0EBE016F5F7F4FCE01A4
:1012900007960E94F419CE0101960E94A41ACE016D
:1012A00007960E94871F9C0140E050E0BE01695FE5
:1012B0007F4FCE0101960E94D81ACE0101960E945E
:1012C000AF19CE0101966B8B0E94A41A6B898BE03B
:1012D0008F1518F0C8010E941422CE0107960E94B3
:1012E000871FAC014F5F5F4FBE01695F7F4FCE012B
:1012F00001960E947A0EBE016F5F7F4FCE01079666
:101300000E94F419CE0101960E94A41ACE010796FC
:101310000E94871F9C0140E050E0BE01695F7F4F43
:10132000CE0101960E94D81ACE0101960E94AF19F3
:10133000CE0101966B8B0E94A41A6B898BE08F15EE
:1013400018F0C5010E941422CE0107960E94871F43
:10135000AC014F5F5F4FBE01695F7F4FCE010196C9
:101360000E947A0EBE016F5F7F4FCE0107960E94EA
:10137000F419CE0101960E94A41ACE0107960E948C
:10138000871F9C0140E050E0BE01695F7F4FCE01A6
:1013900001960E94D81ACE0101960E94AF19362EEE
:1013A000CE0101960E94A41A8BE08F15C8F0C401EB
:1013B0000E943022282FD301C2010C2C04C0880FB8
:1013C000991FAA1FBB1F0A94D2F7332019F0622F6E
:1013D000682B03C08095622F6823C4010E941422E9
:1013E0008FEFC81AD80A82E0A80EB11C0E5F1F4FFB
:1013F00088E0C816D10409F039CFCE0107960E94C3
:10140000871FAC014F5F5F4FBE01695F7F4FCE0109
:1014100001960E947A0EBE016F5F7F4FCE01079644
:101420000E94F419CE0101960E94A41A8DE994E05D
:101430000E94851F8F2D0E949F1F86E592E00E94CB
:10144000851F8E2D0E94A61FCE0107960E94A41A0A
:10145000BE01635F7F4FCE0107960E94A91A6CE41C
:1014600073E0CE0101960E94C31ABE016F5F7F4FE9
:10147000CE0107960E94BA19182FCE0101960E943C
:10148000A41A112321F088EA94E00E94851FCE015E
:1014900007960E94A41ABE01635F7F4FCE01079694
:1014A0000E94A91A6CE473E0CE0101960E94C31A4F
:1014B000BE016F5F7F4FCE0107960E94BA19182FA9
:1014C000CE0101960E94A41A112329F082EB94E028
:1014D0000E94851F33C26BEB74E0CE0101960E941F
:1014E000C31ABE016F5F7F4FCE0107960E94BA19E3
:1014F000182FCE0101960E94A41A112309F41EC2CE
:10150000CE0107960E94871FAC014F5F5F4FBE015F
:10151000695F7F4FCE0101960E947A0EBE016F5F18
:101520007F4FCE0107960E94F419CE0101960E94CA
:10153000A41ACE0107960E94871F9C0140E050E04C
:10154000BE01695F7F4FCE0101960E94D81ACE017D
:1015500001960E94AF19162FCE0101960E94A41A7F
:10156000CE0107960E94871FAC014F5F5F4FBE01FF
:10157000695F7F4FCE0101960E947A0EBE016F5FB8
:101580007F4FCE0107960E94F419CE0101960E946A
:10159000A41ACE0107960E94871F9C0140E050E0EC
:1015A000BE01695F7F4FCE0101960E94D81ACE011D
:1015B00001960E94AF19562ECE0101960E94A41AE0
:1015C000CE0107960E94871FAC014F5F5F4FBE019F
:1015D000695F7F4FCE0101960E947A0EBE016F5F58
:1015E0007F4FCE0107960E94F419CE0101960E940A
:1015F000A41ACE0107960E94871F9C0140E050E08C
:10160000BE01695F7F4FCE0101960E94D81ACE01BC
:1016100001960E94AF19662ECE0101960E94A41A6F
:10162000CE0107960E94871FAC014F5F5F4FBE013E
:10163000695F7F4FCE0101960E947A0EBE016F5FF7
:101640007F4FCE0107960E94F419CE0101960E94A9
:10165000A41ACE0107960E94871F9C0140E050E02B
:10166000BE01695F7F4FCE0101960E94D81ACE015C
:1016700001960E94AF19762ECE0101960E94A41AFF
:10168000CE0107960E94871FAC014F5F5F4FBE01DE
:10169000695F7F4FCE0101960E947A0EBE016F5F97
:1016A0007F4FCE0107960E94F419CE0101960E9449
:1016B000A41ACE0107960E94871F9C0140E050E0CB
:1016C000BE01695F7F4FCE0101960E94D81ACE01FC
:1016D00001960E94AF19862ECE0101960E94A41A8F
:1016E000CE0107960E94871FAC014F5F5F4FBE017E
:1016F000695F7F4FCE0101960E947A0EBE016F5F37
:101700007F4FCE0107960E94F419CE0101960E94E8
:10171000A41ACE0107960E94871F9C0140E050E06A
:10172000BE01695F7F4FCE0101960E94D81ACE019B
:1017300001960E94AF19962ECE0101960E94A41A1E
:10174000CE0107960E94871FAC014F5F5F4FBE011D
:10175000695F7F4FCE0101960E947A0EBE016F5FD6
:101760007F4FCE0107960E94F419CE0101960E9488
:10177000A41ACE0107960E94871F9C0140E050E00A
:10178000BE01695F7F4FCE0101960E94D81ACE013B
:1017900001960E94AF19A62ECE0101960E94A41AAE
:1017A000CE0107960E94871FAC014F5F5F4FBE01BD
:1017B000695F7F4FCE0101960E947A0EBE016F5F76
:1017C0007F4FCE0107960E94F419CE0101960E9428
:1017D000A41ACE0107960E94871F9C0140E050E0AA
:1017E000BE01695F7F4FCE0101960E94D81ACE01DB
:1017F00001960E94AF19B62ECE0101960E94A41A3E
:10180000CE0107960E94871FAC014F5F5F4FBE015C
:10181000695F7F4FCE0101960E947A0EBE016F5F15
:101820007F4FCE0107960E94F419CE0101960E94C7
:10183000A41ACE0107960E94AF19062F143180F525
:1018400088E0189F70011124670186EBC81A8CEF9D
:10185000D80AC6010E9430228C7F682F650DC60110
:101860000E941422C6010E9430228370962D990F87
:10187000990F682F690FC6010E941422672DC701B6
:10188000845B9C4F0E941422692DC701825B9C4F90
:101890000E9414226B2DC701805B9C4F0E94142272
:1018A000482D60E0812F0E94AC0D4A2D61E0812F10
:1018B0000E94AC0D402F62E0812F0E94AC0D8EEC97
:1018C00094E00E94851F812F0E949F1F86E592E071
:1018D0000E94851F852D0E949F1F86E592E00E9431
:1018E000851F862D0E949F1F86E592E00E94851F1E
:1018F000872D0E949F1F86E592E00E94851F882DFC
:101900000E949F1F86E592E00E94851F892D0E94FC
:101910009F1F86E592E00E94851F8A2D0E949F1FCF
:1019200086E592E00E94851F8B2D0E949F1F86E511
:1019300092E00E94851F802F0E94A61FCE0107966D
:101940000E94A41ABE01635F7F4FCE0107960E94DA
:10195000A91A6CE473E0CE0101960E94C31ABE017D
:101960006F5F7F4FCE0107960E94BA19182FCE01E4
:1019700001960E94A41A112321F08CED94E00E949C
:10198000851FCE0107960E94A41ABE01635F7F4F98
:10199000CE0107960E94A91A6CE473E0CE0101966D
:1019A0000E94C31ABE016F5F7F4FCE0107960E944F
:1019B000BA19182FCE0101960E94A41A112321F002
:1019C00087EE94E00E94851FCE0107960E94A41A1C
:1019D0006CE473E0CE010D960E94D519882321F0A6
:1019E00081EF94E00E94851FCE010D960E94A41AFB
:1019F00063960FB6F894DEBF0FBECDBFDF91CF91D7
:101A00001F910F91FF90EF90DF90CF90BF90AF901C
:101A10009F908F907F906F905F904F903F90089530
:101A2000EF92FF920F931F93CF93DF93E62FF0E097
:101A3000E038F10540F021E030E0DC0113963C9302
:101A40002E93129722C0D42F7C01E851FF4FC491EE
:101A5000DC01ED91FC916C2F6F770484F585E02D0E
:101A600009958C01C7FF13C0892B11F4D1110DC04A
:101A7000D701ED91FC910484F585E02D4D2F61EEA9
:101A8000C7010995802B912B02C080E090E0DF9187
:101A9000CF911F910F91FF90EF9008958C3070F4CB
:101AA000683060F422E1829FC0011124860F911DED
:101AB000860F911D855A9D4F0C94302280E0089529
:101AC000CF939091D805882311F09F5F01C091506A
:101AD0009093D805C091D8058FEF93E0CF3F31F4B4
:101AE0000E94302281508093D80506C00E94302287
:101AF000C81710F01092D805CF9108950F931F9337
:101B0000CF9381E080930A0506EF14E0C0E0F8016E
:101B100080818823C1F0C11102C080EE03C0C130B2
:101B200021F481EE0E94791F0CC0C23011F482EEC4
:101B3000F9CFC33011F486EEF5CF8091D8058093AC
:101B4000D705F8011082CF5F0F5F1F4FC431F9F640
:101B5000CF911F910F910895843178F4633068F428
:101B600028E0829FC0011124860F911D860F911DD0
:101B7000642F835B9C4F0C9414220895843170F47D
:101B8000633060F428E0829FC0011124860F911D0C
:101B9000860F911D835B9C4F0C94302280E008954A
:101BA000843170F4633060F428E0829FC001112416
:101BB000845B9C4F860F911D860F911D0C943022E3
:101BC00080E008950F931F93CF93DF931F92CDB7BB
:101BD000DEB78C0181E08093620688E08093840602
:101BE000109263061092850684E090E069830E945B
:101BF0002420698187ED96E00E948A130F3F11052A
:101C000041F03CF08FEF90E00E9424200F5F11091B
:101C1000F5CFC8010E9424200F90DF91CF911F9132
:101C20000F910C94C71FCF93DF931F92CDB7DEB7F0
:101C3000682F81E08093620688E08093840610928A
:101C400063061092850686E090E069830E94242056
:101C5000698187ED96E00E948A130F90DF91CF9102
:101C60000C94C71FCF93DF931F92CDB7DEB7682FB9
:101C700081E08093620688E0809384061092630678
:101C80001092850681E090E069830E94242069819A
:101C900087ED96E00E948A130F90DF91CF910C940C
:101CA000C71FE6E0E69F9001E79F300D1124820FE9
:101CB000931F68E1649F9001659F300D1124820F8E
:101CC000931F880F991F01960C943022E6E0E69F3F
:101CD0009001E79F300D1124820F931F68E1649FEC
:101CE0009001659F300D1124820F931F880F991F5B
:101CF0000C943022CF93DF93EC01FB0124813581DA
:101D00000E94D81ACE01DF91CF9108950F931F93AF
:101D1000CF93DF93EC0140E00E94100D8C01892BE2
:101D200039F0E881F9810284F385E02DCE0109952F
:101D3000C801DF91CF911F910F9108950F931F93C9
:101D4000CF93DF93EC0141E00E94100D8C01892BB1
:101D500039F0E881F9810284F385E02DCE010995FF
:101D6000C801DF91CF911F910F910895FF920F93BA
:101D70001F93CF93DF938C01F62E0E949E0EEC01F1
:101D8000892B21F06F2DC8010E94860ECE01DF91B4
:101D9000CF911F910F91FF900895CF93DF93D82F8C
:101DA000C62F80911401882309F458C0611104C022
:101DB0008D2F0E94791F52C0613059F48091F50433
:101DC0009091D705891318C01092D7051092F50489
:101DD00045C06230A1F48091F4048111EFCF80916D
:101DE00086066CE2813019F481E097E002C08DEE46
:101DF00096E00E94B60EE2CF8093D7052FC06C30DC
:101E000019F460E080EE24C06D3001F16E3019F4F9
:101E100060E086EE1DC06F3039F460E080EE0E9415
:101E2000CD0E60E081EE14C0603129F460E080EEF8
:101E30000E94CD0E07C0613119F460E080EE04C04D
:101E4000623161F460E081EE0E94CD0E60E082EECE
:101E50000E94CD0E60E08D2F0E94CD0E8091140166
:101E6000882371F18CEE8C0F8A3050F5C43119F44F
:101E700060E080EE04C0C53129F460E081EE0E948C
:101E8000CD0E0EC0C63119F460E082EEF8CFC73136
:101E900019F460E086EEF3CF8091D8058093D705E2
:101EA0008091F40481110CC0809186066D2F8130E1
:101EB00019F481E097E002C08DEE96E00E94B60E24
:101EC00080911401882329F0C33119F48D2F0E94C9
:101ED0009C21809114018823A1F1CF3139F48091A4
:101EE000170180588D1B809317012BC0C03239F425
:101EF0008091160180588D1B8093160122C0C1323B
:101F000039F48091150180588D1B8093150119C0FB
:101F1000C232B9F4D13011F481E00FC0D23011F4E3
:101F200082E00BC0D33011F484E007C0D43011F448
:101F300088E003C0D53029F480E1DF91CF910C9483
:101F4000B820DF91CF9108950F931F93CF93DF9324
:101F5000EC01E881F9810084F185E02D09958C017F
:101F6000892B39F0E881F9810284F385E02DCE01D7
:101F70000995C801DF91CF911F910F9108959F920C
:101F8000AF92BF92CF92DF92EF92FF920F931F9387
:101F9000CF93DF9300D01F92CDB7DEB7182F062F57
:101FA00081E08093F40480911401882309F481C0B6
:101FB000611104C0812F0E946D1F7BC0613019F434
:101FC0001092F50406C0623039F41092F5041092B4
:101FD000F4041093D7056DC0633059F5111102C098
:101FE00081E003C0113021F480E00E94600D61C0E7
:101FF000F090D80521E00F2C01C0220F0A94EAF7D7
:102000003AE0E32E220F49F0F3948FEF93E02B8315
:102010000E9430222B81F81610F021E0F12C822F43
:10202000812319F0F092D80544C0EA94E110EACF78
:10203000F9CF653079F48091D70590E0212F012EFA
:10204000000C330B8217930721F68091D8058093FB
:10205000D7052FC06C3019F460E080EE24C06D30DD
:1020600001F16E3019F460E086EE1DC06F3039F476
:1020700060E080EE0E94BF0F60E081EE14C060312E
:1020800029F460E080EE0E94BF0F07C0613119F4AF
:1020900060E080EE04C0623161F460E081EE0E9495
:1020A000BF0F60E082EE0E94BF0F60E0812F0E94B0
:1020B000BF0F80911401882361F1063051F58091A2
:1020C0008606813019F481E097E002C08DEE96E03B
:1020D0000E94A40F612F8EEF93E00E941422809142
:1020E0008606813019F481E097E002C08DEE96E01B
:1020F0000E94A40F109386060E94621F809186069C
:10210000813019F481E097E002C08DEE96E00E94E4
:10211000A40F80911401882389F10A30A9F515369E
:10212000ACF480911301212F012E000C330B280FEA
:10213000311D37FF03C01092130122C02F3F31051C
:1021400019F014F08FEF17C0810F15C0153699F3F1
:10215000163611F480E20FC0173611F480E40BC07C
:10216000183611F480E607C0193611F480E803C070
:102170001A3631F480EA8093130102C00A3021F448
:10218000809113010E94130E80911401882359F14C
:10219000043049F5111102C081E017C0113011F46B
:1021A00082E013C0123011F4098310C0133011F40F
:1021B00088E00BC0143011F480E107C0153011F431
:1021C00080E403C0163079F480E889831A820E9483
:1021D0005E2122E030E0AE014F5F5F4F65E00E947C
:1021E000D2180E944C1F80911401882309F452C018
:1021F000073009F04FC01C3008F04CC022E1129F9C
:1022000060011124C601875A9D4F0E943022982EEA
:10221000560186EAA81A8DEFB80AE12CF12C28EABB
:10222000C21A2DEFD20AE91430F5C6010E943022FD
:10223000282F30E00E2C02C0359527950A94E2F73E
:102240006E2D812F20FFFBC00E944E0D682FC5010F
:102250006B830E9430226B810E94CD0E65E070E09E
:1022600080E090E00E9420178FEFE81AF80A22E041
:10227000A20EB11CD8CF8091D8058093D70580914C
:102280008606813019F481E097E002C08DEE96E079
:102290000E94A40F80911401882311F1043119F4D4
:1022A00060E080EE09C0053119F460E081EE04C001
:1022B000063139F460E082EE0E94BF0F1092F40400
:1022C0000FC0073119F460E086EEF6CF88EE800F7C
:1022D000863030F41092F40489EE800F8093D70595
:1022E00080911401882309F442C0033109F03FC0F2
:1022F000C12E012E000CDD08F601E555FA4F808154
:102300008330A8F5FF24F394F80EF082143158F4CA
:1023100028E0129FC0011124865B9C4F0E9430224E
:102320008695869501C080E0F601EE0FFF1FED5700
:10233000FA4F22E3829FC001112491838083F6012A
:10234000E159FA4F81E0808383E0F81669F06F2D40
:10235000812F0E94D00DE82E6F2D812F0E94BE0D7F
:10236000E11005C0811103C0812F0E9439128091B4
:102370001401882369F10E3149F5E12F012E000C7B
:10238000FF0BEA50FB4F908181E0892780838823EF
:10239000E9F0111102C080EE03C0113021F481EE8A
:1023A0000E946D1F10C0123011F482EEF9CF13306D
:1023B00011F486EEF5CF8CEF810F803120F48DEF94
:1023C000810F8093D70510920A0502C00E947E0DEE
:1023D000809114018823F1F10F3139F480911701B4
:1023E0008058180F1093170135C0003239F48091CE
:1023F00016018058180F109316012CC0013239F4C1
:10240000809115018058180F1093150123C00232D6
:1024100009F5113011F481E00FC0123011F482E09F
:102420000BC0133011F484E007C0143011F488E0BD
:1024300003C0153079F480E10E94AB200BC00E94EC
:102440004E0D682FC5016B830E9430226B810E9464
:10245000BF0F04CF0F900F900F90DF91CF911F917E
:102460000F91FF90EF90DF90CF90BF90AF909F9033
:102470000895FF920F931F93CF93DF93082FC82FD8
:10248000D0E0FE01E555FA4F10811150612F0E94F6
:10249000D00DF82E612F802F0E94BE0DCC0FDD1FB6
:1024A000CD57DA4F2FEF3FEF39832883682F8F2DD9
:1024B000DF91CF911F910F91FF900C94BF0FCF939D
:1024C000DF93EC01E881F9810084F185E02D099525
:1024D000E881F9810284F385E02DCE01DF91CF916F
:1024E0000994CF92DF92EF92FF920F931F93CF93B5
:1024F000DF936C017A018B01C0E0D0E0CE15DF05DF
:1025000089F0D8016D918D01D601ED91FC9101907A
:10251000F081E02DC6010995892B11F47E0102C0DE
:102520002196ECCFC701DF91CF911F910F91FF90C2
:10253000EF90DF90CF900895CF93DF931F92CDB7A8
:10254000DEB76983DC01ED91FC910280F381E02D1F
:1025500041E050E0BE016F5F7F4F09950F90DF9122
:10256000CF91089583E08093E9008091F200882361
:1025700019F08AE38093E8000895FC01848595852D
:1025800097FD0BC09FB7F89482E08093E90080919B
:10259000F2009FBF90E0019608959FB7F89482E003
:1025A0008093E9008091F2009FBF90E008953FB7CB
:1025B000F8948091530590915405A0915505B091E0
:1025C000560526B5A89B05C02F3F19F00196A11D01
:1025D000B11D3FBFBA2FA92F982F8827820F911DB9
:1025E000A11DB11DBC01CD0142E0660F771F881F00
:1025F000991F4A95D1F7089585ED8093BC0080918D
:10260000BC0084FDFCCF10926106089540912D0519
:10261000262F30E0240F311D21323105DCF42091CA
:1026200061062430C9F4FC0180E090E0861758F47C
:1026300030912D052191DC01A55FBA4FA30FB11D8B
:102640002C930196F3CF80912D05680F60932D0593
:1026500080E0089581E0089582E008950895E09172
:10266000180680911706E81730F4F0E0E75EF94F9E
:10267000808190E008958FEF9FEF08959091180664
:1026800080911706981750F4E92FF0E0E75EF94FB4
:10269000208130E09F5F9093180602C02FEF3FEF3C
:1026A000C90108958091170690E020911806821BB9
:1026B00091090895CF92DF92EF92FF920F931F93AB
:1026C000CF93DF937C01262F972F8A01809162069A
:1026D000882391F0C62FD72F6E01C40ED51ECC15BE
:1026E000DD0571F06991D701ED91FC910190F081C8
:1026F000E02DC7010995F3CF642F822F0E940613A6
:10270000C801DF91CF911F910F91FF90EF90DF9063
:10271000CF900895CF93DF931F92CDB7DEB7698333
:10272000209162062223D1F020918506203240F0CC
:1027300021E030E0FC013383228380E090E015C08B
:1027400080916306E82FF0E0EC59F94F998190836E
:102750008F5F809363068093850605C061E0CE019C
:1027600001960E94061381E090E00F90DF91CF91D7
:102770000895FC0134969C01245F3F4F80E090E077
:102780004081411101961192E217F307C9F70895AC
:10279000CF93DF93DC0150E2560F5830D0F41496FB
:1027A0006C911497442351F021E030E001C0220FD6
:1027B0005A95EAF7262B14962C9337C081E090E0C7
:1027C00001C0880F5A95EAF78095862314968C935A
:1027D0002CC0FC0136964423B9F00C96EF012991E8
:1027E000261719F1C817D907D1F780E090E0219199
:1027F000211105C0A80FB91F16966C9316C001963B
:1028000086309105A1F70EC080E090E0219126135B
:1028100005C0A80FB91F16961C9207C001968630F6
:102820009105A1F780E090E002C081E090E0DF91A7
:10283000CF910895FC0134969C012D5E3F4F80E0BE
:1028400090E0608160FD0196462F50E055954795D8
:10285000642F452BB9F71192E217F30791F708950A
:10286000FC016836B8F4862F877021E030E001C0A3
:10287000220F8A95EAF7669566956695E60FF11D33
:10288000442319F08581282B03C0209595812923A5
:10289000258326C050E2560F5830B0F4648144239B
:1028A00049F021E030E001C0220F5A95EAF7262BCB
:1028B000248316C081E090E001C0880F5A95EAF7A2
:1028C0008095862384830CC08289442331F0861747
:1028D00011F0811108C0628B03C0861304C0128AF4
:1028E00081E090E0089580E090E00895089580E010
:1028F00090E00895DC01FB0112968C91129790E014
:102900002481358182179307D1F491818081813AA6
:1029100031F481E0913091F0933089F411C081322B
:1029200071F49B3021F482811F968C9305C09A30FC
:1029300031F4828150968C9381E00895089580E06F
:102940000895DC01FB0188E4808389E4818384E4C9
:1029500082831D969C911D979F709F5B93831D960C
:102960008D919C911E9724E0969587952A95E1F785
:102970008F708F5B848385E00895CF93DF93EC01A4
:1029800080911201882331F083E00E94571E1816AF
:10299000190634F081E090E09B838A8380E090E028
:1029A000DF91CF91089583E00E94461E90E0089544
:1029B0000F931F93CF93DF931F92CDB7DEB78C0198
:1029C000FC018485958597FF0EC0CE0101960E947B
:1029D0005F20019719F4298130E002C02FEF3FEF0B
:1029E000F80135872487F801848595850F90DF915C
:1029F000CF911F910F910895CF93DF931F92CDB781
:102A0000DEB7FC018485958597FD05C02FEF3FEF6C
:102A1000358724870BC0CE0101960E945F20019765
:102A200019F4898190E002C08FEF9FEF0F90DF9142
:102A3000CF910895CF93DF93EC01FB018A8190E061
:102A4000248135818217930709F04AC081819081E2
:102A5000913A69F4813009F441C0833011F48F89CF
:102A600003C08230E9F5888D8093F10037C0913240
:102A7000B9F58B3019F482818F8B30C08A3019F40C
:102A80008281888F2BC0893059F566817781838157
:102A9000833079F48C8D9D8D6817790709F58A8DBF
:102AA0009B8D0E94901B8C8D9D8D90689D8F8C8F2F
:102AB00015C0823041F46130710591F461E070E03D
:102AC000CE01499609C0813059F46830710541F44E
:102AD00068E070E0CE010E960E94901B81E001C07C
:102AE00080E0DF91CF910895FB0120812138B9F476
:102AF00023812232A1F4DC0112962C91129730E04E
:102B0000448155814217530751F421E057962C9385
:102B100045E450E068E671E080E80C94C31B80E077
:102B200090E00895CF93DF93CDB7DEB769970FB6E6
:102B3000F894DEBF0FBECDBFFC01DB019C919F5F0F
:102B40009C93BE016F5F7F4F89E1DB011D928A95E7
:102B5000E9F729E0298384E08A8391E09D8383E07B
:102B60008E839F8398872A8721E22B879C879D8766
:102B70009F8722E2288B25E4298B27E02B8B25E0F9
:102B80002C8B8E8B20E430E0388F2F8B998F8281B5
:102B90008B83838180688D8B49E150E080E00E94C7
:102BA000C31B69960FB6F894DEBF0FBECDBFDF9191
:102BB000CF910895EF92FF920F931F93CF93DF93DE
:102BC000FB012081213851F52381223239F5DC01C6
:102BD00012962C9130E04481558142175307F1F44D
:102BE000EC010B851C85E12CF12C0115110591F0F0
:102BF000F801448155816281738180E80E94C31B82
:102C00008F3FFFEF9F0769F0E80EF91ED8010D9185
:102C10001C91EBCF81E08F87C70105C080E090E079
:102C200002C08FEF9FEFDF91CF911F910F91FF9027
:102C3000EF900895615030F02091F100FC01208365
:102C40000196F8CF289884E6809339060895CF93AB
:102C5000DF93FC01DB01C281D381209719F47383D8
:102C6000628308C088859985009711F0EC01FACF3E
:102C7000B987A887808112968C93129781811396C9
:102C80008C931397908115968C911597890F80835B
:102C900080E014969C911497891788F41696CD912C
:102CA000DC911797C80FD11D9881C181D0E0C05029
:102CB000DF4F988391819F5F91838F5FEACF81E09F
:102CC000DF91CF91089580915B0581110DC082E065
:102CD0008093570584E08093580510925A0510920E
:102CE000590581E080935B0587E595E0089590E0C4
:102CF000FC013197EF30F105B0F5EA5AFF4F0C9423
:102D00005D28809180008F7703C0809180008F7D47
:102D100080938000089580918000877FF9CF84B5EB
:102D20008F7702C084B58F7D84BD08958091900017
:102D30008F7707C0809190008F7D03C080919000B5
:102D4000877F8093900008958091C0008F7703C0A3
:102D50008091C0008F7D8093C00008958091C20053
:102D6000877F8093C20008951F93CF93DF93282F0E
:102D700030E0F901E657FD4F8491F901E559FD4F27
:102D8000D491F901E45BFD4FC491CC23C9F0162F17
:102D900081110E947716EC2FF0E0EE0FFF1FE55433
:102DA000FE4FA591B4918FB7F894111105C09C9175
:102DB000ED2FE095E92302C0EC91ED2BEC938FBF52
:102DC000DF91CF911F910895CF93DF9390E0FC01A5
:102DD000E559FD4F2491FC01E45BFD4F849188236C
:102DE00061F190E0880F991FFC01E355FE4FC591FA
:102DF000D491FC01E554FE4FA591B491611109C035
:102E00009FB7F8948881209582238883EC912E23A4
:102E10000BC0623061F49FB7F8943881822F80959F
:102E200083238883EC912E2B2C939FBF06C08FB7F2
:102E3000F894E8812E2B28838FBFDF91CF910895DE
:102E40008F929F92AF92BF92CF92DF92EF92FF92BA
:102E50006B017C010E94D7124B015C01C114D104AB
:102E6000E104F104F1F00E94D712DC01CB018819D2
:102E70009909AA09BB09883E9340A105B10570F3E1
:102E800021E0C21AD108E108F10888EE880E83E03B
:102E9000981EA11CB11CC114D104E104F10419F75E
:102EA000DDCFFF90EF90DF90CF90BF90AF909F90DD
:102EB0008F9008951F920F920FB60F9211242F93A7
:102EC0003F938F939F93AF93BF9380916B059091A6
:102ED0006C05A0916D05B0916E053091520523E00F
:102EE000230F2D3720F40196A11DB11D05C026E842
:102EF000230F0296A11DB11D2093520580936B05EF
:102F000090936C05A0936D05B0936E058091530569
:102F100090915405A0915505B09156050196A11DBB
:102F2000B11D8093530590935405A0935505B0931C
:102F30005605BF91AF919F918F913F912F910F9027
:102F40000FBE0F901F9018951F920F920FB60F9201
:102F500011242F933F934F935F936F937F938F939E
:102F60009F93AF93BF93EF93FF938091B900887FB6
:102F7000803609F49CC068F5883209F45BC090F48F
:102F8000803109F454C038F4882309F4F6C088303D
:102F900009F44DC0F6C0883109F44CC0803209F400
:102FA0005DC0EFC0803409F468C048F4803309F490
:102FB00055C0883309F0E5C080935F06D8C08035DE
:102FC00009F44FC0883509F45DC0883409F0D9C0D0
:102FD000D6C0883909F4C7C0A8F4883709F467C097
:102FE00038F4883609F463C0803709F460C0C9C07A
:102FF000883809F4B8C0803909F45FC0803809F016
:10300000C0C05BC0803B09F486C038F4803A09F444
:1030100066C0883A09F47FC0B4C0803C09F4A7C0F8
:10302000883C09F4A4C0883B09F48AC0AAC08091F6
:103030003C0610C090915E0680915D06981770F571
:10304000E0915E0681E08E0F80935E06F0E0E35C27
:10305000F94F80818093BB0085EC86C080935F062A
:103060008EC0E0915E0681E08E0F80935E068091B7
:10307000BB00F0E0E35CF94F808390915E068091A5
:103080005D066EC0E0915E0681E08E0F80935E0665
:103090008091BB00F0E0E35CF94F80838091600693
:1030A00081116DC081E080933B0684EA61C083E0BA
:1030B0008093610610925105CFCF809151058032E7
:1030C00008F051C0E091510581E08E0F80935105C9
:1030D0008091BB00F0E0EF5CFA4F8083BDCF85ECC0
:1030E0008093BC001092610680915105803230F4CB
:1030F000E0915105F0E0EF5CFA4F108260915105CC
:1031000070E0E0912F05F091300581E395E009959D
:103110001092510536C084E08093610610922E050E
:1031200010922D05E0912B05F0912C0509958091C9
:103130002D05811105C081E080932D0510920B05AE
:10314000E0912E0581E08E0F80932E05F0E0E55F83
:10315000FA4F80818093BB0090912E0580912D05C0
:10316000981708F479CF85E88093BC000AC085ECF5
:103170008093BC001092610604C010925F060E940A
:10318000FC12FF91EF91BF91AF919F918F917F9131
:103190006F915F914F913F912F910F900FBE0F90C4
:1031A0001F901895AF92BF92CF92DF92EF92FF924D
:1031B0000F931F93CF93DF931F92CDB7DEB77C01A0
:1031C00069836A01590141E050E0BE016F5F7F4FA2
:1031D000FC0183810E94571E8C0197FD0BC0F701F3
:1031E0008381A501B60180640E94571E97FD02C02D
:1031F000800F911F0F90DF91CF911F910F91FF9042
:10320000EF90DF90CF90BF90AF900895CF93DF9372
:10321000EC010E945E21AE014C5F5F4F2FE030E079
:1032200068E0DF91CF910C94D2180F931F93CF9346
:10323000DF93EB018A010E945E219801AE0161E0FB
:10324000DF91CF911F910F910C94D218FC01A385AF
:10325000B485109719F47487638709C08D919C9188
:103260001197009711F0DC01F9CF6D937C932585C0
:103270003685DB0114968D919C911597820F931FD3
:103280009687858708950895409165055091660554
:10329000209163053091640542175307B4F490916F
:1032A000E8009570E1F39091E80092FD19C08093D9
:1032B000F100809165059091660501968F739927BD
:1032C000892B19F48EEF8093E80080916505909129
:1032D00066050196909366058093650581E00895E3
:1032E00080E00895CF92DF92EF92FF920F931F93A9
:1032F000CF93DF931F92CDB7DEB7182F062FE42EA2
:10330000862F880F8E5F99830E94441983E00E9464
:103310004419F12EC12E9981D92E8C2D8F19801729
:1033200098F4F601E7FE02C0849101C080810E94FA
:103330004419182F80E00E9444198123FFEFCF1A0F
:10334000DF0A8111EACF01C081E00F90DF91CF91B8
:103350001F910F91FF90EF90DF90CF900895FC01A7
:1033600080819181009711F00C94B22760E070E0A9
:10337000CB010895FB0144815581FC0124813581F5
:103380002417350778F080819181009759F0FB016F
:10339000608171816115710529F00E94832A21E005
:1033A000892B09F020E0822F0895FC0124813581CA
:1033B000232B31F421E061157105A1F0FB0108C058
:1033C000FC01808191816115710531F421E0FC01DE
:1033D0008081882339F005C00E94732A21E0892B5F
:1033E00009F020E0822F08950F931F93CF93DF936E
:1033F0008C01EB018617970771F1FC0180819181A7
:103400000097B1F0688179816115710579F0428189
:1034100053812C813D814217530740F00E947C2A42
:103420008C819D81F8019583848313C00E94F828C4
:1034300088819981F801918380838A819B8193831C
:1034400082838C819D8195838483198218821B825B
:103450001A821D821C82C801DF91CF911F910F91AA
:1034600008950F931F93CF93DF93EC018881998187
:10347000009729F02A813B812617370788F48B01B2
:103480006F5F7F4F0E949029009761F09983888336
:103490001B830A832C813D81232B11F4FC011082B4
:1034A00081E001C080E0DF91CF911F910F910895DD
:1034B000EF92FF920F931F93CF93DF93EC017B0169
:1034C0008A01BA010E94311A2881398181110DC007
:1034D0002115310519F0C9010E94F82819821882B6
:1034E0001D821C821B821A8206C01D830C83B701B9
:1034F000C9010E947C2ACE01DF91CF911F910F91CB
:10350000FF90EF900895CF93DF93EC016115710563
:1035100059F0FB0101900020E9F73197AF01461BFC
:10352000570B0E94581A0CC088819981009711F09E
:103530000E94F828198218821D821C821B821A821E
:10354000CE01DF91CF910895FC01808191810C948F
:10355000F828FB01DC0111961C921E9213961C9216
:103560001E92129715961C921E9214978617970713
:1035700049F0608171816115710521F044815581A7
:103580000C94581A0895FC01118210821382128241
:10359000158214826115710551F0FB010190002024
:1035A000E9F73197AF01461B570B0C94581A089551
:1035B000BF92CF92DF92EF92FF920F931F93CF9320
:1035C000DF937C016B018A01E9012417350720F4A0
:1035D000812F8901C42FD82F63EF74E0C7010E94A7
:1035E000C31AD60114968D919C9115970817190747
:1035F000D0F48C179D0708F4EC01D601ED91FC91F5
:103600001197EC0FFD1FB08010824D915C91BA01B3
:10361000600F711FC7010E94831AD601ED91FC91C2
:10362000EC0FFD1FB082C701DF91CF911F910F9169
:10363000FF90EF90DF90CF90BF9008951F920F9270
:103640000FB60F9211248F939F938091E100909178
:10365000E100937F9093E10083FF0FC01092E90097
:1036600091E09093EB001092EC0092E39093ED00C8
:1036700010923A0698E09093F00082FF20C093E009
:103680009093E9009091F200992319F09AE39093B6
:10369000E80090916705992339F090916705915062
:1036A00090936705992389F190913906992339F010
:1036B00090913906915090933906992341F184FFF6
:1036C00010C08091E2008E7E81608093E200809144
:1036D000E1008F7E8093E100809169058E7E80619C
:1036E00011C080FF16C08091E2008E7E80618093C1
:1036F000E2008091E1008E7E8093E1008091690577
:103700008E7E81608093690504C05D9ACDCF289A32
:10371000D6CF9F918F910F900FBE0F901F9018954D
:10372000BF92CF92DF92EF92FF920F931F93CF93AE
:10373000DF936C018B01EB019BEFB92E2097C1F059
:103740007E01C134D1051CF080E4E82EF12C80917B
:10375000E80082FFFCCFC8018C1B9D0B6E2D8C0DE9
:103760009D1D0E941A16B092E800CE19DF09E6CF1F
:10377000C801DF91CF911F910F91FF90EF90DF90E3
:10378000CF90BF900895DF92EF92FF920F931F9317
:10379000CF93DF93D82E8A017B01E40EF51EEB0157
:1037A000CE15DF0571F0D7FE03C0FE01849101C084
:1037B00088810E94441921968111F2CF8FEF9FEFEB
:1037C00001C0C801DF91CF911F910F91FF90EF9041
:1037D000DF9008950F931F93CF93DF931F92CDB780
:1037E000DEB782E0898342E450E069EC71E080E872
:1037F0000E94C31B0E946316DC0112960D911C915E
:1038000013970115110569F0D801ED91FC91028023
:10381000F381E02DBE016F5F7F4FC801099597FFCF
:1038200007C089810F90DF91CF911F910F9108956B
:10383000F80100851185E5CF1F920F920FB60F9208
:103840001124CF92DF92EF92FF920F931F932F9349
:103850003F934F935F936F937F938F939F93AF9318
:10386000BF93EF93FF93CF93DF93CDB7DEB76C9702
:10387000DEBFCDBF1092E9008091E80083FFE7C171
:1038800068E0CE0145960E941A1682EF8093E80008
:103890008D8987FF05C09091E80090FFFCCF03C0A1
:1038A0009EEF9093E800982F907609F0C6C09E890D
:1038B0002F89188D91110CC0803829F480916A05E8
:1038C0008093F10002C01092F1001092F10042C109
:1038D000422F50E0512B913051F481113BC14130C6
:1038E000510509F037C180916A058D7F0BC0933077
:1038F00061F481112FC14130510509F02BC1809134
:103900006A05826080936A0525C1953041F48091F3
:10391000E80080FFFCCF20682093E3001BC19630B5
:1039200009F05FC0EB8CFC8C1092E90010926605E8
:1039300010926505123091F510926405109263059E
:103940000E94EA1B99E0BE016F5F7F4FDB01E92F08
:103950001D92EA95E9F799831A8391E09E8390EA94
:1039600098879AEF99872091650530916605275FC2
:103970003F4F3C832B838D831092E90010926605A4
:1039800010926505F0926405E092630549E050E00D
:1039900080E00E94C31B0E94EA1BDCC0F092640519
:1039A000E09263050E946316DC011296ED90FC9094
:1039B0001397E114F10409F4BAC0D701ED91FC9119
:1039C0000480F581E02DBE016B5E7F4FC701099534
:1039D000009719F00CF0BEC0C1C0F701E084F1847B
:1039E000E8CF973009F4BAC0983021F481E0809391
:1039F000F100B0C0993009F0ADC0837009F0AEC0DD
:103A0000E1E0F1E081E021E036E39081992361F08B
:103A10008093E9002093EB0091919093EC00309318
:103A2000ED008F5F873089F78EE78093EA00109270
:103A3000EA008F8980933A068DC08B8D9C8D109201
:103A4000E9001092660510926505909364058093D5
:103A50006305898D811150C08E899D89913A59F4F1
:103A6000813209F07BC047E050E06BE071E080E01C
:103A70000E94C31B6FC0913209F070C0833289F479
:103A8000888D90E0982F88272F89822BA0E0B0E0C6
:103A90008093070190930801A0930901B0930A0154
:103AA00059C0803239F467E070E08BE091E00E9409
:103AB000901B06C0823209F04DC08F89809312019D
:103AC00080916805882319F0EEEFFAE002C0E0E08B
:103AD000F8E080910B0190910C01A0910D01B09143
:103AE0000E01803B9440A105B10509F07BC0809197
:103AF000120180FF93C076C00E946316DC0112960B
:103B00000D911C9113970115110541F1D801ED910B
:103B1000FC910190F081E02DBE016B5E7F4FC801EA
:103B20000995811117C0F80100851185ECCF11307E
:103B300009F44EC0133091F48F89882309F445C0ED
:103B4000823081F440E860E18DE292E00E947219D7
:103B5000882321F08EEF8093E80079C081E2809382
:103B6000EB0075C0813029F440E86BE081E292E01F
:103B7000EDCF833099F70E946316DC011296ED9029
:103B8000FC9013978E010F5F1F4F6801E114F10441
:103B900079F0D701ED91FC910680F781E02DB80115
:103BA000C7010995080F111DF701E084F184EECFDC
:103BB000D8011C92F60101900020E9F73197BF016E
:103BC0006C197D0940E0C601C1CF6BE072E002C014
:103BD0006FE072E06115710509F2FB01449150E05C
:103BE00080E846CF0FB6F894A89580916000886170
:103BF00080936000109260000FBEA895EE3F2AE00F
:103C0000F20739F08091FE0A9091FF0A9183808338
:103C1000A1CF1092FF0A1092FE0A9CCFEE3F8AE0DD
:103C2000F80731F0808191819093FF0A8093FE0A1A
:103C300087E797E7918380839BE088E10FB6F8944C
:103C4000A895809360000FBE9093600083CF6C9620
:103C50000FB6F894DEBF0FBECDBFDF91CF91FF91BD
:103C6000EF91BF91AF919F918F917F916F915F91F4
:103C70004F913F912F911F910F91FF90EF90DF9007
:103C8000CF900F900FBE0F901F9018952FB7F894FC
:103C900087708093E9009091E800892F807295FFEA
:103CA00004C09091F20080E4891B2FBF08957F9299
:103CB0008F929F92AF92BF92CF92DF92EF92FF923C
:103CC0000F931F93CF93DF93C82E8B017A018091BE
:103CD0003A06811103C08FEF9FEF75C0809169058F
:103CE00080FF05C08091E00082608093E000CE2DCF
:103CF000DF2DD12C8AEF882E8C2D8770B82E8C2D3D
:103D00008072A82E8C2D8074982E9AE3792E20979D
:103D100009F452C08C2D0E94461E282F81110AC022
:103D20008A948820C1F261E070E080E090E00E9417
:103D30002017EDCF90E0C817D9070CF42C2F3FB710
:103D4000F894B092E9008091E80085FF33C0822F9B
:103D500090E0C81BD90BAA2029F02150A8F010929E
:103D6000F100FBCFF801C7FE07C0215058F0449185
:103D70004093F1003196F9CF215020F041914093CA
:103D8000F100FACF080F191FDD2019F07092E8003A
:103D90000AC08091E80085FD08C07092E800DD242B
:103DA000D394209739F0D12C05C0209719F49110A5
:103DB0007092E8003FBFABCFD110ACCF5D9884E6E6
:103DC00080936705C701DF91CF911F910F91FF90FD
:103DD000EF90DF90CF90BF90AF909F908F907F90AB
:103DE00008950E945A2ABC01009791F0FC010190AD
:103DF0000020E9F73197AF01481B590BE091870686
:103E0000F09188060280F381E02D87E896E009941E
:103E100080E090E008958F929F92AF92BF920F93AF
:103E20001F93CF93DF93CDB7DEB7A1970FB6F8946A
:103E3000DEBF0FBECDBF19A2423008F44AE08E01AA
:103E40000F5D1F4F842E912CA12CB12CA501940144
:103E50000E943B28E62FB901CA0101501109EA303E
:103E600014F4E05D01C0E95CD801EC93232B242B12
:103E7000252B61F7C8010E94F31EA1960FB6F89496
:103E8000DEBF0FBECDBFDF91CF911F910F91BF90CD
:103E9000AF909F908F900895CF93DF9300D0CDB7D0
:103EA000DEB719821A820E945E2122E030E0AE0164
:103EB0004F5F5F4F65E00E94D2180F900F90DF9127
:103EC000CF91089580918606813019F481E097E0C2
:103ED00002C08DEE96E00C945F12682F80918606EA
:103EE000813019F481E097E002C08DEE96E00C94E9
:103EF0009E0E682F80918606813019F481E097E04C
:103F000002C08DEE96E00C94860E0C94F31ECF93B7
:103F1000DF93FC0124813581232B61F0C081D181A5
:103F200068E270E0CE010E94682A009719F08C1BAD
:103F30009D0B02C08FEF9FEFDF91CF910895682F07
:103F400070E080E090E04AE00C940B1FCF93DF9389
:103F5000682F70E080E090E04AE00E940B1FEC01C7
:103F600081EF94E00E94F31E8C0F9D1FDF91CF9193
:103F70000895CF93DF930E94F31EEC0181EF94E04C
:103F80000E94F31E8C0F9D1FDF91CF910895209109
:103F9000850690918406213208F04AC0809161061E
:103FA0008111FCCF32E03093610631E0309360063E
:103FB0003FEF30935F0610925E0620935D06A4E605
:103FC000B6E04DE356E0FA013E2F341B321718F4E9
:103FD0003D913193F9CF10923C0620913C06990F08
:103FE000922B90933C0690913B06913061F4109295
:103FF0003B0690913C069093BB009091BC0093FDD2
:10400000F8CF95EC01C095EE9093BC0090916106BD
:104010009230E1F390915F069F3F79F080915F06C7
:10402000803241F080915F06803331F084E005C03A
:1040300081E003C082E001C083E010926306109229
:104040008506109262060895682F87ED96E00C941D
:104050008A13CF92DF92EF92FF92CF93DF936C019E
:10406000990FEE08FF08F7FE1FC0E0918706F09158
:1040700088060190F081E02D6DE287E896E00995D1
:10408000EC0166277727CB016C197D098E099F0902
:104090004AE00E940B1F8C0F9D1FDF91CF91FF9074
:1040A000EF90DF90CF9008954AE0C701B601DF910D
:1040B000CF91FF90EF90DF90CF900C940B1FFC01FD
:1040C00080913A06811103C08FEF9FEF08959FB74B
:1040D000F89482E08093E9002091F20030E012161B
:1040E000130614F421E030E02115310559F0289829
:1040F00084E6809339068091F10080838091F200FC
:10410000882319F09FBFC90108958BE68093E800CA
:10411000F9CFCF93DF9300D000D0CDB7DEB7E4E185
:10412000F7E0928199838A836B834C830190F081BD
:10413000E02D0190F081E02D44E050E0BE016F5F82
:104140007F4F84E197E009950F900F900F900F90AB
:10415000DF91CF91089590911607892B891739F037
:104160008093160740E060E080E00C948920089579
:104170009091160780958923891739F08093160747
:1041800040E060E080E00C94892008959091610601
:104190009111FCCF813208F080E291E090936106AA
:1041A000909360062FEF20935F0610925E06280F13
:1041B00020935D0690933C0690913C06906190930D
:1041C0003C0690913B06913061F410923B06909131
:1041D0003C069093BB009091BC0093FDF8CF95EC0A
:1041E00001C095EE9093BC00909161069130E1F38F
:1041F00090915E06981710F480915E06ADE3B6E0EC
:1042000029E136E0F9019E2F921B981718F49D9131
:104210009193F9CF10921806809317060895FC0128
:1042200082818F5BFB01808381E00895CF93DF93D0
:10423000CDB7DEB769970FB6F894DEBF0FBECDBF1E
:10424000FC01DB018C918F5F8C93BE016F5F7F4F10
:1042500089E1DB011D928A95E9F729E0298384E051
:104260008A8391E09D8383E08E832A8721E22B87D6
:104270009C879D879F8722E2288B27E02B8B25E058
:104280002C8B8E8B20E430E0388F2F8B998F82819E
:104290008B8395858685998B8A8B838180688D8BAE
:1042A00049E150E080E00E94C31B69960FB6F89484
:1042B000DEBF0FBECDBFDF91CF910895809159072A
:1042C000811137C081E080934C0780934D0722E530
:1042D00037E030934F0720934E071092510710920A
:1042E000500724E931E030934907209348071092A2
:1042F0005407109253071092560710925507809357
:1043000057078093580781EC809352070E946316E9
:10431000FC01418120914C0730E0240F311D2830F1
:10432000310524F468E477E00E94271681E0809349
:10433000590788E497E00895BF92CF92DF92EF92F9
:10434000FF920F931F93CF93DF93C82F082E000C7B
:10435000DD0B9E01220F331FA9014D575A4F7A01E1
:10436000FA012081318137FF19C0182FAE01455560
:104370005A4F6A01FA0100810150602F0E94D00D4E
:10438000B82E602F812F0E94BE0D682F8B2D0E94AA
:10439000CD0EF6011082F70111821082C159DA4F59
:1043A0001882DF91CF911F910F91FF90EF90DF90D6
:1043B000CF90BF900895DF92EF92FF920F931F93DB
:1043C000CF93DF93D62E03E815E0C0E0D0E0E82ECF
:1043D000880FFF088C2F93E1D91203C0EC16FD065D
:1043E000A9F0F80120813181121613067CF40E9495
:1043F0003912FE01E159FA4F8081811107C0809185
:104400001401882319F08C2F0E949C2121960E5FA5
:104410001F4FC431D105F1F6DF91CF911F910F915C
:10442000FF90EF90DF9008950F931F93CF93DF934A
:104430001F92CDB7DEB78C0169830E94EE27698198
:10444000681741F0C8010F90DF91CF911F910F9134
:104450000C94F6270F90DF91CF911F910F91089543
:104460000C94EE27BC01625F7F4FFC01838148E022
:1044700050E080640C94571E0A970C943222CF931C
:10448000DF93CDB7DEB7A0970FB6F894DEBF0FBEAF
:10449000CDBF789484B5826084BD84B5816084BDCD
:1044A00085B5826085BD85B5816085BD80916E00D2
:1044B000816080936E001092810080918100826003
:1044C0008093810080918100816080938100809140
:1044D0008000816080938000809191008260809351
:1044E0009100809191008160809391008091900073
:1044F0008160809390008091C10084608093C100AE
:104500008091C10082608093C1008091C100816070
:104510008093C1008091C30081608093C30080912B
:10452000C00082608093C0008091C200816080934F
:10453000C20080917A00846080937A0080917A0032
:10454000826080937A0080917A00816080937A0003
:1045500080917A00806880937A0010923A061092D7
:104560006A05109269058091D70081608093D70019
:1045700080EA8093D80089B5806189BD89B5826061
:1045800089BD09B400FEFDCF61E070E080E090E0FD
:104590000E9420178091D8008F7C80618093D80082
:1045A0008091E000807F8093E0008091E1008E7E2A
:1045B0008093E1008DE08093E200559A209AEEEF1F
:1045C000FFE7859194918B3F9C4D19F481E0809396
:1045D00068050E94621F8FEF9FEF9093940680936F
:1045E00093068EEF93E00E943022182F809186066A
:1045F000813019F481E097E002C08DEE96E00E94D0
:10460000A40F109386060E94621F10921806109243
:10461000170610926306109285061092610681E0DB
:104620008093600610923B0661E082E00E94B4161F
:1046300061E083E00E94B4168091B9008E7F809380
:10464000B9008091B9008D7F8093B90088E4809390
:10465000B80085E48093BC004FE655E083E895E020
:10466000EBEAF5E024E12E0F1192DC011D921D9280
:10467000CD01DA011D92AD012E13F6CF0EE111E04E
:10468000B4E0EB2EE00EF801F1908F0160E08F2D89
:104690000E94E41661E08F2D0E94B416E012F3CF61
:1046A00002E211E0A6E05A2E500ED801FD908D01D5
:1046B00060E08F2D0E94E41660E08F2D0E94B416FA
:1046C0005012F3CF4EEF55E02FEB35E064E0620F70
:1046D00080E090E0F901E80FF91F1082FA01E80F7D
:1046E000F91F1082049688319105A1F72F5F3F4F83
:1046F0004F5F5F4F6213ECCF6CE271E080E090E0BF
:104700000E9420178EEF95E0F4E02F2E280E2FB791
:10471000F89480916B0590916C05A0916D05B09116
:104720006E052FBF8093DD059093DE05A093DF0516
:10473000B093E0054091D9055091DA056091DB0511
:104740007091DC0584179507A607B70761F0809381
:10475000D9059093DA05A093DB05B093DC0581E0E1
:104760008093160602C01092160687E896E00E9413
:10477000BD12181619060CF04AC087E896E00E9490
:10478000FC14803219F189831A8200911B07109161
:104790001C070F5F1F4FB80187E197E00E94311A95
:1047A000882341F1209117073091180780911B074A
:1047B00090911C07BE016F5F7F4F820F931F0E9475
:1047C0007C2A10931C0700931B0714C067E177E055
:1047D000CE0101960E94A91ACE0101960E94D7012E
:1047E000CE0101960E94A41A63EF74E087E197E07E
:1047F0000E94831A80911B0790911C0785369105B2
:1048000030F063EF74E087E197E00E94831A109123
:10481000D8058FEF93E00E943022811708F4BCC2C4
:104820009091D705891708F4B7C28091160688239E
:1048300009F4DFC0EFEBEE2EE5E0FE2E02E211E020
:1048400088248394F80191908F0161E0892D0E9462
:10485000E4167EE1C72E71E0D72EA12CB12CD60133
:104860002D916D0130E0F901E657FD4F8491F9017A
:10487000E559FD4F7490F901E45BFD4F64906620AB
:1048800079F081110E947716E62DF0E0EE0FFF1F00
:10489000E25CFD4FA591B491EC917E2281E009F498
:1048A00080E0F701EA0DFB1D88258083BFEFAB1A7E
:1048B000BB0AE4E0AE16B10491F660E0892D0E94D7
:1048C000E416F4E0EF0EF11C5012BCCF46EE842E3D
:1048D00045E0942E00E010E055E0352EF801E2505E
:1048E000FA4F5F01C12CD12CE12CF12CF601E00F25
:1048F000F11FE154FA4F8081813091F5D5018C91FF
:10490000811149C06090D705F401EC0DFD1D608256
:10491000712CA301B801C7010E94510E482EA301BA
:10492000B801C7010E94660E90911401992319F0F5
:10493000642D0E94DB216090D705712CA301B80182
:10494000C7010E94510E482EA301B801C7010E9461
:10495000660E642D0E94BF0F2FEFF50120831BC050
:10496000811119C0D5018C918A3FA9F4F401EC0D95
:10497000FD1D6080712CA301B801C7010E94510E7A
:10498000482EA301B801C7010E94660E642D0E9443
:10499000CD0EF5013082FFEFEF1AFF0A24E0C20EC0
:1049A000D11C84E0A80EB11C98E1C916D10409F00D
:1049B0009DCF0F5F1F4FAFEF8A1A9A0A043011057F
:1049C00009F08CCF4EEF55E020E030E0FA01E20F25
:1049D000F31F8081882321F08A3F11F0815080836A
:1049E0002C5F3F4F2831310589F74F5F5F4F24120D
:1049F000EBCFF09013010F2D10E061E085E00E94F5
:104A0000E4160115110511F460E004C00F3F110513
:104A100029F461E085E00E94B4167CC0EFE8F2E082
:104A2000E4918E2F90E0FC013197EF30F10508F012
:104A30006CC0EB59FF4F0C945D2884B5806884BD31
:104A4000F7BC68C084B5806284BDF8BC63C0809147
:104A50008000806880938000109389000093880014
:104A600059C08091800080628093800010938B00F9
:104A700000938A004FC080918000886080938000FE
:104A800010938D0000938C0045C080919000806849
:104A90008093900010939900009398003BC0809100
:104AA000900080628093900010939B0000939A0086
:104AB00031C08091900088608093900010939D0099
:104AC00000939C0027C08091C00080688093C00044
:104AD0008091C0008F7B8093C000F092CF001AC0FD
:104AE0008091C00080628093C000F092D00012C01C
:104AF0008091C20088608093C2008091C2008B7F49
:104B00008093C200F092D20005C0003811050CF06D
:104B100080CF7ACF6091D805062F10E08091E30511
:104B20009091E40508171907D1F081E0809362069F
:104B300088E080938406109263061092850685E0D3
:104B400090E068A30E94242068A187ED96E00E946F
:104B50008A130E94C71F1093E4050093E305809118
:104B6000D705082F10E02091E1053091E2050217EA
:104B7000130731F00E94320E1093E2050093E10515
:104B80008FE190E00E94C62080E010E0209117069F
:104B900090911806291771F087ED96E00E943E1358
:104BA000E1E0F0E0EC0FFD1FE10FF11D80831F5FDE
:104BB00081E0ECCF811105C080911606811179C08A
:104BC00093C0E9808E010C5F1F4FA12CB12CCC2427
:104BD000C394D12CF12C9924939438E0832ECE14D5
:104BE000DF0454F7F8013297808131966081D80153
:104BF0009C91933009F455C0782E923041F49091F5
:104C00001401992309F44FC00E94DB214CC0953058
:104C100009F042C08091D705482F50E02091E1056E
:104C20003091E2054217530799F10E94320E8091AC
:104C3000D70590E09093E2058093E105909262069B
:104C400080928406109263061092850687E090E0B9
:104C50000E9424206B2D87ED96E00E948A136A2D16
:104C600087ED96E00E948A130E94C71F83E090E0C0
:104C70000E94C62087ED96E00E943E1387ED96E0E5
:104C80000E943E13782E87ED96E00E943E13682F17
:104C9000872D0E94BF0F07C0913029F40E94CD0ECE
:104CA00002C0A62EB82EB3E0CB0ED11C0D5F1F4F55
:104CB00096CF809114018823B9F083E8C82E85E04F
:104CC000D82E9BEAE92E95E0F92E00E010E0F701DE
:104CD00081917F0181110DC00F5F1F4FB2E0CB0E9C
:104CE000D11C0431110599F78091160681111FC05E
:104CF0004BC0D6018D919C9111971816190624F47A
:104D000001978D939C93E8CF892B31F7802F0E94D8
:104D10003912F801E159FA4F80818111DDCF80917C
:104D200014018823C9F2802F0E949C21D5CF809145
:104D300017018038A1F480911601803881F48091A8
:104D40001501803861F48091E5058823E9F010921F
:104D5000E5051092160740E060E080E013C0109275
:104D6000160740E060E080E00E94892081E08093A7
:104D7000E5054091150140586091160160588091F9
:104D8000170180580E94892080E090E0892B09F467
:104D9000BECC0E940000BBCC1092D8051092D70563
:104DA00044CD10928A061092890688EE93E0A0E026
:104DB000B0E080938B0690938C06A0938D06B09301
:104DC0008E062CE231E030938806209387062FEF81
:104DD0003FEF30939406209393061092DA061092D8
:104DE000D9068093DB069093DC06A093DD06B09392
:104DF000DE068EE391E09093D8068093D70681E09B
:104E00008093E7068093E80629EF36E03093EA06C0
:104E10002093E9061092EC061092EB061092F00631
:104E20001092EF0620E531E03093E4062093E3068C
:104E30002EE531E03093EE062093ED068093FA06DE
:104E40008093FB061092FC061092FE061092FD065F
:104E5000109200071092FF0681EC8093F9060E94E1
:104E60006316FC0141812091E70630E0240F311DDB
:104E70002830310524F463EE76E00E942716109264
:104E80000407109203078CE791E090930207809348
:104E9000010780912407811113C010921F071092FF
:104EA0001E0789EA92E0909321078093200786E30A
:104EB00090E0909323078093220781E0809324075A
:104EC0000E945E216EE177E00E942619109216077B
:104ED0008EE891E090931507809314078091320734
:104EE000811113C010922D0710922C078FED92E0C4
:104EF00090932F0780932E078BE290E090933107D9
:104F00008093300781E0809332070E945E216CE23B
:104F100077E00E94261963EF74E087E197E00E9432
:104F2000C31A80914007811113C010923B07109261
:104F30003A078AE093E090933D0780933C078BE427
:104F400090E090933F0780933E0781E08093400775
:104F50000E945E216AE377E00C94261987E197E0CE
:104F60000C94A41A1F93FC0199278827BC01E8948C
:104F700011911032E9F3193010F01E30C8F31B32D2
:104F800051F01D3249F4689406C00E94D927610F80
:104F9000711D811D911D119110531A30B0F33EF413
:104FA00090958095709561957F4F8F4F9F4F1F9182
:104FB0000895592F482F372F262F660F771F881FE8
:104FC000991F660F771F881F991F620F731F841F19
:104FD000951F660F771F881F991F0895F999FECFB7
:104FE00092BD81BDF89A992780B50895262FF99929
:104FF000FECF1FBA92BD81BD20BD0FB6F894FA9ABC
:10500000F99A0FBE019608952F923F924F925F92A8
:105010006F927F928F929F92AF92BF92CF92DF92C8
:10502000EF92FF920F931F93CF93DF93CDB7DEB72D
:10503000CA1BDB0B0FB6F894DEBF0FBECDBF0994C1
:105040002A88398848885F846E847D848C849B8418
:10505000AA84B984C884DF80EE80FD800C811B8126
:10506000AA81B981CE0FD11D0FB6F894DEBF0FBE55
:10507000CDBFED010895A1E21A2EAA1BBB1BFD01B5
:105080000DC0AA1FBB1FEE1FFF1FA217B307E40727
:10509000F50720F0A21BB30BE40BF50B661F771F7F
:1050A000881F991F1A9469F760957095809590955F
:1050B0009B01AC01BD01CF010895EE0FFF1F0590CC
:1050C000F491E02D0994CF93DF938230910510F491
:1050D00082E090E0E0916307F091640720E030E027
:1050E000C0E0D0E0309711F1408151814817590755
:1050F000C0F04817590761F482819381209719F015
:105100009B838A832BC0909364078093630726C098
:105110002115310519F04217530718F49A01BE0101
:10512000DF01EF010280F381E02DDCCF2115310595
:1051300009F1281B390B2430310590F412968D911A
:105140009C9113976115710521F0FB019383828374
:1051500004C09093640780936307FD01329644C0B6
:10516000FD01E20FF31F81939193225031092D939A
:105170003C933AC02091610730916207232B41F4A0
:1051800020911A0130911B0130936207209361072F
:1051900020911801309119012115310541F42DB7E5
:1051A0003EB740911C0150911D01241B350BE0912D
:1051B0006107F0916207E217F307A0F42E1B3F0B83
:1051C0002817390778F0AC014E5F5F4F2417350779
:1051D00048F04E0F5F1F5093620740936107819321
:1051E000919302C0E0E0F0E0CF01DF91CF9108950C
:1051F0000F931F93CF93DF93009709F48CC0FC01AA
:10520000329713821282009163071091640701158F
:10521000110581F420813181820F931F2091610754
:10522000309162072817390779F5F0936207E09308
:10523000610771C0D80140E050E0AE17BF0750F4DD
:1052400012962D913C911397AD012115310509F16D
:10525000D901F3CF9D01DA0133832283608171810B
:10526000860F971F8217930769F4EC012881398113
:10527000260F371F2E5F3F4F318320838A819B810A
:1052800093838283452B29F4F0936407E0936307AB
:1052900042C01396FC93EE931297ED0149915991F8
:1052A0009E01240F351FE217F30771F4808191816D
:1052B000840F951F029611969C938E938281938101
:1052C00013969C938E931297E0E0F0E0D80112962B
:1052D0008D919C911397009719F0F8018C01F6CFEE
:1052E0008D919C9198012E5F3F4F820F931F2091CB
:1052F0006107309162072817390769F4309729F45C
:10530000109264071092630702C0138212821093F6
:10531000620700936107DF91CF911F910F9108956C
:10532000A0E0B0E0E6E9F9E20C940828EC0100976F
:1053300021F4CB010E946328B8C0FC01E60FF71FDF
:105340009C0122503109E217F30708F4ACC0D901DF
:105350000D911C91119706171707B0F00530110534
:1053600008F49FC0C80104978617970708F499C0EE
:1053700002501109061B170B019311936D937C9337
:10538000CF010E94F8288DC05B01A01AB10A4C0120
:10539000800E911EA0916307B091640740E050E039
:1053A000E12CF12C109709F44AC0A815B905D1F5E4
:1053B0006D907C901197630182E0C80ED11CCA14D5
:1053C000DB0480F1A3014A195B096A0182E0C80E7F
:1053D000D11C1296BC9012971396AC91B5E0CB16E7
:1053E000D10440F0B282A38351834083D9016D93ED
:1053F0007C930AC00E5F1F4FC301800F911FF901FC
:1054000091838083EB2DFA2FE114F10431F0D70161
:105410001396FC93EE93129744C0F0936407E093C5
:1054200063073FC08D919C9111974817590708F465
:10543000AC017D0112960D90BC91A02DB3CF80914F
:1054400061079091620788159905E1F4461757079F
:10545000C8F48091180190911901009741F48DB71B
:105460009EB740911C0150911D01841B950BE817BC
:10547000F907C8F4F0936207E0936107F9017183BB
:1054800060830FC0CB010E9463287C01009759F014
:10549000A801BE010E945F2ACE010E94F828C70120
:1054A00004C0CE0102C080E090E0CDB7DEB7EEE0F0
:1054B0000C94242881E090E0F8940C94912AFB014C
:1054C000DC0102C001900D9241505040D8F7089580
:1054D000FC018191861721F08823D9F79927089537
:1054E0003197CF010895FB01DC018D910190801966
:1054F0000110D9F3990B0895FB01DC0101900D9285
:105500000020E1F70895FB01DC014150504030F0EC
:105510008D910190801919F40020B9F7881B990B1F
:10552000089511E0CCEAD1E004C0FE010E945D289C
:0C5530002196CD3AD107C9F7F894FFCFBF
:10553C0000C18081000000FFFFFFFF00E1000000C0
:10554C0000000032018080800000650780000607A3
:10555C00080913120F0E100A000000009C12BD1453
:10556C00D314B212BD12FC14D814000000008A131C
:10557C005A1377142E1352133E132F1300000000EE
:10558C001A15921574150F213222F6FF0000B60E73
:10559C00711277147614B9133C22C8130000000062
:1055AC00F11EF11EF11E0F2100000000B60E71124B
:1055BC00771476141A14061930140000000015190B
:1055CC00000000007A141621DA15A114756E6971A9
:1055DC0075656B726571696E666F00444550524516
:1055EC0043494154454400756E697175656B72652C
:1055FC00716E616D65004469766572676520544D06
:10560C002032204D617374657200756E6971756519
:10561C006B72657176617269616E7400756E697119
:10562C0075656B72657164726976657200416E693D
:10563C006D757320496E6E6F76612078322E38004E
:10564C00756E697175656B7265716275696C6400F4
:10565C004F454D00756E697175656B7365746B653F
:10566C007900736574206B65792800756E697175A6
:10567C00656B736574656570726F6D00736574200E
:10568C00454550524F4D2800756E697175656B73A9
:10569C0065746C617900736574206C617965722036
:1056AC00636F756E7428006572726F723A20696E42
:1056BC0073756666696369656E7420454550524F13
:1056CC004D00756E697175656B6765746C617900F9
:1056DC00756E697175656B676574656570726F6DF4
:1056EC0000756E697175656B6765746B65790072B1
:1056FC00657475726E206B65792800756E697175AD
:10570C00656B676574726F7700756E697175656B23
:10571C00676574636F6C00756E697175656B736525
:10572C00746D617374657200736574206D6173744C
:10573C0065722800756E697175656B7365746E6B37
:10574C00726F00736574204E4B524F206D6F646501
:10575C0028006572726F723A20696E76616C6964AA
:10576C00204E4B524F206F7074696F6E00756E69CE
:10577C007175656B6765746E6B726F00756E6971B0
:10578C0075656B6765746D6F647300676574206D08
:10579C006F64732800426C656450574D00756E69D8
:1057AC007175656B7365746272696768746E657325
:1057BC007300736574206272696768746E657373C5
:1057CC00282900756E697175656B676574627269FD
:1057DC006768746E657373006765742062726967BD
:1057EC0068746E657373282900756E697175656BC5
:1057FC007365747375626B657900737562206B6584
:10580C0079207365743A20002C2000756E697175CF
:10581C00656B736574737562656570726F6D005737
:10582C00726F746520746F207375622045455052F9
:10583C004F4D3A2000756E697175656B73657473A5
:10584C0075626C617900456469746564206C61797A
:10585C00657220636F756E7420746F3A20004C6112
:10586C0079657220636F756E74206564697420614C
:10587C00626F727465642C20696E737566666963F9
:10588C0069656E7420454550524F4D00756E6971B7
:10589C0075656B73657473756262726967687400A1
:1058AC0053657420737562206272696768746E65E3
:1058BC00737300493243006D6564696100756E69EC
:1058CC007175656B7365746D6163726F007365746C
:1058DC00206D6163726F28006475616C526F6C652A
:1058EC00730074617044616E636500756E697175E7
:1058FC00656B73657474617064616E636500736568
:10590C00742074617064616E6365280073746963DC
:10591C006B794B657973006D6F7573654B65797336
:04592C00000D0A0060
:00000001FF
