:100000000C9460010C9488010C9488010C94880174
:100010000C9488010C9488010C9488010C9488013C
:100020000C9488010C9488010C9467130C9474153B
:100030000C9488010C9488010C9488010C9488011C
:100040000C9488010C9488010C9488010C9488010C
:100050000C9488010C9488010C9488010C94BE1BAC
:100060000C9488010C9488010C9488010C948801EC
:100070000C9488010C9488010C9488010C948801DC
:100080000C9488010C9488010C9488010C948801CC
:100090000C94081C0C9488010C9488010C94880121
:1000A0000C9488010C9488010C948801F021F521AE
:1000B000FA2104220E2258225822582218222222E3
:1000C0002C223622432258224B22F31AF61AE51A22
:1000D000E91AEF1A171B171B171BFA1AFE1A021B35
:1000E000081B0C1B171B121B00000000230026001E
:1000F00029002C002F000404040404030405020258
:1001000002020403020202020606060606060404B0
:100110000202020404040802011040804010204042
:1001200080408008020401804020100201108010ED
:10013000204040200000000200090F0000030401DD
:10014000000C0000000000000000000000000000A3
:1001500000000005010906A1018508050719E0292D
:10016000E715002501750195088102190029671519
:100170000025017501956881029501750815002615
:10018000E700190029E78100C0050C0901A10185DC
:10019000051500250109E909EA750195028106099D
:1001A000E29501810609B09501810609B1950181A9
:1001B0000609B79501810609B59501810609B6952D
:1001C00001810609B39501810609B495018106955F
:1001D000068107C0080B00020202010009040000AA
:1001E00001020200000524001001052401010104A0
:1001F00024020605240600010705810310004009BA
:10020000040100020A000000070502024000000786
:100210000583024000000403090441726475696E9D
:100220006F204C4C430041726475696E6F204C65C1
:100230006F6E6172646F00120100020000004041A5
:1002400023368000010102030112010002EF0201C6
:10025000404123368000010102030105010906A186
:1002600001050719E029E7150025017501950881A9
:1002700002050C95017508150026FF00190029FFDD
:1002800081000508190129089508750191020507E3
:1002900095067508150026E700190029E78100C0BA
:1002A00000000000240027002A002D00300000007C
:1002B0000000250028002B002E003100151ECD2245
:1002C00011241FBECFEFDAE0DEBFCDBF14E0A0E007
:1002D000B1E0EAE7FBE402C005900D92AC31B10752
:1002E000D9F726E0ACE1B4E001C01D92AE3AB20706
:1002F000E1F711E0CFE5D1E004C02197FE010E94B3
:10030000F322CE35D107C9F70E94041F0C94B02503
:100310000C9400003F924F925F926F927F928F9267
:100320009F92AF92BF92CF92DF92EF92FF920F9384
:100330001F93CF93DF93CDB7DEB763970FB6F894D3
:10034000DEBF0FBECDBF8C0163E971E00E941E12BB
:10035000882321F082EA91E00E94B9106EEA71E0F0
:10036000C8010E941E12882321F08DEB91E00E94AB
:10037000B91060ED71E0C8010E941E12882321F0BF
:100380008DEB91E00E94B91062EE71E0C8010E940D
:100390001E12882321F083EF91E00E94B91067E0DC
:1003A00072E0C8010E941E12882319F087E192E0D2
:1003B000B4C16BE172E0CE0101960E940C13BE0144
:1003C0006F5F7F4FC8010E940312F82ECE01019685
:1003D0000E94ED12FF2009F4F5C0C8010E94071029
:1003E000AC014F5F5F4FB801CE0101960E940B0C2C
:1003F000BE016F5F7F4FC8010E943D12CE01019682
:100400000E94ED12C8010E9407109C0140E050E0DC
:10041000B801CE0101960E942113CE0101960E94DF
:10042000F110962ECE0101960E94ED12C8010E9495
:100430000710AC014F5F5F4FB801CE0101960E94DB
:100440000B0CBE016F5F7F4FC8010E943D12CE01B1
:1004500001960E94ED12C8010E9407109C0140E025
:1004600050E0B801CE0101960E942113CE01019601
:100470000E94F110A62ECE0101960E94ED12C80135
:100480000E940710AC014F5F5F4FB801CE0101968B
:100490000E940B0CBE016F5F7F4FC8010E943D128E
:1004A000CE0101960E94ED12C8010E9407109C0126
:1004B00040E050E0B801CE0101960E942113CE0128
:1004C00001960E94F110B62ECE0101960E94ED1207
:1004D000C8010E940710AC014F5F5F4FB801CE0109
:1004E00001960E940B0CBE016F5F7F4FC8010E94F6
:1004F0003D12CE0101960E94ED12C8010E94071024
:100500009C0140E050E0B801CE0101960E94211309
:10051000CE0101960E94F110C62ECE0101960E94D6
:10052000ED12C8010E940710AC014F5F5F4FB80188
:10053000CE0101960E940B0CBE016F5F7F4FC80178
:100540000E943D12CE0101960E94ED12C8010E9448
:10055000F110D62E86E0A89E70011124E90CF11C42
:1005600088E1B89EE00CF11C1124EE0CFF1C6C2DF0
:10057000C7010E94F71D6D2DC70101960E94F71D4E
:1005800089E292E00E940510892D0E9460108DE49E
:1005900092E00E9405108A2D0E9460108DE492E086
:1005A0000E9405108B2D0E9460108DE492E00E9445
:1005B00005108C2D0E9460108DE492E00E940510C1
:1005C0008D2D6FC062E372E0CE0101960E940C1384
:1005D000BE016F5F7F4FC8010E940312F82ECE014B
:1005E00001960E94ED12FF2009F45EC0C8010E942E
:1005F0000710AC014F5F5F4FB801CE0101960E941A
:100600000B0CBE016F5F7F4FC8010E943D12CE01EF
:1006100001960E94ED12C8010E9407109C0140E063
:1006200050E0B801CE0101960E942113CE0101963F
:100630000E94F1106B017C01CE0101960E94ED1227
:10064000C8010E940710AC014F5F5F4FB801CE0197
:1006500001960E940B0CBE016F5F7F4FC8010E9484
:100660003D12CE0101960E94ED12C8010E94F110C8
:10067000B62EC6010E94F71D83E492E00E94051089
:10068000B601DD0C880B990B97FF03C00E947A100E
:1006900003C04AE00E941F108DE492E00E94051002
:1006A0008B2D0E9467107DC16FE472E0CE01019630
:1006B0000E940C13BE016F5F7F4FC8010E9403129E
:1006C000F82ECE0101960E94ED12FF2049F1C801DB
:1006D0000E940710AC014F5F5F4FB801CE01019639
:1006E0000E940B0CBE016F5F7F4FC8010E943D123C
:1006F000CE0101960E94ED12C8010E94F110F62E63
:1007000089E18F1540F06F2D8FEF93E00E94F71D68
:100710008DE592E0D5C08EE692E00E94B91041C10D
:1007200069E872E0C8010E941E12882319F08FEF59
:1007300093E02CC067E972E0CE0101960E940C1391
:10074000BE016F5F7F4FC8010E940312F82ECE01D9
:1007500001960E94ED12FF20E1F0C8010E940710EF
:10076000AC014F5F5F4FB801CE0101960E940B0CA8
:10077000BE016F5F7F4FC8010E943D12CE010196FE
:100780000E94ED12C8010E94F110CB010E94131EBD
:1007900088CF68EA72E0CE0101960E940C13BE0178
:1007A0006F5F7F4FC8010E940312F82ECE010196A1
:1007B0000E94ED12FF2009F487C0C8010E940710B3
:1007C000AC014F5F5F4FB801CE0101960E940B0C48
:1007D000BE016F5F7F4FC8010E943D12CE0101969E
:1007E0000E94ED12C8010E9407109C0140E050E0F9
:1007F000B801CE0101960E942113CE0101960E94FC
:10080000F110E62ECE0101960E94ED12C8010E9461
:100810000710AC014F5F5F4FB801CE0101960E94F7
:100820000B0CBE016F5F7F4FC8010E943D12CE01CD
:1008300001960E94ED12C8010E9407109C0140E041
:1008400050E0B801CE0101960E942113CE0101961D
:100850000E94F110C62ECE0101960E94ED12C80131
:100860000E940710AC014F5F5F4FB801CE010196A7
:100870000E940B0CBE016F5F7F4FC8010E943D12AA
:10088000CE0101960E94ED12C8010E94F110A62E21
:10089000B12CD12CF12CA501B601C7010E94F70B98
:1008A000982EA501B601C7010E94E20BF82E86EB37
:1008B00092E00E940510892D0E9460108DE492E064
:1008C0000E9405108F2DEDCE62EC72E0CE010196F4
:1008D0000E940C13BE016F5F7F4FC8010E9403127C
:1008E000F82ECE0101960E94ED12FF2019F084E04F
:1008F00090E015C060ED72E0CE0101960E940C13ED
:10090000BE016F5F7F4FC8010E940312F82ECE0117
:1009100001960E94ED12FF2029F086E090E00E94EF
:10092000A1103FC06EED72E0CE0101960E940C1343
:10093000BE016F5F7F4FC8010E940312F82ECE01E7
:1009400001960E94ED12FF2061F1C8010E9407107C
:10095000AC014F5F5F4FB801CE0101960E940B0CB6
:10096000BE016F5F7F4FC8010E943D12CE0101960C
:100970000E94ED12C8010E94F110611103C0109293
:10098000030103C081E0809303018FEE92E00E9497
:1009900005106091030170E080E090E04AE00E9461
:1009A0001F10B801CE0107960E94F2126BEF72E0A1
:1009B000CE0101960E940C13BE016F5F7F4FCE01E6
:1009C00007960E940312F82ECE0101960E94ED12A6
:1009D000FF2009F440C0CE0107960E940710AC0129
:1009E0004F5F5F4FBE01695F7F4FCE0101960E944E
:1009F0000B0CBE016F5F7F4FCE0107960E943D1228
:100A0000CE0101960E94ED12CE0107960E94F110D0
:100A1000F62E82E08F15D0F06F2D8EEF93E00E94BE
:100A2000F71D8091D904813019F484E595E002C066
:100A300080E495E00E94200DF092D9040E94E20F1C
:100A40008AE093E00E9405108F2D11C089E193E0A8
:100A50000E94B9100EC064E373E0CE0107960E94B5
:100A60001E12882331F08EEF93E00E94131E0E9425
:100A70006710CE0107960E94ED12B801CE010D96C7
:100A80000E94F21263E473E0CE010D960E941E12E2
:100A9000882321F082E593E00E940510BE01635F88
:100AA0007F4FCE0107960E94F21263E473E0CE01FD
:100AB00001960E940C13BE016F5F7F4FCE01079617
:100AC0000E940312182FCE0101960E94ED121123ED
:100AD00029F08CE593E00E9405106BC064E673E09A
:100AE000CE0101960E940C13BE016F5F7F4FCE01B5
:100AF00007960E940312182FCE0101960E94ED1254
:100B00001123C9F1CE0107960E940710AC014F5F77
:100B10005F4FBE01695F7F4FCE0101960E940B0CB3
:100B2000BE016F5F7F4FCE0107960E943D12CE013E
:100B300001960E94ED12CE0107960E9407109C01BB
:100B400040E050E0BE01695F7F4FCE0101960E94F8
:100B50002113CE0101960E94F110CE0101966B8BFC
:100B60000E94ED126B8970E07093020160930101A5
:100B700089E793E016C06AE873E0CE0101960E940F
:100B80000C13BE016F5F7F4FCE0107960E940312C8
:100B9000182FCE0101960E94ED12112351F08FE91A
:100BA00093E00E94051080910101909102010E9442
:100BB000A110CE0107960E94ED12BE01635F7F4F28
:100BC000CE0107960E94F21263E473E0CE01019613
:100BD0000E940C13BE016F5F7F4FCE0107960E94EB
:100BE0000312182FCE0101960E94ED12112321F05D
:100BF00080EB93E00E940510CE0107960E94ED1253
:100C0000BE01635F7F4FCE0107960E94F21263E43C
:100C100073E0CE0101960E940C13BE016F5F7F4FFF
:100C2000CE0107960E940312182FCE0101960E9452
:100C3000ED12112321F089EB93E00E940510CE0103
:100C400007960E94ED12BE01635F7F4FCE010796AB
:100C50000E94F21263E473E0CE0101960E940C132D
:100C6000BE016F5F7F4FCE0107960E940312182FBF
:100C7000CE0101960E94ED12112329F089EC93E038
:100C80000E94051085C16FEB73E0CE0101960E94B2
:100C90000C13BE016F5F7F4FCE0107960E940312B7
:100CA000182FCE0101960E94ED12112309F470C194
:100CB000CE0107960E940710AC014F5F5F4FBE0147
:100CC000695F7F4FCE0101960E940B0CBE016F5FE2
:100CD0007F4FCE0107960E943D12CE0101960E94E1
:100CE000ED12CE0107960E9407109C0140E050E0F3
:100CF000BE01695F7F4FCE0101960E942113CE0194
:100D000001960E94F110F62ECE0101960E94ED127E
:100D1000CE0107960E940710AC014F5F5F4FBE01E6
:100D2000695F7F4FCE0101960E940B0CBE016F5F81
:100D30007F4FCE0107960E943D12CE0101960E9480
:100D4000ED12CE0107960E9407109C0140E050E092
:100D5000BE01695F7F4FCE0101960E942113CE0133
:100D600001960E94F110E62ECE0101960E94ED122E
:100D700082E1F89E800111248BE08F1548F088E015
:100D80008E1530F06E2DC801875A9D4F0E94F71DB9
:100D9000480188EA881A8DEF980A580185EAA81A4E
:100DA0008DEFB80A065A1D4FC12CD12C412C512C65
:100DB00032014394CE0107960E940710AC014F5FA9
:100DC0005F4FBE01695F7F4FCE0101960E940B0C01
:100DD000BE016F5F7F4FCE0107960E943D12CE018C
:100DE00001960E94ED12CE0107960E9407109C0109
:100DF00040E050E0BE01695F7F4FCE0101960E9446
:100E00002113CE0101960E94F110CE0101966B8B49
:100E10000E94ED126B898BE08F1518F0C8010E94BB
:100E2000F71DCE0107960E940710AC014F5F5F4F80
:100E3000BE01695F7F4FCE0101960E940B0CBE017F
:100E40006F5F7F4FCE0107960E943D12CE01019643
:100E50000E94ED12CE0107960E9407109C0140E00F
:100E600050E0BE01695F7F4FCE0101960E942113C1
:100E7000CE0101960E94F110CE0101966B8B0E946B
:100E8000ED126B898BE08F1518F0C5010E94F71DDC
:100E9000CE0107960E940710AC014F5F5F4FBE0165
:100EA000695F7F4FCE0101960E940B0CBE016F5F00
:100EB0007F4FCE0107960E943D12CE0101960E94FF
:100EC000ED12CE0107960E9407109C0140E050E011
:100ED000BE01695F7F4FCE0101960E942113CE01B2
:100EE00001960E94F110362ECE0101960E94ED125D
:100EF0008BE08F15C8F0C4010E94131E282FD30168
:100F0000C2010C2C04C0880F991FAA1FBB1F0A9492
:100F1000D2F7332019F0622F682B03C08095622F1F
:100F20006823C4010E94F71D8FEFC81AD80A82E017
:100F3000A80EB11C0E5F1F4F88E0C816D10409F03F
:100F400039CFCE0107960E940710AC014F5F5F4F6B
:100F5000BE01695F7F4FCE0101960E940B0CBE015E
:100F60006F5F7F4FCE0107960E943D12CE01019622
:100F70000E94ED128FEC93E00E9405108F2D0E94CD
:100F800060108DE492E00E9405108E2D0E94671083
:100F9000CE0107960E94ED12BE01635F7F4FCE0126
:100FA00007960E94F21263E473E0CE0101960E945C
:100FB0000C13BE016F5F7F4FCE0107960E94031294
:100FC000182FCE0101960E94ED12112321F08AED17
:100FD00093E00E940510CE0107960E94ED12BE011B
:100FE000635F7F4FCE0107960E94F21263E473E0C5
:100FF000CE0101960E940C13BE016F5F7F4FCE01A0
:1010000007960E940312182FCE0101960E94ED123E
:10101000112329F084EE93E00E94051038C26DEE92
:1010200073E0CE0101960E940C13BE016F5F7F4FEB
:10103000CE0107960E940312182FCE0101960E943E
:10104000ED12112309F423C2CE0107960E94071066
:10105000AC014F5F5F4FBE01695F7F4FCE010196CC
:101060000E940B0CBE016F5F7F4FCE0107960E945E
:101070003D12CE0101960E94ED12CE0107960E940C
:1010800007109C0140E050E0BE01695F7F4FCE0138
:1010900001960E942113CE0101960E94F110B62EF6
:1010A000CE0101960E94ED12CE0107960E94071014
:1010B000AC014F5F5F4FBE01695F7F4FCE0101966C
:1010C0000E940B0CBE016F5F7F4FCE0107960E94FE
:1010D0003D12CE0101960E94ED12CE0107960E94AC
:1010E00007109C0140E050E0BE01695F7F4FCE01D8
:1010F00001960E942113CE0101960E94F110362E16
:10110000CE0101960E94ED12CE0107960E940710B3
:10111000AC014F5F5F4FBE01695F7F4FCE0101960B
:101120000E940B0CBE016F5F7F4FCE0107960E949D
:101130003D12CE0101960E94ED12CE0107960E944B
:1011400007109C0140E050E0BE01695F7F4FCE0177
:1011500001960E942113CE0101960E94F110462EA5
:10116000CE0101960E94ED12CE0107960E94071053
:10117000AC014F5F5F4FBE01695F7F4FCE010196AB
:101180000E940B0CBE016F5F7F4FCE0107960E943D
:101190003D12CE0101960E94ED12CE0107960E94EB
:1011A00007109C0140E050E0BE01695F7F4FCE0117
:1011B00001960E942113CE0101960E94F110562E35
:1011C000CE0101960E94ED12CE0107960E940710F3
:1011D000AC014F5F5F4FBE01695F7F4FCE0101964B
:1011E0000E940B0CBE016F5F7F4FCE0107960E94DD
:1011F0003D12CE0101960E94ED12CE0107960E948B
:1012000007109C0140E050E0BE01695F7F4FCE01B6
:1012100001960E942113CE0101960E94F110662EC4
:10122000CE0101960E94ED12CE0107960E94071092
:10123000AC014F5F5F4FBE01695F7F4FCE010196EA
:101240000E940B0CBE016F5F7F4FCE0107960E947C
:101250003D12CE0101960E94ED12CE0107960E942A
:1012600007109C0140E050E0BE01695F7F4FCE0156
:1012700001960E942113CE0101960E94F110762E54
:10128000CE0101960E94ED12CE0107960E94071032
:10129000AC014F5F5F4FBE01695F7F4FCE0101968A
:1012A0000E940B0CBE016F5F7F4FCE0107960E941C
:1012B0003D12CE0101960E94ED12CE0107960E94CA
:1012C00007109C0140E050E0BE01695F7F4FCE01F6
:1012D00001960E942113CE0101960E94F110862EE4
:1012E000CE0101960E94ED12CE0107960E940710D2
:1012F000AC014F5F5F4FBE01695F7F4FCE0101962A
:101300000E940B0CBE016F5F7F4FCE0107960E94BB
:101310003D12CE0101960E94ED12CE0107960E9469
:1013200007109C0140E050E0BE01695F7F4FCE0195
:1013300001960E942113CE0101960E94F110962E73
:10134000CE0101960E94ED12CE0107960E94071071
:10135000AC014F5F5F4FBE01695F7F4FCE010196C9
:101360000E940B0CBE016F5F7F4FCE0107960E945B
:101370003D12CE0101960E94ED12CE0107960E9409
:10138000F110A62E0B2D10E083E18B1590F1780162
:1013900083E0EE0CFF1C8A95E1F7670186EBC81A23
:1013A0008CEFD80AC6010E94131E8C7F682F630D34
:1013B000C6010E94F71DC6010E94131E8370942D62
:1013C000990F990F682F690FC6010E94F71D652DAF
:1013D000C701845B9C4F0E94F71D672DC701825B8C
:1013E0009C4F0E94F71D692DC701805B9C4F0E9496
:1013F000F71D462D60E0C8010E94BA0B482D61E040
:10140000C8010E94BA0B4A2D62E0C8010E94BA0BC3
:1014100080E094E00E9405108B2D0E9460108DE406
:1014200092E00E940510832D0E9460108DE492E0EE
:101430000E940510842D0E9460108DE492E00E94AD
:101440000510852D0E9460108DE492E00E94051029
:10145000862D0E9460108DE492E00E940510872D79
:101460000E9460108DE492E00E940510882D0E9479
:1014700060108DE492E00E940510892D0E9460109A
:101480008DE492E00E9405108A2D0E946710CE0123
:1014900007960E94ED12BE01635F7F4FCE01079653
:1014A0000E94F21263E473E0CE0101960E940C13D5
:1014B000BE016F5F7F4FCE0107960E940312182F67
:1014C000CE0101960E94ED12112321F08EE094E0EE
:1014D0000E940510CE0107960E94ED1263E473E0AE
:1014E000CE010D960E941E12882321F089E194E01E
:1014F0000E940510CE010D960E94ED1263960FB664
:10150000F894DEBF0FBECDBFDF91CF911F910F9139
:10151000FF90EF90DF90CF90BF90AF909F908F9013
:101520007F906F905F904F903F9008958C30910521
:101530008CF4683078F442E1489F9001499F300D67
:101540001124C901860F911D860F911D855A9D4F4B
:101550000C94131E80E00895CF93DF932091D5045F
:101560003091D604882319F02F5F3F4F02C02150DD
:1015700031093093D6042093D504C091D504D0917D
:10158000D6048FEF93E00E94131E90E0C817D9078E
:101590002CF01092D6041092D50407C0D7FF05C0D6
:1015A00001979093D6048093D504DF91CF9108954D
:1015B0000F931F93CF93DF9381E0809350040CE34C
:1015C00014E0C0E0D0E0F80180818823F9F0209792
:1015D00011F480EE04C0C130D10521F481EE0E94E7
:1015E000F90F12C0C230D10511F482EEF8CFC3302A
:1015F000D10511F486EEF3CF8091D5049091D604F5
:101600009093D4048093D304F801108221960F5F45
:101610001F4FC431D105B9F6DF91CF911F910F91C2
:101620000895EF92FF920F931F93CF93DF931F9232
:10163000CDB7DEB78AE295E00E946218813051F49E
:101640008AE295E00E94621899279093D4048093CF
:10165000D30479C0823081F58AE295E00E94621855
:10166000F82E8AE295E00E946218E82E8AE295E060
:101670000E946218082F8AE295E00E946218682F83
:101680008AE295E069830E946218182F86E0E89E3E
:10169000900111242F0D311D88E1089F200D311D6F
:1016A00011247901EE0CFF1C6981C7010E94F71D0E
:1016B000612FC701019627C0833041F48AE295E08B
:1016C0000E946218682F8FEF93E01DC0843021F5CF
:1016D0008AE295E00E946218682F00E010E02091F5
:1016E000590430E080915A04281B31091216130660
:1016F0004CF48AE295E069830E946218080F191F72
:101700006981EDCFC8010F90DF91CF911F910F91AB
:10171000FF90EF900C94F71D853051F48AE295E02C
:101720000E94621899279093D6048093D5040BC029
:10173000863049F48AE295E00E94621899279093D6
:101740000201809301010F90DF91CF911F910F91C2
:10175000FF90EF9008954091000140931D0450E0E8
:101760006DE174E08AE295E00E947E1881E080934A
:10177000000108958431910584F4633070F423E00E
:10178000880F991F2A95E1F7860F911D860F911DED
:10179000642F835B9C4F0C94F71D08958431910551
:1017A0007CF4633068F423E0880F991F2A95E1F7F1
:1017B000845B9C4F860F911D860F911D0C94131E08
:1017C00080E00895E6E0E69F9001E79F300D112448
:1017D000820F931F68E1649F9001659F300D112473
:1017E000820F931F880F991F01960C94131EE6E039
:1017F000E69F9001E79F300D1124820F931F68E14F
:10180000649F9001659F300D1124820F931F880FF4
:10181000991F0C94131ECF93DF93EC01FB012481DD
:1018200035810E942113CE01DF91CF9108950F934E
:101830001F93CF93DF93EC01E881F9810084F18558
:10184000E02D40E009958C01892B39F0E881F98180
:101850000680F781E02DCE010995C801DF91CF9177
:101860001F910F9108950F931F93CF93DF93EC0176
:10187000E881F9810084F185E02D41E009958C0132
:10188000892B39F0E881F9810680F781E02DCE01BE
:101890000995C801DF91CF911F910F910895FF9293
:1018A0000F931F93CF93DF938C01F62E0E94330C7E
:1018B000EC01892B21F06F2DC8010E94170CCE017D
:1018C000DF91CF911F910F91FF900895CF93DF93F8
:1018D000D82FC62F80910301882309F454C06111C9
:1018E00004C08D2F0E94F90F4EC0613091F062301C
:1018F000C9F480911C0481110CC08091D9046CE260
:10190000813019F484E595E002C080E495E00E94FE
:101910004F0C8091D5049091D6049093D404809379
:10192000D30431C06B3091F06C3019F460E080EE7C
:1019300024C06D3001F16E3019F460E086EE1DC0F8
:101940006F3039F460E080EE0E94660C60E081EE5A
:1019500014C0603129F460E080EE0E94660C07C07C
:10196000613119F460E080EE04C0623161F460E03E
:1019700081EE0E94660C60E082EE0E94660C60E0E0
:101980008D2F0E94660C809100018F31A8F4E82F02
:10199000F0E0E35EFB4FD083E1E0E80FF0E0E35ED0
:1019A000FB4FC083E2E0E80FF0E0E35EFB4F91E025
:1019B00090838D5F8093000180910301882391F1D2
:1019C0008CEE8C0F8A3070F5C43119F460E080EE33
:1019D00004C0C53129F460E081EE0E94660C12C09B
:1019E000C63119F460E082EEF8CFC73119F460E037
:1019F00086EEF3CF8091D5049091D6049093D404D1
:101A00008093D30480911C0481110CC08091D9046F
:101A10006D2F813019F484E595E002C080E495E0F3
:101A20000E944F0C80910301882339F0C33129F4BF
:101A30008D2FDF91CF910C94B71DDF91CF91089539
:101A40000F931F93CF93DF93EC01E881F98104801A
:101A5000F581E02D09958C01892B39F0E881F98118
:101A60000680F781E02DCE010995C801DF91CF9165
:101A70001F910F9108956F927F928F929F92AF92D4
:101A8000BF92CF92DF92EF92FF920F931F93CF936B
:101A9000DF9300D01F92CDB7DEB7082F162F81E05D
:101AA00080931C0480910301882309F492C0611182
:101AB00004C0802F0E94ED0F8CC0613021F0623095
:101AC00059F410921C04802F002E000C990B909357
:101AD000D4048093D3047DC06330B9F5011102C0F2
:101AE00081E003C0013021F480E00E94AC0A71C0A3
:101AF000E090D504F090D60481E00E2C01C0880F50
:101B00000A94EAF7282F3AE0C32ED12C220F69F06D
:101B10008FEFE81AF80A8FEF93E02B830E94131ED1
:101B200090E02B81E816F9061CF021E0E12CF12C65
:101B3000822F802329F0F092D604E092D50449C088
:101B400091E0C91AD10811F7F6CF653089F42091D8
:101B5000D3043091D404802F002E000C990B281749
:101B6000390709F0B0CF8091D5049091D604AFCF5A
:101B70006B3091F06C3019F460E080EE24C06D3071
:101B800001F16E3019F460E086EE1DC06F3039F45B
:101B900060E080EE0E943B0D60E081EE14C0603199
:101BA00029F460E080EE0E943B0D07C0613119F41A
:101BB00060E080EE04C0623161F460E081EE0E947A
:101BC0003B0D60E082EE0E943B0D60E0802F0E94A2
:101BD0003B0D80910301882361F1163051F580910E
:101BE000D904813019F484E595E002C080E495E0E1
:101BF0000E94200D602F8EEF93E00E94F71D8091D0
:101C0000D904813019F484E595E002C080E495E0C0
:101C10000E94200D0093D9040E94E20F8091D90404
:101C2000813019F484E595E002C080E495E00E94DB
:101C3000200D209103012223C1F11A30B1F50536A0
:101C4000B4F48091010190910201800F911D07FD74
:101C50009A9597FF05C0109202011092010125C0CC
:101C60008F3F9105F1F0ECF08FEF90E01AC0053650
:101C700091F3063619F480E290E013C0073619F4A8
:101C800080E490E00EC0083619F480E690E009C0C8
:101C9000093619F480E890E004C00A3631F480EA8D
:101CA00090E09093020180930101809100018F31B7
:101CB000A8F4E82FF0E0E35EFB4F0083E1E0E80FDB
:101CC000F0E0E35EFB4F1083E2E0E80FF0E0E35E5C
:101CD000FB4F95E090838D5F80930001222359F1A3
:101CE000143049F5011102C081E017C0013011F430
:101CF00082E013C0023011F4198310C0033011F4D4
:101D000088E00BC0043011F480E107C0053011F405
:101D100080E403C0063079F480E889831A820E9447
:101D20006A1D22E030E0AE014F5F5F4F65E00E9428
:101D3000361D0E94CC0F80910301882309F45DC0F9
:101D4000173009F05AC0802E002E000C99088CE044
:101D5000881691040CF051C092E10902600111242F
:101D6000C601875A9D4F0E94131E560196EAA91A72
:101D70009DEFB90AE12CF12C682E712C88EAC81A63
:101D80008DEFD80AE614F7042CF5C6010E94131E45
:101D900090E00E2C02C0959587950A94E2F76E2D7F
:101DA00080FF94C0C4010E94960A682FC5016B830E
:101DB0000E94131E6B810E94660C65E070E080E05B
:101DC00090E00E94841B9FEFE91AF90A82E0A80EB6
:101DD000B11CD8CF8091D5049091D6049093D404AF
:101DE0008093D3048091D904813019F484E595E07F
:101DF00002C080E495E00E94200D809103018823B9
:101E000029F1143119F460E080EE09C0153119F49C
:101E100060E081EE04C0163139F460E082EE0E9489
:101E20003B0D10921C0412C0173119F460E086EECD
:101E3000F6CF88EE810F863048F410921C04812F73
:101E400090E047979093D4048093D304809103014A
:101E5000882309F463C0133139F5002E000C110BEF
:101E6000F801E157FB4F8081843068F58F5F8083F4
:101E7000043111056CF4C80123E0880F991F2A95DD
:101E8000E1F7865B9C4F0E94131E8695869501C0E4
:101E900080E0F801E558FB4F880F8083F801E9598D
:101EA000FB4F81E080830FC01E3169F4802F002E2C
:101EB000000C990BFC01E45CFB4F308121E02327EF
:101EC000208321110FC00E94D80A28C0C4010E949B
:101ED000960A682FC5016B830E94131E6B810E94B6
:101EE0003B0D6BCF011102C080EE03C0013021F425
:101EF00081EE0E94ED0F10C0023011F482EEF9CF96
:101F0000033011F486EEF5CF0450003128F4039726
:101F10009093D4048093D304109250040F900F90A8
:101F20000F90DF91CF911F910F91FF90EF90DF9075
:101F3000CF90BF90AF909F908F907F906F900895BB
:101F4000CF93DF93EC01E881F9810480F581E02DE6
:101F50000995E881F9810680F781E02DCE01DF91B6
:101F6000CF910994BC01009791F0FC0101900020F1
:101F7000E9F73197AF01481B590BE091DA04F09172
:101F8000DB040280F381E02D8AED94E0099480E087
:101F900090E008950E94F024CF93DF9300D0CDB756
:101FA000DEB719821A820E946A1D22E030E0AE017B
:101FB0004F5F5F4F65E00E94361D0F900F90DF91DD
:101FC000CF9108958091D904813019F484E595E08A
:101FD00002C080E495E00C94A00F682F8091D90492
:101FE000813019F484E595E002C080E495E00C941A
:101FF000330C682F8091D904813019F484E595E081
:1020000002C080E495E00C94170C0C94B20FCF93AF
:10201000DF93FC0124813581232B61F0C081D181C4
:1020200068E270E0CE010E94FE24009719F08C1B3C
:102030009D0B02C08FEF9FEFDF91CF9108958F929C
:102040009F92AF92BF920F931F93CF93DF93CDB721
:10205000DEB7A1970FB6F894DEBF0FBECDBF19A2B1
:10206000423008F44AE08E010F5D1F4F842E912C00
:10207000A12CB12CA50194010E94D122E62FB90117
:10208000CA0101501109EA3014F4E05D01C0E95CB5
:10209000D801EC93232B242B252B61F7C8010E9438
:1020A000B20FA1960FB6F894DEBF0FBECDBFDF9181
:1020B000CF911F910F91BF90AF909F908F900895F7
:1020C000682F70E080E090E04AE00C941F10CF93FE
:1020D000DF93682F70E080E090E04AE00E941F10DC
:1020E000EC0189E194E00E94B20F8C0F9D1FDF91FB
:1020F000CF910895CF92DF92EF92FF92CF93DF932B
:102100006B017C01E091DA04F091DB040190F08135
:10211000E02D6DE28AED94E00995EC0166277727C2
:10212000CB016C197D098E099F094AE00E941F109E
:102130008C0F9D1FDF91CF91FF90EF90DF90CF909C
:102140000895CF93DF93BC01990F880B990B97FFEC
:1021500003C00E947A1003C04AE00E941F10EC01E5
:1021600089E194E00E94B20F8C0F9D1FDF91CF9107
:102170000895CF93DF930E94B20FEC0189E194E0C0
:102180000E94B20F8C0F9D1FDF91CF910895FC012B
:102190008091D804811103C08FEF9FEF08959FB7FE
:1021A000F89482E08093E9002091F20030E012166A
:1021B000130614F421E030E02115310559F0289878
:1021C00084E68093D7048091F10080838091F200AF
:1021D000882319F09FBFC90108958BE68093E8001A
:1021E000F9CFFC0180819181009711F00C94272593
:1021F00060E070E0CB01089508954091020650918F
:102200000306209100063091010642175307B4F4EB
:102210009091E8009570E1F39091E80092FD19C06B
:102220008093F100809102069091030601968F73CE
:102230009927892B19F48EEF8093E800809102068C
:10224000909103060196909303068093020681E025
:10225000089580E00895CF92DF92EF92FF920F935E
:102260001F93CF93DF931F92CDB7DEB7182F062FA2
:10227000E42E862F880F8E5F99830E94FD1083E0E5
:102280000E94FD10F12EC12E9981D92E8C2D8F190F
:10229000801798F4F601E7FE02C0849101C08081A6
:1022A0000E94FD10182F80E00E94FD108123FFEF97
:1022B000CF1ADF0A8111EACF01C081E00F90DF91D0
:1022C000CF911F910F91FF90EF90DF90CF900895E5
:1022D000615030F02091F100FC0120830196F8CF8D
:1022E000289884E68093D7040895CF92DF92EF92E6
:1022F000FF920F931F93CF93DF936C017A018B01B1
:10230000C0E0D0E0CE15DF0589F0D8016D918D01D8
:10231000D601ED91FC910190F081E02DC601099567
:10232000892B11F47E0102C02196ECCFC701DF9109
:10233000CF911F910F91FF90EF90DF90CF90089574
:10234000CF93DF931F92CDB7DEB76983DC01ED91A8
:10235000FC910280F381E02D41E050E0BE016F5F0F
:102360007F4F09950F90DF91CF91089583E080937F
:10237000E9008091F200882319F08AE38093E80055
:1023800008950F931F93CF93DF931F92CDB7DEB7BE
:102390008C01FC018485958597FF0EC0CE010196C6
:1023A0000E94C710019719F4298130E002C02FEF75
:1023B0003FEFF80135872487F801848595850F90D4
:1023C000DF91CF911F910F910895CF93DF931F92CB
:1023D000CDB7DEB7FC018485958597FD05C02FEF4D
:1023E0003FEF358724870BC0CE0101960E94C710AE
:1023F000019719F4898190E002C08FEF9FEF0F9051
:10240000DF91CF910895FB0144815581FC01248126
:1024100035812417350778F080819181009759F034
:10242000FB01608171816115710529F00E941925F8
:1024300021E0892B09F020E0822F0895FC012481FE
:102440003581232B31F421E061157105A1F0FB01E9
:1024500008C0FC01808191816115710531F421E092
:10246000FC018081882339F005C00E94092521E004
:10247000892B09F020E0822F08950F931F93CF93AB
:10248000DF938C01EB018617970771F1FC018081C6
:1024900091810097B1F0688179816115710579F0BA
:1024A000428153812C813D814217530740F00E94A5
:1024B00012258C819D81F8019583848313C00E942D
:1024C0008E2388819981F801918380838A819B8101
:1024D000938382838C819D81958384831982188262
:1024E0001B821A821D821C82C801DF91CF911F912D
:1024F0000F9108950F931F93CF93DF93EC01888181
:102500009981009729F02A813B812617370788F4A3
:102510008B016F5F7F4F0E942624009761F09983A3
:1025200088831B830A832C813D81232B11F4FC01BA
:10253000108281E001C080E0DF91CF911F910F9167
:102540000895EF92FF920F931F93CF93DF93EC01C7
:102550007B018A01BA010E947A1228813981811196
:102560000DC02115310519F0C9010E948E23198271
:1025700018821D821C821B821A8206C01D830C8356
:10258000B701C9010E941225CE01DF91CF911F91A1
:102590000F91FF90EF900895CF93DF93EC016115B9
:1025A000710559F0FB0101900020E9F73197AF0167
:1025B000461B570B0E94A1120CC08881998100977D
:1025C00011F00E948E23198218821D821C821B82A8
:1025D0001A82CE01DF91CF910895FC018081918113
:1025E0000C948E23FB01DC0111961C921E92139613
:1025F0001C921E92129715961C921E921497861783
:10260000970749F0608171816115710521F044815E
:1026100055810C94A1120895FC011182108213823D
:102620001282158214826115710551F0FB0101902F
:102630000020E9F73197AF01461B570B0C94A1120C
:102640000895BF92CF92DF92EF92FF920F931F9364
:10265000CF93DF937C016B018A01E90124173507D1
:1026600020F4812F8901C42FD82F6BE174E0C701BA
:102670000E940C13D60114968D919C911597081702
:102680001907D0F48C179D0708F4EC01D601ED91E1
:10269000FC911197EC0FFD1FB08010824D915C9161
:1026A000BA01600F711FC7010E94CC12D601ED91D3
:1026B000FC91EC0FFD1FB082C701DF91CF911F91FC
:1026C0000F91FF90EF90DF90CF90BF9008951F92F1
:1026D0000F920FB60F9211248F939F938091E10078
:1026E0009091E100937F9093E10083FF0FC01092DF
:1026F000E90091E09093EB001092EC0092E390934C
:10270000ED001092D80498E09093F00082FF20C072
:1027100093E09093E9009091F200992319F09AE3E5
:102720009093E80090910406992339F09091040663
:10273000915090930406992389F19091D70499239D
:1027400039F09091D70491509093D704992341F197
:1027500084FF10C08091E2008E7E81608093E20051
:102760008091E1008F7E8093E100809152048E7E03
:10277000806111C080FF16C08091E2008E7E806172
:102780008093E2008091E1008E7E8093E100809151
:1027900052048E7E81608093520404C05D9ACDCF36
:1027A000289AD6CF9F918F910F900FBE0F901F90B8
:1027B0001895BF92CF92DF92EF92FF920F931F93E3
:1027C000CF93DF936C018B01EB019BEFB92E209728
:1027D000C1F07E01C134D1051CF080E4E82EF12C5B
:1027E0008091E80082FFFCCFC8018C1B9D0B6E2DF1
:1027F0008C0D9D1D0E946811B092E800CE19DF0972
:10280000E6CFC801DF91CF911F910F91FF90EF901C
:10281000DF90CF90BF900895DF92EF92FF920F93D9
:102820001F93CF93DF93D82E8A017B01E40EF51E10
:10283000EB01CE15DF0571F0D7FE03C0FE018491D8
:1028400001C088810E94FD1021968111F2CF8FEF87
:102850009FEF01C0C801DF91CF911F910F91FF90B1
:10286000EF90DF9008958F929F92AF92BF92CF9298
:10287000DF92EF92FF920F931F93CF93DF9300D0DD
:102880001F92CDB7DEB7382F8B018091D80481110C
:1028900003C08FEF9FEF7DC08091520480FF05C081
:1028A0008091E00082608093E0004A018AEFF82E78
:1028B000832F8770E82E9FE3C92E832F8072B82E56
:1028C0002AE3D22E832F8074A82E8114910409F458
:1028D00057C08FB7F894E092E9009091E80095FF17
:1028E00005C09091F2002C2D291B01C020E08FBF64
:1028F000211110C0FA94FF2061F261E070E080E0E5
:1029000090E039834A835B830E94841B39814A812A
:102910005B81DBCF822F90E0881699060CF4282D7E
:102920006FB7F894E092E9008091E80085FF26C037
:10293000822F90E0881A990ABB2029F02150A8F034
:102940001092F100FBCFF80137FF07C0215058F07B
:1029500074917093F1003196F9CF215020F071916C
:102960007093F100FACF080F191F8091E80085FFDE
:102970000DC08114910411F4A11008C06FBFA5CF40
:102980005D9884E680930406CA0103C0D092E800F3
:10299000F5CF0F900F900F90DF91CF911F910F9176
:1029A000FF90EF90DF90CF90BF90AF909F908F906F
:1029B0000895CF93DF93EC0180911601882331F0C5
:1029C00083E00E9433141816190634F081E090E079
:1029D0009B838A8380E090E0DF91CF910895CF932D
:1029E000DF93FC01DB01C281D381209719F473834B
:1029F000628308C088859985009711F0EC01FACFB1
:102A0000B987A887808112968C931297818113963B
:102A10008C931397908115968C911597890F8083CD
:102A200080E014969C9114978917A0F49181C92F86
:102A3000D0E0AE014C5F5E4F16962D913C911797FA
:102A4000280F311DE9012881EA0128839F5F9183C6
:102A50008F5FE7CF81E0DF91CF9108958091F705F7
:102A600081110DC082E08093F30584E08093F4052A
:102A70001092F6051092F50581E08093F70583EF3B
:102A800095E008950F931F93CF93DF931F92CDB7D7
:102A9000DEB782E0898342E450E064ED71E080E8D3
:102AA0000E940C140E942E15DC0112960D911C91AF
:102AB00013970115110569F0D801ED91FC91028081
:102AC000F381E02DBE016F5F7F4FC801099597FF2D
:102AD00007C089810F90DF91CF911F910F910895C9
:102AE000F80100851185E5CF1F920F920FB60F9266
:102AF0001124CF92DF92EF92FF920F931F932F93A7
:102B00003F934F935F936F937F938F939F93AF9375
:102B1000BF93EF93FF93CF93DF93CDB7DEB76C975F
:102B2000DEBFCDBF1092E9008091E80083FFF4C1C1
:102B300068E0CE0145960E94681182EF8093E8001C
:102B40008D8987FF05C09091E80090FFFCCF03C0FE
:102B50009EEF9093E800982F907609F0C6C09E896A
:102B60002F89188D91110CC0803829F4809153045D
:102B70008093F10002C01092F1001092F10041C167
:102B8000422F50E0512B913051F481113AC1413024
:102B9000510509F036C1809153048D7F0BC09330ED
:102BA00061F481112EC14130510509F02AC1809193
:102BB000530482608093530424C1953041F4809182
:102BC000E80080FFFCCF20682093E3001AC1963014
:102BD00009F05FC0EB8CFC8C1092E90010920306A8
:102BE00010920206123091F5109201061092000622
:102BF0000E94421599E0BE016F5F7F4FDB01E92F14
:102C00001D92EA95E9F799831A8391E09E8390EAF1
:102C100098879AEF99872091020630910306275FE3
:102C20003F4F3C832B838D831092E9001092030663
:102C300010920206F0920106E092000649E050E090
:102C400080E00E940C140E944215DBC0F092010645
:102C5000E09200060E942E15DC011296ED90FC9089
:102C60001397E114F10409F4BAC0D701ED91FC9176
:102C70000480F581E02DBE016B5E7F4FC701099591
:102C8000009719F00CF0BDC0C0C0F701E084F184DA
:102C9000E8CF973009F4B9C0983021F481E08093EF
:102CA000F100AFC0993009F0ACC0837009F0ADC03D
:102CB000E5E0F1E081E021E036E39081992361F0E5
:102CC0008093E9002093EB0091919093EC00309376
:102CD000ED008F5F873089F78EE78093EA001092CE
:102CE000EA008F898093D8048CC08B8D9C8D1092C4
:102CF000E900109203061092020690930106809359
:102D00000006898D811150C08E899D89913A59F4B0
:102D1000813209F07AC047E050E06FE071E080E076
:102D20000E940C146EC0913209F06FC0833289F496
:102D3000888D90E0982F88272F89822BA0E0B0E023
:102D400080930B0190930C01A0930D01B0930E01A1
:102D500058C0803239F467E070E08FE091E00E9463
:102D6000D91306C0823209F04CC08F8980931601B6
:102D700080915104882319F0EEEFFAE002C0E0E000
:102D8000F8E080910F0190911001A0911101B09194
:102D90001201803B9440A105B10509F088C08091E3
:102DA000160180FFA0C083C00E942E15DC01129680
:102DB0000D911C9113970115110539F1D801ED9171
:102DC000FC910190F081E02DBE016B5E7F4FC80148
:102DD0000995811116C0F80100851185ECCF1130DD
:102DE000C1F0133091F48F89882309F455C08230E3
:102DF000E9F440E860E186E292E00E942B1188232A
:102E000021F08EEF8093E80087C081E28093EB0091
:102E100083C08B8D9C8D089711F41093FF058091D2
:102E2000FF05811136C067E372E038C0813029F4B4
:102E300040E86BE08AE192E0E0CF833031F70E9416
:102E40002E15DC011296ED90FC9013978E010F5F0A
:102E50001F4F6801E114F10479F0D701ED91FC9165
:102E60000680F781E02DB801C7010995080F111DF3
:102E7000F701E084F184EECFD8011C92F6010190B5
:102E80000020E9F73197BF016C197D0940E0C601C8
:102E9000B4CF69E472E002C066E172E061157105C9
:102EA00009F4B3CFFB01449150E080E839CF0FB66D
:102EB000F894A895809160008861809360001092DA
:102EC00060000FBEA895EE3F2AE0F20739F080912E
:102ED000FE0A9091FF0A9183808393CF1092FF0A9C
:102EE0001092FE0A8ECFEE3F8AE0F80731F0808123
:102EF00091819093FF0A8093FE0A87E797E7918379
:102F000080839BE088E10FB6F894A89580936000D9
:102F10000FBE9093600075CF6C960FB6F894DEBF2D
:102F20000FBECDBFDF91CF91FF91EF91BF91AF91D8
:102F30009F918F917F916F915F914F913F912F91D1
:102F40001F910F91FF90EF90DF90CF900F900FBEE9
:102F50000F901F901895FC018485958597FD0BC0F7
:102F60009FB7F89482E08093E9008091F2009FBFC0
:102F700090E0019608959FB7F89482E08093E9006D
:102F80008091F2009FBF90E008953FB7F894809140
:102F9000A6069091A706A091A806B091A90626B50D
:102FA000A89B05C02F3F19F00196A11DB11D3FBF81
:102FB000BA2FA92F982F8827820F911DA11DB11D0F
:102FC000BC01CD0142E0660F771F881F991F4A950B
:102FD000D1F7089585ED8093BC008091BC0084FDFD
:102FE000FCCF10925604089540915E06262F30E0E3
:102FF000240F311D21323105DCF420915604243098
:10300000C9F4FC0180E090E0861758F430915E0628
:103010002191DC01A25CB94FA30FB11D2C93019645
:10302000F3CF80915E06680F60935E0680E008959E
:1030300081E0089582E00895E0915F04F0916004DA
:10304000309729F01092580410925704099408956B
:10305000CF93DF93AC01E0916104F091620430976B
:10306000F1F090915A04809159049817C0F090E0C3
:10307000292F30E02617370754F4D901A25EB94F43
:10308000EA01C20FD31F88818C939F5FF1CF10920A
:103090005A0460935904CB01DF91CF910994DF91D9
:1030A000CF9108950895E0915A0480915904E8174A
:1030B00030F4F0E0E25EF94F808190E008958FEF08
:1030C0009FEF089590915A0480915904981750F4F5
:1030D000E92FF0E0E25EF94F208130E09F5F9093AE
:1030E0005A0402C02FEF3FEFC9010895809159049F
:1030F00090E020915A04821B91090895CF93DF93A9
:1031000000D0CDB7DEB7CB01642F49835A830E942C
:10311000F4174981842F5A81952F0F900F90DF91DA
:10312000CF910895CF93DF931F92CDB7DEB7698318
:1031300061E0CE0101960E94F41781E090E00F90CB
:10314000DF91CF910895FC0134969C01245F3F4F9D
:1031500080E090E04081411101961192E217F3075F
:10316000C9F70895FC0120E2260F2830F0F0DC01B9
:10317000169620E030E08D91442349F0861304C078
:10318000E20FF31F668326C0811107C0F9CF8613B3
:1031900004C0E20FF31F16821DC02F5F3F4F263081
:1031A000310549F780E090E008953481442349F0E7
:1031B00081E090E001C0880F2A95EAF7832B848391
:1031C00009C041E050E001C0440F2A95EAF740955C
:1031D0004323448381E090E00895FC0134969C01F0
:1031E0002D5E3F4F80E090E0608160FD0196462FAC
:1031F00050E055954795642F452BB9F71192E2178A
:10320000F30791F70895FC016836B8F4862F8770AC
:1032100021E030E001C0220F8A95EAF766956695B5
:103220006695E60FF11D442319F08581282B03C014
:10323000209595812923258326C050E2560F5830CA
:10324000B0F46481442349F021E030E001C0220F52
:103250005A95EAF7262B248316C081E090E001C03E
:10326000880F5A95EAF78095862384830CC082895B
:10327000442331F0861711F0811108C0628B03C01E
:10328000861304C0128A81E090E0089580E090E007
:103290000895DC01FB0112968C91129790E0248135
:1032A000358182179307D1F491818081813A31F47D
:1032B00081E0913091F0933089F411C0813271F442
:1032C0009B3021F482811F968C9305C09A3031F493
:1032D000828150968C9381E00895089580E008954E
:1032E000DC01FB0188E4808389E4818384E48283B8
:1032F0001D969C911D979F709F5B93831D968D914A
:103300009C911E9724E0969587952A95E1F78F70FA
:103310008F5B848385E00895FC0182818F5BFB01D4
:10332000808381E00895CF93DF93EC01FB018A81D4
:1033300090E0248135818217930709F04AC081818A
:103340009081913A69F4813009F441C0833011F4DD
:103350008F8903C08230E9F5888D8093F10037C0F2
:103360009132B9F58B3019F482818F8B30C08A305D
:1033700019F48281888F2BC0893059F56681778155
:103380008381833079F48C8D9D8D6817790709F5D9
:103390008A8D9B8D0E94D9138C8D9D8D90689D8FF9
:1033A0008C8F15C0823041F46130710591F461E079
:1033B00070E0CE01499609C0813059F4683071053A
:1033C00041F468E070E0CE010E960E94D91381E0CE
:1033D00001C080E0DF91CF910895FB012081213869
:1033E000B9F423812232A1F4DC0112962C911297B8
:1033F00030E0448155814217530751F421E057963C
:103400002C9345E450E06BE572E080E80C940C14DA
:1034100080E090E00895CF93DF93CDB7DEB7699752
:103420000FB6F894DEBF0FBECDBFFC01DB019C914F
:103430009F5F9C93BE016F5F7F4F89E1DB011D920F
:103440008A95E9F729E0298384E08A8391E09D83C6
:1034500083E08E839F8398872A8721E22B879C872E
:103460009D879F8722E2288B25E4298B27E02B8BE1
:1034700025E02C8B8E8B20E430E0388F2F8B998FBA
:1034800082818B83838180688D8B49E150E080E06D
:103490000E940C1469960FB6F894DEBF0FBECDBF24
:1034A000DF91CF910895EF92FF920F931F93CF93E7
:1034B000DF93FB012081213851F52381223239F538
:1034C000DC0112962C9130E044815581421753075C
:1034D000F1F4EC010B851C85E12CF12C0115110593
:1034E00091F0F801448155816281738180E80E94E6
:1034F0000C148F3FFFEF9F0769F0E80EF91ED8010B
:103500000D911C91EBCF81E08F87C70105C080E052
:1035100090E002C08FEF9FEFDF91CF911F910F914D
:10352000FF90EF900895CF93DF93CDB7DEB7699703
:103530000FB6F894DEBF0FBECDBFFC01DB018C914E
:103540008F5F8C93BE016F5F7F4F89E1DB011D921E
:103550008A95E9F729E0298384E08A8391E09D83B5
:1035600083E08E832A8721E22B879C879D879F8714
:1035700022E2288B27E02B8B25E02C8B8E8B20E4FE
:1035800030E0388F2F8B998F82818B83958586854C
:10359000998B8A8B838180688D8B49E150E080E034
:1035A0000E940C1469960FB6F894DEBF0FBECDBF13
:1035B000DF91CF91089590E0FC013197EF30F10554
:1035C000B0F5EB59FF4F0C94F322809180008F7778
:1035D00003C0809180008F7D80938000089580914A
:1035E0008000877FF9CF84B58F7702C084B58F7D47
:1035F00084BD0895809190008F7707C080919000DE
:103600008F7D03C080919000877F80939000089504
:103610008091C0008F7703C08091C0008F7D809320
:10362000C00008958091C200877F8093C2000895F2
:103630001F93CF93DF93282F30E0F901EC5CFE4F0E
:103640008491F901EB5EFE4FD491F901EA50FF4FEE
:10365000C491CC23C9F0162F81110E94DB1AEC2FE4
:10366000F0E0EE0FFF1FE255FD4FA591B4918FB72B
:10367000F894111105C09C91ED2FE095E92302C04B
:10368000EC91ED2BEC938FBFDF91CF911F910895BB
:10369000CF93DF9390E0FC01EB5EFE4F2491FC01A1
:1036A000EA50FF4F8491882361F190E0880F991FC1
:1036B000FC01E056FD4FC591D491FC01E255FD4F50
:1036C000A591B491611109C09FB7F89488812095A4
:1036D00082238883EC912E230BC0623061F49FB764
:1036E000F8943881822F809583238883EC912E2B48
:1036F0002C939FBF06C08FB7F894E8812E2B2883A8
:103700008FBFDF91CF9108958F929F92AF92BF921A
:10371000CF92DF92EF92FF926B017C010E94C5175E
:103720004B015C01C114D104E104F104F1F00E94E9
:10373000C517DC01CB0188199909AA09BB09883E84
:103740009340A105B10570F321E0C21AD108E10848
:10375000F10888EE880E83E0981EA11CB11CC114EC
:10376000D104E104F10419F7DDCFFF90EF90DF9071
:10377000CF90BF90AF909F908F9008951F920F921F
:103780000FB60F9211242F933F938F939F93AF9374
:10379000BF938091630490916404A0916504B091FB
:1037A00066043091A50623E0230F2D3720F40196FF
:1037B000A11DB11D05C026E8230F0296A11DB11D54
:1037C0002093A5068093630490936404A0936504FA
:1037D000B09366048091A6069091A706A091A806D2
:1037E000B091A9060196A11DB11D8093A6069093E4
:1037F000A706A093A806B093A906BF91AF919F9189
:103800008F913F912F910F900FBE0F901F901895A1
:103810001F920F920FB60F9211242F933F934F9345
:103820005F936F937F938F939F93AF93BF93EF9328
:10383000FF938091B900887F803609F49CC068F5B9
:10384000883209F45BC090F4803109F454C038F434
:10385000882309F4F6C0883009F44DC0F6C08831D9
:1038600009F44CC0803209F45DC0EFC0803409F423
:1038700068C048F4803309F455C0883309F0E5C0C6
:1038800080938106D8C0803509F44FC0883509F48B
:103890005DC0883409F0D9C0D6C0883909F4C7C0E2
:1038A000A8F4883709F467C038F4883609F463C08F
:1038B000803709F460C0C9C0883809F4B8C08039BD
:1038C00009F45FC0803809F0C0C05BC0803B09F4D8
:1038D00086C038F4803A09F466C0883A09F47FC09B
:1038E000B4C0803C09F4A7C0883C09F4A4C0883B5C
:1038F00009F48AC0AAC08091A40610C09091A306C2
:103900008091A206981770F5E091A30681E08E0FD2
:103910008093A306F0E0EE57F94F80818093BB00BF
:1039200085EC86C0809381068EC0E091A30681E07D
:103930008E0F8093A3068091BB00F0E0EE57F94F05
:1039400080839091A3068091A2066EC0E091A306A9
:1039500081E08E0F8093A3068091BB00F0E0EE57CC
:10396000F94F80838091550481116DC081E080936F
:10397000540484EA61C083E0809356041092800668
:10398000CFCF80918006803208F051C0E091800650
:1039900081E08E0F809380068091BB00F0E0E05ABA
:1039A000F94F8083BDCF85EC8093BC001092560404
:1039B00080918006803230F4E0918006F0E0E05A99
:1039C000F94F10826091800670E0E0915B04F09105
:1039D0005C0480E696E009951092800636C084E08B
:1039E0008093560410925F0610925E06E0915D048B
:1039F000F0915E04099580915E06811105C081E019
:103A000080935E0610923E06E0915F0681E08E0F85
:103A100080935F06F0E0E25CF94F80818093BB0009
:103A200090915F0680915E06981708F479CF85E83B
:103A30008093BC000AC085EC8093BC0010925604B1
:103A400004C0109281060E94EA17FF91EF91BF9186
:103A5000AF919F918F917F916F915F914F913F9126
:103A60002F910F900FBE0F901F901895AF92BF929D
:103A7000CF92DF92EF92FF920F931F93CF93DF933A
:103A80001F92CDB7DEB77C0169836A01590141E01D
:103A900050E0BE016F5F7F4FFC0183810E943314B1
:103AA0008C0197FD0BC0F7018381A501B6018064ED
:103AB0000E94331497FD02C0800F911F0F90DF9179
:103AC000CF911F910F91FF90EF90DF90CF90BF901B
:103AD000AF90089580911606811137C081E08093E0
:103AE000090680930A062FE036E030930C062093F7
:103AF0000B0610920E0610920D062BE831E0309363
:103B000006062093050610921106109210061092D8
:103B1000130610921206809314068093150681EC0A
:103B200080930F060E942E15FC0141812091090609
:103B300030E0240F311D2830310524F465E076E0B3
:103B40000E94EF1481E08093160685E096E00895C8
:103B5000CF93DF93EC010E946A1DAE014C5F5F4F73
:103B60002FE030E068E0DF91CF910C94361DEF92AA
:103B7000FF920F931F93CF93DF93C82F880FDD0B16
:103B8000CE0181579B4F7C01DC011C911150C43147
:103B9000D10594F4133080F4CE0123E0880F991FEF
:103BA0002A95E1F7810F911D810F911D835B9C4F39
:103BB0000E94131E082F01C000E0612FCE010E9459
:103BC000CE0B602F0E94660CFE01E959FB4F8081ED
:103BD000811105C0D7011C92C558DB4F1882108295
:103BE000DF91CF911F910F91FF90EF9008950F9368
:103BF0001F93CF93DF931F92CDB7DEB78C016983FC
:103C00000E9463256981681741F0C8010F90DF9118
:103C1000CF911F910F910C946B250F90DF91CF9155
:103C20001F910F9108950C9463251092DD0410925A
:103C3000DC0488EE93E0A0E0B0E08093DE04909393
:103C4000DF04A093E004B093E10425E331E0309376
:103C5000DB042093DA042FEF3FEF3093E704209347
:103C6000E60410922D0510922C0580932E0590935A
:103C70002F05A0933005B093310585E491E0909332
:103C80002B0580932A0581E080933A0580933B05BC
:103C90002CE435E030933D0520933C0510923F0520
:103CA00010923E05109243051092420525E531E041
:103CB000309337052093360523E631E030934105F4
:103CC0002093400580934D0580934E0510924F053B
:103CD0001092510510925005109253051092520502
:103CE00081EC80934C050E942E15FC0141812091AE
:103CF0003A0530E0240F311D2830310524F466E305
:103D000075E00E94EF1410925705109256058DE74A
:103D100091E090935505809354058091DD058111C4
:103D200013C01092D8051092D70583E591E09093C7
:103D3000DA058093D90586E390E09093DC058093C3
:103D4000DB0581E08093DD050E946A1DFC01A385EF
:103D5000B485109729F487ED95E0948783870BC08D
:103D60008D919C911197009711F0DC01F9CF87EDAF
:103D700095E08D939C93258536858091DB05909108
:103D8000DC05820F931F968785876BE174E087E6D9
:103D900095E00E940C138091EB05811113C01092E5
:103DA000E6051092E50589E891E09093E805809397
:103DB000E7058BE490E09093EA058093E90581E0C4
:103DC0008093EB050E946A1DFC01A385B4851097C2
:103DD00029F485EE95E0948783870BC08D919C91A3
:103DE0001197009711F0DC01F9CF85EE95E08D93E6
:103DF0009C93258536858091E9059091EA05820F8F
:103E0000931F968785870895CF93DF93CDB7DEB74D
:103E100029970FB6F894DEBF0FBECDBF789484B556
:103E2000826084BD84B5816084BD85B5826085BDB6
:103E300085B5816085BD80916E00816080936E0044
:103E40001092810080918100826080938100809136
:103E500081008160809381008091800081608093E7
:103E60008000809191008260809391008091910008
:103E70008160809391008091900081608093900098
:103E80008091C10084608093C1008091C1008260F4
:103E90008093C1008091C10081608093C1008091B6
:103EA000C30081608093C3008091C00082608093D2
:103EB000C0008091C20081608093C20080917A002E
:103EC000846080937A0080917A00826080937A0087
:103ED00080917A00816080937A0080917A00806876
:103EE00080937A001092D8041092530410925204D6
:103EF0008091D70081608093D70080EA8093D800BA
:103F000089B5806189BD89B5826089BD09B400FE2B
:103F1000FDCF61E070E080E090E00E94841B809122
:103F2000D8008F7C80618093D8008091E000807FF2
:103F30008093E0008091E1008E7E8093E1008DE02F
:103F40008093E200559A209AEEEFFFE785919491D5
:103F50008B3F9C4D19F481E0809351040E94E20F45
:103F60008FEF9FEF9093E7048093E6048EEF93E04A
:103F70000E94131E182F8091D904813019F484E512
:103F800095E002C080E495E00E94200D1093D904D2
:103F90000E94E20F80E18093BA008CE198E1909357
:103FA0005E0480935D0488E298E190935C048093C2
:103FB0005B0410925A041092590410925804109203
:103FC00057041092560481E08093550410925404D3
:103FD00061E082E00E94181B61E083E00E94181BF0
:103FE0008091B9008E7F8093B9008091B9008D7F58
:103FF0008093B90088E48093B80085E48093BC0086
:10400000109203018BEA9BE09093600480935F041D
:1040100081E19BE0909362048093610447E654E061
:104020008BE794E0EFE8F4E01192DC011D92CD0102
:10403000DA011D92AD01B4E0E33AFB07A9F70DE107
:1040400011E0F801F0800E5F1F4F60E08F2D0E949D
:10405000481B61E08F2D0E94181BF1E005321F07FD
:1040600081F705E211E0D801FC900E5F1F4F60E080
:104070008F2D0E94481B60E08F2D0E94181BB1E01D
:1040800001331B0781F720E030E080E090E0AC01D5
:10409000420F531FFA01ED55FB4F11821082FA01B6
:1040A000EA55FA4F1182108208968033910579F70C
:1040B0002E5F3F4F2830310541F76CE271E080E020
:1040C00090E00E94841B2FB7F89480916304909134
:1040D0006404A0916504B09166042FBF80937205BB
:1040E00090937305A0937405B093750540916E0588
:1040F00050916F0560917005709171058C019D0163
:10410000041B150B260B370B053011052105310556
:1041100060F080936E0590936F05A0937005B09347
:10412000710581E08093D60502C01092D6058AED14
:1041300094E00E94AB17181619060CF04AC08AEDDD
:1041400094E00E94E511803219F189831A8200916E
:104150006B0510916C050F5F1F4FB80187E695E066
:104160000E947A12882341F12091670530916805F9
:1041700080916B0590916C05BE016F5F7F4F820F40
:10418000931F0E94122510936C0500936B0514C0B9
:1041900067E675E0CE0101960E94F212CE0101960B
:1041A0000E948A01CE0101960E94ED126BE174E03B
:1041B00087E695E00E94CC1280916B0590916C058A
:1041C0008536910530F06BE174E087E695E00E945A
:1041D000CC128091D605882309F4DEC00091D50465
:1041E0001091D6048FEF93E00E94131E90E0801789
:1041F00091070CF4BCC12091D3043091D4048217F0
:1042000093070CF4B4C173EA472E74E0572E820171
:10421000E5E2EE2EE1E0FE2ED7019C90B2E0EB0E3F
:10422000F11C61E0892D0E94481B6DE1C62E61E002
:10423000D62EA12CB12CF601219131916F0133279B
:10424000F901EC5CFE4F8491F901EB5EFE4F849026
:10425000F901EA50FF4F74907720A1F081110E947C
:10426000DB1AE72DF0E0EE0FFF1FE851FF4FA5919D
:10427000B491EC918E2231E020E009F430E0832FFC
:10428000922F02C080E090E0F801EA0DFB1D21E0D2
:1042900082279183808332E0A30EB11C88E0A816A8
:1042A000B10409F0C8CF60E0892D0E94481B085F67
:1042B0001F4F94E0033D190709F0AECF36EAA32E55
:1042C00035E0B32E46E7842E45E0942E00E010E062
:1042D000C12CD12CE12CF12C95012C0D3D1D3887E2
:1042E0002F8312012C0C3D1CD1018D919C91F90161
:1042F000208131812817390771F1F401EC0DFD1D82
:104300000197B9F46090D3047090D40471826082F4
:10431000A301B801C7010E94E20B282FA301B80135
:10432000C70129870E94F70B2985622F0E943B0D48
:1043300012C060807180A301B801C7010E94E20B26
:10434000282FA301B801C70129870E94F70B2985EF
:10435000622F0E94660CD1018D919C91EF81F885AE
:1043600091838083FFEFEF1AFF0A28E0C20ED11C71
:1043700030E3C316D10409F0AFCF0F5F1F4F82E0C7
:10438000480E511C92E0A90EB11CA2E08A0E911CAD
:104390000430110509F09CCF009101011091020138
:1043A00061E085E00E94481B0115110511F460E0F1
:1043B00004C00F3F110529F461E085E00E94181B3D
:1043C0007CC0E9E3F1E0E4918E2F90E0FC013197AD
:1043D000EF30F10508F06CC0EA5AFF4F0C94F3225D
:1043E00084B5806884BD07BD68C084B5806284BD23
:1043F00008BD63C080918000806880938000109326
:1044000089000093880059C0809180008062809369
:10441000800010938B0000938A004FC08091800031
:1044200088608093800010938D0000938C0045C0BD
:104430008091900080688093900010939900009381
:1044400098003BC080919000806280939000109310
:104450009B0000939A0031C0809190008860809307
:10446000900010939D0000939C0027C08091C00095
:1044700080688093C0008091C0008F7B8093C000D3
:104480000093CF001AC08091C00080628093C0006A
:104490000093D00012C08091C20088608093C20057
:1044A0008091C2008B7F8093C2000093D20005C030
:1044B000003811050CF080CF7ACF8091D60581119C
:1044C00008C080E090E0892B09F4FDCD0E94000037
:1044D000FACD809103018823A1F38BE7C82E84E0F5
:1044E000D82E9FE8892E94E0992E2CE4A22E23E06A
:1044F000B22EE12CF12CF40111914F01112349F15D
:10450000D6018C91882319F081508C9322C01150D0
:10451000133050F4C501810F911D810F911D01963B
:104520000E94131E082F01C000E0612FC7010E94E6
:10453000CE0B602F0E943B0DF701E959FB4F8081A4
:10454000811107C080910301882319F08E2D0E94EC
:10455000B71DBFEFEB1AFB0AEFEFCE1ADE0AF8E049
:10456000AF0EB11C04E1E016F10429F6AACF1092B7
:10457000D6041092D5041092D4041092D30443CEE2
:10458000BC01625F7F4FFC01838148E050E08064A2
:104590000C9433140A970C94C02287E695E00C948F
:1045A000ED12A1E21A2EAA1BBB1BFD010DC0AA1F12
:1045B000BB1FEE1FFF1FA217B307E407F50720F08C
:1045C000A21BB30BE40BF50B661F771F881F991F07
:1045D0001A9469F760957095809590959B01AC0150
:1045E000BD01CF010895EE0FFF1F0590F491E02D5E
:1045F0000994CF93DF938230910510F482E090E02C
:10460000E091AC06F091AD0620E030E0C0E0D0E0F3
:10461000309711F14081518148175907C0F0481770
:10462000590761F482819381209719F09B838A83D3
:104630002BC09093AD068093AC0626C021153105A2
:1046400019F04217530718F49A01BE01DF01EF0178
:104650000280F381E02DDCCF2115310509F1281B03
:10466000390B2430310590F412968D919C9113975B
:104670006115710521F0FB019383828304C090933F
:10468000AD068093AC06FD01329644C0FD01E20FF9
:10469000F31F81939193225031092D933C933AC09B
:1046A0002091AA063091AB06232B41F420911901E9
:1046B00030911A013093AB062093AA06209117017E
:1046C000309118012115310541F42DB73EB74091C5
:1046D0001B0150911C01241B350BE091AA06F0919F
:1046E000AB06E217F307A0F42E1B3F0B2817390780
:1046F00078F0AC014E5F5F4F2417350748F04E0F3E
:104700005F1F5093AB064093AA068193919302C01A
:10471000E0E0F0E0CF01DF91CF9108950F931F9378
:10472000CF93DF93009709F48CC0FC01329713827A
:1047300012820091AC061091AD060115110581F4AD
:1047400020813181820F931F2091AA063091AB0600
:104750002817390779F5F093AB06E093AA0671C0E4
:10476000D80140E050E0AE17BF0750F412962D91EB
:104770003C911397AD012115310509F1D901F3CF12
:104780009D01DA013383228360817181860F971F37
:104790008217930769F4EC0128813981260F371FAE
:1047A0002E5F3F4F318320838A819B819383828355
:1047B000452B29F4F093AD06E093AC0642C0139666
:1047C000FC93EE931297ED01499159919E01240FAC
:1047D000351FE217F30771F480819181840F951FD3
:1047E000029611969C938E938281938113969C934B
:1047F0008E931297E0E0F0E0D80112968D919C9193
:104800001397009719F0F8018C01F6CF8D919C91C8
:1048100098012E5F3F4F820F931F2091AA0630917F
:10482000AB062817390769F4309729F41092AD06C2
:104830001092AC0602C0138212821093AB06009352
:10484000AA06DF91CF911F910F910895A0E0B0E0EB
:10485000ECE2F4E20C947D25EC01009721F4CB010D
:104860000E94F922B8C0FC01E60FF71F9C012250FC
:104870003109E217F30708F4ACC0D9010D911C917E
:10488000119706171707B0F00530110508F49FC0FF
:10489000C80104978617970708F499C002501109B8
:1048A000061B170B019311936D937C93CF010E940C
:1048B0008E238DC05B01A01AB10A4C01800E911E9F
:1048C000A091AC06B091AD0640E050E0E12CF12C97
:1048D000109709F44AC0A815B905D1F56D907C90E0
:1048E0001197630182E0C80ED11CCA14DB0480F169
:1048F000A3014A195B096A0182E0C80ED11C129615
:10490000BC9012971396AC91B5E0CB16D10440F051
:10491000B282A38351834083D9016D937C930AC0F3
:104920000E5F1F4FC301800F911FF9019183808398
:10493000EB2DFA2FE114F10431F0D7011396FC931B
:10494000EE93129744C0F093AD06E093AC063FC0DF
:104950008D919C9111974817590708F4AC017D017E
:1049600012960D90BC91A02DB3CF8091AA06909184
:10497000AB0688159905E1F446175707C8F48091EE
:10498000170190911801009741F48DB79EB740919F
:104990001B0150911C01841B950BE817F907C8F403
:1049A000F093AB06E093AA06F901718360830FC010
:1049B000CB010E94F9227C01009759F0A801BE01A9
:1049C0000E94F524CE010E948E23C70104C0CE01AF
:1049D00002C080E090E0CDB7DEB7EEE00C94992500
:1049E00081E090E0F8940C94B025FB01DC0102C05A
:1049F00001900D9241505040D8F70895FC018191EB
:104A0000861721F08823D9F7992708953197CF0188
:104A10000895FB01DC018D91019080190110D9F3FB
:104A2000990B0895FB01DC0101900D920020E1F744
:104A30000895FB01DC014150504030F08D91019010
:104A4000801919F40020B9F7881B990B08951F935A
:104A5000FC0199278827BC01E89411911032E9F3F1
:104A6000193010F01E30C8F31B3251F01D3249F4DA
:104A7000689406C00E944E25610F711D811D911D15
:104A8000119110531A30B0F33EF4909580957095C3
:104A900061957F4F8F4F9F4F1F910895592F482F3A
:104AA000372F262F660F771F881F991F660F771FD6
:104AB000881F991F620F731F841F951F660F771F32
:104AC000881F991F0895F999FECF92BD81BDF89A6C
:104AD000992780B50895262FF999FECF1FBA92BD68
:104AE00081BD20BD0FB6F894FA9AF99A0FBE0196CF
:104AF00008952F923F924F925F926F927F928F9282
:104B00009F92AF92BF92CF92DF92EF92FF920F935C
:104B10001F93CF93DF93CDB7DEB7CA1BDB0B0FB666
:104B2000F894DEBF0FBECDBF09942A883988488823
:104B30005F846E847D848C849B84AA84B984C884B9
:104B4000DF80EE80FD800C811B81AA81B981CE0FB0
:104B5000D11D0FB6F894DEBF0FBECDBFED01089595
:104B600011E0CFE5D1E004C0FE010E94F3222196BE
:0A4B7000C036D107C9F7F894FFCF53
:104B7A000132000100C18081000000FFFFFFFF0039
:104B8A00E10000000000000000AE068000060007F9
:104B9A000008000900130012000F000E0010000A9E
:104BAA000000000000A011D914AB17E511C111B61D
:104BBA00110000000092187E1876186218531852D5
:104BCA00180000000093190B1AED198C19C022F66F
:104BDA00FF00004F0C7511A318CA22B2180000007A
:104BEA0000CA0FCA0FCA0F8C19000000004F0C75BB
:104BFA0011ED18A81D0319000000004919931A5352
:104C0A001A7019756E697175656B726571696E6670
:104C1A006F00444550524543494154454400756E1E
:104C2A00697175656B7265716E616D65004469764F
:104C3A006572676520544D203220536C6176650099
:104C4A00756E697175656B72657176617269616E8F
:104C5A007400756E697175656B72657164726976D7
:104C6A00657200416E696D757320496E6E6F76616B
:104C7A0020322E352E3100756E697175656B72653D
:104C8A00716275696C64004F454D00756E69717586
:104C9A00656B7365746B657900736574206B6579F0
:104CAA002800756E697175656B73657465657072D8
:104CBA006F6D0073657420454550524F4D2800753D
:104CCA006E697175656B7365746C6179007365746F
:104CDA00206C6179657220636F756E742800657245
:104CEA00726F723A20696E73756666696369656E7A
:104CFA007420454550524F4D00756E697175656B4C
:104D0A006765746C617900756E697175656B676545
:104D1A0074656570726F6D00756E697175656B6724
:104D2A0065746B65790072657475726E206B65794E
:104D3A002800756E697175656B676574726F7700A7
:104D4A00756E697175656B676574636F6C00756EF6
:104D5A00697175656B7365746D61737465720073DF
:104D6A006574206D61737465722800756E6971755A
:104D7A00656B7365746E6B726F00736574204E4B4E
:104D8A00524F206D6F646528006572726F723A2007
:104D9A00696E76616C6964204E4B524F206F707455
:104DAA00696F6E00756E697175656B6765746E6B98
:104DBA00726F00756E697175656B6765746D6F6486
:104DCA007300676574206D6F64732800426C6564B4
:104DDA0050574D00756E697175656B7365746272B3
:104DEA00696768746E6573730073657420627269AB
:104DFA006768746E657373282900756E69717565C5
:104E0A006B6765746272696768746E65737300674D
:104E1A006574206272696768746E65737328290005
:104E2A00493243536C617665006D6564696100754A
:104E3A006E697175656B7365746D6163726F00730A
:104E4A006574206D6163726F28006475616C526FBE
:104E5A006C65730074617044616E636500756E6998
:104E6A007175656B73657474617064616E636500F6
:104E7A007365742074617064616E6365280073746D
:0C4E8A0069636B794B657973000D0A00B9
:00000001FF
