:100000000C9476010C949E010C949E010C949E011C
:100010000C949E010C949E010C949E010C949E01E4
:100020000C949E010C949E010C9493100C94A012BD
:100030000C949E010C949E010C949E010C949E01C4
:100040000C949E010C949E010C949E010C949E01B4
:100050000C949E010C949E010C949E010C947319B7
:100060000C949E010C949E010C949E010C949E0194
:100070000C949E010C949E010C949E010C949E0184
:100080000C949E010C949E010C949E010C949E0174
:100090000C949E010C949E010C949E010C949E0164
:1000A0000C949E010C949E010C949E01EC1EF11E7A
:1000B000F61E001F0A1F541F541F541F141F1E1F1B
:1000C000281F321F3F1F541F471FD818DB18CA189C
:1000D000CE18D418FC18FC18FC18DF18E318E71821
:1000E000ED18F118FC18F718000000002500280092
:1000F0002B002E003100080B00020202010009044F
:100100000000010202000005240010010524010185
:1001100001042402060524060001070581031000DE
:100120004009040100020A00000007050202400025
:10013000000705830240000004030904417264754E
:10014000696E6F204C4C430041726475696E6F207C
:100150004C656F6E6172646F001201000200000056
:10016000404123368000010102030112010002EF29
:10017000020140412336800001010203010000001A
:10018000002300260029002C002F0004040404048E
:10019000030405020202020403020202020606062A
:1001A00006060604040202020404040802011040C8
:1001B00080401020408040800802040180402010D0
:1001C0000201108010204040200000000200090FB2
:1001D0000000030401000C0000000000000000000B
:1001E000000000000000000005010906A10105074C
:1001F00019E029E715002501750195088102050C14
:1002000095017508150026FF00190029FF810005DA
:1002100008190129089508750191020507950675C9
:1002200008150026E700190029E78100C00000003A
:1002300000240027002A002D00300005010906A136
:10024000018508050719E029E715002501750195C5
:10025000088102190029671500250175019568813B
:100260000295017508150026E700190029E78100AD
:10027000C005010902A10185010509190129081517
:100280000025019508750181020501093009310930
:10029000381581257F750895038106C0050C090175
:1002A000A10185051500250109E909EA75019502F5
:1002B000810609E29501810609B09501810609B11F
:1002C0009501810609B79501810609B59501810659
:1002D00009B69501810609B39501810609B4950116
:1002E000810695068107C000FF1FFB1F11241FBE5A
:1002F000CFEFDAE0DEBFCDBF14E0A0E0B1E0ECE686
:10030000F7E402C005900D92A633B107D9F726E0B5
:10031000A6E3B4E001C01D92A53BB207E1F711E0EE
:10032000C5E7D1E004C02197FE010E94EC20C4374C
:10033000D107C9F70E94441C0C94A9230C94000017
:100340003F924F925F926F927F928F929F92AF9265
:10035000BF92CF92DF92EF92FF920F931F93CF93B2
:10036000DF93CDB7DEB763970FB6F894DEBF0FBE4D
:10037000CDBF8C0165E971E00E945615882321F0FC
:1003800084EA91E00E94CF1B60EB71E0C8010E94FB
:100390005615882321F08FEB91E00E94CF1B6FEC64
:1003A00071E0C8010E945615882321F081EE91E08A
:1003B0000E94CF1B6AEF71E0C8010E945615882386
:1003C00021F08BE092E00E94CF1B6FE172E0C80148
:1003D0000E945615882319F08FE292E0B4C163E3BE
:1003E00072E0CE0101960E947E10BE016F5F7F4FCA
:1003F000C8010E943B15F82ECE0101960E944416BA
:10040000FF2009F4F5C0C8010E941D1BAC014F5F1D
:100410005F4FB801CE0101960E94780BBE016F5F5D
:100420007F4FC8010E947515CE0101960E944416A7
:10043000C8010E941D1B9C0140E050E0B801CE01A4
:1004400001960E94FE15CE0101960E943015962E4F
:10045000CE0101960E944416C8010E941D1BAC01EA
:100460004F5F5F4FB801CE0101960E94780BBE012D
:100470006F5F7F4FC8010E947515CE0101960E94E3
:100480004416C8010E941D1B9C0140E050E0B801C9
:10049000CE0101960E94FE15CE0101960E943015F4
:1004A000A62ECE0101960E944416C8010E941D1B73
:1004B000AC014F5F5F4FB801CE0101960E94780BEF
:1004C000BE016F5F7F4FC8010E947515CE01019676
:1004D0000E944416C8010E941D1B9C0140E050E090
:1004E000B801CE0101960E94FE15CE0101960E9430
:1004F0003015B62ECE0101960E944416C8010E9406
:100500001D1BAC014F5F5F4FB801CE0101960E94E9
:10051000780BBE016F5F7F4FC8010E947515CE0139
:1005200001960E944416C8010E941D1B9C0140E0D8
:1005300050E0B801CE0101960E94FE15CE01019651
:100540000E943015C62ECE0101960E944416C801A5
:100550000E941D1BAC014F5F5F4FB801CE01019699
:100560000E94780BBE016F5F7F4FC8010E94751516
:10057000CE0101960E944416C8010E943015D62E65
:100580008AE0A89E70011124E90CF11C82E3B89E58
:10059000E00CF11C1124EE0CFF1C6C2DC7010E9415
:1005A0006C1A6D2DC70101960E946C1A81E492E0CD
:1005B0000E941B1B892D0E94761B85E692E00E94FB
:1005C0001B1B8A2D0E94761B85E692E00E941B1B56
:1005D0008B2D0E94761B85E692E00E941B1B8C2DC2
:1005E0000E94761B85E692E00E941B1B8D2D6FC03A
:1005F0006AE472E0CE0101960E947E10BE016F5F38
:100600007F4FC8010E943B15F82ECE0101960E9433
:100610004416FF2009F45EC0C8010E941D1BAC01F6
:100620004F5F5F4FB801CE0101960E94780BBE016B
:100630006F5F7F4FC8010E947515CE0101960E9421
:100640004416C8010E941D1B9C0140E050E0B80107
:10065000CE0101960E94FE15CE0101960E94301532
:100660006B017C01CE0101960E944416C8010E94D4
:100670001D1BAC014F5F5F4FB801CE0101960E9478
:10068000780BBE016F5F7F4FC8010E947515CE01C8
:1006900001960E944416C8010E943015B62EC6016C
:1006A0000E946C1A8BE592E00E941B1BB601DD0CC8
:1006B000880B990B97FF03C00E94901B03C04AE070
:1006C0000E94351B85E692E00E941B1B8B2D0E9429
:1006D0007D1B7DC167E672E0CE0101960E947E100F
:1006E000BE016F5F7F4FC8010E943B15F82ECE01FF
:1006F00001960E944416FF2049F1C8010E941D1B6B
:10070000AC014F5F5F4FB801CE0101960E94780B9C
:10071000BE016F5F7F4FC8010E947515CE01019623
:100720000E944416C8010E943015F62E8CE08F15E9
:1007300040F06F2D8FEF93E00E946C1A85E792E0F6
:10074000D5C086E892E00E94CF1B41C161EA72E009
:10075000C8010E945615882319F08FEF93E02CC032
:100760006FEA72E0CE0101960E947E10BE016F5FBB
:100770007F4FC8010E943B15F82ECE0101960E94C2
:100780004416FF20E1F0C8010E941D1BAC014F5F21
:100790005F4FB801CE0101960E94780BBE016F5FDA
:1007A0007F4FC8010E947515CE0101960E94441624
:1007B000C8010E943015CB010E94881A88CF60ECD6
:1007C00072E0CE0101960E947E10BE016F5F7F4FE6
:1007D000C8010E943B15F82ECE0101960E944416D6
:1007E000FF2009F487C0C8010E941D1BAC014F5FA8
:1007F0005F4FB801CE0101960E94780BBE016F5F7A
:100800007F4FC8010E947515CE0101960E944416C3
:10081000C8010E941D1B9C0140E050E0B801CE01C0
:1008200001960E94FE15CE0101960E943015E62E1B
:10083000CE0101960E944416C8010E941D1BAC0106
:100840004F5F5F4FB801CE0101960E94780BBE0149
:100850006F5F7F4FC8010E947515CE0101960E94FF
:100860004416C8010E941D1B9C0140E050E0B801E5
:10087000CE0101960E94FE15CE0101960E94301510
:10088000C62ECE0101960E944416C8010E941D1B6F
:10089000AC014F5F5F4FB801CE0101960E94780B0B
:1008A000BE016F5F7F4FC8010E947515CE01019692
:1008B0000E944416C8010E943015A62EB12CD12CDE
:1008C000F12CA501B601C7010E94640B982EA50169
:1008D000B601C7010E944F0BF82E8EEC92E00E94E9
:1008E0001B1B892D0E94761B85E692E00E941B1B34
:1008F0008F2DEDCE6AED72E0CE0101960E947E1042
:10090000BE016F5F7F4FC8010E943B15F82ECE01DC
:1009100001960E944416FF2019F085E090E015C072
:1009200068EE72E0CE0101960E947E10BE016F5FFC
:100930007F4FC8010E943B15F82ECE0101960E9400
:100940004416FF2029F08AE090E00E94B71B3FC0C8
:1009500066EF72E0CE0101960E947E10BE016F5FCD
:100960007F4FC8010E943B15F82ECE0101960E94D0
:100970004416FF2061F1C8010E941D1BAC014F5FAE
:100980005F4FB801CE0101960E94780BBE016F5FE8
:100990007F4FC8010E947515CE0101960E94441632
:1009A000C8010E943015611103C01092150103C0E7
:1009B00081E08093150187E093E00E941B1B60910A
:1009C000150170E080E090E04AE00E94351BB8011C
:1009D000CE0107960E94491663E173E0CE010196AD
:1009E0000E947E10BE016F5F7F4FCE0107960E946E
:1009F0003B15F82ECE0101960E944416FF2009F403
:100A000040C0CE0107960E941D1BAC014F5F5F4F97
:100A1000BE01695F7F4FCE0101960E94780BBE0137
:100A20006F5F7F4FCE0107960E947515CE0101962C
:100A30000E944416CE0107960E943015F62E82E0E1
:100A40008F15D0F06F2D8EEF93E00E946C1A80917D
:100A5000FB05813019F48AE696E002C086E596E04F
:100A60000E94AA0CF092FB050E94F81A82E293E021
:100A70000E941B1B8F2D11C081E393E00E94CF1BAE
:100A80000EC06CE473E0CE0107960E9456158823D1
:100A900031F08EEF93E00E94881A0E947D1BCE01F8
:100AA00007960E944416B801CE010D960E94491681
:100AB0006BE573E0CE010D960E945615882321F058
:100AC0008AE693E00E941B1BBE01635F7F4FCE014D
:100AD00007960E9449166BE573E0CE0101960E94CD
:100AE0007E10BE016F5F7F4FCE0107960E943B15BF
:100AF000182FCE0101960E944416112329F084E795
:100B000093E00E941B1B6BC06CE773E0CE01019663
:100B10000E947E10BE016F5F7F4FCE0107960E943C
:100B20003B15182FCE0101960E9444161123C9F1DE
:100B3000CE0107960E941D1BAC014F5F5F4FBE01A7
:100B4000695F7F4FCE0101960E94780BBE016F5FF7
:100B50007F4FCE0107960E947515CE0101960E9427
:100B60004416CE0107960E941D1B9C0140E050E0F8
:100B7000BE01695F7F4FCE0101960E94FE15CE0136
:100B800001960E943015CE0101966B8B0E9444168F
:100B90006B8970E0709314016093130181E993E015
:100BA00016C062EA73E0CE0101960E947E10BE017B
:100BB0006F5F7F4FCE0107960E943B15182FCE0125
:100BC00001960E944416112351F087EB93E00E9496
:100BD0001B1B80911301909114010E94B71BCE0141
:100BE00007960E944416BE01635F7F4FCE010796B1
:100BF0000E9449166BE573E0CE0101960E947E10BB
:100C0000BE016F5F7F4FCE0107960E943B15182FE4
:100C1000CE0101960E944416112321F088EC93E046
:100C20000E941B1BCE0107960E944416BE01635F03
:100C30007F4FCE0107960E9449166BE573E0CE0107
:100C400001960E947E10BE016F5F7F4FCE01079616
:100C50000E943B15182FCE0101960E9444161123C5
:100C600029F08CED93E00E941B1B85C162ED73E0BF
:100C7000CE0101960E947E10BE016F5F7F4FCE01B4
:100C800007960E943B15182FCE0101960E9444162C
:100C9000112309F470C1CE0107960E941D1BAC01FF
:100CA0004F5F5F4FBE01695F7F4FCE0101960E948B
:100CB000780BBE016F5F7F4FCE0107960E947515BE
:100CC000CE0101960E944416CE0107960E941D1B7C
:100CD0009C0140E050E0BE01695F7F4FCE0101966C
:100CE0000E94FE15CE0101960E943015F62ECE010F
:100CF00001960E944416CE0107960E941D1BAC016E
:100D00004F5F5F4FBE01695F7F4FCE0101960E942A
:100D1000780BBE016F5F7F4FCE0107960E9475155D
:100D2000CE0101960E944416CE0107960E941D1B1B
:100D30009C0140E050E0BE01695F7F4FCE0101960B
:100D40000E94FE15CE0101960E943015E62ECE01BE
:100D500001960E94441682E1F89E800111248BE0E6
:100D60008F1548F088E08E1530F06E2DC801875A37
:100D70009D4F0E946C1A480188EA881A8DEF980AE4
:100D8000580185EAA81A8DEFB80A065A1D4FC12CE2
:100D9000D12C412C512C32014394CE0107960E9454
:100DA0001D1BAC014F5F5F4FBE01695F7F4FCE01DE
:100DB00001960E94780BBE016F5F7F4FCE010796B0
:100DC0000E947515CE0101960E944416CE01079629
:100DD0000E941D1B9C0140E050E0BE01695F7F4FF7
:100DE000CE0101960E94FE15CE0101960E9430159B
:100DF000CE0101966B8B0E9444166B898BE08F1598
:100E000018F0C8010E946C1ACE0107960E941D1BA3
:100E1000AC014F5F5F4FBE01695F7F4FCE0101960E
:100E20000E94780BBE016F5F7F4FCE0107960E9434
:100E30007515CE0101960E944416CE0107960E94B8
:100E40001D1B9C0140E050E0BE01695F7F4FCE0159
:100E500001960E94FE15CE0101960E943015CE012A
:100E600001966B8B0E9444166B898BE08F1518F0EE
:100E7000C5010E946C1ACE0107960E941D1BAC0191
:100E80004F5F5F4FBE01695F7F4FCE0101960E94A9
:100E9000780BBE016F5F7F4FCE0107960E947515DC
:100EA000CE0101960E944416CE0107960E941D1B9A
:100EB0009C0140E050E0BE01695F7F4FCE0101968A
:100EC0000E94FE15CE0101960E943015362ECE01ED
:100ED00001960E9444168BE08F15C8F0C4010E9451
:100EE000881A282FD301C2010C2C04C0880F991F27
:100EF000AA1FBB1F0A94D2F7332019F0622F682B68
:100F000003C08095622F6823C4010E946C1A8FEF82
:100F1000C81AD80A82E0A80EB11C0E5F1F4F88E0E5
:100F2000C816D10409F039CFCE0107960E941D1BC7
:100F3000AC014F5F5F4FBE01695F7F4FCE010196ED
:100F40000E94780BBE016F5F7F4FCE0107960E9413
:100F50007515CE0101960E94441682EE93E00E9420
:100F60001B1B8F2D0E94761B85E692E00E941B1BA7
:100F70008E2D0E947D1BCE0107960E944416BE0155
:100F8000635F7F4FCE0107960E9449166BE573E0C1
:100F9000CE0101960E947E10BE016F5F7F4FCE0191
:100FA00007960E943B15182FCE0101960E94441609
:100FB000112321F08DEE93E00E941B1BCE010796BA
:100FC0000E944416BE01635F7F4FCE0107960E94C8
:100FD00049166BE573E0CE0101960E947E10BE01BA
:100FE0006F5F7F4FCE0107960E943B15182FCE01F1
:100FF00001960E944416112321F083EF93E00E9492
:101000001B1BCE0107960E944416BE01635F7F4FF3
:10101000CE0107960E9449166BE573E0CE0101965A
:101020000E947E10BE016F5F7F4FCE0107960E9427
:101030003B15182FCE0101960E944416112329F06A
:101040008EEF93E00E941B1B38C267E074E0CE0174
:1010500001960E947E10BE016F5F7F4FCE01079602
:101060000E943B15182FCE0101960E9444161123B1
:1010700009F423C2CE0107960E941D1BAC014F5FED
:101080005F4FBE01695F7F4FCE0101960E94780BD2
:10109000BE016F5F7F4FCE0107960E947515CE018E
:1010A00001960E944416CE0107960E941D1B9C01CA
:1010B00040E050E0BE01695F7F4FCE0101960E9483
:1010C000FE15CE0101960E943015B62ECE01019676
:1010D0000E944416CE0107960E941D1BAC014F5F73
:1010E0005F4FBE01695F7F4FCE0101960E94780B72
:1010F000BE016F5F7F4FCE0107960E947515CE012E
:1011000001960E944416CE0107960E941D1B9C0169
:1011100040E050E0BE01695F7F4FCE0101960E9422
:10112000FE15CE0101960E943015362ECE01019695
:101130000E944416CE0107960E941D1BAC014F5F12
:101140005F4FBE01695F7F4FCE0101960E94780B11
:10115000BE016F5F7F4FCE0107960E947515CE01CD
:1011600001960E944416CE0107960E941D1B9C0109
:1011700040E050E0BE01695F7F4FCE0101960E94C2
:10118000FE15CE0101960E943015462ECE01019625
:101190000E944416CE0107960E941D1BAC014F5FB2
:1011A0005F4FBE01695F7F4FCE0101960E94780BB1
:1011B000BE016F5F7F4FCE0107960E947515CE016D
:1011C00001960E944416CE0107960E941D1B9C01A9
:1011D00040E050E0BE01695F7F4FCE0101960E9462
:1011E000FE15CE0101960E943015562ECE010196B5
:1011F0000E944416CE0107960E941D1BAC014F5F52
:101200005F4FBE01695F7F4FCE0101960E94780B50
:10121000BE016F5F7F4FCE0107960E947515CE010C
:1012200001960E944416CE0107960E941D1B9C0148
:1012300040E050E0BE01695F7F4FCE0101960E9401
:10124000FE15CE0101960E943015662ECE01019644
:101250000E944416CE0107960E941D1BAC014F5FF1
:101260005F4FBE01695F7F4FCE0101960E94780BF0
:10127000BE016F5F7F4FCE0107960E947515CE01AC
:1012800001960E944416CE0107960E941D1B9C01E8
:1012900040E050E0BE01695F7F4FCE0101960E94A1
:1012A000FE15CE0101960E943015762ECE010196D4
:1012B0000E944416CE0107960E941D1BAC014F5F91
:1012C0005F4FBE01695F7F4FCE0101960E94780B90
:1012D000BE016F5F7F4FCE0107960E947515CE014C
:1012E00001960E944416CE0107960E941D1B9C0188
:1012F00040E050E0BE01695F7F4FCE0101960E9441
:10130000FE15CE0101960E943015862ECE01019663
:101310000E944416CE0107960E941D1BAC014F5F30
:101320005F4FBE01695F7F4FCE0101960E94780B2F
:10133000BE016F5F7F4FCE0107960E947515CE01EB
:1013400001960E944416CE0107960E941D1B9C0127
:1013500040E050E0BE01695F7F4FCE0101960E94E0
:10136000FE15CE0101960E943015962ECE010196F3
:101370000E944416CE0107960E941D1BAC014F5FD0
:101380005F4FBE01695F7F4FCE0101960E94780BCF
:10139000BE016F5F7F4FCE0107960E947515CE018B
:1013A00001960E944416CE0107960E943015A62E83
:1013B0000B2D10E083E18B1590F1780183E0EE0CAA
:1013C000FF1C8A95E1F7670186EBC81A8CEFD80AF3
:1013D000C6010E94881A8C7F682F630DC6010E9487
:1013E0006C1AC6010E94881A8370942D990F990F68
:1013F000682F690FC6010E946C1A652DC701845BB6
:101400009C4F0E946C1A672DC701825B9C4F0E9403
:101410006C1A692DC701805B9C4F0E946C1A462D87
:1014200060E0C8010E94270B482D61E0C8010E94BE
:10143000270B4A2D62E0C8010E94270B8AE194E045
:101440000E941B1B8B2D0E94761B85E692E00E945A
:101450001B1B832D0E94761B85E692E00E941B1BBE
:10146000842D0E94761B85E692E00E941B1B852D31
:101470000E94761B85E692E00E941B1B862D0E942F
:10148000761B85E692E00E941B1B872D0E94761B2F
:1014900085E692E00E941B1B882D0E94761B85E644
:1014A00092E00E941B1B892D0E94761B85E692E02C
:1014B0000E941B1B8A2D0E947D1BCE0107960E9455
:1014C0004416BE01635F7F4FCE0107960E94491606
:1014D0006BE573E0CE0101960E947E10BE016F5F46
:1014E0007F4FCE0107960E943B15182FCE01019623
:1014F0000E944416112321F088E294E00E941B1BF5
:10150000CE0107960E9444166BE573E0CE010D965E
:101510000E945615882321F082E394E00E941B1B51
:10152000CE010D960E94441663960FB6F894DEBF66
:101530000FBECDBFDF91CF911F910F91FF90EF9024
:10154000DF90CF90BF90AF909F908F907F906F90E3
:101550005F904F903F9008958C3091058CF46830E7
:1015600078F442E1489F9001499F300D1124C90150
:10157000860F911D860F911D855A9D4F0C94881AD8
:1015800080E00895CF93DF932091070530910805FF
:10159000882319F02F5F3F4F02C02150310930934B
:1015A000080520930705C0910705D09108058FEF26
:1015B00093E00E94881A90E0C817D9072CF0109287
:1015C00008051092070507C0D7FF05C00197909343
:1015D000080580930705DF91CF9108950F931F931E
:1015E000CF93DF9381E080934B0407E314E0C0E0E6
:1015F000D0E0F80180818823F9F0209711F480EE83
:1016000004C0C130D10521F481EE0E940F1B12C02D
:10161000C230D10511F482EEF8CFC330D10511F4F8
:1016200086EEF3CF8091070590910805909306050B
:1016300080930505F801108221960F5F1F4FC4317A
:10164000D105B9F6DF91CF911F910F9108958431A3
:10165000910584F4633070F423E0880F991F2A9574
:10166000E1F7860F911D860F911D642F835B9C4FC0
:101670000C946C1A0895843191057CF4633068F4FD
:1016800023E0880F991F2A95E1F7845B9C4F860F12
:10169000911D860F911D0C94881A80E00895EAE050
:1016A000E69F9001E79F300D1124820F931F62E3A4
:1016B000649F9001659F300D1124820F931F880F46
:1016C000991F01960C94881AEAE0E69F9001E79F23
:1016D000300D1124820F931F62E3649F9001659F78
:1016E000300D1124820F931F880F991F0C94881AB4
:1016F000CF93DF93EC01FB01248135810E94FE151D
:10170000CE01DF91CF9108950F931F93CF93DF9375
:10171000EC01E881F9810084F185E02D40E0099534
:101720008C01892B39F0E881F9810680F781E02D61
:10173000CE010995C801DF91CF911F910F910895B6
:101740000F931F93CF93DF93EC01E881F98100841D
:10175000F185E02D41E009958C01892B39F0E88174
:10176000F9810680F781E02DCE010995C801DF914E
:10177000CF911F910F910895FF920F931F93CF93D5
:10178000DF938C01F62E0E94A00BEC01892B21F037
:101790006F2DC8010E94840BCE01DF91CF911F9164
:1017A0000F91FF900895CF93DF93D82FC62F80918C
:1017B0001501882309F454C0611104C08D2F0E94C3
:1017C0000F1B4EC0613091F06230C9F48091360435
:1017D00081110CC08091FB056CE2813019F48AE61E
:1017E00096E002C086E596E00E94BC0B809107055A
:1017F00090910805909306058093050531C06B30E4
:1018000091F06C3019F460E080EE24C06D3001F18D
:101810006E3019F460E086EE1DC06F3039F460E080
:1018200080EE0E94D30B60E081EE14C0603129F499
:1018300060E080EE0E94D30B07C0613119F460E0D4
:1018400080EE04C0623161F460E081EE0E94D30B4F
:1018500060E082EE0E94D30B60E08D2F0E94D30BDC
:1018600080911501882391F18CEE8C0F8A3070F5F0
:10187000C43119F460E080EE04C0C53129F460E0A1
:1018800081EE0E94D30B12C0C63119F460E082EEE3
:10189000F8CFC73119F460E086EEF3CF80910705E9
:1018A0009091080590930605809305058091360474
:1018B00081110CC08091FB056D2F813019F48AE6EF
:1018C00096E002C086E596E00E94BC0B809115016F
:1018D000882329F0C33119F48D2F0E948A1A809130
:1018E00015018823A1F1CF3139F480911801805876
:1018F0008D1B809318012BC0C03239F480911701E1
:1019000080588D1B8093170122C0C13239F4809119
:10191000160180588D1B8093160119C0C232B9F48C
:10192000D13011F481E00FC0D23011F482E00BC04D
:10193000D33011F484E007C0D43011F488E003C040
:10194000D53029F480E1DF91CF910C94361CDF91E2
:10195000CF9108950F931F93CF93DF93EC01E8810C
:10196000F9810480F581E02D09958C01892B39F0EE
:10197000E881F9810680F781E02DCE010995C80143
:10198000DF91CF911F910F9108956F927F928F9267
:101990009F92AF92BF92CF92DF92EF92FF920F93FE
:1019A0001F93CF93DF9300D01F92CDB7DEB7082FE0
:1019B000162F81E08093360480911501882309F465
:1019C00092C0611104C0802F0E94031B8CC0613043
:1019D00021F0623059F410923604802F002E000C52
:1019E000990B90930605809305057DC06330B9F58A
:1019F000011102C081E003C0013021F480E00E94A7
:101A0000C20A71C0E0900705F090080581E00E2C35
:101A100001C0880F0A94EAF7282F3AE0C32ED12C90
:101A2000220F69F08FEFE81AF80A8FEF93E02B830B
:101A30000E94881A90E02B81E816F9061CF021E03C
:101A4000E12CF12C822F802329F0F0920805E092FE
:101A5000070549C091E0C91AD10811F7F6CF6530E2
:101A600089F42091050530910605802F002E000C89
:101A7000990B2817390709F0B0CF8091070590918D
:101A80000805AFCF6B3091F06C3019F460E080EE58
:101A900024C06D3001F16E3019F460E086EE1DC097
:101AA0006F3039F460E080EE0E94C50C60E081EE9A
:101AB00014C0603129F460E080EE0E94C50C07C0BC
:101AC000613119F460E080EE04C0623161F460E0DD
:101AD00081EE0E94C50C60E082EE0E94C50C60E0C1
:101AE000802F0E94C50C80911501882361F116306A
:101AF00051F58091FB05813019F48AE696E002C029
:101B000086E596E00E94AA0C602F8EEF93E00E947B
:101B10006C1A8091FB05813019F48AE696E002C0C8
:101B200086E596E00E94AA0C0093FB050E94F81A35
:101B30008091FB05813019F48AE696E002C086E5C3
:101B400096E00E94AA0C80911501882309F446C0F2
:101B50001A3009F037C10536B4F480911301909121
:101B60001401800F911D07FD9A9597FF05C01092F3
:101B700014011092130125C08F3F9105F1F0ECF094
:101B80008FEF90E01AC0053691F3063619F480E223
:101B900090E013C0073619F480E490E00EC00836D8
:101BA00019F480E690E009C0093619F480E890E065
:101BB00004C00A3631F480EA90E0909314018093D7
:101BC000130188EE810F863048F410923604812F7D
:101BD00090E0479790930605809305058091150145
:101BE000882309F45DC0173009F05AC0802E002EFA
:101BF000000C99088CE0881691040CF051C092E119
:101C0000090260011124C601875A9D4F0E94881A5B
:101C1000560196EAA91A9DEFB90AE12CF12C682E1B
:101C2000712C88EAC81A8DEFD80AE614F7042CF54F
:101C3000C6010E94881A90E00E2C02C095958795E7
:101C40000A94E2F76E2D80FFD6C0C4010E94AC0A50
:101C5000682FC5016B830E94881A6B810E94D30B89
:101C600065E070E080E090E00E9439199FEFE91A8A
:101C7000F90A82E0A80EB11CD8CF80910705909197
:101C8000080590930605809305058091FB0581303A
:101C900019F48AE696E002C086E596E00E94AA0C56
:101CA00080911501882359F1143049F5011102C0C2
:101CB00081E017C0013011F482E013C0023011F44A
:101CC000198310C0033011F488E00BC0043011F404
:101CD00080E107C0053011F480E403C0063079F4D8
:101CE00080E889831A820E940E1A22E030E0AE0159
:101CF0004F5F5F4F65E00E94BD190E94E21A80911C
:101D00001501882379F11E3159F5802F002E000C22
:101D1000990BFC01E95CFB4F308121E023272083F4
:101D20002223F1F0011102C080EE03C0013021F442
:101D300081EE0E94031B11C0023011F482EEF9CF34
:101D4000033011F486EEF5CF2CEF200F203128F46C
:101D50000397909306058093050510924B0402C0EB
:101D60000E94EE0A80911501882309F482C0133184
:101D700009F04DC0002E000C110BF801E357FB4F8A
:101D80008081843008F075C08F5F80830431110535
:101D90006CF4C80123E0880F991F2A95E1F7865B50
:101DA0009C4F0E94881A8695869501C080E0F801B4
:101DB000E758FB4F880F8083F801EB59FB4F81E018
:101DC000808357C0143119F460E080EE09C01531EA
:101DD00019F460E081EE04C0163139F460E082EE5F
:101DE0000E94C50C10923604F9CE173109F0E9CEE5
:101DF00060E086EEF5CFC4010E94AC0A682FC501F1
:101E00006B830E94881A6B810E94C50C29CF1F31F9
:101E100039F4809118018058080F0093180129C0E7
:101E2000103239F4809117018058080F0093170180
:101E300020C0113239F4809116018058080F0093A8
:101E4000160117C01232A9F4013011F481E00FC05D
:101E5000023011F482E00BC0033011F484E007C0BB
:101E6000043011F488E003C0053019F480E10E94C9
:101E7000291C0F900F900F90DF91CF911F910F9120
:101E8000FF90EF90DF90CF90BF90AF909F908F909A
:101E90007F906F900895CF93DF93EC01E881F981F3
:101EA0000480F581E02D0995E881F9810680F781AC
:101EB000E02DCE01DF91CF910994089540915B040C
:101EC00050915C042091590430915A0442175307F1
:101ED000B4F49091E8009570E1F39091E80092FDE0
:101EE00019C08093F10080915B0490915C0401968D
:101EF0008F739927892B19F48EEF8093E8008091D6
:101F00005B0490915C04019690935C0480935B0465
:101F100081E0089580E00895CF92DF92EF92FF92E2
:101F20000F931F93CF93DF931F92CDB7DEB7182F78
:101F3000062FE42E862F880F8E5F99830E945E0FF6
:101F400083E00E945E0FF12EC12E9981D92E8C2D37
:101F50008F19801798F4F601E7FE02C0849101C042
:101F600080810E945E0F182F80E00E945E0F812307
:101F7000FFEFCF1ADF0A8111EACF01C081E00F9095
:101F8000DF91CF911F910F91FF90EF90DF90CF9055
:101F90000895615030F02091F100FC0120830196FA
:101FA000F8CF289884E68093F9050895CF92DF92C0
:101FB000EF92FF920F931F93CF93DF936C017A01FF
:101FC0008B01C0E0D0E0CE15DF0589F0D8016D911E
:101FD0008D01D601ED91FC910190F081E02DC601BB
:101FE0000995892B11F47E0102C02196ECCFC7011F
:101FF000DF91CF911F910F91FF90EF90DF90CF90E5
:102000000895CF93DF931F92CDB7DEB76983DC01CC
:10201000ED91FC910280F381E02D41E050E0BE01A2
:102020006F5F7F4F09950F90DF91CF91089583E007
:102030008093E9008091F200882319F08AE380936D
:10204000E8000895FC018485958597FD0BC09FB736
:10205000F89482E08093E9008091F2009FBF90E0C5
:10206000019608959FB7F89482E08093E9008091EB
:10207000F2009FBF90E00895CF93DF931F92CDB7FA
:10208000DEB7FC018485958597FD05C02FEF3FEFF6
:10209000358724870BC0CE0101960E94DD1B019776
:1020A00019F4898190E002C08FEF9FEF0F90DF91CC
:1020B000CF9108950F931F93CF93DF931F92CDB7C6
:1020C000DEB78C01FC018485958597FF0EC0CE019B
:1020D00001960E94DD1B019719F4298130E002C0AE
:1020E0002FEF3FEFF80135872487F8018485958528
:1020F0000F90DF91CF911F910F910895FC011182F4
:10210000108213821282158214826115710551F0BA
:10211000FB0101900020E9F73197AF01461B570BF7
:102120000C94B21508951F920F920FB60F921124BE
:102130008F939F938091E1009091E100937F909322
:10214000E10083FF0FC01092E90091E09093EB0053
:102150001092EC0092E39093ED001092FA0598E053
:102160009093F00082FF20C093E09093E90090915B
:10217000F200992319F09AE39093E80090915D049E
:10218000992339F090915D04915090935D049923C7
:1021900089F19091F905992339F09091F9059150C1
:1021A0009093F905992341F184FF10C08091E200DA
:1021B0008E7E81608093E2008091E1008F7E80932B
:1021C000E10080915F048E7E806111C080FF16C0A7
:1021D0008091E2008E7E80618093E2008091E10038
:1021E0008E7E8093E10080915F048E7E816080937B
:1021F0005F0404C05D9ACDCF289AD6CF9F918F916E
:102200000F900FBE0F901F901895BF92CF92DF9244
:10221000EF92FF920F931F93CF93DF936C018B018B
:10222000EB019BEFB92E2097C1F07E01C134D1059F
:102230001CF080E4E82EF12C8091E80082FFFCCFB6
:10224000C8018C1B9D0B6E2D8C0D9D1D0E94C90F0E
:10225000B092E800CE19DF09E6CFC801DF91CF9137
:102260001F910F91FF90EF90DF90CF90BF90089556
:10227000DF92EF92FF920F931F93CF93DF93D82EAD
:102280008A017B01E40EF51EEB01CE15DF0571F02E
:10229000D7FE03C0FE01849101C088810E945E0FB9
:1022A00021968111F2CF8FEF9FEF01C0C801DF911E
:1022B000CF911F910F91FF90EF90DF9008958F9233
:1022C0009F92AF92BF92CF92DF92EF92FF920F93C5
:1022D0001F93CF93DF9300D01F92CDB7DEB7382F77
:1022E0008B018091FA05811103C08FEF9FEF7DC0B4
:1022F00080915F0480FF05C08091E0008260809340
:10230000E0004A018AEFF82E832F8770E82E9FE3C2
:10231000C92E832F8072B82E2AE3D22E832F807489
:10232000A82E8114910409F457C08FB7F894E09255
:10233000E9009091E80095FF05C09091F2002C2DE6
:10234000291B01C020E08FBF211110C0FA94FF208B
:1023500061F261E070E080E090E039834A835B8362
:102360000E94391939814A815B81DBCF822F90E04D
:10237000881699060CF4282D6FB7F894E092E900BE
:102380008091E80085FF26C0822F90E0881A990A84
:10239000BB2029F02150A8F01092F100FBCFF801EA
:1023A00037FF07C0215058F074917093F1003196B7
:1023B000F9CF215020F071917093F100FACF080FFE
:1023C000191F8091E80085FF0DC08114910411F45C
:1023D000A11008C06FBFA5CF5D9884E680935D040F
:1023E000CA0103C0D092E800F5CF0F900F900F9074
:1023F000DF91CF911F910F91FF90EF90DF90CF90E1
:10240000BF90AF909F908F900895CF93DF93EC0192
:1024100080911201882331F083E00E945F11181629
:10242000190634F081E090E09B838A8380E090E09D
:10243000DF91CF910895CF93DF93FC01DB01C2813F
:10244000D381209719F47383628308C088859985A6
:10245000009711F0EC01FACFB987A8878081129616
:102460008C931297818113968C9313979081159674
:102470008C911597890F808380E014969C91149716
:102480008917A0F49181C92FD0E0AE0140505F4F71
:1024900016962D913C911797280F311DE90128813F
:1024A000EA0128839F5F91838F5FE7CF81E0DF910F
:1024B000CF9108958091500481110DC082E08093E6
:1024C0004C0484E080934D0410924F0410924E040B
:1024D00081E0809350048CE494E008950F931F935F
:1024E000CF93DF931F92CDB7DEB782E0898342E4BA
:1024F00050E066EF70E080E80E9438110E945A12A6
:10250000DC0112960D911C9113970115110569F0CC
:10251000D801ED91FC910280F381E02DBE016F5F47
:102520007F4FC801099597FF07C089810F90DF9100
:10253000CF911F910F910895F80100851185E5CF86
:102540001F920F920FB60F921124CF92DF92EF924B
:10255000FF920F931F932F933F934F935F936F932C
:102560007F938F939F93AF93BF93EF93FF93CF93FB
:10257000DF93CDB7DEB76C97DEBFCDBF1092E90019
:102580008091E80083FFF4C168E0CE0145960E9487
:10259000C90F82EF8093E8008D8987FF05C0909175
:1025A000E80090FFFCCF03C09EEF9093E800982FC7
:1025B000907609F0C6C09E892F89188D91110CC0A4
:1025C000803829F4809160048093F10002C0109259
:1025D000F1001092F10041C1422F50E0512B913097
:1025E00051F481113AC14130510509F036C1809151
:1025F00060048D7F0BC0933061F481112EC1413096
:10260000510509F02AC180916004826080936004C2
:1026100024C1953041F48091E80080FFFCCF206810
:102620002093E3001AC1963009F05FC0EB8CFC8C5C
:102630001092E90010925C0410925B04123091F544
:1026400010925A04109259040E946E1299E0BE0131
:102650006F5F7F4FDB01E92F1D92EA95E9F79983C0
:102660001A8391E09E8390EA98879AEF9987209148
:102670005B0430915C04275F3F4F3C832B838D8349
:102680001092E90010925C0410925B04F0925A04DC
:10269000E092590449E050E080E00E9438110E9425
:1026A0006E12DBC0F0925A04E09259040E945A1252
:1026B000DC011296ED90FC901397E114F10409F4FB
:1026C000BAC0D701ED91FC910480F581E02DBE01E7
:1026D0006B5E7F4FC7010995009719F00CF0BDC0E4
:1026E000C0C0F701E084F184E8CF973009F4B9C0A5
:1026F000983021F481E08093F100AFC0993009F067
:10270000ACC0837009F0ADC0E1E0F1E081E021E010
:1027100036E39081992361F08093E9002093EB00E8
:1027200091919093EC003093ED008F5F873089F7A3
:102730008EE78093EA001092EA008F898093FA0571
:102740008CC08B8D9C8D1092E90010925C041092CD
:102750005B0490935A0480935904898D811150C071
:102760008E899D89913A59F4813209F07AC047E007
:1027700050E06BE071E080E00E9438116EC0913251
:1027800009F06FC0833289F4888D90E0982F8827F4
:102790002F89822BA0E0B0E080930701909308017D
:1027A000A0930901B0930A0158C0803239F467E060
:1027B00070E08BE091E00E94051106C0823209F0C2
:1027C0004CC08F898093120180915E04882319F098
:1027D000EEEFFAE002C0E0E0F8E080910B019091AA
:1027E0000C01A0910D01B0910E01803B9440A10518
:1027F000B10509F088C08091120180FFA0C083C09C
:102800000E945A12DC0112960D911C91139701152A
:10281000110539F1D801ED91FC910190F081E02D85
:10282000BE016B5E7F4FC8010995811116C0F8018A
:1028300000851185ECCF1130C1F0133091F48F89F0
:10284000882309F455C08230E9F440E860E188E467
:1028500091E00E948C0F882321F08EEF8093E80096
:1028600087C081E28093EB0083C08B8D9C8D08979D
:1028700011F41093580480915804811136C069E511
:1028800071E038C0813029F440E86BE08CE391E0DE
:10289000E0CF833031F70E945A12DC011296ED909E
:1028A000FC9013978E010F5F1F4F6801E114F10434
:1028B00079F0D701ED91FC910680F781E02DB80108
:1028C000C7010995080F111DF701E084F184EECFCF
:1028D000D8011C92F60101900020E9F73197BF0161
:1028E0006C197D0940E0C601B4CF6BE671E002C00F
:1028F00068E371E06115710509F4B3CFFB01449100
:1029000050E080E839CF0FB6F894A8958091600028
:10291000886180936000109260000FBEA895EE3F22
:102920002AE0F20739F08091FE0A9091FF0A918324
:10293000808393CF1092FF0A1092FE0A8ECFEE3F53
:102940008AE0F80731F0808191819093FF0A8093AB
:10295000FE0A87E797E7918380839BE088E10FB6C3
:10296000F894A895809360000FBE9093600075CF97
:102970006C960FB6F894DEBF0FBECDBFDF91CF913E
:10298000FF91EF91BF91AF919F918F917F916F9147
:102990005F914F913F912F911F910F91FF90EF9079
:1029A000DF90CF900F900FBE0F901F9018951F9340
:1029B000CF93DF93282F30E0F901E753FE4F849146
:1029C000F901E655FE4FD491F901E557FE4FC49148
:1029D000CC23C9F0162F81110E94C018EC2FF0E013
:1029E000EE0FFF1FE851FF4FA591B4918FB7F894F8
:1029F000111105C09C91ED2FE095E92302C0EC91E7
:102A0000ED2BEC938FBFDF91CF911F9108950E9422
:102A1000E9220F931F93CF93DF93EC018881998173
:102A2000009729F02A813B812617370788F48B010C
:102A30006F5F7F4F0E941F22009761F09983888308
:102A40001B830A832C813D81232B11F4FC0110820E
:102A500081E001C080E0DF91CF911F910F91089537
:102A6000FC0180819181009711F00C94202360E09B
:102A700070E0CB010895FB0144815581FC01248164
:102A800035812417350778F080819181009759F0BE
:102A9000FB01608171816115710529F00E9412238B
:102AA00021E0892B09F020E0822F0895FC01248188
:102AB0003581232B31F421E061157105A1F0FB0173
:102AC00008C0FC01808191816115710531F421E01C
:102AD000FC018081882339F005C00E94022321E097
:102AE000892B09F020E0822F08950F931F93CF9335
:102AF000DF938C01EB018617970771F1FC01808150
:102B000091810097B1F0688179816115710579F043
:102B1000428153812C813D814217530740F00E942E
:102B20000B238C819D81F8019583848313C00E94BF
:102B3000872188819981F801918380838A819B8193
:102B4000938382838C819D819583848319821882EB
:102B50001B821A821D821C82C801DF91CF911F91B6
:102B60000F910895EF92FF920F931F93CF93DF93EE
:102B7000EC017B018A01BA010E9409152881398183
:102B800081110DC02115310519F0C9010E9487215D
:102B9000198218821D821C821B821A8206C01D8324
:102BA0000C83B701C9010E940B23CE01DF91CF91A5
:102BB0001F910F91FF90EF900895CF93DF93EC0159
:102BC0006115710559F0FB0101900020E9F731977B
:102BD000AF01461B570B0E94B2150CC0888199812A
:102BE000009711F00E948721198218821D821C8291
:102BF0001B821A82CE01DF91CF910895BF92CF92AE
:102C0000DF92EF92FF920F931F93CF93DF937C019C
:102C10006B018A01E9012417350720F4812F89010E
:102C2000C42FD82F64E374E0C7010E947E10D60140
:102C300014968D919C91159708171907D0F48C174D
:102C40009D0708F4EC01D601ED91FC911197EC0F72
:102C5000FD1FB08010824D915C91BA01600F711F11
:102C6000C7010E94DD15D601ED91FC91EC0FFD1F0F
:102C7000B082C701DF91CF911F910F91FF90EF902C
:102C8000DF90CF90BF900895FC01808191810C94DA
:102C90008721FB01DC0111961C921E9213961C9257
:102CA0001E92129715961C921E92149786179707DC
:102CB00049F0608171816115710521F04481558170
:102CC0000C94B21508953FB7F8948091F505909152
:102CD000F605A091F705B091F80526B5A89B05C0AB
:102CE0002F3F19F00196A11DB11D3FBFBA2FA92F8B
:102CF000982F8827820F911DA11DB11DBC01CD0108
:102D000042E0660F771F881F991F4A95D1F70895F3
:102D1000FC0134969C01245F3F4F80E090E04081AD
:102D2000411101961192E217F307C9F70895FC01CA
:102D300020E2260F2830F0F0DC01169620E030E08B
:102D40008D91442349F0861304C0E20FF31F66837C
:102D500026C0811107C0F9CF861304C0E20FF31F0C
:102D600016821DC02F5F3F4F2630310549F780E0A6
:102D700090E008953481442349F081E090E001C05F
:102D8000880F2A95EAF7832B848309C041E050E03D
:102D900001C0440F2A95EAF740954323448381E01C
:102DA00090E00895FC0134969C012D5E3F4F80E039
:102DB00090E0608160FD0196462F50E05595479563
:102DC000642F452BB9F71192E217F30791F7089595
:102DD000FC016836B8F4862F877021E030E001C02E
:102DE000220F8A95EAF7669566956695E60FF11DBE
:102DF000442319F08581282B03C020959581292330
:102E0000258326C050E2560F5830B0F46481442325
:102E100049F021E030E001C0220F5A95EAF7262B55
:102E2000248316C081E090E001C0880F5A95EAF72C
:102E30008095862384830CC08289442331F08617D1
:102E400011F0811108C0628B03C0861304C0128A7E
:102E500081E090E0089580E090E00895DC01FB01BE
:102E600012968C91129790E02481358182179307F6
:102E7000D1F491818081813A31F481E0913091F0F7
:102E8000933089F411C0813271F49B3021F4828136
:102E90001F968C9305C09A3031F4828150968C93A2
:102EA00081E00895089580E00895DC01FB0188E445
:102EB000808389E4818384E482831D969C911D979D
:102EC0009F709F5B93831D968D919C911E9724E02C
:102ED000969587952A95E1F78F708F5B848385E0BF
:102EE0000895FC0182818F5BFB01808381E008955E
:102EF000CF93DF93EC01FB018A8190E0248135813F
:102F00008217930709F04AC081819081913A69F450
:102F1000813009F441C0833011F48F8903C08230BD
:102F2000E9F5888D8093F10037C09132B9F58B3087
:102F300019F482818F8B30C08A3019F48281888F96
:102F40002BC0893059F5668177818381833079F48C
:102F50008C8D9D8D6817790709F58A8D9B8D0E9450
:102F600005118C8D9D8D90689D8F8C8F15C0823042
:102F700041F46130710591F461E070E0CE01499651
:102F800009C0813059F46830710541F468E070E09F
:102F9000CE010E960E94051181E001C080E0DF9114
:102FA000CF910895FB0120812138B9F42381223289
:102FB000A1F4DC0112962C91129730E044815581E6
:102FC0004217530751F421E057962C9345E450E003
:102FD00068EE71E080E80C94381180E090E008958C
:102FE000CF93DF93CDB7DEB769970FB6F894DEBF06
:102FF0000FBECDBFFC01DB019C919F5F9C93BE0186
:103000006F5F7F4F89E1DB011D928A95E9F729E027
:10301000298384E08A8391E09D8383E08E839F836C
:1030200098872A8721E22B879C879D879F8722E2AA
:10303000288B25E4298B27E02B8B25E02C8B8E8B8E
:1030400020E430E0388F2F8B998F82818B838381AE
:1030500080688D8B49E150E080E00E9438116996CC
:103060000FB6F894DEBF0FBECDBFDF91CF910895AC
:10307000EF92FF920F931F93CF93DF93FB01208179
:10308000213851F52381223239F5DC0112962C9139
:1030900030E04481558142175307F1F4EC010B8570
:1030A0001C85E12CF12C0115110591F0F8014481EA
:1030B00055816281738180E80E9438118F3FFFEF54
:1030C0009F0769F0E80EF91ED8010D911C91EBCF16
:1030D00081E08F87C70105C080E090E002C08FEFDC
:1030E0009FEFDF91CF911F910F91FF90EF90089587
:1030F000CF93DF93CDB7DEB769970FB6F894DEBFF5
:103100000FBECDBFFC01DB018C918F5F8C93BE01A4
:103110006F5F7F4F89E1DB011D928A95E9F729E016
:10312000298384E08A8391E09D8383E08E832A87CC
:1031300021E22B879C879D879F8722E2288B27E0AF
:103140002B8B25E02C8B8E8B20E430E0388F2F8B5F
:10315000998F82818B8395858685998B8A8B8381D4
:1031600080688D8B49E150E080E00E9438116996BB
:103170000FB6F894DEBF0FBECDBFDF91CF9108959B
:1031800090E0FC013197EF30F105B0F5EB59FF4FBE
:103190000C94EC20809180008F7703C08091800098
:1031A0008F7D80938000089580918000877FF9CF84
:1031B00084B58F7702C084B58F7D84BD08958091DA
:1031C00090008F7707C0809190008F7D03C0809121
:1031D0009000877F8093900008958091C0008F7742
:1031E00003C08091C0008F7D8093C00008958091BE
:1031F000C200877F8093C2000895CF93DF9390E051
:10320000FC01E655FE4F2491FC01E557FE4F8491E9
:10321000882361F190E0880F991FFC01E35DFD4F69
:10322000C591D491FC01E851FF4FA591B491611172
:1032300009C09FB7F8948881209582238883EC91F8
:103240002E230BC0623061F49FB7F8943881822F2F
:10325000809583238883EC912E2B2C939FBF06C0EF
:103260008FB7F894E8812E2B28838FBFDF91CF9101
:1032700008958F929F92AF92BF92CF92DF92EF927A
:10328000FF926B017C010E9463164B015C01C1142B
:10329000D104E104F104F1F00E946316DC01CB01DA
:1032A00088199909AA09BB09883E9340A105B1056F
:1032B00070F321E0C21AD108E108F10888EE880E07
:1032C00083E0981EA11CB11CC114D104E104F104D7
:1032D00019F7DDCFFF90EF90DF90CF90BF90AF90C8
:1032E0009F908F9008951F920F920FB60F92112406
:1032F0002F933F938F939F93AF93BF9380916104DC
:1033000090916204A0916304B09164043091F4053B
:1033100023E0230F2D3720F40196A11DB11D05C018
:1033200026E8230F0296A11DB11D2093F40580937A
:10333000610490936204A0936304B0936404809149
:10334000F5059091F605A091F705B091F805019665
:10335000A11DB11D8093F5059093F605A093F70587
:10336000B093F805BF91AF919F918F913F912F91AD
:103370000F900FBE0F901F901895AF92BF92CF92F3
:10338000DF92EF92FF920F931F93CF93DF931F92E1
:10339000CDB7DEB77C0169836A01590141E050E095
:1033A000BE016F5F7F4FFC0183810E945F118C0122
:1033B00097FD0BC0F7018381A501B60180640E94CF
:1033C0005F1197FD02C0800F911F0F90DF91CF9189
:1033D0001F910F91FF90EF90DF90CF90BF90AF9033
:1033E0000895FC01A385B485109719F47487638749
:1033F00009C08D919C911197009711F0DC01F9CFD4
:103400006D937C9325853685DB0114968D919C9177
:103410001597820F931F9687858708958091EC05F5
:10342000811137C081E08093DF058093E00525EEB0
:1034300035E03093E2052093E1051092E405109207
:10344000E30521E431E03093DC052093DB051092A5
:10345000E7051092E6051092E9051092E8058093C1
:10346000EA058093EB0581EC8093E5050E945A12F2
:10347000FC0141812091DF0530E0240F311D28300F
:10348000310524F46BED75E00E941B1281E08093FE
:10349000EC058BED95E00895CF93DF93EC010E944E
:1034A0000E1AAE014C5F5F4F2FE030E068E0DF9115
:1034B000CF910C94BD190F931F93CF93DF93EB0122
:1034C0008A010E940E1A9801AE0161E0DF91CF914E
:1034D0001F910F910C94BD190F931F93CF93DF93FE
:1034E0001F92CDB7DEB78C0169830E945C2369818E
:1034F000681741F0C8010F90DF91CF911F910F9194
:103500000C9464230F90DF91CF911F910F91089538
:103510000C945C23EF92FF920F931F93CF93DF9352
:10352000C82F880FDD0BCE0183579B4F7C01DC0138
:103530001C911150C431D10594F4133080F4CE01A4
:1035400023E0880F991F2A95E1F7810F911D810FC4
:10355000911D835B9C4F0E94881A082F01C000E0D8
:10356000612FCE010E943B0B602F0E94D30BFE0106
:10357000EB59FB4F8081811105C0D7011C92C758C0
:10358000DB4F18821082DF91CF911F910F91FF9036
:10359000EF900895BC01009791F0FC01019000208C
:1035A000E9F73197AF01481B590BE091FC05F09109
:1035B000FD050280F381E02D8CEF95E0099480E019
:1035C00090E00895CF93DF9300D0CDB7DEB7198296
:1035D0001A820E940E1A22E030E0AE014F5F5F4F68
:1035E00065E00E94BD190F900F90DF91CF91089573
:1035F0008091FB05813019F48AE696E002C086E5E9
:1036000096E00C944B0F682F8091FB05813019F4E4
:103610008AE696E002C086E596E00C94A00B682F3F
:103620008091FB05813019F48AE696E002C086E5B8
:1036300096E00C94840B0C94CA1ACF93DF93FC0190
:1036400024813581232B61F0C081D18168E270E053
:10365000CE010E94F722009719F08C1B9D0B02C02F
:103660008FEF9FEFDF91CF9108958F929F92AF924E
:10367000BF920F931F93CF93DF93CDB7DEB7A19780
:103680000FB6F894DEBF0FBECDBF19A2423008F4CA
:103690004AE08E010F5D1F4F842E912CA12CB12C7E
:1036A000A50194010E94CA20E62FB901CA01015068
:1036B0001109EA3014F4E05D01C0E95CD801EC9333
:1036C000232B242B252B61F7C8010E94CA1AA1962F
:1036D0000FB6F894DEBF0FBECDBFDF91CF911F9123
:1036E0000F91BF90AF909F908F900895682F70E0DA
:1036F00080E090E04AE00C94351BCF93DF93682F75
:1037000070E080E090E04AE00E94351BEC0182E32B
:1037100094E00E94CA1A8C0F9D1FDF91CF910895EB
:10372000CF92DF92EF92FF92CF93DF936B017C01F8
:10373000E091FC05F091FD050190F081E02D6DE236
:103740008CEF95E00995EC0166277727CB016C1982
:103750007D098E099F094AE00E94351B8C0F9D1F31
:10376000DF91CF91FF90EF90DF90CF900895CF93AE
:10377000DF93BC01990F880B990B97FF03C00E9440
:10378000901B03C04AE00E94351BEC0182E394E0E9
:103790000E94CA1A8C0F9D1FDF91CF910895CF937D
:1037A000DF930E94CA1AEC0182E394E00E94CA1AD5
:1037B0008C0F9D1FDF91CF910895FC018091FA0538
:1037C000811103C08FEF9FEF08959FB7F89482E0B7
:1037D0008093E9002091F20030E01216130614F4F1
:1037E00021E030E02115310559F0289884E68093D6
:1037F000F9058091F10080838091F200882319F00F
:103800009FBFC90108958BE68093E800F9CFCF935D
:10381000DF9300D000D0CDB7DEB7EDE7F6E09281C0
:1038200099838A836B834C830190F081E02D019012
:10383000F081E02D44E050E0BE016F5F7F4F8DE7E7
:1038400096E009950F900F900F900F90DF91CF9118
:10385000089590917F06892B891739F080937F0610
:1038600040E060E080E00C94071C089590917F0692
:1038700080958923891739F080937F0640E060E0C6
:1038800080E00C94071C0895CF93DF93CDB7DEB78B
:1038900029970FB6F894DEBF0FBECDBF789484B5DC
:1038A000826084BD84B5816084BD85B5826085BD3C
:1038B00085B5816085BD80916E00816080936E00CA
:1038C00010928100809181008260809381008091BC
:1038D000810081608093810080918000816080936D
:1038E000800080919100826080939100809191008E
:1038F000816080939100809190008160809390001E
:103900008091C10084608093C1008091C100826079
:103910008093C1008091C10081608093C10080913B
:10392000C30081608093C3008091C0008260809357
:10393000C0008091C20081608093C20080917A00B3
:10394000846080937A0080917A00826080937A000C
:1039500080917A00816080937A0080917A008068FB
:1039600080937A001092FA051092600410925F041E
:103970008091D70081608093D70080EA8093D8003F
:1039800089B5806189BD89B5826089BD09B400FEB1
:10399000FDCF61E070E080E090E00E9439198091F5
:1039A000D8008F7C80618093D8008091E000807F78
:1039B0008093E0008091E1008E7E8093E1008DE0B5
:1039C0008093E200559A209AEEEFFFE7859194915B
:1039D0008B3F9C4D19F481E080935E040E94F81A9D
:1039E0008FEF9FEF90930906809308068EEF93E088
:1039F0000E94881A182F8091FB05813019F48AE6FD
:103A000096E002C086E596E00E94AA0C1093FB05A2
:103A10000E94F81A45E654E089E794E0EDE8F4E006
:103A20001192DC011D92CD01DA011D92AD01B4E0CD
:103A3000E13AFB07A9F70FE111E0F801F0800E5F12
:103A40001F4F60E08F2D0E94FD1861E08F2D0E94B6
:103A5000D714F1E009321F0781F709E211E0D8011C
:103A6000FC900E5F1F4F60E08F2D0E94FD1860E0FC
:103A70008F2D0E94D714B1E00D331B0781F720E092
:103A800030E080E090E0AC01420F531FFA01EF55A7
:103A9000FB4F11821082FA01EA58FA4F118210820C
:103AA0000A968436910579F72E5F3F4F2A3031050B
:103AB00041F76CE271E080E090E00E9439192FB785
:103AC000F8948091610490916204A0916304B09194
:103AD00064042FBF80930D0590930E05A0930F05EE
:103AE000B09310054091090550910A0560910B05AE
:103AF00070910C058C019D01041B150B260B370BD7
:103B0000063011052105310560F080930905909379
:103B10000A05A0930B05B0930C0581E08093DA05AC
:103B200002C01092DA058CEF95E00E942210181660
:103B300019060CF04AC08CEF95E00E943C108032D0
:103B400019F189831A8200918406109185060F5F0E
:103B50001F4FB80180E896E00E940915882341F1C3
:103B6000209180063091810680918406909185068F
:103B7000BE016F5F7F4F820F931F0E940B23109334
:103B800085060093840614C060E876E0CE010196B5
:103B90000E944916CE0101960E94A001CE01019615
:103BA0000E94441664E374E080E896E00E94DD150C
:103BB00080918406909185068536910530F064E306
:103BC00074E080E896E00E94DD158091DA05882394
:103BD00009F4DEC000910705109108058FEF93E00E
:103BE0000E94881A90E0801791070CF4EEC1209192
:103BF000050530910605821793070CF4E6C171EABA
:103C0000472E74E0572E8201E9E2EE2EE1E0FE2E0F
:103C1000D7019C90B2E0EB0EF11C61E0892D0E946F
:103C2000FD186FE1C62E61E0D62EA12CB12CF60155
:103C3000219131916F013327F901E753FE4F8491B0
:103C4000F901E655FE4F8490F901E557FE4F749057
:103C50007720A1F081110E94C018E72DF0E0EE0F4F
:103C6000FF1FE358FE4FA591B491EC918E2231E0F5
:103C700020E009F430E0832F922F02C080E090E032
:103C8000F801EA0DFB1D21E082279183808332E059
:103C9000A30EB11C8AE0A816B10409F0C8CF60E0F9
:103CA000892D0E94FD18065F1F4F95E0053019070A
:103CB00009F0AECF36E7A32E35E0B32E42E1842ED5
:103CC00045E0942E00E010E0C12CD12CE12CF12C29
:103CD00095012C0D3D1D38872F8312012C0C3D1CA6
:103CE000D1018D919C91F9012081318128173907EB
:103CF00071F1F401EC0DFD1D0197B9F4609005051B
:103D00007090060571826082A301B801C7010E940C
:103D10004F0B282FA301B801C70129870E94640B0C
:103D20002985622F0E94C50C12C060807180A3019A
:103D3000B801C7010E944F0B282FA301B801C7018A
:103D400029870E94640B2985622F0E94D30BD10121
:103D50008D919C91EF81F88591838083FFEFEF1A1D
:103D6000FF0A2AE0C20ED11C34E6C316D10409F0C2
:103D7000AFCF0F5F1F4F82E0480E511C92E0A90E9B
:103D8000B11CA2E08A0E911C0530110509F09CCFF0
:103D9000009113011091140161E085E00E94FD186B
:103DA0000115110511F460E004C00F3F110529F45D
:103DB00061E085E00E94D7147CC0EEECF1E0E49174
:103DC0008E2F90E0FC013197EF30F10508F06CC0C8
:103DD000EA5AFF4F0C94EC2084B5806884BD07BD7F
:103DE00068C084B5806284BD08BD63C080918000D6
:103DF000806880938000109389000093880059C0E8
:103E00008091800080628093800010938B000093EB
:103E10008A004FC08091800088608093800010935A
:103E20008D0000938C0045C0809190008068809345
:103E3000900010939900009398003BC080919000EF
:103E400080628093900010939B0000939A0031C091
:103E50008091900088608093900010939D00009363
:103E60009C0027C08091C00080688093C000809132
:103E7000C0008F7B8093C0000093CF001AC0809158
:103E8000C00080628093C0000093D00012C0809177
:103E9000C20088608093C2008091C2008B7F8093B3
:103EA000C2000093D20005C0003811050CF080CF8D
:103EB0007ACF8091DA05811105C08091DA058111F0
:103EC0004FC07BC0809115018823B9F389E7C82EC4
:103ED00084E0D82E9DE8892E94E0992E2CE4A22E21
:103EE00023E0B22EE12CF12CF40111914F011123AA
:103EF00049F1D6018C91882319F081508C9322C00E
:103F00001150133050F4C501810F911D810F911D87
:103F100001960E94881A082F01C000E0612FC70196
:103F20000E943B0B602F0E94C50CF701EB59FB4F21
:103F30008081811107C080911501882319F08E2D91
:103F40000E948A1ABFEFEB1AFB0AEFEFCE1ADE0AC5
:103F5000F8E0AF0EB11C04E1E016F10429F6ADCF94
:103F6000809118018038A1F480911701803881F484
:103F700080911601803861F4809111058823E9F061
:103F80001092110510927F0640E060E080E013C0BF
:103F900010927F0640E060E080E00E94071C81E014
:103FA00080931105409116014058609117016058A7
:103FB0008091180180580E94071C80E090E0892BB6
:103FC00009F47DCD0E9400007ACD10920805109270
:103FD0000705109206051092050511CEBC01625F1F
:103FE0007F4FFC01838148E050E080640C945F11B6
:103FF0000A970C94EE1F80E896E00C9444161092F9
:10400000FF051092FE0588EE93E0A0E0B0E08093FB
:10401000000690930106A0930206B09303068DE478
:1040200091E09093FD058093FC058FEF9FEF9093B7
:1040300009068093080681E080935006809351061C
:1040400022E636E03093530620935206109255062E
:104050001092540610925906109258062DE531E040
:1040600030934D0620934C062BE631E030935706F3
:10407000209356068093630680936406109265062B
:1040800010926706109266061092690610926806F2
:1040900081EC809362060E945A12FC0141812091BA
:1040A000500630E0240F311D2830310524F46CE433
:1040B00076E00E941B1210926D0610926C0685E845
:1040C00091E090936B0680936A0680918D06811132
:1040D00013C010928806109287068BE392E09093AB
:1040E0008A068093890686E390E090938C068093FD
:1040F0008B0681E080938D060E940E1A67E876E0B9
:104100000E94F11910927F0683E991E090937E0658
:1041100080937D0680919B06811113C010929606B4
:104120001092950681E792E0909398068093970607
:104130008BE290E090939A068093990681E08093B9
:104140009B060E940E1A65E976E00E94F11964E36D
:1041500074E080E896E00E947E108091A9068111AB
:1041600013C01092A4061092A3068CE992E09093DB
:10417000A6068093A5068BE490E09093A806809312
:10418000A70681E08093A9060E940E1A63EA76E0F2
:104190000C94F119A1E21A2EAA1BBB1BFD010DC044
:1041A000AA1FBB1FEE1FFF1FA217B307E407F507E7
:1041B00020F0A21BB30BE40BF50B661F771F881FC3
:1041C000991F1A9469F760957095809590959B0159
:1041D000AC01BD01CF010895EE0FFF1F0590F491D2
:1041E000E02D0994CF93DF938230910510F482E0A3
:1041F00090E0E091B306F091B40620E030E0C0E03A
:10420000D0E0309711F14081518148175907C0F033
:104210004817590761F482819381209719F09B8395
:104220008A832BC09093B4068093B30626C02115D1
:10423000310519F04217530718F49A01BE01DF0146
:10424000EF010280F381E02DDCCF2115310509F16A
:10425000281B390B2430310590F412968D919C91D6
:1042600013976115710521F0FB019383828304C0CC
:104270009093B4068093B306FD01329644C0FD01CD
:10428000E20FF31F81939193225031092D933C93B8
:104290003AC02091B1063091B206232B41F420910F
:1042A0001B0130911C013093B2062093B10620917E
:1042B000190130911A012115310541F42DB73EB78E
:1042C00040911D0150911E01241B350BE091B10658
:1042D000F091B206E217F307A0F42E1B3F0B28174C
:1042E000390778F0AC014E5F5F4F2417350748F06F
:1042F0004E0F5F1F5093B2064093B1068193919386
:1043000002C0E0E0F0E0CF01DF91CF9108950F937C
:104310001F93CF93DF93009709F48CC0FC01329771
:10432000138212820091B3061091B4060115110593
:1043300081F420813181820F931F2091B106309149
:10434000B2062817390779F5F093B206E093B10663
:1043500071C0D80140E050E0AE17BF0750F412968C
:104360002D913C911397AD012115310509F1D9012A
:10437000F3CF9D01DA013383228360817181860F3F
:10438000971F8217930769F4EC0128813981260F62
:10439000371F2E5F3F4F318320838A819B81938318
:1043A0008283452B29F4F093B406E093B30642C010
:1043B0001396FC93EE931297ED01499159919E014A
:1043C000240F351FE217F30771F480819181840F68
:1043D000951F029611969C938E93828193811396DA
:1043E0009C938E931297E0E0F0E0D80112968D91A5
:1043F0009C911397009719F0F8018C01F6CF8D91DD
:104400009C9198012E5F3F4F820F931F2091B10620
:104410003091B2062817390769F4309729F41092C1
:10442000B4061092B30602C0138212821093B20631
:104430000093B106DF91CF911F910F910895A0E0F5
:10444000B0E0E5E2F2E20C947623EC01009721F46F
:10445000CB010E94F220B8C0FC01E60FF71F9C01BF
:1044600022503109E217F30708F4ACC0D9010D91CD
:104470001C91119706171707B0F00530110508F4C5
:104480009FC0C80104978617970708F499C0025087
:104490001109061B170B019311936D937C93CF01A8
:1044A0000E9487218DC05B01A01AB10A4C01800EC9
:1044B000911EA091B306B091B40640E050E0E12C0B
:1044C000F12C109709F44AC0A815B905D1F56D90E3
:1044D0007C901197630182E0C80ED11CCA14DB04E2
:1044E00080F1A3014A195B096A0182E0C80ED11C60
:1044F0001296BC9012971396AC91B5E0CB16D104EE
:1045000040F0B282A38351834083D9016D937C93A1
:104510000AC00E5F1F4FC301800F911FF9019183E5
:104520008083EB2DFA2FE114F10431F0D7011396BB
:10453000FC93EE93129744C0F093B406E093B30655
:104540003FC08D919C9111974817590708F4AC0111
:104550007D0112960D90BC91A02DB3CF8091B10634
:104560009091B20688159905E1F446175707C8F4EB
:104570008091190190911A01009741F48DB79EB76F
:1045800040911D0150911E01841B950BE817F907FE
:10459000C8F4F093B206E093B106F9017183608329
:1045A0000FC0CB010E94F2207C01009759F0A801B6
:1045B000BE010E94EE22CE010E948721C70104C0E5
:1045C000CE0102C080E090E0CDB7DEB7EEE00C9403
:1045D000922381E090E0F8940C94A923FB01DC0184
:1045E00002C001900D9241505040D8F70895FC014F
:1045F0008191861721F08823D9F79927089531975B
:10460000CF010895FB01DC018D910190801901100B
:10461000D9F3990B0895FB01DC0101900D92002064
:10462000E1F70895FB01DC014150504030F08D91DD
:104630000190801919F40020B9F7881B990B08958F
:104640001F93FC0199278827BC01E894119110322F
:10465000E9F3193010F01E30C8F31B3251F01D324F
:1046600049F4689406C00E944723610F711D811DA3
:10467000911D119110531A30B0F33EF4909580952E
:10468000709561957F4F8F4F9F4F1F910895592FC0
:10469000482F372F262F660F771F881F991F660F09
:1046A000771F881F991F620F731F841F951F660F46
:1046B000771F881F991F0895F999FECF92BD81BD7C
:1046C000F89A992780B50895262FF999FECF1FBA39
:1046D00092BD81BD20BD0FB6F894FA9AF99A0FBE2B
:1046E000019608952F923F924F925F926F927F9220
:1046F0008F929F92AF92BF92CF92DF92EF92FF92F2
:104700000F931F93CF93DF93CDB7DEB7CA1BDB0B9D
:104710000FB6F894DEBF0FBECDBF09942A88398842
:1047200048885F846E847D848C849B84AA84B98449
:10473000C884DF80EE80FD800C811B81AA81B98155
:10474000CE0FD11D0FB6F894DEBF0FBECDBFED0169
:10475000089511E0C5E7D1E004C0FE010E94EC20FD
:0C4760002196C637D107C9F7F894FFCFA7
:10476C0000C18081000000FFFFFFFF00E10000009E
:10477C000000003200018080800000B5068000102F
:10478C00000E000F00120013000A000900080007B9
:10479C0000060004000300020014001500000000D5
:1047AC00002E177818381855170000000001100556
:1047BC001222103C105A101710000000007817F04D
:1047CC0017D2177117EE1FF6FF0000BC0BD60F881F
:1047DC0016F81F971600000000071507150715712E
:1047EC001700000000BC0BD60FD2164C1AE81600AE
:1047FC000000005B1A756E697175656B7265716985
:10480C006E666F004445505245434941544544003F
:10481C00756E697175656B7265716E616D6500544D
:10482C0065726D696E7573204D696E692032007505
:10483C006E697175656B72657176617269616E74A2
:10484C00005465726D696E7573204D696E69203206
:10485C0020747970655A45524F00756E6971756593
:10486C006B72657164726976657200416E696D7503
:10487C007320496E6E6F766120322E352E310075A5
:10488C006E697175656B7265716275696C64004FE8
:10489C00454D00756E697175656B7365746B6579E3
:1048AC0000736574206B65792800756E6971756588
:1048BC006B736574656570726F6D007365742045FC
:1048CC004550524F4D2800756E697175656B736557
:1048DC00746C617900736574206C61796572206306
:1048EC006F756E7428006572726F723A20696E7300
:1048FC00756666696369656E7420454550524F4D07
:10490C0000756E697175656B6765746C617900759E
:10491C006E697175656B676574656570726F6D0036
:10492C00756E697175656B6765746B657900726519
:10493C007475726E206B65792800756E697175657A
:10494C006B676574726F7700756E697175656B67EF
:10495C006574636F6C00756E697175656B736574E6
:10496C006D617374657200736574206D6173746529
:10497C00722800756E697175656B7365746E6B72F8
:10498C006F00736574204E4B524F206D6F64652819
:10499C00006572726F723A20696E76616C69642080
:1049AC004E4B524F206F7074696F6E00756E69714B
:1049BC0075656B6765746E6B726F00756E6971757A
:1049CC00656B6765746D6F647300676574206D6FDC
:1049DC0064732800426C656450574D00756E6971A4
:1049EC0075656B7365746272696768746E657373F1
:1049FC0000736574206272696768746E65737328DE
:104A0C002900756E697175656B676574627269678B
:104A1C0068746E6573730067657420627269676889
:104A2C00746E6573732829006475616C526F6C65C4
:104A3C007300756E697175656B7365746D61637206
:104A4C006F00736574206D6163726F28006D65640F
:104A5C00696100737469636B794B65797300746178
:104A6C007044616E636500756E697175656B736515
:104A7C007474617064616E63650073657420746135
:104A8C007064616E636528006D6F7573654B657935
:064A9C0073000D0A00008A
:2070000055C000006EC000006CC000006AC0000068C0000066C0000064C0000062C0000043
:2070200060C000005EC00000F2C400005AC0000058C0000056C0000054C0000052C00000EE
:2070400050C0000078C000004CC000004AC0000048C0000046C0000044C0000042C00000BE
:2070600040C000003EC000003CC000003AC0000038C0000036C0000034C0000032C0000048
:2070800030C000002EC000002CC000002AC0000028C0000026C0000024C0000022C00000A8
:2070A00020C000001EC000001CC0000011241FBECFEFDAE0DEBFCDBF11E0A0E0B1E0E2E3BC
:2070C000FFE702C005900D92A83AB107D9F711E0A8EAB1E001C01D92AE3BB107E1F78FD30B
:2070E00026C78ECFF89410926F0010928100109285001092840081E085BF15BE47985D9AEB
:20710000289A0C94000008952091B2013091B3012F5F3F4F3093B3012093B201932F37FFA6
:2071200003C08EEF831B982F990F921710F447980895479A08951F920F920FB60F9211246E
:207140002F938F939F93EF93FF9310928500109284008091A8019091A901009741F00197D3
:207160009093A9018093A801892B09F45D9A8091AA019091AB01009741F001979093AB0126
:207180008093AA01892B09F4289AE0E0F0E0859194918F5F9F4F49F08091AC019091AD0151
:2071A00001969093AD018093AC01FF91EF919F918F912F910F900FBE0F901F90189584E0BC
:2071C0008093E9000DC08091E8008B778093E80003C08EB3882351F08091E80082FFF9CFBE
:2071E0008091E80085FFEFCF8091F1000895982F83E08093E9008091E80085FD0DC0809136
:20720000E8008E778093E80003C08EB3882369F08091E80080FFF9CF9093F1005D9884E6CB
:2072200090E09093A9018093A80108954F925F926F927F928F929F92AF92BF92CF92DF921E
:20724000EF92FF920F931F93CF93DF9384E08093E9008091E80082FF57C2289884E690E067
:207260009093AB018093AA01AADF182F853481F48CE49DE19093AD018093AC0107B600FC4B
:20728000FDCFF999FECF81E180935700E89503C0843519F494DF8DE00DC28C34E1F38035F9
:2072A000D1F3843721F484E4A2DF80E003C2813611F489E5FFC18134B1F481DF182F7FDFE3
:2072C00090E0880F991FAA2797FDA095BA2F312F330F20E0442737FD4095542F822B932B68
:2072E000A42BB52BB8C1803711F483E5E3C1833549F4C0E0D1E089917ADF21E0C730D20714
:20730000D1F7D9C1863521F481E371DF80E3D2C1833731F487E86BDF85E969DF8EE1CAC149
:207320008536B9F4E0E0F0E093E085E090935700E89507B600FCFDCF80935700E89507B65D
:2073400000FCFDCFE058FF4FA0E7E030FA0771F7A2CF823739F4E1E0F0E089E08093570024
:207360008491A8C1863439F4E0E0F0E089E08093570084919FC18E3439F4E3E0F0E089E0E5
:2073800080935700849196C1813539F4E2E0F0E089E08093570084918DC1823631F489E521
:2073A00026DF80E024DF80E885C1823419F0873609F0E5C01092AD011092AC0100DF082FE8
:2073C000FEDEF82EFCDE682E8554823008F071C1902F80E0CF2DD0E0C82BD92B10926F00B3
:2073E000173609F04BC081E180935700E895DD24CC24C3943FC0E090AE01F090AF010091CC
:20740000B0011091B101B6E46B16D9F4ED2DF0E0EE29FF29E4918E2FEADEDD2081F082E08D
:2074200090E0A0E0B0E0E80EF91E0A1F1B1FE092AE01F092AF010093B0011093B101DC2470
:2074400018C0D801C701B695A7959795879559D5CEDE82E090E0A0E0B0E0E80EF91E0A1FF2
:207460001B1FE092AE01F092AF010093B0011093B1012197209709F0BECF7DC08090AE01F5
:207480009090AF01A090B001B090B10196E4691609F05DC083E0F40180935700E89507B63E
:2074A00000FCFDCF54C0F6E46F1661F5772031F1E090AE01F090AF010091B0011091B1019E
:2074C0007EDED82ECC24852D90E08C299D29F7010C0140925700E895112482E090E0A0E08B
:2074E000B0E0E80EF91E0A1F1B1FE092AE01F092AF010093B0011093B10102C060DE582E1A
:20750000742423C0E090AE01F090AF010091B0011091B10116950795F794E79450DE682FFA
:20752000C701F7D48091AE019091AF01A091B001B091B1010296A11DB11D8093AE01909349
:20754000AF01A093B001B093B101219704C05524772444244394209709F0A5CF96E46916B6
:2075600041F485E0F40180935700E89507B600FCFDCF8DE03CDE82E080936F009CC0833492
:2075800071F40091AE011091AF0119DE90E021E0F8010C0120935700E89511247CCE8336C8
:2075A00019F5E090AE01F090AF010091B0011091B10105DEF701E16090E021E00C0120938C
:2075C0005700E895112482E090E0A0E0B0E0E80EF91E0A1F1B1FE092AE01F092AF0100936A
:2075E000B0011093B10157CE8D3661F4E091AE01F091AF0185E080935700E89507B600FCF2
:20760000FDCF49CE823551F4E091AE01F091AF0105911491812FEBDD802F4CC0843421F5FE
:20762000E090AE01F090AF010091B0011091B10116950795F794E794C2DD682FC70169D4DE
:207640008091AE019091AF01A091B001B091B1010296A11DB11D8093AE019093AF01A093D8
:20766000B001B093B10117CE843609F5E090AE01F090AF010091B0011091B101D801C70142
:20768000B695A795979587953CD4B1DD82E090E0A0E0B0E0E80EF91E0A1F1B1FE092AE010A
:2076A000F092AF010093B0011093B10104C08B3111F08FE39CDD83E08093E9009091E8002B
:2076C0008091E8008E778093E80095FF04C010C08EB38823C9F08091E80080FFF9CF809193
:2076E000E8008E778093E80003C08EB3882361F08091E80080FFF9CF84E08093E9008091F1
:20770000E8008B778093E800DF91CF911F910F91FF90EF90DF90CF90BF90AF909F908F90AC
:207720007F906F905F904F9008959091B601892F8F77813249F58091B7018032A1F081328A
:2077400019F5913A09F58091E800877F8093E8008DE091E067E070E00BD28091E8008B770B
:207760008093E8000895913279F48091E800877F8093E8008DE091E067E070E05DD2809192
:20778000E8008E778093E800089582E061EC42E0B5D083E061E842E1B1D084E060E842E1EF
:2077A000ADC084B7877F84BF88E10FB6F89480936000109260000FBE20E880E090E00FB63F
:2077C000F89420936100809361000FBE81E085BF92E095BF3F9A209A559AE1E6F0E02083A1
:2077E000108247985D9A289A109289008AEF8093880090936F0083E080938100F0C0409116
:20780000000850910108109201081092000894B714BE88E10FB6F8948093600010926000D5
:207820000FBE292F30E0F901E270F07091FD18C090FF05C0859194918F5F9F4F81F423FFFF
:207840000FC08091090190910A014817590741F0E0E0F0E0859194918F5F9F4F09F042DC64
:20786000A0DF78941092AD011092AC010CC0DEDC36D38091AC019091AD0181549F4110F00D
:207880001092140141DC80911401882381F78091E00081608093E00025DC80E090E0089598
:2078A000FA01923049F0933061F09130F9F485E191E022E130E01EC087E291E02EE330E04D
:2078C00019C0882329F485E691E024E030E012C0813029F489E691E022E230E00BC0823006
:2078E00029F48DE891E028E130E004C080E090E020E030E091838083C90108958093E9004E
:207900008091EB0081608093EB001092ED006093EC004093ED008091EE00881F8827881F62
:2079200008958091B60188238CF403C08EB38823B1F08091E80082FFF9CF8091E8008B772A
:207940008093E80008958EB3882349F08091E80080FFF9CF8091E8008E778093E800089594
:20796000EF92FF920F931F9345D04CD008ED10E0F80180818F77808380818068808380819B
:207980008F7D808319BC1EBA1092B40180EEE82EF12CF70180818B7F8083F8018081816052
:2079A000808380E060E042E0A9DFE1EEF0E080818E7F8083E2EEF0E0808181608083808144
:2079C00088608083F70180818E7F8083F8018081806180831F910F91FF90EF900895E7ED06
:2079E000F0E08081816080838AE482BF81E08093B501B6CFE8EDF0E080818E7F808310921C
:207A0000E20008951092DA001092E10008951F920F920FB60F9211242F933F934F935F93F6
:207A20006F937F938F939F93AF93BF93EF93FF938091DA0080FF1BC08091D80080FF17C0B2
:207A40008091DA008E7F8093DA008091D90080FF0BC080E189BD82E189BD09B400FEFDCF36
:207A600081E08EBB3BD203C019BC1EBA37D28091E10080FF17C08091E20080FF13C0809138
:207A8000E2008E7F8093E2008091E20080618093E2008091D80080628093D80019BC85E049
:207AA0008EBB1CD28091E10084FF2CC08091E20084FF28C080E189BD82E189BD09B400FEC5
:207AC000FDCF8091D8008F7D8093D8008091E1008F7E8093E1008091E2008F7E8093E20012
:207AE0008091E20081608093E2008091B401882331F48091E30087FD02C081E001C084E067
:207B00008EBBECD18091E10083FF21C08091E20083FF1DC08091E100877F8093E10082E06A
:207B20008EBB1092B4018091E1008E7F8093E1008091E2008E7F8093E2008091E2008061E9
:207B40008093E20080E060E042E0D8DEC7D1FF91EF91BF91AF919F918F917F916F915F9130
:207B60004F913F912F910F900FBE0F901F9018959C014091BC015091BD014617570718F49D
:207B8000F90190E044C06115710511F0AB01F8CF8091E8008E778093E80040E050E0F0CF0F
:207BA0008EB3882309F444C0853009F443C08091E80083FF02C081E008958091E80082FD70
:207BC00031C08091E80080FF22C08091F3009091F200782F60E0292F30E0262B372B07C07A
:207BE00081918093F100415050402F5F3F4F4115510519F02830310598F390E02830310566
:207C000009F491E08091E8008E778093E8004115510531F6992321F605C08EB3882341F075
:207C2000853041F08091E80082FFF7CF80E0089582E0089583E008959C016115710529F47C
:207C40008091E8008B778093E800F90126C08EB3882391F1853091F18091E80083FF02C06C
:207C600081E008958091E80082FFF1CF06C08091F10081936150704059F02091F300809191
:207C8000F200322F20E090E0822B932B892B79F78091E8008B778093E80061157105B9F601
:207CA00005C08EB3882341F0853041F08091E80080FFF7CF80E0089582E0089583E00895C2
:207CC0000F931F93DF93CF9300D0CDB7DEB7E6EBF1E08091F100819381E0EE3BF807C9F792
:207CE00024DD8091E80083FFE4C08091B6019091B701953009F46DC0963040F4913081F1A7
:207D0000913070F0933009F0D4C02AC0983009F4A3C0993009F4B2C0963009F0CAC07CC023
:207D2000803809F4C6C0823809F0C3C08091BA0187708093E9008091EB001092E9002091DB
:207D4000E800277F2093E80090E025E0969587952A95E1F781708093F1001092F10087C0D8
:207D6000882319F0823009F0A4C08F71823009F0A0C08091B801882331F52091BA01277097
:207D800009F497C02093E9008091EB0080FF1BC0933021F48091EB00806213C08091EB0018
:207DA00080618093EB0081E090E002C0880F991F2A95E2F78093EA001092EA008091EB00E5
:207DC00088608093EB001092E9008091E800877F51C0882309F06DC01091B8011F770FB79B
:207DE000F8948091E800877F8093E8009ADD8091E80080FFFCCF8091E3008078812B809398
:207E0000E30080688093E300112311F482E001C083E08EBB0FBF4DC08058823008F049C033
:207E20008091B8019091B9016091BA01AE014F5F5F4F36DDBC01009709F43BC08091E8008E
:207E4000877F8093E80089819A8192DE8091E8008B778093E8002DC0803859F58091E800AA
:207E6000877F8093E8008091B4018093F1008091E8008E778093E80054DD1BC08823C9F4CA
:207E80009091B8019230A8F48091E800877F8093E8009093B40145DD8091B401882331F420
:207EA0008091E30087FD02C081E001C084E08EBB6CDC8091E80083FF0AC08091EB0080624E
:207EC0008093EB008091E800877F8093E8000F900F90CF91DF911F910F91089508951F9360
:207EE0008EB3882361F01091E9001092E9008091E80083FF01C0E4DE17701093E9001F916F
:207F00000895F999FECF92BD81BDF89A992780B50895262FF999FECF1FBA92BD81BD20BDBD
:207F20000FB6F894FA9AF99A0FBE01960895F894FFCF4341544552494E4100777700080031
:207F40000000000000080112011001020000084123360001000201000109023E00020100FF
:207F600080320904000001020201000524001001042402040524060001070582030800FF0C
:207F800009040100020A000000070504021000010705830210000104030904220341007216
:207FA000006400750069006E006F0020004C0065006F006E006100720064006F0000001836
:1A7FC00003410072006400750069006E006F0020004C004C004300000000D7
:00000001FF
